:100000000C9455120C94EE290C94C7290C947D1273
:100010000C94961C0C948C1C0C947D120C947D12E8
:100020000C947D120C947D120C947D120C947D1214
:100030000C947D120C947D120C947D120C947D1204
:100040000C9481290C947D120C94BC280C94962855
:100050000C947D120C947D120C947D120C947D12E4
:100060000C940A240C947D12B919D119531A931ABD
:10007000C71A391B7E1B0C07FFE803AA9AA9AA9886
:1000800003FFE04010FFFBFF0000000000FFFBFF4C
:10009000FBFF000000FFFDFFFDFFFDFF00FFFDFF78
:1000A000FDFFFDFFFCFFFDFFFDFFFDFFFFFFFDFF6F
:1000B000FDFFFDFFFFFFFEFFFEFFFEFFFFFFFEFF58
:1000C000FEFFFEFFFFFFFEFFFEFFFEFFFFFFFF7FC5
:1000D000FF7FFF7FFFFFFF7FFF7FFF7FFFFFFF7F30
:1000E000FF7FFF7FFFFFFF7FFF7FFF7FFFFFFFBFE0
:1000F000FFBFFFBFFFFFFFBFFFBFFFBFFFFFFFBF90
:10010000FFBFFFBFFF40100000000000FFDFFF0047
:100110000000FFDFFFDFFF00FFBFFFBFFFBFFF3FAC
:10012000FFBFFFBFFFBFFFFFFFBFFFBFFFBFFFFF5F
:10013000FFBFFFBFFFBFFFFFFF7FFF7FFF7FFFFF0F
:10014000FF7FFF7FFF7FFFFFFF7FFF7FFF7FFFFFBF
:10015000FEFFFEFFFEFFFFFFFEFFFEFFFEFFFFFFB5
:10016000FEFFFEFFFEFFFFFFFEFFFEFFFEFFFFFFA5
:10017000FDFFFDFFFDFFFFFFFDFFFDFFFDFFFFFF9B
:10018000FDFFFDFFFDFFFF262600000000FC000034
:100190000007F00000003FC0000001FF0000000F5A
:1001A000FC0000007FF0000003FFC000001FFF0004
:1001B0000000FEFC000007F3F000003F8FC00001CC
:1001C000FC3F00000FE0FC00000003F00000000F07
:1001D000C00000003F00000000FC00000003F00031
:1001E00000000FC00000003F00000000FC00000005
:1001F00003F00000000FC00000003F00000000FC02
:1002000000000003F00000000FC00000003F0000ED
:100210000000FC00000003F00000000FC000000020
:100220003F00000000FC00000003F00000000FC0D1
:100230000000003F00000000FC00000003F0262644
:100240000FFFFFFFC07FFFFFFF83FFFFFFFF1FFFC9
:10025000FFFFFEFFFFFFFFFFFFFFFFFFFFC00000EC
:100260003FFF000001FFFC00000FFFF000007FFFD8
:10027000C00007FFFF00003FFFFC0001FEFFF00091
:100280000FF3FFC000FF8FFF0007F83FFC003FC0E7
:10029000FFF001FE03FFC00FF00FFF00FF803FFCE7
:1002A00007F800FFF03FC003FFC1FE000FFF0FF093
:1002B000003FFCFF8000FFF7F80003FFFFC0000FC6
:1002C000FFFE00003FFFF00000FFFF800003FFF88B
:1002D00000000FFFC000003FFFFFFFFFFFFFFFFF19
:1002E000FFF7FFFFFFFF8FFFFFFFFC1FFFFFFFE098
:1002F0003FFFFFFF002626000000000000000FC0A7
:100300000000007F00000003FC0000001FF0000060
:1003100000FFC0000007FF0000003FFC000001FFDD
:10032000F000000FEFC000007F3F000003F8FC006A
:10033000001FC3F00000FE0FC00000003F000000DF
:1003400000FC00000003F00000000FC00000003FB0
:1003500000000000FC00000003F00000000FC000DF
:1003600000003F00000000FC00000003F00000005F
:100370000FC00000003F00000000FC00000003F080
:100380000000000FC00000003F00000000FC000063
:100390000003F00000000FC00000003F000000005C
:1003A000FC00000003F00000000FC00026260FFF35
:1003B000FFFFC07FFFFFFF83FFFFFFFF1FFFFFFF68
:1003C000FEFFFFFFFFFFFFFFFFFFFFC000000FFF6B
:1003D0000000003FFC000000FC00000003F00000F3
:1003E000000FC00000003F00000000FC0000000300
:1003F000F00000000FC00000003F0FFFFFFFFC7F78
:10040000FFFFFFF3FFFFFFFF9FFFFFFFFEFFFFFF69
:10041000FFF3FFFFFFFF0FC00000003F00000000E0
:10042000FC00000003F00000000FC00000003F00CF
:10043000000000FC00000003F00000000FC00000FE
:10044000003F00000000FFFFFFFFFFFFFFFFFFFF77
:10045000FFFFFFFFFFFFFFFFFFFFFFFFFFFFFFFFAC
:10046000FFFFF026260FFFFFFF807FFFFFFF03FF48
:10047000FFFFFE1FFFFFFFFCFFFFFFFFFBFFFFFF74
:10048000FFEFC000001FBF0000007EFC000001F86D
:1004900000000007E00000001F800000007E000058
:1004A0000001F800000007E00000001F80000000CD
:1004B0007E01FFFFFFF807FFFFFFC01FFFFFFF8068
:1004C0007FFFFFFF01FFFFFFFC07FFFFFFF00000C2
:1004D0000007C00000001F000000007C00000001B9
:1004E000F000000007C00000001F000000007C00BA
:1004F000000001FFC0000007FF0000001FFFFFFF1A
:10050000FFFFFFFFFFFFF7FFFFFFFFDFFFFFFFFE24
:100510003FFFFFFFF03FFFFFFF8026260000007F28
:1005200000000003FC0000001FF0000000FFC000FE
:100530000007FF0000003FFC000001FFF000000F7B
:10054000FFC00000FFFF000007FEFC00003FF3F0CB
:100550000001FF8FC0000FF83F00007FC0FC0003C8
:10056000FE03F0001FF00FC001FF003F000FF80076
:10057000FC007FC003F003FC000FC01FE0003F0041
:10058000FF0000FC07FFFFFFFFDFFFFFFFFF7FFF14
:10059000FFFFFDFFFFFFFFF7FFFFFFFFDFFFFFFF95
:1005A000FF0000003F00000000FC00000003F0001E
:1005B00000000FC00000003F00000000FC00000031
:1005C00003F00000000FC00000003F00000000FC2E
:1005D000002626FFFFFFFFFFFFFFFFFFFFFFFFFFDC
:1005E000FFFFFFFFFFFFFFFFFFFFFFFFFFFFFFFF1B
:1005F000C00000003F00000000FC00000003F0000D
:1006000000000FC00000003F00000000FC000000E0
:1006100003F00000000FC00000003FFFFFFFF0FFED
:10062000FFFFFFE3FFFFFFFFCFFFFFFFFFBFFFFF66
:10063000FFFFFFFFFFFFFC00000003F00000000FC2
:10064000C00000003F00000000FC00000003F000BC
:1006500000000FC00000003F00000000FFF000009D
:1006600003FFC000000FFF0000003FFFFFFFFFFF80
:10067000FFFFFFFFF7FFFFFFFF8FFFFFFFFC1FFFE5
:10068000FFFFE03FFFFFFF0026260FFFFFFF007F79
:10069000FFFFFC03FFFFFFF01FFFFFFFC0FFFFFF97
:1006A000FF03FFFFFFFC0FC00000003F0000000041
:1006B000FC00000003F00000000FC00000003F003D
:1006C000000000FC00000003F00000000FC000006C
:1006D000003FFFFFFFF0FFFFFFFFE3FFFFFFFFCF44
:1006E000FFFFFFFFBFFFFFFFFFFFFFFFFFFFF00068
:1006F0000003FFC000000FFF0000003FFC000000EF
:10070000FFF0000003FFC000000FFF0000003FFCEF
:10071000000000FFF0000003FFC000000FFF00001A
:10072000003FFFFFFFFFFFFFFFFFFFF7FFFFFFFFA0
:100730008FFFFFFFFC1FFFFFFFE03FFFFFFF0026D3
:100740002603FFFFFF800FFFFFFF803FFFFFFF003B
:10075000FFFFFFFE03FFFFFFFC0FFFFFFFF00000A6
:10076000000FC00000003F00000000FC000000037C
:10077000F00000000FC00000003F00000000FC007F
:10078000000003F00000000FC00000003F00000068
:1007900000FC00000003F00000000FC00000003F5C
:1007A00000000000FC00000003F00000000FC0008B
:1007B00000003F00000000FC00000003F00000000B
:1007C0000FC00000003F00000000FC00000003F02C
:1007D0000000000FC00000003F00000000FC00000F
:1007E0000003F00000000FC00000003F0000000008
:1007F000FC00000003F026260FFFFFFFC07FFFFF75
:10080000FF83FFFFFFFF1FFFFFFFFEFFFFFFFFFF55
:10081000FFFFFFFFFFC000000FFF0000003FFC00D4
:100820000000FFF0000003FFC000000FFF00000009
:100830003FFC000000FFF0000003FFC000000FFFBE
:100840000000003FFFFFFFFFFDFFFFFFFFE7FFFF8F
:10085000FFFF9FFFFFFFFEFFFFFFFFFFF000000312
:10086000FFC000000FFF0000003FFC000000FFF091
:10087000000003FFC000000FFF0000003FFC00006D
:1008800000FFF0000003FFC000000FFF0000003F6A
:10089000FFFFFFFFFFFFFFFFFFF7FFFFFFFF8FFFE0
:1008A000FFFFFC1FFFFFFFE03FFFFFFF0026260FBB
:1008B000FFFFFFC07FFFFFFF83FFFFFFFF1FFFFF63
:1008C000FFFEFFFFFFFFFFFFFFFFFFFFC000000F66
:1008D000FF0000003FFC000000FFF0000003FFC02D
:1008E00000000FFF0000003FFC000000FFF00000D0
:1008F00003FFC000000FFF0000003FFFFFFFFFFFEE
:10090000FFFFFFFFF7FFFFFFFFDFFFFFFFFF3FFFDF
:10091000FFFFFC3FFFFFFFF00000000FC0000000E2
:100920003F00000000FC00000003F00000000FC0CA
:100930000000003F00000000FC00000003F0000089
:10094000000FC00000003FFFFFFFFFFFFFFFFFFFA2
:10095000F7FFFFFFFF8FFFFFFFFC1FFFFFFFE03FE1
:10096000FFFFFF002626000000000000000000003E
:100970000000000000000000000000000000000077
:100980000000000000000000000000000000000067
:100990000000000000000000000000000000000057
:1009A0000000000000000000000000000000000047
:1009B000000000FFFFFC0003FFFFF0000FFFFFC07F
:1009C000003FFFFF0000FFFFFC0003FFFFF00000FF
:1009D0000000000000000000000000000000000017
:1009E0000000000000000000000000000000000007
:1009F00000000000000000000000000000000000F7
:100A000000000000000000000000000000000000E6
:100A100000000000000000000000002626000FC0BB
:100A20000000007F00000003FC0000001FF0000039
:100A300000FFC0000007FF0000003FFC000001FFB6
:100A4000F000000FEFC000007F3F000003F8FC0043
:100A5000001FC3F00000FE0FC00000003F000000B8
:100A600000FC00000003F00000000FC00000003F89
:100A700000000000FC00000003F00000000FC000B8
:100A800000003F00000000FC00000003F000000038
:100A90000FC00000003F00000000FC00000003F059
:100AA0000000000FC00000003F00000000FC00003C
:100AB0000003F00000000FC00000003F0000000035
:100AC000FC00000003F00000000FC00000003F0029
:100AD0000000303007FFFFFFFFF00FFFFFFFFFF8C0
:100AE0001FFFFFFFFFFC3FFFFFFFFFFE3FFFFFFF7A
:100AF000FFFE7FFFFFFFFFFF7F00000003FF7F007F
:100B0000000007FF7F0000000FFF7F0000001FFFB5
:100B10007F0000003FFF7F000000FFFF7F0000011B
:100B2000FFFF7F000003FFFF7F000007FF7F7F00C4
:100B3000000FFE7F7F00001FFC7F7F00007FF07FA3
:100B40007F0000FFE07F7F0001FFC07F7F0003FF89
:100B5000807F7F0007FF007F7F000FFE007F7F0008
:100B60003FFC007F7F007FF0007F7F00FFE0007F81
:100B70007F01FFC0007F7F03FF80007F7F07FF00B2
:100B8000007F7F1FFE00007F7F3FF800007F7F7F98
:100B9000F000007F7FFFE000007F7FFFC000007F4C
:100BA0007FFF8000007F7FFF0000007F7FFC000050
:100BB000007F7FF80000007F7FF00000007F7FE073
:100BC0000000007F7FFFFFFFFFFF3FFFFFFFFFFEF3
:100BD0003FFFFFFFFFFE1FFFFFFFFFFC0FFFFFFFB9
:100BE000FFF807FFFFFFFFF001FFFFFFFFC000005E
:100BF0000000000030300000000001FF0000000095
:100C000003FF0000000003FF0000000007FF0000DA
:100C100000000FFF000000001FFF000000003FFF6A
:100C2000000000007FFF000000007FFF00000000C8
:100C3000FFFF00000001FF7F00000003FE7F0000B7
:100C40000007FE7F0000000FFC7F0000000FF87F10
:100C50000000001FF07F00000000007F0000000087
:100C6000007F00000000007F00000000007F000007
:100C70000000007F00000000007F00000000007FF7
:100C800000000000007F00000000007F0000000066
:100C9000007F00000000007F00000000007F0000D7
:100CA0000000007F00000000007F00000000007FC7
:100CB00000000000007F00000000007F0000000036
:100CC000007F00000000007F00000000007F0000A7
:100CD0000000007F00000000007F00000000007F97
:100CE00000000000007F00000000007F0000000006
:100CF000007F00000000007F00000000007F000077
:100D00000000007F00000000007F00000000007F66
:100D100000000000007F303001FFFFFFFFC007FF31
:100D2000FFFFFFF01FFFFFFFFFF81FFFFFFFFFFCAC
:100D30003FFFFFFFFFFE3FFFFFFFFFFE7FFFFFFFC5
:100D4000FFFF7F000000007F7F000000007F7F002A
:100D50000000007F7F000000007F00000000007F97
:100D600000000000007F00000000007F0000000085
:100D7000007F00000000007F00000000007F0000F6
:100D80000000007F00000000007F00000000007FE6
:100D900000000000007F01FFFFFFFFFF07FFFFFFD4
:100DA000FFFE0FFFFFFFFFFE1FFFFFFFFFFC3FFFE8
:100DB000FFFFFFF83FFFFFFFFFF07FFFFFFFFFC0D8
:100DC0007F00000000007F00000000007F000000A6
:100DD00000007F00000000007F00000000007F0096
:100DE000000000007F00000000007F000000000005
:100DF0007F00000000007F00000000007F00000076
:100E000000007F00000000007F00000000007FFF66
:100E1000FFFFFFFF7FFFFFFFFFFF7FFFFFFFFFFFE2
:100E20007FFFFFFFFFFF7FFFFFFFFFFF7FFFFFFF52
:100E3000FFFF7FFFFFFFFFFF303001FFFFFFFF00DD
:100E400007FFFFFFFFC01FFFFFFFFFE01FFFFFFFC8
:100E5000FFF03FFFFFFFFFF83FFFFFFFFFF87FFFBF
:100E6000FFFFFFFC7F00000001FC7F00000001FC91
:100E70007F00000001FC7F00000001FC000000007A
:100E800001FC0000000001FC0000000001FC00006B
:100E9000000001FC0000000001FC0000000001FC5B
:100EA0000000000001FC0000000001FC0000000048
:100EB00001FC007FFFFFFFFC007FFFFFFFF8007FCA
:100EC000FFFFFFF8007FFFFFFFFC007FFFFFFFFE3B
:100ED000007FFFFFFFFE007FFFFFFFFF000000001D
:100EE000007F00000000007F00000000007F000085
:100EF0000000007F00000000007F00000000007F75
:100F000000000000007F00000000007F00000000E3
:100F1000007F00000000007F7F000000007F7F0056
:100F20000000007F7F000000007F7F800000007FC6
:100F30007FFFFFFFFFFF3FFFFFFFFFFE3FFFFFFFC2
:100F4000FFFE1FFFFFFFFFFC0FFFFFFFFFF807FF84
:100F5000FFFFFFF001FFFFFFFFC030300000000087
:100F60007F8000000000FF8000000001FF80000083
:100F70000003FF8000000007FF800000000FFF80DB
:100F80000000001FFF800000003FFF800000007F86
:100F9000FF80000000FFFF80000001FFFF800000D5
:100FA00007FFFF8000000FFFBF8000001FFE3F8093
:100FB00000003FFC3F8000007FF83F800000FFF012
:100FC0003F800001FFE03F800003FF803F8000077B
:100FD000FF003F80000FFE003F80001FFC003F80AD
:100FE000007FF8003F8000FFF0003F8001FFC0005D
:100FF0003F8003FF80003F8007FF00003F800FFE1F
:1010000000003F801FFC00003F801FFFFFFFFFFF2D
:101010001FFFFFFFFFFF1FFFFFFFFFFF1FFFFFFF80
:10102000FFFF1FFFFFFFFFFF1FFFFFFFFFFF1FFF70
:10103000FFFFFFFF000000003F80000000003F8036
:10104000000000003F80000000003F800000000022
:101050003F80000000003F80000000003F80000053
:1010600000003F80000000003F80000000003F8043
:10107000000000003F80000000003F8030307FFF14
:10108000FFFFFFFF7FFFFFFFFFFF7FFFFFFFFFFF70
:101090007FFFFFFFFFFF7FFFFFFFFFFF7FFFFFFFE0
:1010A000FFFF7FFFFFFFFFFF7F00000000007F00CA
:1010B000000000007F00000000007F000000000032
:1010C0007F00000000007F00000000007F000000A3
:1010D00000007F00000000007F00000000007F0093
:1010E000000000007F00000000007F000000000002
:1010F0007F00000000007FFFFFFFFFC07FFFFFFFBA
:10110000FFF07FFFFFFFFFF87FFFFFFFFFFC7FFF88
:10111000FFFFFFFE7FFFFFFFFFFE7FFFFFFFFFFFE1
:1011200000000000007F00000000007F00000000C1
:10113000007F00000000007F00000000007F000032
:101140000000007F00000000007F00000000007F22
:1011500000000000007F00000000007F7F00000012
:10116000007F7F000000007F7F000000007F7F0085
:101170000000007F7FFFFFFFFFFF3FFFFFFFFFFE3D
:101180003FFFFFFFFFFE1FFFFFFFFFFC1FFFFFFFF3
:10119000FFF807FFFFFFFFF001FFFFFFFFC0303048
:1011A00001FFFFFFFF0007FFFFFFFF000FFFFFFF33
:1011B000FF001FFFFFFFFF003FFFFFFFFF003FFF9C
:1011C000FFFFFF007FFFFFFFFF007F000000000028
:1011D0007F00000000007F00000000007F00000092
:1011E00000007F00000000007F00000000007F0082
:1011F000000000007F00000000007F0000000000F1
:101200007F00000000007F00000000007F00000061
:1012100000007F00000000007FFFFFFFFFC07FFF96
:10122000FFFFFFF07FFFFFFFFFF87FFFFFFFFFFCE7
:101230007FFFFFFFFFFE7FFFFFFFFFFE7FFFFFFF40
:10124000FFFF7F000000007F7F000000007F7F0025
:101250000000007F7F000000007F7F000000007F13
:101260007F000000007F7F000000007F7F00000003
:10127000007F7F000000007F7F000000007F7F0074
:101280000000007F7F000000007F7F000000007FE3
:101290007F000000007F7FFFFFFFFFFF3FFFFFFF9A
:1012A000FFFE3FFFFFFFFFFE1FFFFFFFFFFC0FFFE3
:1012B000FFFFFFF807FFFFFFFFF001FFFFFFFFC089
:1012C0003030007FFFFFFFC0007FFFFFFFF0007F97
:1012D000FFFFFFF8007FFFFFFFFC007FFFFFFFFE27
:1012E000007FFFFFFFFE007FFFFFFFFF0000000009
:1012F000007F00000000007F00000000007F000071
:101300000000007F00000000007F00000000007F60
:1013100000000000007F00000000007F00000000CF
:10132000007F00000000007F00000000007F000040
:101330000000007F00000000007F00000000007F30
:1013400000000000007F00000000007F000000009F
:10135000007F00000000007F00000000007F000010
:101360000000007F00000000007F00000000007F00
:1013700000000000007F00000000007F000000006F
:10138000007F00000000007F00000000007F0000E0
:101390000000007F00000000007F00000000007FD0
:1013A00000000000007F00000000007F000000003F
:1013B000007F00000000007F00000000007F0000B0
:1013C0000000007F00000000007F00000000007FA0
:1013D00000000000007F00000000007F000000000F
:1013E000007F303001FFFFFFFFC007FFFFFFFFF06E
:1013F0000FFFFFFFFFF81FFFFFFFFFFC3FFFFFFF97
:10140000FFFE3FFFFFFFFFFE7FFFFFFFFFFF7F00AD
:101410000000007F7F000000007F7F000000007F51
:101420007F000000007F7F000000007F7F00000041
:10143000007F7F000000007F7F000000007F7F00B2
:101440000000007F7F000000007F7F000000007F21
:101450007F000000007F7F000000007F7F00000011
:10146000007F3FFFFFFFFFFE3FFFFFFFFFFE3FFF4D
:10147000FFFFFFFE3FFFFFFFFFFE3FFFFFFFFFFEFF
:101480007FFFFFFFFFFF7F000000007F7F00000065
:10149000007F7F000000007F7F000000007F7F0052
:1014A0000000007F7F000000007F7F000000007FC1
:1014B0007F000000007F7F000000007F7F000000B1
:1014C000007F7F000000007F7F000000007F7F0022
:1014D0000000007F7F000000007F7FFFFFFFFFFF15
:1014E0003FFFFFFFFFFE3FFFFFFFFFFE1FFFFFFF6E
:1014F000FFFC0FFFFFFFFFF807FFFFFFFFF001FFFB
:10150000FFFFFFC0303003FFFFFFFFC00FFFFFFFF3
:10151000FFF01FFFFFFFFFF83FFFFFFFFFFC7FFF14
:10152000FFFFFFFE7FFFFFFFFFFEFFFFFFFFFFFF4D
:10153000FE000000007FFE000000007FFE000000B3
:10154000007FFE000000007FFE000000007FFE0024
:101550000000007FFE000000007FFE000000007F12
:10156000FE000000007FFE000000007FFE00000083
:10157000007FFE000000007FFE000000007FFE00F4
:101580000000007FFFFFFFFFFFFF7FFFFFFFFFFF68
:101590007FFFFFFFFFFF3FFFFFFFFFFF1FFFFFFF7B
:1015A000FFFF0FFFFFFFFFFF03FFFFFFFFFF000035
:1015B0000000007F00000000007F00000000007FAE
:1015C00000000000007F00000000007F000000001D
:1015D000007F00000000007F00000000007F00008E
:1015E0000000007F00000000007F00000000007F7E
:1015F00000000000007F00000000007FFFFFFFFFF1
:10160000FFFFFFFFFFFFFFFE7FFFFFFFFFFE3FFF2C
:10161000FFFFFFFC3FFFFFFFFFF80FFFFFFFFFF0A3
:1016200003FFFFFFFFC0303000000000000000009B
:1016300000000000000000000000000000000000AA
:10164000000000000000000000000000000000009A
:10165000000000000000000000000000000000008A
:10166000000000000000000000000000000000007A
:10167000000000000000000000000000000000006A
:10168000000000000000000000000000000000005A
:10169000000000000000000000000000000000004A
:1016A000000000000000001FFFFFF800001FFFFF08
:1016B000F800001FFFFFF800001FFFFFF800001FE9
:1016C000FFFFF800001FFFFFF800001FFFFFF800FA
:1016D000000000000000000000000000000000000A
:1016E00000000000000000000000000000000000FA
:1016F00000000000000000000000000000000000EA
:1017000000000000000000000000000000000000D9
:1017100000000000000000000000000000000000C9
:1017200000000000000000000000000000000000B9
:1017300000000000000000000000000000000000A9
:1017400000000000000000003030000FF800000032
:10175000001FF8000000001FF8000000003FF80024
:101760000000007FF800000000FFF800000001FF0B
:10177000F800000003FFF800000003FFF80000007D
:1017800007FFF80000000FFBF80000001FF3F8004F
:1017900000003FF3F80000007FE3F80000007FC383
:1017A000F8000000FF83F80000000003F8000000CC
:1017B0000003F80000000003F80000000003F80038
:1017C00000000003F80000000003F8000000000320
:1017D000F80000000003F80000000003F80000001B
:1017E0000003F80000000003F80000000003F80008
:1017F00000000003F80000000003F80000000003F0
:10180000F80000000003F80000000003F8000000EA
:101810000003F80000000003F80000000003F800D7
:1018200000000003F80000000003F80000000003BF
:10183000F80000000003F80000000003F8000000BA
:101840000003F80000000003F80000000003F800A7
:1018500000000003F80000000003F800000000038F
:10186000F80000000003F8000000446576656C6F26
:10187000706564206279204D617274696E0A4872E5
:1018800065686F722028632920323031380A0A5087
:10189000726573732043454E54455220746F206324
:1018A0006C6F73650078302E310A0004E010021C62
:1018B00007123732292D29252B3900010310E11099
:1018C000031D07062E2C292D2E2E373F0000021057
:1018D00013800A298064022A040000007F2B040080
:1018E00000007F0F0180961180FFB103012C2DB203
:1018F00003012C2DB306012C2D012C2DB40107C0A2
:1019000003A20284C101C5C2020A00C3028A2AC41A
:10191000028AEEC5010E20003601C83A0105646452
:1019200000000000000000000000000000000000B7
:101930000000000000000000000000000180000026
:101940000018000000000000001E000000078000DA
:10195000000000000001F0000000F800000000009E
:1019600000001FC000003F8000000000000001FFD9
:1019700000000FF8000000000000001FF80003FF47
:101980008000000000000001FFE0007FF800000080
:10199000000000001FFF801FFF800000000000000B
:1019A00001FFFE07FFF8000000000000001FFFF02D
:1019B000FFFF8000000000000001FFFFFFFFF800B4
:1019C0000000000000001FFFFFFFFF80000000007C
:1019D000000001FFFFFFFFF8000000000000001FF3
:1019E000FFFFFFFF8000000000000001FFFFFFFF7E
:1019F000F80000000000000007FFFFFFFE000000ED
:101A000000000000001FFFFFFF800000000000003A
:101A10000000FFFFFFF0000000000000000003FFD7
:101A2000FFFC0000000000000000000FFFFF0000AE
:101A300000000000001000003FFFC0000080000018
:101A40000001800001FFF8000018000000001E00E7
:101A50000007FE0000078000000001F800001F8062
:101A60000001F8000000001FC00000F000007F80AF
:101A700000000001FF00000000000FF8000000005F
:101A80001FFC0000000003FF8000000001FFF000C9
:101A9000000000FFF8000000001FFF800000001F92
:101AA000FF8000000001FFFE00000007FFF80000BB
:101AB00000001FFFF8000001FFFF8000000001FF91
:101AC000FFE000007FFFF8000000001FFFFF0000A4
:101AD0000FFFFF8000000001FFFFFC0003FFFFF885
:101AE000000000001FFFFFF000FFFFFF800000006C
:101AF00000FFFFFFC03FFFFFF00000000007FFFFF7
:101B0000FE07FFFFFE00000000001FFFFFF9FFFFC0
:101B1000FF8000000000007FFFFFFFFFFFE00000EC
:101B200000000003FFFFFFFFFFF8000000000000BF
:101B30000FFFFFFFFFFF000000001000003FFFFF4E
:101B4000FFFFC000008001C00000FFFFFFFFF000AA
:101B50000038001E000007FFFFFFFE0000078001A5
:101B6000F800001FFFFFFF800001F8001FE00000E9
:101B70007FFFFFE000007F8001FF800001FFFFF892
:101B800000001FF8001FFC00000FFFFF000003FF14
:101B90008001FFF000003FFFC00000FFF8001FFFC2
:101BA000C00000FFF000003FFF8001FFFF000003C6
:101BB000FC00000FFFF8001FFFF800001F8000016D
:101BC000FFFF8001FFFFE000006000007FFFF800E2
:101BD0001FFFFF80000000001FFFFF8001FFFFFECE
:101BE0000000000007FFFFF8001FFFFFF0000000EB
:101BF00000FFFFFF8000FFFFFFC00000003FFFFF6E
:101C0000F00003FFFFFF0000000FFFFFFC00001FBC
:101C1000FFFFFC000003FFFFFF0000007FFFFFE06D
:101C200000007FFFFFE0000001FFFFFF80001FFFBB
:101C3000FFF800000007FFFFFE0007FFFFFE0000A7
:101C400000003FFFFFF000FFFFFFC000000000FFAB
:101C5000FFFFC03FFFFFF00000000003FFFFFF0F8A
:101C6000FFFFFC00000000000FFFFFFFFFFFFF0071
:101C700000000000007FFFFFFFFFFFE0000000000A
:101C80000001FFFFFFFFFFF800000000000007FF5A
:101C9000FFFFFFFE000000000000001FFFFFFFFF2E
:101CA0008000000000000000FFFFFFFFF0000000C8
:101CB0000000000003FFFFFFFC0000000000000028
:101CC000000FFFFFFF0000000000000000007FFF8A
:101CD000FFC0000000000000000001FFFFF800004E
:101CE0000000000000000007FFFE000000000000F0
:101CF000000000001FFF8000000000000000000046
:101D000000FFF00000000000000000000003FC00E5
:101D1000000000000000000000000F0000000000B4
:101D200000000000000000000000000000000000B3
:101D300000000000000000000000000000000000A3
:101D400000000000000000FFF3FF0FFEC036018F0F
:101D5000FC70180FFF7FF9FFEC033031FFE70180C3
:101D60000606019800C033871806781800606019CD
:101D7000800C031CE18066C1800606019800C0301B
:101D8000CC1806661800606019800FFF0781806616
:101D900031800607FF9800FFF0781806631800608E
:101DA0007FF9800C03030180661980060601980004
:101DB000C03030180660D800606019800C03030141
:101DC000806607800606019FFEC030301FFE603827
:101DD00000606018FFEC030300FFC60380000000F2
:101DE00000000000000000000000000000000000F3
:101DF00000000000000000000000000000000000E3
:101E00000000A5186A18B81E0B0B04088882070189
:101E100091BAC7C0702088881000416D6D6F206333
:101E20006F6C6F722028312F332900416D6D6F2048
:101E3000636F6C6F722028322F332900416D6D6FF4
:101E400020636F6C6F72202846756C6C29004261AC
:101E5000636B67726F756E6420636F6C6F72005591
:101E60004920436F6C6F7200496E766572746564C9
:101E7000004D616E75616C206F6E6C7900417574F8
:101E80006F206F6E6C79004175746F20414E442055
:101E90004D616E75616C004175746F204F52204D1D
:101EA000616E75616C00363A00353A00343A0033A1
:101EB0003A00323A00313A003C3C204261636B0008
:101EC00053797374656D20496E666F726D617469C4
:101ED0006F6E0053617665206272696768746E6523
:101EE00073730052656C6F61642062656861766926
:101EF0006F720055492053657474696E677300539F
:101F000065742074696D65004D616E616765205070
:101F1000726573657473003C3C20536176652026BE
:101F200020457869740000000000250028002B007F
:101F300000000000240027002A0004040404040414
:101F40000404020202020202030303030303010268
:101F50000408102040800102040810200102040837
:101F60001020B81E5F1E4E1E3C1E2B1E1A1E971EF2
:101F7000871E7D1E711E681EB81EB51EB21EAF1EC6
:101F8000AC1EA91EA61E171F081FFF1EF31EE31E70
:101F9000D31EC01E00000000003E5B4F5B3E3E6B48
:101FA0004F6B3E1C3E7C3E1C183C7E3C181C577DF3
:101FB000571C1C5E7F5E1C00183C1800FFE7C3E73F
:101FC000FF0018241800FFE7DBE7FF30483A060E51
:101FD0002629792926407F050507407F05253F5A98
:101FE0003CE73C5A7F3E1C1C08081C1C3E7F142208
:101FF0007F22145F5F005F5F06097F017F006689B3
:10200000956A606060606094A2FFA29408047E04F8
:102010000810207E201008082A1C08081C2A08081E
:102020001E101010100C1E0C1E0C30383E383006DE
:102030000E3E0E06000000000000005F00000007DA
:10204000000700147F147F14242A7F2A1223130808
:10205000646236495620500008070300001C2241E4
:10206000000041221C002A1C7F1C2A08083E080888
:102070000080703000080808080800006060002038
:10208000100804023E5149453E00427F400072491B
:102090004949462141494D331814127F10274545BF
:1020A00045393C4A494931412111090736494949D5
:1020B00036464949291E0000140000004034000043
:1020C00000081422411414141414004122140802AC
:1020D000015909063E415D594E7C1211127C7F491F
:1020E0004949363E414141227F4141413E7F494974
:1020F00049417F090909013E414151737F080808A0
:102100007F00417F41002040413F017F0814224170
:102110007F404040407F021C027F7F0408107F3ECA
:102120004141413E7F090909063E4151215E7F0937
:10213000192946264949493203017F01033F40409E
:10214000403F1F2040201F3F4038403F6314081489
:102150006303047804036159494D43007F414141C1
:102160000204081020004141417F040201020440A2
:1021700040404040000307080020545478407F2826
:102180004444383844444428384444287F3854541C
:10219000541800087E090218A4A49C787F0804043F
:1021A0007800447D40002040403D007F10284400DE
:1021B00000417F40007C047804787C08040478386F
:1021C00044444438FC1824241818242418FC7C089F
:1021D000040408485454542404043F44243C40401C
:1021E000207C1C2040201C3C4030403C44281028CF
:1021F000444C9090907C4464544C44000836410018
:102200000000770000004136080002010204023C91
:102210002623263C1EA1A161123A4040207A385460
:1022200054555921555579412254547842215554D9
:10223000784020545579400C1E527212395555552C
:1022400059395454545939555454580000457C4117
:102250000002457D420001457C407D1211127DF057
:10226000282528F07C545545002054547C547C0A81
:10227000097F4932494949323A4444443A324A484A
:1022800048303A4141217A3A42402078009DA0A04E
:102290007D3D4242423D3D4040403D3C24FF2424A0
:1022A000487E4943662B2FFC2F2BFF0929F620C0BF
:1022B000887E090320545479410000447D41304810
:1022C000484A32384040227A007A0A0A727D0D1953
:1022D000317D2629292F28262929292630484D40B5
:1022E00020380808080808080808382F10C8ACBAB1
:1022F0002F102834FA00007B000008142A14222230
:10230000142A14085500550055AA55AA55AAFF5578
:10231000FF55FF000000FF00101010FF0014141400
:10232000FF001010FF00FF1010F010F0141414FC48
:10233000001414F700FF0000FF00FF1414F404FC65
:10234000141417101F10101F101F1414141F001046
:102350001010F0000000001F101010101F101010BF
:1023600010F010000000FF101010101010101010CE
:10237000FF10000000FF140000FF00FF00001F100E
:10238000170000FC04F414141710171414F404F4C8
:102390000000FF00F714141414141414F700F714B9
:1023A0001414171410101F101F141414F414101008
:1023B000F010F000001F101F0000001F14000000AC
:1023C000FC140000F010F01010FF10FF141414FFA4
:1023D000141010101F00000000F010FFFFFFFFFF9F
:1023E000F0F0F0F0F0FFFFFF0000000000FFFF0F33
:1023F0000F0F0F0F3844443844FC4A4A4A347E02D7
:10240000020606027E027E02635549416338444457
:102410003C04407E201E2006027E020299A5E7A50C
:10242000991C2A492A1C4C7201724C304A4D4D307D
:102430003048784830BC625A463D3E494949007EA2
:102440000101017E2A2A2A2A2A44445F4444405139
:102450004A444040444A51400000FF0103E080FFED
:10246000000008086B6B083612362436060F090F79
:1024700006000018180000001010003040FF010195
:10248000001F01011E00191D1712003C3C3C3C00BE
:102490000000000000000008000201000003040723
:1024A0000000000000000000383711241FBECFEFED
:1024B000D8E0DEBFCDBF11E0A0E0B1E0EAE3F9E78C
:1024C00002C005900D92AE3EB107D9F725E0AEEE01
:1024D000B1E001C01D92A930B207E1F712E1C5E5F4
:1024E000D2E104C02197FE010E947C3CC435D10793
:1024F000C9F70E941F310C949B3C0C940000F89487
:102500004B9913C08091EE01811111C08091F501AA
:102510009091F60101979093F6018093F50181E087
:10252000809318028093EE0102C01092EE0178941D
:10253000089508950895EF92FF920F931F9340918D
:10254000F7012091F3013091F401423069F04330FA
:1025500021F04130B1F4207E0EC03770982F8827CB
:10256000990F990F990F07C02F71387F45E0880F99
:10257000991F4A95E1F7822B932B9093F401809356
:10258000F301E090F301F090F40108E110E028E19C
:1025900030E040E150E068E570E085E694E00E94BC
:1025A000DC221F910F91FF90EF9008958093F70127
:1025B000813061F090F0823031F0833009F04BC00F
:1025C0002DEB33E005C025EA33E002C02DE833E00F
:1025D00030932F0220932E023EC0E091F101F09142
:1025E000F2018091F3019091F4019183808385E061
:1025F00080931702609137047091380485E694E067
:102600000E94151D809135049091360490937804B2
:1026100080937704909376048093750488E290E029
:102620009093720480937104109274041092730456
:1026300063E871E085E694E00E941D3168E070E097
:102640008DED93E00E943B2A8DED93E090932F0255
:1026500080932E02089520913704309138044091E0
:1026600035045091360450937604409375043093AA
:1026700078042093770490E0019724E0880F991F55
:102680002A95E1F72BE230E0A901481B590B509342
:1026900072044093710482E790E0909374048093F5
:1026A00073048EE50C94362AEF92FF920F931F93DA
:1026B000CF93DF93EC018091210490E0FC01EE0FB9
:1026C000FF1FE35CFB4FD183C0832DE134E03093E7
:1026D0002F0220932E02E0903704F09038044091AE
:1026E0002B0450912C0420912D0430912E04240FA2
:1026F000351F289FB001299F700D389F700D112440
:1027000040912704509128044E5F5F4F460F571F9A
:102710000AE010E02AE030E060E570E085E694E051
:102720000E94E91ECD2B71F520912B0430912C04D1
:1027300080912D0490912E04280F391F809121043F
:10274000829FA001839F500D1124809127049091B6
:1027500028040296840F951F2AE530E03093720416
:102760002093710490937404809373046FE871E074
:1027700085E694E0DF91CF911F910F91FF90EF904C
:102780000C941D31DF91CF911F910F91FF90EF902D
:102790000895A5E3B4E012962D913C911397E5E6D8
:1027A000F4E04D915C91518B408B338B228BADE1EA
:1027B000B4E01E964D915C911F9750962D913C91DF
:1027C0005197420F531F14962C911497249FB001D8
:1027D000259F700D11241A962D913C911B972E5F09
:1027E0003F4F260F371F4AE550E05587448737870C
:1027F0002687AC0160E070E02AE0CF010E94D4306F
:1028000080E20C94362A0F931F93CF93DF93EDE76A
:10281000F3E0F0932F02E0932E028091BB0490E04E
:1028200091878087C5E3D4E00A811B812CE030E0EA
:102830004EE350E062E370E085E694E00E944223BC
:10284000088119812CE030E04EE350E064E470E050
:1028500085E694E00E944223DF91CF911F910F9172
:102860000895809175038093BC04E5E6F4E082E36B
:1028700090E095878487978786870C94342580918C
:1028800085038093BB04E5E6F4E082E390E095875E
:102890008487978786870C943425EF92FF920F9355
:1028A0001F938091D903E0903504F0903604811194
:1028B0002FC00CE010E028E330E044E650E060E494
:1028C00070E085E694E00E94DC22809135049091CE
:1028D00036042091370430913804309376042093E5
:1028E0007504909378048093770480E590E090934A
:1028F00072048093710486E690E090937404809350
:10290000730463E971E085E694E00E941D3125C0FF
:102910002091370430913804F0927604E0927504E7
:10292000309378042093770490E0019734E0880F87
:10293000991F3A95E1F72BE230E0A901481B590BAA
:10294000509372044093710482E790E09093740472
:10295000809373048FE60E94362A8091F70190914C
:10296000D903981709F462C0811143C0E09035047F
:10297000F09036040CE010E028E330E044E650E04C
:1029800060E470E085E694E00E94481DE090370422
:10299000F09038040AE010E026E330E045E650E02D
:1029A00061E470E085E694E00E94DC2280913704C7
:1029B0009091380420913504309136043093760498
:1029C00020937504909378048093770480E590E0D9
:1029D000909372048093710486E690E0909374045F
:1029E0008093730463E971E085E694E00E941D31F1
:1029F00019C0E0903704F090380490E0019724E08B
:102A0000880F991F2A95E1F76BE270E0681B790B3C
:102A10000AE010E02CE030E042E750E085E694E088
:102A20000E94DC228091D9038093F7011F910F91BE
:102A3000FF90EF900895CF92DF92EF92FF920F9365
:102A40001F93CF93DF9323E0209317021092F70197
:102A50009093F2018093F101FC0180819181909328
:102A6000F4018093F30185ED93E090932F0280931E
:102A70002E0285E3C82E84E0D82EF6016281738190
:102A800085E694E00E94151DEDEBF3E08091F401E2
:102A90008695869586958087118668E0CF010E948D
:102AA000642C8091F3019091F401807E977025E071
:102AB000969587952A95E1F79093AE038093AD03A1
:102AC00068E185EA93E00E94642C8091F301909183
:102AD000F4018F719927909396038093950368E290
:102AE0008DE893E00E94642CF601E080F1800CE018
:102AF00010E028E330E044E650E060E470E085E672
:102B000094E00E94481DF60182819381C5E6D4E0DD
:102B100020813181398B288B9B8B8A8B80E590E0DB
:102B20009D878C8785E690E09F878E8763E971E0BB
:102B3000CE010E941D318AE090E09D878C879F879F
:102B40008E87E090F301F090F40108E110E028E1B5
:102B500030E040E150E068E570E0CE010E94DC2208
:102B6000F601E080F1800AE110E02AE130E04FE078
:102B700050E067E570E0CE010E94481DDF91CF91E3
:102B80001F910F91FF90EF90DF90CF900C944D1418
:102B90000F931F93CF93DF93F999FECF80E090E0DE
:102BA0000E941E3B823409F441C0F999FECF62E4D1
:102BB00080E090E00E94383B64E681E090E00E9473
:102BC000383B60EE7FEF82E090E00E94463B60E0A1
:102BD00070E084E090E00E94463B60EE7FEF86E08C
:102BE00090E00E94463B60EE7FEF88E090E00E941C
:102BF000463B60EE7FEF8AE090E00E94463B6EE14C
:102C000070E08CE090E00E94463B6EE571E08EE063
:102C100090E00E94463BC0E1D0E060E0CE010E941F
:102C2000383B2196C931D105C1F7B6CF81E090E09C
:102C30000E941E3B80930D0205E314E0C2E0D0E049
:102C4000CE010E941E3BF80181938F012196C9316C
:102C5000D105B1F7DF91CF911F910F910895A09108
:102C60002E02B0912F02109779F0482F50E0440FB8
:102C7000551F4E5F5D4FED91FC9111970280F381DE
:102C8000E02D682FCD0109940895CF93DF9381E063
:102C900080931702C5E3D4E06A817B8185E694E0E6
:102CA0000E94151D88819981E5E6F4E0938B828B63
:102CB000918B808B88E290E09587848717861686B3
:102CC00066E871E0CF010E941D3168E070E08CE49D
:102CD00094E00E943B2A8CE494E090932F0280932E
:102CE0002E02DF91CF910895823089F028F4882355
:102CF00049F0813049F00895843079F058F08530FA
:102D000079F008950C94451685E394E00BC087E3B1
:102D100094E008C089E394E005C08BE394E002C02E
:102D20008DE394E00C941B15CF93811103C0CF91D8
:102D30000C944516C82F8091370490913804209147
:102D400035043091360430937604209375049093C3
:102D500078048093770420912B0430912C04809187
:102D60002D0490912E04280F391FC29FA001C39FEC
:102D7000500D112480912704909128040296840F0D
:102D8000951F20E530E030937204209371049093F6
:102D90007404809373048EE30E94362A20912104E8
:102DA00030E040912B0450912C0480912D0490919F
:102DB0002E04480F591F429FB001439F700D529F30
:102DC000700D112480912704909128040296860F9B
:102DD000971F4AE550E0509372044093710490931A
:102DE00074048093730481E090E0C13011F080E0BE
:102DF00090E090931204809311048DE094E09093FE
:102E00002F0280932E02220F331FF901E35CFB4F48
:102E10008081918190931604809315040E94E12A89
:102E200068E971E085E694E0CF910C941D318093C0
:102E30004B040C944516CF93DF9380913704909107
:102E40003804209135043091360430937604209371
:102E50007504909378048093770489E690E09093CA
:102E60007204809371048DE090E0909374048093D9
:102E7000730482E0809379048091150282FF03C07D
:102E80008091100202C080910F0290E001960E9492
:102E9000E12A81E0809379048091150282FF05C0C8
:102EA000809135049091360404C08091370490914C
:102EB00038049093780480937704909376048093F9
:102EC00075048FE590E09093720480937104C6E1DD
:102ED000D0E0D0937404C09373048CE30E94362A2C
:102EE00087E790E09093720480937104D093740408
:102EF000C09373048EE30E94362A80913704909128
:102F000038042091350430913604309376042093B0
:102F100075049093780480937704DF91CF9108959E
:102F20008F929F92AF92BF92CF92DF92EF92FF92D9
:102F30000F931F9320910D02822F90E0A0E0B0E04C
:102F40009C01AD012150310941095109A4E6B0E0CD
:102F50000E949C3B2EEF30E040E050E00E947D3B21
:102F6000AA24BB24A21AB30AE5E3F4E0C080D1800E
:102F7000E280F380812C912C06E010E024E630E022
:102F80004EE150E063E170E085E694E00E94FE21AE
:102F90001F910F91FF90EF90DF90CF90BF90AF9077
:102FA0009F908F900895EF92FF920F931F93CF936E
:102FB000DF93C5E3D4E00A811B812881398148E091
:102FC0005EE16CE170E082E090E00E94132BE8800B
:102FD000F98008E010E028E630E04DE150E060E1E3
:102FE00070E085E694E00E94DC22DF91CF911F9192
:102FF0000F91FF90EF900895EF92FF920F931F9320
:10300000CF93DF93E0910F02F0E0EE0FFF1FE15C42
:10301000FB4F80819181843691050CF05AC020913C
:10302000F5013091F60137FF03C031952195310943
:10303000C9016AE070E00E94683CC62F822F6AE0F6
:10304000C69F8019112400913704109138042091F3
:10305000EF013091F001813019F448E457E110C0DC
:103060009091150291FF03C046E256E109C062E269
:1030700071E0869FA001879F500D11244E52554F3D
:1030800061E370E082E490E00E94132B8091F501EF
:103090009091F60100913704109138042091EF01CE
:1030A0003091F00197FD04C08091150281FF03C0AB
:1030B00046E256E109C082E291E0C89FA001C99FA3
:1030C000500D11244E52554F61E370E08EE090E0B8
:1030D0008FC0883E93400CF08DC02091F501309157
:1030E000F60137FF03C0319521953109C90164E626
:1030F00070E00E94683CAB01E62EEB01DD271CE985
:10310000BE011603C001179F900D1124820F931F5B
:103110006AE070E00E94683CF62E722F149F700DDA
:103120001124472F8AE0F89E40191124009137049A
:10313000109138042091EF013091F001413019F4E1
:103140004BE15AE00DC08091150281FF03C044E6B7
:1031500059E006C097EB499FA0011124425C5D4FE6
:1031600066E370E089E590E00E94132B80911502E0
:1031700000913704109138042091EF013091F00153
:1031800081FF03C044E659E006C067EBF69EA0014C
:103190001124425C5D4F66E370E08DE290E00E9496
:1031A000132B00913704109138042091EF013091D6
:1031B000F00171E0E71203C047E851E015C08091CB
:1031C000150281FD06C08091F5019091F60197FFEF
:1031D00003C044E659E008C087EB8C9FA0018D9F97
:1031E000500D1124425C5D4F66E370E081E090E099
:1031F0000E94132BDF91CF911F910F91FF90EF90C1
:103200000895EF92FF920F931F93CF93DF936091F6
:10321000F5017091F6011616170664F5CB01770FCC
:10322000AA0BBB0BBC01CD0126E0660F771F881FE0
:10323000991F2A95D1F7E0910F02F0E0EE0FFF1FE2
:10324000E15CFB4F20813181032E000C440B550BB8
:103250000E947D3BC0E4C21BCB3228F080913D042C
:1032600090913E040CC0C63130F080913B049091A7
:103270003C0405C0C0E08091390490913A049093D9
:10328000F0018093EF01D0E0E090EF01F090F001C9
:1032900020913704309138048E01A70165E071E078
:1032A00080E090E00E948F2B002711270C1B1D0B44
:1032B0002091370430913804A70163E870E080E47E
:1032C00090E00E948F2BDF91CF911F910F91FF9083
:1032D000EF9008950F931F93CF93DF9310922F02D7
:1032E00010922E0210921702C5E3D4E06A817B810E
:1032F00085E694E00E94151D8A819B81E5E6F4E055
:1033000028813981318B208B938B828B8FE590E0E4
:10331000958784878DE090E0978786876BE971E0D9
:10332000CF010E941D310A811B812881398146E726
:1033300050E063E070E088E590E00E94132B0E946B
:1033400001190E94FC17DF91CF911F910F910C94EE
:103350001B17EF92FF920F931F93CF93DF9390E091
:103360008730910508F00DC2FC01EC5CFF4F0C9416
:103370007C3CF999FECF05E314E0C2E0D0E0F8010F
:1033800061918F01CE010E94263B2196C931D10562
:10339000B1F7DF91CF911F910F91FF90EF900C94B7
:1033A0006A1982E0809317026091370470913804A3
:1033B00085E694E00E94151D8091350490913604B5
:1033C00090937804809377049093760480937504A7
:1033D00088E290E0909372048093710410927404D8
:1033E000109273046EE971E085E694E00E941D314D
:1033F00068E070E08DE194E00E943B2A8DE194E06A
:1034000090932F0280932E0280913704909138047C
:10341000209135043091360430937604209375045E
:1034200090937804809377040FE314E0C1E0D0E038
:103430008AE5E82EF12C8091220490E0C817D90784
:103440000CF09FC120912B0430912C0480912D040D
:1034500090912E04280F391F2C9FA0012D9F500DF5
:103460003C9F500D112480912704909128040296CE
:10347000840F951FF0927204E0927104909374048B
:1034800080937304F801819191918F01009719F055
:103490000E94E12A06C06FE871E085E694E00E9490
:1034A0001D312196C8CF8DE693E090932F02809333
:1034B0002E028091BC0490E0909376038093750374
:1034C000609137047091380485E694E00E94151DE0
:1034D00082E390E09093720480937104909374045B
:1034E00080937304809137049091380420913504BF
:1034F00030913604309376042093750490937804C9
:10350000809377040E94342500913504109136048D
:103510002CE030E04EE350E062E370E085E694E0BA
:103520000E9442232EC185E08093170260913704E8
:103530007091380485E694E00E94151D8091350451
:103540009091360490937804809377049093760456
:103550008093750488E290E09093720480937104E4
:10356000109274041092730463E871E085E694E0AD
:103570000E941D3168E070E08DED93E00E943B2ACF
:103580008DED93E090932F0280932E02FAC08091EC
:103590004B048093F90384E0809317026091370411
:1035A0007091380485E694E00E94151D80913504E1
:1035B00090913604909378048093770490937604E6
:1035C0008093750488E290E0909372048093710474
:1035D000109274041092730466EA71E085E694E038
:1035E0000E941D3162E170E085EF93E00E943B2A6A
:1035F00085EF93E090932F0280932E028091370401
:10360000909138042091350430913604309376043B
:103610002093750490937804809377042091030499
:10362000309104048091050490910604280F391FFD
:1036300080914B04829FA001839F500D11248091A3
:10364000FF03909100040296840F951F28E030E05C
:1036500030937204209371049093740480937304E4
:103660008EE3DF91CF911F910F91FF90EF900C941B
:10367000362AF999FECF60910D0281E090E00E9418
:10368000263B809135049091360420913704309187
:1036900038043093760420937504909378048093D3
:1036A000770420915A0430915B0480915C049091DE
:1036B0005D04280F391F85E0829FA001839F500D74
:1036C000112480915604909157040296840F951FFF
:1036D00029E630E0309372042093710490937404CF
:1036E0008093730463EB71E085E694E0DF91CF9102
:1036F0001F910F91FF90EF900C941D318FEF8093ED
:10370000170210922F0210922E028091370490918E
:103710003804209135043091360430937604209398
:103720007504909378048093770410927204109239
:10373000710480E290E0909374048093730466EBCC
:1037400071E085E694E00E941D31E2E0FEE16591C2
:10375000749185E694E00E949B3062ED71E085E60D
:1037600094E00E94BF30E4E0FEE16591749185E64B
:1037700094E0DF91CF911F910F91FF90EF900C9407
:103780009B30DF91CF911F910F91FF90EF900895A3
:10379000EF92FF920F931F93E0910F02F0E0EE0F74
:1037A000FF1FE15CFB4F808191819093F601809334
:1037B000F50180911702811118C0E0903704F09054
:1037C000380400E310E02EE730E041E350E061E030
:1037D00070E085E694E00E94DC220E9401191F91AE
:1037E0000F91FF90EF900C94FC171F910F91FF9099
:1037F000EF900895682F80912E0290912F020097EC
:1038000039F0DC01ED91FC910190F081E02D0994FB
:10381000623051F018F46130D1F00895633089F1CD
:103820006F3F09F456C0089580911702882319F05C
:103830008F3F59F0089580910F028093100280917C
:10384000150284608093150237C00C944516809150
:103850001702811140C08091150282FF3CC0809107
:103860001002882311F0815001C085E0E82FF0E0BC
:10387000EE0FFF1FE15CFB4F20813181232B89F389
:1038800019C080911702811126C08091150282FF14
:1038900022C080911002853010F48F5F01C080E05B
:1038A000E82FF0E0EE0FFF1FE15CFB4F208131813C
:1038B000232B89F3809310020E941B170E94752905
:1038C000609311027093120280931302909314027A
:1038D00008950C94C81B08958091FB014A9913C068
:1038E000811119C08091F9019091FA01049798F023
:1038F0008FEF0E94FA1B81E08093FB01109201047C
:103900001092000404C0882331F01092FB01109241
:10391000FA011092F90108951F920F920FB60F92BB
:1039200011240F900FBE0F901F9018951F920F92A9
:103930000FB60F9211242F933F934F935F936F9382
:103940007F938F939F93AF93BF93EF93FF93809158
:103950001602319913C0811119C08091FC01909118
:10396000FD01049798F082E00E94FA1B81E08093A9
:103970001602109207021092060204C0882331F04A
:10398000109216021092FD011092FC0180910C021F
:10399000309913C0811119C08091000290910102E9
:1039A000049798F081E00E94FA1B81E080930C025A
:1039B000109205021092040204C0882331F0109284
:1039C0000C02109201021092000280910E023299B4
:1039D00013C0811119C08091FE019091FF010497DD
:1039E00098F083E00E94FA1B81E080930E0210920F
:1039F00009021092080204C0882331F010920E02CE
:103A00001092FF011092FE01FF91EF91BF91AF91D3
:103A10009F918F917F916F915F914F913F912F91E6
:103A20000F900FBE0F901F901895EF92FF920F937B
:103A30001F93DC011A960D911C911B9718962D91DE
:103A40003C911997ED91FC9100A0F1A1E02D7B0133
:103A500040E050E060E070E009951F910F91FF9009
:103A6000EF9008950895FC016370658B84819581C2
:103A700026813781613039F0633029F09187808762
:103A80003387228708953187208793878287089517
:103A90006F927F928F929F92AF92BF92CF92DF925E
:103AA000EF92FF920F931F93CF93DF93EC014B01A3
:103AB0005A0169013801E881F9810284F385E02D1A
:103AC0000995E881F9810288F389E02D8701960143
:103AD000A501B401CE010995A501460D571D415020
:103AE0005109E881F9810288F389E02D9601B4013A
:103AF000CE010995E881F9810088F189E02D9301D3
:103B0000A501B401CE010995C80CD91CB6016150BC
:103B10007109E881F9810088F189E02D9301A501FF
:103B2000CE010995E881F9810688F789E02DCE015B
:103B3000DF91CF911F910F91FF90EF90DF90CF9089
:103B4000BF90AF909F908F907F906F9009948F92CD
:103B50009F92AF92BF92CF92DF92EF92FF920F931C
:103B60001F93CF93DF934C016B015A01E901DC01F4
:103B7000ED91FC916217730781F40417150724F483
:103B80008B2D5801042F182F0A191B0998012F5F3C
:103B90003F4F048CF58DE02D12C04017510709F5F9
:103BA0002617370724F48D2D6901C62FD82F9E01C3
:103BB0002C193D092F5F3F4F068CF78DE02D8701B3
:103BC000A501B601C4010995DF91CF911F910F9115
:103BD000FF90EF90DF90CF90BF90AF909F908F902D
:103BE00008950284F385E02D0995D401ED91FC91AF
:103BF0000488F589E02D9E01A501B601C40109954F
:103C0000D401ED91FC910688F789E02DC401DF9184
:103C1000CF911F910F91FF90EF90DF90CF90BF90C9
:103C2000AF909F908F900994EF92FF920F931F9304
:103C3000DC011A960D911C911B9718962D913C91C1
:103C40001997ED91FC9100A0F1A1E02D7B0140E0DE
:103C500050E060E070E009951F910F91FF90EF90A8
:103C600008954F925F926F927F928F929F92AF9240
:103C7000BF92CF92DF92EF92FF920F931F93CF9359
:103C8000DF936C012B015A0139014801DC01ED91F0
:103C9000FC910284F385E02D0995E201640C751C0A
:103CA000D601ED91FC91C615D7055CF40088F18929
:103CB000E02D87019401A501BE01C6010995219659
:103CC000EFCF0688F789E02DC601DF91CF911F91D4
:103CD0000F91FF90EF90DF90CF90BF90AF909F90AB
:103CE0008F907F906F905F904F9009948F929F92EA
:103CF000AF92BF92CF92DF92EF92FF920F931F93FA
:103D0000CF93DF93EC015B014A016901E881F981FE
:103D10000284F385E02D099595012C0D3D1D215060
:103D20003109E881F9810488F589E02D7801840161
:103D3000A401B501CE010995E881F9810688F789CA
:103D4000E02DCE01DF91CF911F910F91FF90EF9069
:103D5000DF90CF90BF90AF909F908F9009948F92FB
:103D60009F92AF92BF92CF92DF92EF92FF920F930A
:103D70001F93CF93DF93EC015B014A016901780146
:103D8000E881F9810284F385E02D0995C80CD91CDE
:103D9000860101501109E881F9810488F589E02D37
:103DA0009501A401B501CE010995E881F981068844
:103DB000F789E02DCE01DF91CF911F910F91FF90F8
:103DC000EF90DF90CF90BF90AF909F908F9009942D
:103DD0000895EF92FF920F931F93DC01ED91FC91F8
:103DE00000A0F1A1E02D09951F910F91FF90EF9098
:103DF00008950F931F93DC01ED91FC91068CF78DD4
:103E0000E02D09951F910F9108950F931F93DC01E9
:103E1000ED91FC91048CF58DE02D09951F910F918A
:103E20000895DC01ED91FC910084F185E02D099469
:103E30002F923F924F925F926F927F928F929F92BA
:103E4000AF92BF92CF92DF92EF92FF920F931F93A8
:103E5000CF93DF9300D000D000D0CDB7DEB72C01D8
:103E60007E836D836A015901C801FC82EB8248019F
:103E7000841A950A97FE03C09194819491083501A4
:103E80002D813E81621A730A77FE03C0719461949A
:103E90007108681479045CF43A2D2B2D5C01832F92
:103EA000922F3D812E81DE82CD82C32ED22EAD8116
:103EB000BE81AA16BB065CF43C2D2D2D6C01832F10
:103EC000922F3D812E81BE82AD82A32EB22E85011E
:103ED0002D813E81021B130B1C012C183D0837FE5F
:103EE00003C0319421943108780117FF03C03FEFDC
:103EF000E31AF30AF594E794C816D9062CF08FEF6D
:103F00009FEF9A83898304C0A1E0B0E0BA83A983BC
:103F10002D813E81A216B30624F1D201ED91FC91D0
:103F20000484F585E02D2B813C816814790424F408
:103F30004D815E81B60103C0A6016D817E81C20103
:103F40000995E218F308F7FE06C029813A81C20EEE
:103F5000D31EE00EF11E8D819E8101969E838D837E
:103F6000D7CF26960FB6F894DEBF0FBECDBFDF9138
:103F7000CF911F910F91FF90EF90DF90CF90BF9066
:103F8000AF909F908F907F906F905F904F903F90F9
:103F90002F90089585ED8093BC008091BC0084FD36
:103FA000FCCF1092E404089540915002262F30E097
:103FB000240F311D21323105DCF42091E40424303A
:103FC000C9F4FC0180E090E0861758F4309150026B
:103FD0002191DC01A05DBD4FA30FB11D2C93019673
:103FE000F3CF80915002680F6093500280E00895F3
:103FF00081E0089582E00895E09199048091980409
:10400000E81730F4F0E0E656FB4F808190E0089529
:104010008FEF9FEF089590919904809198049817DD
:1040200050F4E92FF0E0E656FB4F208130E09F5F2F
:104030009093990402C02FEF3FEFC901089580913A
:10404000980490E020919904821B91090895CF92E1
:10405000DF92EF92FF920F931F93CF93DF937C0138
:10406000CB018A012091E504222389F0EB016B0149
:10407000C40ED51ECC15DD0569F06991D701ED910F
:10408000FC910190F081E02DC7010995F3CF642FD9
:104090000E94D41FC801DF91CF911F910F91FF9013
:1040A000EF90DF90CF900895CF93DF931F92CDB71D
:1040B000DEB769832091E5042223D1F02091080521
:1040C000203240F021E030E0FC013383228380E0A5
:1040D00090E015C08091E604E82FF0E0E951FB4F35
:1040E000998190838F5F8093E6048093080505C0D3
:1040F00061E0CE0101960E94D41F81E090E00F9014
:10410000DF91CF910895089580E090E00895AF92F7
:10411000BF92CF92EF92FF920F931F93CF93DF93B3
:10412000EC01262F888D998D009709F040C06A30E8
:1041300059F41D861C862C898E859F8538E0239F27
:10414000800D911D112441C06D3009F4AAC08E89E3
:104150008823C1F03C898C859D8546E0349F800D85
:10416000911D112448855985481759075CF41D860F
:104170001C868E859F8548E0349F800D911D1124FB
:104180009F878E87EA88FB88088919894E855F8515
:104190006C857D85CC88CE010E94812E2C898C85F2
:1041A0009D8536E0239F800D911D112442C06A3009
:1041B00079F41D861C862C89FC013696E4918E8547
:1041C0009F852E9F800D911D11249F878E8769C02A
:1041D0006D3009F466C0FC0134963491631708F41D
:1041E00060C03196E491E61708F45BC0FC0132969A
:1041F00065917491422F50E0431B510937E0349F81
:104200005001359FB00C1124A60EB71EF501329651
:1042100034913196E491332311F0E1110DC0F50191
:104220003496E4912C898C859D85E29F800D911DAB
:1042300011249D878C8735C0F501359644915E89A0
:10424000552311F16C89E32FF0E0E40FF11D47FDD8
:10425000FA956E9FD0016F9FB00D11244C855D853E
:104260004A0F5B1FE885F985E417F5076CF41D8696
:104270001C86FC013696E4918E859F856E9F800D8D
:10428000911D11249F878E87EA88FB8808891989E8
:104290004E855F856C857D85CC88CE010E94812E00
:1042A000BECF81E090E0DF91CF911F910F91FF9001
:1042B000EF90CF90BF90AF90089581E08093F80188
:1042C0000C94451685ED93E090932F0280932E0277
:1042D000A5E3B4E012968D919C911397E5E6F4E086
:1042E0002D913C91318B208B938B828B8091F701A8
:1042F00090E0019724E0880F991F2A95E1F72BE2BF
:1043000030E0A901481B590B5587448782E790E0AC
:10431000978786878FE60C94362A8EBD00000DB4F1
:1043200007FEFDCF8EB508951F93CF93DF93EC0169
:10433000162F0E941F2A0E94152A812F0E948D216C
:10434000CE01DF91CF911F910C942B2A1F93CF9315
:10435000DF93EC01162F0E941F2A8CB58F7B8CBD3A
:104360002B982D9A2D988CB580648CBD812F0E943E
:104370008D21CE01DF91CF911F910C942B2AEF92CA
:10438000FF920F931F93CF93DF93EC01E62E142F30
:10439000F22E6AE20E94A62160E0CE010E949421E2
:1043A0006DA16E0DCE010E94942160E0CE010E94AD
:1043B00094216DA16F0DCE010E9494216BE2CE017C
:1043C0000E94A62160E0CE010E9494216EA1610F9F
:1043D000CE010E94942160E0CE010E9494216EA142
:1043E000600FCE010E9494216CE2CE01DF91CF914B
:1043F0001F910F91FF90EF900C94A6212F923F9266
:104400004F925F926F927F928F929F92AF92BF92E4
:10441000CF92DF92EF92FF920F931F93CF93DF9390
:10442000CDB7DEB72D970FB6F894DEBF0FBECDBF68
:104430002C0139011801EB82FC82DD82DC01189627
:104440008D919C911997681779070CF09CC01A966A
:10445000ED91FC911B974E175F070CF094C09B01E8
:10446000260D371D821793071CF43C01661A770A44
:10447000CA01820D931DE817F9071CF41F01241AC5
:10448000350A29826A820FEF040F020D2FEF260FE3
:10449000260DC2010E94BF21C2010E941F2AF10104
:1044A000E819F909FF83EE832227332728193909F0
:1044B00039872887C3018A199B099B878A87AA277E
:1044C000BB27AA19BB09BD87AC87E980E218121483
:1044D0001304F4F58301F12C8A81801B1016110658
:1044E0009CF590E0B7FE06C0EC85FD858E179F0712
:1044F00034F414C02A853B85821793077CF4DD24AD
:10450000D39497FE06C088859985E816F9063CF491
:1045100005C0AE81BF81EA16FB060CF0D12C0E94CB
:10452000152AD11002C08D8101C08C810E948D217D
:104530000E94152AD11002C08C2D01C08B810E94CF
:104540008D2101501109C8CFB1E02B1A3108BDCF20
:10455000C2012D960FB6F894DEBF0FBECDBFDF911E
:10456000CF911F910F91FF90EF90DF90CF90BF9070
:10457000AF909F908F907F906F905F904F903F9003
:104580002F900C942B2A2D960FB6F894DEBF0FBEF9
:10459000CDBFDF91CF911F910F91FF90EF90DF90F2
:1045A000CF90BF90AF909F908F907F906F905F90D3
:1045B0004F903F902F900895AF92BF92CF92DF928D
:1045C000EF92FF920F931F93CF93DF936C015901EA
:1045D000E801FC0120853185621773070CF047C0A4
:1045E00082859385481759070CF041C0FB01EA0DFD
:1045F000FB1D2E173F071CF45901A61AB70A9A0192
:104600002C0F3D1F821793071CF4EC01C41BD50B24
:104610000FEF040F0C0F2FEF260F2A0DC6010E947B
:10462000BF21C6010E941F2A1C161D069CF485018D
:10463000101611066CF40E94152A8F2D0E948D21F0
:104640000E94152A8E2D0E948D2101501109F0CF54
:104650002197EACFC601DF91CF911F910F91FF9073
:10466000EF90DF90CF90BF90AF900C942B2ADF910A
:10467000CF911F910F91FF90EF90DF90CF90BF905F
:10468000AF900895DF92EF92FF920F931F93CF9315
:10469000DF937C01E901D02EFC01808591856817AC
:1046A000790784F522853385421753075CF59B0112
:1046B0002C0F3D1F821793071CF4EC01C61BD70B70
:1046C0002FEF260F2C0F042FC7010E94BF21C70117
:1046D0000E941F2A209761F00E94152A812F0E94B4
:1046E0008D210E94152A8D2D0E948D212197F2CFB8
:1046F000C701DF91CF911F910F91FF90EF90DF9055
:104700000C942B2ADF91CF911F910F91FF90EF9086
:10471000DF900895DF92EF92FF920F931F93CF9354
:10472000DF937C01E901D02EFC018085918568171B
:10473000790784F582859385481759075CF59A01B6
:104740002C0F3D1F821793071CF4EC01C41BD50BE3
:104750000FEF040F0C0F262FC7010E94BF21C701C6
:104760000E941F2A209761F00E94152A812F0E9423
:104770008D210E94152A8D2D0E948D212197F2CF27
:10478000C701DF91CF911F910F91FF90EF90DF90C4
:104790000C942B2ADF91CF911F910F91FF90EF90F6
:1047A000DF900895FF920F931F93CF93DF93EC0157
:1047B00077FD2AC088859985681779072CF557FDFC
:1047C00023C08A859B8548175907F4F4F32E122FCE
:1047D00001E0040F21E0260FCE010E94BF21CE018F
:1047E0000E941F2A0E94152A8F2D0E948D210E944F
:1047F000152A812F0E948D21CE01DF91CF911F912B
:104800000F91FF900C942B2ADF91CF911F910F9164
:10481000FF9008951F920F920FB60F9211242F93BD
:104820003F934F935F936F937F938F939F93AF9338
:10483000BF93EF93FF938091B900887F803609F48E
:104840009CC068F5883209F45BC090F4803109F4AB
:1048500054C038F4882309F4F2C0883009F44DC0FC
:10486000F2C0883109F44CC0803209F45DC0EBC05D
:10487000803409F468C048F4803309F455C08833A3
:1048800009F0E1C08093E204D4C0803509F44FC040
:10489000883509F45DC0883409F0D5C0D2C08839A4
:1048A00009F4C3C0A8F4883709F467C038F488361F
:1048B00009F463C0803709F460C0C5C0883809F4C2
:1048C000B4C0803909F45FC0803809F0BCC05BC057
:1048D000803B09F484C038F4803A09F466C0883A11
:1048E00009F47DC0B0C0803C09F4A3C0883C09F441
:1048F000A0C0883B09F486C0A6C08091BF0410C048
:104900009091E1048091E004981770F5E091E10442
:1049100081E08E0F8093E104F0E0E054FB4F808152
:104920008093BB0085EC82C08093E2048AC0E09152
:10493000E10481E08E0F8093E1048091BB00F0E000
:10494000E054FB4F80839091E1048091E0046AC0C1
:10495000E091E10481E08E0F8093E1048091BB003F
:10496000F0E0E054FB4F80838091E304811169C043
:1049700081E08093BE0484EA5DC083E08093E40418
:1049800010927202CFCF80917202803208F04DC037
:10499000E091720281E08E0F809372028091BB00E1
:1049A000F0E0EE5AFD4F8083BDCF85EC8093BC00D4
:1049B0001092E40480917202803230F4E09172022D
:1049C000F0E0EE5AFD4F10826091720270E082E5D5
:1049D00092E0E0E0F0E009951092720234C084E0C9
:1049E0008093E4041092510210925002E0E0F0E053
:1049F000099580915002811105C081E08093500299
:104A000010923002E091510281E08E0F80935102AA
:104A1000F0E0E05DFD4F80818093BB0090915102FA
:104A200080915002981708F47DCF85E88093BC00F0
:104A30000AC085EC8093BC001092E40404C010927C
:104A4000E2040E94CA1FFF91EF91BF91AF919F9125
:104A50008F917F916F915F914F913F912F910F9027
:104A60000FBE0F901F9018958091BC048A3018F4E7
:104A700080E30E94362A4091BC0450E060E070E080
:104A80002AE085E694E00E94D4308AE30E94362A28
:104A90008091BB048A3018F480E30E94362A40914A
:104AA000BB0450E060E070E02AE085E694E00C94FE
:104AB000D430FC01538D448D252F30E0842F90E0BD
:104AC000821B930B541710F0CF9608950197089509
:104AD000FC01918D828D981761F0828DDF01A80F06
:104AE000B11D5D968C91928D9F5F9F73928F90E028
:104AF00008958FEF9FEF0895FC01918D828D981797
:104B000031F0828DE80FF11D858D90E008958FEFD3
:104B10009FEF0895FC01918D228D892F90E0805C9C
:104B20009F4F821B91098F73992708958CE792E01C
:104B30000E948A2521E0892B09F420E0822F089524
:104B4000FC01848DDF01A80FB11DA35ABF4F2C912A
:104B5000848D90E001968F739927848FA689B789F9
:104B60002C93A089B1898C9180648C93938D848DD2
:104B7000981306C00288F389E02D80818F7D8083A1
:104B80000895EF92FF920F931F93CF93DF93EC0161
:104B900081E0888F9B8D8C8D981305C0E889F989F9
:104BA000808185FD24C0F62E0B8D10E00F5F1F4F16
:104BB0000F731127E02E8C8DE8120CC00FB607FC86
:104BC000FACFE889F989808185FFF5CFCE010E946F
:104BD000A025F1CF8B8DFE01E80FF11DE35AFF4FA9
:104BE000F0820B8FEA89FB898081806207C0EE89A1
:104BF000FF896083E889F98980818064808381E00E
:104C000090E0DF91CF911F910F91FF90EF90089569
:104C1000CF93DF93EC01888D8823C9F0EA89FB8963
:104C2000808185FD05C0A889B9898C9186FD0FC05A
:104C30000FB607FCF5CF808185FFF2CFA889B9892F
:104C40008C9185FFEDCFCE010E94A025E7CFDF91AB
:104C5000CF91089580E090E0892B29F00E9496255D
:104C600081110C94000008959FB7F8944091780248
:104C70005091790260917A0270917B0286B5A89B6F
:104C800006C08F3F21F04F5F5F4F6F4F7F4F9FBF39
:104C9000762F652F542F44279A01AB01280F311D21
:104CA000411D511DA3E0B0E00E949C3B0895089572
:104CB0000F931F93CF93DF93FC01DA012D913C9169
:104CC000828593858217930758F5613061F06330D0
:104CD00039F520853185868197812817390764F455
:104CE000C901019609C0208531858481958182178B
:104CF000930714F4C9010197918780878A01EF0116
:104D00000190F081E02D0480F581E02DCE01099520
:104D1000EE85FF85888599850995F80111821082B5
:104D2000DF91CF911F910F910895623051F4DC0112
:104D30001C96ED91FC911D9718968D919C91199759
:104D400009940895DC01623029F0633051F061303C
:104D500029F50EC01696ED91FC91179714968C913B
:104D6000099414966C9114976623C1F061500EC09B
:104D700014966C911497262F30E015968C91159708
:104D800090E00197281739074CF46F5FED91FC9183
:104D900011970480F581E02DCD0109940895FC015F
:104DA000648308950E94963C4F925F926F927F9227
:104DB0008F929F92AF92BF92CF92DF92EF92FF922B
:104DC0000F931F93CF93DF93EC010B8910E00250F8
:104DD00011094801012E000CAA08BB08CC80DD8017
:104DE0000D2C000CEE08FF0888859985092E000C13
:104DF000AA0BBB0BA7019601281B390B4A0B5B0BB7
:104E0000C501B4010E944B3B2E813F812901330F24
:104E100066087708A30192012C193D094E095F0924
:104E20000E947D3B820E931EA41EB51E912C919470
:104E300081949108EE89FF89C080D180EC89FD8939
:104E4000E080F1802A8930E022503109498950E020
:104E50004F5F5F4F688970E06F5F7F4FA12CB12C6F
:104E60008A819B810E94FE21DF91CF911F910F913A
:104E7000FF90EF90DF90CF90BF90AF909F908F907A
:104E80007F906F905F904F900895DF92EF92FF9226
:104E90000F931F93CF93DF93EC01D62E8A819B81D2
:104EA0006E857F85EE89FF89E080F1808B0102505D
:104EB00011092C853D852250310948895989640F93
:104EC000751F4C81469FF001479FF00D11244A85C4
:104ED0005B854F5F5F4F4E0F5F1F688579856F5F02
:104EE0007F4FDC01ED91FC9100A0F1A1E02D09952F
:104EF000EE89FF8980819181EC89FD892081318152
:104F0000AA81BB8151963C932E93509753969C93C4
:104F10008E9352972E853F8588899989280F391F4E
:104F20008C81829FA001839F500D11248A859B85CF
:104F30000296840F951F288539852E5F3F4F1D9659
:104F40003C932E931C971F969C938E931E978C8157
:104F50002A899B89E22FF92FE80FF11DE80FF11D37
:104F600065917491CD010E949B30DC828A819B8186
:104F70000E851F85EC89FD89E080F1802C853D85BB
:104F800068897989600F711FD69EF001D79EF00D58
:104F900011244A855B854E0F5F1F68857985DC018A
:104FA000ED91FC9100A0F1A1E02D0995EC89FD891E
:104FB00080819181EE89FF8920813181AA81BB8125
:104FC00051963C932E93509753969C938E93529761
:104FD0002E853F8588899989280F391F8C81829F6A
:104FE000A001839F500D11248A859B850296840F12
:104FF000951F288539852E5F3F4F1D963C932E9334
:105000001C971F969C938E931E978C812A899B894F
:10501000E22FF92FE80FF11DE80FF11D6591749152
:10502000CD01DF91CF911F910F91FF90EF90DF9015
:105030000C949B30611102C060E201C061E20C94EB
:10504000A6211F93CF93DF93EC01162F66E30E94F6
:10505000A621612F63706D8B8A8D6230A1F0633061
:10506000D1F1613041F0823011F0843011F460EC04
:1050700011C068EC0FC0823011F0843011F460EA86
:1050800031C068EA2FC0823011F0843011F460E042
:1050900001C068E0CE010E9494218A8D813029F4FC
:1050A00080E890E09B878A870FC0843039F480EADB
:1050B00090E09B878A8780E590E006C080EA90E0D8
:1050C0009B878A8780E890E0998788878BA18DA34A
:1050D0008CA18EA327C0823011F0843011F460E6D9
:1050E00001C068E6CE010E9494218A8D813029F4A6
:1050F00080E890E0998788870FC0843039F480EA8F
:1051000090E09987888780E590E006C080EA90E08B
:105110009987888780E890E09B878A878BA18EA3F8
:105120008CA18DA3DF91CF911F9108951F920F92B3
:105130000FB60F9211242F933F934F935F936F936A
:105140007F938F939F93AF93BF93EF93FF938CE7DE
:1051500092E00E94A025FF91EF91BF91AF919F91A6
:105160008F917F916F915F914F913F912F910F9010
:105170000FBE0F901F9018951F920F920FB60F92AF
:1051800011242F938F939F93EF93FF93E0918C02C1
:10519000F0918D028081E0919202F091930282FD64
:1051A00012C09081809195028F5F8F73209196023B
:1051B000821751F0E0919502F0E0E458FD4F958F91
:1051C0008093950201C08081FF91EF919F918F9113
:1051D0002F910F900FBE0F901F90189590E0FC013B
:1051E000EC56FB4D2491FC01E25BF04E3491FC0146
:1051F000E65CF04EE491EE2309F43CC0222339F141
:10520000233091F038F42130A9F0223001F584B533
:105210008F7D12C0273091F02830A1F02430B9F4EE
:10522000809180008F7D03C0809180008F77809374
:1052300080000DC084B58F7784BD09C08091B00017
:105240008F7703C08091B0008F7D8093B000F0E035
:10525000EE0FFF1FEA5DF04EA591B4919FB7F89451
:10526000611104C08C913095382302C0EC913E2B23
:105270003C939FBF08958F929F92AF92BF92CF921F
:10528000DF92EF92FF926B017C010E9434264B016A
:105290005C01C114D104E104F104F1F00E94342650
:1052A000DC01CB0188199909AA09BB09883E934002
:1052B000A105B10570F321E0C21AD108E108F10897
:1052C00088EE880E83E0981EA11CB11CC114D10485
:1052D000E104F10419F7DDCFFF90EF90DF90CF905C
:1052E000BF90AF909F908F9008952FB7F8946091E2
:1052F00074027091750280917602909177022FBFAF
:1053000008951F920F920FB60F9211242F933F937F
:105310008F939F93AF93BF93809174029091750286
:10532000A0917602B09177023091730226E6230FA6
:105330002D3728F029EE230F0196A11DB11D2093D2
:1053400073028093740290937502A0937602B093D7
:1053500077028091780290917902A0917A02B091BF
:105360007B020196A11DB11D809378029093790272
:10537000A0937A02B0937B02BF91AF919F918F91DE
:105380003F912F910F900FBE0F901F9018951F9275
:105390000F920FB60F9211242F933F934F935F9369
:1053A0006F937F938F939F93AF93BF93EF93FF93ED
:1053B000E0910201F09103010995FF91EF91BF91F6
:1053C000AF919F918F917F916F915F914F913F919D
:1053D0002F910F900FBE0F901F9018951F920F9254
:1053E0000FB60F9211242F933F934F935F936F93B8
:1053F0007F938F939F93AF93BF93EF93FF93E0912E
:105400000001F09101010995FF91EF91BF91AF91DA
:105410009F918F917F916F915F914F913F912F91CC
:105420000F900FBE0F901F9018958CB58F7B8CBD81
:105430002B9A2D9A2D988CB580648CBD0895DC0133
:105440009B96ED91FC919C979081D1968C91809543
:10545000892380830895DC019B96ED91FC919C97B4
:105460009081D1968C91892B80830895682F85E651
:1054700094E00C948720BF92CF92DF92EF92FF923C
:105480000F931F93CF93DF93EC01798768878CE0AC
:1054900090E09B878A87EA81FB81808D918D892BA3
:1054A00029F086859785069797878687118E108EB7
:1054B00081E0848BB12C8D81B81608F078C04C81C6
:1054C0008A819B810E851F85AC89BD892C853D8590
:1054D00068897989CB2CD12CEA85FB85ED90FC90ED
:1054E000600F711FB41219C06C9DA0016D9D500D0D
:1054F0007C9D500D11244E0F5F1F68857985DC015E
:10550000ED91FC9100A0F1A1E02D0995EC89FD89B8
:1055100080819181EE89FF8918C06C9DA0016D9DED
:10552000500D7C9D500D11244E0F5F1F68857985AD
:10553000DC01ED91FC9106A0F7A1E02D0995EE8923
:10554000FF8980819181EC89FD8920813181EA8107
:10555000FB81318B208B938B828B2E853F858889B5
:105560009989820F931F8C9DA0018D9D500D9C9D4C
:10557000500D11242A853B852E5F3F4F240F351F88
:105580008A819B81488559854E5F5F4FFC01558715
:10559000448737872687CC0CDD1CEA89FB89EC0D14
:1055A000FD1D659174910E949B30B39484CFDF916F
:1055B000CF911F910F91FF90EF90DF90CF90BF9010
:1055C0000895CF92DF92EF92FF92CF93DF936C0119
:1055D000990FEE08FF08F7FE19C08DE20E94362AE7
:1055E000EC0144275527BA014C195D096E097F0962
:1055F0002AE085E694E00E94D4308C0F9D1FDF9155
:10560000CF91FF90EF90DF90CF9008952AE0B701FF
:10561000A60185E694E0DF91CF91FF90EF90DF90B7
:10562000CF900C94D4304F925F926F927F928F9272
:105630009F92AF92BF92CF92DF92EF92FF920F9321
:105640001F93CF93DF936A01D22F732E602E512EBA
:10565000FA0114913196C4910FEF060F0C0F2FEF42
:10566000280F210F462F682F85E694E00E94BF2166
:10567000F6013296449085E694E00E941F2A1C02AF
:105680007001112400E010E0C0E090E8A92EB12CD8
:10569000E016F10681F1842C912CC5010C2E02C07C
:1056A000959587950A94E2F7882299220E94152AF7
:1056B0008114910411F4852D01C0872D0E948D2144
:1056C0000E94152A892811F4862D01C08D2F0E9471
:1056D0008D210F5F1F4FC73010F4CF5FD9CFF80176
:1056E00083E0F695E7958A95E1F73296EC0DFD1D7E
:1056F0004490C0E0CDCF85E694E0DF91CF911F913B
:105700000F91FF90EF90DF90CF90BF90AF909F9060
:105710008F907F906F905F904F900C942B2A3F92C8
:105720004F925F926F927F928F929F92AF92BF92B1
:10573000CF92DF92EF92FF920F931F93CF93DF935D
:10574000CDB7DEB72C970FB6F894DEBF0FBECDBF36
:105750006B01742E652E522E432E5801FB011491BD
:10576000319624912B83022F01592FEF280F210FFF
:1057700040E7682F85E694E00E94BF21F60132964B
:1057800034913B8785E694E00E941F2A812F012EE9
:10579000000C990BEB810E2E000CFF0BFA83E983B2
:1057A0003B811302900111243C832B8300E010E025
:1057B000F12C312CE12CFC01EA19FB09FE83ED836D
:1057C000222733272A193B0938872F83FC01319779
:1057D000FA87E9872B813C812017310709F459C0EA
:1057E0008E2C912CB7FE06C08F819885881699065D
:1057F00034F41DC0ED81FE818E169F06C4F4832D06
:1058000090E029813A81821793078CF43B85832F9E
:1058100090E020E830E00F2C02C0359527950A94DF
:10582000E2F782239323E1E0EC87892B09F41C86BD
:105830000E94152AFC85F11102C0842D01C0862D1D
:105840000E948D210E94152A2C85211102C0852DD0
:1058500001C0872D0E948D210F5F1F4F36E03F153D
:1058600010F0F3940CC0F80183E0F695E7958A9563
:10587000E1F73296EC0DFD1D84918B87F12CE985C3
:10588000FA858E169F0614F4E394A4CF3394E12C8A
:10589000A1CF85E694E02C960FB6F894DEBF0FBE3C
:1058A000CDBFDF91CF911F910F91FF90EF90DF90CF
:1058B000CF90BF90AF909F908F907F906F905F90B0
:1058C0004F903F900C942B2AEF92FF920F931F93CF
:1058D000CF93DF93EC01688B88E0898B8A819B8171
:1058E000EC89FD89E080F1800B8910E02A8930E0A5
:1058F00070E0DC01ED91FC9106A0F7A1E02D48E0FD
:1059000050E00995CE01DF91CF911F910F91FF904B
:10591000EF900C94D426ECE7F2E0A089B18982E004
:105920008C93A485B58581E08C93A685B78583E0AB
:105930008C93108EA489B58986E08C93A289B38953
:105940008C9180618C93A289B3898C9188608C93AF
:10595000A289B3898C9180688C930288F389E02DA9
:1059600080818F7D8083089590E0FC01E25BF04EA2
:105970002491FC01E65CF04E8491882399F090E03C
:10598000880F991FFC01E05DF04EA591B491FC01D8
:10599000EA5DF04E859194918FB7F894EC91E22BEB
:1059A000EC938FBF0895CF92DF92EF92FF920F9307
:1059B0001F93CF93DF936C017A018B01C0E0D0E09D
:1059C000CE15DF0581F0D8016D918D01D601ED91E5
:1059D000FC910190F081E02DC6010995892B11F011
:1059E0002196EECF7E01C701DF91CF911F910F91DC
:1059F000FF90EF90DF90CF900895CF93DF93EC016D
:105A000085E00E94B42C209711F460E004C0CF3FE1
:105A1000D10531F461E085E0DF91CF910C94EE285F
:105A2000E9E9F4E2E491E330F9F048F4E130B9F067
:105A3000E230A1F584B5806284BDC8BD34C0E730D2
:105A4000E9F0E83019F1E43049F580918000806296
:105A500080938000D0938B00C0938A0024C084B5CB
:105A6000806884BDC7BD1FC080918000806880931E
:105A70008000D0938900C093880015C08091B00049
:105A800080688093B000C093B3000DC08091B000D7
:105A900080628093B000C093B40005C0C038D105C7
:105AA0000CF0B8CFB2CFDF91CF910895282F30916D
:105AB0000805313208F04AC08091E4048111FCCF1E
:105AC0009091070542E04093E4042093E3042FEF14
:105AD0002093E2041092E1043093E004E7EEF4E056
