:100000000C9467120C940E2D0C94E72C0C948F1208
:100010000C94F71C0C94ED1C0C948F120C948F1202
:100020000C948F120C948F120C948F120C948F12CC
:100030000C948F120C948F120C948F120C948F12BC
:100040000C94A12C0C948F120C94DC2B0C94B62BDA
:100050000C948F120C948F120C948F120C948F129C
:100060000C946B240C948F128516971687168A169B
:100070008D1690169316261A3E1ABC1AFC1A2E1BC1
:100080009E1BE11B0C07FFE803AA9AA9AA9803FF8D
:10009000E04010FFFBFF0000000000FFFBFFFBFF44
:1000A000000000FFFDFFFDFFFDFF00FFFDFFFDFF66
:1000B000FDFFFCFFFDFFFDFFFDFFFFFFFDFFFDFF5F
:1000C000FDFFFFFFFEFFFEFFFEFFFFFFFEFFFEFF47
:1000D000FEFFFFFFFEFFFEFFFEFFFFFFFF7FFF7F34
:1000E000FF7FFFFFFF7FFF7FFF7FFFFFFF7FFF7F20
:1000F000FF7FFFFFFF7FFF7FFF7FFFFFFFBFFFBF90
:10010000FFBFFFFFFFBFFFBFFFBFFFFFFFBFFFBF7F
:10011000FFBFFF40100000000000FFDFFF000000F5
:10012000FFDFFFDFFF00FFBFFFBFFFBFFF3FFFBFDE
:10013000FFBFFFBFFFFFFFBFFFBFFFBFFFFFFFBF4F
:10014000FFBFFFBFFFFFFF7FFF7FFF7FFFFFFF7F3F
:10015000FF7FFF7FFFFFFF7FFF7FFF7FFFFFFEFF30
:10016000FEFFFEFFFFFFFEFFFEFFFEFFFFFFFEFFA5
:10017000FEFFFEFFFFFFFEFFFEFFFEFFFFFFFDFF96
:10018000FDFFFDFFFFFFFDFFFDFFFDFFFFFFFDFF8B
:10019000FDFFFDFFFF262600000000FC0000000719
:1001A000F00000003FC0000001FF0000000FFC0055
:1001B00000007FF0000003FFC000001FFF000000F0
:1001C000FEFC000007F3F000003F8FC00001FC3F81
:1001D00000000FE0FC00000003F00000000FC00072
:1001E00000003F00000000FC00000003F0000000E1
:1001F0000FC00000003F00000000FC00000003F002
:100200000000000FC00000003F00000000FC0000E4
:100210000003F00000000FC00000003F00000000DD
:10022000FC00000003F00000000FC00000003F00D1
:10023000000000FC00000003F00000000FC0000000
:10024000003F00000000FC00000003F026260FFF26
:10025000FFFFC07FFFFFFF83FFFFFFFF1FFFFFFFC9
:10026000FEFFFFFFFFFFFFFFFFFFFFC000003FFF9C
:10027000000001FFFC00000FFFF000007FFFC00046
:1002800007FFFF00003FFFFC0001FEFFF0000FF33F
:10029000FFC000FF8FFF0007F83FFC003FC0FFF0EA
:1002A00001FE03FFC00FF00FFF00FF803FFC07F8C7
:1002B00000FFF03FC003FFC1FE000FFF0FF0003F43
:1002C000FCFF8000FFF7F80003FFFFC0000FFFFEF8
:1002D00000003FFFF00000FFFF800003FFF8000078
:1002E0000FFFC000003FFFFFFFFFFFFFFFFFFFF713
:1002F000FFFFFFFF8FFFFFFFFC1FFFFFFFE03FFF40
:10030000FFFF002626000000000000000FC00000D4
:10031000007F00000003FC0000001FF0000000FF51
:10032000C0000007FF0000003FFC000001FFF000DC
:10033000000FEFC000007F3F000003F8FC00001F2B
:10034000C3F00000FE0FC00000003F00000000FCF2
:1003500000000003F00000000FC00000003F00009C
:100360000000FC00000003F00000000FC0000000CF
:100370003F00000000FC00000003F00000000FC080
:100380000000003F00000000FC00000003F000003F
:10039000000FC00000003F00000000FC0000000350
:1003A000F00000000FC00000003F00000000FC0053
:1003B000000003F00000000FC00026260FFFFFFF23
:1003C000C07FFFFFFF83FFFFFFFF1FFFFFFFFEFF59
:1003D000FFFFFFFFFFFFFFFFFFC000000FFF000058
:1003E000003FFC000000FC00000003F00000000FD4
:1003F000C00000003F00000000FC00000003F0000F
:1004000000000FC00000003F0FFFFFFFFC7FFFFF59
:10041000FFF3FFFFFFFF9FFFFFFFFEFFFFFFFFF365
:10042000FFFFFFFF0FC00000003F00000000FC00C6
:10043000000003F00000000FC00000003F000000BB
:1004400000FC00000003F00000000FC00000003FAF
:1004500000000000FFFFFFFFFFFFFFFFFFFFFFFFA8
:10046000FFFFFFFFFFFFFFFFFFFFFFFFFFFFFFFF9C
:10047000F026260FFFFFFF807FFFFFFF03FFFFFF38
:10048000FE1FFFFFFFFCFFFFFFFFFBFFFFFFFFEF74
:10049000C000001FBF0000007EFC000001F800004B
:1004A0000007E00000001F800000007E0000000147
:1004B000F800000007E00000001F800000007E013F
:1004C000FFFFFFF807FFFFFFC01FFFFFFF807FFF59
:1004D000FFFF01FFFFFFFC07FFFFFFF00000000729
:1004E000C00000001F000000007C00000001F000C0
:1004F000000007C00000001F000000007C0000009A
:1005000001FFC0000007FF0000001FFFFFFFFFFF0B
:10051000FFFFFFFFF7FFFFFFFFDFFFFFFFFE3FFFD4
:10052000FFFFF03FFFFFFF8026260000007F000056
:100530000003FC0000001FF0000000FFC0000007E7
:10054000FF0000003FFC000001FFF000000FFFC0B3
:100550000000FFFF000007FEFC00003FF3F0000179
:10056000FF8FC0000FF83F00007FC0FC0003FE03B8
:10057000F0001FF00FC001FF003F000FF800FC006B
:100580007FC003F003FC000FC01FE0003F00FF002E
:1005900000FC07FFFFFFFFDFFFFFFFFF7FFFFFFF05
:1005A000FDFFFFFFFFF7FFFFFFFFDFFFFFFFFF0084
:1005B00000003F00000000FC00000003F00000000D
:1005C0000FC00000003F00000000FC00000003F02E
:1005D0000000000FC00000003F00000000FC0026EB
:1005E00026FFFFFFFFFFFFFFFFFFFFFFFFFFFFFFF4
:1005F000FFFFFFFFFFFFFFFFFFFFFFFFFFFFC00049
:1006000000003F00000000FC00000003F0000000BC
:100610000FC00000003F00000000FC00000003F0DD
:100620000000000FC00000003FFFFFFFF0FFFFFFD2
:10063000FFE3FFFFFFFFCFFFFFFFFFBFFFFFFFFF56
:10064000FFFFFFFFFC00000003F00000000FC000F0
:1006500000003F00000000FC00000003F00000006C
:100660000FC00000003F00000000FFF0000003FF8B
:10067000C000000FFF0000003FFFFFFFFFFFFFFF74
:10068000FFFFF7FFFFFFFF8FFFFFFFFC1FFFFFFFD5
:10069000E03FFFFFFF0026260FFFFFFF007FFFFF69
:1006A000FC03FFFFFFF01FFFFFFFC0FFFFFFFF0383
:1006B000FFFFFFFC0FC00000003F00000000FC0037
:1006C000000003F00000000FC00000003F00000029
:1006D00000FC00000003F00000000FC00000003F1D
:1006E000FFFFFFF0FFFFFFFFE3FFFFFFFFCFFFFF75
:1006F000FFFFBFFFFFFFFFFFFFFFFFFFF000000353
:10070000FFC000000FFF0000003FFC000000FFF0F2
:10071000000003FFC000000FFF0000003FFC0000CE
:1007200000FFF0000003FFC000000FFF0000003FCB
:10073000FFFFFFFFFFFFFFFFFFF7FFFFFFFF8FFF41
:10074000FFFFFC1FFFFFFFE03FFFFFFF0026260328
:10075000FFFFFF800FFFFFFF803FFFFFFF00FFFF56
:10076000FFFE03FFFFFFFC0FFFFFFFF00000000F85
:10077000C00000003F00000000FC00000003F0008B
:1007800000000FC00000003F00000000FC0000005F
:1007900003F00000000FC00000003F00000000FC5C
:1007A00000000003F00000000FC00000003F000048
:1007B0000000FC00000003F00000000FC00000007B
:1007C0003F00000000FC00000003F00000000FC02C
:1007D0000000003F00000000FC00000003F00000EB
:1007E000000FC00000003F00000000FC00000003FC
:1007F000F00000000FC00000003F00000000FC00FF
:10080000000003F026260FFFFFFFC07FFFFFFF83DE
:10081000FFFFFFFF1FFFFFFFFEFFFFFFFFFFFFFFC9
:10082000FFFFFFC000000FFF0000003FFC000000C2
:10083000FFF0000003FFC000000FFF0000003FFCBE
:10084000000000FFF0000003FFC000000FFF0000E9
:10085000003FFFFFFFFFFDFFFFFFFFE7FFFFFFFF81
:100860009FFFFFFFFEFFFFFFFFFFF0000003FFC041
:1008700000000FFF0000003FFC000000FFF0000040
:1008800003FFC000000FFF0000003FFC000000FF5E
:10089000F0000003FFC000000FFF0000003FFFFF5B
:1008A000FFFFFFFFFFFFFFF7FFFFFFFF8FFFFFFFD0
:1008B000FC1FFFFFFFE03FFFFFFF0026260FFFFFAB
:1008C000FFC07FFFFFFF83FFFFFFFF1FFFFFFFFE54
:1008D000FFFFFFFFFFFFFFFFFFFFC000000FFF0054
:1008E00000003FFC000000FFF0000003FFC000001C
:1008F0000FFF0000003FFC000000FFF0000003FFBE
:10090000C000000FFF0000003FFFFFFFFFFFFFFFE1
:10091000FFFFF7FFFFFFFFDFFFFFFFFF3FFFFFFFCF
:10092000FC3FFFFFFFF00000000FC00000003F0091
:10093000000000FC00000003F00000000FC00000F9
:10094000003F00000000FC00000003F00000000F6A
:10095000C00000003FFFFFFFFFFFFFFFFFFFF7FFAB
:10096000FFFFFF8FFFFFFFFC1FFFFFFFE03FFFFFC9
:10097000FF0026260000000000000000000000002C
:100980000000000000000000000000000000000067
:100990000000000000000000000000000000000057
:1009A0000000000000000000000000000000000047
:1009B0000000000000000000000000000000000037
:1009C00000FFFFFC0003FFFFF0000FFFFFC0003F30
:1009D000FFFF0000FFFFFC0003FFFFF0000000002E
:1009E0000000000000000000000000000000000007
:1009F00000000000000000000000000000000000F7
:100A000000000000000000000000000000000000E6
:100A100000000000000000000000000000000000D6
:100A20000000000000000000002626000FC00000AB
:100A3000007F00000003FC0000001FF0000000FF2A
:100A4000C0000007FF0000003FFC000001FFF000B5
:100A5000000FEFC000007F3F000003F8FC00001F04
:100A6000C3F00000FE0FC00000003F00000000FCCB
:100A700000000003F00000000FC00000003F000075
:100A80000000FC00000003F00000000FC0000000A8
:100A90003F00000000FC00000003F00000000FC059
:100AA0000000003F00000000FC00000003F0000018
:100AB000000FC00000003F00000000FC0000000329
:100AC000F00000000FC00000003F00000000FC002C
:100AD000000003F00000000FC00000003F00000015
:100AE000303007FFFFFFFFF00FFFFFFFFFF81FFF92
:100AF000FFFFFFFC3FFFFFFFFFFE3FFFFFFFFFFE8B
:100B00007FFFFFFFFFFF7F00000003FF7F0000006B
:100B100007FF7F0000000FFF7F0000001FFF7F0026
:100B200000003FFF7F000000FFFF7F000001FFFF8C
:100B30007F000003FFFF7F000007FF7F7F00000FA3
:100B4000FE7F7F00001FFC7F7F00007FF07F7F0023
:100B500000FFE07F7F0001FFC07F7F0003FF807FF9
:100B60007F0007FF007F7F000FFE007F7F003FFCBC
:100B7000007F7F007FF0007F7F00FFE0007F7F012C
:100B8000FFC0007F7F03FF80007F7F07FF00007FA3
:100B90007F1FFE00007F7F3FF800007F7F7FF00017
:100BA000007F7FFFE000007F7FFFC000007F7FFFAE
:100BB0008000007F7FFF0000007F7FFC0000007F3F
:100BC0007FF80000007F7FF00000007F7FE00000E2
:100BD000007F7FFFFFFFFFFF3FFFFFFFFFFE3FFFA5
:100BE000FFFFFFFE1FFFFFFFFFFC0FFFFFFFFFF8F0
:100BF00007FFFFFFFFF001FFFFFFFFC00000000045
:100C0000000030300000000001FF0000000003FF82
:100C10000000000003FF0000000007FF00000000CC
:100C20000FFF000000001FFF000000003FFF00005A
:100C300000007FFF000000007FFF00000000FFFFBA
:100C400000000001FF7F00000003FE7F000000079E
:100C5000FE7F0000000FFC7F0000000FF87F000007
:100C6000001FF07F00000000007F00000000007FF8
:100C700000000000007F00000000007F0000000076
:100C8000007F00000000007F00000000007F0000E7
:100C90000000007F00000000007F00000000007FD7
:100CA00000000000007F00000000007F0000000046
:100CB000007F00000000007F00000000007F0000B7
:100CC0000000007F00000000007F00000000007FA7
:100CD00000000000007F00000000007F0000000016
:100CE000007F00000000007F00000000007F000087
:100CF0000000007F00000000007F00000000007F77
:100D000000000000007F00000000007F00000000E5
:100D1000007F00000000007F00000000007F000056
:100D20000000007F303001FFFFFFFFC007FFFFFF23
:100D3000FFF01FFFFFFFFFF81FFFFFFFFFFC3FFF5C
:100D4000FFFFFFFE3FFFFFFFFFFE7FFFFFFFFFFFF5
:100D50007F000000007F7F000000007F7F00000018
:100D6000007F7F000000007F00000000007F000087
:100D70000000007F00000000007F00000000007FF6
:100D800000000000007F00000000007F0000000065
:100D9000007F00000000007F00000000007F0000D6
:100DA0000000007F01FFFFFFFFFF07FFFFFFFFFEC7
:100DB0000FFFFFFFFFFE1FFFFFFFFFFC3FFFFFFFD7
:100DC000FFF83FFFFFFFFFF07FFFFFFFFFC07F0047
:100DD000000000007F00000000007F000000000015
:100DE0007F00000000007F00000000007F00000086
:100DF00000007F00000000007F00000000007F0076
:100E0000000000007F00000000007F0000000000E4
:100E10007F00000000007F00000000007FFFFFFF58
:100E2000FFFF7FFFFFFFFFFF7FFFFFFFFFFF7FFF52
:100E3000FFFFFFFF7FFFFFFFFFFF7FFFFFFFFFFFC2
:100E40007FFFFFFFFFFF303001FFFFFFFF0007FFC5
:100E5000FFFFFFC01FFFFFFFFFE01FFFFFFFFFF0CF
:100E60003FFFFFFFFFF83FFFFFFFFFF87FFFFFFFA0
:100E7000FFFC7F00000001FC7F00000001FC7F0000
:100E8000000001FC7F00000001FC0000000001FCEC
:100E90000000000001FC0000000001FC0000000058
:100EA00001FC0000000001FC0000000001FC00004B
:100EB000000001FC0000000001FC0000000001FC3B
:100EC000007FFFFFFFFC007FFFFFFFF8007FFFFFB9
:100ED000FFF8007FFFFFFFFC007FFFFFFFFE007FAA
:100EE000FFFFFFFE007FFFFFFFFF00000000007F0D
:100EF00000000000007F00000000007F00000000F4
:100F0000007F00000000007F00000000007F000064
:100F10000000007F00000000007F00000000007F54
:100F200000000000007F7F000000007F7F000000C5
:100F3000007F7F000000007F7F800000007F7FFF38
:100F4000FFFFFFFF3FFFFFFFFFFE3FFFFFFFFFFE33
:100F50001FFFFFFFFFFC0FFFFFFFFFF807FFFFFF73
:100F6000FFF001FFFFFFFFC03030000000007F8076
:100F700000000000FF8000000001FF80000000036F
:100F8000FF8000000007FF800000000FFF800000CE
:100F9000001FFF800000003FFF800000007FFF80F7
:100FA000000000FFFF80000001FFFF80000007FF3E
:100FB000FF8000000FFFBF8000001FFE3F80000089
:100FC0003FFC3F8000007FF83F800000FFF03F8043
:100FD0000001FFE03F800003FF803F800007FF002B
:100FE0003F80000FFE003F80001FFC003F80007F1D
:100FF000F8003F8000FFF0003F8001FFC0003F800D
:1010000003FF80003F8007FF00003F800FFE0000CD
:101010003F801FFC00003F801FFFFFFFFFFF1FFFFF
:10102000FFFFFFFF1FFFFFFFFFFF1FFFFFFFFFFF90
:101030001FFFFFFFFFFF1FFFFFFFFFFF1FFFFFFF60
:10104000FFFF000000003F80000000003F80000024
:1010500000003F80000000003F80000000003F8053
:10106000000000003F80000000003F800000000002
:101070003F80000000003F80000000003F80000033
:1010800000003F80000000003F8030307FFFFFFF06
:10109000FFFF7FFFFFFFFFFF7FFFFFFFFFFF7FFFE0
:1010A000FFFFFFFF7FFFFFFFFFFF7FFFFFFFFFFF50
:1010B0007FFFFFFFFFFF7F00000000007F000000B8
:1010C00000007F00000000007F00000000007F00A3
:1010D000000000007F00000000007F000000000012
:1010E0007F00000000007F00000000007F00000083
:1010F00000007F00000000007F00000000007F0073
:10110000000000007FFFFFFFFFC07FFFFFFFFFF039
:101110007FFFFFFFFFF87FFFFFFFFFFC7FFFFFFF69
:10112000FFFE7FFFFFFFFFFE7FFFFFFFFFFF0000CF
:101130000000007F00000000007F00000000007F32
:1011400000000000007F00000000007F00000000A1
:10115000007F00000000007F00000000007F000012
:101160000000007F00000000007F7F000000007F83
:101170007F000000007F7F000000007F7F000000F4
:10118000007F7FFFFFFFFFFF3FFFFFFFFFFE3FFFEF
:10119000FFFFFFFE1FFFFFFFFFFC1FFFFFFFFFF82A
:1011A00007FFFFFFFFF001FFFFFFFFC0303001FF2F
:1011B000FFFFFF0007FFFFFFFF000FFFFFFFFF0024
:1011C0001FFFFFFFFF003FFFFFFFFF003FFFFFFF8D
:1011D000FF007FFFFFFFFF007F00000000007F0097
:1011E000000000007F00000000007F000000000001
:1011F0007F00000000007F00000000007F00000072
:1012000000007F00000000007F00000000007F0061
:10121000000000007F00000000007F0000000000D0
:101220007F00000000007FFFFFFFFFC07FFFFFFF88
:10123000FFF07FFFFFFFFFF87FFFFFFFFFFC7FFF57
:10124000FFFFFFFE7FFFFFFFFFFE7FFFFFFFFFFFB0
:101250007F000000007F7F000000007F7F00000013
:10126000007F7F000000007F7F000000007F7F0084
:101270000000007F7F000000007F7F000000007FF3
:101280007F000000007F7F000000007F7F000000E3
:10129000007F7F000000007F7F000000007F7F0054
:1012A0000000007F7FFFFFFFFFFF3FFFFFFFFFFE0C
:1012B0003FFFFFFFFFFE1FFFFFFFFFFC0FFFFFFFD2
:1012C000FFF807FFFFFFFFF001FFFFFFFFC0303017
:1012D000007FFFFFFFC0007FFFFFFFF0007FFFFFE9
:1012E000FFF8007FFFFFFFFC007FFFFFFFFE007F96
:1012F000FFFFFFFE007FFFFFFFFF00000000007FF9
:1013000000000000007F00000000007F00000000DF
:10131000007F00000000007F00000000007F000050
:101320000000007F00000000007F00000000007F40
:1013300000000000007F00000000007F00000000AF
:10134000007F00000000007F00000000007F000020
:101350000000007F00000000007F00000000007F10
:1013600000000000007F00000000007F000000007F
:10137000007F00000000007F00000000007F0000F0
:101380000000007F00000000007F00000000007FE0
:1013900000000000007F00000000007F000000004F
:1013A000007F00000000007F00000000007F0000C0
:1013B0000000007F00000000007F00000000007FB0
:1013C00000000000007F00000000007F000000001F
:1013D000007F00000000007F00000000007F000090
:1013E0000000007F00000000007F00000000007F80
:1013F000303001FFFFFFFFC007FFFFFFFFF00FFFCF
:10140000FFFFFFF81FFFFFFFFFFC3FFFFFFFFFFE97
:101410003FFFFFFFFFFE7FFFFFFFFFFF7F0000009A
:10142000007F7F000000007F7F000000007F7F00C2
:101430000000007F7F000000007F7F000000007F31
:101440007F000000007F7F000000007F7F00000021
:10145000007F7F000000007F7F000000007F7F0092
:101460000000007F7F000000007F7F000000007F01
:101470003FFFFFFFFFFE3FFFFFFFFFFE3FFFFFFFBE
:10148000FFFE3FFFFFFFFFFE3FFFFFFFFFFE7FFF6F
:10149000FFFFFFFF7F000000007F7F000000007F54
:1014A0007F000000007F7F000000007F7F000000C1
:1014B000007F7F000000007F7F000000007F7F0032
:1014C0000000007F7F000000007F7F000000007FA1
:1014D0007F000000007F7F000000007F7F00000091
:1014E000007F7F000000007F7FFFFFFFFFFF3FFFC7
:1014F000FFFFFFFE3FFFFFFFFFFE1FFFFFFFFFFCA1
:101500000FFFFFFFFFF807FFFFFFFFF001FFFFFFE7
:10151000FFC0303003FFFFFFFFC00FFFFFFFFFF0F2
:101520001FFFFFFFFFF83FFFFFFFFFFC7FFFFFFFF5
:10153000FFFE7FFFFFFFFFFEFFFFFFFFFFFFFE003D
:101540000000007FFE000000007FFE000000007F22
:10155000FE000000007FFE000000007FFE00000093
:10156000007FFE000000007FFE000000007FFE0004
:101570000000007FFE000000007FFE000000007FF2
:10158000FE000000007FFE000000007FFE00000063
:10159000007FFFFFFFFFFFFF7FFFFFFFFFFF7FFFDA
:1015A000FFFFFFFF3FFFFFFFFFFF1FFFFFFFFFFFEB
:1015B0000FFFFFFFFFFF03FFFFFFFFFF0000000023
:1015C000007F00000000007F00000000007F00009E
:1015D0000000007F00000000007F00000000007F8E
:1015E00000000000007F00000000007F00000000FD
:1015F000007F00000000007F00000000007F00006E
:101600000000007F00000000007FFFFFFFFFFFFFE2
:10161000FFFFFFFFFFFE7FFFFFFFFFFE3FFFFFFF1C
:10162000FFFC3FFFFFFFFFF80FFFFFFFFFF003FF8F
:10163000FFFFFFC03030000000000000000000008D
:10164000000000000000000000000000000000009A
:10165000000000000000000000000000000000008A
:10166000000000000000000000000000000000007A
:10167000000000000000000000000000000000006A
:10168000000000000000000000000000000000005A
:10169000000000000000000000000000000000004A
:1016A000000000000000000000000000000000003A
:1016B00000000000001FFFFFF800001FFFFFF80000
:1016C000001FFFFFF800001FFFFFF800001FFFFFD3
:1016D000F800001FFFFFF800001FFFFFF8000000E8
:1016E00000000000000000000000000000000000FA
:1016F00000000000000000000000000000000000EA
:1017000000000000000000000000000000000000D9
:1017100000000000000000000000000000000000C9
:1017200000000000000000000000000000000000B9
:1017300000000000000000000000000000000000A9
:101740000000000000000000000000000000000099
:101750000000000000003030000FF8000000001F03
:10176000F8000000001FF8000000003FF800000033
:10177000007FF800000000FFF800000001FFF80003
:10178000000003FFF800000003FFF800000007FF5F
:10179000F80000000FFBF80000001FF3F800000045
:1017A0003FF3F80000007FE3F80000007FC3F8007B
:1017B0000000FF83F80000000003F80000000003B1
:1017C000F80000000003F80000000003F80000002B
:1017D0000003F80000000003F80000000003F80018
:1017E00000000003F80000000003F8000000000300
:1017F000F80000000003F80000000003F8000000FB
:101800000003F80000000003F80000000003F800E7
:1018100000000003F80000000003F80000000003CF
:10182000F80000000003F80000000003F8000000CA
:101830000003F80000000003F80000000003F800B7
:1018400000000003F80000000003F800000000039F
:10185000F80000000003F80000000003F80000009A
:101860000003F80000000003F80000000003F80087
:1018700000000003F8000000446576656C6F706539
:1018800064206279204D617274696E0A48726568DD
:101890006F722028632920323031380A0A5072656D
:1018A00073732043454E54455220746F20636C6F10
:1018B00073650078302E310A0004E010021C071214
:1018C0003732292D29252B3900010310E110031D82
:1018D00007062E2C292D2E2E373F000002101380D4
:1018E0000A298064022A040000007F2B0400000003
:1018F0007F0F0180961180FFB103012C2DB20301EF
:101900002C2DB306012C2D012C2DB40107C003A2F0
:101910000284C101C5C2020A00C3028A2AC4028A23
:10192000EEC5010E20003601C83A010564640000CE
:1019300000000000000000000000000000000000A7
:1019400000000000000000000000018000000018FE
:10195000000000000000001E0000000780000000E2
:1019600000000001F0000000F8000000000000008E
:101970001FC000003F8000000000000001FF0000C9
:101980000FF8000000000000001FF80003FF8000B7
:10199000000000000001FFE0007FF80000000000F0
:1019A00000001FFF801FFF8000000000000001FFFB
:1019B000FE07FFF8000000000000001FFFF0FFFF1F
:1019C0008000000000000001FFFFFFFFF8000000A2
:1019D000000000001FFFFFFFFF800000000000006C
:1019E00001FFFFFFFFF8000000000000001FFFFFE5
:1019F000FFFF8000000000000001FFFFFFFFF80074
:101A000000000000000007FFFFFFFE0000000000D4
:101A10000000001FFFFFFF8000000000000000002A
:101A2000FFFFFFF0000000000000000003FFFFFCCC
:101A30000000000000000000000FFFFF0000000099
:101A40000000001000003FFFC00000800000000107
:101A5000800001FFF8000018000000001E000007D1
:101A6000FE0000078000000001F800001F80000158
:101A7000F8000000001FC00000F000007F800000A0
:101A80000001FF00000000000FF8000000001FFC34
:101A90000000000003FF8000000001FFF0000000D4
:101AA00000FFF8000000001FFF800000001FFF8003
:101AB00000000001FFFE00000007FFF8000000002A
:101AC0001FFFF8000001FFFF8000000001FFFFE0A2
:101AD00000007FFFF8000000001FFFFF00000FFF65
:101AE000FF8000000001FFFFFC0003FFFFF8000083
:101AF00000001FFFFFF000FFFFFF8000000000FF5D
:101B0000FFFFC03FFFFFF00000000007FFFFFE07E0
:101B1000FFFFFE00000000001FFFFFF9FFFFFF8036
:101B200000000000007FFFFFFFFFFFE0000000005B
:101B30000003FFFFFFFFFFF80000000000000FFFA1
:101B4000FFFFFFFF000000001000003FFFFFFFFF4E
:101B5000C000008001C00000FFFFFFFFF000003860
:101B6000001E000007FFFFFFFE0000078001F800D5
:101B7000001FFFFFFF800001F8001FE000007FFF53
:101B8000FFE000007F8001FF800001FFFFF8000000
:101B90001FF8001FFC00000FFFFF000003FF800183
:101BA000FFF000003FFFC00000FFF8001FFFC00073
:101BB00000FFF000003FFF8001FFFF000003FC007A
:101BC000000FFFF8001FFFF800001F800001FFFF5B
:101BD0008001FFFFE000006000007FFFF8001FFFB2
:101BE000FF80000000001FFFFF8001FFFFFE0000DC
:101BF000000007FFFFF8001FFFFFF000000000FFDC
:101C0000FFFF8000FFFFFFC00000003FFFFFF0006C
:101C100003FFFFFF0000000FFFFFFC00001FFFFF9E
:101C2000FC000003FFFFFF0000007FFFFFE000005B
:101C30007FFFFFE0000001FFFFFF80001FFFFFF8B4
:101C400000000007FFFFFE0007FFFFFE000000008E
:101C50003FFFFFF000FFFFFFC000000000FFFFFF9D
:101C6000C03FFFFFF00000000003FFFFFF0FFFFF7A
:101C7000FC00000000000FFFFFFFFFFFFF0000005F
:101C80000000007FFFFFFFFFFFE0000000000001F9
:101C9000FFFFFFFFFFF800000000000007FFFFFF4D
:101CA000FFFE000000000000001FFFFFFFFF80009C
:101CB000000000000000FFFFFFFFF0000000000038
:101CC000000003FFFFFFFC00000000000000000F09
:101CD000FFFFFF0000000000000000007FFFFFC0CA
:101CE000000000000000000001FFFFF800000000FD
:101CF000000000000007FFFE0000000000000000E0
:101D000000001FFF8000000000000000000000FF36
:101D1000F00000000000000000000003FC000000D4
:101D200000000000000000000F00000000000000A4
:101D300000000000000000000000000000000000A3
:101D40000000000000000000000000000000000093
:101D50000000000000FFF3FF0FFEC036018FFC7093
:101D6000180FFF7FF9FFEC033031FFE70180060613
:101D7000019800C033871806781800606019800C3D
:101D8000031CE18066C1800606019800C030CC18B3
:101D900006661800606019800FFF07818066318039
:101DA0000607FF9800FFF0781806631800607FF9B7
:101DB000800C030301806619800606019800C0307C
:101DC00030180660D800606019800C03030180663B
:101DD00007800606019FFEC030301FFE603800609D
:101DE0006018FFEC030300FFC60380000000000042
:101DF00000000000000000000000000000000000E3
:101E000000000000000000000000000000000000D2
:101E1000B3187818D91E0B0B04088882070191BAF1
:101E2000C7C0702088881000416D6D6F20636F6C93
:101E30006F722028312F332900416D6D6F20636F41
:101E40006C6F722028322F332900416D6D6F206333
:101E50006F6C6F72202846756C6C29004261636B51
:101E600067726F756E6420636F6C6F7200554920E6
:101E7000436F6C6F7200526F746174652055492016
:101E8000627920393064677300496E7665727465D3
:101E900064004D616E75616C206F6E6C79004175E8
:101EA000746F206F6E6C79004175746F20414E44E1
:101EB000204D616E75616C004175746F204F52202A
:101EC0004D616E75616C00363A00353A00343A0067
:101ED000333A00323A00313A003C3C204261636BB5
:101EE0000053797374656D20496E666F726D61740D
:101EF000696F6E0053617665206272696768746EFF
:101F00006573730052656C6F616420626568617609
:101F1000696F720055492053657474696E67730068
:101F20005365742074696D65004D616E616765204D
:101F300050726573657473003C3C20536176652074
:101F400026204578697400000000080002010000A6
:101F5000030407000000000000000000000000254E
:101F60000028002B0000000000240027002A0004A5
:101F70000404040404040402020202020203030330
:101F8000030303010204081020408001020408102A
:101F900020010204081020D91E761E6D1E5C1E4A08
:101FA0001E391E281EB81EA81E9E1E921E891ED9EE
:101FB0001ED61ED31ED01ECD1ECA1EC71E381F29F8
:101FC0001F201F141F041FF41EE11E00000000004C
:101FD0003E5B4F5B3E3E6B4F6B3E1C3E7C3E1C1897
:101FE0003C7E3C181C577D571C1C5E7F5E1C0018F5
:101FF0003C1800FFE7C3E7FF0018241800FFE7DBE9
:10200000E7FF30483A060E2629792926407F050544
:1020100007407F05253F5A3CE73C5A7F3E1C1C0881
:10202000081C1C3E7F14227F22145F5F005F5F0646
:10203000097F017F006689956A606060606094A294
:10204000FFA29408047E040810207E201008082AAD
:102050001C08081C2A08081E101010100C1E0C1E4C
:102060000C30383E3830060E3E0E060000000000F0
:1020700000005F00000007000700147F147F142495
:102080002A7F2A122313086462364956205000081A
:10209000070300001C2241000041221C002A1C7F73
:1020A0001C2A08083E08080080703000080808084C
:1020B00008000060600020100804023E5149453EBF
:1020C00000427F400072494949462141494D331839
:1020D00014127F1027454545393C4A494931412171
:1020E0001109073649494936464949291E00001455
:1020F000000000403400000008142241141414149D
:1021000014004122140802015909063E415D594E4E
:102110007C1211127C7F494949363E414141227F60
:102120004141413E7F494949417F090909013E41F9
:102130004151737F0808087F00417F4100204041E2
:102140003F017F081422417F404040407F021C0233
:102150007F7F0408107F3E4141413E7F0909090607
:102160003E4151215E7F09192946264949493203DA
:10217000017F01033F4040403F1F2040201F3F4060
:1021800038403F6314081463030478040361594919
:102190004D43007F4141410204081020004141416C
:1021A0007F04020102044040404040000307080051
:1021B00020545478407F28444438384444442838D4
:1021C0004444287F385454541800087E090218A447
:1021D000A49C787F0804047800447D40002040409F
:1021E0003D007F1028440000417F40007C047804BB
:1021F000787C080404783844444438FC18242418B3
:1022000018242418FC7C080404084854545424045A
:10221000043F44243C4040207C1C2040201C3C4087
:1022200030403C44281028444C9090907C446454A6
:102230004C44000836410000007700000041360899
:102240000002010204023C2623263C1EA1A16112C9
:102250003A4040207A3854545559215555794122F5
:1022600054547842215554784020545579400C1EDE
:102270005272123955555559395454545939555487
:1022800054580000457C410002457D420001457CD8
:10229000407D1211127DF0282528F07C5455450010
:1022A0002054547C547C0A097F4932494949323AC6
:1022B0004444443A324A4848303A4141217A3A4209
:1022C000402078009DA0A07D3D4242423D3D4040DF
:1022D000403D3C24FF2424487E4943662B2FFC2F9D
:1022E0002BFF0929F620C0887E0903205454794128
:1022F0000000447D413048484A32384040227A004C
:102300007A0A0A727D0D19317D2629292F2826295E
:1023100029292630484D40203808080808080808B0
:1023200008382F10C8ACBA2F102834FA00007B00F0
:102330000008142A142222142A14085500550055A6
:10234000AA55AA55AAFF55FF55FF000000FF00102F
:102350001010FF00141414FF001010FF00FF1010E5
:10236000F010F0141414FC001414F700FF0000FF28
:1023700000FF1414F404FC141417101F10101F1085
:102380001F1414141F00101010F0000000001F1084
:102390001010101F10101010F010000000FF10108F
:1023A00010101010101010FF10000000FF1400009B
:1023B000FF00FF00001F10170000FC04F4141417A6
:1023C00010171414F404F40000FF00F7141414148C
:1023D000141414F700F7141414171410101F101FFE
:1023E000141414F4141010F010F000001F101F004B
:1023F00000001F14000000FC140000F010F010108A
:10240000FF10FF141414FF141010101F0000000020
:10241000F010FFFFFFFFFFF0F0F0F0F0FFFFFF0014
:1024200000000000FFFF0F0F0F0F0F384444384427
:10243000FC4A4A4A347E02020606027E027E02639B
:10244000554941633844443C04407E201E20060226
:102450007E020299A5E7A5991C2A492A1C4C720103
:10246000724C304A4D4D303048784830BC625A4644
:102470003D3E494949007E0101017E2A2A2A2A2A35
:1024800044445F444440514A444040444A5140001F
:1024900000FF0103E080FF000008086B6B083612A4
:1024A000362436060F090F06000018180000001029
:1024B00010003040FF0101001F01011E00191D170F
:1024C00012003C3C3C3C000000000000C1361124DE
:1024D0001FBECFEFD8E0DEBFCDBF11E0A0E0B1E07E
:1024E000E2E2F8E702C005900D92AE3DB107D9F7E0
:1024F00024E0AEEDB1E001C01D92A23BB207E1F7CE
:1025000012E1C7E6D2E104C02197FE010E94F03B30
:10251000C636D107C9F70E94A2300C940F3C0C9428
:102520000000F8944B9913C08091DE01811111C015
:102530008091E5019091E60101979093E6018093E7
:10254000E50181E0809308028093DE0102C01092D1
:10255000DE017894089508950895EF92FF920F9305
:102560001F934091E7012091E3013091E401423053
:1025700069F0433021F04130B1F4207E0EC0377055
:10258000982F8827990F990F990F07C02F71387FBF
:1025900045E0880F991F4A95E1F7822B932B909382
:1025A000E4018093E301E090E301F090E40108E1AD
:1025B00010E028E130E040E150E068E570E080E5BF
:1025C00094E00E943D231F910F91FF90EF9008959A
:1025D0008093E701813061F090F0823031F08330F8
:1025E00009F049C027EA33E005C02FE833E002C014
:1025F00027E733E030931F0220931E023CC0E09196
:10260000E101F091E2018091E3019091E401918375
:10261000808385E0809307026091210470912204F9
:1026200080E594E00E94761D80911F049091200423
:102630009093630480936204909361048093600498
:1026400088E290E090935D0480935C0410925F04B4
:1026500010925E0483E891E00E94FE2568E070E03D
:1026600087EC93E00E94032687EC93E090931F028F
:1026700080931E02089520912104309122044091FC
:102680001F045091200450936104409360043093E0
:1026900063042093620490E0019724E0880F991F5F
:1026A0002A95E1F72BE230E0A901481B590B509322
:1026B0005D0440935C0482E790E090935F04809314
:1026C0005E048EE50C94B625EF92FF920F931F9354
:1026D000CF93DF93EC0180910B0490E0FC01EE0FAF
:1026E000FF1FE95DFB4FD183C08327E034E03093C7
:1026F0001F0220931E02E0902104F09022044091DA
:102700001504509116042091170430911804240FD9
:10271000351F289FB001299F700D389F700D11241F
:1027200040911104509112044E5F5F4F460F571FA6
:102730000AE010E02AE030E060E570E080E594E037
:102740000E944A1FCD2B61F520911504309116048B
:102750008091170490911804280F391F80910B0461
:10276000829FA001839F500D1124809111049091AC
:1027700012040296840F951F2AE530E030935D0421
:1027800020935C0490935F0480935E048FE891E053
:10279000DF91CF911F910F91FF90EF900C94FE2548
:1027A000DF91CF911F910F91FF90EF900895AFE1CE
:1027B000B4E012962D913C911397E0E5F4E04D9131
:1027C0005C91518B408B338B228BA7E0B4E01E963B
:1027D0004D915C911F9750962D913C915197420FCE
:1027E000531F14962C911497249FB001259F700DB0
:1027F00011241A962D913C911B972E5F3F4F260F67
:10280000371F4AE550E05587448737872687BC0144
:1028100080E090E04AE00E94BB2580E20C94B6255F
:102820000F931F93CF93DF93E7E6F3E0F0931F023C
:10283000E0931E028091AF0490E091878087CFE102
:10284000D4E00A811B812CE030E04EE350E062E3EB
:1028500070E080E594E00E94A323088119812CE0B8
:1028600030E04EE350E064E470E080E594E00E94E4
:10287000A323DF91CF911F910F91089580915F0362
:102880008093B004E0E5F4E082E390E095878487EC
:10289000978786870C94952580916F038093AF046A
:1028A000E0E5F4E082E390E0958784879787868768
:1028B0000C949525EF92FF920F931F938091C30381
:1028C000E0901F04F090200481112DC00CE010E076
:1028D00028E330E044E650E060E470E080E594E016
:1028E0000E943D2380911F04909120042091210497
:1028F0003091220430936104209360049093630428
:102900008093620480E590E090935D0480935C0482
:1029100086E690E090935F0480935E0483E991E003
:102920000E94FE2525C02091210430912204F092BE
:102930006104E0926004309363042093620490E0A9
:10294000019734E0880F991F3A95E1F72BE230E0C8
:10295000A901481B590B50935D0440935C0482E726
:1029600090E090935F0480935E048FE60E94B6250A
:102970008091E7019091C303981709F460C0811119
:1029800041C0E0901F04F09020040CE010E028E328
:1029900030E044E650E060E470E080E594E00E94BE
:1029A000A91DE0902104F09022040AE010E026E343
:1029B00030E045E650E061E470E080E594E00E949C
:1029C0003D23809121049091220420911F04309195
:1029D00020043093610420936004909363048093F7
:1029E000620480E590E090935D0480935C0486E649
:1029F00090E090935F0480935E0483E991E00E94ED
:102A0000FE2519C0E0902104F090220490E0019787
:102A100024E0880F991F2A95E1F76BE270E0681BAC
:102A2000790B0AE010E02CE030E042E750E080E56E
:102A300094E00E943D238091C3038093E7011F919E
:102A40000F91FF90EF900895CF92DF92EF92FF9257
:102A50000F931F93CF93DF9323E0209307021092ED
:102A6000E7019093E2018093E101FC018081918173
:102A70009093E4018093E3018FEB93E090931F0226
:102A800080931E028FE1C82E84E0D82EF601628169
:102A9000738180E594E00E94761DE7EAF3E080917F
:102AA000E4018695869586958087118668E0CF013A
:102AB0000E94BB278091E3019091E401807E977092
:102AC00025E0969587952A95E1F790939803809352
:102AD000970368E18FE893E00E94BB278091E301B0
:102AE0009091E4018F7199279093800380937F03E5
:102AF00068E287E793E00E94BB27F601E080F1805F
:102B00000CE010E028E330E044E650E060E470E0E0
:102B100080E594E00E94A91DF60182819381C0E5C1
:102B2000D4E020813181398B288B9B8B8A8B80E587
:102B300090E09D878C8785E690E09F878E8783E96C
:102B400091E00E94FE258AE090E09D878C879F8718
:102B50008E87E090E301F090E40108E110E028E1C5
:102B600030E040E150E068E570E0CE010E943D2396
:102B7000F601E080F1800AE110E02AE130E04FE068
:102B800050E067E570E0CE010E94A91DDF91CF9172
:102B90001F910F91FF90EF90DF90CF900C945A14FB
:102BA0000F931F93CF93DF93F999FECF80E090E0CE
:102BB0000E946E39823409F441C0F999FECF62E473
:102BC00080E090E00E94883964E681E090E00E9415
:102BD000883960EE7FEF82E090E00E94963960E0F5
:102BE00070E084E090E00E94963960EE7FEF86E02E
:102BF00090E00E94963960EE7FEF88E090E00E94BE
:102C0000963960EE7FEF8AE090E00E9496396EE19F
:102C100070E08CE090E00E9496396EE571E08EE005
:102C200090E00E949639C0E1D0E060E0CE010E94C1
:102C300088392196CA31D105C1F7B6CF81E090E03D
:102C40000E946E398093FD010FE114E0C2E0D0E0F4
:102C5000CE010E946E39F80181938F012196CA310D
:102C6000D105B1F7DF91CF911F910F910895A091F8
:102C70001E02B0911F02109779F0482F50E0440FC8
:102C8000551F4E505E4FED91FC9111970280F381DC
:102C9000E02D682FCD0109940895CF93DF9381E053
:102CA00080930702CFE1D4E06A817B8180E594E0E4
:102CB0000E94761D88819981E0E5F4E0938B828BF8
:102CC000918B808B88E290E09587848717861686A3
:102CD00086E891E00E94FE2568E070E087E394E0DA
:102CE0000E94032687E394E090931F0280931E02C4
:102CF000DF91CF91089590E08730910508F055C09D
:102D0000FC01EC5CFF4F0C94F03B0C944D168FE1F2
:102D100094E00BC081E294E008C083E294E005C037
:102D200085E294E002C087E294E00C94241560915F
:102D30003604633010F46F5F01C060E060933604C6
:102D400080E594E00E947E2B85E0809307026091ED
:102D500021047091220480E594E00E94761D809108
:102D60001F049091200490936304809362049093D5
:102D700061048093600488E290E090935D04809306
:102D80005C0410925F0410925E0483E891E00E945C
:102D9000FE2568E070E087EC93E00E94032687EC54
:102DA00093E090931F0280931E020895CF938111A8
:102DB00003C0CF910C944D16C82F8091210490919F
:102DC000220420911F043091200430936104209349
:102DD0006004909363048093620420911504309101
:102DE00016048091170490911804280F391FC29F70
:102DF000A001C39F500D11248091110490911204E1
:102E00000296840F951F20E530E030935D042093F7
:102E10005C0490935F0480935E048EE30E94B62569
:102E200020910B0430E040911504509116048091DC
:102E3000170490911804480F591F429FB001439FF7
:102E4000700D529F700D1124809111049091120405
:102E50000296860F971F4AE550E050935D04409319
:102E60005C0490935F0480935E0481E090E0C13045
:102E700011F080E090E09093FC038093FB0387EFD8
:102E800093E090931F0280931E02220F331FF901DB
:102E9000E95DFB4F80819181909300048093FF0353
:102EA0000E94A92688E991E0CF910C94FE25809399
:102EB00035040C944D16CF93DF93809121049091AB
:102EC000220420911F043091200430936104209348
:102ED0006004909363048093620489E690E0909389
:102EE0005D0480935C048DE090E090935F04809398
:102EF0005E0482E0809364048091050282FF03C037
:102F00008091000202C08091FF0190E001960E9432
:102F1000A92681E0809364048091050282FF05C0A8
:102F200080911F049091200404C08091210490910D
:102F300022049093630480936204909361048093CD
:102F400060048FE590E090935D0480935C04C6E19B
:102F5000D0E0D0935F04C0935E048CE30E94B6255A
:102F600087E790E090935D0480935C04D0935F04C6
:102F7000C0935E048EE30E94B62580912104909157
:102F8000220420911F043091200430936104209387
:102F900060049093630480936204DF91CF9108955D
:102FA0008F929F92AF92BF92CF92DF92EF92FF9259
:102FB0000F931F932091FD01822F90E0A0E0B0E0DD
:102FC0009C01AD012150310941095109A4E6B0E04D
:102FD0000E94BA392EEF30E040E050E00E949B3969
:102FE000AA24BB24A21AB30AEFE1F4E0C080D18086
:102FF000E280F380812C912C06E010E024E630E0A2
:103000004EE150E063E170E080E594E00E945F22D1
:103010001F910F91FF90EF90DF90CF90BF90AF90F6
:103020009F908F900895EF92FF920F931F93CF93ED
:10303000DF93CFE1D4E00A811B8128813981E12C23
:10304000F12C46E15EE16CE170E082E090E00E94EC
:10305000D726E880F98008E010E028E630E04DE16E
:1030600050E060E170E080E594E00E943D23DF9154
:10307000CF911F910F91FF90EF900895CF92DF9223
:10308000EF92FF920F931F93CF93DF93E091FF0195
:10309000F0E0EE0FFF1FE75DFB4F808191818436EA
:1030A00091050CF064C02091E5013091E60137FFF5
:1030B00003C0319521953109C9016AE070E00E9491
:1030C000DC3BC62F822F6AE0C69F80191124009135
:1030D0002104109122042091DF013091E001813020
:1030E00029F4E12CF12C46E557E114C0909105023A
:1030F00091FF05C0E12CF12C44E356E10BC062E2E4
:1031000071E0869FA001879F500D11244052554FBA
:10311000E12CF12C61E370E082E490E00E94D7267C
:103120008091E5019091E601009121041091220423
:103130002091DF013091E00197FD04C080910502EC
:1031400081FF05C0E12CF12C44E356E10BC082E283
:1031500091E0C89FA001C99F500D11244052554FC6
:10316000E12CF12C61E370E08EE090E09FC0883E9E
:1031700093400CF09DC02091E5013091E60137FFAE
:1031800003C0319521953109C90164E670E00E94C0
:10319000DC3BAB01D62EEB01DD271CE9BE0116039B
:1031A000C001179F900D1124820F931F6AE070E0F9
:1031B0000E94DC3BC62E722F149F700D1124472FE6
:1031C0008AE0C89E40191124009121041091220424
:1031D0002091DF013091E001413029F4E12CF12C04
:1031E00049E25AE011C08091050281FF05C0E12C3F
:1031F000F12C42E759E008C097EB499FA001112448
:10320000445B5D4FE12CF12C66E370E089E590E0D2
:103210000E94D7268091050200912104109122047A
:103220002091DF013091E00181FF05C0E12CF12CFC
:1032300042E759E008C067EBC69EA0011124445B39
:103240005D4FE12CF12C66E370E08DE290E00E948E
:10325000D72600912104109122042091DF013091A2
:10326000E00171E0D71205C0E12CF12C45E951E0F5
:1032700019C08091050281FD06C08091E501909101
:10328000E60197FF05C0E12CF12C42E759E00AC0A6
:1032900087EB8C9FA0018D9F500D1124445B5D4FE7
:1032A000E12CF12C66E370E081E090E00E94D726EB
:1032B000DF91CF911F910F91FF90EF90DF90CF9012
:1032C0000895CF92DF92EF92FF920F931F93CF93C7
:1032D000DF936091E5017091E6011616170664F51B
:1032E000CB01770FAA0BBB0BBC01CD0126E0660F0B
:1032F000771F881F991F2A95D1F7E091FF01F0E011
:10330000EE0FFF1FE75DFB4F20813181032E000C84
:10331000440B550B0E949B39C0E4C21BCB3228F0F2
:1033200080912704909128040CC0C63130F0809120
:1033300025049091260405C0C0E08091230490915B
:1033400024049093E0018093DF01D0E0C090DF017E
:10335000D090E00100912104109122047E01960199
:1033600043E151E060E770E080E090E00E94D72602
:10337000EE24FF24EC1AFD0A00912104109122048E
:10338000960141E950E060E770E080E490E00E943F
:10339000D726DF91CF911F910F91FF90EF90DF9093
:1033A000CF900895EF92FF920F931F93CF93DF93E7
:1033B00010921F0210921E0210920702CFE1D4E079
:1033C0006A817B8180E594E00E94761D8A819B81E1
:1033D000E0E5F4E028813981318B208B938B828B5F
:1033E0008FE590E0958784878DE090E097878687CA
:1033F0008BE991E00E94FE250A811B812881398199
:10340000E12CF12C44E850E063E070E088E590E0C6
:103410000E94D7260E9461190E943E18DF91CF9129
:103420001F910F91FF90EF900C945B17EF92FF921A
:103430000F931F93CF93DF9390E08730910508F0AF
:1034400001C2FC01E55CFF4F0C94F03BF999FECF03
:103450000FE114E0C2E0D0E0F80161918F01CE01EC
:103460000E9476392196CA31D105B1F7DF91CF910B
:103470001F910F91FF90EF900C94D21982E08093EE
:103480000702609121047091220480E594E00E947B
:10349000761D80911F049091200490936304809383
:1034A0006204909361048093600488E290E09093BA
:1034B0005D0480935C0410925F0410925E048EE9B8
:1034C00091E00E94FE2568E070E087E094E00E94B1
:1034D000032687E094E090931F0280931E02809160
:1034E00021049091220420911F04309120043093F4
:1034F000610420936004909363048093620409E262
:1035000014E0C1E0D0E08AE5E82EF12C80910C04B3
:1035100090E0C817D9070CF095C12091150430919F
:1035200016048091170490911804280F391F2C9FBE
:10353000A0012D9F500D3C9F500D1124809111042E
:10354000909112040296840F951FF0925D04E09210
:103550005C0490935F0480935E04F80181919191E3
:103560008F01009719F00E94A92604C08FE891E00E
:103570000E94FE252196CACF87E593E090931F0213
:1035800080931E028091B00490E09093600380933A
:103590005F03609121047091220480E594E00E9411
:1035A000761D82E390E090935D0480935C04909399
:1035B0005F0480935E048091210490912204209105
:1035C0001F04309120043093610420936004909391
:1035D0006304809362040E94952500911F0410915A
:1035E00020042CE030E04EE350E062E370E080E540
:1035F00094E00E94A32326C185E080930702609196
:1036000021047091220480E594E00E94761D80914F
:103610001F0490912004909363048093620490931C
:1036200061048093600488E290E090935D0480934D
:103630005C0410925F0410925E0483E891E00E94A3
:10364000FE2568E070E087EC93E00E94032687EC9B
:1036500093E090931F0280931E02F4C08091350482
:103660008093E30384E080930702609121047091CA
:10367000220480E594E00E94761D80911F049091C1
:103680002004909363048093620490936104809378
:10369000600488E290E090935D0480935C04109253
:1036A0005F0410925E0486EA91E00E94FE2562E1CA
:1036B00070E08FED93E00E9403268FED93E09093EE
:1036C0001F0280931E028091210490912204209178
:1036D0001F04309120043093610420936004909380
:1036E0006304809362042091ED033091EE03809196
:1036F000EF039091F003280F391F80913504829FCA
:10370000A001839F500D11248091E9039091EA0359
:103710000296840F951F28E030E030935D042093DB
:103720005C0490935F0480935E048EE3DF91CF91FD
:103730001F910F91FF90EF900C94B625F999FECF51
:103740006091FD0181E090E00E94763980911F0434
:10375000909120042091210430912204309361043F
:103760002093600490936304809362042091450445
:10377000309146048091470490914804280F391FE6
:1037800085E0829FA001839F500D11248091410408
:10379000909142040296840F951F29E630E0309301
:1037A0005D0420935C0490935F0480935E0483EB3C
:1037B00091E0DF91CF911F910F91FF90EF900C94CA
:1037C000FE258FEF8093070210921F0210921E02B7
:1037D000809121049091220420911F0430912004B3
:1037E0003093610420936004909363048093620497
:1037F00010925D0410925C0480E290E090935F046C
:1038000080935E0486EB91E00E94FE25E0E1FEE1FC
:103810006591749180E594E00E94693063EC71E0F9
:1038200080E594E00E948D30E2E1FEE165917491C3
:1038300080E594E0DF91CF911F910F91FF90EF9081
:103840000C946930DF91CF911F910F91FF90EF9011
:103850000895EF92FF920F931F93E091FF01F0E024
:10386000EE0FFF1FE75DFB4F808191819093E60192
:103870008093E50180910702811118C0E090210436
:10388000F090220400E310E02EE730E041E350E046
:1038900061E070E080E594E00E943D230E946119A0
:1038A0001F910F91FF90EF900C943E181F910F9174
:1038B000FF90EF900895682F80911E0290911F0253
:1038C000009739F0DC01ED91FC910190F081E02D41
:1038D0000994623051F018F46130D1F008956330EA
:1038E00089F16F3F09F456C008958091070288233B
:1038F00019F08F3F59F008958091FF0180930002E5
:103900008091050284608093050237C00C944D16A7
:1039100080910702811140C08091050282FF3CC066
:1039200080910002882311F0815001C085E0E82FCA
:10393000F0E0EE0FFF1FE75DFB4F20813181232B6D
:1039400089F319C080910702811126C08091050278
:1039500082FF22C080910002853010F48F5F01C089
:1039600080E0E82FF0E0EE0FFF1FE75DFB4F2081C6
:103970003181232B89F3809300020E945B170E9400
:10398000952C60930102709302028093030290933E
:10399000040208950C94291C08958091EB014A9922
:1039A00013C0811119C08091E9019091EA01049737
:1039B00098F08FEF0E945B1C81E08093EB011092E6
:1039C000F1031092F00304C0882331F01092EB0150
:1039D0001092EA011092E90108951F920F920FB61A
:1039E0000F9211240F900FBE0F901F9018951F92E9
:1039F0000F920FB60F9211242F933F934F935F9323
:103A00006F937F938F939F93AF93BF93EF93FF93A6
:103A100080910602319913C0811119C08091EC0187
:103A20009091ED01049798F082E00E945B1C81E088
:103A3000809306021092F7011092F60104C08823C9
:103A400031F0109206021092ED011092EC0180917B
:103A5000FC01309913C0811119C08091F00190913F
:103A6000F101049798F081E00E945B1C81E0809353
:103A7000FC011092F5011092F40104C0882331F08A
:103A80001092FC011092F1011092F0018091FE0160
:103A9000329913C0811119C08091EE019091EF010C
:103AA000049798F083E00E945B1C81E08093FE0104
:103AB0001092F9011092F80104C0882331F010929D
:103AC000FE011092EF011092EE01FF91EF91BF9174
:103AD000AF919F918F917F916F915F914F913F91A6
:103AE0002F910F900FBE0F901F901895EF92FF929D
:103AF0000F931F93DC011A960D911C911B9718963A
:103B00002D913C911997ED91FC9100A0F1A1E02D30
:103B10007B0140E050E060E070E009951F910F915B
:103B2000FF90EF9008950895FC016370658B848188
:103B3000958126813781613039F0633029F0918792
:103B400080873387228708953187208793878287EC
:103B500008956F927F928F929F92AF92BF92CF9271
:103B6000DF92EF92FF920F931F93CF93DF93EC01BD
:103B70004B015A0169013801E881F9810284F3851A
:103B8000E02D0995E881F9810288F389E02D87010C
:103B90009601A501B401CE010995A501460D571D59
:103BA00041505109E881F9810288F389E02D96019D
:103BB000B401CE010995E881F9810088F189E02DF1
:103BC0009301A501B401CE010995C80CD91CB60119
:103BD00061507109E881F9810088F189E02D930134
:103BE000A501CE010995E881F9810688F789E02DC4
:103BF000CE01DF91CF911F910F91FF90EF90DF9059
:103C0000CF90BF90AF909F908F907F906F900994CE
:103C10008F929F92AF92BF92CF92DF92EF92FF92DC
:103C20000F931F93CF93DF934C016B015A01E9016E
:103C3000DC01ED91FC916217730781F404171507FD
:103C400024F48B2D5801042F182F0A191B099801F1
:103C50002F5F3F4F048CF58DE02D12C040175107A8
:103C600009F52617370724F48D2D6901C62FD82FA3
:103C70009E012C193D092F5F3F4F068CF78DE02DDB
:103C80008701A501B601C4010995DF91CF911F916C
:103C90000F91FF90EF90DF90CF90BF90AF909F90EB
:103CA0008F9008950284F385E02D0995D401ED915C
:103CB000FC910488F589E02D9E01A501B601C4019F
:103CC0000995D401ED91FC910688F789E02DC40196
:103CD000DF91CF911F910F91FF90EF90DF90CF90E8
:103CE000BF90AF909F908F900994EF92FF920F93A7
:103CF0001F93DC011A960D911C911B9718962D911C
:103D00003C911997ED91FC9100A0F1A1E02D7B0170
:103D100040E050E060E070E009951F910F91FF9046
:103D2000EF9008954F925F926F927F928F929F9241
:103D3000AF92BF92CF92DF92EF92FF920F931F93B9
:103D4000CF93DF936C012B015A0139014801DC014B
:103D5000ED91FC910284F385E02D0995E201640C5C
:103D6000751CD601ED91FC91C615D7055CF4008851
:103D7000F189E02D87019401A501BE01C6010995D5
:103D80002196EFCF0688F789E02DC601DF91CF910C
:103D90001F910F91FF90EF90DF90CF90BF90AF9069
:103DA0009F908F907F906F905F904F9009948F922B
:103DB0009F92AF92BF92CF92DF92EF92FF920F93BA
:103DC0001F93CF93DF93EC015B014A016901E88106
:103DD000F9810284F385E02D099595012C0D3D1D97
:103DE00021503109E881F9810488F589E02D7801B5
:103DF0008401A401B501CE010995E881F981068805
:103E0000F789E02DCE01DF91CF911F910F91FF90A7
:103E1000EF90DF90CF90BF90AF909F908F900994DC
:103E20008F929F92AF92BF92CF92DF92EF92FF92CA
:103E30000F931F93CF93DF93EC015B014A0169015C
:103E40007801E881F9810284F385E02D0995C80C99
:103E5000D91C860101501109E881F9810488F5898E
:103E6000E02D9501A401B501CE010995E881F98104
:103E70000688F789E02DCE01DF91CF911F910F9138
:103E8000FF90EF90DF90CF90BF90AF909F908F907A
:103E900009940895EF92FF920F931F93DC01ED9127
:103EA000FC9100A0F1A1E02D09951F910F91FF90C9
:103EB000EF9008950F931F93DC01ED91FC91068C18
:103EC000F78DE02D09951F910F9108950F931F9382
:103ED000DC01ED91FC91048CF58DE02D09951F918D
:103EE0000F910895DC01ED91FC910084F185E02DA6
:103EF00009942F923F924F925F926F927F928F928E
:103F00009F92AF92BF92CF92DF92EF92FF920F9368
:103F10001F93CF93DF9300D000D000D0CDB7DEB792
:103F20002C017E836D836A015901C801FC82EB82FA
:103F30004801841A950A97FE03C0919481949108D0
:103F400035012D813E81621A730A77FE03C0719498
:103F500061947108681479045CF43A2D2B2D5C018E
:103F6000832F922F3D812E81DE82CD82C32ED22ED1
:103F7000AD81BE81AA16BB065CF43C2D2D2D6C01D3
:103F8000832F922F3D812E81BE82AD82A32EB22E31
:103F900085012D813E81021B130B1C012C183D084D
:103FA00037FE03C0319421943108780117FF03C014
:103FB0003FEFE31AF30AF594E794C816D9062CF0FC
:103FC0008FEF9FEF9A83898304C0A1E0B0E0BA83AA
:103FD000A9832D813E81A216B30624F1D201ED9171
:103FE000FC910484F585E02D2B813C8168147904D3
:103FF00024F44D815E81B60103C0A6016D817E81EE
:10400000C2010995E218F308F7FE06C029813A813A
:10401000C20ED31EE00EF11E8D819E8101969E83FD
:104020008D83D7CF26960FB6F894DEBF0FBECDBFD7
:10403000DF91CF911F910F91FF90EF90DF90CF9084
:10404000BF90AF909F908F907F906F905F904F90B8
:104050003F902F90089585ED8093BC008091BC0027
:1040600084FDFCCF10928902089540914002262FD2
:1040700030E0240F311D21323105DCF4209189021A
:104080002430C9F4FC0180E090E0861758F43091A8
:1040900040022191DC01A05EBD4FA30FB11D2C9306
:1040A0000196F3CF80914002680F6093400280E058
:1040B000089581E0089582E00895E0918D04809153
:1040C0008C04E81730F4F0E0E257FB4F808190E079
:1040D00008958FEF9FEF089590918D0480918C0447
:1040E000981750F4E92FF0E0E257FB4F208130E0C1
:1040F0009F5F90938D0402C02FEF3FEFC901089599
:1041000080918C0490E020918D04821B9109089588
:10411000CF92DF92EF92FF920F931F93CF93DF9393
:104120007C01CB018A0120918A02222389F0EB01D4
:104130006B01C40ED51ECC15DD0569F06991D70160
:10414000ED91FC910190F081E02DC7010995F3CF2D
:10415000642F0E943520C801DF91CF911F910F91EC
:10416000FF90EF90DF90CF900895CF93DF931F9251
:10417000CDB7DEB7698320918A022223D1F0209146
:10418000AD02203240F021E030E0FC013383228395
:1041900080E090E015C080918B02E82FF0E0E457BA
:1041A000FD4F998190838F5F80938B028093AD0246
:1041B00005C061E0CE0101960E94352081E090E0CB
:1041C0000F90DF91CF910895089580E090E00895D9
:1041D000AF92BF92CF92EF92FF920F931F93CF9324
:1041E000DF93EC01262F888D998D009709F040C050
:1041F0006A3059F41D861C862C898E859F8538E08F
:10420000239F800D911D112441C06D3009F4AAC077
:104210008E898823C1F03C898C859D8546E0349F3A
:10422000800D911D112448855985481759075CF464
:104230001D861C868E859F8548E0349F800D911DCC
:1042400011249F878E87EA88FB88088919894E8503
:104250005F856C857D85CC88CE010E944F2E2C8990
:104260008C859D8536E0239F800D911D112442C0D1
:104270006A3079F41D861C862C89FC013696E491FF
:104280008E859F852E9F800D911D11249F878E877F
:1042900069C06D3009F466C0FC013496349163172F
:1042A00008F460C03196E491E61708F45BC0FC01A5
:1042B000329665917491422F50E0431B510937E0CB
:1042C000349F5001359FB00C1124A60EB71EF50186
:1042D000329634913196E491332311F0E1110DC0FF
:1042E000F5013496E4912C898C859D85E29F800DA3
:1042F000911D11249D878C8735C0F5013596449119
:104300005E89552311F16C89E32FF0E0E40FF11D74
:1043100047FDFA956E9FD0016F9FB00D11244C851B
:104320005D854A0F5B1FE885F985E417F5076CF496
:104330001D861C86FC013696E4918E859F856E9FB6
:10434000800D911D11249F878E87EA88FB8808893C
:1043500019894E855F856C857D85CC88CE010E944C
:104360004F2EBECF81E090E0DF91CF911F910F9152
:10437000FF90EF90CF90BF90AF90089581E0809331
:10438000E8010C944D168FEB93E090931F028093FD
:104390001E02AFE1B4E012968D919C911397E0E577
:1043A000F4E02D913C91318B208B938B828B80910B
:1043B000E70190E0019724E0880F991F2A95E1F723
:1043C0002BE230E0A901481B590B5587448782E74F
:1043D00090E0978786878FE60C94B6258EBD000007
:1043E0000DB407FEFDCF8EB508951F93CF93DF93D5
:1043F000EC01162F0E943F2D0E94352D812F0E9427
:10440000EE21CE01DF91CF911F910C944B2D1F9384
:10441000CF93DF93EC01162F0E943F2D8CB58F7B3D
:104420008CBD2B982D9A2D988CB580648CBD812FD6
:104430000E94EE21CE01DF91CF911F910C944B2D64
:10444000EF92FF920F931F93CF93DF93EC01E62E31
:10445000142FF22E6AE20E94072260E0CE010E9431
:10446000F5216DA16E0DCE010E94F52160E0CE0117
:104470000E94F5216DA16F0DCE010E94F5216BE226
:10448000CE010E94072260E0CE010E94F5216EA1BC
:10449000610FCE010E94F52160E0CE010E94F5215E
:1044A0006EA1600FCE010E94F5216CE2CE01DF917A
:1044B000CF911F910F91FF90EF900C9407222F92B4
:1044C0003F924F925F926F927F928F929F92AF92A4
:1044D000BF92CF92DF92EF92FF920F931F93CF93F1
:1044E000DF93CDB7DEB72D970FB6F894DEBF0FBEC2
:1044F000CDBF2C0139011801EB82FC82DD82DC0189
:1045000018968D919C911997681779070CF09CC0AB
:104510001A96ED91FC911B974E175F070CF094C013
:104520009B01260D371D821793071CF43C01661A68
:10453000770ACA01820D931DE817F9071CF41F01C1
:10454000241A350A29826A820FEF040F020D2FEF19
:10455000260F260DC2010E942022C2010E943F2D7B
:10456000F101E819F909FF83EE832227332728197F
:10457000390939872887C3018A199B099B878A874C
:10458000AA27BB27AA19BB09BD87AC87E980E21817
:1045900012141304F4F58301F12C8A81801B101688
:1045A00011069CF590E0B7FE06C0EC85FD858E17E0
:1045B0009F0734F414C02A853B85821793077CF447
:1045C000DD24D39497FE06C088859985E816F90600
:1045D0003CF405C0AE81BF81EA16FB060CF0D12C7D
:1045E0000E94352DD11002C08D8101C08C810E94A6
:1045F000EE210E94352DD11002C08C2D01C08B817F
:104600000E94EE2101501109C8CFB1E02B1A3108E8
:10461000BDCFC2012D960FB6F894DEBF0FBECDBF41
:10462000DF91CF911F910F91FF90EF90DF90CF908E
:10463000BF90AF909F908F907F906F905F904F90C2
:104640003F902F900C944B2D2D960FB6F894DEBF13
:104650000FBECDBFDF91CF911F910F91FF90EF90D3
:10466000DF90CF90BF90AF909F908F907F906F9092
:104670005F904F903F902F900895AF92BF92CF924E
:10468000DF92EF92FF920F931F93CF93DF936C0112
:104690005901E801FC0120853185621773070CF090
:1046A00047C082859385481759070CF041C0FB012C
:1046B000EA0DFB1D2E173F071CF45901A61AB70A75
:1046C0009A012C0F3D1F821793071CF4EC01C41BA9
:1046D000D50B0FEF040F0C0F2FEF260F2A0DC6017D
:1046E0000E942022C6010E943F2D1C161D069CF42C
:1046F0008501101611066CF40E94352D8F2D0E9435
:10470000EE210E94352D8E2D0E94EE2101501109BF
:10471000F0CF2197EACFC601DF91CF911F910F9182
:10472000FF90EF90DF90CF90BF90AF900C944B2D07
:10473000DF91CF911F910F91FF90EF90DF90CF907D
:10474000BF90AF900895DF92EF92FF920F931F9367
:10475000CF93DF937C01E901D02EFC018085918508
:104760006817790784F522853385421753075CF56E
:104770009B012C0F3D1F821793071CF4EC01C61BF5
:10478000D70B2FEF260F2C0F042FC7010E942022DA
:10479000C7010E943F2D209761F00E94352D812F87
:1047A0000E94EE210E94352D8D2D0E94EE21219731
:1047B000F2CFC701DF91CF911F910F91FF90EF9042
:1047C000DF900C944B2DDF91CF911F910F91FF90B3
:1047D000EF90DF900895DF92EF92FF920F931F9377
:1047E000CF93DF937C01E901D02EFC018085918578
:1047F0006817790784F582859385481759075CF512
:104800009A012C0F3D1F821793071CF4EC01C41B67
:10481000D50B0FEF040F0C0F262FC7010E9420228B
:10482000C7010E943F2D209761F00E94352D812FF6
:104830000E94EE210E94352D8D2D0E94EE212197A0
:10484000F2CFC701DF91CF911F910F91FF90EF90B1
:10485000DF900C944B2DDF91CF911F910F91FF9022
:10486000EF90DF900895FF920F931F93CF93DF9304
:10487000EC0177FD2AC088859985681779072CF5A2
:1048800057FD23C08A859B8548175907F4F4F32EFA
:10489000122F01E0040F21E0260FCE010E942022FA
:1048A000CE010E943F2D0E94352D8F2D0E94EE21BA
:1048B0000E94352D812F0E94EE21CE01DF91CF91F4
:1048C0001F910F91FF900C944B2DDF91CF911F9171
:1048D0000F91FF9008951F920F920FB60F9211241F
:1048E0002F933F934F935F936F937F938F939F93F8
:1048F000AF93BF93EF93FF938091B900887F803689
:1049000009F49CC068F5883209F45BC090F48031EA
:1049100009F454C038F4882309F4F2C0883009F44B
:104920004DC0F2C0883109F44CC0803209F45DC03A
:10493000EBC0803409F468C048F4803309F455C0F2
:10494000883309F0E1C080938702D4C0803509F430
:104950004FC0883509F45DC0883409F0D5C0D2C095
:10496000883909F4C3C0A8F4883709F467C038F45B
:10497000883609F463C0803709F460C0C5C0883840
:1049800009F4B4C0803909F45FC0803809F0BCC0B4
:104990005BC0803B09F484C038F4803A09F466C0F7
:1049A000883A09F47DC0B0C0803C09F4A3C0883CBB
:1049B00009F4A0C0883B09F486C0A6C080916402B7
:1049C00010C09091860280918502981770F5E09151
:1049D000860281E08E0F80938602F0E0EB59FD4F56
:1049E00080818093BB0085EC82C0809387028AC05F
:1049F000E091860281E08E0F809386028091BB0059
:104A0000F0E0EB59FD4F8083909186028091850202
:104A10006AC0E091860281E08E0F809386028091C9
:104A2000BB00F0E0EB59FD4F80838091880281113B
:104A300069C081E08093630284EA5DC083E0809373
:104A4000890210926202CFCF80916202803208F018
:104A50004DC0E091620281E08E0F809362028091EE
:104A6000BB00F0E0EE5BFD4F8083BDCF85EC809313
:104A7000BC001092890280916202803230F4E09191
:104A80006202F0E0EE5BFD4F10826091620270E026
:104A900082E492E0E0E0F0E009951092620234C016
:104AA00084E0809389021092410210924002E0E07B
:104AB000F0E0099580914002811105C081E080936A
:104AC000400210922002E091410281E08E0F80931B
:104AD0004102F0E0E05EFD4F80818093BB00909149
:104AE000410280914002981708F47DCF85E88093B9
:104AF000BC000AC085EC8093BC001092890204C0FF
:104B0000109287020E942B20FF91EF91BF91AF91ED
:104B10009F918F917F916F915F914F913F912F91D5
:104B20000F900FBE0F901F9018958091B0048A309F
:104B300018F480E30E94B6256091B00470E080E034
:104B400090E04AE00E94BB258AE30E94B62580914E
:104B5000AF048A3018F480E30E94B6256091AF0458
:104B600070E080E090E04AE00C94BB25682F80E57F
:104B700094E00C94E8208F929F92AF92BF920F9393
:104B80001F93CF93DF93CDB7DEB7A1970FB6F894FD
:104B9000DEBF0FBECDBF19A2423008F44AE08E013D
:104BA0000F5D1F4F842E912CA12CB12CA5019401D7
:104BB0000E94C539E62FB901CA0101501109EA3036
:104BC00014F4E05D01C0E95CD801EC93232B242BA5
:104BD000252B61F7B80180E594E00E948D30A19605
:104BE0000FB6F894DEBF0FBECDBFDF91CF911F91FE
:104BF0000F91BF90AF909F908F900895BC0180E57A
:104C000094E00C948D30BF92CF92DF92EF92FF929E
:104C10000F931F93CF93DF93EC01798768878CE024
:104C200090E09B878A87EA81FB81808D918D892B1B
:104C300029F086859785069797878687118E108E2F
:104C400081E0848BB12C8D81B81608F078C04C813E
:104C50008A819B810E851F85AC89BD892C853D8508
:104C600068897989CB2CD12CEA85FB85ED90FC9065
:104C7000600F711FB41219C06C9DA0016D9D500D85
:104C80007C9D500D11244E0F5F1F68857985DC01D6
:104C9000ED91FC9100A0F1A1E02D0995EC89FD8931
:104CA00080819181EE89FF8918C06C9DA0016D9D66
:104CB000500D7C9D500D11244E0F5F1F6885798526
:104CC000DC01ED91FC9106A0F7A1E02D0995EE899C
:104CD000FF8980819181EC89FD8920813181EA8180
:104CE000FB81318B208B938B828B2E853F8588892E
:104CF0009989820F931F8C9DA0018D9D500D9C9DC5
:104D0000500D11242A853B852E5F3F4F240F351F00
:104D10008A819B81488559854E5F5F4FFC0155878D
:104D2000448737872687CC0CDD1CEA89FB89EC0D8C
:104D3000FD1D659174910E946930B39484CFDF9119
:104D4000CF911F910F91FF90EF90DF90CF90BF9088
:104D50000895CF92DF92EF92FF92CF93DF936C0191
:104D6000990FEE08FF08F7FE17C08DE20E94B625E6
:104D7000EC0166277727CB016C197D098E099F0905
:104D80004AE00E94BB258C0F9D1FDF91CF91FF90C1
:104D9000EF90DF90CF9008954AE0C701B601DF9110
:104DA000CF91FF90EF90DF90CF900C94BB252F9286
:104DB0003F924F925F926F927F928F929F92AF92AB
:104DC000BF92CF92DF92EF92FF920F931F93CF93F8
:104DD000DF93CDB7DEB72A970FB6F894DEBF0FBECC
:104DE000CDBF6A012B833C830D831E83A701F6018F
:104DF000319624912983F601F491FF839701F7FE00
:104E000004C0222733272E193F09209557FF04C0DD
:104E1000F42EF19410E002C0142FF12CE42E8F0D2B
:104E20000FEF060F3981030F9F81290F280F462F9F
:104E3000682F80E594E00E942022F60132962491AA
:104E40002A8380E594E00E943F2D3981832F032E31
:104E5000000C990BEF816E2E0E2E000C77083E028F
:104E6000400111241A861986312C1982212C2F2DEC
:104E7000FF0C330B38872F832C01411A510817FD83
:104E800053946E187108E7FC73948C01015011095A
:104E900089859A858816990609F451C0A22CB12CEF
:104EA000EF81F885AE16BF064CF14A145B0434F16D
:104EB000F9818F2F90E06816790604F12A81E22E9D
:104EC000F12C80E890E0032C02C0959587950A9418
:104ED000E2F7E822F9220E94352DE114F10411F4E1
:104EE0008E8101C08C810E94EE210E94352DEF2819
:104EF00011F48D8101C08B810E94EE2189859A85F4
:104F000001969A87898796E0931510F033940DC027
:104F1000E985FA8583E0F695E7958A95E1F732967B
:104F2000EC0DFD1D24912A83312CA016B10614F43A
:104F30002394AECF39813F5F3983212CA9CF80E5FF
:104F400094E02A960FB6F894DEBF0FBECDBFDF9176
:104F5000CF911F910F91FF90EF90DF90CF90BF9076
:104F6000AF909F908F907F906F905F904F903F9009
:104F70002F900C944B2DEF92FF920F931F93CF9392
:104F8000DF93EC01688B88E0898B8A819B81EC89B7
:104F9000FD89E080F1800B8910E02A8930E070E023
:104FA000DC01ED91FC9106A0F7A1E02D48E050E076
:104FB0000995CE01DF91CF911F910F91FF90EF9056
:104FC0000C94312A90E0FC01ED57F04E2491FC0145
:104FD000E159F04E8491882399F090E0880F991F51
:104FE000FC01EB59F04EA591B491FC01E55AF04E4D
:104FF000859194918FB7F894EC91E22BEC938FBF4D
:105000000895CF93DF93EC0185E00E94E22720977B
:1050100011F460E004C0CF3FD10531F461E085E0D8
:10502000DF91CF910C940E2CECE4FFE1E491E3309E
:10503000F9F048F4E130B9F0E230A1F584B58062CE
:1050400084BDC8BD34C0E730E9F0E83019F1E43080
:1050500049F580918000806280938000D0938B001E
:10506000C0938A0024C084B5806884BDC7BD1FC0BA
:1050700080918000806880938000D0938900C093E5
:10508000880015C08091B00080688093B000C09304
:10509000B3000DC08091B00080628093B000C093D7
:1050A000B40005C0C038D1050CF0B8CFB2CFDF9145
:1050B000CF910895282F3091AD02313208F04AC0C7
:1050C000809189028111FCCF9091AC0242E0409323
:1050D0008902209388022FEF209387021092860284
:1050E00030938502ECE8F2E0A5E6B2E020E032176A
:1050F00021F041914D932F5FFACF109264022091DD
:105100006402990F922B9093640290916302913004
:1051100061F410926302909164029093BB009091AD
:10512000BC0093FDF8CF95EC01C095EE9093BC00C8
:10513000909189029230E1F3909187029F3F79F03C
:1051400080918702803241F080918702803331F074
:1051500084E005C081E003C082E001C083E01092DA
:105160008B021092AD0210928A020895FC01538DB9
:10517000448D252F30E0842F90E0821B930B541731
:1051800010F0CF96089501970895FC01918D828DBE
:10519000981761F0828DDF01A80FB11D5D968C918B
:1051A000928D9F5F9F73928F90E008958FEF9FEF96
:1051B0000895FC01918D828D981731F0828DE80F52
:1051C000F11D858D90E008958FEF9FEF0895FC010C
:1051D000918D228D892F90E0805C9F4F821B9109D9
:1051E0008F73992708958EEA92E00E94E72821E0C4
:1051F000892B09F420E0822F0895FC01848DDF01C2
:10520000A80FB11DA35ABF4F2C91848D90E0019639
:105210008F739927848FA689B7892C93A089B18928
:105220008C9180648C93938D848D981306C0028832
:10523000F389E02D80818F7D80830895EF92FF9226
:105240000F931F93CF93DF93EC0181E0888F9B8DA9
:105250008C8D981305C0E889F989808185FD24C06B
:10526000F62E0B8D10E00F5F1F4F0F731127E02EEE
:105270008C8DE8120CC00FB607FCFACFE889F989CB
:10528000808185FFF5CFCE010E94FD28F1CF8B8D67
:10529000FE01E80FF11DE35AFF4FF0820B8FEA8900
:1052A000FB898081806207C0EE89FF896083E8897D
:1052B000F98980818064808381E090E0DF91CF91E3
:1052C0001F910F91FF90EF900895CF93DF93EC0122
:1052D000888D8823C9F0EA89FB89808185FD05C016
:1052E000A889B9898C9186FD0FC00FB607FCF5CF50
:1052F000808185FFF2CFA889B9898C9185FFEDCF98
:10530000CE010E94FD28E7CFDF91CF91089580E084
:1053100090E0892B29F00E94F32881110C94000061
:1053200008959FB7F8944091880450918904609142
:105330008A0470918B0486B5A89B06C08F3F21F02C
:105340004F5F5F4F6F4F7F4F9FBF762F652F542F5B
:1053500044279A01AB01280F311D411D511DA3E0C7
:10536000B0E00E94BA39089508950F931F93CF9328
:10537000DF93FC01DA012D913C91828593858217A0
:10538000930758F5613061F0633039F52085318538
:10539000868197812817390764F4C901019609C0ED
:1053A00020853185848195818217930714F4C90182
:1053B0000197918780878A01EF010190F081E02DAC
:1053C0000480F581E02DCE010995EE85FF85888565
:1053D00099850995F80111821082DF91CF911F9173
:1053E0000F910895623051F4DC011C96ED91FC910F
:1053F0001D9718968D919C91199709940895DC0139
:10540000623029F0633051F0613029F50EC01696F4
:10541000ED91FC91179714968C91099414966C91C8
:1054200014976623C1F061500EC014966C911497C6
:10543000262F30E015968C91159790E0019728174C
:1054400039074CF46F5FED91FC9111970480F58161
:10545000E02DCD0109940895FC01648308950E9414
:105460000A3C4F925F926F927F928F929F92AF927F
:10547000BF92CF92DF92EF92FF920F931F93CF9341
:10548000DF93EC010B8910E0025011094801012E55
:10549000000CAA08BB08CC80DD800D2C000CEE08A7
:1054A000FF0888859985092E000CAA0BBB0BA70164
:1054B0009601281B390B4A0B5B0BC501B4010E94F6
:1054C000C03B2E813F812901330F66087708A30175
:1054D00092012C193D094E095F090E949B39820EE9
:1054E000931EA41EB51E912C919481949108EE896F
:1054F000FF89C080D180EC89FD89E080F1802A8914
:1055000030E022503109498950E04F5F5F4F688990
:1055100070E06F5F7F4FA12CB12C8A819B810E942C
:105520005F22DF91CF911F910F91FF90EF90DF905D
:10553000CF90BF90AF909F908F907F906F905F9033
:105540004F900895DF92EF92FF920F931F93CF93A6
:10555000DF93EC01D62E8A819B816E857F85EE8953
:10556000FF89E080F1808B01025011092C853D8577
:105570002250310948895989640F751F4C81469F13
:10558000F001479FF00D11244A855B854F5F5F4F07
:105590004E0F5F1F688579856F5F7F4FDC01ED914E
:1055A000FC9100A0F1A1E02D0995EE89FF89808191
:1055B0009181EC89FD8920813181AA81BB8151963D
:1055C0003C932E93509753969C938E9352972E858F
:1055D0003F8588899989280F391F8C81829FA00176
:1055E000839F500D11248A859B850296840F951FF9
:1055F000288539852E5F3F4F1D963C932E931C972F
:105600001F969C938E931E978C812A899B89E22FEB
:10561000F92FE80FF11DE80FF11D65917491CD018F
:105620000E946930DC828A819B810E851F85EC890E
:10563000FD89E080F1802C853D8568897989600F3E
:10564000711FD69EF001D79EF00D11244A855B850F
:105650004E0F5F1F68857985DC01ED91FC9100A0FC
:10566000F1A1E02D0995EC89FD8980819181EE8978
:10567000FF8920813181AA81BB8151963C932E9371
:10568000509753969C938E9352972E853F85888989
:105690009989280F391F8C81829FA001839F500D0B
:1056A00011248A859B850296840F951F288539854C
:1056B0002E5F3F4F1D963C932E931C971F969C93F5
:1056C0008E931E978C812A899B89E22FF92FE80FF0
:1056D000F11DE80FF11D65917491CD01DF91CF911E
:1056E0001F910F91FF90EF90DF900C946930611142
:1056F00002C060E201C061E20C9407221F93CF93C5
:10570000DF93EC01162F66E30E9407221D8B1130F8
:10571000B1F068F01230D9F0133021F568E6CE010F
:105720000E94F5218BA18EA38CA182501AC068EC37
:10573000CE010E94F5218BA18DA38CA110C068EA37
:10574000CE010E94F5218BA18EA38CA10AC06CE032
:10575000CE010E94F5218BA18DA38CA182508EA336
:1057600001C08DA3DF91CF911F9108951F920F92D9
:105770000FB60F9211242F933F934F935F936F9324
:105780007F938F939F93AF93BF93EF93FF938EEA93
:1057900092E00E94FD28FF91EF91BF91AF919F9100
:1057A0008F917F916F915F914F913F912F910F90CA
:1057B0000FBE0F901F9018951F920F920FB60F9269
:1057C00011242F938F939F93EF93FF93E091BE0249
:1057D000F091BF028081E091C402F091C50282FD88
:1057E00012C090818091C7028F5F8F732091C80291
:1057F000821751F0E091C702F0E0E255FD4F958F1E
:105800008093C70201C08081FF91EF919F918F919A
:105810002F910F900FBE0F901F90189590E0FC01F4
:10582000E95BF04E2491FC01ED57F04E3491FC0100
:10583000E159F04EE491EE2309F43CC0222339F102
:10584000233091F038F42130A9F0223001F584B5ED
:105850008F7D12C0273091F02830A1F02430B9F4A8
:10586000809180008F7D03C0809180008F7780932E
:1058700080000DC084B58F7784BD09C08091B000D1
:105880008F7703C08091B0008F7D8093B000F0E0EF
:10589000EE0FFF1FE55AF04EA591B4919FB7F89413
:1058A000611104C08C913095382302C0EC913E2BDD
:1058B0003C939FBF08958F929F92AF92BF92CF92D9
:1058C000DF92EF92FF926B017C010E9491294B01C4
:1058D0005C01C114D104E104F104F1F00E949129AA
:1058E000DC01CB0188199909AA09BB09883E9340BC
:1058F000A105B10570F321E0C21AD108E108F10851
:1059000088EE880E83E0981EA11CB11CC114D1043E
:10591000E104F10419F7DDCFFF90EF90DF90CF9015
:10592000BF90AF909F908F9008952FB7F89460919B
:1059300084047091850480918604909187042FBF20
:1059400008951F920F920FB60F9211242F933F9339
:105950008F939F93AF93BF9380918404909185041C
:10596000A0918604B09187043091830426E6230F2A
:105970002D3728F029EE230F0196A11DB11D20938C
:1059800083048093840490938504A0938604B09349
:1059900087048091880490918904A0918A04B09131
:1059A0008B040196A11DB11D8093880490938904F6
:1059B000A0938A04B0938B04BF91AF919F918F9174
:1059C0003F912F910F900FBE0F901F9018951F922F
:1059D0000F920FB60F9211242F933F934F935F9323
:1059E0006F937F938F939F93AF93BF93EF93FF93A7
:1059F000E0910201F09103010995FF91EF91BF91B0
:105A0000AF919F918F917F916F915F914F913F9156
:105A10002F910F900FBE0F901F9018951F920F920D
:105A20000FB60F9211242F933F934F935F936F9371
:105A30007F938F939F93AF93BF93EF93FF93E091E7
:105A40000001F09101010995FF91EF91BF91AF9194
:105A50009F918F917F916F915F914F913F912F9186
:105A60000F900FBE0F901F9018958CB58F7B8CBD3B
:105A70002B9A2D9A2D988CB580648CBD0895DC01ED
:105A80009B96ED91FC919C979081D1968C918095FD
:105A9000892380830895DC019B96ED91FC919C976E
:105AA0009081D1968C91892B80830895CF92DF923B
:105AB000EF92FF920F931F93CF93DF936C017A01C4
:105AC0008B01C0E0D0E0CE15DF0581F0D8016D91EB
:105AD0008D01D601ED91FC910190F081E02DC60180
