:100000000C946D130C9419270C94F2260C949513F0
:100010000C94FA1A0C94F01A0C9495130C949513F2
:100020000C9495130C9495130C9495130C949513B0
:100030000C9495130C9495130C9495130C949513A0
:100040000C94AC260C9495130C9495130C94951366
:100050000C9495130C9495130C9495130C94951380
:100060000C9440270C94951347175F17A9170A188B
:1000700018184F189D18101A221A121A151A191A40
:100080001C1A1F1A07634236B79BD8A71A3968563D
:1000900018AEBAAB558C1D3CB7CC5763BD6DEDFDAA
:1000A000753EF6177231BF000000803F0800000067
:1000B000BE922449123EABAAAA2ABECDCCCC4C3E5D
:1000C00000000080BEABAAAAAA3E00000000BF004C
:1000D0000000803F0000000000084178D3BB438748
:1000E000D1133D190E3CC3BD4282AD2B3E68EC825C
:1000F00076BED98FE1A93E4C80EFFFBE01C4FF7FE1
:100100003F0000000000150180961180FAB1030144
:100110002C2DB203012C2DB306012C2D012C2DB456
:100120000107C003A20284C101C5C2020A00C302C2
:100130008A2AC4028AEEC5010E20003601C83A019F
:10014000052A040000007F2B040000007FE010025D
:100150001C07123732292D29252B3900010310E104
:1001600010031D07062E2C292D2E2E373F000002CE
:100170001013800A2980640B0B0408888207019100
:10018000BAC7C0702088881000303007FFFFFFFF1B
:10019000F00FFFFFFFFFF81FFFFFFFFFFC3FFFFF18
:1001A000FFFFFE3FFFFFFFFFFE7FFFFFFFFFFF7F21
:1001B00000000003FF7F00000007FF7F0000000F2A
:1001C000FF7F0000001FFF7F0000003FFF7F000057
:1001D00000FFFF7F000001FFFF7F000003FFFF7FA4
:1001E000000007FF7F7F00000FFE7F7F00001FFCE5
:1001F0007F7F00007FF07F7F0000FFE07F7F0001B6
:10020000FFC07F7F0003FF807F7F0007FF007F7FAD
:10021000000FFE007F7F003FFC007F7F007FF0002B
:100220007F7F00FFE0007F7F01FFC0007F7F03FF33
:1002300080007F7F07FF00007F7F1FFE00007F7F21
:100240003FF800007F7F7FF000007F7FFFE000002D
:100250007F7FFFC000007F7FFF8000007F7FFF0067
:1002600000007F7FFC0000007F7FF80000007F7FA0
:10027000F00000007F7FE00000007F7FFFFFFFFFB6
:10028000FF3FFFFFFFFFFE3FFFFFFFFFFE1FFFFFE0
:10029000FFFFFC0FFFFFFFFFF807FFFFFFFFF0016D
:1002A000FFFFFFFFC0000000000000303000000032
:1002B0007FC000000000FFC000000000FFC0000081
:1002C0000001FFC000000003FFC000000007FFC0E6
:1002D0000000000FFFC00000001FFFC00000001F53
:1002E000FFC00000003FFFC00000007FDFC0000033
:1002F00000FF9FC0000001FF9FC0000003FF1FC060
:10030000000003FE1FC0000007FC1FC0000000002B
:100310001FC0000000001FC0000000001FC0000040
:1003200000001FC0000000001FC0000000001FC030
:10033000000000001FC0000000001FC000000000FF
:100340001FC0000000001FC0000000001FC0000010
:1003500000001FC0000000001FC0000000001FC000
:10036000000000001FC0000000001FC000000000CF
:100370001FC0000000001FC0000000001FC00000E0
:1003800000001FC0000000001FC0000000001FC0D0
:10039000000000001FC0000000001FC0000000009F
:1003A0001FC0000000001FC0000000001FC00000B0
:1003B00000001FC0000000001FC0000000001FC0A0
:1003C000000000001FC0000000001FC0003030010E
:1003D000FFFFFFFFC007FFFFFFFFF01FFFFFFFFF53
:1003E000F81FFFFFFFFFFC3FFFFFFFFFFE3FFFFF88
:1003F000FFFFFE7FFFFFFFFFFF7F000000007F7F0A
:10040000000000007F7F000000007F7F00000000F0
:100410007F00000000007F00000000007F0000005F
:1004200000007F00000000007F00000000007F004F
:10043000000000007F00000000007F0000000000BE
:100440007F00000000007F00000000007F01FFFF30
:10045000FFFFFF07FFFFFFFFFE0FFFFFFFFFFE1F76
:10046000FFFFFFFFFC3FFFFFFFFFF83FFFFFFFFF26
:10047000F07FFFFFFFFFC07F00000000007F000053
:100480000000007F00000000007F00000000007FEF
:1004900000000000007F00000000007F000000005E
:1004A000007F00000000007F00000000007F0000CF
:1004B0000000007F00000000007F00000000007FBF
:1004C00000000000007FFFFFFFFFFF7FFFFFFFFF37
:1004D000FF7FFFFFFFFFFF7FFFFFFFFFFF7FFFFFAC
:1004E000FFFFFF7FFFFFFFFFFF7FFFFFFFFFFF30EB
:1004F0003001FFFFFFFF0007FFFFFFFFC01FFFFFEF
:10050000FFFFE01FFFFFFFFFF03FFFFFFFFFF83F90
:10051000FFFFFFFFF87FFFFFFFFFFC7F00000001F0
:10052000FC7F00000001FC7F00000001FC7F000058
:100530000001FC0000000001FC0000000001FC00C4
:1005400000000001FC0000000001FC0000000001B0
:10055000FC0000000001FC0000000001FC000000A5
:100560000001FC0000000001FC007FFFFFFFFC0019
:100570007FFFFFFFF8007FFFFFFFF8007FFFFFFF17
:10058000FC007FFFFFFFFE007FFFFFFFFE007FFFFD
:10059000FFFFFF00000000007F00000000007F0060
:1005A000000000007F00000000007F00000000004D
:1005B0007F00000000007F00000000007F000000BE
:1005C00000007F00000000007F00000000007F7F2F
:1005D000000000007F7F000000007F7F000000001F
:1005E0007F7F800000007F7FFFFFFFFFFF3FFFFF57
:1005F000FFFFFE3FFFFFFFFFFE1FFFFFFFFFFC0FA0
:10060000FFFFFFFFF807FFFFFFFFF001FFFFFFFF06
:10061000C03030000000007F8000000000FF80003C
:10062000000001FF8000000003FF8000000007FFC2
:10063000800000000FFF800000001FFF800000000E
:100640003FFF800000007FFF80000000FFFF800070
:100650000001FFFF80000007FFFF8000000FFFBFC9
:100660008000001FFE3F8000003FFC3F8000007FB5
:10067000F83F800000FFF03F800001FFE03F800076
:1006800003FF803F800007FF003F80000FFE003F18
:1006900080001FFC003F80007FF8003F8000FFF0DB
:1006A000003F8001FFC0003F8003FF80003F8007C4
:1006B000FF00003F800FFE00003F801FFC00003F56
:1006C000801FFFFFFFFFFF1FFFFFFFFFFF1FFFFF59
:1006D000FFFFFF1FFFFFFFFFFF1FFFFFFFFFFF1FCA
:1006E000FFFFFFFFFF1FFFFFFFFFFF000000003FB6
:1006F00080000000003F80000000003F80000000FC
:10070000003F80000000003F80000000003F8000AC
:100710000000003F80000000003F80000000003F1C
:1007200080000000003F80000000003F80000000CB
:10073000003F8030307FFFFFFFFFFF7FFFFFFFFFA5
:10074000FF7FFFFFFFFFFF7FFFFFFFFFFF7FFFFF39
:10075000FFFFFF7FFFFFFFFFFF7FFFFFFFFFFF7F29
:1007600000000000007F00000000007F000000008B
:10077000007F00000000007F00000000007F0000FC
:100780000000007F00000000007F00000000007FEC
:1007900000000000007F00000000007F000000005B
:1007A000007F00000000007F00000000007FFFFFCE
:1007B000FFFFC07FFFFFFFFFF07FFFFFFFFFF87F1E
:1007C000FFFFFFFFFC7FFFFFFFFFFE7FFFFFFFFF3D
:1007D000FE7FFFFFFFFFFF00000000007F00000022
:1007E00000007F00000000007F00000000007F008C
:1007F000000000007F00000000007F0000000000FB
:100800007F00000000007F00000000007F0000006B
:1008100000007F7F000000007F7F000000007F7FDE
:10082000000000007F7F000000007F7FFFFFFFFFD0
:10083000FF3FFFFFFFFFFE3FFFFFFFFFFE1FFFFF2A
:10084000FFFFFC1FFFFFFFFFF807FFFFFFFFF001A7
:10085000FFFFFFFFC0303001FFFFFFFF0007FFFF7A
:10086000FFFF000FFFFFFFFF001FFFFFFFFF003F25
:10087000FFFFFFFF003FFFFFFFFF007FFFFFFFFFC6
:10088000007F00000000007F00000000007F0000EB
:100890000000007F00000000007F00000000007FDB
:1008A00000000000007F00000000007F000000004A
:1008B000007F00000000007F00000000007F0000BB
:1008C0000000007F00000000007F00000000007FAB
:1008D000FFFFFFFFC07FFFFFFFFFF07FFFFFFFFF76
:1008E000F87FFFFFFFFFFC7FFFFFFFFFFE7FFFFFA3
:1008F000FFFFFE7FFFFFFFFFFF7F000000007F7F05
:10090000000000007F7F000000007F7F00000000EB
:100910007F7F000000007F7F000000007F7F0000DD
:1009200000007F7F000000007F7F000000007F7FCD
:10093000000000007F7F000000007F7F00000000BB
:100940007F7F000000007F7F000000007F7FFFFFAF
:10095000FFFFFF3FFFFFFFFFFE3FFFFFFFFFFE1F09
:10096000FFFFFFFFFC0FFFFFFFFFF807FFFFFFFF89
:10097000F001FFFFFFFFC03030007FFFFFFFC0002E
:100980007FFFFFFFF0007FFFFFFFF8007FFFFFFF0B
:10099000FC007FFFFFFFFE007FFFFFFFFE007FFFE9
:1009A000FFFFFF00000000007F00000000007F004C
:1009B000000000007F00000000007F000000000039
:1009C0007F00000000007F00000000007F000000AA
:1009D00000007F00000000007F00000000007F009A
:1009E000000000007F00000000007F000000000009
:1009F0007F00000000007F00000000007F0000007A
:100A000000007F00000000007F00000000007F0069
:100A1000000000007F00000000007F0000000000D8
:100A20007F00000000007F00000000007F00000049
:100A300000007F00000000007F00000000007F0039
:100A4000000000007F00000000007F0000000000A8
:100A50007F00000000007F00000000007F00000019
:100A600000007F00000000007F00000000007F0009
:100A7000000000007F00000000007F000000000078
:100A80007F00000000007F00000000007F000000E9
:100A900000007F00000000007F303001FFFFFFFFFB
:100AA000C007FFFFFFFFF00FFFFFFFFFF81FFFFF73
:100AB000FFFFFC3FFFFFFFFFFE3FFFFFFFFFFE7F4B
:100AC000FFFFFFFFFF7F000000007F7F00000000AE
:100AD0007F7F000000007F7F000000007F7F00001C
:100AE00000007F7F000000007F7F000000007F7F0C
:100AF000000000007F7F000000007F7F00000000FA
:100B00007F7F000000007F7F000000007F7F0000EB
:100B100000007F7F000000007F3FFFFFFFFFFE3FE0
:100B2000FFFFFFFFFE3FFFFFFFFFFE3FFFFFFFFF57
:100B3000FE3FFFFFFFFFFE7FFFFFFFFFFF7F000085
:100B400000007F7F000000007F7F000000007F7FAB
:100B5000000000007F7F000000007F7F0000000099
:100B60007F7F000000007F7F000000007F7F00008B
:100B700000007F7F000000007F7F000000007F7F7B
:100B8000000000007F7F000000007F7F0000000069
:100B90007F7FFFFFFFFFFF3FFFFFFFFFFE3FFFFFE6
:100BA000FFFFFE1FFFFFFFFFFC0FFFFFFFFFF80728
:100BB000FFFFFFFFF001FFFFFFFFC0303003FFFF2B
:100BC000FFFFC00FFFFFFFFFF01FFFFFFFFFF83F1A
:100BD000FFFFFFFFFC7FFFFFFFFFFE7FFFFFFFFF29
:100BE000FEFFFFFFFFFFFFFE000000007FFE000092
:100BF00000007FFE000000007FFE000000007FFE7E
:100C0000000000007FFE000000007FFE00000000EA
:100C10007FFE000000007FFE000000007FFE00005D
:100C200000007FFE000000007FFE000000007FFE4D
:100C3000000000007FFE000000007FFFFFFFFFFFBD
:100C4000FF7FFFFFFFFFFF7FFFFFFFFFFF3FFFFF74
:100C5000FFFFFF1FFFFFFFFFFF0FFFFFFFFFFF0370
:100C6000FFFFFFFFFF00000000007F00000000000A
:100C70007F00000000007F00000000007F000000F7
:100C800000007F00000000007F00000000007F00E7
:100C9000000000007F00000000007F000000000056
:100CA0007F00000000007F00000000007F000000C7
:100CB00000007FFFFFFFFFFFFFFFFFFFFFFFFE7F43
:100CC000FFFFFFFFFE3FFFFFFFFFFC3FFFFFFFFFB8
:100CD000F80FFFFFFFFFF003FFFFFFFFC030300002
:100CE0000000000000000000000000000000000004
:100CF00000000000000000000000000000000000F4
:100D000000000000000000000000000000000000E3
:100D100000000000000000000000000000000000D3
:100D200000000000000000000000000000000000C3
:100D300000000000000000000000000000000000B3
:100D400000000000000000000000000000000000A3
:100D500000000000000000000000000000001FFF75
:100D6000FFF800001FFFFFF800001FFFFFF8000062
:100D70001FFFFFF800001FFFFFF800001FFFFFF834
:100D800000001FFFFFF8000000000000000000004E
:100D90000000000000000000000000000000000053
:100DA0000000000000000000000000000000000043
:100DB0000000000000000000000000000000000033
:100DC0000000000000000000000000000000000023
:100DD0000000000000000000000000000000000013
:100DE0000000000000000000000000000000000003
:100DF00000000000000000000000000000000026CD
:100E0000260FFFFFFFC07FFFFFFF83FFFFFFFF1FD6
:100E1000FFFFFFFEFFFFFFFFFFFFFFFFFFFFC00021
:100E2000003FFF000001FFFC00000FFFF000007F0B
:100E3000FFC00007FFFF00003FFFFC0001FEFFF0C6
:100E4000000FF3FFC000FF8FFF0007F83FFC003FDB
:100E5000C0FFF001FE03FFC00FF00FFF00FF803F57
:100E6000FC07F800FFF03FC003FFC1FE000FFF0FBB
:100E7000F0003FFCFF8000FFF7F80003FFFFC00019
:100E80000FFFFE00003FFFF00000FFFF800003FFA8
:100E9000F800000FFFC000003FFFFFFFFFFFFFFF54
:100EA000FFFFF7FFFFFFFF8FFFFFFFFC1FFFFFFFAD
:100EB000E03FFFFFFF002626000000000000000FBB
:100EC000C00000007F00000003FC0000001FF000D5
:100ED0000000FFC0000007FF0000003FFC00000111
:100EE000FFF000000FEFC000007F3F000003F8FCA0
:100EF00000001FC3F00000FE0FC00000003F000014
:100F00000000FC00000003F00000000FC000000023
:100F10003F00000000FC00000003F00000000FC0D4
:100F20000000003F00000000FC00000003F0000093
:100F3000000FC00000003F00000000FC00000003A4
:100F4000F00000000FC00000003F00000000FC00A7
:100F5000000003F00000000FC00000003F00000090
:100F600000FC00000003F00000000FC00026260F68
:100F7000FFFFFFC07FFFFFFF83FFFFFFFF1FFFFF9C
:100F8000FFFEFFFFFFFFFFFFFFFFFFFFC000000F9F
:100F9000FF0000003FFC000000FC00000003F00028
:100FA00000000FC00000003F00000000FC00000037
:100FB00003F00000000FC00000003F0FFFFFFFFC28
:100FC0007FFFFFFFF3FFFFFFFF9FFFFFFFFEFFFF1E
:100FD000FFFFF3FFFFFFFF0FC00000003F00000016
:100FE00000FC00000003F00000000FC00000003F04
:100FF00000000000FC00000003F00000000FC00033
:1010000000003F00000000FFFFFFFFFFFFFFFFFFAA
:10101000FFFFFFFFFFFFFFFFFFFFFFFFFFFFFFFFE0
:10102000FFFFFFF026260FFFFFFF807FFFFFFF037C
:10103000FFFFFFFE1FFFFFFFFCFFFFFFFFFBFFFFA8
:10104000FFFFEFC000001FBF0000007EFC0000019A
:10105000F800000007E00000001F800000007E0094
:10106000000001F800000007E00000001F80000001
:10107000007E01FFFFFFF807FFFFFFC01FFFFFFF1C
:10108000807FFFFFFF01FFFFFFFC07FFFFFFF00076
:10109000000007C00000001F000000007C000000EE
:1010A00001F000000007C00000001F000000007CED
:1010B00000000001FFC0000007FF0000001FFFFF4D
:1010C000FFFFFFFFFFFFFFF7FFFFFFFFDFFFFFFF58
:1010D000FE3FFFFFFFF03FFFFFFF802626000000DE
:1010E0007F00000003FC0000001FF0000000FFC0B4
:1010F000000007FF0000003FFC000001FFF00000BF
:101100000FFFC00000FFFF000007FEFC00003FF3E0
:10111000F00001FF8FC0000FF83F00007FC0FC000F
:1011200003FE03F0001FF00FC001FF003F000FF8A7
:1011300000FC007FC003F003FC000FC01FE0003F75
:1011400000FF0000FC07FFFFFFFFDFFFFFFFFF7F47
:10115000FFFFFFFDFFFFFFFFF7FFFFFFFFDFFFFFC9
:10116000FFFF0000003F00000000FC00000003F053
:101170000000000FC00000003F00000000FC000065
:101180000003F00000000FC00000003F000000005E
:10119000FC002626FFFFFFFFFFFFFFFFFFFFFFFF13
:1011A000FFFFFFFFFFFFFFFFFFFFFFFFFFFFFFFF4F
:1011B000FFC00000003F00000000FC00000003F042
:1011C0000000000FC00000003F00000000FC000015
:1011D0000003F00000000FC00000003FFFFFFFF021
:1011E000FFFFFFFFE3FFFFFFFFCFFFFFFFFFBFFF9B
:1011F000FFFFFFFFFFFFFFFC00000003F000000007
:101200000FC00000003F00000000FC00000003F0E1
:101210000000000FC00000003F00000000FFF000D1
:101220000003FFC000000FFF0000003FFFFFFFFFB3
:10123000FFFFFFFFFFF7FFFFFFFF8FFFFFFFFC1F19
:10124000FFFFFFE03FFFFFFF0026260FFFFFFF002D
:101250007FFFFFFC03FFFFFFF01FFFFFFFC0FFFF4B
:10126000FFFF03FFFFFFFC0FC00000003F00000076
:1012700000FC00000003F00000000FC00000003F71
:1012800000000000FC00000003F00000000FC000A0
:1012900000003FFFFFFFF0FFFFFFFFE3FFFFFFFF47
:1012A000CFFFFFFFFFBFFFFFFFFFFFFFFFFFFFF0CD
:1012B000000003FFC000000FFF0000003FFC000023
:1012C00000FFF0000003FFC000000FFF0000003F20
:1012D000FC000000FFF0000003FFC000000FFF0053
:1012E00000003FFFFFFFFFFFFFFFFFFFF7FFFFFFD4
:1012F000FF8FFFFFFFFC1FFFFFFFE03FFFFFFF002F
:10130000262603FFFFFF800FFFFFFF803FFFFFFF49
:1013100000FFFFFFFE03FFFFFFFC0FFFFFFFF000DA
:1013200000000FC00000003F00000000FC000000B3
:1013300003F00000000FC00000003F00000000FCB0
:1013400000000003F00000000FC00000003F00009C
:101350000000FC00000003F00000000FC0000000CF
:101360003F00000000FC00000003F00000000FC080
:101370000000003F00000000FC00000003F000003F
:10138000000FC00000003F00000000FC0000000350
:10139000F00000000FC00000003F00000000FC0053
:1013A000000003F00000000FC00000003F0000003C
:1013B00000FC00000003F026260FFFFFFFC07FFFA8
:1013C000FFFF83FFFFFFFF1FFFFFFFFEFFFFFFFF8A
:1013D000FFFFFFFFFFFFC000000FFF0000003FFC0A
:1013E000000000FFF0000003FFC000000FFF00003E
:1013F000003FFC000000FFF0000003FFC000000FF2
:10140000FF0000003FFFFFFFFFFDFFFFFFFFE7FFC3
:10141000FFFFFF9FFFFFFFFEFFFFFFFFFFF000004A
:1014200003FFC000000FFF0000003FFC000000FFB2
:10143000F0000003FFC000000FFF0000003FFC00B1
:101440000000FFF0000003FFC000000FFF000000DD
:101450003FFFFFFFFFFFFFFFFFFFF7FFFFFFFF8FD4
:10146000FFFFFFFC1FFFFFFFE03FFFFFFF002626FF
:101470000FFFFFFFC07FFFFFFF83FFFFFFFF1FFF87
:10148000FFFFFEFFFFFFFFFFFFFFFFFFFFC00000AA
:101490000FFF0000003FFC000000FFF0000003FF12
:1014A000C000000FFF0000003FFC000000FFF00044
:1014B0000003FFC000000FFF0000003FFFFFFFFF21
:1014C000FFFFFFFFFFF7FFFFFFFFDFFFFFFFFF3F14
:1014D000FFFFFFFC3FFFFFFFF00000000FC0000018
:1014E000003F00000000FC00000003F00000000FBF
:1014F000C00000003F00000000FC00000003F000FE
:1015000000000FC00000003FFFFFFFFFFFFFFFFFD5
:10151000FFF7FFFFFFFF8FFFFFFFFC1FFFFFFFE055
:101520003FFFFFFF00262600000000000000000033
:1015300000000000000000000000000000000000AB
:10154000000000000000000000000000000000009B
:10155000000000000000000000000000000000008B
:10156000000000000000000000000000000000007B
:1015700000000000FFFFFC0003FFFFF0000FFFFF73
:10158000C0003FFFFF0000FFFFFC0003FFFFF00073
:10159000000000000000000000000000000000004B
:1015A000000000000000000000000000000000003B
:1015B000000000000000000000000000000000002B
:1015C000000000000000000000000000000000001B
:1015D0000000000000000000000000001D1D1FFFB3
:1015E000FFC1FFFFFF1FFFFFFDFFFFFFFF00003FE9
:1015F000F80003FFC0003FFE0003FFF0007FFF8004
:1016000007FBFC007F9FE007F8FF007F87F807F0EB
:101610003FC07F01FE0FF00FF0FF007F8FF003FC53
:10162000FF001FEFE000FFFE0007FFE0003FFE00AD
:1016300001FFE0000FFC00007FFFFFFFDFFFFFFC6A
:101640007FFFFFC1FFFFFC001D1D0003E000003F06
:10165000000003F800003FC00003FE00001FF00080
:1016600001F780001FBC0001F9E0001F8F0000009F
:1016700078000003C000001E000000F0000007809A
:1016800000003C000001E000000F000000780000B6
:1016900003C000001E000000F00000078000003CB6
:1016A000000001E000000F00000078000003C0000F
:1016B000001E00001D1D1FFFFFC1FFFFFF1FFFFFDA
:1016C000FDFFFFFFFF000007F800003FC00001E042
:1016D00000000F00000078000003C000001E0000A2
:1016E00000F00000078FFFFFFCFFFFFFCFFFFFFCB4
:1016F000FFFFFFC78000003C000001E000000F007A
:10170000000078000003C000001E000000F0000090
:1017100007FFFFFFFFFFFFFFFFFFFFFFFFFFFF8050
:101720001D1D1FFFFF81FFFFFE1FFFFFF9FFFFFFD2
:10173000EF00000F7800007BC00003C000001E0017
:101740000000F00000078000003C000001E03FFFC7
:10175000FF01FFFFF80FFFFFC07FFFFF00000078D1
:10176000000003C000001E000000F0000007800021
:10177000003C000001FE00000FF000007FFFFFFFB3
:10178000DFFFFFFCFFFFFFC1FFFFFC001D1D00008E
:101790001F000001F800001FC00001FE00001FF044
:1017A0000001FF80001FFC0001FDE0001FCF0001D1
:1017B000FC78001FC3C001FC1E003FC0F003F80707
:1017C000803F803C03F801E03F800F03F800781F62
:1017D000FFFFFCFFFFFFE7FFFFFF3FFFFFF80000F9
:1017E0003C000001E000000F00000078000003C092
:1017F00000001E000000F0001D1DFFFFFFFFFFFFA7
:10180000FFFFFFFFFFFFFFFFFF0000007800000366
:10181000C000001E000000F00000078000003C0037
:101820000001E000000FFFFFFC7FFFFFF3FFFFFF61
:10183000DFFFFFFF00000078000003C000001E0073
:101840000000F00000078000003FC00001FE000023
:101850000FF000007FFFFFFFDFFFFFFC7FFFFFC1F6
:10186000FFFFFC001D1D1FFFFF03FFFFF81FFFFF11
:10187000C1FFFFFE0F00000078000003C000001E43
:10188000000000F00000078000003C000001E000C4
:10189000000FFFFFFC7FFFFFF3FFFFFFDFFFFFFFF6
:1018A000F000007F800003FC00001FE00000FF004C
:1018B0000007F800003FC00001FE00000FF000002C
:1018C0007FFFFFFFDFFFFFFC7FFFFFC1FFFFFC008B
:1018D0001D1D1FFFFF00FFFFFE07FFFFF03FFFFF83
:1018E000C000001E000000F00000078000003C0067
:1018F0000001E000000F00000078000003C00000BD
:101900001E000000F00000078000003C000001E025
:1019100000000F00000078000003C000001E00005F
:1019200000F00000078000003C000001E000000F14
:1019300000000078000003C000001E001D1D1FFFF6
:10194000FFC1FFFFFF1FFFFFFDFFFFFFFF000007BD
:10195000F800003FC00001FE00000FF000007F8093
:101960000003FC00001FE00000FFFFFFFFBFFFFFC0
:10197000F9FFFFFFDFFFFFFFF000007F800003FCA7
:1019800000001FE00000FF000007F800003FC0005B
:1019900001FE00000FF000007FFFFFFFDFFFFFFCF4
:1019A0007FFFFFC1FFFFFC001D1D1FFFFFC1FFFFE9
:1019B000FF1FFFFFFDFFFFFFFF000007F800003FD4
:1019C000C00001FE00000FF000007F800003FC005B
:1019D000001FE00000FF000007FFFFFFFDFFFFFF0B
:1019E000E7FFFFFF1FFFFFF8000003C000001E001D
:1019F0000000F00000078000003C000001E0000053
:101A00000F0000007FFFFFFFDFFFFFFCFFFFFFC1B4
:101A1000FFFFFC001D1D0000000000000000000092
:101A200000000000000000000000000000000000B6
:101A300000000000000000000000000000000000A6
:101A400000003FFFC001FFFE000FFFF0007FFF809E
:101A50000000000000000000000000000000000086
:101A60000000000000000000000000000000000076
:101A70000000000000000000000000000000000066
:101A80005645523F4F444620322E31005665727300
:101A9000696F6E3A200007077DAE4CD838DF000C26
:101AA00007FFE803AA9AA9AA9803FFE08014FFFFA2
:101AB000FFFFFFFFFFFFFFFFFFFFFFFFFFFFFFFF36
:101AC000FFFFFFFFFFFFFFFFFFFFFFFFFFFFFFFF26
:101AD000FFFFFFFFFFFFFFFFFFFFFFFFFFFFFFFF16
:101AE000FFFFFFFFFFFFFFFFFFFFFFFFFFFFFFFF06
:101AF000FFFFFFFFFFFFFFFFFFFFFFFFFFFFFFFFF6
:101B0000FFFFFFFFFFFFFFFFFFFFFFFFFFFFFFFFE5
:101B1000FFFFFFFFFFFFFFFFFFFFFFFFFFFFFFFFD5
:101B2000FFFFFFFFFFFFFFFFFFFFFFFFFFFFFFFFC5
:101B3000FFFFFFFFFFFFFFFFFFFFFFFFFFFFFFFFB5
:101B4000FFFFFFFFFFFFFFFFFFFFFFFFFFFFFFFFA5
:101B5000FFFFFFFFFFFFFFFFFFFFFFFFFFFFFFFF95
:101B6000FFFFFFFFFFFFFFFFFFFFFFFFFFFFFFFF85
:101B7000FFFFFFFFFFFFFFFFFFFFFFFFFFFFFFFF75
:101B8000FFFFFFFFFFFFFFFFFFFFFFFFFFFFFFFF65
:101B9000FFFFFFFFFFFFFFFFFFFFFFFFFFFFFFFF55
:101BA000FFFFFFFFFFFFFFFFFFFFFFFFFFFFFFFF45
:101BB000FFFFFFFFFFFFFFFFFFFFFFFFFFFFFFFF35
:101BC000FFFFFFFFFFFFFFFFFFFFFFFFFFFFFFFF25
:101BD000FFFFFFFFFFFFFFFFFFFFFFFFFFFFFFFF15
:101BE000FFFFFFFFFFFFFFFFFFFFFFFFFFFF80146F
:101BF000183060C183060C18183060C183060C18B9
:101C0000183060C183060C18183060C183060C18A8
:101C10003C78F1E3C78F1E3C3C78F1E3C78F1E3C54
:101C20003C78F1E3C78F1E3C3C78F1E3C78F1E3C44
:101C30003C78F1E3C78F1E3C3C78F1E3C78F1E3C34
:101C40003C78F1E3C78F1E3C3C78F1E3C78F1E3C24
:101C50003C78F1E3C78F1E3C3C78F1E3C78F1E3C14
:101C60003C78F1E3C78F1E3C3C78F1E3C78F1E3C04
:101C70007EFDFBF7EFDFBF7E7EFDFBF7EFDFBF7E74
:101C80007EFDFBF7EFDFBF7E7EFDFBF7EFDFBF7E64
:101C90007EFDFBF7EFDFBF7E7EFDFBF7EFDFBF7E54
:101CA0007EFDFBF7EFDFBF7E7EFDFBF7EFDFBF7E44
:101CB0007EFDFBF7EFDFBF7E7EFDFBF7EFDFBF7E34
:101CC0007EFDFBF7EFDFBF7E7EFDFBF7EFDFBF7E24
:101CD0007EFDFBF7EFDFBF7E7EFDFBF7EFDFBF7E14
:101CE0007EFDFBF7EFDFBF7E7EFDFBF7EFDFBF7E04
:101CF0007EFDFBF7EFDFBF7E7EFDFBF7EFDFBF7EF4
:101D00007EFDFBF7EFDFBF7E7EFDFBF7EFDFBF7EE3
:101D10003C78F1E3C78F1E3C3C78F1E3C78F1E3C53
:101D20007EFDFBF7EFDFBF7E7EFDFBF7EFDFBF7EC3
:101D300080143FFFFFFFFFFFFFFFFFFFFFFFFFFFDD
:101D4000FFFC600000000000000000000000000038
:101D50000006CE7E7E7E7E7E7E7E7E7E7E7E7E7E49
:101D60007E739E7E7E7E7E7E7E7E7E7E7E7E7E7E7E
:101D70007E79BE7E7E7E7E7E7E7E7E7E7E7E7E7E48
:101D80007E7DBE7E7E7E7E7E7E7E7E7E7E7E7E7E34
:101D90007E7DBE7E7E7E7E7E7E7E7E7E7E7E7E7E24
:101DA0007E7DBE7E7E7E7E7E7E7E7E7E7E7E7E7E14
:101DB0007E7DBE7E7E7E7E7E7E7E7E7E7E7E7E7E04
:101DC0007E7DBE7E7E7E7E7E7E7E7E7E7E7E7E7EF4
:101DD0007E7DBE7E7E7E7E7E7E7E7E7E7E7E7E7EE4
:101DE0007E7DBE7E7E7E7E7E7E7E7E7E7E7E7E7ED4
:101DF0007E7DBE7E7E7E7E7E7E7E7E7E7E7E7E7EC4
:101E00007E7DBE7E7E7E7E7E7E7E7E7E7E7E7E7EB3
:101E10007E7DBE7E7E7E7E7E7E7E7E7E7E7E7E7EA3
:101E20007E7DBE7E7E7E7E7E7E7E7E7E7E7E7E7E93
:101E30007E7D9E7E7E7E7E7E7E7E7E7E7E7E7E7EA3
:101E40007E79CE7E7E7E7E7E7E7E7E7E7E7E7E7E67
:101E50007E73600000000000000000000000000031
:101E600000063FFFFFFFFFFFFFFFFFFFFFFFFFFF3A
:101E7000FFFC8014FFF3FFF3FFF3FFFE7FFFCFFFB4
:101E8000CFFFCFFFFFF3FFF3FFF3FFFE7FFFCFFF97
:101E9000CFFFCFFFFFF3FFF3FFF3FFFE7FFFCFFF87
:101EA000CFFFCFFFFFF3FFF3FFF3FFFE7FFFCFFF77
:101EB000CFFFCFFFFFF9FFF9FFF9FFFE7FFF9FFF85
:101EC0009FFF9FFFFFF9FFF9FFF9FFFE7FFF9FFFD5
:101ED0009FFF9FFFFFF9FFF9FFF9FFFE7FFF9FFFC5
:101EE0009FFF9FFFFFFCFFFCFFFCFFFE7FFF3FFF0C
:101EF0003FFF3FFFFFFCFFFCFFFCFFFE7FFF3FFFBC
:101F00003FFF3FFFFFFCFFFCFFFCFFFE7FFF3FFFAB
:101F10003FFF3FFFFFFCFFFCFFFCFFFE7FFF3FFF9B
:101F20003FFF3FFFFFFE7FFE7FFE7FFE7FFE7FFEC7
:101F30007FFE7FFFFFFE7FFE7FFE7FFE7FFE7FFE38
:101F40007FFE7FFFFFFE7FFE7FFE7FFE7FFE7FFE28
:101F50007FFE7FFF3FFF3FFF3FFF3FFE7FFCFFFC19
:101F6000FFFCFFFC00FF3FFF3FFF3FFE7FFCFFFC4D
:101F7000FFFCFF0000003FFF3FFF3FFE7FFCFFFC38
:101F8000FFFC0000000000FF3FFF3FFE7FFCFFFC66
:101F9000FF000000000000001FFF9FFE7FF9FFF818
:101FA0000000000000000000000007FE7FE00000CD
:101FB0000000000000000000003E5B4F5B3E3E6BF7
:101FC0004F6B3E1C3E7C3E1C183C7E3C181C577DD3
:101FD000571C1C5E7F5E1C00183C1800FFE7C3E71F
:101FE000FF0018241800FFE7DBE7FF30483A060E31
:101FF0002629792926407F050507407F05253F5A78
:102000003CE73C5A7F3E1C1C08081C1C3E7F1422E7
:102010007F22145F5F005F5F06097F017F00668992
:10202000956A606060606094A2FFA29408047E04D8
:102030000810207E201008082A1C08081C2A0808FE
:102040001E101010100C1E0C1E0C30383E383006BE
:102050000E3E0E06000000000000005F00000007BA
:10206000000700147F147F14242A7F2A12231308E8
:10207000646236495620500008070300001C2241C4
:10208000000041221C002A1C7F1C2A08083E080868
:102090000080703000080808080800006060002018
:1020A000100804023E5149453E00427F40007249FB
:1020B0004949462141494D331814127F102745459F
:1020C00045393C4A494931412111090736494949B5
:1020D00036464949291E0000140000004034000023
:1020E000000814224114141414140041221408028C
:1020F000015909063E415D594E7C1211127C7F49FF
:102100004949363E414141227F4141413E7F494953
:1021100049417F090909013E414151737F0808087F
:102120007F00417F41002040413F017F0814224150
:102130007F404040407F021C027F7F0408107F3EAA
:102140004141413E7F090909063E4151215E7F0917
:10215000192946264949493203017F01033F40407E
:10216000403F1F2040201F3F4038403F6314081469
:102170006303047804036159494D43007F414141A1
:102180000204081020004141417F04020102044082
:1021900040404040000307080020545478407F2806
:1021A0004444383844444428384444287F385454FC
:1021B000541800087E090218A4A49C787F0804041F
:1021C0007800447D40002040403D007F10284400BE
:1021D00000417F40007C047804787C08040478384F
:1021E00044444438FC1824241818242418FC7C087F
:1021F000040408485454542404043F44243C4040FC
:10220000207C1C2040201C3C4030403C44281028AE
:10221000444C9090907C4464544C440008364100F7
:102220000000770000004136080002010204023C71
:102230002623263C1EA1A161123A4040207A385440
:1022400054555921555579412254547842215554B9
:10225000784020545579400C1E527212395555550C
:1022600059395454545939555454580000457C41F7
:102270000002457D420001457C407D1211127DF037
:10228000282528F07C545545002054547C547C0A61
:10229000097F4932494949323A4444443A324A482A
:1022A00048303A4141217A3A42402078009DA0A02E
:1022B0007D3D4242423D3D4040403D3C24FF242480
:1022C000487E4943662B2FFC2F2BFF0929F620C09F
:1022D000887E090320545479410000447D413048F0
:1022E000484A32384040227A007A0A0A727D0D1933
:1022F000317D2629292F28262929292630484D4095
:1023000020380808080808080808382F10C8ACBA90
:102310002F102834FA00007B000008142A1422220F
:10232000142A14085500550055AA55AA55AAFF5558
:10233000FF55FF000000FF00101010FF00141414E0
:10234000FF001010FF00FF1010F010F0141414FC28
:10235000001414F700FF0000FF00FF1414F404FC45
:10236000141417101F10101F101F1414141F001026
:102370001010F0000000001F101010101F1010109F
:1023800010F010000000FF101010101010101010AE
:10239000FF10000000FF140000FF00FF00001F10EE
:1023A000170000FC04F414141710171414F404F4A8
:1023B0000000FF00F714141414141414F700F71499
:1023C0001414171410101F101F141414F4141010E8
:1023D000F010F000001F101F0000001F140000008C
:1023E000FC140000F010F01010FF10FF141414FF84
:1023F000141010101F00000000F010FFFFFFFFFF7F
:10240000F0F0F0F0F0FFFFFF0000000000FFFF0F12
:102410000F0F0F0F3844443844FC4A4A4A347E02B6
:10242000020606027E027E02635549416338444437
:102430003C04407E201E2006027E020299A5E7A5EC
:10244000991C2A492A1C4C7201724C304A4D4D305D
:102450003048784830BC625A463D3E494949007E82
:102460000101017E2A2A2A2A2A44445F4444405119
:102470004A444040444A51400000FF0103E080FFCD
:10248000000008086B6B083612362436060F090F59
:1024900006000018180000001010003040FF010175
:1024A000001F01011E00191D1712003C3C3C3C009E
:1024B00000000000417263004261720042756C6C62
:1024C00065747300536F6C6964005374616E64616A
:1024D0006C6F6E65203976004C69506F2031312E5B
:1024E0003476004C69506F20372E3476004E694D9B
:1024F0004820392E367620382D63656C6C004E6985
:102500004D4820382E347620372D63656C6C005290
:10251000617720766F6C7461676500466163746FE4
:102520007279207265736574004374722042746E10
:102530002052656C6F616400416D6D6F2062617245
:1025400020666C61736800416D6D6F20626172205E
:102550006469722E2000416D6D6F204261722053BC
:1025600074796C6500416D6D6F20636F6C6F7220C4
:1025700028312F332900416D6D6F20636F6C6F72AE
:102580002028322F332900416D6D6F20636F6C6FEF
:1025900072202846756C6C29004261636B67726F0C
:1025A000756E6420636F6C6F7200554920436F6CC9
:1025B0006F7200526F746174652055492039302064
:1025C0006467727300363A00353A00343A00333AA1
:1025D00000323A00313A003C3C204261636B004ECD
:1025E0006578742070616765203E3E0053617665B2
:1025F000206272696768746E6573730042617474F7
:10260000657279207365747570005549205365743F
:1026100074696E6773005365742074696D65004D4D
:10262000616E6167652050726573657473003C3C30
:1026300020536176652026204578697400000000EB
:102640000800020100000304070000000000000071
:102650000000000000250028002B000000000024DE
:102660000027002A000404040404040404020202F3
:1026700002020203030303030301020408102040C3
:1026800080010204081020010204081020C424BCA8
:1026900024B824B4240F25FE24ED24E324D824CA2E
:1026A00024D72556254725382529251B25D725B389
:1026B00025AA259925872576256525D725D425D1D1
:1026C00025CE25CB25C825C5252E261F2616260A4C
:1026D00026FC25EC25DF2500DF3611241FBECFEFB9
:1026E000D8E0DEBFCDBF11E0A0E0B1E0E2EEF9E757
:1026F00002C005900D92AC3EB107D9F724E0ACEED4
:10270000B1E001C01D92A032B207E1F713E1CDE6BE
:10271000D3E104C02197FE010E94E43CCC36D107EE
:10272000C9F70E94E12E0C94EF3C0C940000F89441
:102730004B9920C080912F0281111EC0E091FB01B6
:10274000F0E0EE0FFF1FE450FD4F208131818091BA
:10275000FC019091FD0137FF02C0019601C0019775
:102760009093FD018093FC0181E08093FE018093B2
:102770002F0202C010922F027894089508950895B0
:102780008CE993E09093F0028093EF02E6EEF3E0A1
:102790008091F00190E0019724E0880F991F2A951D
:1027A000E1F72BE230E0A901481B590B558744871C
:1027B00082E790E0978786878FE60C94702AEF92E5
:1027C000FF920F931F934091F001209133023091BB
:1027D0003402423069F0433021F04130B1F4207EC0
:1027E0000EC03770982F8827990F990F990F07C03F
:1027F0002F71387F45E0880F991F4A95E1F7822BAA
:10280000932B9093340280933302E0903302F09044
:10281000340208E110E028E130E040E150E068E5F2
:1028200070E086EE93E00E943C291F910F91FF908B
:10283000EF9008958093F001813059F088F0823054
:1028400029F0833079F528E833E005C024E733E048
:1028500002C020E633E03093F0022093EF0222C062
:10286000E0913102F0913202809133029091340272
:10287000918380838091F4029091F5022091F2027D
:102880003091F3023093F7032093F6039093F9030A
:102890008093F80328E045E060E871E082EA93E085
:1028A0000C94AD2B90E0019724E0880F991F2A9596
:1028B000E1F72BE230E0A901481B590B5093F303D9
:1028C0004093F20382E790E09093F5038093F40342
:1028D0008EE50C94702AEF92FF920F931F93CF9383
:1028E000DF93EC018091C40390E0FC01EE0FFF1F29
:1028F000E650FD4FD183C08322EC33E03093F002E9
:102900002093EF02E090F402F090F5024091CE03A4
:102910005091CF032091D0033091D103240F351F64
:10292000289FB001299F700D389F700D1124409190
:10293000CA035091CB034E5F5F4F460F571F0AE00B
:1029400010E02AE030E060E570E086EE93E00E945F
:10295000F11ECD2B61F52091CE033091CF038091F4
:10296000D0039091D103280F391F8091C403829F17
:10297000A001839F500D11248091CA039091CB0335
:102980000296840F951F2AE530E03093F3032093DD
:10299000F2039093F5038093F4038CE891E0DF91C8
:1029A000CF911F910F91FF90EF900C94F62ADF9139
:1029B000CF911F910F91FF90EF900895CF93DF93E8
:1029C000EC012091CE033091CF038091D003909100
:1029D000D103280F391F8091C403829FA001839FD8
:1029E000500D11248091CA039091CB030296840F5D
:1029F000951F2AE530E03093F3032093F203909380
:102A0000F5038093F403D7FF05C080E991E00E94AD
:102A1000F62A03C0CE010E94C82A80E20E94702AD2
:102A2000C53F21E0D20754F08091ED019091EE0175
:102A30008E3E924030F081E090E00FC0C536D10567
:102A400054F08091ED019091EE018E3E924018F08D
:102A500084E190E002C084E690E09093BD0380930F
:102A6000BC03DF91CF910895CF93811103C0CF9123
:102A70000C941024C82F2091CE033091CF03809165
:102A8000D0039091D103280F391FC29FA001C39F8B
:102A9000500D11248091CA039091CB030296840FAC
:102AA000951F20E530E03093F3032093F2039093D9
:102AB000F5038093F4038EE30E94702A2091C403EF
:102AC00030E04091CE035091CF038091D00390919C
:102AD000D103480F591F429FB001439F700D529F71
:102AE000700D11248091CA039091CB030296860F3A
:102AF000971F4AE550E05093F3034093F2039093FD
:102B0000F5038093F403C13019F481E090E002C032
:102B10008FEF9FEF9093B7038093B60384EB93E01E
:102B20009093F0028093EF02220F331FF901E650D9
:102B3000FD4F808191819093BB038093BA0397FFEF
:102B400005C080E991E00E94F62A02C00E94C82ACE
:102B500083E991E0CF910C94F62A80930A030C94B8
:102B600010240F931F9380913002882389F18130C4
:102B700009F058C08FE790E0909345038093440399
:102B800081E89FEF909343038093420380910F036A
:102B9000082E000C990B90934703809346030091F5
:102BA000F4021091F5022CE030E04EE350E064E4D2
:102BB00070E086EE93E00E94A4290091F202109149
:102BC000F30228E130E048E550E064E370E025C01E
:102BD0008BE390E0909345038093440380911D0420
:102BE00090E090934703809346030091F402109184
:102BF000F5022CE030E04EE350E062E370E086EE58
:102C000093E00E94A4290091F2021091F3022CE0BB
:102C100030E04EE350E064E470E086EE93E00E9422
:102C2000A42905C081E08093EC010E9410248091CA
:102C300030028F5F809330021F910F910895809131
:102C40003002813079F048F08230E1F4809146031F
:102C500080930F030E94C12315C080914603809387
:102C60001E0404C08091460380931D0482E390E01B
:102C70009093F3038093F2039093F5038093F4030E
:102C80000E94D5230C94C123823009F442C028F459
:102C9000882361F0813061F00895843009F472C0B6
:102CA00008F461C0853009F499C008950C9410248B
:102CB00080910A038093300322E149E060EA71E0E9
:102CC0008CE193E00E94AD2B2091280330912903E1
:102CD00080912A0390912B03280F391F80910C03B8
:102CE000829FA001839F500D112480912403909115
:102CF00025030296840F951F28E030E03093F303FC
:102D00002093F2039093F5038093F4038EE30C94E5
:102D1000702A90910B0381E0892780930B0324E6AE
:102D200030E03093F3032093F2032EE230E030934F
:102D3000F5032093F4032091F2023091F3024091C5
:102D4000F4025091F5025093F7034093F603309349
:102D5000F9032093F803811103C089E991E03BC096
:102D600086E991E038C090910D0381E08927809336
:102D70000D0324E630E03093F3032093F2032EE3B7
:102D800030E00EC090910E0381E0892780930E03FE
:102D900024E630E03093F3032093F2032EE430E096
:102DA0003093F5032093F4032091F2023091F30263
:102DB0004091F4025091F5025093F7034093F603CB
:102DC0003093F9032093F803811103C08CE891E05C
:102DD00002C08CE991E00E94F62A34C0809135024D
:102DE0008F5F80933502863020F00E94DE200C94A5
:102DF000892384E690E09093F3038093F2038EE5B9
:102E000090E09093F5038093F4038091F202909107
:102E1000F3022091F4023091F5023093F7032093EE
:102E2000F6039093F9038093F8038EE30E94702ACF
:102E30009091350226E030E0A901491B5109CA01F1
:102E40000E94C82A8091F4029091F5022091F2022A
:102E50003091F3023093F7032093F6039093F90334
:102E60008093F803089580930C030C94F623EF925B
:102E7000FF920F931F93CF93DF9390E087309105DC
:102E800008F063C1FC01EC5CFF4F0C94E43CF99941
:102E9000FECF02EF12E0C2E0D0E0F80161918F01B5
:102EA000CE010E9478382196C032D105B1F7DF916A
:102EB000CF911F910F91FF90EF900C94892328E000
:102EC00042E06FEA71E082EC93E00E94AD2B0CEFE0
:102ED00012E0C1E0D0E08AE5E82EF12C8091C50334
:102EE00090E0C817D9070CF030C12091CE03309183
:102EF000CF038091D0039091D103280F391F2C9FCD
:102F0000A0012D9F500D3C9F500D11248091CA03AC
:102F10009091CB030296840F951FF092F303E092F9
:102F2000F2039093F5038093F403F801819191915A
:102F30008F0197FF03C080E991E007C0009719F067
:102F40000E94C82A04C08CE891E00E94F62A2196CB
:102F5000C5CF1092300280E493E09093F00280930A
:102F6000EF0280911E0490E0909347038093460304
:102F700087E190E0909345038093440310924303CC
:102F8000109242036091F4027091F50286EE93E094
:102F90000E941425C2E3D0E0D093F303C093F20360
:102FA00086E290E09093F5038093F40387EB91E041
:102FB0000E94F62AD093F303C093F203D093F50353
:102FC000C093F4030E94D5230091F2021091F30202
:102FD0002CE030E04EE350E062E370E086EE93E0F8
:102FE0000E94A4298EE190E09093F3038093F20372
:102FF00082E490E09093F5038093F4038DEB91E0ED
:103000000E94F62ADF91CF911F910F91FF90EF90D0
:103010000C94C12328E045E060E871E082EA93E087
:10302000DF91CF911F910F91FF90EF900C94AD2BFA
:1030300080910A038093300322E148E06AEC71E05A
:103040008EE293E00E94AD2B20913A0330913B0336
:1030500080913C0390913D03280F391F80910A0312
:10306000829FA001839F500D11248091360390917F
:1030700037030296840F951F28E030E03093F30366
:103080002093F2039093F5038093F4038EE3DF9192
:10309000CF911F910F91FF90EF900C94702AF999A6
:1030A000FECF6091F70181E090E00E947838809136
:1030B000F2029091F3022091F4023091F5023093E4
:1030C000F7032093F6039093F9038093F80320917C
:1030D000E0033091E1038091E2039091E303280F34
:1030E000391F85E0829FA001839F500D112480919C
:1030F000DC039091DD030296840F951F29E630E0F2
:103100003093F3032093F2039093F5038093F40339
:1031100088ED91E00E94F62A8091F4029091F502E8
:103120002091F2023091F3023093F7032093F603DB
:103130009093F9038093F80308C0DF91CF911F911A
:103140000F91FF90EF900C94F623DF91CF911F9198
:103150000F91FF90EF900895EF92FF920F931F93BE
:1031600080919E03811141C0E090F202F090F30241
:103170000CE010E028E330E044E650E060E470E06A
:1031800086EE93E00E943C298091F2029091F30236
:103190002091F4023091F5023093F7032093F60367
:1031A0009093F9038093F80380E590E09093F30304
:1031B0008093F20386E690E09093F5038093F40306
:1031C0008BED91E00E94F62A8091F4029091F50235
:1031D0002091F2023091F3023093F7032093F6032B
:1031E0009093F9038093F80319C090E0019734E0BD
:1031F000880F991F3A95E1F72BE230E0A901481BAF
:10320000590B5093F3034093F20382E790E09093BD
:10321000F5038093F4038FE60E94702A8091F001F9
:1032200090919E03981709F450C0811131C0E0902D
:10323000F202F090F3020CE010E028E330E044E604
:1032400050E060E470E086EE93E00E94511DE09053
:10325000F402F090F5020AE010E026E330E045E6E3
:1032600050E061E470E086EE93E00E943C2980E546
:1032700090E09093F3038093F20386E690E09093BE
:10328000F5038093F4038BED91E00E94F62A19C0B8
:10329000E090F402F090F50290E0019724E0880FAE
:1032A000991F2A95E1F76BE270E0681B790B0AE041
:1032B00010E02CE030E042E750E086EE93E00E9420
:1032C0003C2980919E038093F0011F910F91FF9004
:1032D000EF900895EF92FF920F931F93CF93DF9398
:1032E00023E02093F1021092F00190933202809338
:1032F0003102FC01808191819093340280933302EA
:103300008CE993E09093F0028093EF02C2EFD2E059
:103310006A817B8186EE93E00E941425E8E8F3E061
:10332000809134028695869586958683178268E01B
:10333000CF010E945B2C8091330290913402807EF9
:10334000977025E0969587952A95E1F790937B03F2
:1033500080937A0368E184E793E00E945B2C80917C
:103360003302909134028F71992790936703809371
:10337000660368E280E693E00E945B2CE880F980B7
:103380000CE010E028E330E044E650E060E470E058
:1033900086EE93E00E94511D06EE13E080E590E07A
:1033A000F8019587848785E690E0978786878BED7F
:1033B00091E00E94F62A8AE090E0F80195878487E0
:1033C00097878687E0903302F090340208E110E09E
:1033D00028E130E040E150E068E570E0CF010E9474
:1033E0003C29E880F9800AE110E02AE130E04FE072
:1033F00050E067E570E086EE93E00E94511DDF919A
:10340000CF911F910F91FF90EF900C94AC1890E02A
:103410008730910560F5FC01E55CFF4F0C94E43CBE
:103420000C94102482EF92E002C084EF92E00C949E
:103430006A1986EF92E0FBCF88EF92E0F8CF8AEF2F
:1034400092E0F5CF60910903633010F46F5F01C023
:1034500060E06093090386EE93E00E94C52828E0AF
:1034600045E060E871E082EA93E00C94AD2B0895AA
:10347000E091FB01F0E0EE0FFF1FE450FD4F808173
:10348000918197FF02C080E090E09093FD018093CE
:10349000FC0182E08093FE010895682F8091EF0285
:1034A0009091F002009739F0DC01ED91FC910190D0
:1034B000F081E02D0994623059F018F4613051F137
:1034C0000895633009F440C06F3F09F466C0089561
:1034D0008091F102882319F08F3FD1F008958091F7
:1034E000FB018093F10181E08093F8018093F60164
:1034F0000E94A0266093F2017093F3018093F4017F
:103500009093F50180910E03882309F448C045C0CB
:103510000C9410248091F102811141C08091F80136
:103520008823E9F18091F101882311F0815001C0D5
:1035300085E0E82FF0E0EE0FFF1FE450FD4F208103
:103540003181232B89F319C08091F102811127C0A9
:103550008091F801882319F18091F101853010F4F0
:103560008F5F01C080E0E82FF0E0EE0FFF1FE45016
:10357000FD4F20813181232B89F38093F10181E07C
:103580008093F6010E94A0266093F2017093F301EC
:103590008093F4019093F50108950C94381A0895DE
:1035A000809101024A9913C0811119C08091FF01D5
:1035B00090910002049798F08FEF0E944D1A81E0DD
:1035C00080930102109209041092080404C0882319
:1035D00031F010920102109200021092FF01089542
:1035E0001F920F920FB60F9211240F900FBE0F90E3
:1035F0001F9018951F920F920FB60F9211242F93C0
:103600003F934F935F936F937F938F939F93AF936A
:10361000BF93EF93FF9380910402319913C08111FE
:1036200019C08091020290910302049798F082E001
:103630000E944D1A81E08093040210920F021092B2
:103640000E0204C0882331F010920402109203028B
:103650001092020280911402329913C0811119C094
:103660008091080290910902049798F081E00E94ED
:103670004D1A81E08093140210920D0210920C02F8
:1036800004C0882331F010921402109209021092A3
:10369000080280910702309913C0811119C08091EE
:1036A000050290910602049798F083E00E944D1A5B
:1036B00081E080930702109211021092100204C060
:1036C000882331F010920702109206021092050230
:1036D000FF91EF91BF91AF919F918F917F916F91EA
:1036E0005F914F913F912F910F900FBE0F901F90C0
:1036F00018959091F102923001F51092EF0120910E
:10370000ED013091EE014091150250911602609149
:10371000170270911802420F531F611D711D4F3E19
:1037200092E059076105710520F04EEE52E060E02D
:1037300070E05093EE014093ED01A091EF02B09143
:10374000F002109779F0482F50E0440F551F465F64
:103750005D4FED91FC9111970280F381E02D682F70
:10376000CD0109940895FC01628308950895FC0138
:103770006370658B8481958126813781613039F052
:10378000633029F0918780873387228708953187B6
:1037900020879387828708952F923F924F925F925E
:1037A0006F927F928F929F92AF92BF92CF92DF9251
:1037B000EF92FF920F931F93CF93DF93CDB7DEB7B6
:1037C00064970FB6F894DEBF0FBECDBF9C8B8B8B7A
:1037D000162F6A30B1F4DC011D961C921E921C97C4
:1037E00054962C9154971E968D919C911F97B8E0FA
:1037F0002B9F800D911D1124EB89FC89978786876B
:1038000035C16D3009F432C1AB89BC8956968C91B3
:1038100056975496BC91B983EB89FC8920853185F4
:10382000882301F184859585F6E0BF9F800D911D69
:10383000112428173907B4F4AB89BC891D961C9252
:103840001E921C971E968D919C911F97E981B8E05E
:10385000EB9F800D911D1124AB89BC891F969C9311
:103860008E931E97EB89FC89A484B584A216B306B7
:103870000CF0ECC08684978482859385881699061F
:103880000CF0E4C0F981CF2ED12C950146E0F49FD5
:10389000200D311D11243A872987121613060CF0CA
:1038A000D5C0C60123E0880F991F2A95E1F79C87B0
:1038B0008B87880D991D181619060CF0C7C0AB89A7
:1038C000BC8957968C91811103C0103B08F01F5F93
:1038D000EB89FC8962887388208931893B832A833C
:1038E0000190F081E02D0284F385E02D8B899C8985
:1038F000099535E0139FB0011124A5014B5F5F4F7F
:103900005E874D87BD82AC822501CB018A199B0958
:10391000988B8F87D4011896BA8BA98BEF85F8897D
:10392000E40DF51DEC54F04EB491B8879F828E8261
:103930001401E885E0FF13C0AB89BC89ED91FC91CF
:10394000B981B13031F40484F585E02D2A813B81C1
:1039500016C00684F785E02DEA80FB801AC0EA8154
:10396000FB816E167F06F1F0AB89BC89ED91FC916D
:10397000B981B13051F40484F585E02D9301A101A2
:10398000B2018B899C8909950DC00684F785E02DCD
:103990007301860196014E815F816C817D818B89E7
:1039A0009C890995E885E695E887FFEF2F1A3F0A7D
:1039B0002E813F812C0D3D1D3F832E8349895A89DD
:1039C0004215530509F0B5CF5FEF451A550A8C81B2
:1039D0009D818C0D9D1D9D838C83AD85BE854A1672
:1039E0005B0609F09BCFEA81FB816E167F0621F111
:1039F000AB89BC89ED91FC91B981B13071F4B5010D
:103A00006B5F7F4F0088F189E02D830128E030E073
:103A1000A4018B899C8909950FC069857A856C19E9
:103A20007D090684F785E02D73010B851C859601C1
:103A3000A4018B899C890995AB89BC89ED91FC9186
:103A400011970688F789E02DCD010995EB89FC894E
:103A5000248984859585F6E02F9F800D911D112482
:103A6000AB89BC891D969C938E931C9781E090E056
:103A700064960FB6F894DEBF0FBECDBFDF91CF9135
:103A80001F910F91FF90EF90DF90CF90BF90AF907C
:103A90009F908F907F906F905F904F903F902F906E
:103AA00008956F927F928F929F92AF92BF92CF9222
:103AB000DF92EF92FF920F931F93CF93DF93EC016E
:103AC0004B015A0169013801E881F9810284F385CB
:103AD000E02D0995E881F9810288F389E02D8701BD
:103AE0009601A501B401CE010995A501460D571D0A
:103AF00041505109E881F9810288F389E02D96014E
:103B0000B401CE010995E881F9810088F189E02DA1
:103B10009301A501B401CE010995C80CD91CB601C9
:103B200061507109E881F9810088F189E02D9301E4
:103B3000A501CE010995E881F9810688F789E02D74
:103B4000CE01DF91CF911F910F91FF90EF90DF9009
:103B5000CF90BF90AF909F908F907F906F9009947F
:103B60008F929F92AF92BF92CF92DF92EF92FF928D
:103B70000F931F93CF93DF934C016B015A01E9011F
:103B8000DC01ED91FC916217730781F404171507AE
:103B900024F48B2D5801042F182F0A191B099801A2
:103BA0002F5F3F4F048CF58DE02D12C04017510759
:103BB00009F52617370724F48D2D6901C62FD82F54
:103BC0009E012C193D092F5F3F4F068CF78DE02D8C
:103BD0008701A501B601C4010995DF91CF911F911D
:103BE0000F91FF90EF90DF90CF90BF90AF909F909C
:103BF0008F9008950284F385E02D0995D401ED910D
:103C0000FC910488F589E02D9E01A501B601C4014F
:103C10000995D401ED91FC910688F789E02DC40146
:103C2000DF91CF911F910F91FF90EF90DF90CF9098
:103C3000BF90AF909F908F900994EF92FF920F9357
:103C40001F93DC011A960D911C911B9718962D91CC
:103C50003C911997ED91FC9100A0F1A1E02D7B0121
:103C600040E050E060E070E009951F910F91FF90F7
:103C7000EF9008954F925F926F927F928F929F92F2
:103C8000AF92BF92CF92DF92EF92FF920F931F936A
:103C9000CF93DF936C012B015A0139014801DC01FC
:103CA000ED91FC910284F385E02D0995E201640C0D
:103CB000751CD601ED91FC91C615D7055CF4008802
:103CC000F189E02D87019401A501BE01C601099586
:103CD0002196EFCF0688F789E02DC601DF91CF91BD
:103CE0001F910F91FF90EF90DF90CF90BF90AF901A
:103CF0009F908F907F906F905F904F9009948F92DC
:103D00009F92AF92BF92CF92DF92EF92FF920F936A
:103D10001F93CF93DF93EC015B014A016901E881B6
:103D2000F9810284F385E02D099595012C0D3D1D47
:103D300021503109E881F9810488F589E02D780165
:103D40008401A401B501CE010995E881F9810688B5
:103D5000F789E02DCE01DF91CF911F910F91FF9058
:103D6000EF90DF90CF90BF90AF909F908F9009948D
:103D70008F929F92AF92BF92CF92DF92EF92FF927B
:103D80000F931F93CF93DF93EC015B014A0169010D
:103D90007801E881F9810284F385E02D0995C80C4A
:103DA000D91C860101501109E881F9810488F5893F
:103DB000E02D9501A401B501CE010995E881F981B5
:103DC0000688F789E02DCE01DF91CF911F910F91E9
:103DD000FF90EF90DF90CF90BF90AF909F908F902B
:103DE0000994EF92FF920F931F93DC01ED91FC91E8
:103DF00000A0F1A1E02D09951F910F91FF90EF9088
:103E000008950F931F93DC01ED91FC91068CF78DC3
:103E1000E02D09951F910F9108950F931F93DC01D9
:103E2000ED91FC91048CF58DE02D09951F910F917A
:103E30000895DC01ED91FC910084F185E02D099459
:103E40002F923F924F925F926F927F928F929F92AA
:103E5000AF92BF92CF92DF92EF92FF920F931F9398
:103E6000CF93DF9300D000D000D0CDB7DEB72C01C8
:103E70007E836D836A015901C801FC82EB8248018F
:103E8000841A950A97FE03C0919481949108350194
:103E90002D813E81621A730A77FE03C0719461948A
:103EA0007108681479045CF43A2D2B2D5C01832F82
:103EB000922F3D812E81DE82CD82C32ED22EAD8106
:103EC000BE81AA16BB065CF43C2D2D2D6C01832F00
:103ED000922F3D812E81BE82AD82A32EB22E85010E
:103EE0002D813E81021B130B1C012C183D0837FE4F
:103EF00003C0319421943108780117FF03C03FEFCC
:103F0000E31AF30AF594E794C816D9062CF08FEF5C
:103F10009FEF9A83898304C0A1E0B0E0BA83A983AC
:103F20002D813E81A216B30624F1D201ED91FC91C0
:103F30000484F585E02D2B813C816814790424F4F8
:103F40004D815E81B60103C0A6016D817E81C201F3
:103F50000995E218F308F7FE06C029813A81C20EDE
:103F6000D31EE00EF11E8D819E8101969E838D836E
:103F7000D7CF26960FB6F894DEBF0FBECDBFDF9128
:103F8000CF911F910F91FF90EF90DF90CF90BF9056
:103F9000AF909F908F907F906F905F904F903F90E9
:103FA0002F900895089580E090E008959F92AF9239
:103FB000BF92CF92DF92EF92FF920F931F93CF9316
:103FC000DF93EC01962E4C855D8582EFA82E82E072
:103FD000B82EF501E280F3808A01025011092A858A
:103FE0003B85225031098E859F85840F951F4A811C
:103FF000489FB001499F700D1124488559854F5F36
:104000005F4F460F571F6E817F816F5F7F4F86EE38
:1040100093E00E943C292C853D858E859F85280F45
:10402000391F8A81829FA001839F500D11248885AA
:1040300099850296840F951F26EEC22E23E0D22E7C
:104040002E813F812E5F3F4FF6013587248797876A
:1040500086878A8128899989E22FF92FE80FF11D37
:10406000E80FF11D859194910E94F82A9A820C859F
:104070001D85F501E080F1802A853B858E859F8531
:10408000800F911F989EA001999E500D1124888544
:104090009985480F591F6E817F81C6010E943C2976
:1040A000F5018081918122813381F601318B208B52
:1040B000938B828B2C853D858E859F85280F391F9C
:1040C0008A81829FA001839F500D11248885998544
:1040D0000296840F951F2E813F812E5F3F4F3587BB
:1040E0002487978786878A8128899989E22FF92FE3
:1040F000E80FF11DE80FF11D859194910E94F82AB7
:10410000F5018281938120813181F601318B208BF1
:10411000938B828BDF91CF911F910F91FF90EF9046
:10412000DF90CF90BF90AF909F9008950F931F9313
:10413000E2EFF2E0028113812091F9013091FA015E
:10414000628D82E491E0689FA001699F500D112467
:104150004455554E60E070E080E090E00E94DB2B1B
:104160001F910F9108950F931F93CF93DF93F999A8
:10417000FECF80E090E00E947038823031F0DF9115
:10418000CF911F910F910C94DE2081E090E00E946E
:1041900070388093F70102EF12E0C2E0D0E0CE0168
:1041A0000E947038F80181938F012196C032D105A9
:1041B000B1F7DF91CF911F910F910895EF92FF9288
:1041C0000F931F93CF93DF93CDB7DEB76E970FB6E4
:1041D000F894DEBF0FBECDBFF999FECF62E080E05C
:1041E00090E00E948A3864E681E090E00E948A387C
:1041F00080EE9FEF9A8389831C821B8280EE97E07A
:104200009E838D8380EA9FEF98878F8380E098EF6D
:104210009A8789878EE190E09C878B878EE591E075
:104220009E878D8780ED97E0988B8F871A8A198AF1
:104230001C8A1B8A1E8A1D8A82E0888F81E08B8FF0
:104240001A8E8C8F198E8D8F1E8ECE0101967C0159
:1042500002E010E0F70161917F01C8010E948A38F5
:104260000F5F1F4F00321105A9F76E960FB6F89435
:10427000DEBF0FBECDBFDF91CF911F910F91FF9099
:10428000EF900C94B320CF93DF938BE390E0909367
:10429000F3038093F2038DE690E09093F50380930F
:1042A000F40382E08093FA038091F801882319F0E7
:1042B0008091F10102C08091FB0190E001960E9483
:1042C000C82A81E08093FA038091F801882329F0BD
:1042D0008091F2029091F30204C08091F4029091D7
:1042E000F5029093F9038093F8039093F70380937A
:1042F000F60381E390E09093F3038093F203CDE61D
:10430000D0E0D093F503C093F4038CE30E94702AAD
:1043100089E490E09093F3038093F203D093F50344
:10432000C093F4038EE30E94702A8091F40290916E
:10433000F5022091F2023091F3023093F7032093BB
:10434000F6039093F9038093F803DF91CF910895DA
:10435000AF92BF92CF92DF92EF92FF920F931F9393
:104360002091F701822F90E0A0E0B0E09C01AD0128
:104370002150310941095109A4E6B0E00E94B73843
:104380002EEF30E040E050E00E949838CC24DD244D
:10439000C21AD30AE2EFF2E0E080F18002811381D9
:1043A000A12CB12C26E030E044E650E06EE170E054
:1043B00083E190E00E94F32C1F910F91FF90EF900A
:1043C000DF90CF90BF90AF900895EF92FF920F9340
:1043D0001F93CF93DF93C2EFD2E00A811B81288124
:1043E000398147E751E06CE170E082E090E00E94A3
:1043F000DB2BE880F98008E010E028E630E04DE1B2
:1044000050E060E170E086EE93E00E943C29DF918D
:10441000CF911F910F91FF90EF9008952F923F92AF
:104420004F925F926F927F928F929F92AF92BF92C4
:10443000CF92DF92EF92FF920F931F93CF93DF9370
:10444000CDB7DEB729970FB6F894DEBF0FBECDBF4C
:10445000282F811129C0E090F402F090F50204E1C8
:1044600010E020E830E040E050E060E070E086EEF0
:1044700093E00E943C2929960FB6F894DEBF0FBE48
:10448000CDBFDF91CF911F910F91FF90EF90DF9003
:10449000CF90BF90AF909F908F907F906F905F90E4
:1044A0004F903F902F9008958038D1F429960FB601
:1044B000F894DEBF0FBECDBFDF91CF911F910F915A
:1044C000FF90EF90DF90CF90BF90AF909F908F9034
:1044D0007F906F905F904F903F902F900C9496201C
:1044E00080E890E0821B910920910B03222319F0B0
:1044F0009195819591092091F4022B834091F502C9
:104500004C835091F9015D83E091FA01EE83609153
:104510000C0342E451E0649F9001659F300D11242B
:10452000A9014455554E7A01FA01F491F887FA0130
:10453000319624912F8397FF05C0482F41954A83D8
:10454000D12C02C0D82E1A820F810150288521500B
:1045500040E060E086EE93E00E94FD28F70132968D
:10456000549159838885082F10E09F81A92EB12C82
:10457000899F1001112486EE93E00E947428198609
:104580001886612C512C712C48018D18910801500E
:104590001109E885F9852E163F0609F455C0F98101
:1045A0008F2F90E020E830E0062C02C0359527954B
:1045B0000A94E2F782239323C72CD12C892B69F02C
:1045C0002A81721650F0C814D9043CF4852D90E06D
:1045D000442443948A159B050CF0412C86EE93E00D
:1045E0000E946A28411002C08C8101C08E810E9405
:1045F0008B2886EE93E00E946A28411002C08B81CE
:1046000001C08D810E948B28488559854F5F5F4F7F
:104610005987488756E0561510F063940DC0E88519
:10462000F98583E0F695E7958A95E1F73296EE0DE8
:10463000FF1D84918983612CC016D10614F47394F4
:10464000A8CF5394712CA5CF86EE93E029960FB690
:10465000F894DEBF0FBECDBFDF91CF911F910F91B8
:10466000FF90EF90DF90CF90BF90AF909F908F9092
:104670007F906F905F904F903F902F900C94802888
:10468000E091FB01F0E0EE0FFF1FE450FD4F2081B1
:10469000318137FF0AC08091F6029091F702909322
:1046A000FA018093F90180E032C06091FC017091C1
:1046B000FD011616170614F5CB01770FAA0BBB0BDD
:1046C000BC01CD0147E0660F771F881F991F4A95EF
:1046D000D1F7032E000C440B550B0E949838822F03
:1046E000263528F02091F6023091F7020CC02B32CB
:1046F00030F02091F8023091F90205C080E020915D
:10470000FA023091FB023093FA012093F9010C94E4
:104710000E220F931F93CF93DF931092F00210920B
:10472000EF021092F102C2EFD2E06A817B8186EE45
:1047300093E00E9414250A811B81288139814FE969
:104740005AE160E770E088E590E00E94DB2B0A8187
:104750001B812881398146E95AE160E770E085E2F2
:1047600090E00E94DB2B0E94402381E08093FE01B9
:104770000E94432110923502DF91CF911F910F913A
:104780000895E6EEF3E084E390E0958784878EE475
:1047900090E09787868780910F03082E000C990B75
:1047A0000E94C82A80E20C94702A80911E048A30EC
:1047B00018F480E30E94702A60911E0470E080E08B
:1047C00090E04AE00E94872A8AE30E94702A809142
:1047D0001D048A3018F480E30E94702A60911D0441
:1047E00070E080E090E04AE00C94872A28E047E0FF
:1047F00060EE71E08EE493E00E94AD2BE6EEF3E014
:1048000085E090E09587848784E790E097878687A6
:104810008CE89AE10E94F82A84E89AE10C94F82A3C
:1048200081E08093F1026091F4027091F50286EECE
:1048300093E00E941425E6EEF3E088E290E095878D
:1048400084871786168683E891E00E94F62A4CE05A
:1048500050E068E070E084ED93E00E94132B84ED5B
:1048600093E09093F0028093EF0208959FB7F8943D
:1048700040917E0250917F0260918002709181028E
:1048800086B5A89B06C08F3F21F04F5F5F4F6F4FEB
:104890007F4F9FBF762F652F542F44279A01AB017E
:1048A000280F311D411D511DA3E0B0E00E94B73813
:1048B0000895089585ED8093BC008091BC0084FD2F
:1048C000FCCF1092CA02089540915602262F30E084
:1048D000240F311D21323105DCF42091CA0224302D
:1048E000C9F4FC0180E090E0861758F4309156023C
:1048F0002191DC01AA5CBD4FA30FB11D2C93019641
:10490000F3CF80915602680F6093560280E00895BD
:1049100081E0089582E008950895E09183028091F6
:104920008202E81730F4F0E0EC57FD4F808190E010
:1049300008958FEF9FEF08959091830280918202F6
:10494000981750F4E92FF0E0EC57FD4F208130E04C
:104950009F5F9093830202C02FEF3FEFC90108953C
:104960008091820290E020918302821B9109089538
:10497000CF92DF92EF92FF920F931F93CF93DF932B
:104980007C01CB018A012091CB02222389F0EB012B
:104990006B01C40ED51ECC15DD0569F06991D701F8
:1049A000ED91FC910190F081E02DC7010995F3CFC5
:1049B000642F0E946424C801DF91CF911F910F9151
:1049C000FF90EF90DF90CF900895CF93DF931F92E9
:1049D000CDB7DEB769832091CB022223D1F020919D
:1049E000EE02203240F021E030E0FC0133832283EC
:1049F00080E090E015C08091CC02E82FF0E0E35316
:104A0000FD4F998190838F5F8093CC028093EE025B
:104A100005C061E0CE0101960E94642481E090E02F
:104A20000F90DF91CF910895EF92FF920F931F9314
:104A3000DC011A960D911C911B9718962D913C91B3
:104A40001997ED91FC9100A0F1A1E02D7B0140E0D0
:104A500050E060E070E009951F910F91FF90EF909A
:104A600008950F931F93CF93DF93FC01DA012D91EB
:104A70003C91808591858217930758F5613061F0EC
:104A8000633039F52681378184819581281739076C
:104A900064F4C901019609C026813781828193811E
:104AA0008217930714F4C9010197978386838A01BB
:104AB000EF010190F081E02D0480F581E02DCE0121
:104AC0000995EC85FD858E819F810995F8011182FC
:104AD0001082DF91CF911F910F910895623051F4B0
:104AE000DC011A96ED91FC911B9716968D919C9185
:104AF000179709940895DC01623029F0633051F072
:104B0000613029F50EC01496ED91FC91159712961F
:104B10008C91099412966C9112976623C1F06150A2
:104B20000EC012966C911297262F30E013968C913E
:104B3000139790E00197281739074CF46F5FED91B8
:104B4000FC9111970480F581E02DCD010994089521
:104B50000E94EA3C4F925F926F927F928F929F9257
:104B6000AF92BF92CF92DF92EF92FF920F931F937B
:104B7000CF93DF934C01FC01C189D0E022976E01F5
:104B80000D2E000CEE08FF0842805380052C000C0F
:104B90006608770886819781092E000CAA0BBB0B4B
:104BA000A3019201281B390B4A0B5B0BC701B6010D
:104BB0000E94B43C248135818901330F220B330BD1
:104BC000A901980124193509460957090E94983806
:104BD000C20ED31EE41EF51ED12CAA24BB24AC1891
:104BE000BD08E090F402F090F502F4010289138907
:104BF000408950E042505109678570E06F5F7F4FF8
:104C0000868590E0C12CD12C9E0101960E94F32C48
:104C1000DF91CF911F910F91FF90EF90DF90CF9098
:104C2000BF90AF909F908F907F906F905F904F90CC
:104C3000089590E0FC01E35CF94D2491FC01E758F4
:104C4000F94D3491FC01EB59F94DE491EE2309F44F
:104C50003CC0222339F1233091F038F42130A9F0FF
:104C6000223001F584B58F7D12C0273091F02830B5
:104C7000A1F02430B9F4809180008F7D03C0809131
:104C800080008F77809380000DC084B58F7784BDBE
:104C900009C08091B0008F7703C08091B0008F7DF4
:104CA0008093B000F0E0EE0FFF1FEF5AF94DA59191
:104CB000B4919FB7F894611104C08C91309538235A
:104CC00002C0EC913E2B3C939FBF08958F929F9220
:104CD000AF92BF92CF92DF92EF92FF926B017C0175
:104CE0000E9436244B015C01C114D104E104F1049B
:104CF000F1F00E943624DC01CB0188199909AA0938
:104D0000BB09883E9340A105B10570F321E0C21AAA
:104D1000D108E108F10888EE880E83E0981EA11CF6
:104D2000B11CC114D104E104F10419F7DDCFFF90E7
:104D3000EF90DF90CF90BF90AF909F908F900895AD
:104D40002FB7F89460917A0270917B0280917C0277
:104D500090917D022FBF08951F920F920FB60F9270
:104D600011242F933F938F939F93AF93BF93809181
:104D70007A0290917B02A0917C02B0917D023091E9
:104D8000790226E6230F2D3728F029EE230F01960E
:104D9000A11DB11D2093790280937A0290937B022A
:104DA000A0937C02B0937D0280917E0290917F025D
:104DB000A0918002B09181020196A11DB11D809346
:104DC0007E0290937F02A0938002B0938102BF91F4
:104DD000AF919F918F913F912F910F900FBE0F90A8
:104DE0001F9018951F920F920FB60F9211242F93B8
:104DF0003F934F935F936F937F938F939F93AF9363
:104E0000BF93EF93FF93E0910201F09103010995A5
:104E1000FF91EF91BF91AF919F918F917F916F9192
:104E20005F914F913F912F910F900FBE0F901F9068
:104E300018951F920F920FB60F9211242F933F9344
:104E40004F935F936F937F938F939F93AF93BF9392
:104E5000EF93FF93E0910001F09101010995FF911B
:104E6000EF91BF91AF919F918F917F916F915F91E2
:104E70004F913F912F910F900FBE0F901F9018955B
:104E80001F920F920FB60F9211242F933F934F93BF
:104E90005F936F937F938F939F93AF93BF93EF93A2
:104EA000FF938091B900887F803609F49CC068F533
:104EB000883209F45BC090F4803109F454C038F4AE
:104EC000882309F4F2C0883009F44DC0F2C088315B
:104ED00009F44CC0803209F45DC0EBC0803409F4A1
:104EE00068C048F4803309F455C0883309F0E1C044
:104EF0008093C802D4C0803509F44FC0883509F4C6
:104F00005DC0883409F0D5C0D2C0883909F4C3C067
:104F1000A8F4883709F467C038F4883609F463C008
:104F2000803709F460C0C5C0883809F4B4C080393E
:104F300009F45FC0803809F0BCC05BC0803B09F455
:104F400084C038F4803A09F466C0883A09F47DC018
:104F5000B0C0803C09F4A3C0883C09F4A0C0883BE1
:104F600009F486C0A6C08091A50210C09091C70226
:104F70008091C602981770F5E091C70281E08E0F0C
:104F80008093C702F0E0EA55FD4F80818093BB001B
:104F900085EC82C08093C8028AC0E091C70281E09C
:104FA0008E0F8093C7028091BB00F0E0EA55FD4F61
:104FB00080839091C7028091C6026AC0E091C702C7
:104FC00081E08E0F8093C7028091BB00F0E0EA552C
:104FD000FD4F80838091C902811169C081E0809377
:104FE000A40284EA5DC083E08093CA021092780232
:104FF000CFCF80917802803208F04DC0E0917802E6
:1050000081E08E0F809378028091BB00F0E0E85A37
:10501000FD4F8083BDCF85EC8093BC001092CA0207
:1050200080917802803230F4E0917802F0E0E85A22
:10503000FD4F10826091780270E088E592E0E0E038
:10504000F0E009951092780234C084E08093CA029F
:105050001092570210925602E0E0F0E0099580911C
:105060005602811105C081E08093560210923602EB
:10507000E091570281E08E0F80935702F0E0EA5CE6
:10508000FD4F80818093BB00909157028091560222
:10509000981708F47DCF85E88093BC000AC085ECA2
:1050A0008093BC001092CA0204C01092C8020E94F1
:1050B0005A24FF91EF91BF91AF919F918F917F9172
:1050C0006F915F914F913F912F910F900FBE0F9075
:1050D0001F9018958CB58F7B8CBD2B9A2D9A2D988F
:1050E0008CB580648CBD0895DC019596ED91FC91A2
:1050F000969790819B968C918095892380830895C3
:10510000DC019596ED91FC91969790819B968C9100
:10511000892B808308958EBD00000DB407FEFDCF5E
:105120008EB508951F93CF93DF93EC01162F0E9445
:105130007428CE010E946A28812F0E948B28CE01FC
:10514000DF91CF911F910C9480281F93CF93DF9311
:10515000EC01162F0E9474288CB58F7B8CBD2B9888
:105160002D9A2D988CB580648CBD812F0E948B2840
:10517000CE01DF91CF911F910C948028611102C064
:1051800060E201C061E20C94A5281F93CF93DF93E6
:10519000EC01162F66E30E94A5281D8B1130B1F09B
:1051A00068F01230D9F0133021F568E6CE010E9484
:1051B00092288D8D88A38E8D82501AC068ECCE0106
:1051C0000E9492288D8D8F8F8E8D10C068EACE013F
:1051D0000E9492288D8D88A38E8D0AC06CE0CE012E
:1051E0000E9492288D8D8F8F8E8D825088A301C052
:1051F0008F8FDF91CF911F910895EF92FF920F93C0
:105200001F93CF93DF93EC01E62E142FF22E6AE268
:105210000E94A52860E0CE010E9492286F8D6E0D3D
:10522000CE010E94922860E0CE010E9492286F8DEC
:105230006F0DCE010E9492286BE2CE010E94A5283C
:1052400060E0CE010E94922868A1610FCE010E9409
:10525000922860E0CE010E94922868A1600FCE01E2
:105260000E9492286CE2CE01DF91CF911F910F91A5
:10527000FF90EF900C94A528AF92BF92CF92DF924F
:10528000EF92FF920F931F93CF93DF936C0159011D
:10529000E801FC0120853185621773070CF049C0D5
:1052A00082859385481759070CF043C0FB01EA0D2E
:1052B000FB1D2E173F071CF45901A61AB70A9A01C5
:1052C0002C0F3D1F821793071CF4EC01C41BD50B58
:1052D0000FEF040F0C0F2FEF260F2A0DC6010E94AF
:1052E000FD28C6010E9474281C161D06ACF4850119
:1052F000101611067CF4C6010E946A288F2D0E94A8
:105300008B28C6010E946A288E2D0E948B2801508E
:105310001109EECF2197E8CFC601DF91CF911F9100
:105320000F91FF90EF90DF90CF90BF90AF900C94D3
:105330008028DF91CF911F910F91FF90EF90DF9028
:10534000CF90BF90AF900895DF92EF92FF920F93AE
:105350001F93CF93DF937C01E901D02EFC01808560
:105360009185681779078CF5228533854217530795
:1053700064F59B012C0F3D1F821793071CF4EC0171
:10538000C61BD70B2FEF260F2C0F042FC7010E942F
:10539000FD28C7010E947428C701209769F00E9468
:1053A0006A28812F0E948B28C7010E946A288D2DB0
:1053B0000E948B282197F0CFDF91CF911F910F9101
:1053C000FF90EF90DF900C948028DF91CF911F9198
:1053D0000F91FF90EF90DF900895DF92EF92FF9290
:1053E0000F931F93CF93DF937C01E901D02EFC0133
:1053F00080859185681779078CF582859385481794
:10540000590764F59A012C0F3D1F821793071CF46E
:10541000EC01C41BD50B0FEF040F0C0F262FC70197
:105420000E94FD28C7010E947428C701209769F0D7
:105430000E946A28812F0E948B28C7010E946A2837
:105440008D2D0E948B282197F0CFDF91CF911F9156
:105450000F91FF90EF90DF900C948028DF91CF9117
:105460001F910F91FF90EF90DF900895FF920F939F
:105470001F93CF93DF93EC0177FD2CC0888599852E
:10548000681779073CF557FD25C08A859B85481725
:10549000590704F5F32E122F01E0040F21E0260F27
:1054A000CE010E94FD28CE010E947428CE010E94E8
:1054B0006A288F2D0E948B28CE010E946A28812F96
:1054C0000E948B28CE01DF91CF911F910F91FF9009
:1054D0000C948028DF91CF911F910F91FF90089538
:1054E000682F86EE93E00C94CC1B009769F0FC01CA
:1054F00001900020E9F73197AF01481B590BBC011F
:1055000086EE93E00C94802E80E090E008958F92D8
:105510009F92AF92BF920F931F93CF93DF93CDB71C
:10552000DEB7A1970FB6F894DEBF0FBECDBF19A2AC
:10553000423008F44AE08E010F5D1F4F842E912CFB
:10554000A12CB12CA50194010E94C238E62FB9010B
:10555000CA0101501109EA3014F4E05D01C0E95CB0
:10556000D801EC93232B242B252B61F7C8010E9433
:10557000752AA1960FB6F894DEBF0FBECDBFDF919E
:10558000CF911F910F91BF90AF909F908F900895F2
:10559000CF92DF92EF92FF92CF93DF936C01990F3E
:1055A000EE08FF08F7FE17C08DE20E94702AEC019A
:1055B00066277727CB016C197D098E099F094AE080
:1055C0000E94872A8C0F9D1FDF91CF91FF90EF9053
:1055D000DF90CF9008954AE0C701B601DF91CF91E7
:1055E000FF90EF90DF90CF900C94872A0C94752A4F
:1055F0000F931F93CF93DF938C01C0E0D0E0F801AD
:10560000EC0FFD1F6491662341F086EE93E00E944B
:10561000CC1B892B11F02196F2CFCE01DF91CF91D7
:105620001F910F910895BF92CF92DF92EF92FF9258
:105630000F931F93CF93DF93EC017F836E83598782
:105640004887B12C8B81B81608F07DC04A810C8543
:105650001D85E090F202F090F3022A853B858E854D
:105660009F85CB2CD12CE885F9856E817F81800FB9
:10567000911FB4121EC08C9DA0018D9D500D9C9D4C
:10568000500D11244E0F5F1F86EE93E00E943C29BF
:105690008091F2029091F3022091F4023091F50290
:1056A0003093F7032093F6039093F9038093F80364
:1056B0000DC08C9DA0018D9D500D9C9D500D112401
:1056C0004E0F5F1F86EE93E00E94511D2C853D8595
:1056D0008E859F85280F391F2C9DA0012D9D500D73
:1056E0003C9D500D1124888599850296840F951F45
:1056F0002E813F812E5F3F4F3093F3032093F203BF
:105700009093F5038093F403CC0CDD1CE889F989B0
:10571000EC0DFD1D859194910E94F82A8A81B812A2
:1057200010C08091F4029091F5022091F202309124
:10573000F3023093F7032093F6039093F9038093D9
:10574000F803B3947FCFDF91CF911F910F91FF901A
:10575000EF90DF90CF90BF900895EF92FF920F935C
:105760001F93CF938C017B01C22F4093F102609174
:10577000F4027091F50286EE93E00E941425E6EEA5
:10578000F3E088E290E09587848717861686C70144
:105790000E94F62A6C2F70E04CE050E0C8010E9495
:1057A000132B1093F0020093EF02CF911F910F91F2
:1057B000FF90EF9008954F925F926F927F928F9239
:1057C0009F92AF92BF92CF92DF92EF92FF920F9390
:1057D0001F93CF93DF936A01D22F732E602E512E29
:1057E000FA01C4913196E4900FEF060F0E0D2FEFE2
:1057F000280F2C0F462F682F86EE93E00E94FD287D
:10580000F60132964490CE9D7001112486EE93E00D
:105810000E94742800E010E0C0E090E8A92EB12CAE
:10582000E016F106A1F1842C912CC5010C2E02C0CA
:10583000959587950A94E2F78822992286EE93E05F
:105840000E946A288114910411F4852D01C0872DCE
:105850000E948B2886EE93E00E946A28892811F422
:10586000862D01C08D2F0E948B280F5F1F4FC730E0
:1058700010F4CF5FD5CFF80183E0F695E7958A95D0
:10588000E1F73296EC0DFD1D4490C0E0C9CF86EEE5
:1058900093E0DF91CF911F910F91FF90EF90DF90F8
:1058A000CF90BF90AF909F908F907F906F905F90C0
:1058B0004F900C948028EF92FF920F931F93CF93F9
:1058C000DF93EC016E8788E08F87EA88FB8809897F
:1058D00010E0288930E070E048E050E086EE93E088
:1058E0000E94511DCE01DF91CF911F910F91FF902A
:1058F000EF900C94AA2590E0FC01E758F94D249113
:10590000FC01EB59F94D8491882399F090E0880FC0
:10591000991FFC01E55AF94DA591B491FC01EF5A8C
:10592000F94D859194918FB7F894EC91E22BEC931B
:105930008FBF0895CF93DF93EC0185E00E947B2C0D
:10594000209711F460E004C0CF3FD10531F461E04D
:1059500085E0DF91CF910C941926E2E4F6E2E49120
:10596000E330F9F048F4E130B9F0E230A1F584B564
:10597000806284BDC8BD34C0E730E9F0E83019F179
:10598000E43049F580918000806280938000D0935C
:105990008B00C0938A0024C084B5806884BDC7BDD5
:1059A0001FC080918000806880938000D093890020
:1059B000C093880015C08091B00080688093B000CB
:1059C000C093B3000DC08091B00080628093B0009E
:1059D000C093B40005C0C038D1050CF0B8CFB2CF29
:1059E000DF91CF9108952F923F924F925F927F92D5
:1059F0008F929F92AF92BF92CF92DF92EF92FF92DF
:105A00000F931F93CF93DF93CDB7DEB72C970FB6CD
:105A1000F894DEBF0FBECDBF4A013C872B870B83B6
:105A20001C83ED82FE824091EE035091EF038417B8
:105A300095070CF0A8C02091F0033091F103621794
:105A400073070CF0A0C0FC01E80DF91D4E175F07AD
:105A50001CF44A01881A990A4B855C85460F571F2A
:105A6000241735072CF4A901461B570B5C874B877D
:105A70005B8559838A820FEF060F050F2FEF280FE2
:105A8000280D462F682F86EE93E00E94FD2886EEB3
:105A900093E00E9474284B855C854A195B095887FE
:105AA0004F83222433242A183B0824014C185D0814
:105AB000882799278C199D099A878987E9809B8572
:105AC000E91A2B853C85121613060CF041C084019F
:105AD000F12C8A81801B101611069CF590E0D7FEF0
