:100000000C9430100C9482270C945B270C9458109D
:100010000C941F190C9415190C9458100C9458102A
:100020000C9458100C9458100C9458100C945810B0
:100030000C9458100C9458100C9458100C945810A0
:100040000C9415270C9458100C9450260C942A26C6
:100050000C9458100C9458100C9458100C94581080
:100060000C94A61F0C94581076138E130C144C1479
:100070007E14EE143115C418D618C618C918CC1839
:10008000CF18D21807634236B79BD8A71A396856DB
:1000900018AEBAAB558C1D3CB7CC5763BD6DEDFDAA
:1000A000753EF6177231BF000000803F0800000067
:1000B000BE922449123EABAAAA2ABECDCCCC4C3E5D
:1000C00000000080BEABAAAAAA3E00000000BF004C
:1000D0000000803F0000000000084178D3BB438748
:1000E000D1133D190E3CC3BD4282AD2B3E68EC825C
:1000F00076BED98FE1A93E4C80EFFFBE01C4FF7FE1
:100100003F000000000056657273696F6E3A200070
:1001100053657474696E67732032000C07FFE8033F
:10012000AA9AA9AA9803FFE0150180961180FAB156
:1001300003012C2DB203012C2DB306012C2D012C13
:100140002DB40107C003A20284C101C5C2020A0086
:10015000C3028A2AC4028AEEC5010E20003601C8F5
:100160003A01052A040000007F2B040000007FE014
:1001700010021C07123732292D29252B39000103C3
:1001800010E110031D07062E2C292D2E2E373F00BF
:1001900000021013800A298064556E6B436D640061
:1001A00078302E31000B0B04088882070191BAC702
:1001B000C070208888100040100000000000FFDFA1
:1001C000FF000000FFDFFFDFFF00FFBFFFBFFFBF3B
:1001D000FF3FFFBFFFBFFFBFFFFFFFBFFFBFFFBF6F
:1001E000FFFFFFBFFFBFFFBFFFFFFF7FFF7FFF7F5F
:1001F000FFFFFF7FFF7FFF7FFFFFFF7FFF7FFF7F0F
:10020000FFFFFEFFFEFFFEFFFFFFFEFFFEFFFEFF04
:10021000FFFFFEFFFEFFFEFFFFFFFEFFFEFFFEFFF4
:10022000FFFFFDFFFDFFFDFFFFFFFDFFFDFFFDFFEA
:10023000FFFFFDFFFDFFFDFFFF4010FFFBFF000084
:10024000000000FFFBFFFBFF000000FFFDFFFDFFC4
:10025000FDFF00FFFDFFFDFFFDFFFCFFFDFFFDFFBC
:10026000FDFFFFFFFDFFFDFFFDFFFFFFFEFFFEFFA8
:10027000FEFFFFFFFEFFFEFFFEFFFFFFFEFFFEFF94
:10028000FEFFFFFFFF7FFF7FFF7FFFFFFF7FFF7FFF
:10029000FF7FFFFFFF7FFF7FFF7FFFFFFF7FFF7F6E
:1002A000FF7FFFFFFFBFFFBFFFBFFFFFFFBFFFBF1E
:1002B000FFBFFFFFFFBFFFBFFFBFFF2626000000FD
:1002C00000FC00000007F00000003FC0000001FF3C
:1002D0000000000FFC0000007FF0000003FFC000E2
:1002E000001FFF000000FEFC000007F3F000003FCD
:1002F0008FC00001FC3F00000FE0FC00000003F095
:100300000000000FC00000003F00000000FC0000E3
:100310000003F00000000FC00000003F00000000DC
:10032000FC00000003F00000000FC00000003F00D0
:10033000000000FC00000003F00000000FC00000FF
:10034000003F00000000FC00000003F00000000F70
:10035000C00000003F00000000FC00000003F000AF
:1003600000000FC00000003F00000000FC00000083
:1003700003F026260FFFFFFFC07FFFFFFF83FFFF75
:10038000FFFF1FFFFFFFFEFFFFFFFFFFFFFFFFFF5E
:10039000FFC000003FFF000001FFFC00000FFFF066
:1003A00000007FFFC00007FFFF00003FFFFC0001CF
:1003B000FEFFF0000FF3FFC000FF8FFF0007F83FC4
:1003C000FC003FC0FFF001FE03FFC00FF00FFF0075
:1003D000FF803FFC07F800FFF03FC003FFC1FE00B5
:1003E0000FFF0FF0003FFCFF8000FFF7F80003FF56
:1003F000FFC0000FFFFE00003FFFF00000FFFF8086
:100400000003FFF800000FFFC000003FFFFFFFFFE9
:10041000FFFFFFFFFFF7FFFFFFFF8FFFFFFFFC1F47
:10042000FFFFFFE03FFFFFFF002626000000000067
:1004300000000FC00000007F00000003FC0000006F
:100440001FF0000000FFC0000007FF0000003FFC9D
:10045000000001FFF000000FEFC000007F3F000030
:1004600003F8FC00001FC3F00000FE0FC0000000F6
:100470003F00000000FC00000003F00000000FC07F
:100480000000003F00000000FC00000003F000003E
:10049000000FC00000003F00000000FC000000034F
:1004A000F00000000FC00000003F00000000FC0052
:1004B000000003F00000000FC00000003F0000003B
:1004C00000FC00000003F00000000FC00000003F2F
:1004D00000000000FC00000003F00000000FC0005E
:1004E00026260FFFFFFFC07FFFFFFF83FFFFFFFFF9
:1004F0001FFFFFFFFEFFFFFFFFFFFFFFFFFFFFC02C
:1005000000000FFF0000003FFC000000FC000000A6
:1005100003F00000000FC00000003F00000000FCDE
:1005200000000003F00000000FC00000003F0FFFBC
:10053000FFFFFC7FFFFFFFF3FFFFFFFF9FFFFFFFBA
:10054000FEFFFFFFFFF3FFFFFFFF0FC00000003FB4
:1005500000000000FC00000003F00000000FC000DD
:1005600000003F00000000FC00000003F00000005D
:100570000FC00000003F00000000FFFFFFFFFFFF73
:10058000FFFFFFFFFFFFFFFFFFFFFFFFFFFFFFFF7B
:10059000FFFFFFFFFFFFF026260FFFFFFF807FFF1B
:1005A000FFFF03FFFFFFFE1FFFFFFFFCFFFFFFFF3B
:1005B000FBFFFFFFFFEFC000001FBF0000007EFC3D
:1005C000000001F800000007E00000001F800000AC
:1005D000007E00000001F800000007E00000001F9E
:1005E000800000007E01FFFFFFF807FFFFFFC01F34
:1005F000FFFFFF807FFFFFFF01FFFFFFFC07FFFF03
:10060000FFF000000007C00000001F000000007C99
:1006100000000001F000000007C00000001F000003
:1006200000007C00000001FFC0000007FF00000088
:100630001FFFFFFFFFFFFFFFFFFFF7FFFFFFFFDFD2
:10064000FFFFFFFE3FFFFFFFF03FFFFFFF8026267B
:100650000000007F00000003FC0000001FF000000D
:1006600000FFC0000007FF0000003FFC000001FF8A
:10067000F000000FFFC00000FFFF000007FEFC00BD
:10068000003FF3F00001FF8FC0000FF83F00007F34
:10069000C0FC0003FE03F0001FF00FC001FF003F8D
:1006A000000FF800FC007FC003F003FC000FC01F28
:1006B000E0003F00FF0000FC07FFFFFFFFDFFFFF40
:1006C000FFFF7FFFFFFFFDFFFFFFFFF7FFFFFFFFC4
:1006D000DFFFFFFFFF0000003F00000000FC000004
:1006E0000003F00000000FC00000003F0000000009
:1006F000FC00000003F00000000FC00000003F00FD
:10070000000000FC002626FFFFFFFFFFFFFFFFFFAA
:10071000FFFFFFFFFFFFFFFFFFFFFFFFFFFFFFFFE9
:10072000FFFFFFFFC00000003F00000000FC0000D2
:100730000003F00000000FC00000003F00000000B8
:10074000FC00000003F00000000FC00000003FFFAD
:10075000FFFFF0FFFFFFFFE3FFFFFFFFCFFFFFFF04
:10076000FFBFFFFFFFFFFFFFFFFFFC00000003F0E4
:100770000000000FC00000003F00000000FC00006F
:100780000003F00000000FC00000003F0000000068
:10079000FFF0000003FFC000000FFF0000003FFF5C
:1007A000FFFFFFFFFFFFFFFFF7FFFFFFFF8FFFFFD1
:1007B000FFFC1FFFFFFFE03FFFFFFF0026260FFFAC
:1007C000FFFF007FFFFFFC03FFFFFFF01FFFFFFFA6
:1007D000C0FFFFFFFF03FFFFFFFC0FC00000003F53
:1007E00000000000FC00000003F00000000FC0004B
:1007F00000003F00000000FC00000003F0000000CB
:100800000FC00000003FFFFFFFF0FFFFFFFFE3FF0F
:10081000FFFFFFCFFFFFFFFFBFFFFFFFFFFFFFFF58
:10082000FFFFF0000003FFC000000FFF0000003FCB
:10083000FC000000FFF0000003FFC000000FFF00FD
:1008400000003FFC000000FFF0000003FFC00000BC
:100850000FFF0000003FFFFFFFFFFFFFFFFFFFF75D
:10086000FFFFFFFF8FFFFFFFFC1FFFFFFFE03FFFCA
:10087000FFFF00262603FFFFFF800FFFFFFF803FE3
:10088000FFFFFF00FFFFFFFE03FFFFFFFC0FFFFF67
:10089000FFF00000000FC00000003F00000000FC5F
:1008A00000000003F00000000FC00000003F000047
:1008B0000000FC00000003F00000000FC00000007A
:1008C0003F00000000FC00000003F00000000FC02B
:1008D0000000003F00000000FC00000003F00000EA
:1008E000000FC00000003F00000000FC00000003FB
:1008F000F00000000FC00000003F00000000FC00FE
:10090000000003F00000000FC00000003F000000E6
:1009100000FC00000003F00000000FC00000003FDA
:1009200000000000FC00000003F026260FFFFFFF80
:10093000C07FFFFFFF83FFFFFFFF1FFFFFFFFEFFE3
:10094000FFFFFFFFFFFFFFFFFFC000000FFF0000E2
:10095000003FFC000000FFF0000003FFC000000F9C
:10096000FF0000003FFC000000FFF0000003FFC09C
:1009700000000FFF0000003FFFFFFFFFFDFFFFFF34
:10098000FFE7FFFFFFFF9FFFFFFFFEFFFFFFFFFFF0
:10099000F0000003FFC000000FFF0000003FFC005C
:1009A0000000FFF0000003FFC000000FFF00000088
:1009B0003FFC000000FFF0000003FFC000000FFF3D
:1009C0000000003FFFFFFFFFFFFFFFFFFFF7FFFFFC
:1009D000FFFF8FFFFFFFFC1FFFFFFFE03FFFFFFF59
:1009E0000026260FFFFFFFC07FFFFFFF83FFFFFFF3
:1009F000FF1FFFFFFFFEFFFFFFFFFFFFFFFFFFFFE8
:100A0000C000000FFF0000003FFC000000FFF000EE
:100A10000003FFC000000FFF0000003FFC000000CB
:100A2000FFF0000003FFC000000FFF0000003FFFC9
:100A3000FFFFFFFFFFFFFFFFF7FFFFFFFFDFFFFFEE
:100A4000FFFF3FFFFFFFFC3FFFFFFFF00000000F35
:100A5000C00000003F00000000FC00000003F000A8
:100A600000000FC00000003F00000000FC0000007C
:100A700003F00000000FC00000003FFFFFFFFFFF7A
:100A8000FFFFFFFFF7FFFFFFFF8FFFFFFFFC1FFFD1
:100A9000FFFFE03FFFFFFF002626000000000000F0
:100AA0000000000000000000000000000000000046
:100AB0000000000000000000000000000000000036
:100AC0000000000000000000000000000000000026
:100AD0000000000000000000000000000000000016
:100AE00000000000000000FFFFFC0003FFFFF0001B
:100AF0000FFFFFC0003FFFFF0000FFFFFC0003FFF0
:100B0000FFF00000000000000000000000000000F6
:100B100000000000000000000000000000000000D5
:100B200000000000000000000000000000000000C5
:100B300000000000000000000000000000000000B5
:100B4000000000000000000000000000000000267F
:100B500026000FC00000007F00000003FC00000022
:100B60001FF0000000FFC0000007FF0000003FFC76
:100B7000000001FFF000000FEFC000007F3F000009
:100B800003F8FC00001FC3F00000FE0FC0000000CF
:100B90003F00000000FC00000003F00000000FC058
:100BA0000000003F00000000FC00000003F0000017
:100BB000000FC00000003F00000000FC0000000328
:100BC000F00000000FC00000003F00000000FC002B
:100BD000000003F00000000FC00000003F00000014
:100BE00000FC00000003F00000000FC00000003F08
:100BF00000000000FC00000003F00000000FC00037
:100C000000003F000000303007FFFFFFFFF00FFF44
:100C1000FFFFFFF81FFFFFFFFFFC3FFFFFFFFFFE8F
:100C20003FFFFFFFFFFE7FFFFFFFFFFF7F00000092
:100C300003FF7F00000007FF7F0000000FFF7F0021
:100C400000001FFF7F0000003FFF7F000000FFFF4C
:100C50007F000001FFFF7F000003FFFF7F00000710
:100C6000FF7F7F00000FFE7F7F00001FFC7F7F0063
:100C7000007FF07F7F0000FFE07F7F0001FFC07FEB
:100C80007F0003FF807F7F0007FF007F7F000FFE54
:100C9000007F7F003FFC007F7F007FF0007F7F00B0
:100CA000FFE0007F7F01FFC0007F7F03FF80007FA8
:100CB0007F07FF00007F7F1FFE00007F7F3FF8005F
:100CC000007F7F7FF000007F7FFFE000007F7FFFDD
:100CD000C000007F7FFF8000007F7FFF0000007F5B
:100CE0007FFC0000007F7FF80000007F7FF00000A5
:100CF000007F7FE00000007F7FFFFFFFFFFF3FFFDF
:100D0000FFFFFFFE3FFFFFFFFFFE1FFFFFFFFFFC98
:100D10000FFFFFFFFFF807FFFFFFFFF001FFFFFFDF
:100D2000FFC000000000000030300000000001FFA4
:100D30000000000003FF0000000003FF00000000AF
:100D400007FF000000000FFF000000001FFF000071
:100D500000003FFF000000007FFF000000007FFF59
:100D600000000000FFFF00000001FF7F0000000303
:100D7000FE7F00000007FE7F0000000FFC7F0000E8
:100D8000000FF87F0000001FF07F00000000007FD0
:100D900000000000007F00000000007F0000000055
:100DA000007F00000000007F00000000007F0000C6
:100DB0000000007F00000000007F00000000007FB6
:100DC00000000000007F00000000007F0000000025
:100DD000007F00000000007F00000000007F000096
:100DE0000000007F00000000007F00000000007F86
:100DF00000000000007F00000000007F00000000F5
:100E0000007F00000000007F00000000007F000065
:100E10000000007F00000000007F00000000007F55
:100E200000000000007F00000000007F00000000C4
:100E3000007F00000000007F00000000007F000035
:100E40000000007F00000000007F303001FFFFFF46
:100E5000FFC007FFFFFFFFF01FFFFFFFFFF81FFFAF
:100E6000FFFFFFFC3FFFFFFFFFFE3FFFFFFFFFFE17
:100E70007FFFFFFFFFFF7F000000007F7F0000007B
:100E8000007F7F000000007F7F000000007F0000E7
:100E90000000007F00000000007F00000000007FD5
:100EA00000000000007F00000000007F0000000044
:100EB000007F00000000007F00000000007F0000B5
:100EC0000000007F00000000007F01FFFFFFFFFF28
:100ED00007FFFFFFFFFE0FFFFFFFFFFE1FFFFFFFEC
:100EE000FFFC3FFFFFFFFFF83FFFFFFFFFF07FFF2B
:100EF000FFFFFFC07F00000000007F000000000037
:100F00007F00000000007F00000000007F00000064
:100F100000007F00000000007F00000000007F0054
:100F2000000000007F00000000007F0000000000C3
:100F30007F00000000007F00000000007F00000034
:100F400000007FFFFFFFFFFF7FFFFFFFFFFF7FFF2F
:100F5000FFFFFFFF7FFFFFFFFFFF7FFFFFFFFFFFA1
:100F60007FFFFFFFFFFF7FFFFFFFFFFF303001FF2D
:100F7000FFFFFF0007FFFFFFFFC01FFFFFFFFFE0B6
:100F80001FFFFFFFFFF03FFFFFFFFFF83FFFFFFFE7
:100F9000FFF87FFFFFFFFFFC7F00000001FC7F00E8
:100FA000000001FC7F00000001FC7F00000001FC4C
:100FB0000000000001FC0000000001FC0000000037
:100FC00001FC0000000001FC0000000001FC00002A
:100FD000000001FC0000000001FC0000000001FC1A
:100FE0000000000001FC007FFFFFFFFC007FFFFF0F
:100FF000FFF8007FFFFFFFF8007FFFFFFFFC007F8F
:10100000FFFFFFFE007FFFFFFFFE007FFFFFFFFFF0
:1010100000000000007F00000000007F00000000D2
:10102000007F00000000007F00000000007F000043
:101030000000007F00000000007F00000000007F33
:1010400000000000007F00000000007F7F00000023
:10105000007F7F000000007F7F000000007F7F8016
:101060000000007F7FFFFFFFFFFF3FFFFFFFFFFE4E
:101070003FFFFFFFFFFE1FFFFFFFFFFC0FFFFFFF14
:10108000FFF807FFFFFFFFF001FFFFFFFFC0303059
:10109000000000007F8000000000FF8000000001D1
:1010A000FF8000000003FF8000000007FF800000B9
:1010B000000FFF800000001FFF800000003FFF8046
:1010C0000000007FFF80000000FFFF80000001FFA4
:1010D000FF80000007FFFF8000000FFFBF800000BF
:1010E0001FFE3F8000003FFC3F8000007FF83F80F4
:1010F0000000FFF03F800001FFE03F800003FF8021
:101100003F800007FF003F80000FFE003F80001F70
:10111000FC003F80007FF8003F8000FFF0003F8030
:1011200001FFC0003F8003FF80003F8007FF0000F9
:101130003F800FFE00003F801FFC00003F801FFF2C
:10114000FFFFFFFF1FFFFFFFFFFF1FFFFFFFFFFF6F
:101150001FFFFFFFFFFF1FFFFFFFFFFF1FFFFFFF3F
:10116000FFFF1FFFFFFFFFFF000000003F800000A8
:1011700000003F80000000003F80000000003F8032
:10118000000000003F80000000003F8000000000E1
:101190003F80000000003F80000000003F80000012
:1011A00000003F80000000003F80000000003F8002
:1011B00030307FFFFFFFFFFF7FFFFFFFFFFF7FFF5D
:1011C000FFFFFFFF7FFFFFFFFFFF7FFFFFFFFFFF2F
:1011D0007FFFFFFFFFFF7FFFFFFFFFFF7F0000009C
:1011E00000007F00000000007F00000000007F0082
:1011F000000000007F00000000007F0000000000F1
:101200007F00000000007F00000000007F00000061
:1012100000007F00000000007F00000000007F0051
:10122000000000007F00000000007FFFFFFFFFC004
:101230007FFFFFFFFFF07FFFFFFFFFF87FFFFFFF54
:10124000FFFC7FFFFFFFFFFE7FFFFFFFFFFE7FFF33
:10125000FFFFFFFF00000000007F00000000007F94
:1012600000000000007F00000000007F0000000080
:10127000007F00000000007F00000000007F0000F1
:101280000000007F00000000007F00000000007FE1
:101290007F000000007F7F000000007F7F000000D3
:1012A000007F7F000000007F7FFFFFFFFFFF3FFF09
:1012B000FFFFFFFE3FFFFFFFFFFE1FFFFFFFFFFCE3
:1012C0001FFFFFFFFFF807FFFFFFFFF001FFFFFF1A
:1012D000FFC0303001FFFFFFFF0007FFFFFFFF00EF
:1012E0000FFFFFFFFF001FFFFFFFFF003FFFFFFF9C
:1012F000FF003FFFFFFFFF007FFFFFFFFF007F00BA
:10130000000000007F00000000007F0000000000DF
:101310007F00000000007F00000000007F00000050
:1013200000007F00000000007F00000000007F0040
:10133000000000007F00000000007F0000000000AF
:101340007F00000000007F00000000007FFFFFFF23
:10135000FFC07FFFFFFFFFF07FFFFFFFFFF87FFF72
:10136000FFFFFFFC7FFFFFFFFFFE7FFFFFFFFFFE92
:101370007FFFFFFFFFFF7F000000007F7F00000076
:10138000007F7F000000007F7F000000007F7F0063
:101390000000007F7F000000007F7F000000007FD2
:1013A0007F000000007F7F000000007F7F000000C2
:1013B000007F7F000000007F7F000000007F7F0033
:1013C0000000007F7F000000007F7FFFFFFFFFFF26
:1013D0003FFFFFFFFFFE3FFFFFFFFFFE1FFFFFFF7F
:1013E000FFFC0FFFFFFFFFF807FFFFFFFFF001FF0C
:1013F000FFFFFFC03030007FFFFFFFC0007FFFFF17
:10140000FFF0007FFFFFFFF8007FFFFFFFFC007F82
:10141000FFFFFFFE007FFFFFFFFE007FFFFFFFFFDC
:1014200000000000007F00000000007F00000000BE
:10143000007F00000000007F00000000007F00002F
:101440000000007F00000000007F00000000007F1F
:1014500000000000007F00000000007F000000008E
:10146000007F00000000007F00000000007F0000FF
:101470000000007F00000000007F00000000007FEF
:1014800000000000007F00000000007F000000005E
:10149000007F00000000007F00000000007F0000CF
:1014A0000000007F00000000007F00000000007FBF
:1014B00000000000007F00000000007F000000002E
:1014C000007F00000000007F00000000007F00009F
:1014D0000000007F00000000007F00000000007F8F
:1014E00000000000007F00000000007F00000000FE
:1014F000007F00000000007F00000000007F00006F
:101500000000007F00000000007F00000000007F5E
:1015100000000000007F303001FFFFFFFFC007FF29
:10152000FFFFFFF00FFFFFFFFFF81FFFFFFFFFFCB4
:101530003FFFFFFFFFFE3FFFFFFFFFFE7FFFFFFFBD
:10154000FFFF7F000000007F7F000000007F7F0022
:101550000000007F7F000000007F7F000000007F10
:101560007F000000007F7F000000007F7F00000000
:10157000007F7F000000007F7F000000007F7F0071
:101580000000007F7F000000007F7F000000007FE0
:101590007F000000007F3FFFFFFFFFFE3FFFFFFFD8
:1015A000FFFE3FFFFFFFFFFE3FFFFFFFFFFE3FFF8E
:1015B000FFFFFFFE7FFFFFFFFFFF7F000000007FB8
:1015C0007F000000007F7F000000007F7F000000A0
:1015D000007F7F000000007F7F000000007F7F0011
:1015E0000000007F7F000000007F7F000000007F80
:1015F0007F000000007F7F000000007F7F00000070
:10160000007F7F000000007F7F000000007F7FFFE1
:10161000FFFFFFFF3FFFFFFFFFFE3FFFFFFFFFFE5C
:101620001FFFFFFFFFFC0FFFFFFFFFF807FFFFFF9C
:10163000FFF001FFFFFFFFC0303003FFFFFFFFC0DF
:101640000FFFFFFFFFF01FFFFFFFFFF83FFFFFFF50
:10165000FFFC7FFFFFFFFFFE7FFFFFFFFFFEFFFF9F
:10166000FFFFFFFFFE000000007FFE000000007F84
:10167000FE000000007FFE000000007FFE00000072
:10168000007FFE000000007FFE000000007FFE00E3
:101690000000007FFE000000007FFE000000007FD1
:1016A000FE000000007FFE000000007FFE00000042
:1016B000007FFE000000007FFFFFFFFFFFFF7FFFB6
:1016C000FFFFFFFF7FFFFFFFFFFF3FFFFFFFFFFF6A
:1016D0001FFFFFFFFFFF0FFFFFFFFFFF03FFFFFFE6
:1016E000FFFF00000000007F00000000007F0000FE
:1016F0000000007F00000000007F00000000007F6D
:1017000000000000007F00000000007F00000000DB
:10171000007F00000000007F00000000007F00004C
:101720000000007F00000000007F00000000007F3C
:10173000FFFFFFFFFFFFFFFFFFFFFFFE7FFFFFFF3A
:10174000FFFE3FFFFFFFFFFC3FFFFFFFFFF80FFF24
:10175000FFFFFFF003FFFFFFFFC03030000000007D
:101760000000000000000000000000000000000079
:101770000000000000000000000000000000000069
:101780000000000000000000000000000000000059
:101790000000000000000000000000000000000049
:1017A0000000000000000000000000000000000039
:1017B0000000000000000000000000000000000029
:1017C0000000000000000000000000000000000019
:1017D00000000000000000000000001FFFFFF800F4
:1017E000001FFFFFF800001FFFFFF800001FFFFFB2
:1017F000F800001FFFFFF800001FFFFFF800001FA8
:10180000FFFFF800000000000000000000000000E2
:1018100000000000000000000000000000000000C8
:1018200000000000000000000000000000000000B8
:1018300000000000000000000000000000000000A8
:101840000000000000000000000000000000000098
:101850000000000000000000000000000000000088
:101860000000000000000000000000000000000078
:101870000000000000000000000000003030000FF9
:10188000F8000000001FF8000000001FF800000032
:10189000003FF8000000007FF800000000FFF800A3
:1018A000000001FFF800000003FFF800000003FF44
:1018B000F800000007FFF80000000FFBF800000030
:1018C0001FF3F80000003FF3F80000007FE3F8008A
:1018D00000007FC3F8000000FF83F8000000000351
:1018E000F80000000003F80000000003F80000000A
:1018F0000003F80000000003F80000000003F800F7
:1019000000000003F80000000003F80000000003DE
:10191000F80000000003F80000000003F8000000D9
:101920000003F80000000003F80000000003F800C6
:1019300000000003F80000000003F80000000003AE
:10194000F80000000003F80000000003F8000000A9
:101950000003F80000000003F80000000003F80096
:1019600000000003F80000000003F800000000037E
:10197000F80000000003F80000000003F800000079
:101980000003F80000000003F80000000003F80066
:1019900000000003F80000000003F800000053748A
:1019A000616E64616C6F6E65203976004C69506FB2
:1019B0002031312E3476004C69506F20372E34762A
:1019C000004E694D4820392E367620382D63656CDF
:1019D0006C004E694D4820382E347620372D6365D3
:1019E0006C6C0052617720766F6C746167650043A0
:1019F0006F756E7420646972656374696F6E0041FF
:101A00006D6D6F20636F6C6F722028312F3329004A
:101A1000416D6D6F20636F6C6F722028322F3329F8
:101A200000416D6D6F20636F6C6F72202846756C7E
:101A30006C29004261636B67726F756E6420636F1F
:101A40006C6F7200554920436F6C6F7200526F7457
:101A500061746520554920393020646772730036FF
:101A60003A00353A00343A00333A00323A00313A1B
:101A7000003C3C204261636B004E657874207061CD
:101A800067650053617665206272696768746E6588
:101A90007373004261747465727920736574757034
:101AA0000055492053657474696E677300536574FB
:101AB0002074696D65004D616E61676520507265C7
:101AC00073657473003C3C20536176652026204585
:101AD0007869740000000008000201000003040798
:101AE00000000000000000000000000025002800A9
:101AF0002B0000000000240027002A000404040436
:101B000004040404020202020202030303030303A7
:101B10000102040810204080010204081020010284
:101B200004081020E319D219C119B719AC199E196C
:101B3000711AEF19711A4D1A441A331A211A101A10
:101B4000FF19711A6E1A6B1A681A651A621A5F1AEF
:101B5000C51AB61AAD1AA11A931A831A791A000077
:101B60000000003E5B4F5B3E3E6B4F6B3E1C3E7C7D
:101B70003E1C183C7E3C181C577D571C1C5E7F5E2B
:101B80001C00183C1800FFE7C3E7FF0018241800EA
:101B9000FFE7DBE7FF30483A060E26297929264081
:101BA0007F050507407F05253F5A3CE73C5A7F3EAD
:101BB0001C1C08081C1C3E7F14227F22145F5F003F
:101BC0005F5F06097F017F006689956A60606060DB
:101BD0006094A2FFA29408047E040810207E2010C6
:101BE00008082A1C08081C2A08081E101010100CCF
:101BF0001E0C1E0C30383E3830060E3E0E0600001D
:101C000000000000005F00000007000700147F14C0
:101C10007F14242A7F2A122313086462364956202F
:101C2000500008070300001C2241000041221C0054
:101C30002A1C7F1C2A08083E080800807030000813
:101C400008080808000060600020100804023E51E7
:101C500049453E00427F4000724949494621414979
:101C60004D331814127F1027454545393C4A4949E0
:101C70003141211109073649494936464949291E4A
:101C80000000140000004034000000081422411439
:101C900014141414004122140802015909063E418B
:101CA0005D594E7C1211127C7F494949363E4141B3
:101CB00041227F4141413E7F494949417F0909090C
:101CC000013E414151737F0808087F00417F410078
:101CD0002040413F017F081422417F404040407F27
:101CE000021C027F7F0408107F3E4141413E7F0974
:101CF0000909063E4151215E7F09192946264949B5
:101D0000493203017F01033F4040403F1F204020F4
:101D10001F3F4038403F63140814630304780403F2
:101D20006159494D43007F414141020408102000A0
:101D30004141417F04020102044040404040000311
:101D400007080020545478407F28444438384444DD
:101D50004428384444287F385454541800087E09D5
:101D60000218A4A49C787F0804047800447D4000F5
:101D70002040403D007F1028440000417F40007C0F
:101D8000047804787C080404783844444438FC1807
:101D900024241818242418FC7C08040408485454EB
:101DA000542404043F44243C4040207C1C20402018
:101DB0001C3C4030403C44281028444C9090907C7F
:101DC0004464544C44000836410000007700000091
:101DD0004136080002010204023C2623263C1EA1D3
:101DE000A161123A4040207A385454555921555532
:101DF00079412254547842215554784020545579E1
:101E0000400C1E5272123955555559395454545973
:101E100039555454580000457C410002457D42002C
:101E200001457C407D1211127DF0282528F07C545C
:101E30005545002054547C547C0A097F4932494955
:101E400049323A4444443A324A4848303A414121BE
:101E50007A3A42402078009DA0A07D3D4242423D1A
:101E60003D4040403D3C24FF2424487E4943662BAE
:101E70002FFC2F2BFF0929F620C0887E0903205450
:101E80005479410000447D413048484A323840404E
:101E9000227A007A0A0A727D0D19317D2629292FAE
:101EA00028262929292630484D40203808080808C6
:101EB00008080808382F10C8ACBA2F102834FA00C8
:101EC000007B000008142A142222142A140855004A
:101ED000550055AA55AA55AAFF55FF55FF00000009
:101EE000FF00101010FF00141414FF001010FF006A
:101EF000FF1010F010F0141414FC001414F700FF7D
:101F00000000FF00FF1414F404FC141417101F1039
:101F1000101F101F1414141F00101010F0000000E8
:101F2000001F101010101F10101010F010000000F3
:101F3000FF101010101010101010FF10000000FF04
:101F4000140000FF00FF00001F10170000FC04F445
:101F500014141710171414F404F40000FF00F714FD
:101F6000141414141414F700F71414141714101084
:101F70001F101F141414F4141010F010F000001FA0
:101F8000101F0000001F14000000FC140000F010DF
:101F9000F01010FF10FF141414FF141010101F0085
:101FA000000000F010FFFFFFFFFFF0F0F0F0F0FF87
:101FB000FFFF0000000000FFFF0F0F0F0F0F38445E
:101FC000443844FC4A4A4A347E02020606027E0233
:101FD0007E0263554941633844443C04407E201EE0
:101FE0002006027E020299A5E7A5991C2A492A1C0F
:101FF0004C7201724C304A4D4D303048784830BCFC
:10200000625A463D3E494949007E0101017E2A2A25
:102010002A2A2A44445F444440514A444040444AA6
:1020200051400000FF0103E080FF000008086B6BD7
:10203000083612362436060F090F0600001818005D
:1020400000001010003040FF0101001F01011E00C0
:10205000191D1712003C3C3C3C0000000000F53408
:1020600011241FBECFEFD8E0DEBFCDBF11E0A0E04E
:10207000B1E0ECEBF8E702C005900D92A03EB1078D
:10208000D9F724E0A0EEB1E001C01D92AE3CB2074A
:10209000E1F710E1C0E3D0E104C02197FE010E9406
:1020A0003D3CCF32D107C9F70E947C2D0C945C3C9B
:1020B0000C940000F8944B9913C08091E0018111B9
:1020C00011C08091F2019091F30101979093F30177
:1020D0008093F20181E08093F5018093E00102C0DA
:1020E0001092E0017894089508950895EF92FF9278
:1020F0000F931F934091E7012091E3013091E40198
:10210000423069F0433021F04130B1F4207E0EC0FE
:102110003770982F8827990F990F990F07C02F7143
:10212000387F45E0880F991F4A95E1F7822B932B62
:102130009093E4018093E301E090E301F090E401E7
:1021400008E110E028E130E040E150E068E570E0AF
:1021500080E794E00E9451291F910F91FF90EF902A
:10216000089586EF93E09093E6018093E501AEE356
:10217000B4E012968D919C911397E0E7F4E02D91D5
:102180003C91318B208B938B828B8091E70190E087
:10219000019724E0880F991F2A95E1F72BE230E0A0
:1021A000A901481B590B5587448782E790E0978720
:1021B00086878FE60C94AC21AEE3B4E012962D91A5
:1021C0003C911397E0E7F4E04D915C91518B408B8B
:1021D000338B228BA6E2B4E01E964D915C911F9743
:1021E00050962D913C915197420F531F14962C916C
:1021F0001497249FB001259F700D11241A962D91DC
:102200003C911B972E5F3F4F260F371F4AE550E04A
:102210005587448737872687BC0180E090E04AE0F5
:102220000E944D2280E20C94AC218093E701813022
:1022300061F090F0823031F0833009F049C02EED2A
:1022400033E005C026EC33E002C02EEA33E03093E1
:10225000E6012093E5013CC0E091E101F091E2014B
:102260008091E3019091E4019183808385E08093E4
:10227000F601609140047091410480E794E00E946F
:102280000B2680913E0490913F04909383048093A9
:102290008204909381048093800488E290E090937C
:1022A0007D0480937C0410927F0410927E0483E866
:1022B00091E00E94482268E070E08EEF93E00E9477
:1022C000B1218EEF93E09093E6018093E5010895AC
:1022D000209140043091410440913E0450913F04CC
:1022E00050938104409380043093830420938204AC
:1022F00090E0019724E0880F991F2A95E1F72BE2DF
:1023000030E0A901481B590B50937D0440937C0495
:1023100082E790E090937F0480937E048EE50C9496
:10232000AC21EF92FF920F931F93CF93DF93EC01B9
:1023300080912A0490E0FC01EE0FFF1FEA5BFB4F47
:10234000D183C08326E234E03093E6012093E50197
:10235000E0904004F09041044091340450913504E1
:102360002091360430913704240F351F289FB00187
:10237000299F700D389F700D1124409130045091A9
:1023800031044E5F5F4F460F571F0AE010E02AE00E
:1023900030E060E570E080E794E00E94E51BCD2B23
:1023A00061F5209134043091350480913604909188
:1023B0003704280F391F80912A04829FA001839F30
:1023C000500D112480913004909131040296840FB5
:1023D000951F2AE530E030937D0420937C04909390
:1023E0007F0480937E048FE891E0DF91CF911F916D
:1023F0000F91FF90EF900C944822DF91CF911F91A5
:102400000F91FF90EF9008950F931F93CF93DF9359
:10241000EEE9F3E0F093E601E093E5018091CB046F
:1024200090E091878087CEE3D4E00A811B812CE085
:1024300030E04EE350E062E370E080E794E00E9419
:10244000B729088119812CE030E04EE350E064E4C4
:1024500070E080E794E00E94B729DF91CF911F914F
:102460000F9108958F929F92AF92BF92CF92DF9279
:10247000EF92FF920F931F932091EE01822F90E035
:10248000A0E0B0E09C01AD012150310941095109A2
:10249000A4E6B0E00E9410382EEF30E040E050E0BB
:1024A0000E94F137AA24BB24A21AB30AEEE3F4E097
:1024B000C080D180E280F380812C912C06E010E076
:1024C00024E630E04EE150E063E170E080E794E024
:1024D0000E9473281F910F91FF90EF90DF90CF9093
:1024E000BF90AF909F908F900895EF92FF920F93BF
:1024F0001F93CF93DF93CEE3D4E00A811B81288121
:10250000398145EA51E06CE170E082E090E00E94A0
:102510009523E880F98008E010E028E630E04DE1FE
:1025200050E060E170E080E794E00E945129DF9183
:10253000CF911F910F91FF90EF9008950F931F93EC
:10254000CF93DF936091F2017091F3011616170695
:102550000CF5CB01770FAA0BBB0BBC01CD0126E01C
:10256000660F771F881F991F2A95D1F7E091F40114
:10257000F0E0EE0FFF1FE85BFB4F20813181032E5F
:10258000000C440B550B0E94F137C0E4C21BCB3248
:1025900038F001C0C0E480914604909147040BC01C
:1025A000C63128F0809144049091450404C0809184
:1025B0004204909143049093F1018093F001D0E0A4
:1025C00020914004309141044091F0015091F1017B
:1025D0008E0167EB71E080E090E00E94BE22002750
:1025E00011270C1B1D0B2091400430914104409198
:1025F000F0015091F10169E372E080E490E00E9403
:10260000BE22DF91CF911F910F9108950F931F93D9
:10261000CF93DF931092E6011092E5011092F6013C
:10262000CEE3D4E06A817B8180E794E00E940B26B0
:102630008A819B81E0E7F4E028813981318B208B0E
:10264000938B828B8FE590E0958784878DE090E077
:102650009787868783E991E00E9448220A811B813F
:10266000288139814BE151E063E070E088E590E03A
:102670000E9495230E949E1281E08093F501DF91D4
:10268000CF911F910F910C9437218091CC048A3007
:1026900018F480E30E94AC216091CC0470E080E0EB
:1026A00090E04AE00E944D228AE30E94AC21809192
:1026B000CB048A3018F480E30E94AC216091CB04F3
:1026C00070E080E090E04AE00C944D22EF92FF929F
:1026D0000F931F93CF93DF9390E08730910508F01D
:1026E00011C2FC01EC5CFF4F0C943D3CF999FECF0C
:1026F0000EE314E0C2E0D0E0F80161918F01CE0159
:102700000E94CC372196CC31D105B1F7DF91CF9122
:102710001F910F91FF90EF900C94061382E080932D
:10272000F601609140047091410480E794E00E94BA
:102730000B2680913E0490913F04909383048093F4
:102740008204909381048093800488E290E09093C7
:102750007D0480937C0410927F0410927E0486E9AD
:1027600091E00E94482268E070E086E294E00E94D6
:10277000B12186E294E09093E6018093E501809197
:1027800040049091410420913E0430913F043093E5
:10279000810420938004909383048093820408E44E
:1027A00014E0C1E0D0E08AE5E82EF12C80912B0402
:1027B00090E0C817D9070CF0A5C1209134043091DE
:1027C00035048091360490913704280F391F2C9FCF
:1027D000A0012D9F500D3C9F500D1124809130047D
:1027E000909131040296840F951FF0927D04E0923F
:1027F0007C0490937F0480937E04F80181919191F1
:102800008F01009719F00E94902204C08FE891E098
:102810000E9448222196CACF8EE893E09093E60169
:102820008093E5018091CC0490E09093970380938E
:102830009603609140047091410480E794E00E9407
:102840000B2682E390E090937D0480937C04909328
:102850007F0480937E0480914004909141042091F4
:102860003E0430913F043093810420938004909380
:102870008304809382040E94451300913E041091CA
:102880003F042CE030E04EE350E062E370E080E78C
:1028900094E00E94B72936C185E08093F6016091EB
:1028A00040047091410480E794E00E940B268091DF
:1028B0003E0490913F04909383048093820490930C
:1028C00081048093800488E290E090937D0480935B
:1028D0007C0410927F0410927E0483E891E00E94B1
:1028E000482268E070E08EEF93E00E94B1218EEF05
:1028F00093E09093E6018093E50104C18091560432
:102900008093620388E08093F601609140047091A7
:10291000410480E794E00E940B2680913E04909150
:102920003F04909383048093820490938104809366
:10293000800488E290E090937D0480937C04109260
:102940007F0410927E048EE991E00E94482262E1A9
:1029500070E08EE593E00E94B1218EE593E09093C4
:10296000E6018093E501809140049091410420911B
:102970003E0430913F04309381042093800490936F
:1029800083048093820420916C0330916D038091C5
:102990006E0390916F03280F391F80915604829F18
:1029A000A001839F500D11248091680390916903C9
:1029B0000296840F951F28E030E030937D04209329
:1029C0007C0490937F0480937E048EE3DF91CF910B
:1029D0001F910F91FF90EF900C94AC21F999FECFCD
:1029E0006091EE0181E090E00E94CC3780913E043E
:1029F00090913F0420914004309141043093810430
:102A00002093800490938304809382042091660431
:102A1000309167048091680490916904280F391FF0
:102A200085E0829FA001839F500D11248091620454
:102A3000909163040296840F951F29E630E030934D
:102A40007D0420937C0490937F0480937E048CEA21
:102A500091E0DF91CF911F910F91FF90EF900C9437
:102A6000482287E08093F601609140047091410410
:102A700080E794E00E940B2680913E0490913F04F1
:102A800090938304809382049093810480938004C4
:102A900088E290E090937D0480937C0410927F0400
:102AA00010927E0460E171E080E794E00E94432D83
:102AB00068E070E086E793E00E94B12186E793E04A
:102AC0009093E6018093E50185E090E090937D048A
:102AD00080937C0484E790E090937F0480937E044D
:102AE00066E071E080E794E00E94432D60EA71E0C7
:102AF00080E794E0DF91CF911F910F91FF90EF90CD
:102B00000C94432DDF91CF911F910F91FF90EF9087
:102B10000895809196038093CC04E0E7F4E082E38B
:102B200090E095878487978786870C9445138091DA
:102B3000A6038093CB04E0E7F4E082E390E095877E
:102B40008487978786870C944513CF93DF9381E022
:102B50008093F601CEE3D4E06A817B8180E794E044
:102B60000E940B2688819981E0E7F4E0938B828BA9
:102B7000918B808B88E290E09587848717861686F4
:102B800086E891E00E94482268E070E088E594E0E1
:102B90000E94B12188E594E09093E6018093E501DD
:102BA000DF91CF910895CF93811103C0CF910C9401
:102BB000A515C82F809140049091410420913E04B6
:102BC00030913F04309381042093800490938304D8
:102BD000809382042091340430913504809136042E
:102BE00090913704280F391FC29FA001C39F500D39
:102BF000112480913004909131040296840F951F26
:102C000020E530E030937D0420937C0490937F0492
:102C100080937E048EE30E94AC2120912A0430E050
:102C200040913404509135048091360490913704DA
:102C3000480F591F429FB001439F700D529F700D66
:102C4000112480913004909131040296860F971FD1
:102C50004AE550E050937D0440937C0490937F04B8
:102C600080937E0481E090E0C13011F080E090E03C
:102C700090931B0480931A0486E194E09093E601FC
:102C80008093E501220F331FF901EA5BFB4F80813E
:102C9000918190931F0480931E040E9490228FEADA
:102CA00091E0CF910C94482281E08093ED010C9447
:102CB000A515882319F0813019F008950C94A515F5
:102CC000909157048927809357048AE090E090936D
:102CD0007D0480937C048EE190E090937F04809348
:102CE0007E0480913E0490913F04209140043091F5
:102CF0004104309381042093800490938304809353
:102D0000820488EB91E00E9448228091570481114F
:102D100003C085EB91E002C082EB91E00E94482263
:102D2000809140049091410420913E0430913F04F1
:102D300030938104209380049093830480938204D1
:102D40000895682F8091E5019091E601009739F090
:102D5000DC01ED91FC910190F081E02D099462304D
:102D600051F018F46130C1F00895633081F16F3F84
:102D700009F455C008958091F601882319F08F3F1A
:102D800049F008958091F4018093E80181E08093F7
:102D9000EF0138C00C94A5158091F60181114FC048
:102DA0008091EF01882309F44AC08091E8018823CB
:102DB00011F0815001C085E0E82FF0E0EE0FFF1F19
:102DC000E85BFB4F20813181232B89F319C080916F
:102DD000F601811134C08091EF01882381F1809147
:102DE000E801853010F48F5F01C080E0E82FF0E04B
:102DF000EE0FFF1FE85BFB4F20813181232B89F30E
:102E00008093E8010E9437210E9409276093E9011D
:102E10007093EA018093EB019093EC010895E091A7
:102E2000F401F0E0EE0FFF1FE85BFB4F8081918122
:102E30009093F3018093F20182E08093F50108956D
:102E40008091F9014A9913C0811119C08091F7014D
:102E50009091F801049798F08FEF0E94A11681E0FD
:102E60008093F901109201041092000404C0882399
:102E700031F01092F9011092F8011092F7010895C3
:102E8000809356040C94A515EF92FF920F931F9315
:102E90008091FA03E0903E04F0903F0481112DC030
:102EA0000CE010E028E330E044E650E060E470E03D
:102EB00080E794E00E94512980913E0490913F0464
:102EC0002091400430914104309381042093800488
:102ED000909383048093820480E590E090937D0436
:102EE00080937C0486E690E090937F0480937E0438
:102EF00086EC91E00E94482225C020914004309148
:102F00004104F0928104E092800430938304209382
:102F1000820490E0019734E0880F991F3A95E1F719
:102F20002BE230E0A901481B590B50937D044093DC
:102F30007C0482E790E090937F0480937E048FE688
:102F40000E94AC218091E7019091FA03981709F44F
:102F500060C0811141C0E0903E04F0903F040CE05D
:102F600010E028E330E044E650E060E470E080E701
:102F700094E00E94441AE0904004F09041040AE07A
:102F800010E026E330E045E650E061E470E080E7E1
:102F900094E00E9451298091400490914104209135
:102FA0003E0430913F043093810420938004909339
:102FB00083048093820480E590E090937D04809365
:102FC0007C0486E690E090937F0480937E0486ECF8
:102FD00091E00E94482219C0E0904004F090410422
:102FE00090E0019724E0880F991F2A95E1F76BE2A2
:102FF00070E0681B790B0AE010E02CE030E042E75B
:1030000050E080E794E00E9451298091FA03809378
:10301000E7011F910F91FF90EF900895CF92DF92FB
:10302000EF92FF920F931F93CF93DF9323E02093B0
:10303000F6011092E7019093E2018093E101FC0117
:10304000808191819093E4018093E30186EF93E086
:103050009093E6018093E5018EE3C82E84E0D82E9C
:10306000F6016281738180E794E00E940B26EEED09
:10307000F3E08091E4018695869586958087118698
:1030800068E0CF010E9411248091E3019091E40156
:10309000807E977025E0969587952A95E1F7909325
:1030A000CF038093CE0368E186EC93E00E94112465
:1030B0008091E3019091E4018F7199279093B70378
:1030C0008093B60368E28EEA93E00E941124F60131
:1030D000E080F1800CE010E028E330E044E650E0CE
:1030E00060E470E080E794E00E94441AF601828177
:1030F0009381C0E7D4E020813181398B288B9B8B71
:103100008A8B80E590E09D878C8785E690E09F879D
:103110008E8786EC91E00E9448228AE090E09D87AD
:103120008C879F878E87E090E301F090E40108E1AF
:1031300010E028E130E040E150E068E570E0CE01C9
:103140000E945129F601E080F1800AE110E02AE1B5
:1031500030E04FE050E067E570E0CE010E94441A95
:10316000DF91CF911F910F91FF90EF90DF90CF9063
:103170000C94441790E08730910508F055C0FC018D
:10318000E55CFF4F0C943D3C0C94A5158EE394E058
:103190000BC080E494E008C082E494E005C084E4BD
:1031A00094E002C086E494E00C940E1860915504FB
:1031B000633010F46F5F01C060E06093550480E7F6
:1031C00094E00E94FC2785E08093F6016091400422
:1031D0007091410480E794E00E940B2680913E04A8
:1031E00090913F0490938304809382049093810490
:1031F0008093800488E290E090937D0480937C0427
:1032000010927F0410927E0483E891E00E9448228D
:1032100068E070E08EEF93E00E94B1218EEF93E0C2
:103220009093E6018093E50108951F920F920FB6E7
:103230000F9211240F900FBE0F901F9018951F92A0
:103240000F920FB60F9211242F933F934F935F93DA
:103250006F937F938F939F93AF93BF93EF93FF935E
:103260008091FC01319913C0811119C08091FA013C
:103270009091FB01049798F082E00E94A11681E0F2
:103280008093FC01109207021092060204C088236A
:1032900031F01092FC011092FB011092FA01809122
:1032A0000C02309913C0811119C0809100029091D5
:1032B0000102049798F081E00E94A11681E08093BA
:1032C0000C02109205021092040204C0882331F00F
:1032D00010920C0210920102109200028091FF01E4
:1032E000329913C0811119C08091FD019091FE01A6
:1032F000049798F083E00E94A11681E08093FF017B
:10330000109209021092080204C0882331F0109232
:10331000FF011092FE011092FD01FF91EF91BF910C
:10332000AF919F918F917F916F915F914F913F915D
:103330002F910F900FBE0F901F901895A091E5014F
:10334000B091E601109779F0482F50E0440F551FD7
:103350004E5F5D4FED91FC9111970280F381E02D5E
:10336000682FCD01099408950F931F93CF93DF9396
:10337000FC01DA012D913C91828593858217930798
:1033800058F5613061F0633039F5208531858681EB
:1033900097812817390764F4C901019609C020856F
:1033A0003185848195818217930714F4C9010197AF
:1033B000918780878A01EF010190F081E02D0480E0
:1033C000F581E02DCE010995EE85FF8588859985EB
:1033D0000995F80111821082DF91CF911F910F9111
:1033E0000895623051F4DC011C96ED91FC911D971B
:1033F00018968D919C91199709940895DC0162307B
:1034000029F0633051F0613029F50EC01696ED9128
:10341000FC91179714968C91099414966C911497BB
:103420006623C1F061500EC014966C911497262F3C
:1034300030E015968C91159790E001972817390781
:103440004CF46F5FED91FC9111970480F581E02DB4
:10345000CD0109940895FC01648308950895FC0149
:103460006370658B8481958126813781613039F065
:10347000633029F0918780873387228708953187C9
:1034800020879387828708956F927F928F929F9271
:10349000AF92BF92CF92DF92EF92FF920F931F9362
:1034A000CF93DF93EC014B015A0169013801E881A8
:1034B000F9810284F385E02D0995E881F98102887C
:1034C000F389E02D87019601A501B401CE0109958C
:1034D000A501460D571D41505109E881F981028827
:1034E000F389E02D9601B401CE010995E881F981B7
:1034F0000088F189E02D9301A501B401CE01099561
:10350000C80CD91CB60161507109E881F9810088A5
:10351000F189E02D9301A501CE010995E881F9819A
:103520000688F789E02DCE01DF91CF911F910F9191
:10353000FF90EF90DF90CF90BF90AF909F908F90D3
:103540007F906F9009948F929F92AF92BF92CF928B
:10355000DF92EF92FF920F931F93CF93DF934C0173
:103560006B015A01E901DC01ED91FC9162177307CF
:1035700081F40417150724F48B2D5801042F182FFC
:103580000A191B0998012F5F3F4F048CF58DE02D20
:1035900012C04017510709F52617370724F48D2D5F
:1035A0006901C62FD82F9E012C193D092F5F3F4F6F
:1035B000068CF78DE02D8701A501B601C4010995A0
:1035C000DF91CF911F910F91FF90EF90DF90CF90FF
:1035D000BF90AF909F908F9008950284F385E02D67
:1035E0000995D401ED91FC910488F589E02D9E01A7
:1035F000A501B601C4010995D401ED91FC9106889D
:10360000F789E02DC401DF91CF911F910F91FF90B9
:10361000EF90DF90CF90BF90AF909F908F900994E4
:10362000EF92FF920F931F93DC011A960D911C915C
:103630001B9718962D913C911997ED91FC9100A044
:10364000F1A1E02D7B0140E050E060E070E00995E1
:103650001F910F91FF90EF9008954F925F926F929C
:103660007F928F929F92AF92BF92CF92DF92EF9212
:10367000FF920F931F93CF93DF936C012B015A019D
:1036800039014801DC01ED91FC910284F385E02DC4
:103690000995E201640C751CD601ED91FC91C615EB
:1036A000D7055CF40088F189E02D87019401A5011C
:1036B000BE01C60109952196EFCF0688F789E02D56
:1036C000C601DF91CF911F910F91FF90EF90DF9096
:1036D000CF90BF90AF909F908F907F906F905F90B2
:1036E0004F9009948F929F92AF92BF92CF92DF92A8
:1036F000EF92FF920F931F93CF93DF93EC015B0147
:103700004A016901E881F9810284F385E02D099578
:1037100095012C0D3D1D21503109E881F981048866
:10372000F589E02D78018401A401B501CE01099548
:10373000E881F9810688F789E02DCE01DF91CF91EC
:103740001F910F91FF90EF90DF90CF90BF90AF90BF
:103750009F908F9009948F929F92AF92BF92CF9239
:10376000DF92EF92FF920F931F93CF93DF93EC01C1
:103770005B014A0169017801E881F9810284F385DE
:10378000E02D0995C80CD91C860101501109E8816A
:10379000F9810488F589E02D9501A401B501CE01D8
:1037A0000995E881F9810688F789E02DCE01DF913E
:1037B000CF911F910F91FF90EF90DF90CF90BF902E
:1037C000AF909F908F9009940895EF92FF920F937E
:1037D0001F93DC01ED91FC9100A0F1A1E02D099572
:1037E0001F910F91FF90EF9008950F931F93DC01AD
:1037F000ED91FC91068CF78DE02D09951F910F91AD
:1038000008950F931F93DC01ED91FC91048CF58DCD
:10381000E02D09951F910F910895DC01ED91FC9128
:103820000084F185E02D09942F923F924F925F9290
:103830006F927F928F929F92AF92BF92CF92DF92C0
:10384000EF92FF920F931F93CF93DF9300D000D09E
:1038500000D0CDB7DEB72C017E836D836A0159019C
:10386000C801FC82EB824801841A950A97FE03C0C6
:1038700091948194910835012D813E81621A730AD9
:1038800077FE03C0719461947108681479045CF444
:103890003A2D2B2D5C01832F922F3D812E81DE82CC
:1038A000CD82C32ED22EAD81BE81AA16BB065CF49A
:1038B0003C2D2D2D6C01832F922F3D812E81BE82B8
:1038C000AD82A32EB22E85012D813E81021B130BEA
:1038D0001C012C183D0837FE03C031942194310897
:1038E000780117FF03C03FEFE31AF30AF594E7945A
:1038F000C816D9062CF08FEF9FEF9A83898304C0F6
:10390000A1E0B0E0BA83A9832D813E81A216B3065F
:1039100024F1D201ED91FC910484F585E02D2B81F9
:103920003C816814790424F44D815E81B60103C0A2
:10393000A6016D817E81C2010995E218F308F7FEA8
:1039400006C029813A81C20ED31EE00EF11E8D8180
:103950009E8101969E838D83D7CF26960FB6F894CD
:10396000DEBF0FBECDBFDF91CF911F910F91FF90B2
:10397000EF90DF90CF90BF90AF909F908F907F900F
:103980006F905F904F903F902F90089585ED8093BA
:10399000BC008091BC0084FDFCCF10929002089581
:1039A00040914702262F30E0240F311D213231058E
:1039B000DCF4209190022430C9F4FC0180E090E016
:1039C000861758F4309147022191DC01A95DBD4F63
:1039D000A30FB11D2C930196F3CF80914702680F7E
:1039E0006093470280E0089581E0089582E00895A1
:1039F000E091A9048091A804E81730F4F0E0E655BE
:103A0000FB4F808190E008958FEF9FEF0895909194
:103A1000A9048091A804981750F4E92FF0E0E65526
:103A2000FB4F208130E09F5F9093A90402C02FEFED
:103A30003FEFC90108958091A80490E02091A90466
:103A4000821B91090895CF92DF92EF92FF920F931C
:103A50001F93CF93DF937C01CB018A0120919102C8
:103A6000222389F0EB016B01C40ED51ECC15DD05B8
:103A700069F06991D701ED91FC910190F081E02D01
:103A8000C7010995F3CF642F0E94D01CC801DF91B4
:103A9000CF911F910F91FF90EF90DF90CF900895FD
:103AA000CF93DF931F92CDB7DEB769832091910248
:103AB0002223D1F02091B402203240F021E030E006
:103AC000FC013383228380E090E015C08091920254
:103AD000E82FF0E0ED56FD4F998190838F5F809342
:103AE00092028093B40205C061E0CE0101960E946B
:103AF000D01C81E090E00F90DF91CF910895089560
:103B000080E090E008954F925F926F927F928F9243
:103B10009F92AF92BF92CF92DF92EF92FF920F935C
:103B20001F93CF93DF93EC010B8910E00250110932
:103B30004801012E000CAA08BB08CC80DD800D2CAA
:103B4000000CEE08FF0888859985092E000CAA0B49
:103B5000BB0BA7019601281B390B4A0B5B0BC50158
:103B6000B4010E940D3C2E813F812901330F66086C
:103B70007708A30192012C193D094E095F090E94A3
:103B8000F137820E931EA41EB51E912C9194819440
:103B90009108EE89FF89C080D180EC89FD89E080A1
:103BA000F1802A8930E022503109498950E04F5F85
:103BB0005F4F688970E06F5F7F4FA12CB12C8A81C5
:103BC0009B810E947328DF91CF911F910F91FF90ED
:103BD000EF90DF90CF90BF90AF909F908F907F90AD
:103BE0006F905F904F900895DF92EF92FF920F9346
:103BF0001F93CF93DF93EC01D62E8A819B816E8534
:103C00007F85EE89FF89E080F1808B0102501109E8
:103C10002C853D852250310948895989640F751FCB
:103C20004C81469FF001479FF00D11244A855B852A
:103C30004F5F5F4F4E0F5F1F688579856F5F7F4FC6
:103C4000DC01ED91FC9100A0F1A1E02D0995EE8938
:103C5000FF8980819181EC89FD8920813181AA8150
:103C6000BB8151963C932E93509753969C938E9381
:103C700052972E853F8588899989280F391F8C8115
:103C8000829FA001839F500D11248A859B850296F7
:103C9000840F951F288539852E5F3F4F1D963C93D5
:103CA0002E931C971F969C938E931E978C812A8926
:103CB0009B89E22FF92FE80FF11DE80FF11D6591A7
:103CC0007491CD010E94432DDC828A819B810E85F7
:103CD0001F85EC89FD89E080F1802C853D85688910
:103CE0007989600F711FD69EF001D79EF00D1124C7
:103CF0004A855B854E0F5F1F68857985DC01ED91F4
:103D0000FC9100A0F1A1E02D0995EC89FD8980814D
:103D10009181EE89FF8920813181AA81BB815196F1
:103D20003C932E93509753969C938E9352972E8547
:103D30003F8588899989280F391F8C81829FA0012E
:103D4000839F500D11248A859B850296840F951FB1
:103D5000288539852E5F3F4F1D963C932E931C97E7
:103D60001F969C938E931E978C812A899B89E22FA4
:103D7000F92FE80FF11DE80FF11D65917491CD0148
:103D8000DF91CF911F910F91FF90EF90DF900C94F6
:103D9000432DAF92BF92CF92EF92FF920F931F935A
:103DA000CF93DF93EC01262F888D998D009709F032
:103DB00040C06A3059F41D861C862C898E859F85EB
:103DC00038E0239F800D911D112441C06D3009F40E
:103DD000AAC08E898823C1F03C898C859D8546E0E8
:103DE000349F800D911D1124488559854817590726
:103DF0005CF41D861C868E859F8548E0349F800D6F
:103E0000911D11249F878E87EA88FB88088919896C
:103E10004E855F856C857D85CC88CE010E94292BDF
:103E20002C898C859D8536E0239F800D911D112462
:103E300042C06A3079F41D861C862C89FC013696B6
:103E4000E4918E859F852E9F800D911D11249F8763
:103E50008E8769C06D3009F466C0FC0134963491D8
:103E6000631708F460C03196E491E61708F45BC06C
:103E7000FC01329665917491422F50E0431B510929
:103E800037E0349F5001359FB00C1124A60EB71EA9
:103E9000F501329634913196E491332311F0E1111A
:103EA0000DC0F5013496E4912C898C859D85E29FA7
:103EB000800D911D11249D878C8735C0F5013596A5
:103EC00044915E89552311F16C89E32FF0E0E40FF2
:103ED000F11D47FDFA956E9FD0016F9FB00D112423
:103EE0004C855D854A0F5B1FE885F985E417F5076A
:103EF0006CF41D861C86FC013696E4918E859F85A8
:103F00006E9F800D911D11249F878E87EA88FB8804
:103F1000088919894E855F856C857D85CC88CE01A1
:103F20000E94292BBECF81E090E0DF91CF911F91BD
:103F30000F91FF90EF90CF90BF90AF9008958EBDFE
:103F400000000DB407FEFDCF8EB508951F920F92AD
:103F50000FB60F9211242F933F934F935F936F935C
:103F60007F938F939F93AF93BF93EF93FF93809132
:103F7000B900887F803609F49CC068F5883209F45E
:103F80005BC090F4803109F454C038F4882309F4FC
:103F9000F2C0883009F44DC0F2C0883109F44CC039
:103FA000803209F45DC0EBC0803409F468C048F485
:103FB000803309F455C0883309F0E1C080938E0244
:103FC000D4C0803509F44FC0883509F45DC0883409
:103FD00009F0D5C0D2C0883909F4C3C0A8F4883725
:103FE00009F467C038F4883609F463C0803709F4EF
:103FF00060C0C5C0883809F4B4C0803909F45FC016
:10400000803809F0BCC05BC0803B09F484C038F440
:10401000803A09F466C0883A09F47DC0B0C0803C9B
:1040200009F4A3C0883C09F4A0C0883B09F486C009
:10403000A6C080916B0210C090918D0280918C027D
:10404000981770F5E0918D0281E08E0F80938D02BC
:10405000F0E0E459FD4F80818093BB0085EC82C085
:1040600080938E028AC0E0918D0281E08E0F809352
:104070008D028091BB00F0E0E459FD4F8083909168
:104080008D0280918C026AC0E0918D0281E08E0FDA
:1040900080938D028091BB00F0E0E459FD4F808356
:1040A00080918F02811169C081E080936A0284EA65
:1040B0005DC083E08093900210926902CFCF80911F
:1040C0006902803208F04DC0E091690281E08E0FF4
:1040D000809369028091BB00F0E0E75BFD4F808335
:1040E000BDCF85EC8093BC00109290028091690254
:1040F000803230F4E0916902F0E0E75BFD4F10821E
:104100006091690270E089E492E0E0E0F0E00995F6
:104110001092690234C084E08093900210924802A9
:1041200010924702E0E0F0E009958091470281118A
:1041300005C081E08093470210922702E091480277
:1041400081E08E0F80934802F0E0E95DFD4F8081B1
:104150008093BB009091480280914702981708F421
:104160007DCF85E88093BC000AC085EC8093BC00BD
:104170001092900204C010928E020E94C61CFF9101
:10418000EF91BF91AF919F918F917F916F915F91CF
:104190004F913F912F910F900FBE0F901F90189548
:1041A0000F931F93CF93DF93F999FECF80E090E0B8
:1041B0000E94C437823409F441C0F999FECF62E409
:1041C00080E090E00E94DE3764E681E090E00E94AB
:1041D000DE3760EE7FEF82E090E00E94EC3760E037
:1041E00070E084E090E00E94EC3760EE77E086E0DB
:1041F00090E00E94EC3760EA7FEF88E090E00E9458
:10420000EC3760E078EF8AE090E00E94EC376EE1F6
:1042100070E08CE090E00E94EC376EE571E08EE09B
:1042200090E00E94EC37C0E1D0E060E0CE010E9457
:10423000DE372196CC31D105C1F7B6CF81E090E0D1
:104240000E94C4378093EE010EE314E0C2E0D0E098
:10425000CE010E94C437F80181938F012196CC31A1
:10426000D105B1F7DF91CF911F910F910895CF93B1
:10427000DF93809140049091410420913E0430915D
:104280003F043093810420938004909383048093AF
:10429000820489E690E090937D0480937C048DE015
:1042A00090E090937F0480937E0482E08093840466
:1042B0008091EF01882319F08091E80102C080917C
:1042C000F40190E001960E94902281E080938404A2
:1042D0008091EF01882329F080913E0490913F0462
:1042E00004C0809140049091410490938304809392
:1042F000820490938104809380048FE590E09093F2
:104300007D0480937C04C6E1D0E0D0937F04C09309
:104310007E048CE30E94AC2187E790E090937D04BB
:1043200080937C04D0937F04C0937E048EE30E942C
:10433000AC21809140049091410420913E04309141
:104340003F043093810420938004909383048093EE
:104350008204DF91CF910895682F80E794E00C9458
:10436000C91EBF92CF92DF92EF92FF920F931F93DD
:10437000CF93DF93EC01798768878CE090E09B878F
:104380008A87B12C8D81B81608F078C04C818A815B
:104390009B810E851F85AC89BD892C853D856889EB
:1043A0007989CB2CD12CEA85FB85ED90FC90600FB0
:1043B000711FB41219C06C9DA0016D9D500D7C9DA4
:1043C000500D11244E0F5F1F68857985DC01ED913A
:1043D000FC9100A0F1A1E02D0995EC89FD89808177
:1043E0009181EE89FF8918C06C9DA0016D9D500DD3
:1043F0007C9D500D11244E0F5F1F68857985DC016F
:10440000ED91FC9106A0F7A1E02D0995EE89FF89B9
:1044100080819181EC89FD8920813181EA81FB8154
:10442000318B208B938B828B2E853F858889998950
:10443000820F931F8C9DA0018D9D500D9C9D500D52
:1044400011242A853B852E5F3F4F240F351F8A811B
:104450009B81488559854E5F5F4FFC015587448796
:1044600037872687CC0CDD1CEA89FB89EC0DFD1D06
:10447000659174910E94432DB39484CFDF91CF91C5
:104480001F910F91FF90EF90DF90CF90BF90089514
:10449000BC0180E794E00C94672D8F929F92AF92BD
:1044A000BF920F931F93CF93DF93CDB7DEB7A19742
:1044B0000FB6F894DEBF0FBECDBF19A2423008F48C
:1044C0004AE08E010F5D1F4F842E912CA12CB12C40
:1044D000A50194010E941B38E62FB901CA010150C1
:1044E0001109EA3014F4E05D01C0E95CD801EC93F5
:1044F000232B242B252B61F7B80180E794E00E9441
:10450000672DA1960FB6F894DEBF0FBECDBFDF9129
:10451000CF911F910F91BF90AF909F908F90089572
:10452000CF92DF92EF92FF92CF93DF936C01990FBE
:10453000EE08FF08F7FE17C08DE20E94AC21EC01E7
:1045400066277727CB016C197D098E099F094AE000
:104550000E944D228C0F9D1FDF91CF91FF90EF9015
:10456000DF90CF9008954AE0C701B601DF91CF9167
:10457000FF90EF90DF90CF900C944D222F923F92BE
:104580004F925F926F927F928F929F92AF92BF9263
:10459000CF92DF92EF92FF920F931F93CF93DF930F
:1045A000CDB7DEB729970FB6F894DEBF0FBECDBFEB
:1045B0007B014C835D832E833F83FB01F491F8875D
:1045C000FB01319624912A8317FF04C0102F119507
:1045D000D12C02C0D02E10E00A8101592FEF280FF4
:1045E0003885230F40E7682F80E794E00E94342845
:1045F000F70132968491898380E794E00E94B32783
:10460000E8858E2F0E2E000C990BFA816F2E0F2E3F
:10461000000C7708EF02900111243B832A8319864E
:104620001886312C412C212C012F110F110B4C011C
:104630008D189108D7FC93946C0131E0C31AD1080E
:104640008A819B81E885F9858E179F0709F451C0FF
:10465000F9818F2F90E020E830E0032C02C03595DF
:1046600027950A94E2F782239323A22CB12C892B5D
:1046700069F0A016B10654F0A814B9043CF4842DD6
:1046800090E055245394861597050CF0512C0E9408
:10469000A927511002C08F8101C08D810E949F1FE8
:1046A0000E94A927511002C08E8101C08C810E94F6
:1046B0009F1F288539852F5F3F4F3987288736E030
:1046C000331510F033940DC0E885F98583E0F69535
:1046D000E7958A95E1F73296EE0DFF1D8491898367
:1046E000312CAC14BD0414F42394AACF4394212C90
:1046F000A7CF80E794E029960FB6F894DEBF0FBEEF
:10470000CDBFDF91CF911F910F91FF90EF90DF9080
:10471000CF90BF90AF909F908F907F906F905F9061
:104720004F903F902F900C94BF274F925F926F92C3
:104730007F928F929F92AF92BF92CF92DF92EF9231
:10474000FF920F931F93CF93DF936A01D22F732EA3
:10475000602E512EFA0114913196C4910FEF060F7D
:104760000C0F2FEF280F210F462F682F80E794E0C2
:104770000E943428F6013296449080E794E00E942B
:10478000B3271C027001112400E010E0C0E090E8A3
:10479000A92EB12CE016F10681F1842C912CC501D3
:1047A0000C2E02C0959587950A94E2F788229922EB
:1047B0000E94A9278114910411F4852D01C0872D31
:1047C0000E949F1F0E94A927892811F4862D01C0ED
:1047D0008D2F0E949F1F0F5F1F4FC73010F4CF5FB8
:1047E000D9CFF80183E0F695E7958A95E1F73296FF
:1047F000EC0DFD1D4490C0E0CDCF80E794E0DF914B
:10480000CF911F910F91FF90EF90DF90CF90BF90CD
:10481000AF909F908F907F906F905F904F900C948F
:10482000BF27EF92FF920F931F93CF93DF93EC017B
:10483000688B88E0898B8A819B81EC89FD89E08087
:10484000F1800B8910E02A8930E070E0DC01ED9105
:10485000FC9106A0F7A1E02D48E050E00995CE01BB
:10486000DF91CF911F910F91FF90EF900C94831DDA
:1048700090E0FC01E05FF44E2491FC01E450F54E21
:104880008491882399F090E0880F991FFC01EE50E5
:10489000F54EA591B491FC01E851F54E85919491A6
:1048A0008FB7F894EC91E22BEC938FBF0895CF93E0
:1048B000DF93EC0185E00E943824209711F460E03A
:1048C00004C0CF3FD10531F461E085E0DF91CF91A5
:1048D0000C948226E9EDFAE1E491E330F9F048F432
:1048E000E130B9F0E230A1F584B5806284BDC8BD85
:1048F00034C0E730E9F0E83019F1E43049F580914F
:104900008000806280938000D0938B00C0938A00E7
:1049100024C084B5806884BDC7BD1FC0809180005D
:10492000806880938000D0938900C093880015C070
:104930008091B00080688093B000C093B3000DC038
:104940008091B00080628093B000C093B40005C035
:10495000C038D1050CF0B8CFB2CFDF91CF91089518
:10496000282F3091B402313208F04AC08091900271
:104970008111FCCF9091B30242E0409390022093CA
:104980008F022FEF20938E0210928D0230938C02B3
:10499000E3E9F2E0ACE6B2E020E0321721F0419129
:1049A0004D932F5FFACF10926B0220916B02990FFB
:1049B000922B90936B0290916A02913061F4109265
:1049C0006A0290916B029093BB009091BC0093FDA2
:1049D000F8CF95EC01C095EE9093BC0090919002B9
:1049E0009230E1F390918E029F3F79F080918E0298
:1049F000803241F080918E02803331F084E005C036
:104A000081E003C082E001C083E010929202109224
:104A1000B402109291020895FC01538D448D252F0C
:104A200030E0842F90E0821B930B541710F0CF9648
:104A3000089501970895FC01918D828D981761F07A
:104A4000828DDF01A80FB11D5D968C91928D9F5FC5
:104A50009F73928F90E008958FEF9FEF0895FC0170
:104A6000918D828D981731F0828DE80FF11D858D23
:104A700090E008958FEF9FEF0895FC01918D228DB6
:104A8000892F90E0805C9F4F821B91098F7399273B
:104A9000089585EB92E00E943D2521E0892B09F4E1
:104AA00020E0822F0895FC01848DDF01A80FB11D45
:104AB000A35ABF4F2C91848D90E001968F73992754
:104AC000848FA689B7892C93A089B1898C91806441
:104AD0008C93938D848D981306C00288F389E02D02
:104AE00080818F7D80830895EF92FF920F931F93B3
:104AF000CF93DF93EC0181E0888F9B8D8C8D981391
:104B000005C0E889F989808185FD24C0F62E0B8DCA
:104B100010E00F5F1F4F0F731127E02E8C8DE812EE
:104B20000CC00FB607FCFACFE889F989808185FFB0
:104B3000F5CFCE010E945325F1CF8B8DFE01E80FFA
:104B4000F11DE35AFF4FF0820B8FEA89FB898081C8
:104B5000806207C0EE89FF896083E889F9898081D6
:104B60008064808381E090E0DF91CF911F910F916D
:104B7000FF90EF900895CF93DF93EC01888D882309
:104B8000C9F0EA89FB89808185FD05C0A889B989BA
:104B90008C9186FD0FC00FB607FCF5CF808185FF95
:104BA000F2CFA889B9898C9185FFEDCFCE010E9403
:104BB0005325E7CFDF91CF91089580E090E0892BD6
:104BC00029F00E94492581110C94000008959FB797
:104BD000F8944091A4045091A5046091A6047091AA
:104BE000A70486B5A89B06C08F3F21F04F5F5F4F9B
:104BF0006F4F7F4F9FBF762F652F542F44279A0109
:104C0000AB01280F311D411D511DA3E0B0E00E94F2
:104C1000103808950895EF92FF920F931F93DC01CF
:104C20001A960D911C911B9718962D913C911997EE
:104C3000ED91FC9100A0F1A1E02D7B0140E050E05E
:104C400060E070E009951F910F91FF90EF9008953B
:104C50000E94573C1F920F920FB60F9211242F9370
:104C60003F934F935F936F937F938F939F93AF93F4
:104C7000BF93EF93FF9385EB92E00E945325FF9142
:104C8000EF91BF91AF919F918F917F916F915F91C4
:104C90004F913F912F910F900FBE0F901F9018953D
:104CA0001F920F920FB60F9211242F938F939F9301
:104CB000EF93FF93E091C502F091C6028081E091ED
:104CC000CB02F091CC0282FD12C090818091CE0285
:104CD0008F5F8F732091CF02821751F0E091CE0247
:104CE000F0E0EB54FD4F958F8093CE0201C08081A0
:104CF000FF91EF919F918F912F910F900FBE0F9089
:104D00001F90189590E0FC01EC52F54E2491FC01A7
:104D1000E05FF44E3491FC01E450F54EE491EE2353
:104D200009F43CC0222339F1233091F038F42130CA
:104D3000A9F0223001F584B58F7D12C0273091F0A3
:104D40002830A1F02430B9F4809180008F7D03C019
:104D5000809180008F77809380000DC084B58F771D
:104D600084BD09C08091B0008F7703C08091B000EE
:104D70008F7D8093B000F0E0EE0FFF1FE851F54EFD
:104D8000A591B4919FB7F894611104C08C913095AE
:104D9000382302C0EC913E2B3C939FBF08958F9225
:104DA0009F92AF92BF92CF92DF92EF92FF926B01F0
:104DB0007C010E94E7254B015C01C114D104E10490
:104DC000F104F1F00E94E725DC01CB018819990973
:104DD000AA09BB09883E9340A105B10570F321E003
:104DE000C21AD108E108F10888EE880E83E0981E07
:104DF000A11CB11CC114D104E104F10419F7DDCFE9
:104E0000FF90EF90DF90CF90BF90AF909F908F90EA
:104E100008952FB7F8946091A0047091A104809137
:104E2000A2049091A3042FBF08951F920F920FB672
:104E30000F9211242F933F938F939F93AF93BF9320
:104E40008091A0049091A104A091A204B091A30428
:104E500030919F0426E6230F2D3728F029EE230FEB
:104E60000196A11DB11D20939F048093A0049093EF
:104E7000A104A093A204B093A3048091A4049091F0
:104E8000A504A091A604B091A7040196A11DB11D8F
:104E90008093A4049093A504A093A604B093A704C0
:104EA000BF91AF919F918F913F912F910F900FBE26
:104EB0000F901F9018951F920F920FB60F9211240A
:104EC0002F933F934F935F936F937F938F939F9312
:104ED000AF93BF93EF93FF93E0910201F091030131
:104EE0000995FF91EF91BF91AF919F918F917F9124
:104EF0006F915F914F913F912F910F900FBE0F9047
:104F00001F9018951F920F920FB60F9211242F9396
:104F10003F934F935F936F937F938F939F93AF9341
:104F2000BF93EF93FF93E0910001F0910101099588
:104F3000FF91EF91BF91AF919F918F917F916F9171
:104F40005F914F913F912F910F900FBE0F901F9047
:104F500018958CB58F7B8CBD2B9A2D9A2D988CB57E
:104F600080648CBD0895DC019796ED91FC91989733
:104F700090819D968C918095892380830895DC0192
:104F80009796ED91FC91989790819D968C91892BA5
:104F9000808308951F93CF93DF93EC01162F0E9417
:104FA000B3270E94A927812F0E949F1FCE01DF9166
:104FB000CF911F910C94BF271F93CF93DF93EC01E8
:104FC000162F0E94B3278CB58F7B8CBD2B982D9A02
:104FD0002D988CB580648CBD812F0E949F1FCE01BF
:104FE000DF91CF911F910C94BF27611102C060E245
:104FF00001C061E20C94DC271F93CF93DF93EC0197
:10500000162F66E30E94DC271D8B1130B1F068F08B
:105010001230D9F0133021F568E6CE010E94CA277C
:105020008F8D8AA388A182501AC068ECCE010E949D
:10503000CA278F8D89A388A110C068EACE010E947B
:10504000CA278F8D8AA388A10AC06CE0CE010E9476
:10505000CA278F8D89A388A182508AA301C089A302
:10506000DF91CF911F910895EF92FF920F931F93BD
:10507000CF93DF93EC01E62E142FF22E6AE20E940A
:10508000DC2760E0CE010E94CA2769A16E0DCE0127
:105090000E94CA2760E0CE010E94CA2769A16F0D55
:1050A000CE010E94CA276BE2CE010E94DC2760E09D
:1050B000CE010E94CA276AA1610FCE010E94CA27B1
:1050C00060E0CE010E94CA276AA1600FCE010E9453
:1050D000CA276CE2CE01DF91CF911F910F91FF9013
:1050E000EF900C94DC272F923F924F925F926F9239
:1050F0007F928F929F92AF92BF92CF92DF92EF9268
:10510000FF920F931F93CF93DF93CDB7DEB72D9709
:105110000FB6F894DEBF0FBECDBF2C0139011801C8
:10512000EB82FC82DD82DC0118968D919C911997AF
:10513000681779070CF09CC01A96ED91FC911B97AB
:105140004E175F070CF094C09B01260D371D821788
:1051500093071CF43C01661A770ACA01820D931D5D
:10516000E817F9071CF41F01241A350A29826A82FC
:105170000FEF040F020D2FEF260F260DC2010E9424
:105180003428C2010E94B327F101E819F909FF830D
:10519000EE83222733272819390939872887C30145
:1051A0008A199B099B878A87AA27BB27AA19BB094B
:1051B000BD87AC87E980E21812141304F4F583016B
:1051C000F12C8A81801B101611069CF590E0B7FE29
:1051D00006C0EC85FD858E179F0734F414C02A8520
:1051E0003B85821793077CF4DD24D39497FE06C099
:1051F00088859985E816F9063CF405C0AE81BF8123
:10520000EA16FB060CF0D12C0E94A927D11002C08F
:105210008D8101C08C810E949F1F0E94A927D110FF
:1052200002C08C2D01C08B810E949F1F015011096B
:10523000C8CFB1E02B1A3108BDCFC2012D960FB6F1
:10524000F894DEBF0FBECDBFDF91CF911F910F91BC
:10525000FF90EF90DF90CF90BF90AF909F908F9096
:105260007F906F905F904F903F902F900C94BF274E
:105270002D960FB6F894DEBF0FBECDBFDF91CF9154
:105280001F910F91FF90EF90DF90CF90BF90AF9064
:105290009F908F907F906F905F904F903F902F9056
:1052A0000895AF92BF92CF92DF92EF92FF920F9349
:1052B0001F93CF93DF936C015901E801FC01208516
:1052C0003185621773070CF047C0828593854817B4
:1052D00059070CF041C0FB01EA0DFB1D2E173F07DB
:1052E0001CF45901A61AB70A9A012C0F3D1F821708
:1052F00093071CF4EC01C41BD50B0FEF040F0C0F2C
:105300002FEF260F2A0DC6010E943428C6010E94E5
:10531000B3271C161D069CF48501101611066CF4AB
:105320000E94A9278F2D0E949F1F0E94A9278E2DC2
:105330000E949F1F01501109F0CF2197EACFC601AB
:10534000DF91CF911F910F91FF90EF90DF90CF9061
:10535000BF90AF900C94BF27DF91CF911F910F9119
:10536000FF90EF90DF90CF90BF90AF900895DF92C5
:10537000EF92FF920F931F93CF93DF937C01E9018C
:10538000D02EFC01808591856817790784F52285E8
:105390003385421753075CF59B012C0F3D1F821785
:1053A00093071CF4EC01C61BD70B2FEF260F2C0F15
:1053B000042FC7010E943428C7010E94B3272097F9
:1053C00061F00E94A927812F0E949F1F0E94A92798
:1053D0008D2D0E949F1F2197F2CFC701DF91CF91A2
:1053E0001F910F91FF90EF90DF900C94BF27DF91FA
:1053F000CF911F910F91FF90EF90DF900895DF9272
:10540000EF92FF920F931F93CF93DF937C01E901FB
:10541000D02EFC01808591856817790784F58285F7
:105420009385481759075CF59A012C0F3D1F821789
:1054300093071CF4EC01C41BD50B0FEF040F0C0FEA
:10544000262FC7010E943428C7010E94B327209746
:1054500061F00E94A927812F0E949F1F0E94A92707
:105460008D2D0E949F1F2197F2CFC701DF91CF9111
:105470001F910F91FF90EF90DF900C94BF27DF9169
:10548000CF911F910F91FF90EF90DF900895FF92C1
:105490000F931F93CF93DF93EC0177FD2AC088858C
:1054A0009985681779072CF557FD23C08A859B8558
:1054B00048175907F4F4F32E122F01E0040F21E0EE
:1054C000260FCE010E943428CE010E94B3270E94ED
:1054D000A9278F2D0E949F1F0E94A927812F0E941C
:1054E0009F1FCE01DF91CF911F910F91FF900C94E0
:1054F000BF27DF91CF911F910F91FF900895CF9219
:10550000DF92EF92FF920F931F93CF93DF936C0183
:105510007A018B01C0E0D0E0CE15DF0581F0D80123
:105520006D918D01D601ED91FC910190F081E02DFE
:10553000C6010995892B11F02196EECF7E01C70196
:10554000DF91CF911F910F91FF90EF90DF90CF905F
:105550000895CF93C62F91E0909391029FE6909388
:10556000B302109292021092B402682F82E593E087
:105570000E94501D6C2F82E593E00E94501D81E037
:10558000CF910C94B024909190029111FCCF982F60
:10559000813208F090E281E08093900280938F0244
:1055A0002FEF20938E0210928D02290F20938C02F0
:1055B00080936B0280916B028E6D80936B02809161
:1055C0006A02813061F410926A0280916B028093CA
:1055D000BB008091BC0083FDF8CF85EC01C085EE57
:1055E0008093BC00809190028130E1F380918D0224
:1055F000891710F490918D02ECE6F2E0AAEAB4E08B
:1056000080E0891721F021912D938F5FFACF1092BE
:10561000A9048093A804089591E0909391029FE6D5
:105620009093B302109292021092B402682F82E516
:1056300093E00E94501D81E00E94B0248093CD042D
:1056400081E090E00E94C32A82E593E00E94071D5A
:1056500008952F923F924F925F926F927F928F9216
:105660009F92AF92BF92CF92DF92EF92FF920F93F1
:105670001F93CF93DF93CDB7DEB76B970FB6F89438
:10568000DEBF0FBECDBF9B8F8A8F5B011A01D22E6A
:105690001F830E833701C982DC0158962D913C91FE
:1056A00059972115310509F0E6C018968D919C9106
:1056B0001997681779070CF0CDC11A968D919C91B6
:1056C0001B97481759070CF0C5C18C2C912CFB0176
:1056D00026E0C29EE00DF11D1124FB87EA871E160D
:1056E0001F060CF0B7C1A40183E0440F551F8A9533
:1056F000E1F75D874C87CA01820D931D18161906C4
:105700000CF0A8C157968C91811104C05FEA5D1519
:1057100008F4D394AA8DBB8DED91FC91119702846E
:10572000F385E02DCD010995B5E0DB9EC001112484
:10573000F5013596FF87EE87BB82AA8225019C0181
:105740002A193B09398B288BA101485F5F4F5B8B7E
:105750004A8BE889F989E40DF51DE25AF44E54911B
:10576000588761013D822C82888580FF13C0AA8DF5
:10577000BB8DED91FC91B981B13031F40484F58594
:10578000E02D2E813F8116C00684F785E02DEE8046
:10579000FF801AC0EE81FF81E615F705F1F0AA8DB2
:1057A000BB8DED91FC91B981B13051F40484F58544
:1057B000E02D9301A601B2018A8D9B8D09950DC044
:1057C0000684F785E02D7301840194014C815D818D
:1057D0006A817B818A8D9B8D0995E885E695E887AE
:1057E000FFEFCF1ADF0A2C813D81280D391D3D8343
:1057F0002C834A895B89C416D50609F0B5CF5FEFC3
:10580000451A550A8A819B81880D991D9B838A833D
:10581000AE85BF854A165B0609F09BCFEE81FF81FE
:10582000E615F70509F4F4C0EA8DFB8DA081B1817E
:10583000F981F13079F4B5016B5F7F4F5096ED91AE
:10584000FC915197830128E030E0A1018A8D9B8D66
:105850000995DEC06A857B85681979091E96ED91E8
:10586000FC911F9773010C851D859401A1018A8D00
:105870009B8D0995CDC0F9013496E491DE1AF901AA
:10588000329685919491B7E0DB9E800D911D112495
:10589000F901259134913B8B2A8BFC0125913491A0
:1058A0002901FC013296C490319634913E8732969C
:1058B00014913196D4904981423058F0612E012ED6
:1058C000000C77088D2D0D2C000C990B998788877B
:1058D00004C019861886612C712CAA8DBB8DED91A0
:1058E000FC9111970284F385E02DCD010995B981D2
:1058F0008B2E912C689CC001699C900D789C900D1A
:105900001124FC01EA0DFB1DFD87EC871A82712C26
:10591000612CE12F110FFF0B95012E0F3F1F3B87CD
:105920002A87AC0CB11CA5014E0F5F1F5F8B4E8BFD
:10593000C1018D0D911DD7FC9A95998F888F9E85F9
:10594000691608F065C0862D90E048855985480F96
:10595000591F489D9001499D300D589D300D1124CF
:10596000D101A20FB31FB98BA88BEC85FD85FD83F8
:10597000EC83AA84BB84DA80FA85DF1A288D398DFE
:10598000280F391F3D8B2C8B8D2D8A0D4E895F89F9
:10599000A416B506C1F1877041F4C2010196EA89E7
:1059A000FB89E40DF51D74902C0177FE21C0AA8DB2
:1059B000BB8DED91FC91B981B13061F40484F58522
:1059C000E02D2E813F814C895D89B5018A8D9B8DAB
:1059D00009950EC00684F785E02DEE80FF808401D6
:1059E0009401488959896C817D818A8D9B8D0995A7
:1059F000770CEFEFAE1ABE0A2C813D81280D391DC0
:105A00003D832C83C1CF3A813C0D3A83639497CF79
:105A1000AA8DBB8DED91FC9111970688F789E02D39
:105A2000CD016B960FB6F894DEBF0FBECDBFDF91F0
:105A3000CF911F910F91FF90EF90DF90CF90BF908B
:105A4000AF909F908F907F906F905F904F903F901E
:105A50002F9009946B960FB6F894DEBF0FBECDBFA2
:105A6000DF91CF911F910F91FF90EF90DF90CF903A
:105A7000BF90AF909F908F907F906F905F904F906E
:105A80003F902F900895EF92FF920F931F93CF9323
:105A9000DF938C017B01C0E0D0E0F701EC0FFD1F2C
:105AA0006491662361F0D801ED91FC910190F08141
:105AB000E02DC8010995892B11F02196EECFCE017A
:105AC000DF91CF911F910F91FF90EF900895611595
:105AD000710579F0FB0101900020E9F73197AF01E2
