:100000000C9466120C94252C0C94FE2B0C948E12DE
:100010000C949F1B0C94951B0C948E120C948E12B6
:100020000C948E120C948E120C948E120C948E12D0
:100030000C948E120C948E120C948E120C948E12C0
:100040000C94B82B0C948E120C94F32A0C94CD2A99
:100050000C948E120C948E120C948E120C948E12A0
:100060000C9413230C948E128416961686168916F9
:100070008C168F1692169219AA19281A681A9A1AAB
:100080000A1B4D1B0C07FFE803AA9AA9AA9803FFB5
:10009000E04010FFFBFF0000000000FFFBFFFBFF44
:1000A000000000FFFDFFFDFFFDFF00FFFDFFFDFF66
:1000B000FDFFFCFFFDFFFDFFFDFFFFFFFDFFFDFF5F
:1000C000FDFFFFFFFEFFFEFFFEFFFFFFFEFFFEFF47
:1000D000FEFFFFFFFEFFFEFFFEFFFFFFFF7FFF7F34
:1000E000FF7FFFFFFF7FFF7FFF7FFFFFFF7FFF7F20
:1000F000FF7FFFFFFF7FFF7FFF7FFFFFFFBFFFBF90
:10010000FFBFFFFFFFBFFFBFFFBFFFFFFFBFFFBF7F
:10011000FFBFFF40100000000000FFDFFF000000F5
:10012000FFDFFFDFFF00FFBFFFBFFFBFFF3FFFBFDE
:10013000FFBFFFBFFFFFFFBFFFBFFFBFFFFFFFBF4F
:10014000FFBFFFBFFFFFFF7FFF7FFF7FFFFFFF7F3F
:10015000FF7FFF7FFFFFFF7FFF7FFF7FFFFFFEFF30
:10016000FEFFFEFFFFFFFEFFFEFFFEFFFFFFFEFFA5
:10017000FEFFFEFFFFFFFEFFFEFFFEFFFFFFFDFF96
:10018000FDFFFDFFFFFFFDFFFDFFFDFFFFFFFDFF8B
:10019000FDFFFDFFFF446576656C6F70656420624E
:1001A00079204D617274696E0A487265686F7220B9
:1001B00028632920323031380A0A5072657373205F
:1001C00043454E54455220746F20636C6F73650035
:1001D00078302E310A0004E010021C071237322951
:1001E0002D29252B3900010310E110031D07062ED0
:1001F0002C292D2E2E373F0000021013800A298053
:1002000064022A040000007F2B040000007F0F011D
:1002100080961180FFB103012C2DB203012C2DB368
:1002200006012C2D012C2DB40107C003A20284C1AC
:1002300001C5C2020A00C3028A2AC4028AEEC501AD
:100240000E20003601C83A01056464000000000079
:10025000000000000000000000000000000000009E
:1002600000000000000000018000000018000000F5
:10027000000000001E0000000780000000000000D9
:1002800001F0000000F8000000000000001FC000A6
:10029000003F8000000000000001FF00000FF80098
:1002A0000000000000001FF80003FF8000000000B5
:1002B000000001FFE0007FF8000000000000001FC8
:1002C000FF801FFF8000000000000001FFFE07FF0D
:1002D000F8000000000000001FFFF0FFFF8000009A
:1002E0000000000001FFFFFFFFF800000000000019
:1002F000001FFFFFFFFF8000000000000001FFFF64
:10030000FFFFF8000000000000001FFFFFFFFF805C
:1003100000000000000001FFFFFFFFF800000000E8
:1003200000000007FFFFFFFE0000000000000000CB
:100330001FFFFFFF800000000000000000FFFFFF24
:10034000F0000000000000000003FFFFFC000000C0
:100350000000000000000FFFFF0000000000000090
:100360001000003FFFC0000080000000018000017D
:10037000FFF8000018000000001E000007FE00004B
:10038000078000000001F800001F800001F8000055
:1003900000001FC00000F000007F8000000001FF8F
:1003A00000000000000FF8000000001FFC0000002B
:1003B0000003FF8000000001FFF000000000FFF8D4
:1003C000000000001FFF800000001FFF80000000F1
:1003D00001FFFE00000007FFF8000000001FFFF80B
:1003E000000001FFFF8000000001FFFFE000007F30
:1003F000FFF8000000001FFFFF00000FFFFF80005C
:10040000000001FFFFFC0003FFFFF8000000001FD9
:10041000FFFFF000FFFFFF8000000000FFFFFFC0B4
:100420003FFFFFF00000000007FFFFFE07FFFFFE99
:1004300000000000001FFFFFF9FFFFFF8000000029
:1004400000007FFFFFFFFFFFE0000000000003FF50
:10045000FFFFFFFFF80000000000000FFFFFFFFF9D
:10046000FF000000001000003FFFFFFFFFC0000082
:100470008001C00000FFFFFFFFF0000038001E00F9
:100480000007FFFFFFFE0000078001F800001FFFCC
:10049000FFFF800001F8001FE000007FFFFFE00089
:1004A000007F8001FF800001FFFFF800001FF800BF
:1004B0001FFC00000FFFFF000003FF8001FFF000A2
:1004C000003FFFC00000FFF8001FFFC00000FFF06A
:1004D00000003FFF8001FFFF000003FC00000FFF52
:1004E000F8001FFFF800001F800001FFFF8001FFE0
:1004F000FFE000006000007FFFF8001FFFFF8000AA
:100500000000001FFFFF8001FFFFFE00000000074A
:10051000FFFFF8001FFFFFF000000000FFFFFF805B
:1005200000FFFFFFC00000003FFFFFF00003FFFFE0
:10053000FF0000000FFFFFFC00001FFFFFFC00009A
:1005400003FFFFFF0000007FFFFFE000007FFFFFD1
:10055000E0000001FFFFFF80001FFFFFF800000028
:1005600007FFFFFE0007FFFFFE000000003FFFFF48
:10057000F000FFFFFFC000000000FFFFFFC03FFFD3
:10058000FFF00000000003FFFFFF0FFFFFFC000073
:100590000000000FFFFFFFFFFFFF00000000000052
:1005A0007FFFFFFFFFFFE0000000000001FFFFFFF3
:1005B000FFFFF800000000000007FFFFFFFFFE0044
:1005C0000000000000001FFFFFFFFF800000000090
:1005D000000000FFFFFFFFF000000000000000032C
:1005E000FFFFFFFC00000000000000000FFFFFFF06
:1005F0000000000000000000007FFFFFC0000000BE
:10060000000000000001FFFFF800000000000000F3
:10061000000007FFFE000000000000000000001FB7
:10062000FF8000000000000000000000FFF000005C
:10063000000000000000000003FC000000000000BB
:1006400000000000000F000000000000000000009B
:10065000000000000000000000000000000000009A
:10066000000000000000000000000000000000008A
:100670000000FFF3FF0FFEC036018FFC70180FFF64
:100680007FF9FFEC033031FFE70180060601980097
:10069000C033871806781800606019800C031CE1CD
:1006A0008066C1800606019800C030CC1806661826
:1006B00000606019800FFF0781806631800607FFA8
:1006C0009800FFF0781806631800607FF9800C032B
:1006D0000301806619800606019800C030301806B4
:1006E00060D800606019800C0303018066078006F3
:1006F00006019FFEC030301FFE603800606018FFAA
:10070000EC030300FFC603800000000000000000AF
:1007100000000000000000000000000000000000D9
:1007200000000000000000000000000000D0019563
:1007300001D81E0B0B04088882070191BAC7C0704C
:100740002088881000262600000000FC000000071A
:10075000F00000003FC0000001FF0000000FFC009F
:1007600000007FF0000003FFC000001FFF0000003A
:10077000FEFC000007F3F000003F8FC00001FC3FCB
:1007800000000FE0FC00000003F00000000FC000BC
:1007900000003F00000000FC00000003F00000002B
:1007A0000FC00000003F00000000FC00000003F04C
:1007B0000000000FC00000003F00000000FC00002F
:1007C0000003F00000000FC00000003F0000000028
:1007D000FC00000003F00000000FC00000003F001C
:1007E000000000FC00000003F00000000FC000004B
:1007F000003F00000000FC00000003F026260FFF71
:10080000FFFFC07FFFFFFF83FFFFFFFF1FFFFFFF13
:10081000FEFFFFFFFFFFFFFFFFFFFFC000003FFFE6
:10082000000001FFFC00000FFFF000007FFFC00090
:1008300007FFFF00003FFFFC0001FEFFF0000FF389
:10084000FFC000FF8FFF0007F83FFC003FC0FFF034
:1008500001FE03FFC00FF00FFF00FF803FFC07F811
:1008600000FFF03FC003FFC1FE000FFF0FF0003F8D
:10087000FCFF8000FFF7F80003FFFFC0000FFFFE42
:1008800000003FFFF00000FFFF800003FFF80000C2
:100890000FFFC000003FFFFFFFFFFFFFFFFFFFF75D
:1008A000FFFFFFFF8FFFFFFFFC1FFFFFFFE03FFF8A
:1008B000FFFF002626000000000000000FC000001F
:1008C000007F00000003FC0000001FF0000000FF9C
:1008D000C0000007FF0000003FFC000001FFF00027
:1008E000000FEFC000007F3F000003F8FC00001F76
:1008F000C3F00000FE0FC00000003F00000000FC3D
:1009000000000003F00000000FC00000003F0000E6
:100910000000FC00000003F00000000FC000000019
:100920003F00000000FC00000003F00000000FC0CA
:100930000000003F00000000FC00000003F0000089
:10094000000FC00000003F00000000FC000000039A
:10095000F00000000FC00000003F00000000FC009D
:10096000000003F00000000FC00026260FFFFFFF6D
:10097000C07FFFFFFF83FFFFFFFF1FFFFFFFFEFFA3
:10098000FFFFFFFFFFFFFFFFFFC000000FFF0000A2
:10099000003FFC000000FC00000003F00000000F1E
:1009A000C00000003F00000000FC00000003F00059
:1009B00000000FC00000003F0FFFFFFFFC7FFFFFA4
:1009C000FFF3FFFFFFFF9FFFFFFFFEFFFFFFFFF3B0
:1009D000FFFFFFFF0FC00000003F00000000FC0011
:1009E000000003F00000000FC00000003F00000006
:1009F00000FC00000003F00000000FC00000003FFA
:100A000000000000FFFFFFFFFFFFFFFFFFFFFFFFF2
:100A1000FFFFFFFFFFFFFFFFFFFFFFFFFFFFFFFFE6
:100A2000F026260FFFFFFF807FFFFFFF03FFFFFF82
:100A3000FE1FFFFFFFFCFFFFFFFFFBFFFFFFFFEFBE
:100A4000C000001FBF0000007EFC000001F8000095
:100A50000007E00000001F800000007E0000000191
:100A6000F800000007E00000001F800000007E0189
:100A7000FFFFFFF807FFFFFFC01FFFFFFF807FFFA3
:100A8000FFFF01FFFFFFFC07FFFFFFF00000000773
:100A9000C00000001F000000007C00000001F0000A
:100AA000000007C00000001F000000007C000000E4
:100AB00001FFC0000007FF0000001FFFFFFFFFFF56
:100AC000FFFFFFFFF7FFFFFFFFDFFFFFFFFE3FFF1F
:100AD000FFFFF03FFFFFFF8026260000007F0000A1
:100AE0000003FC0000001FF0000000FFC000000732
:100AF000FF0000003FFC000001FFF000000FFFC0FE
:100B00000000FFFF000007FEFC00003FF3F00001C3
:100B1000FF8FC0000FF83F00007FC0FC0003FE0302
:100B2000F0001FF00FC001FF003F000FF800FC00B5
:100B30007FC003F003FC000FC01FE0003F00FF0078
:100B400000FC07FFFFFFFFDFFFFFFFFF7FFFFFFF4F
:100B5000FDFFFFFFFFF7FFFFFFFFDFFFFFFFFF00CE
:100B600000003F00000000FC00000003F000000057
:100B70000FC00000003F00000000FC00000003F078
:100B80000000000FC00000003F00000000FC002635
:100B900026FFFFFFFFFFFFFFFFFFFFFFFFFFFFFF3E
:100BA000FFFFFFFFFFFFFFFFFFFFFFFFFFFFC00093
:100BB00000003F00000000FC00000003F000000007
:100BC0000FC00000003F00000000FC00000003F028
:100BD0000000000FC00000003FFFFFFFF0FFFFFF1D
:100BE000FFE3FFFFFFFFCFFFFFFFFFBFFFFFFFFFA1
:100BF000FFFFFFFFFC00000003F00000000FC0003B
:100C000000003F00000000FC00000003F0000000B6
:100C10000FC00000003F00000000FFF0000003FFD5
:100C2000C000000FFF0000003FFFFFFFFFFFFFFFBE
:100C3000FFFFF7FFFFFFFF8FFFFFFFFC1FFFFFFF1F
:100C4000E03FFFFFFF0026260FFFFFFF007FFFFFB3
:100C5000FC03FFFFFFF01FFFFFFFC0FFFFFFFF03CD
:100C6000FFFFFFFC0FC00000003F00000000FC0081
:100C7000000003F00000000FC00000003F00000073
:100C800000FC00000003F00000000FC00000003F67
:100C9000FFFFFFF0FFFFFFFFE3FFFFFFFFCFFFFFBF
:100CA000FFFFBFFFFFFFFFFFFFFFFFFFF00000039D
:100CB000FFC000000FFF0000003FFC000000FFF03D
:100CC000000003FFC000000FFF0000003FFC000019
:100CD00000FFF0000003FFC000000FFF0000003F16
:100CE000FFFFFFFFFFFFFFFFFFF7FFFFFFFF8FFF8C
:100CF000FFFFFC1FFFFFFFE03FFFFFFF0026260373
:100D0000FFFFFF800FFFFFFF803FFFFFFF00FFFFA0
:100D1000FFFE03FFFFFFFC0FFFFFFFF00000000FCF
:100D2000C00000003F00000000FC00000003F000D5
:100D300000000FC00000003F00000000FC000000A9
:100D400003F00000000FC00000003F00000000FCA6
:100D500000000003F00000000FC00000003F000092
:100D60000000FC00000003F00000000FC0000000C5
:100D70003F00000000FC00000003F00000000FC076
:100D80000000003F00000000FC00000003F0000035
:100D9000000FC00000003F00000000FC0000000346
:100DA000F00000000FC00000003F00000000FC0049
:100DB000000003F026260FFFFFFFC07FFFFFFF8329
:100DC000FFFFFFFF1FFFFFFFFEFFFFFFFFFFFFFF14
:100DD000FFFFFFC000000FFF0000003FFC0000000D
:100DE000FFF0000003FFC000000FFF0000003FFC09
:100DF000000000FFF0000003FFC000000FFF000034
:100E0000003FFFFFFFFFFDFFFFFFFFE7FFFFFFFFCB
:100E10009FFFFFFFFEFFFFFFFFFFF0000003FFC08B
:100E200000000FFF0000003FFC000000FFF000008A
:100E300003FFC000000FFF0000003FFC000000FFA8
:100E4000F0000003FFC000000FFF0000003FFFFFA5
:100E5000FFFFFFFFFFFFFFF7FFFFFFFF8FFFFFFF1A
:100E6000FC1FFFFFFFE03FFFFFFF0026260FFFFFF5
:100E7000FFC07FFFFFFF83FFFFFFFF1FFFFFFFFE9E
:100E8000FFFFFFFFFFFFFFFFFFFFC000000FFF009E
:100E900000003FFC000000FFF0000003FFC0000066
:100EA0000FFF0000003FFC000000FFF0000003FF08
:100EB000C000000FFF0000003FFFFFFFFFFFFFFF2C
:100EC000FFFFF7FFFFFFFFDFFFFFFFFF3FFFFFFF1A
:100ED000FC3FFFFFFFF00000000FC00000003F00DC
:100EE000000000FC00000003F00000000FC0000044
:100EF000003F00000000FC00000003F00000000FB5
:100F0000C00000003FFFFFFFFFFFFFFFFFFFF7FFF5
:100F1000FFFFFF8FFFFFFFFC1FFFFFFFE03FFFFF13
:100F2000FF00262600000000000000000000000076
:100F300000000000000000000000000000000000B1
:100F400000000000000000000000000000000000A1
:100F50000000000000000000000000000000000091
:100F60000000000000000000000000000000000081
:100F700000FFFFFC0003FFFFF0000FFFFFC0003F7A
:100F8000FFFF0000FFFFFC0003FFFFF00000000078
:100F90000000000000000000000000000000000051
:100FA0000000000000000000000000000000000041
:100FB0000000000000000000000000000000000031
:100FC0000000000000000000000000000000000021
:100FD0000000000000000000002626000FC00000F6
:100FE000007F00000003FC0000001FF0000000FF75
:100FF000C0000007FF0000003FFC000001FFF00000
:10100000000FEFC000007F3F000003F8FC00001F4E
:10101000C3F00000FE0FC00000003F00000000FC15
:1010200000000003F00000000FC00000003F0000BF
:101030000000FC00000003F00000000FC0000000F2
:101040003F00000000FC00000003F00000000FC0A3
:101050000000003F00000000FC00000003F0000062
:10106000000FC00000003F00000000FC0000000373
:10107000F00000000FC00000003F00000000FC0076
:10108000000003F00000000FC00000003F0000005F
:10109000303007FFFFFFFFF00FFFFFFFFFF81FFFDC
:1010A000FFFFFFFC3FFFFFFFFFFE3FFFFFFFFFFED5
:1010B0007FFFFFFFFFFF7F00000003FF7F000000B6
:1010C00007FF7F0000000FFF7F0000001FFF7F0071
:1010D00000003FFF7F000000FFFF7F000001FFFFD7
:1010E0007F000003FFFF7F000007FF7F7F00000FEE
:1010F000FE7F7F00001FFC7F7F00007FF07F7F006E
:1011000000FFE07F7F0001FFC07F7F0003FF807F43
:101110007F0007FF007F7F000FFE007F7F003FFC06
:10112000007F7F007FF0007F7F00FFE0007F7F0176
:10113000FFC0007F7F03FF80007F7F07FF00007FED
:101140007F1FFE00007F7F3FF800007F7F7FF00061
:10115000007F7FFFE000007F7FFFC000007F7FFFF8
:101160008000007F7FFF0000007F7FFC0000007F89
:101170007FF80000007F7FF00000007F7FE000002C
:10118000007F7FFFFFFFFFFF3FFFFFFFFFFE3FFFEF
:10119000FFFFFFFE1FFFFFFFFFFC0FFFFFFFFFF83A
:1011A00007FFFFFFFFF001FFFFFFFFC0000000008F
:1011B000000030300000000001FF0000000003FFCD
:1011C0000000000003FF0000000007FF0000000017
:1011D0000FFF000000001FFF000000003FFF0000A5
:1011E00000007FFF000000007FFF00000000FFFF05
:1011F00000000001FF7F00000003FE7F00000007E9
:10120000FE7F0000000FFC7F0000000FF87F000051
:10121000001FF07F00000000007F00000000007F42
:1012200000000000007F00000000007F00000000C0
:10123000007F00000000007F00000000007F000031
:101240000000007F00000000007F00000000007F21
:1012500000000000007F00000000007F0000000090
:10126000007F00000000007F00000000007F000001
:101270000000007F00000000007F00000000007FF1
:1012800000000000007F00000000007F0000000060
:10129000007F00000000007F00000000007F0000D1
:1012A0000000007F00000000007F00000000007FC1
:1012B00000000000007F00000000007F0000000030
:1012C000007F00000000007F00000000007F0000A1
:1012D0000000007F303001FFFFFFFFC007FFFFFF6E
:1012E000FFF01FFFFFFFFFF81FFFFFFFFFFC3FFFA7
:1012F000FFFFFFFE3FFFFFFFFFFE7FFFFFFFFFFF40
:101300007F000000007F7F000000007F7F00000062
:10131000007F7F000000007F00000000007F0000D1
:101320000000007F00000000007F00000000007F40
:1013300000000000007F00000000007F00000000AF
:10134000007F00000000007F00000000007F000020
:101350000000007F01FFFFFFFFFF07FFFFFFFFFE11
:101360000FFFFFFFFFFE1FFFFFFFFFFC3FFFFFFF21
:10137000FFF83FFFFFFFFFF07FFFFFFFFFC07F0091
:10138000000000007F00000000007F00000000005F
:101390007F00000000007F00000000007F000000D0
:1013A00000007F00000000007F00000000007F00C0
:1013B000000000007F00000000007F00000000002F
:1013C0007F00000000007F00000000007FFFFFFFA3
:1013D000FFFF7FFFFFFFFFFF7FFFFFFFFFFF7FFF9D
:1013E000FFFFFFFF7FFFFFFFFFFF7FFFFFFFFFFF0D
:1013F0007FFFFFFFFFFF303001FFFFFFFF0007FF10
:10140000FFFFFFC01FFFFFFFFFE01FFFFFFFFFF019
:101410003FFFFFFFFFF83FFFFFFFFFF87FFFFFFFEA
:10142000FFFC7F00000001FC7F00000001FC7F004A
:10143000000001FC7F00000001FC0000000001FC36
:101440000000000001FC0000000001FC00000000A2
:1014500001FC0000000001FC0000000001FC000095
:10146000000001FC0000000001FC0000000001FC85
:10147000007FFFFFFFFC007FFFFFFFF8007FFFFF03
:10148000FFF8007FFFFFFFFC007FFFFFFFFE007FF4
:10149000FFFFFFFE007FFFFFFFFF00000000007F57
:1014A00000000000007F00000000007F000000003E
:1014B000007F00000000007F00000000007F0000AF
:1014C0000000007F00000000007F00000000007F9F
:1014D00000000000007F7F000000007F7F00000010
:1014E000007F7F000000007F7F800000007F7FFF83
:1014F000FFFFFFFF3FFFFFFFFFFE3FFFFFFFFFFE7E
:101500001FFFFFFFFFFC0FFFFFFFFFF807FFFFFFBD
:10151000FFF001FFFFFFFFC03030000000007F80C0
:1015200000000000FF8000000001FF8000000003B9
:10153000FF8000000007FF800000000FFF80000018
:10154000001FFF800000003FFF800000007FFF8041
:10155000000000FFFF80000001FFFF80000007FF88
:10156000FF8000000FFFBF8000001FFE3F800000D3
:101570003FFC3F8000007FF83F800000FFF03F808D
:101580000001FFE03F800003FF803F800007FF0075
:101590003F80000FFE003F80001FFC003F80007F67
:1015A000F8003F8000FFF0003F8001FFC0003F8057
:1015B00003FF80003F8007FF00003F800FFE000018
:1015C0003F801FFC00003F801FFFFFFFFFFF1FFF4A
:1015D000FFFFFFFF1FFFFFFFFFFF1FFFFFFFFFFFDB
:1015E0001FFFFFFFFFFF1FFFFFFFFFFF1FFFFFFFAB
:1015F000FFFF000000003F80000000003F8000006F
:1016000000003F80000000003F80000000003F809D
:10161000000000003F80000000003F80000000004C
:101620003F80000000003F80000000003F8000007D
:1016300000003F80000000003F8030307FFFFFFF50
:10164000FFFF7FFFFFFFFFFF7FFFFFFFFFFF7FFF2A
:10165000FFFFFFFF7FFFFFFFFFFF7FFFFFFFFFFF9A
:101660007FFFFFFFFFFF7F00000000007F00000002
:1016700000007F00000000007F00000000007F00ED
:10168000000000007F00000000007F00000000005C
:101690007F00000000007F00000000007F000000CD
:1016A00000007F00000000007F00000000007F00BD
:1016B000000000007FFFFFFFFFC07FFFFFFFFFF084
:1016C0007FFFFFFFFFF87FFFFFFFFFFC7FFFFFFFB4
:1016D000FFFE7FFFFFFFFFFE7FFFFFFFFFFF00001A
:1016E0000000007F00000000007F00000000007F7D
:1016F00000000000007F00000000007F00000000EC
:10170000007F00000000007F00000000007F00005C
:101710000000007F00000000007F7F000000007FCD
:101720007F000000007F7F000000007F7F0000003E
:10173000007F7FFFFFFFFFFF3FFFFFFFFFFE3FFF39
:10174000FFFFFFFE1FFFFFFFFFFC1FFFFFFFFFF874
:1017500007FFFFFFFFF001FFFFFFFFC0303001FF79
:10176000FFFFFF0007FFFFFFFF000FFFFFFFFF006E
:101770001FFFFFFFFF003FFFFFFFFF003FFFFFFFD7
:10178000FF007FFFFFFFFF007F00000000007F00E1
:10179000000000007F00000000007F00000000004B
:1017A0007F00000000007F00000000007F000000BC
:1017B00000007F00000000007F00000000007F00AC
:1017C000000000007F00000000007F00000000001B
:1017D0007F00000000007FFFFFFFFFC07FFFFFFFD3
:1017E000FFF07FFFFFFFFFF87FFFFFFFFFFC7FFFA2
:1017F000FFFFFFFE7FFFFFFFFFFE7FFFFFFFFFFFFB
:101800007F000000007F7F000000007F7F0000005D
:10181000007F7F000000007F7F000000007F7F00CE
:101820000000007F7F000000007F7F000000007F3D
:101830007F000000007F7F000000007F7F0000002D
:10184000007F7F000000007F7F000000007F7F009E
:101850000000007F7FFFFFFFFFFF3FFFFFFFFFFE56
:101860003FFFFFFFFFFE1FFFFFFFFFFC0FFFFFFF1C
:10187000FFF807FFFFFFFFF001FFFFFFFFC0303061
:10188000007FFFFFFFC0007FFFFFFFF0007FFFFF33
:10189000FFF8007FFFFFFFFC007FFFFFFFFE007FE0
:1018A000FFFFFFFE007FFFFFFFFF00000000007F43
:1018B00000000000007F00000000007F000000002A
:1018C000007F00000000007F00000000007F00009B
:1018D0000000007F00000000007F00000000007F8B
:1018E00000000000007F00000000007F00000000FA
:1018F000007F00000000007F00000000007F00006B
:101900000000007F00000000007F00000000007F5A
:1019100000000000007F00000000007F00000000C9
:10192000007F00000000007F00000000007F00003A
:101930000000007F00000000007F00000000007F2A
:1019400000000000007F00000000007F0000000099
:10195000007F00000000007F00000000007F00000A
:101960000000007F00000000007F00000000007FFA
:1019700000000000007F00000000007F0000000069
:10198000007F00000000007F00000000007F0000DA
:101990000000007F00000000007F00000000007FCA
:1019A000303001FFFFFFFFC007FFFFFFFFF00FFF19
:1019B000FFFFFFF81FFFFFFFFFFC3FFFFFFFFFFEE2
:1019C0003FFFFFFFFFFE7FFFFFFFFFFF7F000000E5
:1019D000007F7F000000007F7F000000007F7F000D
:1019E0000000007F7F000000007F7F000000007F7C
:1019F0007F000000007F7F000000007F7F0000006C
:101A0000007F7F000000007F7F000000007F7F00DC
:101A10000000007F7F000000007F7F000000007F4B
:101A20003FFFFFFFFFFE3FFFFFFFFFFE3FFFFFFF08
:101A3000FFFE3FFFFFFFFFFE3FFFFFFFFFFE7FFFB9
:101A4000FFFFFFFF7F000000007F7F000000007F9E
:101A50007F000000007F7F000000007F7F0000000B
:101A6000007F7F000000007F7F000000007F7F007C
:101A70000000007F7F000000007F7F000000007FEB
:101A80007F000000007F7F000000007F7F000000DB
:101A9000007F7F000000007F7FFFFFFFFFFF3FFF11
:101AA000FFFFFFFE3FFFFFFFFFFE1FFFFFFFFFFCEB
:101AB0000FFFFFFFFFF807FFFFFFFFF001FFFFFF32
:101AC000FFC0303003FFFFFFFFC00FFFFFFFFFF03D
:101AD0001FFFFFFFFFF83FFFFFFFFFFC7FFFFFFF40
:101AE000FFFE7FFFFFFFFFFEFFFFFFFFFFFFFE0088
:101AF0000000007FFE000000007FFE000000007F6D
:101B0000FE000000007FFE000000007FFE000000DD
:101B1000007FFE000000007FFE000000007FFE004E
:101B20000000007FFE000000007FFE000000007F3C
:101B3000FE000000007FFE000000007FFE000000AD
:101B4000007FFFFFFFFFFFFF7FFFFFFFFFFF7FFF24
:101B5000FFFFFFFF3FFFFFFFFFFF1FFFFFFFFFFF35
:101B60000FFFFFFFFFFF03FFFFFFFFFF000000006D
:101B7000007F00000000007F00000000007F0000E8
:101B80000000007F00000000007F00000000007FD8
:101B900000000000007F00000000007F0000000047
:101BA000007F00000000007F00000000007F0000B8
:101BB0000000007F00000000007FFFFFFFFFFFFF2D
:101BC000FFFFFFFFFFFE7FFFFFFFFFFE3FFFFFFF67
:101BD000FFFC3FFFFFFFFFF80FFFFFFFFFF003FFDA
:101BE000FFFFFFC0303000000000000000000000D8
:101BF00000000000000000000000000000000000E5
:101C000000000000000000000000000000000000D4
:101C100000000000000000000000000000000000C4
:101C200000000000000000000000000000000000B4
:101C300000000000000000000000000000000000A4
:101C40000000000000000000000000000000000094
:101C50000000000000000000000000000000000084
:101C600000000000001FFFFFF800001FFFFFF8004A
:101C7000001FFFFFF800001FFFFFF800001FFFFF1D
:101C8000F800001FFFFFF800001FFFFFF800000032
:101C90000000000000000000000000000000000044
:101CA0000000000000000000000000000000000034
:101CB0000000000000000000000000000000000024
:101CC0000000000000000000000000000000000014
:101CD0000000000000000000000000000000000004
:101CE00000000000000000000000000000000000F4
:101CF00000000000000000000000000000000000E4
:101D00000000000000003030000FF8000000001F4D
:101D1000F8000000001FF8000000003FF80000007D
:101D2000007FF800000000FFF800000001FFF8004D
:101D3000000003FFF800000003FFF800000007FFA9
:101D4000F80000000FFBF80000001FF3F80000008F
:101D50003FF3F80000007FE3F80000007FC3F800C5
:101D60000000FF83F80000000003F80000000003FB
:101D7000F80000000003F80000000003F800000075
:101D80000003F80000000003F80000000003F80062
:101D900000000003F80000000003F800000000034A
:101DA000F80000000003F80000000003F800000045
:101DB0000003F80000000003F80000000003F80032
:101DC00000000003F80000000003F800000000031A
:101DD000F80000000003F80000000003F800000015
:101DE0000003F80000000003F80000000003F80002
:101DF00000000003F80000000003F80000000003EA
:101E0000F80000000003F80000000003F8000000E4
:101E10000003F80000000003F80000000003F800D1
:101E200000000003F8000000416D6D6F20636F6CCF
:101E30006F722028312F332900416D6D6F20636F41
:101E40006C6F722028322F332900416D6D6F206333
:101E50006F6C6F72202846756C6C29004261636B51
:101E600067726F756E6420636F6C6F7200554920E6
:101E7000436F6C6F7200526F746174652055492016
:101E80003930206467727300496E766572746564D8
:101E9000004D616E75616C206F6E6C7900417574D8
:101EA0006F206F6E6C79004175746F20414E442035
:101EB0004D616E75616C004175746F204F52204DFD
:101EC000616E75616C00363A00353A00343A003381
:101ED0003A00323A00313A003C3C204261636B00E8
:101EE00053797374656D20496E666F726D617469A4
:101EF0006F6E0053617665206272696768746E6503
:101F000073730052656C6F61642062656861766905
:101F10006F720055492053657474696E677300537E
:101F200065742074696D65004D616E616765205050
:101F3000726573657473003C3C205361766520269E
:101F400020457869740000000008000201000003C9
:101F50000407000000000000000000000000250051
:101F600028002B0000000000240027002A000404A1
:101F70000404040404040202020202020303030331
:101F8000030301020408102040800102040810200D
:101F9000010204081020D81E761E6D1E5C1E4A1E0B
:101FA000391E281EB71EA71E9D1E911E881ED81EF4
:101FB000D51ED21ECF1ECC1EC91EC61E371F281FFF
:101FC0001F1F131F031FF31EE01E00000000003E32
:101FD0005B4F5B3E3E6B4F6B3E1C3E7C3E1C183C99
:101FE0007E3C181C577D571C1C5E7F5E1C00183CF5
:101FF0001800FFE7C3E7FF0018241800FFE7DBE73E
:10200000FF30483A060E2629792926407F05050724
:10201000407F05253F5A3CE73C5A7F3E1C1C080880
:102020001C1C3E7F14227F22145F5F005F5F060945
:102030007F017F006689956A606060606094A2FF9E
:10204000A29408047E040810207E201008082A1C90
:1020500008081C2A08081E101010100C1E0C1E0C5C
:1020600030383E3830060E3E0E06000000000000FC
:10207000005F00000007000700147F147F14242A6B
:102080007F2A12231308646236495620500008073D
:102090000300001C2241000041221C002A1C7F1C5E
:1020A0002A08083E08080080703000080808080860
:1020B000000060600020100804023E5149453E00C7
:1020C000427F400072494949462141494D33181425
:1020D000127F1027454545393C4A49493141211174
:1020E00009073649494936464949291E0000140066
:1020F0000000403400000008142241141414141489
:10210000004122140802015909063E415D594E7CE6
:102110001211127C7F494949363E414141227F419B
:1021200041413E7F494949417F090909013E4141F9
:1021300051737F0808087F00417F41002040413FE4
:10214000017F081422417F404040407F021C027FF3
:102150007F0408107F3E4141413E7F090909063E48
:102160004151215E7F091929462649494932030117
:102170007F01033F4040403F1F2040201F3F403829
:10218000403F631408146303047804036159494D04
:1021900043007F4141410204081020004141417F3A
:1021A00004020102044040404040000307080020B0
:1021B000545478407F2844443838444444283844B0
:1021C00044287F385454541800087E090218A4A4E7
:1021D0009C787F0804047800447D40002040403D06
:1021E000007F1028440000417F40007C0478047880
:1021F0007C080404783844444438FC182424181813
:10220000242418FC7C08040408485454542404046E
:102210003F44243C4040207C1C2040201C3C40305B
:10222000403C44281028444C9090907C4464544C8A
:1022300044000836410000007700000041360800E5
:1022400002010204023C2623263C1EA1A161123A8F
:102250004040207A385454555921555579412254DB
:10226000547842215554784020545579400C1E52E0
:102270007212395555555939545454593955545485
:10228000580000457C410002457D420001457C40EC
:102290007D1211127DF0282528F07C545545002030
:1022A00054547C547C0A097F4932494949323A44A2
:1022B00044443A324A4848303A4141217A3A42400D
:1022C0002078009DA0A07D3D4242423D3D404040DF
:1022D0003D3C24FF2424487E4943662B2FFC2F2BB2
:1022E000FF0929F620C0887E090320545479410053
:1022F00000447D413048484A32384040227A007AD2
:102300000A0A727D0D19317D2629292F28262929AF
:10231000292630484D4020380808080808080808D1
:10232000382F10C8ACBA2F102834FA00007B0000F8
:1023300008142A142222142A14085500550055AAFC
:1023400055AA55AAFF55FF55FF000000FF001010C9
:1023500010FF00141414FF001010FF00FF1010F005
:1023600010F0141414FC001414F700FF0000FF0018
:10237000FF1414F404FC141417101F10101F101F66
:102380001414141F00101010F0000000001F101093
:1023900010101F10101010F010000000FF1010108F
:1023A000101010101010FF10000000FF140000FFAC
:1023B00000FF00001F10170000FC04F41414171095
:1023C000171414F404F40000FF00F7141414141488
:1023D0001414F700F7141414171410101F101F14FE
:1023E0001414F4141010F010F000001F101F00005F
:1023F000001F14000000FC140000F010F01010FF8B
:1024000010FF141414FF141010101F00000000F02F
:1024100010FFFFFFFFFFF0F0F0F0F0FFFFFF000004
:10242000000000FFFF0F0F0F0F0F3844443844FC2B
:102430004A4A4A347E02020606027E027E02635542
:102440004941633844443C04407E201E2006027EFD
:10245000020299A5E7A5991C2A492A1C4C7201720F
:102460004C304A4D4D303048784830BC625A463D79
:102470003E494949007E0101017E2A2A2A2A2A442E
:10248000445F444440514A444040444A5140000063
:10249000FF0103E080FF000008086B6B083612366E
:1024A0002436060F090F060000181800000010104F
:1024B000003040FF0101001F01011E00191D17120D
:1024C000003C3C3C3C0000000000303711241FBEA3
:1024D000CFEFD8E0DEBFCDBF11E0A0E0B1E0E0E09B
:1024E000F9E702C005900D92AE3DB107D9F724E09F
:1024F000AEEDB1E001C01D92A63BB207E1F712E1DB
:10250000C6E6D2E104C02197FE010E945F3CC536B9
:10251000D107C9F70E94B92F0C947E3C0C9400009F
:10252000F8944B9913C08091DE01811111C0809104
:10253000EE019091EF0101979093EF018093EE01EE
:1025400081E0809309028093DE0102C01092DE01D7
:102550007894089508950895EF92FF920F931F9332
:102560004091E3012091E1013091E201423069F0B4
:10257000433021F04130B1F4207E0EC03770982FE7
:102580008827990F990F990F07C02F71387F45E061
:10259000880F991F4A95E1F7822B932B9093E201C4
:1025A0008093E101E090E101F090E20108E110E0A8
:1025B00028E130E040E150E068E570E084E594E037
:1025C0000E94E5211F910F91FF90EF900895809355
:1025D000E301813061F090F0823031F0833009F016
:1025E00049C02BEA33E005C023E933E002C02BE702
:1025F00033E030932302209322023CC0E091DF01BC
:10260000F091E0018091E1019091E201918380835A
:1026100085E08093F201609125047091260484E5A1
:1026200094E00E941E1C80912304909124049093B6
:10263000670480936604909365048093640488E241
:1026400090E0909361048093600410926304109270
:10265000620483E891E00E94A62468E070E08BECBD
:1026600093E00E94AB248BEC93E090932302809341
:1026700022020895209125043091260440912304DC
:10268000509124045093650440936404309367048C
:102690002093660490E0019724E0880F991F2A9503
:1026A000E1F72BE230E0A901481B590B509361047C
:1026B0004093600482E790E0909363048093620407
:1026C0008EE50C945E24EF92FF920F931F93CF93AD
:1026D000DF93EC0180910F0490E0FC01EE0FFF1FEF
:1026E000E55DFB4FD183C0832BE034E030932302C0
:1026F00020932202E0902504F090260440911904D2
:1027000050911A0420911B0430911C04240F351F92
:10271000289FB001299F700D389F700D11244091A2
:102720001504509116044E5F5F4F460F571F0AE085
:1027300010E02AE030E060E570E084E594E00E947B
:10274000F21DCD2B61F52091190430911A0480916E
:102750001B0490911C04280F391F80910F04829F45
:10276000A001839F500D11248091150490911604AF
:102770000296840F951F2AE530E030936104209380
:10278000600490936304809362048FE891E0DF918A
:10279000CF911F910F91FF90EF900C94A624DF91A1
:1027A000CF911F910F91FF90EF900895A3E2B4E0B5
:1027B00012962D913C911397E4E5F4E04D915C91D4
:1027C000518B408B338B228BABE0B4E01E964D9146
:1027D0005C911F9750962D913C915197420F531F3A
:1027E00014962C911497249FB001259F700D1124ED
:1027F0001A962D913C911B972E5F3F4F260F371F46
:102800004AE550E05587448737872687BC0180E03A
:1028100090E04AE00E94632480E20C945E240F93CF
:102820001F93CF93DF93EBE6F3E0F0932302E09363
:1028300022028091B30490E091878087C3E2D4E0C4
:102840000A811B812CE030E04EE350E062E370E04F
:1028500084E594E00E944B22088119812CE030E04D
:102860004EE350E064E470E084E594E00E944B2283
:10287000DF91CF911F910F91089580916303809311
:10288000B404E4E5F4E082E390E0958784879787D9
:1028900086870C943D24809173038093B304E4E510
:1028A000F4E082E390E095878487978786870C948D
:1028B0003D24EF92FF920F931F938091C703E09006
:1028C0002304F090240481112DC00CE010E028E3D3
:1028D00030E044E650E060E470E084E594E00E947B
:1028E000E5218091230490912404209125043091C6
:1028F00026043093650420936404909367048093C6
:10290000660480E590E0909361048093600486E61D
:1029100090E0909363048093620483E991E00E94C5
:10292000A62425C02091250430912604F092650448
:10293000E0926404309367042093660490E001976A
:1029400034E0880F991F3A95E1F72BE230E0A901B6
:10295000481B590B509361044093600482E790E058
:1029600090936304809362048FE60E945E248091BA
:10297000E3019091C703981709F460C0811141C029
:10298000E0902304F09024040CE010E028E330E011
:1029900044E650E060E470E084E594E00E94511C5D
:1029A000E0902504F09026040AE010E026E330E0F1
:1029B00045E650E061E470E084E594E00E94E521A2
:1029C00080912504909126042091230430912404C1
:1029D00030936504209364049093670480936604A5
:1029E00080E590E0909361048093600486E690E037
:1029F000909363048093620483E991E00E94A6248B
:102A000019C0E0902504F090260490E0019724E09E
:102A1000880F991F2A95E1F76BE270E0681B790B2C
:102A20000AE010E02CE030E042E750E084E594E07A
:102A30000E94E5218091C7038093E3011F910F91CC
:102A4000FF90EF900895CF92DF92EF92FF920F9355
:102A50001F93CF93DF9323E02093F2011092E301C1
:102A60009093E0018093DF01FC018081918190933C
:102A7000E2018093E10183EC93E090932302809341
:102A8000220283E2C82E84E0D82EF601628173818F
:102A900084E594E00E941E1CEBEAF3E08091E201E1
:102AA0008695869586958087118668E0CF010E947D
:102AB000D2268091E1019091E201807E977025E01D
:102AC000969587952A95E1F790939C0380939B03B5
:102AD00068E183E993E00E94D2268091E101909120
:102AE000E2018F719927909384038093830368E2B6
:102AF0008BE793E00E94D226F601E080F1800CE0A3
:102B000010E028E330E044E650E060E470E084E563
:102B100094E00E94511CF60182819381C4E5D4E0C7
:102B200020813181398B288B9B8B8A8B80E590E0CB
:102B30009D878C8785E690E09F878E8783E991E06B
:102B40000E94A6248AE090E09D878C879F878E87CD
:102B5000E090E101F090E20108E110E028E130E0CE
:102B600040E150E068E570E0CE010E94E521F60109
:102B7000E080F1800AE110E02AE130E04FE050E02F
:102B800067E570E0CE010E94511CDF91CF911F914B
:102B90000F91FF90EF90DF90CF900C9459140F930A
:102BA0001F93CF93DF93F999FECF80E090E00E94CE
:102BB000DD39823409F441C0F999FECF62E480E046
:102BC00090E00E94F73964E681E090E00E94F739D6
:102BD00060EE7FEF82E090E00E94053A60E070E0F6
:102BE00084E090E00E94053A60EE7FEF86E090E09E
:102BF0000E94053A60EE7FEF88E090E00E94053A7F
:102C000060EE7FEF8AE090E00E94053A6EE170E0AE
:102C10008CE090E00E94053A6EE571E08EE090E075
:102C20000E94053AC0E1D0E060E0CE010E94F73991
:102C30002196CA31D105C1F7B6CF81E090E00E945C
:102C4000DD398093EA0103E214E0C2E0D0E0CE0176
:102C50000E94DD39F80181938F012196CA31D10597
:102C6000B1F7DF91CF911F910F910895A0912202AA
:102C7000B0912302109779F0482F50E0440F551F70
:102C800042505E4FED91FC9111970280F381E02D4F
:102C9000682FCD0109940895CF93DF9381E080934D
:102CA000F201C3E2D4E06A817B8184E594E00E9472
:102CB0001E1C88819981E4E5F4E0938B828B918BD3
:102CC000808B88E290E0958784871786168686E851
:102CD00091E00E94A62468E070E08BE394E00E94FB
:102CE000AB248BE394E09093230280932202DF9144
:102CF000CF91089590E08730910508F055C0FC0110
:102D0000EC5CFF4F0C945F3C0C944C1683E294E017
:102D10000BC085E294E008C087E294E005C089E238
:102D200094E002C08BE294E00C94231560913A0485
:102D3000633010F46F5F01C060E060933A0484E593
:102D400094E00E94952A85E08093F2016091250429
:102D50007091260484E594E00E941E1C8091230457
:102D60009091240490936704809366049093650483
:102D70008093640488E290E09093610480936004FF
:102D8000109263041092620483E891E00E94A624EA
:102D900068E070E08BEC93E00E94AB248BEC93E056
:102DA00090932302809322020895CF93811103C050
:102DB000CF910C944C16C82F809125049091260435
:102DC00020912304309124043093650420936404FB
:102DD00090936704809366042091190430911A043B
:102DE00080911B0490911C04280F391FC29FA001E1
:102DF000C39F500D112480911504909116040296E2
:102E0000840F951F20E530E0309361042093600427
:102E100090936304809362048EE30E945E24209169
:102E20000F0430E04091190450911A0480911B0462
:102E300090911C04480F591F429FB001439F700D91
:102E4000529F700D112480911504909116040296E2
:102E5000860F971F4AE550E0509361044093600449
:102E6000909363048093620481E090E0C13011F09C
:102E700080E090E0909300048093FF038BEF93E059
:102E80009093230280932202220F331FF901E55D04
:102E9000FB4F8081918190930404809303040E94EE
:102EA000512588E991E0CF910C94A62480933904B0
:102EB0000C944C16CF93DF938091250490912604B7
:102EC00020912304309124043093650420936404FA
:102ED000909367048093660489E690E09093610480
:102EE000809360048DE090E090936304809362048B
:102EF00082E0809368048091EB0182FF03C080919F
:102F0000E40102C08091F00190E001960E945125F9
:102F100081E0809368048091EB0182FF05C080917D
:102F200023049091240404C08091250490912604E8
:102F3000909367048093660490936504809364047F
:102F40008FE590E09093610480936004C6E1D0E047
:102F5000D0936304C09362048CE30E945E2487E7ED
:102F600090E09093610480936004D0936304C093D5
:102F700062048EE30E945E248091250490912604D1
:102F80002091230430912404309365042093640439
:102F90009093670480936604DF91CF910895682F22
:102FA0008091220290912302009739F0DC01ED918B
:102FB000FC910190F081E02D0994623051F018F4F9
:102FC0006130D1F00895633089F16F3F09F456C044
:102FD00008958091F201882319F08F3F59F00895E8
:102FE0008091F0018093E4018091EB0184608093F3
:102FF000EB0137C00C944C168091F20181114EC048
:103000008091EB0182FF4AC08091E401882311F096
:10301000815001C085E0E82FF0E0EE0FFF1FE35D77
:10302000FB4F20813181232B89F319C08091F2015C
:10303000811134C08091EB0182FF30C08091E401A6
:10304000853010F48F5F01C080E0E82FF0E0EE0FD4
:10305000FF1FE35DFB4F20813181232B89F3809398
:10306000E4010E945A170E94AC2B6093E501709313
:10307000E6018093E7019093E8010895E091F00163
:10308000F0E0EE0FFF1FE35DFB4F80819181909395
:10309000EF018093EE0182E08093F1010895809129
:1030A000F5014A9913C0811119C08091F3019091E3
:1030B000F401049798F08FEF0E94CF1781E080937E
:1030C000F5011092FD031092FC0304C0882331F037
:1030D0001092F5011092F4011092F30108958F926D
:1030E0009F92AF92BF92CF92DF92EF92FF920F9397
:1030F0001F932091EA01822F90E0A0E0B0E09C01B4
:10310000AD012150310941095109A4E6B0E00E9406
:10311000293A2EEF30E040E050E00E940A3AAA241B
:10312000BB24A21AB30AE3E2F4E0C080D180E280BB
:10313000F380812C912C06E010E024E630E04EE193
:1031400050E063E170E084E594E00E9407211F9164
:103150000F91FF90EF90DF90CF90BF90AF909F9036
:103160008F900895EF92FF920F931F93CF93DF9369
:10317000C3E2D4E00A811B812881398143E357E00F
:103180006CE170E082E090E00E945626E880F980D1
:1031900008E010E028E630E04DE150E060E170E04A
:1031A00084E594E00E94E521DF91CF911F910F917A
:1031B000FF90EF9008950F931F93CF93DF9360914B
:1031C000EE017091EF01161617060CF5CB01770F83
:1031D000AA0BBB0BBC01CD0126E0660F771F881F31
:1031E000991F2A95D1F7E091F001F0E0EE0FFF1F53
:1031F000E35DFB4F20813181032E000C440B550B06
:103200000E940A3AC0E4C21BCB3238F001C0C0E4CD
:1032100080912B0490912C040BC0C63128F0809132
:10322000290490912A0404C08091270490912804D5
:103230009093ED018093EC01D0E020912504309132
:1032400026044091EC015091ED018E0163E171E0A3
:1032500080E090E00E947F25002711270C1B1D0BAA
:1032600020912504309126044091EC015091ED010C
:1032700061E970E080E490E00E947F25DF91CF91CA
:103280001F910F9108950F931F93CF93DF93109287
:103290002302109222021092F201C3E2D4E06A816A
:1032A0007B8184E594E00E941E1C8A819B81E4E579
:1032B000F4E028813981318B208B938B828B8FE5D1
:1032C00090E0958784878DE090E0978786878BE9EB
:1032D00091E00E94A6240A811B812881398144E85B
:1032E00050E063E070E088E590E00E9456260E947E
:1032F000DB1881E08093F101DF91CF911F910F9155
:103300000C945A17EF92FF920F931F93CF93DF9372
:1033100090E08730910508F001C2FC01E55CFF4FA9
:103320000C945F3CF999FECF03E214E0C2E0D0E0D8
:10333000F80161918F01CE010E94E5392196CA31D1
:10334000D105B1F7DF91CF911F910F91FF90EF90D1
:103350000C94431982E08093F201609125047091EE
:10336000260484E594E00E941E1C80912304909121
:10337000240490936704809366049093650480937B
:10338000640488E290E0909361048093600410925A
:103390006304109262048EE991E00E94A62468E022
:1033A00070E08BE094E00E94AB248BE094E090937B
:1033B000230280932202809125049091260420917B
:1033C0002304309124043093650420936404909383
:1033D0006704809366040DE214E0C1E0D0E08AE562
:1033E000E82EF12C8091100490E0C817D9070CF05A
:1033F00095C12091190430911A0480911B04909179
:103400001C04280F391F2C9FA0012D9F500D3C9F9D
:10341000500D112480911504909116040296840F8A
:10342000951FF0926104E09260049093630480938E
:103430006204F801819191918F01009719F00E9427
:10344000512504C08FE891E00E94A6242196CACF9E
:103450008BE593E090932302809322028091B40441
:1034600090E09093640380936303609125047091CE
:10347000260484E594E00E941E1C82E390E0909371
:10348000610480936004909363048093620480914C
:103490002504909126042091230430912404309334
:1034A00065042093640490936704809366040E94EB
:1034B0003D2400912304109124042CE030E04EE3DD
:1034C00050E062E370E084E594E00E944B2226C164
:1034D00085E08093F201609125047091260484E5D3
:1034E00094E00E941E1C80912304909124049093E8
:1034F000670480936604909365048093640488E273
:1035000090E09093610480936004109263041092A1
:10351000620483E891E00E94A62468E070E08BECEE
:1035200093E00E94AB248BEC93E090932302809372
:103530002202F4C0809139048093E70384E08093F1
:10354000F201609125047091260484E594E00E94C4
:103550001E1C80912304909124049093670480930F
:103560006604909365048093640488E290E09093ED
:10357000610480936004109263041092620486EAEE
:1035800091E00E94A62462E170E083EE93E00E9445
:10359000AB2483EE93E090932302809322028091E8
:1035A0002504909126042091230430912404309323
:1035B00065042093640490936704809366042091CB
:1035C000F1033091F2038091F3039091F403280FFB
:1035D000391F80913904829FA001839F500D1124CF
:1035E0008091ED039091EE030296840F951F28E0E1
:1035F00030E03093610420936004909363048093DF
:1036000062048EE3DF91CF911F910F91FF90EF90B5
:103610000C945E24F999FECF6091EA0181E090E07C
:103620000E94E5398091230490912404209125047F
:1036300030912604309365042093640490936704CA
:10364000809366042091490430914A0480914B0490
:1036500090914C04280F391F85E0829FA001839F21
:10366000500D112480914504909146040296840FD8
:10367000951F29E630E03093610420936004909315
:1036800063048093620483EB91E0DF91CF911F91FB
:103690000F91FF90EF900C94A6248FEF8093F2018E
:1036A0001092230210922202809125049091260408
:1036B0002091230430912404309365042093640402
:1036C00090936704809366041092610410926004E2
:1036D00080E290E0909363048093620486EB91E033
:1036E0000E94A624EDE2F7E06591749184E594E0F0
:1036F0000E94802F63EC71E084E594E00E94A42F87
:10370000EFE2F7E06591749184E594E0DF91CF9169
:103710001F910F91FF90EF900C94802FDF91CF912C
:103720001F910F91FF90EF9008951F920F920FB687
:103730000F9211240F900FBE0F901F9018951F929B
:103740000F920FB60F9211242F933F934F935F93D5
:103750006F937F938F939F93AF93BF93EF93FF9359
:103760008091F801319913C0811119C08091F6013F
:103770009091F701049798F082E00E94CF1781E0C2
:103780008093F801109203021092020204C0882371
:1037900031F01092F8011092F7011092F601809129
:1037A0000802309913C0811119C08091FC019091D9
:1037B000FD01049798F081E00E94CF1781E080938B
:1037C0000802109201021092000204C0882331F016
:1037D000109208021092FD011092FC018091FB01F1
:1037E000329913C0811119C08091F9019091FA01A9
:1037F000049798F083E00E94CF1781E08093FB014B
:10380000109205021092040204C0882331F0109235
:10381000FB011092FA011092F901FF91EF91BF9113
:10382000AF919F918F917F916F915F914F913F9158
:103830002F910F900FBE0F901F901895EF92FF924F
:103840000F931F93DC011A960D911C911B971896EC
:103850002D913C911997ED91FC9100A0F1A1E02DE3
:103860007B0140E050E060E070E009951F910F910E
:10387000FF90EF9008950895FC016370658B84813B
:10388000958126813781613039F0633029F0918745
:10389000808733872287089531872087938782879F
:1038A00008956F927F928F929F92AF92BF92CF9224
:1038B000DF92EF92FF920F931F93CF93DF93EC0170
:1038C0004B015A0169013801E881F9810284F385CD
:1038D000E02D0995E881F9810288F389E02D8701BF
:1038E0009601A501B401CE010995A501460D571D0C
:1038F00041505109E881F9810288F389E02D960150
:10390000B401CE010995E881F9810088F189E02DA3
:103910009301A501B401CE010995C80CD91CB601CB
:1039200061507109E881F9810088F189E02D9301E6
:10393000A501CE010995E881F9810688F789E02D76
:10394000CE01DF91CF911F910F91FF90EF90DF900B
:10395000CF90BF90AF909F908F907F906F90099481
:103960008F929F92AF92BF92CF92DF92EF92FF928F
:103970000F931F93CF93DF934C016B015A01E90121
:10398000DC01ED91FC916217730781F404171507B0
:1039900024F48B2D5801042F182F0A191B099801A4
:1039A0002F5F3F4F048CF58DE02D12C0401751075B
:1039B00009F52617370724F48D2D6901C62FD82F56
:1039C0009E012C193D092F5F3F4F068CF78DE02D8E
:1039D0008701A501B601C4010995DF91CF911F911F
:1039E0000F91FF90EF90DF90CF90BF90AF909F909E
:1039F0008F9008950284F385E02D0995D401ED910F
:103A0000FC910488F589E02D9E01A501B601C40151
:103A10000995D401ED91FC910688F789E02DC40148
:103A2000DF91CF911F910F91FF90EF90DF90CF909A
:103A3000BF90AF909F908F900994EF92FF920F9359
:103A40001F93DC011A960D911C911B9718962D91CE
:103A50003C911997ED91FC9100A0F1A1E02D7B0123
:103A600040E050E060E070E009951F910F91FF90F9
:103A7000EF9008954F925F926F927F928F929F92F4
:103A8000AF92BF92CF92DF92EF92FF920F931F936C
:103A9000CF93DF936C012B015A0139014801DC01FE
:103AA000ED91FC910284F385E02D0995E201640C0F
:103AB000751CD601ED91FC91C615D7055CF4008804
:103AC000F189E02D87019401A501BE01C601099588
:103AD0002196EFCF0688F789E02DC601DF91CF91BF
:103AE0001F910F91FF90EF90DF90CF90BF90AF901C
:103AF0009F908F907F906F905F904F9009948F92DE
:103B00009F92AF92BF92CF92DF92EF92FF920F936C
:103B10001F93CF93DF93EC015B014A016901E881B8
:103B2000F9810284F385E02D099595012C0D3D1D49
:103B300021503109E881F9810488F589E02D780167
:103B40008401A401B501CE010995E881F9810688B7
:103B5000F789E02DCE01DF91CF911F910F91FF905A
:103B6000EF90DF90CF90BF90AF909F908F9009948F
:103B70008F929F92AF92BF92CF92DF92EF92FF927D
:103B80000F931F93CF93DF93EC015B014A0169010F
:103B90007801E881F9810284F385E02D0995C80C4C
:103BA000D91C860101501109E881F9810488F58941
:103BB000E02D9501A401B501CE010995E881F981B7
:103BC0000688F789E02DCE01DF91CF911F910F91EB
:103BD000FF90EF90DF90CF90BF90AF909F908F902D
:103BE00009940895EF92FF920F931F93DC01ED91DA
:103BF000FC9100A0F1A1E02D09951F910F91FF907C
:103C0000EF9008950F931F93DC01ED91FC91068CCA
:103C1000F78DE02D09951F910F9108950F931F9334
:103C2000DC01ED91FC91048CF58DE02D09951F913F
:103C30000F910895DC01ED91FC910084F185E02D58
:103C400009942F923F924F925F926F927F928F9240
:103C50009F92AF92BF92CF92DF92EF92FF920F931B
:103C60001F93CF93DF9300D000D000D0CDB7DEB745
:103C70002C017E836D836A015901C801FC82EB82AD
:103C80004801841A950A97FE03C091948194910883
:103C900035012D813E81621A730A77FE03C071944B
:103CA00061947108681479045CF43A2D2B2D5C0141
:103CB000832F922F3D812E81DE82CD82C32ED22E84
:103CC000AD81BE81AA16BB065CF43C2D2D2D6C0186
:103CD000832F922F3D812E81BE82AD82A32EB22EE4
:103CE00085012D813E81021B130B1C012C183D0800
:103CF00037FE03C0319421943108780117FF03C0C7
:103D00003FEFE31AF30AF594E794C816D9062CF0AE
:103D10008FEF9FEF9A83898304C0A1E0B0E0BA835C
:103D2000A9832D813E81A216B30624F1D201ED9123
:103D3000FC910484F585E02D2B813C816814790485
:103D400024F44D815E81B60103C0A6016D817E81A0
:103D5000C2010995E218F308F7FE06C029813A81ED
:103D6000C20ED31EE00EF11E8D819E8101969E83B0
:103D70008D83D7CF26960FB6F894DEBF0FBECDBF8A
:103D8000DF91CF911F910F91FF90EF90DF90CF9037
:103D9000BF90AF909F908F907F906F905F904F906B
:103DA0003F902F90089585ED8093BC008091BC00DA
:103DB00084FDFCCF10928D02089540914402262F7D
:103DC00030E0240F311D21323105DCF420918D02C9
:103DD0002430C9F4FC0180E090E0861758F430915B
:103DE00044022191DC01AC5DBD4FA30FB11D2C93AA
:103DF0000196F3CF80914402680F6093440280E003
:103E0000089581E0089582E00895E0919104809101
:103E10009004E81730F4F0E0EE56FB4F808190E01C
:103E200008958FEF9FEF08959091910480919004F1
:103E3000981750F4E92FF0E0EE56FB4F208130E068
:103E40009F5F9093910402C02FEF3FEFC901089547
:103E50008091900490E020919104821B9109089533
:103E6000CF92DF92EF92FF920F931F93CF93DF9346
:103E70007C01CB018A0120918E02222389F0EB0183
:103E80006B01C40ED51ECC15DD0569F06991D70113
:103E9000ED91FC910190F081E02DC7010995F3CFE0
:103EA000642F0E94DD1EC801DF91CF911F910F91F9
:103EB000FF90EF90DF90CF900895CF93DF931F9204
:103EC000CDB7DEB7698320918E022223D1F02091F5
:103ED000B102203240F021E030E0FC013383228344
:103EE00080E090E015C080918F02E82FF0E0E0576D
:103EF000FD4F998190838F5F80938F028093B102F1
:103F000005C061E0CE0101960E94DD1E81E090E0D7
:103F10000F90DF91CF910895089580E090E008958B
:103F2000AF92BF92CF92EF92FF920F931F93CF93D6
:103F3000DF93EC01262F888D998D009709F040C002
:103F40006A3059F41D861C862C898E859F8538E041
:103F5000239F800D911D112441C06D3009F4AAC02A
:103F60008E898823C1F03C898C859D8546E0349FED
:103F7000800D911D112448855985481759075CF417
:103F80001D861C868E859F8548E0349F800D911D7F
:103F900011249F878E87EA88FB88088919894E85B6
:103FA0005F856C857D85CC88CE010E94662D2C892D
:103FB0008C859D8536E0239F800D911D112442C084
:103FC0006A3079F41D861C862C89FC013696E491B2
:103FD0008E859F852E9F800D911D11249F878E8732
:103FE00069C06D3009F466C0FC01349634916317E2
:103FF00008F460C03196E491E61708F45BC0FC0158
:10400000329665917491422F50E0431B510937E07D
:10401000349F5001359FB00C1124A60EB71EF50138
:10402000329634913196E491332311F0E1110DC0B1
:10403000F5013496E4912C898C859D85E29F800D55
:10404000911D11249D878C8735C0F50135964491CB
:104050005E89552311F16C89E32FF0E0E40FF11D27
:1040600047FDFA956E9FD0016F9FB00D11244C85CE
:104070005D854A0F5B1FE885F985E417F5076CF449
:104080001D861C86FC013696E4918E859F856E9F69
:10409000800D911D11249F878E87EA88FB880889EF
:1040A00019894E855F856C857D85CC88CE010E94FF
:1040B000662DBECF81E090E0DF91CF911F910F91EF
:1040C000FF90EF90CF90BF90AF90089581E08093E4
:1040D000E9010C944C1683EC93E0909323028093B7
:1040E0002202A3E2B4E012968D919C911397E4E52D
:1040F000F4E02D913C91318B208B938B828B8091BE
:10410000E30190E0019724E0880F991F2A95E1F7D9
:104110002BE230E0A901481B590B5587448782E701
:1041200090E0978786878FE60C945E248EBD000012
:104130000DB407FEFDCF8EB508951F93CF93DF9387
:10414000EC01162F0E94562C0E944C2C812F0E94AD
:104150009620CE01DF91CF911F910C94622C1F937A
:10416000CF93DF93EC01162F0E94562C8CB58F7BDA
:104170008CBD2B982D9A2D988CB580648CBD812F89
:104180000E949620CE01DF91CF911F910C94622C5A
:10419000EF92FF920F931F93CF93DF93EC01E62EE4
:1041A000142FF22E6AE20E94AF2060E0CE010E943E
:1041B0009D206DA16E0DCE010E949D2060E0CE017C
:1041C0000E949D206DA16F0DCE010E949D206BE28B
:1041D000CE010E94AF2060E0CE010E949D206EA122
:1041E000610FCE010E949D2060E0CE010E949D20C3
:1041F0006EA1600FCE010E949D206CE2CE01DF9186
:10420000CF911F910F91FF90EF900C94AF202F92C0
:104210003F924F925F926F927F928F929F92AF9256
:10422000BF92CF92DF92EF92FF920F931F93CF93A3
:10423000DF93CDB7DEB72D970FB6F894DEBF0FBE74
:10424000CDBF2C0139011801EB82FC82DD82DC013B
:1042500018968D919C911997681779070CF09CC05E
:104260001A96ED91FC911B974E175F070CF094C0C6
:104270009B01260D371D821793071CF43C01661A1B
:10428000770ACA01820D931DE817F9071CF41F0174
:10429000241A350A29826A820FEF040F020D2FEFCC
:1042A000260F260DC2010E94C820C2010E94562C72
:1042B000F101E819F909FF83EE8322273327281932
:1042C000390939872887C3018A199B099B878A87FF
:1042D000AA27BB27AA19BB09BD87AC87E980E218CA
:1042E00012141304F4F58301F12C8A81801B10163B
:1042F00011069CF590E0B7FE06C0EC85FD858E1793
:104300009F0734F414C02A853B85821793077CF4F9
:10431000DD24D39497FE06C088859985E816F906B2
:104320003CF405C0AE81BF81EA16FB060CF0D12C2F
:104330000E944C2CD11002C08D8101C08C810E9442
:1043400096200E944C2CD11002C08C2D01C08B8174
:104350000E94962001501109C8CFB1E02B1A3108F4
:10436000BDCFC2012D960FB6F894DEBF0FBECDBFF4
:10437000DF91CF911F910F91FF90EF90DF90CF9041
:10438000BF90AF909F908F907F906F905F904F9075
:104390003F902F900C94622C2D960FB6F894DEBFB0
:1043A0000FBECDBFDF91CF911F910F91FF90EF9086
:1043B000DF90CF90BF90AF909F908F907F906F9045
:1043C0005F904F903F902F900895AF92BF92CF9201
:1043D000DF92EF92FF920F931F93CF93DF936C01C5
:1043E0005901E801FC0120853185621773070CF043
:1043F00047C082859385481759070CF041C0FB01DF
:10440000EA0DFB1D2E173F071CF45901A61AB70A27
:104410009A012C0F3D1F821793071CF4EC01C41B5B
:10442000D50B0FEF040F0C0F2FEF260F2A0DC6012F
:104430000E94C820C6010E94562C1C161D069CF422
:104440008501101611066CF40E944C2C8F2D0E94D1
:1044500096200E944C2C8E2D0E949620015011090E
:10446000F0CF2197EACFC601DF91CF911F910F9135
:10447000FF90EF90DF90CF90BF90AF900C94622CA4
:10448000DF91CF911F910F91FF90EF90DF90CF9030
:10449000BF90AF900895DF92EF92FF920F931F931A
:1044A000CF93DF937C01E901D02EFC0180859185BB
:1044B0006817790784F522853385421753075CF521
:1044C0009B012C0F3D1F821793071CF4EC01C61BA8
:1044D000D70B2FEF260F2C0F042FC7010E94C820E7
:1044E000C7010E94562C209761F00E944C2C812F0E
:1044F0000E9496200E944C2C8D2D0E949620219780
:10450000F2CFC701DF91CF911F910F91FF90EF90F4
:10451000DF900C94622CDF91CF911F910F91FF904F
:10452000EF90DF900895DF92EF92FF920F931F9329
:10453000CF93DF937C01E901D02EFC01808591852A
:104540006817790784F582859385481759075CF5C4
:104550009A012C0F3D1F821793071CF4EC01C41B1A
:10456000D50B0FEF040F0C0F262FC7010E94C82098
:10457000C7010E94562C209761F00E944C2C812F7D
:104580000E9496200E944C2C8D2D0E9496202197EF
:10459000F2CFC701DF91CF911F910F91FF90EF9064
:1045A000DF900C94622CDF91CF911F910F91FF90BF
:1045B000EF90DF900895FF920F931F93CF93DF93B7
:1045C000EC0177FD2AC088859985681779072CF555
:1045D00057FD23C08A859B8548175907F4F4F32EAD
:1045E000122F01E0040F21E0260FCE010E94C82007
:1045F000CE010E94562C0E944C2C8F2D0E9496209A
:104600000E944C2C812F0E949620CE01DF91CF91E9
:104610001F910F91FF900C94622CDF91CF911F910D
:104620000F91FF9008951F920F920FB60F921124D1
:104630002F933F934F935F936F937F938F939F93AA
:10464000AF93BF93EF93FF938091B900887F80363B
:1046500009F49CC068F5883209F45BC090F480319D
:1046600009F454C038F4882309F4F2C0883009F4FE
:104670004DC0F2C0883109F44CC0803209F45DC0ED
:10468000EBC0803409F468C048F4803309F455C0A5
:10469000883309F0E1C080938B02D4C0803509F4DF
:1046A0004FC0883509F45DC0883409F0D5C0D2C048
:1046B000883909F4C3C0A8F4883709F467C038F40E
:1046C000883609F463C0803709F460C0C5C08838F3
:1046D00009F4B4C0803909F45FC0803809F0BCC067
:1046E0005BC0803B09F484C038F4803A09F466C0AA
:1046F000883A09F47DC0B0C0803C09F4A3C0883C6E
:1047000009F4A0C0883B09F486C0A6C08091680265
:1047100010C090918A0280918902981770F5E091FB
:104720008A0281E08E0F80938A02F0E0E759FD4F04
:1047300080818093BB0085EC82C080938B028AC00D
:10474000E0918A0281E08E0F80938A028091BB0003
:10475000F0E0E759FD4F808390918A0280918902B1
:104760006AC0E0918A0281E08E0F80938A02809174
:10477000BB00F0E0E759FD4F808380918C028111EE
:1047800069C081E08093670284EA5DC083E0809322
:104790008D0210926602CFCF80916602803208F0BF
:1047A0004DC0E091660281E08E0F80936602809199
:1047B000BB00F0E0EA5BFD4F8083BDCF85EC8093CA
:1047C000BC0010928D0280916602803230F4E0913C
:1047D0006602F0E0EA5BFD4F10826091660270E0D5
:1047E00086E492E0E0E0F0E009951092660234C0C1
:1047F00084E080938D021092450210924402E0E022
:10480000F0E0099580914402811105C081E0809318
:10481000440210922402E091450281E08E0F8093C1
:104820004502F0E0EC5DFD4F80818093BB009091EC
:10483000450280914402981708F47DCF85E8809363
:10484000BC000AC085EC8093BC0010928D0204C0AD
:1048500010928B020E94D31EFF91EF91BF91AF91F6
:104860009F918F917F916F915F914F913F912F9188
:104870000F900FBE0F901F9018958091B4048A304E
:1048800018F480E30E945E246091B40470E080E03C
:1048900090E04AE00E9463248AE30E945E248091B3
:1048A000B3048A3018F480E30E945E246091B3045C
:1048B00070E080E090E04AE00C946324682F84E587
:1048C00094E00C94901F8F929F92AF92BF920F939F
:1048D0001F93CF93DF93CDB7DEB7A1970FB6F894B0
:1048E000DEBF0FBECDBF19A2423008F44AE08E01F0
:1048F0000F5D1F4F842E912CA12CB12CA50194018A
:104900000E94343AE62FB901CA0101501109EA3078
:1049100014F4E05D01C0E95CD801EC93232B242B57
:10492000252B61F7B80184E594E00E94A42FA1969D
:104930000FB6F894DEBF0FBECDBFDF91CF911F91B0
:104940000F91BF90AF909F908F900895BC0184E528
:1049500094E00C94A42FBF92CF92DF92EF92FF923B
:104960000F931F93CF93DF93EC01798768878CE0D7
:1049700090E09B878A87EA81FB81808D918D892BCE
:1049800029F086859785069797878687118E108EE2
:1049900081E0848BB12C8D81B81608F078C04C81F1
:1049A0008A819B810E851F85AC89BD892C853D85BB
:1049B00068897989CB2CD12CEA85FB85ED90FC9018
:1049C000600F711FB41219C06C9DA0016D9D500D38
:1049D0007C9D500D11244E0F5F1F68857985DC0189
:1049E000ED91FC9100A0F1A1E02D0995EC89FD89E4
:1049F00080819181EE89FF8918C06C9DA0016D9D19
:104A0000500D7C9D500D11244E0F5F1F68857985D8
:104A1000DC01ED91FC9106A0F7A1E02D0995EE894E
:104A2000FF8980819181EC89FD8920813181EA8132
:104A3000FB81318B208B938B828B2E853F858889E0
:104A40009989820F931F8C9DA0018D9D500D9C9D77
:104A5000500D11242A853B852E5F3F4F240F351FB3
:104A60008A819B81488559854E5F5F4FFC01558740
:104A7000448737872687CC0CDD1CEA89FB89EC0D3F
:104A8000FD1D659174910E94802FB39484CFDF91B6
:104A9000CF911F910F91FF90EF90DF90CF90BF903B
:104AA0000895CF92DF92EF92FF92CF93DF936C0144
:104AB000990FEE08FF08F7FE17C08DE20E945E24F2
:104AC000EC0166277727CB016C197D098E099F09B8
:104AD0004AE00E9463248C0F9D1FDF91CF91FF90CD
:104AE000EF90DF90CF9008954AE0C701B601DF91C3
:104AF000CF91FF90EF90DF90CF900C9463242F9292
:104B00003F924F925F926F927F928F929F92AF925D
:104B1000BF92CF92DF92EF92FF920F931F93CF93AA
:104B2000DF93CDB7DEB729970FB6F894DEBF0FBE7F
:104B3000CDBF7B014C835D832E833F83FB01F491CA
:104B4000F887FB01319624912A8317FF04C0102FA8
:104B50001195D12C02C0D02E10E00A8101592FEFFF
:104B6000280F3885230F40E7682F84E594E00E94E2
:104B7000C820F70132968491898384E594E00E94ED
:104B8000562CE8858E2F0E2E000C990BFA816F2E75
:104B90000F2E000C7708EF02900111243B832A832B
:104BA00019861886312C412C212C012F110F110B45
:104BB0004C018D189108D7FC93946C0131E0C31A15
:104BC000D1088A819B81E885F9858E179F0709F4B2
:104BD00051C0F9818F2F90E020E830E0032C02C013
:104BE000359527950A94E2F782239323A22CB12CC2
:104BF000892B69F0A016B10654F0A814B9043CF44E
:104C0000842D90E055245394861597050CF0512C73
:104C10000E944C2C511002C08F8101C08D810E94D6
:104C200096200E944C2C511002C08E8101C08C81B4
:104C30000E949620288539852F5F3F4F3987288726
:104C400036E0331510F033940DC0E885F98583E024
:104C5000F695E7958A95E1F73296EE0DFF1D849162
:104C60008983312CAC14BD0414F42394AACF43944B
:104C7000212CA7CF84E594E029960FB6F894DEBFE7
:104C80000FBECDBFDF91CF911F910F91FF90EF909D
:104C9000DF90CF90BF90AF909F908F907F906F905C
:104CA0005F904F903F902F900C94622C4F925F92A8
:104CB0006F927F928F929F92AF92BF92CF92DF922C
:104CC000EF92FF920F931F93CF93DF936A01D22F3E
:104CD000732E602E512EFA0114913196C4910FEF6C
:104CE000060F0C0F2FEF280F210F462F682F84E59A
:104CF00094E00E94C820F6013296449084E594E046
:104D00000E94562C1C027001112400E010E0C0E04B
:104D100090E8A92EB12CE016F10681F1842C912C9B
:104D2000C5010C2E02C0959587950A94E2F788225A
:104D300099220E944C2C8114910411F4852D01C0FC
:104D4000872D0E9496200E944C2C892811F4862DD4
:104D500001C08D2F0E9496200F5F1F4FC73010F4A7
:104D6000CF5FD9CFF80183E0F695E7958A95E1F713
:104D70003296EC0DFD1D4490C0E0CDCF84E594E06B
:104D8000DF91CF911F910F91FF90EF90DF90CF9027
:104D9000BF90AF909F908F907F906F905F904F905B
:104DA0000C94622CEF92FF920F931F93CF93DF939B
:104DB000EC01688B88E0898B8A819B81EC89FD8975
:104DC000E080F1800B8910E02A8930E070E0DC019E
:104DD000ED91FC9106A0F7A1E02D48E050E0099587
:104DE000CE01DF91CF911F910F91FF90EF900C9426
:104DF000482990E0FC01EE57F04E2491FC01E25965
:104E0000F04E8491882399F090E0880F991FFC015F
:104E1000EC59F04EA591B491FC01E65AF04E859103
:104E200094918FB7F894EC91E22BEC938FBF089597
:104E3000CF93DF93EC0185E00E94F926209711F4CF
:104E400060E004C0CF3FD10531F461E085E0DF913F
:104E5000CF910C94252BEBE4FFE1E491E330F9F0E2
:104E600048F4E130B9F0E230A1F584B5806284BD48
:104E7000C8BD34C0E730E9F0E83019F1E43049F555
:104E800080918000806280938000D0938B00C093DB
:104E90008A0024C084B5806884BDC7BD1FC08091CE
:104EA0008000806880938000D0938900C093880040
:104EB00015C08091B00080688093B000C093B300AB
:104EC0000DC08091B00080628093B000C093B400A8
:104ED00005C0C038D1050CF0B8CFB2CFDF91CF916B
:104EE0000895282F3091B102313208F04AC08091E4
:104EF0008D028111FCCF9091B00242E040938D026F
:104F000020938C022FEF20938B0210928A02309311
:104F10008902E0E9F2E0A9E6B2E020E0321721F0F0
:104F200041914D932F5FFACF109268022091680251
:104F3000990F922B9093680290916702913061F4DF
:104F400010926702909168029093BB009091BC0010
:104F500093FDF8CF95EC01C095EE9093BC00909135
:104F60008D029230E1F390918B029F3F79F0809116
:104F70008B02803241F080918B02803331F084E0EB
:104F800005C081E003C082E001C083E010928F027F
:104F90001092B10210928E020895FC01538D448D3F
:104FA000252F30E0842F90E0821B930B541710F0D4
:104FB000CF96089501970895FC01918D828D9817E1
:104FC00061F0828DDF01A80FB11D5D968C91928DED
:104FD0009F5F9F73928F90E008958FEF9FEF0895EA
:104FE000FC01918D828D981731F0828DE80FF11DB3
:104FF000858D90E008958FEF9FEF0895FC01918DCE
:10500000228D892F90E0805C9F4F821B91098F73C6
:105010009927089582EB92E00E94FE2721E0892BD8
:1050200009F420E0822F0895FC01848DDF01A80F90
:10503000B11DA35ABF4F2C91848D90E001968F73C0
:105040009927848FA689B7892C93A089B1898C91DF
:1050500080648C93938D848D981306C00288F389A5
:10506000E02D80818F7D80830895EF92FF920F93D2
:105070001F93CF93DF93EC0181E0888F9B8D8C8D04
:10508000981305C0E889F989808185FD24C0F62E32
:105090000B8D10E00F5F1F4F0F731127E02E8C8DCB
:1050A000E8120CC00FB607FCFACFE889F9898081B5
:1050B00085FFF5CFCE010E941428F1CF8B8DFE0124
:1050C000E80FF11DE35AFF4FF0820B8FEA89FB894D
:1050D0008081806207C0EE89FF896083E889F98951
:1050E00080818064808381E090E0DF91CF911F9187
:1050F0000F91FF90EF900895CF93DF93EC01888D8F
:105100008823C9F0EA89FB89808185FD05C0A889CB
:10511000B9898C9186FD0FC00FB607FCF5CF808151
:1051200085FFF2CFA889B9898C9185FFEDCFCE019B
:105130000E941428E7CFDF91CF91089580E090E09E
:10514000892B29F00E940A2881110C9400000895EF
:105150009FB7F89440918C0450918D0460918E0417
:1051600070918F0486B5A89B06C08F3F21F04F5FDA
:105170005F4F6F4F7F4F9FBF762F652F542F442770
:105180009A01AB01280F311D411D511DA3E0B0E074
:105190000E94293A089508950F931F93CF93DF93A8
:1051A000FC01DA012D913C9182859385821793074A
:1051B00058F5613061F0633039F52085318586819D
:1051C00097812817390764F4C901019609C0208521
:1051D0003185848195818217930714F4C901019761
:1051E000918780878A01EF010190F081E02D048092
:1051F000F581E02DCE010995EE85FF85888599859D
:105200000995F80111821082DF91CF911F910F91C2
:105210000895623051F4DC011C96ED91FC911D97CC
:1052200018968D919C91199709940895DC0162302C
:1052300029F0633051F0613029F50EC01696ED91DA
:10524000FC91179714968C91099414966C9114976D
:105250006623C1F061500EC014966C911497262FEE
:1052600030E015968C91159790E001972817390733
:105270004CF46F5FED91FC9111970480F581E02D66
:10528000CD0109940895FC01648308950E94793C3E
:105290004F925F926F927F928F929F92AF92BF9246
:1052A000CF92DF92EF92FF920F931F93CF93DF93F2
:1052B000EC010B8910E0025011094801012E000C8D
:1052C000AA08BB08CC80DD800D2C000CEE08FF087E
:1052D00088859985092E000CAA0BBB0BA7019601A6
:1052E000281B390B4A0B5B0BC501B4010E942F3CF4
:1052F0002E813F812901330F66087708A3019201AF
:105300002C193D094E095F090E940A3A820E931E2C
:10531000A41EB51E912C919481949108EE89FF8969
:10532000C080D180EC89FD89E080F1802A8930E05D
:1053300022503109498950E04F5F5F4F688970E022
:105340006F5F7F4FA12CB12C8A819B810E94072126
:10535000DF91CF911F910F91FF90EF90DF90CF9051
:10536000BF90AF909F908F907F906F905F904F9085
:105370000895DF92EF92FF920F931F93CF93DF93E5
:10538000EC01D62E8A819B816E857F85EE89FF890F
:10539000E080F1808B01025011092C853D8522505F
:1053A000310948895989640F751F4C81469FF00166
:1053B000479FF00D11244A855B854F5F5F4F4E0F6D
:1053C0005F1F688579856F5F7F4FDC01ED91FC91F0
:1053D00000A0F1A1E02D0995EE89FF8980819181DE
:1053E000EC89FD8920813181AA81BB8151963C9352
:1053F0002E93509753969C938E9352972E853F856C
:1054000088899989280F391F8C81829FA001839FE9
:10541000500D11248A859B850296840F951F28853F
:1054200039852E5F3F4F1D963C932E931C971F96F8
:105430009C938E931E978C812A899B89E22FF92F4A
:10544000E80FF11DE80FF11D65917491CD010E94E7
:10545000802FDC828A819B810E851F85EC89FD89E6
:10546000E080F1802C853D8568897989600F711F06
:10547000D69EF001D79EF00D11244A855B854E0F14
:105480005F1F68857985DC01ED91FC9100A0F1A199
:10549000E02D0995EC89FD8980819181EE89FF8954
:1054A00020813181AA81BB8151963C932E935097E4
:1054B00053969C938E9352972E853F858889998920
:1054C000280F391F8C81829FA001839F500D1124CA
:1054D0008A859B850296840F951F288539852E5FC6
:1054E0003F4F1D963C932E931C971F969C938E9333
:1054F0001E978C812A899B89E22FF92FE80FF11DD5
:10550000E80FF11D65917491CD01DF91CF911F914D
:105510000F91FF90EF90DF900C94802F611102C0EB
:1055200060E201C061E20C94AF201F93CF93DF9340
:10553000EC01162F66E30E94AF201D8B1130B1F0F5
:1055400068F01230D9F0133021F568E6CE010E94E0
:105550009D208BA18EA38CA182501AC068ECCE0135
:105560000E949D208BA18DA38CA110C068EACE0162
:105570000E949D208BA18EA38CA10AC06CE0CE015D
:105580000E949D208BA18DA38CA182508EA301C06F
:105590008DA3DF91CF911F9108951F920F920FB6A7
:1055A0000F9211242F933F934F935F936F937F93A9
:1055B0008F939F93AF93BF93EF93FF9382EB92E010
:1055C0000E941428FF91EF91BF91AF919F918F910D
:1055D0007F916F915F914F913F912F910F900FBEEF
:1055E0000F901F9018951F920F920FB60F921124D3
:1055F0002F938F939F93EF93FF93E091C202F091CB
:10560000C3028081E091C802F091C90282FD12C0FC
:1056100090818091CB028F5F8F732091CC02821793
:1056200051F0E091CB02F0E0EE54FD4F958F809366
:10563000CB0201C08081FF91EF919F918F912F91BB
:105640000F900FBE0F901F90189590E0FC01EA5B41
:10565000F04E2491FC01EE57F04E3491FC01E259DA
:10566000F04EE491EE2309F43CC0222339F12330BB
:1056700091F038F42130A9F0223001F584B58F7D06
:1056800012C0273091F02830A1F02430B9F4809175
:1056900080008F7D03C0809180008F778093800091
:1056A0000DC084B58F7784BD09C08091B0008F771D
:1056B00003C08091B0008F7D8093B000F0E0EE0FCA
:1056C000FF1FE65AF04EA591B4919FB7F89461116F
:1056D00004C08C913095382302C0EC913E2B3C9352
:1056E0009FBF08958F929F92AF92BF92CF92DF9209
:1056F000EF92FF926B017C010E94A8284B015C0194
:10570000C114D104E104F104F1F00E94A828DC01E5
:10571000CB0188199909AA09BB09883E9340A105C4
:10572000B10570F321E0C21AD108E108F10888EE52
:10573000880E83E0981EA11CB11CC114D104E104A1
:10574000F10419F7DDCFFF90EF90DF90CF90BF907D
:10575000AF909F908F9008952FB7F8946091880430
:105760007091890480918A0490918B042FBF0895D1
:105770001F920F920FB60F9211242F933F938F9386
:105780009F93AF93BF938091880490918904A091D7
:105790008A04B0918B043091870426E6230F2D37BD
:1057A00028F029EE230F0196A11DB11D2093870437
:1057B0008093880490938904A0938A04B0938B0407
:1057C00080918C0490918D04A0918E04B0918F04EF
:1057D0000196A11DB11D80938C0490938D04A0931C
:1057E0008E04B0938F04BF91AF919F918F913F91A1
:1057F0002F910F900FBE0F901F9018951F920F9230
:105800000FB60F9211242F933F934F935F936F9393
:105810007F938F939F93AF93BF93EF93FF93E09109
:105820000201F09103010995FF91EF91BF91AF91B2
:105830009F918F917F916F915F914F913F912F91A8
:105840000F900FBE0F901F9018951F920F920FB6DA
:105850000F9211242F933F934F935F936F937F93F6
:105860008F939F93AF93BF93EF93FF93E0910001CA
:10587000F09101010995FF91EF91BF91AF919F9137
:105880008F917F916F915F914F913F912F910F90E9
:105890000FBE0F901F9018958CB58F7B8CBD2B9AE7
:1058A0002D9A2D988CB580648CBD0895DC019B9653
:1058B000ED91FC919C979081D1968C918095892354
:1058C00080830895DC019B96ED91FC919C979081DB
:1058D000D1968C91892B80830895CF92DF92EF929D
:1058E000FF920F931F93CF93DF936C017A018B018B
:1058F000C0E0D0E0CE15DF0581F0D8016D918D01BB
:10590000D601ED91FC910190F081E02DC601099541
:10591000892B11F02196EECF7E01C701DF91CF9147
:105920001F910F91FF90EF90DF90CF900895CF934C
:10593000C62F91E090938E029FE69093B002109252
:105940008F021092B102682F8FE493E00E945D1FD6
:105950006C2F8FE493E00E945D1F81E0CF910C9447
:10596000712790918D029111FCCF982F813208F010
:1059700090E281E080938D0280938C022FEF209340
:105980008B0210928A02290F209389028093680269
:10599000809168028E6D80936802809167028130E9
:1059A00061F410926702809168028093BB0080913D
:1059B000BC0083FDF8CF85EC01C085EE8093BC0070
:1059C00080918D028130E1F380918A02891710F471
:1059D00090918A02E9E6F2E0A2E9B4E080E089175A
:1059E00021F021912D938F5FFACF10929104809333
:1059F0009004089591E090938E029FE69093B002F8
:105A000010928F021092B102682F8FE493E00E94EF
:105A10005D1F81E00E9471278093B50481E090E0D2
:105A20000E94B12C8FE493E00E94141F0895CF923E
:105A3000DF92EF92FF920F931F93CF93DF93EC01CE
:105A40002196FC01F490FF2009F437C0FE01649117
:105A500084E594E00E94AF206E01F2E0CF0ED11CED
:105A6000FE013196C4918C2F8078E82ECF77860185
:105A7000DC2FD15048F0F801649184E594E00E9455
:105A80009D200F5F1F4FF5CFC6018C0F911DEC01BC
:105A9000E11002C0FA94D7CF8C010F5F1F4FFC01B9
:105AA000649170E06F3F710511F464EF71E080E084
:105AB00090E00E94722BE801EDCFDF91CF911F9112
:105AC0000F91FF90EF90DF90CF9008952F923F922B
:105AD0004F925F926F927F928F929F92AF92BF92FE
