:100000000C9471100C94F02A0C94C92A0C94991039
:100010000C94101A0C94061A0C9499100C949910C4
:100020000C9499100C9499100C9499100C949910AC
:100030000C9499100C9499100C9499100C9499109C
:100040000C94832A0C9499100C94BE290C94982932
:100050000C9499100C9499100C9499100C9499107C
:100060000C940E220C9499100A151C150C150F15E2
:1000700012151515181517182F18AD18ED181B198E
:100080008B19CE1907634236B79BD8A71A39685621
:1000900018AEBAAB558C1D3CB7CC5763BD6DEDFDAA
:1000A000753EF6177231BF000000803F0800000067
:1000B000BE922449123EABAAAA2ABECDCCCC4C3E5D
:1000C00000000080BEABAAAAAA3E00000000BF004C
:1000D0000000803F0000000000084178D3BB438748
:1000E000D1133D190E3CC3BD4282AD2B3E68EC825C
:1000F00076BED98FE1A93E4C80EFFFBE01C4FF7FE1
:100100003F00000000000C07FFE803AA9AA9AA9884
:1001100003FFE0446576656C6F706564206279204A
:100120004D617274696E0A487265686F7220286347
:100130002920323031380A0A5072657373204345E2
:100140004E54455220746F20636C6F736500783095
:100150002E310A0004E010021C07123732292D2923
:10016000252B3900010310E110031D07062E2C2951
:100170002D2E2E373F0000021013800A29806402C2
:100180002A040000007F2B040000007F0F018096EE
:100190001180FFB103012C2DB203012C2DB30601F8
:1001A0002C2D012C2DB40107C003A20284C101C56E
:1001B000C2020A00C3028A2AC4028AEEC5010E20C6
:1001C000003601C83A01054E011301E51A0B0B0474
:1001D000088882070191BAC7C07020888810004043
:1001E000100000000000FFDFFF000000FFDFFFDF66
:1001F000FF00FFBFFFBFFFBFFF3FFFBFFFBFFFBF4E
:10020000FFFFFFBFFFBFFFBFFFFFFFBFFFBFFFBF7E
:10021000FFFFFF7FFF7FFF7FFFFFFF7FFF7FFF7FEE
:10022000FFFFFF7FFF7FFF7FFFFFFEFFFEFFFEFF61
:10023000FFFFFEFFFEFFFEFFFFFFFEFFFEFFFEFFD4
:10024000FFFFFEFFFEFFFEFFFFFFFDFFFDFFFDFFC7
:10025000FFFFFDFFFDFFFDFFFFFFFDFFFDFFFDFFBA
:10026000FF4010FFFBFF0000000000FFFBFFFBFF53
:10027000000000FFFDFFFDFFFDFF00FFFDFFFDFF94
:10028000FDFFFCFFFDFFFDFFFDFFFFFFFDFFFDFF8D
:10029000FDFFFFFFFEFFFEFFFEFFFFFFFEFFFEFF75
:1002A000FEFFFFFFFEFFFEFFFEFFFFFFFF7FFF7F62
:1002B000FF7FFFFFFF7FFF7FFF7FFFFFFF7FFF7F4E
:1002C000FF7FFFFFFF7FFF7FFF7FFFFFFFBFFFBFBE
:1002D000FFBFFFFFFFBFFFBFFFBFFFFFFFBFFFBFAE
:1002E000FFBFFF262600000000FC00000007F00012
:1002F00000003FC0000001FF0000000FFC000000F4
:100300007FF0000003FFC000001FFF000000FEFCA4
:10031000000007F3F000003F8FC00001FC3F000029
:100320000FE0FC00000003F00000000FC000000020
:100330003F00000000FC00000003F00000000FC0C0
:100340000000003F00000000FC00000003F000007F
:10035000000FC00000003F00000000FC0000000390
:10036000F00000000FC00000003F00000000FC0093
:10037000000003F00000000FC00000003F0000007C
:1003800000FC00000003F00000000FC00000003F70
:1003900000000000FC00000003F026260FFFFFFF16
:1003A000C07FFFFFFF83FFFFFFFF1FFFFFFFFEFF79
:1003B000FFFFFFFFFFFFFFFFFFC000003FFF000048
:1003C00001FFFC00000FFFF000007FFFC00007FFEF
:1003D000FF00003FFFFC0001FEFFF0000FF3FFC035
:1003E00000FF8FFF0007F83FFC003FC0FFF001FE59
:1003F00003FFC00FF00FFF00FF803FFC07F800FF76
:10040000F03FC003FFC1FE000FFF0FF0003FFCFFF5
:100410008000FFF7F80003FFFFC0000FFFFE0000A1
:100420003FFFF00000FFFF800003FFF800000FFF18
:10043000C000003FFFFFFFFFFFFFFFFFFFF7FFFFD1
:10044000FFFF8FFFFFFFFC1FFFFFFFE03FFFFFFFEE
:10045000002626000000000000000FC00000007F02
:1004600000000003FC0000001FF0000000FFC000BF
:100470000007FF0000003FFC000001FFF000000F3C
:10048000EFC000007F3F000003F8FC00001FC3F036
:100490000000FE0FC00000003F00000000FC000054
:1004A0000003F00000000FC00000003F000000004B
:1004B000FC00000003F00000000FC00000003F003F
:1004C000000000FC00000003F00000000FC000006E
:1004D000003F00000000FC00000003F00000000FDF
:1004E000C00000003F00000000FC00000003F0001E
:1004F00000000FC00000003F00000000FC000000F2
:1005000003F00000000FC00026260FFFFFFFC07F92
:10051000FFFFFF83FFFFFFFF1FFFFFFFFEFFFFFF48
:10052000FFFFFFFFFFFFFFC000000FFF0000003FC5
:10053000FC000000FC00000003F00000000FC00001
:1005400000003F00000000FC00000003F00000007D
:100550000FC00000003F0FFFFFFFFC7FFFFFFFF316
:10056000FFFFFFFF9FFFFFFFFEFFFFFFFFF3FFFF08
:10057000FFFF0FC00000003F00000000FC00000073
:1005800003F00000000FC00000003F00000000FC6E
:1005900000000003F00000000FC00000003F00005A
:1005A0000000FFFFFFFFFFFFFFFFFFFFFFFFFFFF59
:1005B000FFFFFFFFFFFFFFFFFFFFFFFFFFFFF02633
:1005C000260FFFFFFF807FFFFFFF03FFFFFFFE1FE0
:1005D000FFFFFFFCFFFFFFFFFBFFFFFFFFEFC00080
:1005E000001FBF0000007EFC000001F800000007B3
:1005F000E00000001F800000007E00000001F80005
:10060000000007E00000001F800000007E01FFFFE7
:10061000FFF807FFFFFFC01FFFFFFF807FFFFFFF07
:1006200001FFFFFFFC07FFFFFFF000000007C00015
:1006300000001F000000007C00000001F00000002E
:1006400007C00000001F000000007C00000001FF48
:10065000C0000007FF0000001FFFFFFFFFFFFFFFBC
:10066000FFFFF7FFFFFFFFDFFFFFFFFE3FFFFFFF83
:10067000F03FFFFFFF8026260000007F0000000300
:10068000FC0000001FF0000000FFC0000007FF009A
:1006900000003FFC000001FFF000000FFFC0000061
:1006A000FFFF000007FEFC00003FF3F00001FF8F9A
:1006B000C0000FF83F00007FC0FC0003FE03F00005
:1006C0001FF00FC001FF003F000FF800FC007FC0CB
:1006D00003F003FC000FC01FE0003F00FF0000FC20
:1006E00007FFFFFFFFDFFFFFFFFF7FFFFFFFFDFFB4
:1006F000FFFFFFF7FFFFFFFFDFFFFFFFFF0000002F
:100700003F00000000FC00000003F00000000FC0EC
:100710000000003F00000000FC00000003F00000AB
:10072000000FC00000003F00000000FC002626FF74
:10073000FFFFFFFFFFFFFFFFFFFFFFFFFFFFFFFFC9
:10074000FFFFFFFFFFFFFFFFFFFFFFFFC0000000F5
:100750003F00000000FC00000003F00000000FC09C
:100760000000003F00000000FC00000003F000005B
:10077000000FC00000003FFFFFFFF0FFFFFFFFE39F
:10078000FFFFFFFFCFFFFFFFFFBFFFFFFFFFFFFFE9
:10079000FFFFFC00000003F00000000FC00000009D
:1007A0003F00000000FC00000003F00000000FC04C
:1007B0000000003F00000000FFF0000003FFC00049
:1007C000000FFF0000003FFFFFFFFFFFFFFFFFFFE5
:1007D000F7FFFFFFFF8FFFFFFFFC1FFFFFFFE03F63
:1007E000FFFFFF0026260FFFFFFF007FFFFFFC0338
:1007F000FFFFFFF01FFFFFFFC0FFFFFFFF03FFFF33
:10080000FFFC0FC00000003F00000000FC000000E3
:1008100003F00000000FC00000003F00000000FCDB
:1008200000000003F00000000FC00000003FFFFFC9
:10083000FFF0FFFFFFFFE3FFFFFFFFCFFFFFFFFF23
:10084000BFFFFFFFFFFFFFFFFFFFF0000003FFC040
:1008500000000FFF0000003FFC000000FFF0000060
:1008600003FFC000000FFF0000003FFC000000FF7E
:10087000F0000003FFC000000FFF0000003FFFFF7B
:10088000FFFFFFFFFFFFFFF7FFFFFFFF8FFFFFFFF0
:10089000FC1FFFFFFFE03FFFFFFF00262603FFFFD7
:1008A000FF800FFFFFFF803FFFFFFF00FFFFFFFE06
:1008B00003FFFFFFFC0FFFFFFFF00000000FC00071
:1008C00000003F00000000FC00000003F0000000FA
:1008D0000FC00000003F00000000FC00000003F01B
:1008E0000000000FC00000003F00000000FC0000FE
:1008F0000003F00000000FC00000003F00000000F7
:10090000FC00000003F00000000FC00000003F00EA
:10091000000000FC00000003F00000000FC0000019
:10092000003F00000000FC00000003F00000000F8A
:10093000C00000003F00000000FC00000003F000C9
:1009400000000FC00000003F00000000FC0000009D
:1009500003F026260FFFFFFFC07FFFFFFF83FFFF8F
:10096000FFFF1FFFFFFFFEFFFFFFFFFFFFFFFFFF78
:10097000FFC000000FFF0000003FFC000000FFF080
:10098000000003FFC000000FFF0000003FFC00005C
:1009900000FFF0000003FFC000000FFF0000003F59
:1009A000FFFFFFFFFDFFFFFFFFE7FFFFFFFF9FFFD1
:1009B000FFFFFEFFFFFFFFFFF0000003FFC000008E
:1009C0000FFF0000003FFC000000FFF0000003FFED
:1009D000C000000FFF0000003FFC000000FFF0001F
:1009E0000003FFC000000FFF0000003FFFFFFFFFFC
:1009F000FFFFFFFFFFF7FFFFFFFF8FFFFFFFFC1F62
:100A0000FFFFFFE03FFFFFFF0026260FFFFFFFC0B5
:100A10007FFFFFFF83FFFFFFFF1FFFFFFFFEFFFFC3
:100A2000FFFFFFFFFFFFFFFFC000000FFF00000000
:100A30003FFC000000FFF0000003FFC000000FFFBC
:100A40000000003FFC000000FFF0000003FFC000BA
:100A5000000FFF0000003FFFFFFFFFFFFFFFFFFF52
:100A6000F7FFFFFFFFDFFFFFFFFF3FFFFFFFFC3F41
:100A7000FFFFFFF00000000FC00000003F0000007B
:100A800000FC00000003F00000000FC00000003F69
:100A900000000000FC00000003F00000000FC00098
:100AA00000003FFFFFFFFFFFFFFFFFFFF7FFFFFF1C
:100AB000FF8FFFFFFFFC1FFFFFFFE03FFFFFFF0077
:100AC00026260000000000000000000000000000DA
:100AD0000000000000000000000000000000000016
:100AE0000000000000000000000000000000000006
:100AF00000000000000000000000000000000000F6
:100B0000000000000000000000000000000000FFE6
:100B1000FFFC0003FFFFF0000FFFFFC0003FFFFFDF
:100B20000000FFFFFC0003FFFFF0000000000000DA
:100B300000000000000000000000000000000000B5
:100B400000000000000000000000000000000000A5
:100B50000000000000000000000000000000000095
:100B60000000000000000000000000000000000085
:100B7000000000000000002626000FC00000007FDB
:100B800000000003FC0000001FF0000000FFC00098
:100B90000007FF0000003FFC000001FFF000000F15
:100BA000EFC000007F3F000003F8FC00001FC3F00F
:100BB0000000FE0FC00000003F00000000FC00002D
:100BC0000003F00000000FC00000003F0000000024
:100BD000FC00000003F00000000FC00000003F0018
:100BE000000000FC00000003F00000000FC0000047
:100BF000003F00000000FC00000003F00000000FB8
:100C0000C00000003F00000000FC00000003F000F6
:100C100000000FC00000003F00000000FC000000CA
:100C200003F00000000FC00000003F000000303063
:100C300007FFFFFFFFF00FFFFFFFFFF81FFFFFFFA2
:100C4000FFFC3FFFFFFFFFFE3FFFFFFFFFFE7FFFB9
:100C5000FFFFFFFF7F00000003FF7F00000007FF92
:100C60007F0000000FFF7F0000001FFF7F000000DB
:100C70003FFF7F000000FFFF7F000001FFFF7F00BC
:100C80000003FFFF7F000007FF7F7F00000FFE7F54
:100C90007F00001FFC7F7F00007FF07F7F0000FF50
:100CA000E07F7F0001FFC07F7F0003FF807F7F0028
:100CB00007FF007F7F000FFE007F7F003FFC007F6B
:100CC0007F007FF0007F7F00FFE0007F7F01FFC09B
:100CD000007F7F03FF80007F7F07FF00007F7F1F73
:100CE000FE00007F7F3FF800007F7F7FF000007FE5
:100CF0007FFFE000007F7FFFC000007F7FFF80005C
:100D0000007F7FFF0000007F7FFC0000007F7FF8F6
:100D10000000007F7FF00000007F7FE00000007F88
:100D20007FFFFFFFFFFF3FFFFFFFFFFE3FFFFFFFD4
:100D3000FFFE1FFFFFFFFFFC0FFFFFFFFFF807FF96
:100D4000FFFFFFF001FFFFFFFFC0000000000000F9
:100D500030300000000001FF0000000003FF000031
:100D6000000003FF0000000007FF000000000FFF6D
:100D7000000000001FFF000000003FFF0000000017
:100D80007FFF000000007FFF00000000FFFF000069
:100D90000001FF7F00000003FE7F00000007FE7FD0
:100DA0000000000FFC7F0000000FF87F0000001F14
:100DB000F07F00000000007F00000000007F0000C6
:100DC0000000007F00000000007F00000000007FA6
:100DD00000000000007F00000000007F0000000015
:100DE000007F00000000007F00000000007F000086
:100DF0000000007F00000000007F00000000007F76
:100E000000000000007F00000000007F00000000E4
:100E1000007F00000000007F00000000007F000055
:100E20000000007F00000000007F00000000007F45
:100E300000000000007F00000000007F00000000B4
:100E4000007F00000000007F00000000007F000025
:100E50000000007F00000000007F00000000007F15
:100E600000000000007F00000000007F0000000084
:100E7000007F303001FFFFFFFFC007FFFFFFFFF0E3
:100E80001FFFFFFFFFF81FFFFFFFFFFC3FFFFFFFFC
:100E9000FFFE3FFFFFFFFFFE7FFFFFFFFFFF7F0023
:100EA0000000007F7F000000007F7F000000007FC7
:100EB0007F000000007F00000000007F00000000B5
:100EC000007F00000000007F00000000007F0000A5
:100ED0000000007F00000000007F00000000007F95
:100EE00000000000007F00000000007F0000000004
:100EF000007F01FFFFFFFFFF07FFFFFFFFFE0FFF68
:100F0000FFFFFFFE1FFFFFFFFFFC3FFFFFFFFFF89C
:100F10003FFFFFFFFFF07FFFFFFFFFC07F000000EC
:100F200000007F00000000007F00000000007F0044
:100F3000000000007F00000000007F0000000000B3
:100F40007F00000000007F00000000007F00000024
:100F500000007F00000000007F00000000007F0014
:100F6000000000007F00000000007FFFFFFFFFFF88
:100F70007FFFFFFFFFFF7FFFFFFFFFFF7FFFFFFF01
:100F8000FFFF7FFFFFFFFFFF7FFFFFFFFFFF7FFFF1
:100F9000FFFFFFFF303001FFFFFFFF0007FFFFFFF4
:100FA000FFC01FFFFFFFFFE01FFFFFFFFFF03FFF3E
:100FB000FFFFFFF83FFFFFFFFFF87FFFFFFFFFFC92
:100FC0007F00000001FC7F00000001FC7F000000AA
:100FD00001FC7F00000001FC0000000001FC00009B
:100FE000000001FC0000000001FC0000000001FC0A
:100FF0000000000001FC0000000001FC00000000F7
:1010000001FC0000000001FC0000000001FC007F6A
:10101000FFFFFFFC007FFFFFFFF8007FFFFFFFF8EF
:10102000007FFFFFFFFC007FFFFFFFFE007FFFFF51
:10103000FFFE007FFFFFFFFF00000000007F0000B9
:101040000000007F00000000007F00000000007F23
:1010500000000000007F00000000007F0000000092
:10106000007F00000000007F00000000007F000003
:101070000000007F7F000000007F7F000000007FF5
:101080007F000000007F7F800000007F7FFFFFFF68
:10109000FFFF3FFFFFFFFFFE3FFFFFFFFFFE1FFFC2
:1010A000FFFFFFFC0FFFFFFFFFF807FFFFFFFFF051
:1010B00001FFFFFFFFC03030000000007F80000014
:1010C0000000FF8000000001FF8000000003FF809F
:1010D00000000007FF800000000FFF800000001FDD
:1010E000FF800000003FFF800000007FFF800000C5
:1010F00000FFFF80000001FFFF80000007FFFF806E
:1011000000000FFFBF8000001FFE3F8000003FFC7B
:101110003F8000007FF83F800000FFF03F8000012B
:10112000FFE03F800003FF803F800007FF003F801B
:10113000000FFE003F80001FFC003F80007FF80092
:101140003F8000FFF0003F8001FFC0003F8003FFB1
:1011500080003F8007FF00003F800FFE00003F80BF
:101160001FFC00003F801FFFFFFFFFFF1FFFFFFF6F
:10117000FFFF1FFFFFFFFFFF1FFFFFFFFFFF1FFF1F
:10118000FFFFFFFF1FFFFFFFFFFF1FFFFFFFFFFF2F
:10119000000000003F80000000003F8000000000D1
:1011A0003F80000000003F80000000003F80000002
:1011B00000003F80000000003F80000000003F80F2
:1011C000000000003F80000000003F8000000000A1
:1011D0003F80000000003F8030307FFFFFFFFFFFB7
:1011E0007FFFFFFFFFFF7FFFFFFFFFFF7FFFFFFF8F
:1011F000FFFF7FFFFFFFFFFF7FFFFFFFFFFF7FFF7F
:10120000FFFFFFFF7F00000000007F0000000000E4
:101210007F00000000007F00000000007F00000051
:1012200000007F00000000007F00000000007F0041
:10123000000000007F00000000007F0000000000B0
:101240007F00000000007F00000000007F00000021
:1012500000007FFFFFFFFFC07FFFFFFFFFF07FFF6A
:10126000FFFFFFF87FFFFFFFFFFC7FFFFFFFFFFE99
:101270007FFFFFFFFFFE7FFFFFFFFFFF000000007B
:10128000007F00000000007F00000000007F0000E1
:101290000000007F00000000007F00000000007FD1
:1012A00000000000007F00000000007F0000000040
:1012B000007F00000000007F7F000000007F7F00B3
:1012C0000000007F7F000000007F7F000000007FA3
:1012D0007FFFFFFFFFFF3FFFFFFFFFFE3FFFFFFF1F
:1012E000FFFE1FFFFFFFFFFC1FFFFFFFFFF807FFD1
:1012F000FFFFFFF001FFFFFFFFC0303001FFFFFFE6
:10130000FF0007FFFFFFFF000FFFFFFFFF001FFFB2
:10131000FFFFFF003FFFFFFFFF003FFFFFFFFF005A
:101320007FFFFFFFFF007F00000000007F00000044
:1013300000007F00000000007F00000000007F0030
:10134000000000007F00000000007F00000000009F
:101350007F00000000007F00000000007F00000010
:1013600000007F00000000007F00000000007F0000
:10137000000000007FFFFFFFFFC07FFFFFFFFFF0C7
:101380007FFFFFFFFFF87FFFFFFFFFFC7FFFFFFFF7
:10139000FFFE7FFFFFFFFFFE7FFFFFFFFFFF7F00DE
:1013A0000000007F7F000000007F7F000000007FC2
:1013B0007F000000007F7F000000007F7F000000B2
:1013C000007F7F000000007F7F000000007F7F0023
:1013D0000000007F7F000000007F7F000000007F92
:1013E0007F000000007F7F000000007F7F00000082
:1013F000007F7FFFFFFFFFFF3FFFFFFFFFFE3FFF7D
:10140000FFFFFFFE1FFFFFFFFFFC0FFFFFFFFFF8C7
:1014100007FFFFFFFFF001FFFFFFFFC03030007F3D
:10142000FFFFFFC0007FFFFFFFF0007FFFFFFFF81F
:10143000007FFFFFFFFC007FFFFFFFFE007FFFFF3D
:10144000FFFE007FFFFFFFFF00000000007F0000A5
:101450000000007F00000000007F00000000007F0F
:1014600000000000007F00000000007F000000007E
:10147000007F00000000007F00000000007F0000EF
:101480000000007F00000000007F00000000007FDF
:1014900000000000007F00000000007F000000004E
:1014A000007F00000000007F00000000007F0000BF
:1014B0000000007F00000000007F00000000007FAF
:1014C00000000000007F00000000007F000000001E
:1014D000007F00000000007F00000000007F00008F
:1014E0000000007F00000000007F00000000007F7F
:1014F00000000000007F00000000007F00000000EE
:10150000007F00000000007F00000000007F00005E
:101510000000007F00000000007F00000000007F4E
:1015200000000000007F00000000007F00000000BD
:10153000007F00000000007F00000000007F3030CE
:1015400001FFFFFFFFC007FFFFFFFFF00FFFFFFFDF
:10155000FFF81FFFFFFFFFFC3FFFFFFFFFFE3FFF06
:10156000FFFFFFFE7FFFFFFFFFFF7F000000007F08
:101570007F000000007F7F000000007F7F000000F0
:10158000007F7F000000007F7F000000007F7F0061
:101590000000007F7F000000007F7F000000007FD0
:1015A0007F000000007F7F000000007F7F000000C0
:1015B000007F7F000000007F7F000000007F3FFF72
:1015C000FFFFFFFE3FFFFFFFFFFE3FFFFFFFFFFEAE
:1015D0003FFFFFFFFFFE3FFFFFFFFFFE7FFFFFFF1D
:1015E000FFFF7F000000007F7F000000007F7F0082
:1015F0000000007F7F000000007F7F000000007F70
:101600007F000000007F7F000000007F7F0000005F
:10161000007F7F000000007F7F000000007F7F00D0
:101620000000007F7F000000007F7F000000007F3F
:101630007F000000007F7FFFFFFFFFFF3FFFFFFFF6
:10164000FFFE3FFFFFFFFFFE1FFFFFFFFFFC0FFF3F
:10165000FFFFFFF807FFFFFFFFF001FFFFFFFFC0E5
:10166000303003FFFFFFFFC00FFFFFFFFFF01FFF42
:10167000FFFFFFF83FFFFFFFFFFC7FFFFFFFFFFEC5
:101680007FFFFFFFFFFEFFFFFFFFFFFFFE000000E9
:10169000007FFE000000007FFE000000007FFE00D3
:1016A0000000007FFE000000007FFE000000007FC1
:1016B000FE000000007FFE000000007FFE00000032
:1016C000007FFE000000007FFE000000007FFE00A3
:1016D0000000007FFE000000007FFE000000007F91
:1016E000FFFFFFFFFFFF7FFFFFFFFFFF7FFFFFFF0A
:1016F000FFFF3FFFFFFFFFFF1FFFFFFFFFFF0FFF8A
:10170000FFFFFFFF03FFFFFFFFFF00000000007F60
:1017100000000000007F00000000007F00000000CB
:10172000007F00000000007F00000000007F00003C
:101730000000007F00000000007F00000000007F2C
:1017400000000000007F00000000007F000000009B
:10175000007F00000000007FFFFFFFFFFFFFFFFF93
:10176000FFFFFFFE7FFFFFFFFFFE3FFFFFFFFFFCCE
:101770003FFFFFFFFFF80FFFFFFFFFF003FFFFFF3B
:10178000FFC030300000000000000000000000003A
:101790000000000000000000000000000000000049
:1017A0000000000000000000000000000000000039
:1017B0000000000000000000000000000000000029
:1017C0000000000000000000000000000000000019
:1017D0000000000000000000000000000000000009
:1017E00000000000000000000000000000000000F9
:1017F00000000000000000000000000000000000E9
:101800000000001FFFFFF800001FFFFFF800001F8F
:10181000FFFFF800001FFFFFF800001FFFFFF800A8
:10182000001FFFFFF800001FFFFFF800000000008E
:1018300000000000000000000000000000000000A8
:101840000000000000000000000000000000000098
:101850000000000000000000000000000000000088
:101860000000000000000000000000000000000078
:101870000000000000000000000000000000000068
:101880000000000000000000000000000000000058
:101890000000000000000000000000000000000048
:1018A000000000003030000FF8000000001FF800BA
:1018B0000000001FF8000000003FF8000000007F5B
:1018C000F800000000FFF800000001FFF800000031
:1018D00003FFF800000003FFF800000007FFF80016
:1018E00000000FFBF80000001FF3F80000003FF3BA
:1018F000F80000007FE3F80000007FC3F80000005C
:10190000FF83F80000000003F80000000003F80067
:1019100000000003F80000000003F80000000003CE
:10192000F80000000003F80000000003F8000000C9
:101930000003F80000000003F80000000003F800B6
:1019400000000003F80000000003F800000000039E
:10195000F80000000003F80000000003F800000099
:101960000003F80000000003F80000000003F80086
:1019700000000003F80000000003F800000000036E
:10198000F80000000003F80000000003F800000069
:101990000003F80000000003F80000000003F80056
:1019A00000000003F80000000003F800000000033E
:1019B000F80000000003F80000000003F800000039
:1019C0000003F80000005374616E64616C6F6E6513
:1019D000203976004C69506F2031312E3476004C1E
:1019E00069506F20372E3476004E694D4820392ECD
:1019F000367620382D63656C6C004E694D48203872
:101A00002E347620372D63656C6C0052617720761A
:101A10006F6C7461676500436F756E7420646972E2
:101A2000656374696F6E00426174746572792073C6
:101A30006574757000416D6D6F20636F6C6F7220FF
:101A400028312F332900416D6D6F20636F6C6F72E9
:101A50002028322F332900416D6D6F20636F6C6F2A
:101A600072202846756C6C29004261636B67726F47
:101A7000756E6420636F6C6F7200554920436F6C04
:101A80006F7200526F74617465205549203930209F
:101A90006467727300496E766572746564004D61A7
:101AA0006E75616C206F6E6C79004175746F206F7C
:101AB0006E6C79004175746F20414E44204D616E0B
:101AC00075616C004175746F204F52204D616E75C9
:101AD000616C00363A00353A00343A00333A00324D
:101AE0003A00313A003C3C204261636B004E65781D
:101AF0007420706167650053617665206272696762
:101B000068746E6573730052656C6F616420626502
:101B1000686176696F720055492053657474696E07
:101B20006773005365742074696D65004D616E6163
:101B300067652050726573657473003C3C20536187
:101B400076652026204578697400000000080002B0
:101B50000100000304070000000000000000000076
:101B60000000250028002B000000000024002700B2
:101B70002A0004040404040404040202020202020F
:101B80000303030303030102040810204080010241
:101B9000040810200102040810200B1AFA19E91990
:101BA000DF19D419C619E51A271A171AE51A831A64
:101BB0007A1A691A571A461A351AC41AB41AAA1A7E
:101BC0009E1A951AE51AE21ADF1ADC1AD91AD61AE1
:101BD000D31A3B1B2C1B231B171B071BF71AED1AD1
:101BE00000000000003E5B4F5B3E3E6B4F6B3E1CB7
:101BF0003E7C3E1C183C7E3C181C577D571C1C5ECE
:101C00007F5E1C00183C1800FFE7C3E7FF001824A4
:101C10001800FFE7DBE7FF30483A060E262979294E
:101C200026407F050507407F05253F5A3CE73C5A83
:101C30007F3E1C1C08081C1C3E7F14227F22145F60
:101C40005F005F5F06097F017F006689956A6060BB
:101C500060606094A2FFA29408047E040810207EB5
:101C6000201008082A1C08081C2A08081E1010103A
:101C7000100C1E0C1E0C30383E3830060E3E0E0680
:101C8000000000000000005F0000000700070014D3
:101C90007F147F14242A7F2A122313086462364992
:101CA0005620500008070300001C2241000041227A
:101CB0001C002A1C7F1C2A08083E0808008070307F
:101CC00000080808080800006060002010080402EE
:101CD0003E5149453E00427F4000724949494621F4
:101CE00041494D331814127F1027454545393C4A68
:101CF000494931412111090736494949364649497F
:101D0000291E0000140000004034000000081422C6
:101D10004114141414140041221408020159090634
:101D20003E415D594E7C1211127C7F494949363E35
:101D3000414141227F4141413E7F494949417F091B
:101D40000909013E414151737F0808087F00417F26
:101D500041002040413F017F081422417F40404024
:101D6000407F021C027F7F0408107F3E4141413EBC
:101D70007F090909063E4151215E7F09192946263E
:101D80004949493203017F01033F4040403F1F2042
:101D900040201F3F4038403F631408146303047819
:101DA00004036159494D43007F4141410204081039
:101DB00020004141417F0402010204404040404074
:101DC000000307080020545478407F2844443838E2
:101DD00044444428384444287F3854545418000854
:101DE0007E090218A4A49C787F0804047800447D2E
:101DF00040002040403D007F1028440000417F40CB
:101E0000007C047804787C0804047838444444381E
:101E1000FC1824241818242418FC7C0804040848FE
:101E20005454542404043F44243C4040207C1C204F
:101E300040201C3C4030403C44281028444C9090AA
:101E4000907C4464544C4400083641000000770004
:101E500000004136080002010204023C2623263C11
:101E60001EA1A161123A4040207A3854545559219C
:101E70005555794122545478422155547840205484
:101E80005579400C1E5272123955555559395454D2
:101E9000545939555454580000457C410002457D41
:101EA000420001457C407D1211127DF0282528F06A
:101EB0007C545545002054547C547C0A097F493297
:101EC000494949323A4444443A324A4848303A410E
:101ED00041217A3A42402078009DA0A07D3D4242B7
:101EE000423D3D4040403D3C24FF2424487E494340
:101EF000662B2FFC2F2BFF0929F620C0887E0903B3
:101F000020545479410000447D413048484A3238D9
:101F10004040227A007A0A0A727D0D19317D262905
:101F2000292F28262929292630484D4020380808FD
:101F3000080808080808382F10C8ACBA2F10283431
:101F4000FA00007B000008142A142222142A140824
:101F50005500550055AA55AA55AAFF55FF55FF0033
:101F60000000FF00101010FF00141414FF001010E8
:101F7000FF00FF1010F010F0141414FC001414F7FC
:101F800000FF0000FF00FF1414F404FC14141710E9
:101F90001F10101F101F1414141F00101010F00039
:101FA0000000001F101010101F10101010F0100073
:101FB0000000FF101010101010101010FF10000083
:101FC00000FF140000FF00FF00001F10170000FCBE
:101FD00004F414141710171414F404F40000FF0090
:101FE000F714141414141414F700F7141414171419
:101FF00010101F101F141414F4141010F010F0001F
:10200000001F101F0000001F14000000FC1400003F
:10201000F010F01010FF10FF141414FF1410101023
:102020001F00000000F010FFFFFFFFFFF0F0F0F0D6
:10203000F0FFFFFF0000000000FFFF0F0F0F0F0F6A
:102040003844443844FC4A4A4A347E0202060602B6
:102050007E027E0263554941633844443C04407E1D
:10206000201E2006027E020299A5E7A5991C2A4996
:102070002A1C4C7201724C304A4D4D303048784821
:1020800030BC625A463D3E494949007E0101017E0D
:102090002A2A2A2A2A44445F444440514A44404060
:1020A000444A51400000FF0103E080FF000008089F
:1020B0006B6B083612362436060F090F060000181F
:1020C000180000001010003040FF0101001F010146
:1020D0001E00191D1712003C3C3C3C000000000093
:1020E000393611241FBECFEFD8E0DEBFCDBF11E0DF
:1020F000A0E0B1E0E8ECFBE702C005900D92AE3F36
:10210000B107D9F725E0AEEFB1E001C01D92A630CE
:10211000B207E1F710E1C1E7D0E104C02197FE0169
:102120000E94C33DC037D107C9F70E94842E0C948A
:10213000E23D0C940000F8944B9913C08091FE018D
:10214000811111C080910E0290910F02019790931E
:102150000F0280930E0281E0809311028093FE01B2
:1021600002C01092FE01789408950895089584E1C4
:1021700094E09093440280934302A4E7B4E0129663
:102180008D919C911397E6EAF4E02D913C91318B6F
:10219000208B938B828B8091030290E0019724E047
:1021A000880F991F2A95E1F72BE230E0A901481B1F
:1021B000590B5587448782E790E0978786878FE69B
:1021C0000C943823A4E7B4E012962D913C91139718
:1021D000E6EAF4E04D915C91518B408B338B228B7E
:1021E000ACE5B4E01E964D915C911F9750962D91F1
:1021F0003C915197420F531F14962C911497249F92
:10220000B001259F700D11241A962D913C911B97BA
:102210002E5F3F4F260F371F4AE550E05587448712
:1022200037872687BC0180E090E04AE00E943D238A
:1022300080E20C943823EF92FF920F931F9340910A
:1022400003022091010230910202423069F04330D2
:1022500021F04130B1F4207E0EC03770982F8827CE
:10226000990F990F990F07C02F71387F45E0880F9C
:10227000991F4A95E1F7822B932B9093020280934A
:102280000102E0900102F090020208E110E028E172
:1022900030E040E150E068E570E086EA94E00E94BA
:1022A000E0201F910F91FF90EF900895809303021B
:1022B000813061F090F0823031F0833009F049C014
:1022C0002CEF33E005C024EE33E002C02CEC33E009
:1022D00030934402209343023CC0E091FF01F0910F
:1022E000000280910102909102029183808385E037
:1022F00080931202609176047091770486EA94E0EC
:102300000E948F1A80917404909175049093B9047F
:102310008093B8049093B7048093B60488E290E069
:102320009093B3048093B2041092B5041092B40455
:1023300083E891E00E94172468E070E08CE194E06B
:102340000E9480238CE194E09093440280934302A6
:10235000089520917604309177044091740450914F
:1023600075045093B7044093B6043093B904209396
:10237000B80490E0019724E0880F991F2A95E1F7AF
:102380002BE230E0A901481B590B5093B304409352
:10239000B20482E790E09093B5048093B4048EE594
:1023A0000C943823CF93DF93C4E7D4E0888F87E081
:1023B000809312026A817B8186EA94E00E948F1AE0
:1023C00088819981E6EAF4E0938B828B918B808BF4
:1023D00088E290E095878487178616868FE891E0DB
:1023E0000E94172468E070E084E993E00E94802353
:1023F00084E993E09093440280934302DF91CF916C
:102400000895EF92FF920F931F93CF93DF93EC0108
:102410008091600490E0FC01EE0FFF1FE458FB4F39
:10242000D183C0832CE534E03093440220934302EF
:10243000E0907604F090770440916A0450916B0428
:1024400020916C0430916D04240F351F289FB0013A
:10245000299F700D389F700D112440916604509192
:1024600067044E5F5F4F460F571F0AE010E02AE0F7
:1024700030E060E570E086EA94E00E94631CCD2BBA
:1024800061F520916A0430916B0480916C04909105
:102490006D04280F391F80916004829FA001839FE3
:1024A000500D112480916604909167040296840F68
:1024B000951F2AE530E03093B3042093B204909343
:1024C000B5048093B4048AE991E0DF91CF911F9124
:1024D0000F91FF90EF900C941724DF91CF911F91F3
:1024E0000F91FF90EF9008950F931F93CF93DF9379
:1024F000ECEBF3E0F0934402E09343028091030598
:1025000090E091878087C4E7D4E00A811B812CE0AA
:1025100030E04EE350E062E370E086EA94E00E942F
:102520004621088119812CE030E04EE350E064E45C
:1025300070E086EA94E00E944621DF91CF911F91DE
:102540000F910895809104058A3018F480E30E9469
:1025500038236091040570E080E090E04AE00E943A
:102560003D238AE30E943823809103058A3018F4C2
:1025700080E30E9438236091030570E080E090E0E2
:102580004AE00C943D238091B40380930405E6EA6D
:10259000F4E082E390E095878487978786870C94A0
:1025A000A2128091C40380930305E6EAF4E082E37B
:1025B00090E095878487978786870C94A212EF9284
:1025C000FF920F931F9380911804E0907404F09091
:1025D000750481112DC00CE010E028E330E044E6E2
:1025E00050E060E470E086EA94E00E94E020809190
:1025F000740490917504209176043091770430939F
:10260000B7042093B6049093B9048093B80480E58E
:1026100090E09093B3048093B20486E690E09093A8
:10262000B5048093B4048EE991E00E94172425C07C
:102630002091760430917704F092B704E092B604CA
:102640003093B9042093B80490E0019734E0880FE8
:10265000991F3A95E1F72BE230E0A901481B590B8D
:102660005093B3044093B20482E790E09093B50492
:102670008093B4048FE60E943823809103029091E6
:102680001804981709F460C0811141C0E0907404E7
:10269000F09075040CE010E028E330E044E650E0F0
:1026A00060E470E086EA94E00E94C21AE09076044A
:1026B000F09077040AE010E026E330E045E650E0D1
:1026C00061E470E086EA94E00E94E0208091760464
:1026D0009091770420917404309175043093B7047D
:1026E0002093B6049093B9048093B80480E590E0F9
:1026F0009093B3048093B20486E690E09093B5047F
:102700008093B4048EE991E00E94172419C0E090F0
:102710007604F090770490E0019724E0880F991FE9
:102720002A95E1F76BE270E0681B790B0AE010E094
:102730002CE030E042E750E086EA94E00E94E0209E
:1027400080911804809303021F910F91FF90EF90E6
:102750000895CF92DF92EF92FF920F931F93CF9342
:10276000DF9323E020931202109203029093000261
:102770008093FF01FC0180819181909302028093FC
:10278000010284E194E0909344028093430284E741
:10279000C82E84E0D82EF6016281738186EA94E027
:1027A0000E948F1AECEFF3E08091020286958695E5
:1027B00086958087118668E0CF010E949D258091D3
:1027C000010290910202807E977025E09695879590
:1027D0002A95E1F79093ED038093EC0368E184EE92
:1027E00093E00E949D2580910102909102028F71D9
:1027F00099279093D5038093D40368E28CEC93E0FF
:102800000E949D25F601E080F1800CE010E028E3B5
:1028100030E044E650E060E470E086EA94E00E9434
:10282000C21AF60182819381C6EAD4E02081318107
:10283000398B288B9B8B8A8B80E590E09D878C87DA
:1028400085E690E09F878E878EE991E00E941724AD
:102850008AE090E09D878C879F878E87E0900102B9
:10286000F090020208E110E028E130E040E150E0A1
:1028700068E570E0CE010E94E020F601E080F18082
:102880000AE110E02AE130E04FE050E067E570E057
:10289000CE010E94C21ADF91CF911F910F91FF903C
:1028A000EF90DF90CF900C94DF120F931F93CF9394
:1028B000DF93F999FECF80E090E00E944A3982349C
:1028C00009F441C0F999FECF62E480E090E00E94F3
:1028D000643964E681E090E00E94643960EE7FEF45
:1028E00082E090E00E94723960E070E084E090E065
:1028F0000E94723960EE77E086E090E00E947239C3
:1029000060EA7FEF88E090E00E94723960E078EF43
:102910008AE090E00E9472396EE170E08CE090E015
:102920000E9472396EE571E08EE090E00E9472398B
:10293000C0E1D0E060E0CE010E9464392196CC3144
:10294000D105C1F7B6CF81E090E00E944A3980936B
:102950000A0204E714E0C2E0D0E0CE010E944A3946
:10296000F80181938F012196CC31D105B1F7DF9128
:10297000CF911F910F910895A0914302B09144020D
:10298000109779F0482F50E0440F551F425E5D4F7D
:10299000ED91FC9111970280F381E02D682FCD011C
:1029A00009940895CF93DF9381E080931202C4E7E6
:1029B000D4E06A817B8186EA94E00E948F1A888144
:1029C0009981E6EAF4E0938B828B918B808B88E28D
:1029D00090E0958784871786168686E891E00E94A6
:1029E000172468E070E08EE894E00E9480238EE86F
:1029F00094E09093440280934302DF91CF91089535
:102A000090E08730910508F055C0FC01EC5CFF4F69
:102A10000C94C33D0C94D21484E794E00BC086E779
:102A200094E008C088E794E005C08AE794E002C01B
:102A30008CE794E00C94A91360918B04633010F43C
:102A40006F5F01C060E060938B0486EA94E00E94AF
:102A5000602985E08093120260917604709177047A
:102A600086EA94E00E948F1A809174049091750414
:102A70009093B9048093B8049093B7048093B604FC
:102A800088E290E09093B3048093B2041092B5046E
:102A90001092B40483E891E00E94172468E070E08B
:102AA0008CE194E00E9480238CE194E090934402B6
:102AB000809343020895CF93811103C0CF910C946A
:102AC000D214C82F809176049091770420917404D9
:102AD000309175043093B7042093B6049093B904F1
:102AE0008093B80420916A0430916B0480916C0447
:102AF00090916D04280F391FC29FA001C39F500DF4
:102B0000112480916604909167040296840F951FAA
:102B100020E530E03093B3042093B2049093B504E1
:102B20008093B4048EE30E9438232091600430E047
:102B300040916A0450916B0480916C0490916D04F3
:102B4000480F591F429FB001439F700D529F700D57
:102B5000112480916604909167040296860F971F56
:102B60004AE550E05093B3044093B2049093B50407
:102B70008093B40481E090E0C13011F080E090E0F7
:102B800090935104809350048CE494E09093440219
:102B900080934302220F331FF901E458FB4F8081D9
:102BA000918190935504809354040E941C2483EADD
:102BB00091E0CF910C94172480938A040C94D21442
:102BC000CF93DF93809176049091770420917404E1
:102BD000309175043093B7042093B6049093B904F0
:102BE0008093B80489E690E09093B3048093B20494
:102BF0008DE090E09093B5048093B40482E08093DC
:102C0000BA0480910B02882319F08091040202C05B
:102C10008091100290E001960E941C2481E0809334
:102C2000BA0480910B02882329F08091740490915A
:102C3000750404C080917604909177049093B90450
:102C40008093B8049093B7048093B6048FE590E026
:102C50009093B3048093B204C6E1D0E0D093B5045E
:102C6000C093B4048CE30E94382387E790E09093EC
:102C7000B3048093B204D093B504C093B4048EE33C
:102C80000E943823809176049091770420917404F7
:102C9000309175043093B7042093B6049093B9042F
:102CA0008093B804DF91CF910895682F80914302FB
:102CB00090914402009739F0DC01ED91FC91019074
:102CC000F081E02D0994623051F018F46130C1F0C8
:102CD0000895633081F16F3F09F455C008958091E4
:102CE0001202882319F08F3F49F008958091100255
:102CF0008093040281E080930B0238C00C94D214BC
:102D00008091120281114FC080910B02882309F437
:102D10004AC080910402882311F0815001C085E0EF
:102D2000E82FF0E0EE0FFF1FE258FB4F20813181CA
:102D3000232B89F319C080911202811134C0809134
:102D40000B02882381F180910402853010F48F5F9B
:102D500001C080E0E82FF0E0EE0FFF1FE258FB4FCC
:102D600020813181232B89F3809304020E94E01596
:102D70000E94772A609305027093060280930702EF
:102D8000909308020895E0911002F0E0EE0FFF1F0B
:102D9000E258FB4F8081918190930F0280930E0245
:102DA00082E0809311020895809115024A9913C020
:102DB000811119C08091130290911402049798F028
:102DC0008FEF0E94551681E08093150210921D042A
:102DD00010921C0404C0882331F010921502109246
:102DE00014021092130208958F929F92AF92BF9295
:102DF000CF92DF92EF92FF920F931F9320910A02DE
:102E0000822F90E0A0E0B0E09C01AD01215031099B
:102E100041095109A4E6B0E00E9496392EEF30E056
:102E200040E050E00E947739AA24BB24A21AB30ADA
:102E3000E4E7F4E0C080D180E280F380812C912C23
:102E400006E010E024E630E04EE150E063E170E09F
:102E500086EA94E00E9402201F910F91FF90EF906C
:102E6000DF90CF90BF90AF909F908F900895EF929A
:102E7000FF920F931F93CF93DF93C4E7D4E00A81AF
:102E80001B81288139814DEC51E06CE170E082E0DA
:102E900090E00E942125E880F98008E010E028E613
:102EA00030E04DE150E060E170E086EA94E00E949D
:102EB000E020DF91CF911F910F91FF90EF90089547
:102EC0000F931F93CF93DF9360910E0270910F02C7
:102ED000161617060CF5CB01770FAA0BBB0BBC011E
:102EE000CD0126E0660F771F881F991F2A95D1F71D
:102EF000E0911002F0E0EE0FFF1FE258FB4F20813F
:102F00003181032E000C440B550B0E947739C0E42D
:102F1000C21BCB3238F001C0C0E480917C04909198
:102F20007D040BC0C63128F080917A0490917B0417
:102F300004C0809178049091790490930D0280935D
:102F40000C02D0E0209176043091770440910C027D
:102F500050910D028E016FED71E080E090E00E94D3
:102F60004A24002711270C1B1D0B20917604309159
:102F7000770440910C0250910D0261E672E080E40A
:102F800090E00E944A24DF91CF911F910F91089504
:102F90000F931F93CF93DF9310924402109243023A
:102FA00010921202C4E7D4E06A817B8186EA94E041
:102FB0000E948F1A8A819B81E6EAF4E02881398198
:102FC000318B208B938B828B8FE590E09587848764
:102FD0008DE090E09787868786EA91E00E9417242B
:102FE0000A811B812881398146E051E063E070E06D
:102FF00088E590E00E9421250E94601781E080937F
:103000001102DF91CF911F910F910C94E015EF9277
:10301000FF920F931F93CF93DF9390E0873091053A
:1030200008F0EDC1FC01E55CFF4F0C94C33DF9993C
:10303000FECF04E714E0C2E0D0E0F80161918F0117
:10304000CE010E9452392196CC31D105B1F7DF91E2
:10305000CF911F910F91FF90EF900C94C81782E0D1
:1030600080931202609176047091770486EA94E06E
:103070000E948F1A80917404909175049093B90402
:103080008093B8049093B7048093B60488E290E0EC
:103090009093B3048093B2041092B5041092B404D8
:1030A00089EA91E00E94172468E070E08CE594E0E2
:1030B0000E9480238CE594E0909344028093430225
:1030C0008091760490917704209174043091750476
:1030D0003093B7042093B6049093B9048093B80456
:1030E0000EE714E0C1E0D0E08AE5E82EF12C8091F3
:1030F000610490E0C817D9070CF081C120916A04DF
:1031000030916B0480916C0490916D04280F391FED
:103110002C9FA0012D9F500D3C9F500D112480919C
:103120006604909167040296840F951FF092B30491
:10313000E092B2049093B5048093B404F8018191B5
:1031400091918F01009719F00E941C2404C08AE914
:1031500091E00E9417242196CACF8CEA93E09093C5
:103160004402809343028091040590E09093B5035C
:103170008093B403609176047091770486EA94E0BA
:103180000E948F1A82E390E09093B3048093B2047C
:103190009093B5048093B404809176049091770461
:1031A00020917404309175043093B7042093B604D1
:1031B0009093B9048093B8040E94A2120091740401
:1031C000109175042CE030E04EE350E062E370E0D3
:1031D00086EA94E00E94462112C185E080931202A3
:1031E000609176047091770486EA94E00E948F1AC9
:1031F00080917404909175049093B9048093B804FD
:103200009093B7048093B60488E290E09093B3045F
:103210008093B2041092B5041092B40483E891E054
:103220000E94172468E070E08CE194E00E94802303
:103230008CE194E0E0C080918A048093380484E0BB
:1032400080931202609176047091770486EA94E08C
:103250000E948F1A80917404909175049093B90420
:103260008093B8049093B7048093B60488E290E00A
:103270009093B3048093B2041092B5041092B404F6
:1032800081EB91E00E94172462E170E084E394E016
:103290000E94802384E394E090934402809343024D
:1032A0008091760490917704209174043091750494
:1032B0003093B7042093B6049093B9048093B80474
:1032C000209142043091430480914404909145043C
:1032D000280F391F80918A04829FA001839F500D7F
:1032E000112480913E0490913F040296840F951F13
:1032F00028E030E03093B3042093B2049093B504F7
:103300008093B4048EE3DF91CF911F910F91FF90D2
:10331000EF900C943823F999FECF60910A0281E076
:1033200090E00E945239809174049091750420912C
:103330007604309177043093B7042093B6049093C9
:10334000B9048093B80420919C0430919D0480912D
:103350009E0490919F04280F391F85E0829FA00151
:10336000839F500D112480919804909199040296A6
:10337000840F951F29E630E03093B3042093B20404
:103380009093B5048093B4048EEB91E0DF91CF91DC
:103390001F910F91FF90EF900C94172487E080937A
:1033A0001202609176047091770486EA94E00E949C
:1033B0008F1A80917404909175049093B90480934E
:1033C000B8049093B7048093B60488E290E0909399
:1033D000B3048093B2041092B5041092B4048FE841
:1033E00091E00E94172468E070E084E993E00E9475
:1033F000802384E993E09093440280934302DF9119
:10340000CF911F910F91FF90EF9008951F920F920F
:103410000FB60F9211240F900FBE0F901F901895AA
:103420001F920F920FB60F9211242F933F934F9339
:103430005F936F937F938F939F93AF93BF93EF931C
:10344000FF9380911802319913C0811119C08091A6
:10345000160290911702049798F082E00E94551688
:1034600081E080931802109223021092220204C07D
:10347000882331F01092180210921702109216024F
:1034800080912802309913C0811119C080911C02CB
:1034900090911D02049798F081E00E94551681E0FA
:1034A00080932802109221021092200204C08823E7
:1034B00031F01092280210921D0210921C0280918D
:1034C0001B02329913C0811119C080911902909189
:1034D0001A02049798F083E00E94551681E08093C9
:1034E0001B02109225021092240204C0882331F09E
:1034F00010921B0210921A0210921902FF91EF9182
:10350000BF91AF919F918F917F916F915F914F91FB
:103510003F912F910F900FBE0F901F901895EF9233
:10352000FF920F931F93DC011A960D911C911B972C
:1035300018962D913C911997ED91FC9100A0F1A165
:10354000E02D7B0140E050E060E070E009951F91C4
:103550000F91FF90EF9008950895FC016370658BC3
:103560008481958126813781613039F0633029F07B
:1035700091878087338722870895318720879387B3
:10358000828708956F927F928F929F92AF92BF929F
:10359000CF92DF92EF92FF920F931F93CF93DF931F
:1035A000EC014B015A0169013801E881F98102847B
:1035B000F385E02D0995E881F9810288F389E02DF2
:1035C00087019601A501B401CE010995A501460D1B
:1035D000571D41505109E881F9810288F389E02D96
:1035E0009601B401CE010995E881F9810088F1893D
:1035F000E02D9301A501B401CE010995C80CD91C99
:10360000B60161507109E881F9810088F189E02DE6
:103610009301A501CE010995E881F9810688F78912
:10362000E02DCE01DF91CF911F910F91FF90EF9090
:10363000DF90CF90BF90AF909F908F907F906F90D2
:1036400009948F929F92AF92BF92CF92DF92EF92A6
:10365000FF920F931F93CF93DF934C016B015A019D
:10366000E901DC01ED91FC916217730781F4041705
:10367000150724F48B2D5801042F182F0A191B0944
:1036800098012F5F3F4F048CF58DE02D12C040173D
:10369000510709F52617370724F48D2D6901C62F28
:1036A000D82F9E012C193D092F5F3F4F068CF78DB7
:1036B000E02D8701A501B601C4010995DF91CF91E5
:1036C0001F910F91FF90EF90DF90CF90BF90AF9040
:1036D0009F908F9008950284F385E02D0995D40181
:1036E000ED91FC910488F589E02D9E01A501B601BC
:1036F000C4010995D401ED91FC910688F789E02D6C
:10370000C401DF91CF911F910F91FF90EF90DF9057
:10371000CF90BF90AF909F908F900994EF92FF92BF
:103720000F931F93DC011A960D911C911B9718960D
:103730002D913C911997ED91FC9100A0F1A1E02D04
:103740007B0140E050E060E070E009951F910F912F
:10375000FF90EF9008954F925F926F927F928F92B9
:103760009F92AF92BF92CF92DF92EF92FF920F9310
:103770001F93CF93DF936C012B015A01390148014C
:10378000DC01ED91FC910284F385E02D0995E201C5
:10379000640C751CD601ED91FC91C615D7055CF43F
:1037A0000088F189E02D87019401A501BE01C601C1
:1037B00009952196EFCF0688F789E02DC601DF91A4
:1037C000CF911F910F91FF90EF90DF90CF90BF901E
:1037D000AF909F908F907F906F905F904F900994E3
:1037E0008F929F92AF92BF92CF92DF92EF92FF9211
:1037F0000F931F93CF93DF93EC015B014A016901A3
:10380000E881F9810284F385E02D099595012C0D5D
:103810003D1D21503109E881F9810488F589E02DA9
:1038200078018401A401B501CE010995E881F981EF
:103830000688F789E02DCE01DF91CF911F910F917E
:10384000FF90EF90DF90CF90BF90AF909F908F90C0
:1038500009948F929F92AF92BF92CF92DF92EF9294
:10386000FF920F931F93CF93DF93EC015B014A010B
:1038700069017801E881F9810284F385E02D0995D9
:10388000C80CD91C860101501109E881F98104880E
:10389000F589E02D9501A401B501CE010995E881D6
:1038A000F9810688F789E02DCE01DF91CF911F9134
:1038B0000F91FF90EF90DF90CF90BF90AF909F90CF
:1038C0008F9009940895EF92FF920F931F93DC015C
:1038D000ED91FC9100A0F1A1E02D09951F910F91B0
:1038E000FF90EF9008950F931F93DC01ED91FC91F1
:1038F000068CF78DE02D09951F910F9108950F9378
:103900001F93DC01ED91FC91048CF58DE02D099560
:103910001F910F910895DC01ED91FC910084F185D8
:10392000E02D09942F923F924F925F926F927F9277
:103930008F929F92AF92BF92CF92DF92EF92FF92BF
:103940000F931F93CF93DF9300D000D000D0CDB75B
:10395000DEB72C017E836D836A015901C801FC82A8
:10396000EB824801841A950A97FE03C091948194D2
:10397000910835012D813E81621A730A77FE03C0DA
:10398000719461947108681479045CF43A2D2B2DBC
:103990005C01832F922F3D812E81DE82CD82C32E4A
:1039A000D22EAD81BE81AA16BB065CF43C2D2D2D16
:1039B0006C01832F922F3D812E81BE82AD82A32E7A
:1039C000B22E85012D813E81021B130B1C012C1888
:1039D0003D0837FE03C0319421943108780117FF68
:1039E00003C03FEFE31AF30AF594E794C816D9062B
:1039F0002CF08FEF9FEF9A83898304C0A1E0B0E0A1
:103A0000BA83A9832D813E81A216B30624F1D20187
:103A1000ED91FC910484F585E02D2B813C816814A7
:103A2000790424F44D815E81B60103C0A6016D8145
:103A30007E81C2010995E218F308F7FE06C02981CC
:103A40003A81C20ED31EE00EF11E8D819E81019639
:103A50009E838D83D7CF26960FB6F894DEBF0FBE18
:103A6000CDBFDF91CF911F910F91FF90EF90DF902D
:103A7000CF90BF90AF909F908F907F906F905F900E
:103A80004F903F902F90089585ED8093BC008091DA
:103A9000BC0084FDFCCF1092AE02089540916502F7
:103AA000262F30E0240F311D21323105DCF4209126
:103AB000AE022430C9F4FC0180E090E0861758F48F
:103AC000309165022191DC01AB5BBD4FA30FB11DAD
:103AD0002C930196F3CF80916502680F6093650285
:103AE00080E0089581E0089582E00895E091E10486
:103AF0008091E004E81730F4F0E0EE51FB4F808154
:103B000090E008958FEF9FEF08959091E1048091E8
:103B1000E004981750F4E92FF0E0EE51FB4F2081BC
:103B200030E09F5F9093E10402C02FEF3FEFC901A7
:103B300008958091E00490E02091E104821B9109B6
:103B40000895CF92DF92EF92FF920F931F93CF933E
:103B5000DF937C01CB018A012091AF02222389F0FF
:103B6000EB016B01C40ED51ECC15DD0569F0699122
:103B7000D701ED91FC910190F081E02DC7010995ED
:103B8000F3CF642F0E944E1DC801DF91CF911F918A
:103B90000F91FF90EF90DF90CF900895CF93DF9338
:103BA0001F92CDB7DEB769832091AF022223D1F0F7
:103BB0002091D202203240F021E030E0FC0133833A
:103BC000228380E090E015C08091B002E82FF0E001
:103BD000EF54FD4F998190838F5F8093B002809363
:103BE000D20205C061E0CE0101960E944E1D81E027
:103BF00090E00F90DF91CF910895089580E090E0DC
:103C00000895AF92BF92CF92EF92FF920F931F93BE
:103C1000CF93DF93EC01262F888D998D009709F0C3
:103C200040C06A3059F41D861C862C898E859F857C
:103C300038E0239F800D911D112441C06D3009F49F
:103C4000AAC08E898823C1F03C898C859D8546E079
:103C5000349F800D911D11244885598548175907B7
:103C60005CF41D861C868E859F8548E0349F800D00
:103C7000911D11249F878E87EA88FB8808891989FE
:103C80004E855F856C857D85CC88CE010E94312C68
:103C90002C898C859D8536E0239F800D911D1124F4
:103CA00042C06A3079F41D861C862C89FC01369648
:103CB000E4918E859F852E9F800D911D11249F87F5
:103CC0008E8769C06D3009F466C0FC01349634916A
:103CD000631708F460C03196E491E61708F45BC0FE
:103CE000FC01329665917491422F50E0431B5109BB
:103CF00037E0349F5001359FB00C1124A60EB71E3B
:103D0000F501329634913196E491332311F0E111AB
:103D10000DC0F5013496E4912C898C859D85E29F38
:103D2000800D911D11249D878C8735C0F501359636
:103D300044915E89552311F16C89E32FF0E0E40F83
:103D4000F11D47FDFA956E9FD0016F9FB00D1124B4
:103D50004C855D854A0F5B1FE885F985E417F507FB
:103D60006CF41D861C86FC013696E4918E859F8539
:103D70006E9F800D911D11249F878E87EA88FB8896
:103D8000088919894E855F856C857D85CC88CE0133
:103D90000E94312CBECF81E090E0DF91CF911F9146
:103DA0000F91FF90EF90CF90BF90AF90089581302A
:103DB00039F020F0823009F46DC008950C94D214CB
:103DC00080918C048093800388E08093120260913C
:103DD00076047091770486EA94E00E948F1A8091AD
:103DE0007404909175049093B9048093B8049093EF
:103DF000B7048093B60488E290E09093B304809374
:103E0000B2041092B5041092B40482EE91E00E94C4
:103E1000172462E170E08CE793E00E9480238CE736
:103E200093E09093440280934302809176049091B2
:103E3000770420917404309175043093B704209373
:103E4000B6049093B9048093B80420918A0330910A
:103E50008B0380918C0390918D03280F391F8091E3
:103E60008C04829FA001839F500D112480918603B2
:103E7000909187030296840F951F28E030E03093DD
:103E8000B3042093B2049093B5048093B4048EE3FA
:103E90000C94382390918D0481E0892780938D04C0
:103EA0008AE090E09093B3048093B2048EE290E0B5
:103EB0009093B5048093B404809174049091750438
:103EC00020917604309177043093B7042093B604A0
:103ED0009093B9048093B80480EF91E00E94172476
:103EE00080918D04811103C08FED91E002C08CEDB3
:103EF00091E00E941724809176049091770420919C
:103F00007404309175043093B7042093B6049093F1
:103F1000B9048093B804089581E0809309020C9459
:103F2000D2148EBD00000DB407FEFDCF8EB50895EE
:103F30001F93CF93DF93EC01162F0E94212B0E9439
:103F4000172B812F0E94911FCE01DF91CF911F91DE
:103F50000C942D2B1F93CF93DF93EC01162F0E940F
:103F6000212B8CB58F7B8CBD2B982D9A2D988CB5E1
:103F700080648CBD812F0E94911FCE01DF91CF9173
:103F80001F910C942D2BEF92FF920F931F93CF93C1
:103F9000DF93EC01E62E142FF22E6AE20E94AA1F94
:103FA00060E0CE010E94981F6BA16E0DCE010E94B1
:103FB000981F60E0CE010E94981F6BA16F0DCE018B
:103FC0000E94981F6BE2CE010E94AA1F60E0CE0102
:103FD0000E94981F6CA1610FCE010E94981F60E0A3
:103FE000CE010E94981F6CA1600FCE010E94981F05
:103FF0006CE2CE01DF91CF911F910F91FF90EF9076
:104000000C94AA1F2F923F924F925F926F927F92D1
:104010008F929F92AF92BF92CF92DF92EF92FF92D8
:104020000F931F93CF93DF93CDB7DEB72D970FB6C6
:10403000F894DEBF0FBECDBF2C0139011801EB8211
:10404000FC82DD82DC0118968D919C91199768178E
:1040500079070CF09CC01A96ED91FC911B974E17B6
:104060005F070CF094C09B01260D371D8217930744
:104070001CF43C01661A770ACA01820D931DE817E9
:10408000F9071CF41F01241A350A29826A820FEFEE
:10409000040F020D2FEF260F260DC2010E94C31F31
:1040A000C2010E94212BF101E819F909FF83EE8377
:1040B000222733272819390939872887C3018A1904
:1040C0009B099B878A87AA27BB27AA19BB09BD879B
:1040D000AC87E980E21812141304F4F58301F12C83
:1040E0008A81801B101611069CF590E0B7FE06C071
:1040F000EC85FD858E179F0734F414C02A853B8517
:10410000821793077CF4DD24D39497FE06C088853C
:104110009985E816F9063CF405C0AE81BF81EA1620
:10412000FB060CF0D12C0E94172BD11002C08D8100
:1041300001C08C810E94911F0E94172BD11002C0D8
:104140008C2D01C08B810E94911F01501109C8CF95
:10415000B1E02B1A3108BDCFC2012D960FB6F894ED
:10416000DEBF0FBECDBFDF91CF911F910F91FF90AA
:10417000EF90DF90CF90BF90AF909F908F907F9007
:104180006F905F904F903F902F900C942D2B2D9619
:104190000FB6F894DEBF0FBECDBFDF91CF911F9158
:1041A0000F91FF90EF90DF90CF90BF90AF909F90D6
:1041B0008F907F906F905F904F903F902F900895D9
:1041C000AF92BF92CF92DF92EF92FF920F931F9325
:1041D000CF93DF936C015901E801FC012085318503
:1041E000621773070CF047C08285938548175907FB
:1041F0000CF041C0FB01EA0DFB1D2E173F071CF41C
:104200005901A61AB70A9A012C0F3D1F821793076E
:104210001CF4EC01C41BD50B0FEF040F0C0F2FEF98
:10422000260F2A0DC6010E94C31FC6010E94212B22
:104230001C161D069CF48501101611066CF40E94D4
:10424000172B8F2D0E94911F0E94172B8E2D0E94DD
:10425000911F01501109F0CF2197EACFC601DF91DC
:10426000CF911F910F91FF90EF90DF90CF90BF9073
:10427000AF900C942D2BDF91CF911F910F91FF9058
:10428000EF90DF90CF90BF90AF900895DF92EF92C4
:10429000FF920F931F93CF93DF937C01E901D02E00
:1042A000FC01808591856817790784F5228533851F
:1042B000421753075CF59B012C0F3D1F8217930794
:1042C0001CF4EC01C61BD70B2FEF260F2C0F042F6D
:1042D000C7010E94C31FC7010E94212B209761F0D4
:1042E0000E94172B812F0E94911F0E94172B8D2D4A
:1042F0000E94911F2197F2CFC701DF91CF911F91AB
:104300000F91FF90EF90DF900C942D2BDF91CF91C8
:104310001F910F91FF90EF90DF900895DF92EF9241
:10432000FF920F931F93CF93DF937C01E901D02E6F
:10433000FC01808591856817790784F582859385CE
:10434000481759075CF59A012C0F3D1F82179307F8
:104350001CF4EC01C41BD50B0FEF040F0C0F262F20
:10436000C7010E94C31FC7010E94212B209761F043
:104370000E94172B812F0E94911F0E94172B8D2DB9
:104380000E94911F2197F2CFC701DF91CF911F911A
:104390000F91FF90EF90DF900C942D2BDF91CF9138
:1043A0001F910F91FF90EF90DF900895FF920F9370
:1043B0001F93CF93DF93EC0177FD2AC08885998501
:1043C000681779072CF557FD23C08A859B85481708
:1043D0005907F4F4F32E122F01E0040F21E0260F09
:1043E000CE010E94C31FCE010E94212B0E94172BD9
:1043F0008F2D0E94911F0E94172B812F0E94911FC9
:10440000CE01DF91CF911F910F91FF900C942D2B36
:10441000DF91CF911F910F91FF9008951F920F92FE
:104420000FB60F9211242F933F934F935F936F9387
:104430007F938F939F93AF93BF93EF93FF9380915D
:10444000B900887F803609F49CC068F5883209F489
:104450005BC090F4803109F454C038F4882309F427
:10446000F2C0883009F44DC0F2C0883109F44CC064
:10447000803209F45DC0EBC0803409F468C048F4B0
:10448000803309F455C0883309F0E1C08093AC0251
:10449000D4C0803509F44FC0883509F45DC0883434
:1044A00009F0D5C0D2C0883909F4C3C0A8F4883750
:1044B00009F467C038F4883609F463C0803709F41A
:1044C00060C0C5C0883809F4B4C0803909F45FC041
:1044D000803809F0BCC05BC0803B09F484C038F46C
:1044E000803A09F466C0883A09F47DC0B0C0803CC7
:1044F00009F4A3C0883C09F4A0C0883B09F486C035
:10450000A6C08091890210C09091AB028091AA024E
:10451000981770F5E091AB0281E08E0F8093AB02AB
:10452000F0E0E657FD4F80818093BB0085EC82C0B0
:104530008093AC028AC0E091AB0281E08E0F809341
:10454000AB028091BB00F0E0E657FD4F8083909175
:10455000AB028091AA026AC0E091AB0281E08E0FAB
:104560008093AB028091BB00F0E0E657FD4F808363
:104570008091AD02811169C081E08093880284EA54
:104580005DC083E08093AE0210928702CFCF80910E
:104590008702803208F04DC0E091870281E08E0FE3
:1045A000809387028091BB00F0E0E959FD4F808342
:1045B000BDCF85EC8093BC001092AE028091870243
:1045C000803230F4E0918702F0E0E959FD4F10822B
:1045D0006091870270E087E692E0E0E0F0E0099504
:1045E0001092870234C084E08093AE02109266027B
:1045F00010926502E0E0F0E009958091650281117A
:1046000005C081E08093650210924502E091660248
:1046100081E08E0F80936602F0E0EB5BFD4F8081BE
:104620008093BB009091660280916502981708F410
:104630007DCF85E88093BC000AC085EC8093BC00E8
:104640001092AE0204C01092AC020E94441DFF9171
:10465000EF91BF91AF919F918F917F916F915F91FA
:104660004F913F912F910F900FBE0F901F90189573
:10467000682F86EA94E00C94011E8F929F92AF926D
:10468000BF920F931F93CF93DF93CDB7DEB7A19760
:104690000FB6F894DEBF0FBECDBF19A2423008F4AA
:1046A0004AE08E010F5D1F4F842E912CA12CB12C5E
:1046B000A50194010E94A139E62FB901CA01015058
:1046C0001109EA3014F4E05D01C0E95CD801EC9313
:1046D000232B242B252B61F7B80186EA94E00E9456
:1046E0006F2EA1960FB6F894DEBF0FBECDBFDF913F
:1046F000CF911F910F91BF90AF909F908F90089591
:10470000BF92CF92DF92EF92FF920F931F93CF93BE
:10471000DF93EC01798768878CE090E09B878A873C
:10472000B12C8D81B81608F078C04C818A819B81AC
:104730000E851F85AC89BD892C853D856889798961
:10474000CB2CD12CEA85FB85ED90FC90600F711F7E
:10475000B41219C06C9DA0016D9D500D7C9D500D33
:1047600011244E0F5F1F68857985DC01ED91FC9166
:1047700000A0F1A1E02D0995EC89FD89808191814E
:10478000EE89FF8918C06C9DA0016D9D500D7C9D28
:10479000500D11244E0F5F1F68857985DC01ED9166
:1047A000FC9106A0F7A1E02D0995EE89FF89808193
:1047B0009181EC89FD8920813181EA81FB81318BF6
:1047C000208B938B828B2E853F8588899989820FD8
:1047D000931F8C9DA0018D9D500D9C9D500D11240B
:1047E0002A853B852E5F3F4F240F351F8A819B8191
:1047F000488559854E5F5F4FFC0155874487378751
:104800002687CC0CDD1CEA89FB89EC0DFD1D65912A
:1048100074910E944B2EB39484CFDF91CF911F915E
:104820000F91FF90EF90DF90CF90BF900895BC0163
:1048300086EA94E00C946F2ECF92DF92EF92FF9273
:10484000CF93DF936C01990FEE08FF08F7FE17C0B6
:104850008DE20E943823EC0166277727CB016C1983
:104860007D098E099F094AE00E943D238C0F9D1F00
:10487000DF91CF91FF90EF90DF90CF9008954AE0C5
:10488000C701B601DF91CF91FF90EF90DF90CF90FD
:104890000C943D232F923F924F925F926F927F92A2
:1048A0008F929F92AF92BF92CF92DF92EF92FF9240
:1048B0000F931F93CF93DF93CDB7DEB729970FB632
:1048C000F894DEBF0FBECDBF7B014C835D832E838A
:1048D0003F83FB01F491F887FB01319624912A83F1
:1048E00017FF04C0102F1195D12C02C0D02E10E05C
:1048F0000A8101592FEF280F3885230F40E7682FD1
:1049000086EA94E00E94C31FF7013296849189835E
:1049100086EA94E00E94212BE8858E2F0E2E000C53
:10492000990BFA816F2E0F2E000C7708EF02900181
:1049300011243B832A8319861886312C412C212C83
:10494000012F110F110B4C018D189108D7FC939476
:104950006C0131E0C31AD1088A819B81E885F98511
:104960008E179F0709F451C0F9818F2F90E020E83E
:1049700030E0032C02C0359527950A94E2F7822394
:104980009323A22CB12C892B69F0A016B10654F008
:10499000A814B9043CF4842D90E055245394861552
:1049A00097050CF0512C0E94172B511002C08F81DB
:1049B00001C08D810E94911F0E94172B511002C0CF
:1049C0008E8101C08C810E94911F288539852F5FBF
:1049D0003F4F3987288736E0331510F033940DC0E8
:1049E000E885F98583E0F695E7958A95E1F73296B3
:1049F000EE0DFF1D84918983312CAC14BD0414F499
:104A00002394AACF4394212CA7CF86EA94E0299639
:104A10000FB6F894DEBF0FBECDBFDF91CF911F91CF
:104A20000F91FF90EF90DF90CF90BF90AF909F904D
:104A30008F907F906F905F904F903F902F900C944D
:104A40002D2B4F925F926F927F928F929F92AF9297
:104A5000BF92CF92DF92EF92FF920F931F93CF936B
:104A6000DF936A01D22F732E602E512EFA0114911A
:104A70003196C4910FEF060F0C0F2FEF280F210F67
:104A8000462F682F86EA94E00E94C31FF6013296F3
:104A9000449086EA94E00E94212B1C0270011124AC
:104AA00000E010E0C0E090E8A92EB12CE016F1067D
:104AB00081F1842C912CC5010C2E02C0959587950F
:104AC0000A94E2F7882299220E94172B81149104FC
:104AD00011F4852D01C0872D0E94911F0E94172B74
:104AE000892811F4862D01C08D2F0E94911F0F5F20
:104AF0001F4FC73010F4CF5FD9CFF80183E0F69590
:104B0000E7958A95E1F73296EC0DFD1D4490C0E0E3
:104B1000CDCF86EA94E0DF91CF911F910F91FF9066
:104B2000EF90DF90CF90BF90AF909F908F907F904D
:104B30006F905F904F900C942D2BEF92FF920F93FC
:104B40001F93CF93DF93EC01688B88E0898B8A8178
:104B50009B81EC89FD89E080F1800B8910E02A8936
:104B600030E070E0DC01ED91FC9106A0F7A1E02DB2
:104B700048E050E00995CE01DF91CF911F910F9150
:104B8000FF90EF900C94132890E0FC01EA57F44E4C
:104B90002491FC01EE58F44E8491882399F090E022
:104BA000880F991FFC01E859F44EA591B491FC01BE
:104BB000E25AF44E859194918FB7F894EC91E22BE0
:104BC000EC938FBF0895CF93DF93EC0185E00E94B3
:104BD000C425209711F460E004C0CF3FD10531F423
:104BE00061E085E0DF91CF910C94F029EFE4FBE1E7
:104BF000E491E330F9F048F4E130B9F0E230A1F5A6
:104C000084B5806284BDC8BD34C0E730E9F0E830C7
:104C100019F1E43049F58091800080628093800032
:104C2000D0938B00C0938A0024C084B5806884BD73
:104C3000C7BD1FC080918000806880938000D093A2
:104C40008900C093880015C08091B000806880936F
:104C5000B000C093B3000DC08091B000806280931B
:104C6000B000C093B40005C0C038D1050CF0B8CF77
:104C7000B2CFDF91CF910895282F3091D2023132F7
:104C800008F04AC08091AE028111FCCF9091D10210
:104C900042E04093AE022093AD022FEF2093AC028E
:104CA0001092AB023093AA02E1EBF2E0AAE8B2E084
:104CB00020E0321721F041914D932F5FFACF1092EF
:104CC000890220918902990F922B909389029091E9
:104CD0008802913061F41092880290918902909339
:104CE000BB009091BC0093FDF8CF95EC01C095EE10
:104CF0009093BC009091AE029230E1F39091AC029F
:104D00009F3F79F08091AC02803241F08091AC02FB
:104D1000803331F084E005C081E003C082E001C04F
:104D200083E01092B0021092D2021092AF02089566
:104D3000FC01538D448D252F30E0842F90E0821BA1
:104D4000930B541710F0CF96089501970895FC0126
:104D5000918D828D981761F0828DDF01A80FB11DB2
:104D60005D968C91928D9F5F9F73928F90E00895D6
:104D70008FEF9FEF0895FC01918D828D981731F090
:104D8000828DE80FF11D858D90E008958FEF9FEFE4
:104D90000895FC01918D228D892F90E0805C9F4FBA
:104DA000821B91098F739927089583ED92E00E94E9
:104DB000C92621E0892B09F420E0822F0895FC0107
:104DC000848DDF01A80FB11DA35ABF4F2C91848D94
:104DD00090E001968F739927848FA689B7892C93C9
:104DE000A089B1898C9180648C93938D848D981364
:104DF00006C00288F389E02D80818F7D808308952D
:104E0000EF92FF920F931F93CF93DF93EC0181E01A
:104E1000888F9B8D8C8D981305C0E889F9898081D6
:104E200085FD24C0F62E0B8D10E00F5F1F4F0F7312
:104E30001127E02E8C8DE8120CC00FB607FCFACFBC
:104E4000E889F989808185FFF5CFCE010E94DF26B0
:104E5000F1CF8B8DFE01E80FF11DE35AFF4FF08279
:104E60000B8FEA89FB898081806207C0EE89FF8908
:104E70006083E889F98980818064808381E090E0A3
:104E8000DF91CF911F910F91FF90EF900895CF93F5
:104E9000DF93EC01888D8823C9F0EA89FB89808142
:104EA00085FD05C0A889B9898C9186FD0FC00FB614
:104EB00007FCF5CF808185FFF2CFA889B9898C9155
:104EC00085FFEDCFCE010E94DF26E7CFDF91CF91A6
:104ED000089580E090E0892B29F00E94D526811169
:104EE0000C94000008959FB7F8944091DC04509111
:104EF000DD046091DE047091DF0486B5A89B06C0D6
:104F00008F3F21F04F5F5F4F6F4F7F4F9FBF762FD7
:104F1000652F542F44279A01AB01280F311D411DE5
:104F2000511DA3E0B0E00E949639089508950F93B3
:104F30001F93CF93DF93FC01DA012D913C91828581
:104F400093858217930758F5613061F0633039F526
:104F500020853185868197812817390764F4C90136
:104F6000019609C020853185848195818217930738
:104F700014F4C9010197918780878A01EF0101909C
:104F8000F081E02D0480F581E02DCE010995EE85BC
:104F9000FF85888599850995F80111821082DF9136
:104FA000CF911F910F910895623051F4DC011C964E
:104FB000ED91FC911D9718968D919C9119970994EC
:104FC0000895DC01623029F0633051F0613029F539
:104FD0000EC01696ED91FC91179714968C9109943A
:104FE00014966C9114976623C1F061500EC014960C
:104FF0006C911497262F30E015968C91159790E0C0
:105000000197281739074CF46F5FED91FC911197C8
:105010000480F581E02DCD0109940895FC0164839D
:1050200008950E94DD3D4F925F926F927F928F9222
:105030009F92AF92BF92CF92DF92EF92FF920F9327
:105040001F93CF93DF93EC010B8910E002501109FD
:105050004801012E000CAA08BB08CC80DD800D2C75
:10506000000CEE08FF0888859985092E000CAA0B14
:10507000BB0BA7019601281B390B4A0B5B0BC50123
:10508000B4010E94933D2E813F812901330F6608B0
:105090007708A30192012C193D094E095F090E946E
:1050A0007739820E931EA41EB51E912C9194819483
:1050B0009108EE89FF89C080D180EC89FD89E0806C
:1050C000F1802A8930E022503109498950E04F5F50
:1050D0005F4F688970E06F5F7F4FA12CB12C8A8190
:1050E0009B810E940220DF91CF911F910F91FF9031
:1050F000EF90DF90CF90BF90AF909F908F907F9078
:105100006F905F904F900895DF92EF92FF920F9310
:105110001F93CF93DF93EC01D62E8A819B816E85FE
:105120007F85EE89FF89E080F1808B0102501109B3
:105130002C853D852250310948895989640F751F96
:105140004C81469FF001479FF00D11244A855B85F5
:105150004F5F5F4F4E0F5F1F688579856F5F7F4F91
:10516000DC01ED91FC9100A0F1A1E02D0995EE8903
:10517000FF8980819181EC89FD8920813181AA811B
:10518000BB8151963C932E93509753969C938E934C
:1051900052972E853F8588899989280F391F8C81E0
:1051A000829FA001839F500D11248A859B850296C2
:1051B000840F951F288539852E5F3F4F1D963C93A0
:1051C0002E931C971F969C938E931E978C812A89F1
:1051D0009B89E22FF92FE80FF11DE80FF11D659172
:1051E0007491CD010E944B2EDC828A819B810E85B9
:1051F0001F85EC89FD89E080F1802C853D856889DB
:105200007989600F711FD69EF001D79EF00D112491
:105210004A855B854E0F5F1F68857985DC01ED91BE
:10522000FC9100A0F1A1E02D0995EC89FD89808118
:105230009181EE89FF8920813181AA81BB815196BC
:105240003C932E93509753969C938E9352972E8512
:105250003F8588899989280F391F8C81829FA001F9
:10526000839F500D11248A859B850296840F951F7C
:10527000288539852E5F3F4F1D963C932E931C97B2
:105280001F969C938E931E978C812A899B89E22F6F
:10529000F92FE80FF11DE80FF11D65917491CD0113
:1052A000DF91CF911F910F91FF90EF90DF900C94C1
:1052B0004B2E611102C060E201C061E20C94AA1F92
:1052C0001F93CF93DF93EC01162F66E30E94AA1F72
:1052D0001D8B1130B1F068F01230D9F0133021F588
:1052E00068E6CE010E94981F89A18CA38AA18250F2
:1052F0001AC068ECCE010E94981F89A18BA38AA1D5
:1053000010C068EACE010E94981F89A18CA38AA1CF
:105310000AC06CE0CE010E94981F89A18BA38AA1CC
:1053200082508CA301C08BA3DF91CF911F91089570
:105330001F920F920FB60F9211242F933F934F930A
:105340005F936F937F938F939F93AF93BF93EF93ED
:10535000FF9383ED92E00E94DF26FF91EF91BF91D2
:10536000AF919F918F917F916F915F914F913F91FD
:105370002F910F900FBE0F901F9018951F920F92B4
:105380000FB60F9211242F938F939F93EF93FF9358
:10539000E091E302F091E4028081E091E902F09172
:1053A000EA0282FD12C090818091EC028F5F8F73C0
:1053B0002091ED02821751F0E091EC02F0E0ED5205
:1053C000FD4F958F8093EC0201C08081FF91EF919A
:1053D0009F918F912F910F900FBE0F901F90189556
:1053E00090E0FC01E65BF44E2491FC01EA57F44E98
:1053F0003491FC01EE58F44EE491EE2309F43CC0E4
:10540000222339F1233091F038F42130A9F02230F1
:1054100001F584B58F7D12C0273091F02830A1F0BE
:105420002430B9F4809180008F7D03C0809180008A
:105430008F77809380000DC084B58F7784BD09C0BD
:105440008091B0008F7703C08091B0008F7D8093F2
:10545000B000F0E0EE0FFF1FE25AF44EA591B491B8
:105460009FB7F894611104C08C913095382302C025
:10547000EC913E2B3C939FBF08958F929F92AF92E9
:10548000BF92CF92DF92EF92FF926B017C010E945C
:1054900073274B015C01C114D104E104F104F1F064
:1054A0000E947327DC01CB0188199909AA09BB095D
:1054B000883E9340A105B10570F321E0C21AD108DE
:1054C000E108F10888EE880E83E0981EA11CB11C4B
:1054D000C114D104E104F10419F7DDCFFF90EF907E
:1054E000DF90CF90BF90AF909F908F9008952FB78F
:1054F000F8946091D8047091D9048091DA04909165
:10550000DB042FBF08951F920F920FB60F92112444
:105510002F933F938F939F93AF93BF938091D80422
:105520009091D904A091DA04B091DB043091D704B2
:1055300026E6230F2D3728F029EE230F0196A11D13
:10554000B11D2093D7048093D8049093D904A093DD
:10555000DA04B093DB048091DC049091DD04A09127
:10556000DE04B091DF040196A11DB11D8093DC041F
:105570009093DD04A093DE04B093DF04BF91AF915C
:105580009F918F913F912F910F900FBE0F901F9081
:1055900018951F920F920FB60F9211242F933F93DD
:1055A0004F935F936F937F938F939F93AF93BF932B
:1055B000EF93FF93E0910201F09103010995FF91B0
:1055C000EF91BF91AF919F918F917F916F915F917B
:1055D0004F913F912F910F900FBE0F901F901895F4
:1055E0001F920F920FB60F9211242F933F934F9358
:1055F0005F936F937F938F939F93AF93BF93EF933B
:10560000FF93E0910001F09101010995FF91EF9165
:10561000BF91AF919F918F917F916F915F914F91CA
:105620003F912F910F900FBE0F901F9018958CB542
:105630008F7B8CBD2B9A2D9A2D988CB580648CBD58
:105640000895DC019996ED91FC919A9790819F962F
:105650008C918095892380830895DC019996ED9142
:10566000FC919A9790819F968C91892B80830895C5
:10567000CF92DF92EF92FF920F931F93CF93DF931E
:105680006C017A018B01C0E0D0E0CE15DF0581F01E
:10569000D8016D918D01D601ED91FC910190F081C1
:1056A000E02DC6010995892B11F02196EECF7E01E0
:1056B000C701DF91CF911F910F91FF90EF90DF9085
:1056C000CF900895CF93C62F91E09093AF029FE6BD
:1056D0009093D1021092B0021092D202682F80E70C
:1056E00093E00E94CE1D6C2F80E793E00E94CE1DB8
:1056F00081E0CF910C943C269091AE029111FCCFA9
:10570000982F813208F090E281E08093AE0280937E
:10571000AD022FEF2093AC021092AB02290F209321
:10572000AA0280938902809189028E6D80938902FA
:1057300080918802813061F4109288028091890200
:105740008093BB008091BC0083FDF8CF85EC01C045
:1057500085EE8093BC008091AE028130E1F38091B0
:10576000AB02891710F49091AB02EAE8F2E0A2EEE6
:10577000B4E080E0891721F021912D938F5FFACF5B
:105780001092E1048093E004089591E09093AF02B9
:105790009FE69093D1021092B0021092D202682F2D
:1057A00080E793E00E94CE1D81E00E943C2680931A
:1057B000050581E090E00E947C2B80E793E00E9449
:1057C000851D0895CF92DF92EF92FF920F931F9362
:1057D000CF93DF93EC012196FC01F490FF2009F4B4
:1057E00037C0FE01649186EA94E00E94AA1F6E0110
:1057F000F2E0CF0ED11CFE013196C4918C2F80783F
:10580000E82ECF778601DC2FD15048F0F801649163
:1058100086EA94E00E94981F0F5F1F4FF5CFC601E4
:105820008C0F911DEC01E11002C0FA94D7CF8C01CE
:105830000F5F1F4FFC01649170E06F3F710511F421
:1058400064EF71E080E090E00E943D2AE801EDCF36
:10585000DF91CF911F910F91FF90EF90DF90CF904C
:1058600008952F923F924F925F926F927F928F9204
:105870009F92AF92BF92CF92DF92EF92FF920F93DF
:105880001F93CF93DF93CDB7DEB76B970FB6F89426
:10589000DEBF0FBECDBF9B8F8A8F5B011A01D22E58
:1058A0001F830E833701C982DC0158962D913C91EC
:1058B00059972115310509F0E6C018968D919C91F4
:1058C0001997681779070CF0CDC11A968D919C91A4
:1058D0001B97481759070CF0C5C18C2C912CFB0164
:1058E00026E0C29EE00DF11D1124FB87EA871E16FB
:1058F0001F060CF0B7C1A40183E0440F551F8A9521
:10590000E1F75D874C87CA01820D931D18161906B1
:105910000CF0A8C157968C91811104C05FEA5D1507
:1059200008F4D394AA8DBB8DED91FC91119702845C
:10593000F385E02DCD010995B5E0DB9EC001112472
:10594000F5013596FF87EE87BB82AA8225019C016F
:105950002A193B09398B288BA101485F5F4F5B8B6C
:105960004A8BE889F989E40DF51DE052F44E549113
:10597000588761013D822C82888580FF13C0AA8DE3
:10598000BB8DED91FC91B981B13031F40484F58582
:10599000E02D2E813F8116C00684F785E02DEE8034
:1059A000FF801AC0EE81FF81E615F705F1F0AA8DA0
:1059B000BB8DED91FC91B981B13051F40484F58532
:1059C000E02D9301A601B2018A8D9B8D09950DC032
:1059D0000684F785E02D7301840194014C815D817B
:1059E0006A817B818A8D9B8D0995E885E695E8879C
:1059F000FFEFCF1ADF0A2C813D81280D391D3D8331
:105A00002C834A895B89C416D50609F0B5CF5FEFB0
:105A1000451A550A8A819B81880D991D9B838A832B
:105A2000AE85BF854A165B0609F09BCFEE81FF81EC
:105A3000E615F70509F4F4C0EA8DFB8DA081B1816C
:105A4000F981F13079F4B5016B5F7F4F5096ED919C
:105A5000FC915197830128E030E0A1018A8D9B8D54
:105A60000995DEC06A857B85681979091E96ED91D6
:105A7000FC911F9773010C851D859401A1018A8DEE
:105A80009B8D0995CDC0F9013496E491DE1AF90198
:105A9000329685919491B7E0DB9E800D911D112483
:105AA000F901259134913B8B2A8BFC01259134918E
:105AB0002901FC013296C490319634913E8732968A
:105AC00014913196D4904981423058F0612E012EC4
:105AD000000C77088D2D0D2C000C990B9987888769
