:100000000C9455120C94D0290C94A9290C947D12AF
:100010000C947C1C0C94721C0C947D120C947D121C
:100020000C947D120C947D120C947D120C947D1214
:100030000C947D120C947D120C947D120C947D1204
:100040000C9463290C947D120C949E280C947828AF
:100050000C947D120C947D120C947D120C947D12E4
:100060000C94F0230C947D12AB19C319411A811A18
:10007000B31A231B661B0C07FFE803AA9AA9AA98C8
:1000800003FFE04010FFFBFF0000000000FFFBFF4C
:10009000FBFF000000FFFDFFFDFFFDFF00FFFDFF78
:1000A000FDFFFDFFFCFFFDFFFDFFFDFFFFFFFDFF6F
:1000B000FDFFFDFFFFFFFEFFFEFFFEFFFFFFFEFF58
:1000C000FEFFFEFFFFFFFEFFFEFFFEFFFFFFFF7FC5
:1000D000FF7FFF7FFFFFFF7FFF7FFF7FFFFFFF7F30
:1000E000FF7FFF7FFFFFFF7FFF7FFF7FFFFFFFBFE0
:1000F000FFBFFFBFFFFFFFBFFFBFFFBFFFFFFFBF90
:10010000FFBFFFBFFF40100000000000FFDFFF0047
:100110000000FFDFFFDFFF00FFBFFFBFFFBFFF3FAC
:10012000FFBFFFBFFFBFFFFFFFBFFFBFFFBFFFFF5F
:10013000FFBFFFBFFFBFFFFFFF7FFF7FFF7FFFFF0F
:10014000FF7FFF7FFF7FFFFFFF7FFF7FFF7FFFFFBF
:10015000FEFFFEFFFEFFFFFFFEFFFEFFFEFFFFFFB5
:10016000FEFFFEFFFEFFFFFFFEFFFEFFFEFFFFFFA5
:10017000FDFFFDFFFDFFFFFFFDFFFDFFFDFFFFFF9B
:10018000FDFFFDFFFDFFFF262600000000FC000034
:100190000007F00000003FC0000001FF0000000F5A
:1001A000FC0000007FF0000003FFC000001FFF0004
:1001B0000000FEFC000007F3F000003F8FC00001CC
:1001C000FC3F00000FE0FC00000003F00000000F07
:1001D000C00000003F00000000FC00000003F00031
:1001E00000000FC00000003F00000000FC00000005
:1001F00003F00000000FC00000003F00000000FC02
:1002000000000003F00000000FC00000003F0000ED
:100210000000FC00000003F00000000FC000000020
:100220003F00000000FC00000003F00000000FC0D1
:100230000000003F00000000FC00000003F0262644
:100240000FFFFFFFC07FFFFFFF83FFFFFFFF1FFFC9
:10025000FFFFFEFFFFFFFFFFFFFFFFFFFFC00000EC
:100260003FFF000001FFFC00000FFFF000007FFFD8
:10027000C00007FFFF00003FFFFC0001FEFFF00091
:100280000FF3FFC000FF8FFF0007F83FFC003FC0E7
:10029000FFF001FE03FFC00FF00FFF00FF803FFCE7
:1002A00007F800FFF03FC003FFC1FE000FFF0FF093
:1002B000003FFCFF8000FFF7F80003FFFFC0000FC6
:1002C000FFFE00003FFFF00000FFFF800003FFF88B
:1002D00000000FFFC000003FFFFFFFFFFFFFFFFF19
:1002E000FFF7FFFFFFFF8FFFFFFFFC1FFFFFFFE098
:1002F0003FFFFFFF002626000000000000000FC0A7
:100300000000007F00000003FC0000001FF0000060
:1003100000FFC0000007FF0000003FFC000001FFDD
:10032000F000000FEFC000007F3F000003F8FC006A
:10033000001FC3F00000FE0FC00000003F000000DF
:1003400000FC00000003F00000000FC00000003FB0
:1003500000000000FC00000003F00000000FC000DF
:1003600000003F00000000FC00000003F00000005F
:100370000FC00000003F00000000FC00000003F080
:100380000000000FC00000003F00000000FC000063
:100390000003F00000000FC00000003F000000005C
:1003A000FC00000003F00000000FC00026260FFF35
:1003B000FFFFC07FFFFFFF83FFFFFFFF1FFFFFFF68
:1003C000FEFFFFFFFFFFFFFFFFFFFFC000000FFF6B
:1003D0000000003FFC000000FC00000003F00000F3
:1003E000000FC00000003F00000000FC0000000300
:1003F000F00000000FC00000003F0FFFFFFFFC7F78
:10040000FFFFFFF3FFFFFFFF9FFFFFFFFEFFFFFF69
:10041000FFF3FFFFFFFF0FC00000003F00000000E0
:10042000FC00000003F00000000FC00000003F00CF
:10043000000000FC00000003F00000000FC00000FE
:10044000003F00000000FFFFFFFFFFFFFFFFFFFF77
:10045000FFFFFFFFFFFFFFFFFFFFFFFFFFFFFFFFAC
:10046000FFFFF026260FFFFFFF807FFFFFFF03FF48
:10047000FFFFFE1FFFFFFFFCFFFFFFFFFBFFFFFF74
:10048000FFEFC000001FBF0000007EFC000001F86D
:1004900000000007E00000001F800000007E000058
:1004A0000001F800000007E00000001F80000000CD
:1004B0007E01FFFFFFF807FFFFFFC01FFFFFFF8068
:1004C0007FFFFFFF01FFFFFFFC07FFFFFFF00000C2
:1004D0000007C00000001F000000007C00000001B9
:1004E000F000000007C00000001F000000007C00BA
:1004F000000001FFC0000007FF0000001FFFFFFF1A
:10050000FFFFFFFFFFFFF7FFFFFFFFDFFFFFFFFE24
:100510003FFFFFFFF03FFFFFFF8026260000007F28
:1005200000000003FC0000001FF0000000FFC000FE
:100530000007FF0000003FFC000001FFF000000F7B
:10054000FFC00000FFFF000007FEFC00003FF3F0CB
:100550000001FF8FC0000FF83F00007FC0FC0003C8
:10056000FE03F0001FF00FC001FF003F000FF80076
:10057000FC007FC003F003FC000FC01FE0003F0041
:10058000FF0000FC07FFFFFFFFDFFFFFFFFF7FFF14
:10059000FFFFFDFFFFFFFFF7FFFFFFFFDFFFFFFF95
:1005A000FF0000003F00000000FC00000003F0001E
:1005B00000000FC00000003F00000000FC00000031
:1005C00003F00000000FC00000003F00000000FC2E
:1005D000002626FFFFFFFFFFFFFFFFFFFFFFFFFFDC
:1005E000FFFFFFFFFFFFFFFFFFFFFFFFFFFFFFFF1B
:1005F000C00000003F00000000FC00000003F0000D
:1006000000000FC00000003F00000000FC000000E0
:1006100003F00000000FC00000003FFFFFFFF0FFED
:10062000FFFFFFE3FFFFFFFFCFFFFFFFFFBFFFFF66
:10063000FFFFFFFFFFFFFC00000003F00000000FC2
:10064000C00000003F00000000FC00000003F000BC
:1006500000000FC00000003F00000000FFF000009D
:1006600003FFC000000FFF0000003FFFFFFFFFFF80
:10067000FFFFFFFFF7FFFFFFFF8FFFFFFFFC1FFFE5
:10068000FFFFE03FFFFFFF0026260FFFFFFF007F79
:10069000FFFFFC03FFFFFFF01FFFFFFFC0FFFFFF97
:1006A000FF03FFFFFFFC0FC00000003F0000000041
:1006B000FC00000003F00000000FC00000003F003D
:1006C000000000FC00000003F00000000FC000006C
:1006D000003FFFFFFFF0FFFFFFFFE3FFFFFFFFCF44
:1006E000FFFFFFFFBFFFFFFFFFFFFFFFFFFFF00068
:1006F0000003FFC000000FFF0000003FFC000000EF
:10070000FFF0000003FFC000000FFF0000003FFCEF
:10071000000000FFF0000003FFC000000FFF00001A
:10072000003FFFFFFFFFFFFFFFFFFFF7FFFFFFFFA0
:100730008FFFFFFFFC1FFFFFFFE03FFFFFFF0026D3
:100740002603FFFFFF800FFFFFFF803FFFFFFF003B
:10075000FFFFFFFE03FFFFFFFC0FFFFFFFF00000A6
:10076000000FC00000003F00000000FC000000037C
:10077000F00000000FC00000003F00000000FC007F
:10078000000003F00000000FC00000003F00000068
:1007900000FC00000003F00000000FC00000003F5C
:1007A00000000000FC00000003F00000000FC0008B
:1007B00000003F00000000FC00000003F00000000B
:1007C0000FC00000003F00000000FC00000003F02C
:1007D0000000000FC00000003F00000000FC00000F
:1007E0000003F00000000FC00000003F0000000008
:1007F000FC00000003F026260FFFFFFFC07FFFFF75
:10080000FF83FFFFFFFF1FFFFFFFFEFFFFFFFFFF55
:10081000FFFFFFFFFFC000000FFF0000003FFC00D4
:100820000000FFF0000003FFC000000FFF00000009
:100830003FFC000000FFF0000003FFC000000FFFBE
:100840000000003FFFFFFFFFFDFFFFFFFFE7FFFF8F
:10085000FFFF9FFFFFFFFEFFFFFFFFFFF000000312
:10086000FFC000000FFF0000003FFC000000FFF091
:10087000000003FFC000000FFF0000003FFC00006D
:1008800000FFF0000003FFC000000FFF0000003F6A
:10089000FFFFFFFFFFFFFFFFFFF7FFFFFFFF8FFFE0
:1008A000FFFFFC1FFFFFFFE03FFFFFFF0026260FBB
:1008B000FFFFFFC07FFFFFFF83FFFFFFFF1FFFFF63
:1008C000FFFEFFFFFFFFFFFFFFFFFFFFC000000F66
:1008D000FF0000003FFC000000FFF0000003FFC02D
:1008E00000000FFF0000003FFC000000FFF00000D0
:1008F00003FFC000000FFF0000003FFFFFFFFFFFEE
:10090000FFFFFFFFF7FFFFFFFFDFFFFFFFFF3FFFDF
:10091000FFFFFC3FFFFFFFF00000000FC0000000E2
:100920003F00000000FC00000003F00000000FC0CA
:100930000000003F00000000FC00000003F0000089
:10094000000FC00000003FFFFFFFFFFFFFFFFFFFA2
:10095000F7FFFFFFFF8FFFFFFFFC1FFFFFFFE03FE1
:10096000FFFFFF002626000000000000000000003E
:100970000000000000000000000000000000000077
:100980000000000000000000000000000000000067
:100990000000000000000000000000000000000057
:1009A0000000000000000000000000000000000047
:1009B000000000FFFFFC0003FFFFF0000FFFFFC07F
:1009C000003FFFFF0000FFFFFC0003FFFFF00000FF
:1009D0000000000000000000000000000000000017
:1009E0000000000000000000000000000000000007
:1009F00000000000000000000000000000000000F7
:100A000000000000000000000000000000000000E6
:100A100000000000000000000000002626000FC0BB
:100A20000000007F00000003FC0000001FF0000039
:100A300000FFC0000007FF0000003FFC000001FFB6
:100A4000F000000FEFC000007F3F000003F8FC0043
:100A5000001FC3F00000FE0FC00000003F000000B8
:100A600000FC00000003F00000000FC00000003F89
:100A700000000000FC00000003F00000000FC000B8
:100A800000003F00000000FC00000003F000000038
:100A90000FC00000003F00000000FC00000003F059
:100AA0000000000FC00000003F00000000FC00003C
:100AB0000003F00000000FC00000003F0000000035
:100AC000FC00000003F00000000FC00000003F0029
:100AD0000000303007FFFFFFFFF00FFFFFFFFFF8C0
:100AE0001FFFFFFFFFFC3FFFFFFFFFFE3FFFFFFF7A
:100AF000FFFE7FFFFFFFFFFF7F00000003FF7F007F
:100B0000000007FF7F0000000FFF7F0000001FFFB5
:100B10007F0000003FFF7F000000FFFF7F0000011B
:100B2000FFFF7F000003FFFF7F000007FF7F7F00C4
:100B3000000FFE7F7F00001FFC7F7F00007FF07FA3
:100B40007F0000FFE07F7F0001FFC07F7F0003FF89
:100B5000807F7F0007FF007F7F000FFE007F7F0008
:100B60003FFC007F7F007FF0007F7F00FFE0007F81
:100B70007F01FFC0007F7F03FF80007F7F07FF00B2
:100B8000007F7F1FFE00007F7F3FF800007F7F7F98
:100B9000F000007F7FFFE000007F7FFFC000007F4C
:100BA0007FFF8000007F7FFF0000007F7FFC000050
:100BB000007F7FF80000007F7FF00000007F7FE073
:100BC0000000007F7FFFFFFFFFFF3FFFFFFFFFFEF3
:100BD0003FFFFFFFFFFE1FFFFFFFFFFC0FFFFFFFB9
:100BE000FFF807FFFFFFFFF001FFFFFFFFC000005E
:100BF0000000000030300000000001FF0000000095
:100C000003FF0000000003FF0000000007FF0000DA
:100C100000000FFF000000001FFF000000003FFF6A
:100C2000000000007FFF000000007FFF00000000C8
:100C3000FFFF00000001FF7F00000003FE7F0000B7
:100C40000007FE7F0000000FFC7F0000000FF87F10
:100C50000000001FF07F00000000007F0000000087
:100C6000007F00000000007F00000000007F000007
:100C70000000007F00000000007F00000000007FF7
:100C800000000000007F00000000007F0000000066
:100C9000007F00000000007F00000000007F0000D7
:100CA0000000007F00000000007F00000000007FC7
:100CB00000000000007F00000000007F0000000036
:100CC000007F00000000007F00000000007F0000A7
:100CD0000000007F00000000007F00000000007F97
:100CE00000000000007F00000000007F0000000006
:100CF000007F00000000007F00000000007F000077
:100D00000000007F00000000007F00000000007F66
:100D100000000000007F303001FFFFFFFFC007FF31
:100D2000FFFFFFF01FFFFFFFFFF81FFFFFFFFFFCAC
:100D30003FFFFFFFFFFE3FFFFFFFFFFE7FFFFFFFC5
:100D4000FFFF7F000000007F7F000000007F7F002A
:100D50000000007F7F000000007F00000000007F97
:100D600000000000007F00000000007F0000000085
:100D7000007F00000000007F00000000007F0000F6
:100D80000000007F00000000007F00000000007FE6
:100D900000000000007F01FFFFFFFFFF07FFFFFFD4
:100DA000FFFE0FFFFFFFFFFE1FFFFFFFFFFC3FFFE8
:100DB000FFFFFFF83FFFFFFFFFF07FFFFFFFFFC0D8
:100DC0007F00000000007F00000000007F000000A6
:100DD00000007F00000000007F00000000007F0096
:100DE000000000007F00000000007F000000000005
:100DF0007F00000000007F00000000007F00000076
:100E000000007F00000000007F00000000007FFF66
:100E1000FFFFFFFF7FFFFFFFFFFF7FFFFFFFFFFFE2
:100E20007FFFFFFFFFFF7FFFFFFFFFFF7FFFFFFF52
:100E3000FFFF7FFFFFFFFFFF303001FFFFFFFF00DD
:100E400007FFFFFFFFC01FFFFFFFFFE01FFFFFFFC8
:100E5000FFF03FFFFFFFFFF83FFFFFFFFFF87FFFBF
:100E6000FFFFFFFC7F00000001FC7F00000001FC91
:100E70007F00000001FC7F00000001FC000000007A
:100E800001FC0000000001FC0000000001FC00006B
:100E9000000001FC0000000001FC0000000001FC5B
:100EA0000000000001FC0000000001FC0000000048
:100EB00001FC007FFFFFFFFC007FFFFFFFF8007FCA
:100EC000FFFFFFF8007FFFFFFFFC007FFFFFFFFE3B
:100ED000007FFFFFFFFE007FFFFFFFFF000000001D
:100EE000007F00000000007F00000000007F000085
:100EF0000000007F00000000007F00000000007F75
:100F000000000000007F00000000007F00000000E3
:100F1000007F00000000007F7F000000007F7F0056
:100F20000000007F7F000000007F7F800000007FC6
:100F30007FFFFFFFFFFF3FFFFFFFFFFE3FFFFFFFC2
:100F4000FFFE1FFFFFFFFFFC0FFFFFFFFFF807FF84
:100F5000FFFFFFF001FFFFFFFFC030300000000087
:100F60007F8000000000FF8000000001FF80000083
:100F70000003FF8000000007FF800000000FFF80DB
:100F80000000001FFF800000003FFF800000007F86
:100F9000FF80000000FFFF80000001FFFF800000D5
:100FA00007FFFF8000000FFFBF8000001FFE3F8093
:100FB00000003FFC3F8000007FF83F800000FFF012
:100FC0003F800001FFE03F800003FF803F8000077B
:100FD000FF003F80000FFE003F80001FFC003F80AD
:100FE000007FF8003F8000FFF0003F8001FFC0005D
:100FF0003F8003FF80003F8007FF00003F800FFE1F
:1010000000003F801FFC00003F801FFFFFFFFFFF2D
:101010001FFFFFFFFFFF1FFFFFFFFFFF1FFFFFFF80
:10102000FFFF1FFFFFFFFFFF1FFFFFFFFFFF1FFF70
:10103000FFFFFFFF000000003F80000000003F8036
:10104000000000003F80000000003F800000000022
:101050003F80000000003F80000000003F80000053
:1010600000003F80000000003F80000000003F8043
:10107000000000003F80000000003F8030307FFF14
:10108000FFFFFFFF7FFFFFFFFFFF7FFFFFFFFFFF70
:101090007FFFFFFFFFFF7FFFFFFFFFFF7FFFFFFFE0
:1010A000FFFF7FFFFFFFFFFF7F00000000007F00CA
:1010B000000000007F00000000007F000000000032
:1010C0007F00000000007F00000000007F000000A3
:1010D00000007F00000000007F00000000007F0093
:1010E000000000007F00000000007F000000000002
:1010F0007F00000000007FFFFFFFFFC07FFFFFFFBA
:10110000FFF07FFFFFFFFFF87FFFFFFFFFFC7FFF88
:10111000FFFFFFFE7FFFFFFFFFFE7FFFFFFFFFFFE1
:1011200000000000007F00000000007F00000000C1
:10113000007F00000000007F00000000007F000032
:101140000000007F00000000007F00000000007F22
:1011500000000000007F00000000007F7F00000012
:10116000007F7F000000007F7F000000007F7F0085
:101170000000007F7FFFFFFFFFFF3FFFFFFFFFFE3D
:101180003FFFFFFFFFFE1FFFFFFFFFFC1FFFFFFFF3
:10119000FFF807FFFFFFFFF001FFFFFFFFC0303048
:1011A00001FFFFFFFF0007FFFFFFFF000FFFFFFF33
:1011B000FF001FFFFFFFFF003FFFFFFFFF003FFF9C
:1011C000FFFFFF007FFFFFFFFF007F000000000028
:1011D0007F00000000007F00000000007F00000092
:1011E00000007F00000000007F00000000007F0082
:1011F000000000007F00000000007F0000000000F1
:101200007F00000000007F00000000007F00000061
:1012100000007F00000000007FFFFFFFFFC07FFF96
:10122000FFFFFFF07FFFFFFFFFF87FFFFFFFFFFCE7
:101230007FFFFFFFFFFE7FFFFFFFFFFE7FFFFFFF40
:10124000FFFF7F000000007F7F000000007F7F0025
:101250000000007F7F000000007F7F000000007F13
:101260007F000000007F7F000000007F7F00000003
:10127000007F7F000000007F7F000000007F7F0074
:101280000000007F7F000000007F7F000000007FE3
:101290007F000000007F7FFFFFFFFFFF3FFFFFFF9A
:1012A000FFFE3FFFFFFFFFFE1FFFFFFFFFFC0FFFE3
:1012B000FFFFFFF807FFFFFFFFF001FFFFFFFFC089
:1012C0003030007FFFFFFFC0007FFFFFFFF0007F97
:1012D000FFFFFFF8007FFFFFFFFC007FFFFFFFFE27
:1012E000007FFFFFFFFE007FFFFFFFFF0000000009
:1012F000007F00000000007F00000000007F000071
:101300000000007F00000000007F00000000007F60
:1013100000000000007F00000000007F00000000CF
:10132000007F00000000007F00000000007F000040
:101330000000007F00000000007F00000000007F30
:1013400000000000007F00000000007F000000009F
:10135000007F00000000007F00000000007F000010
:101360000000007F00000000007F00000000007F00
:1013700000000000007F00000000007F000000006F
:10138000007F00000000007F00000000007F0000E0
:101390000000007F00000000007F00000000007FD0
:1013A00000000000007F00000000007F000000003F
:1013B000007F00000000007F00000000007F0000B0
:1013C0000000007F00000000007F00000000007FA0
:1013D00000000000007F00000000007F000000000F
:1013E000007F303001FFFFFFFFC007FFFFFFFFF06E
:1013F0000FFFFFFFFFF81FFFFFFFFFFC3FFFFFFF97
:10140000FFFE3FFFFFFFFFFE7FFFFFFFFFFF7F00AD
:101410000000007F7F000000007F7F000000007F51
:101420007F000000007F7F000000007F7F00000041
:10143000007F7F000000007F7F000000007F7F00B2
:101440000000007F7F000000007F7F000000007F21
:101450007F000000007F7F000000007F7F00000011
:10146000007F3FFFFFFFFFFE3FFFFFFFFFFE3FFF4D
:10147000FFFFFFFE3FFFFFFFFFFE3FFFFFFFFFFEFF
:101480007FFFFFFFFFFF7F000000007F7F00000065
:10149000007F7F000000007F7F000000007F7F0052
:1014A0000000007F7F000000007F7F000000007FC1
:1014B0007F000000007F7F000000007F7F000000B1
:1014C000007F7F000000007F7F000000007F7F0022
:1014D0000000007F7F000000007F7FFFFFFFFFFF15
:1014E0003FFFFFFFFFFE3FFFFFFFFFFE1FFFFFFF6E
:1014F000FFFC0FFFFFFFFFF807FFFFFFFFF001FFFB
:10150000FFFFFFC0303003FFFFFFFFC00FFFFFFFF3
:10151000FFF01FFFFFFFFFF83FFFFFFFFFFC7FFF14
:10152000FFFFFFFE7FFFFFFFFFFEFFFFFFFFFFFF4D
:10153000FE000000007FFE000000007FFE000000B3
:10154000007FFE000000007FFE000000007FFE0024
:101550000000007FFE000000007FFE000000007F12
:10156000FE000000007FFE000000007FFE00000083
:10157000007FFE000000007FFE000000007FFE00F4
:101580000000007FFFFFFFFFFFFF7FFFFFFFFFFF68
:101590007FFFFFFFFFFF3FFFFFFFFFFF1FFFFFFF7B
:1015A000FFFF0FFFFFFFFFFF03FFFFFFFFFF000035
:1015B0000000007F00000000007F00000000007FAE
:1015C00000000000007F00000000007F000000001D
:1015D000007F00000000007F00000000007F00008E
:1015E0000000007F00000000007F00000000007F7E
:1015F00000000000007F00000000007FFFFFFFFFF1
:10160000FFFFFFFFFFFFFFFE7FFFFFFFFFFE3FFF2C
:10161000FFFFFFFC3FFFFFFFFFF80FFFFFFFFFF0A3
:1016200003FFFFFFFFC0303000000000000000009B
:1016300000000000000000000000000000000000AA
:10164000000000000000000000000000000000009A
:10165000000000000000000000000000000000008A
:10166000000000000000000000000000000000007A
:10167000000000000000000000000000000000006A
:10168000000000000000000000000000000000005A
:10169000000000000000000000000000000000004A
:1016A000000000000000001FFFFFF800001FFFFF08
:1016B000F800001FFFFFF800001FFFFFF800001FE9
:1016C000FFFFF800001FFFFFF800001FFFFFF800FA
:1016D000000000000000000000000000000000000A
:1016E00000000000000000000000000000000000FA
:1016F00000000000000000000000000000000000EA
:1017000000000000000000000000000000000000D9
:1017100000000000000000000000000000000000C9
:1017200000000000000000000000000000000000B9
:1017300000000000000000000000000000000000A9
:1017400000000000000000003030000FF800000032
:10175000001FF8000000001FF8000000003FF80024
:101760000000007FF800000000FFF800000001FF0B
:10177000F800000003FFF800000003FFF80000007D
:1017800007FFF80000000FFBF80000001FF3F8004F
:1017900000003FF3F80000007FE3F80000007FC383
:1017A000F8000000FF83F80000000003F8000000CC
:1017B0000003F80000000003F80000000003F80038
:1017C00000000003F80000000003F8000000000320
:1017D000F80000000003F80000000003F80000001B
:1017E0000003F80000000003F80000000003F80008
:1017F00000000003F80000000003F80000000003F0
:10180000F80000000003F80000000003F8000000EA
:101810000003F80000000003F80000000003F800D7
:1018200000000003F80000000003F80000000003BF
:10183000F80000000003F80000000003F8000000BA
:101840000003F80000000003F80000000003F800A7
:1018500000000003F80000000003F800000000038F
:10186000F80000000003F8000000446576656C6F26
:10187000706564206279204D617274696E0A4872E5
:1018800065686F722028632920323031380A0A5087
:10189000726573732043454E54455220746F206324
:1018A0006C6F73650078302E310A0004E010021C62
:1018B00007123732292D29252B3900010310E11099
:1018C000031D07062E2C292D2E2E373F0000021057
:1018D00013800A298064022A040000007F2B040080
:1018E00000007F0F0180961180FFB103012C2DB203
:1018F00003012C2DB306012C2D012C2DB40107C0A2
:1019000003A20284C101C5C2020A00C3028A2AC41A
:10191000028AEEC5010E20003601C83A0105646452
:1019200000000000000000000000000000000000B7
:101930000000000000000000000000000180000026
:101940000018000000000000001E000000078000DA
:10195000000000000001F0000000F800000000009E
:1019600000001FC000003F8000000000000001FFD9
:1019700000000FF8000000000000001FF80003FF47
:101980008000000000000001FFE0007FF800000080
:10199000000000001FFF801FFF800000000000000B
:1019A00001FFFE07FFF8000000000000001FFFF02D
:1019B000FFFF8000000000000001FFFFFFFFF800B4
:1019C0000000000000001FFFFFFFFF80000000007C
:1019D000000001FFFFFFFFF8000000000000001FF3
:1019E000FFFFFFFF8000000000000001FFFFFFFF7E
:1019F000F80000000000000007FFFFFFFE000000ED
:101A000000000000001FFFFFFF800000000000003A
:101A10000000FFFFFFF0000000000000000003FFD7
:101A2000FFFC0000000000000000000FFFFF0000AE
:101A300000000000001000003FFFC0000080000018
:101A40000001800001FFF8000018000000001E00E7
:101A50000007FE0000078000000001F800001F8062
:101A60000001F8000000001FC00000F000007F80AF
:101A700000000001FF00000000000FF8000000005F
:101A80001FFC0000000003FF8000000001FFF000C9
:101A9000000000FFF8000000001FFF800000001F92
:101AA000FF8000000001FFFE00000007FFF80000BB
:101AB00000001FFFF8000001FFFF8000000001FF91
:101AC000FFE000007FFFF8000000001FFFFF0000A4
:101AD0000FFFFF8000000001FFFFFC0003FFFFF885
:101AE000000000001FFFFFF000FFFFFF800000006C
:101AF00000FFFFFFC03FFFFFF00000000007FFFFF7
:101B0000FE07FFFFFE00000000001FFFFFF9FFFFC0
:101B1000FF8000000000007FFFFFFFFFFFE00000EC
:101B200000000003FFFFFFFFFFF8000000000000BF
:101B30000FFFFFFFFFFF000000001000003FFFFF4E
:101B4000FFFFC000008001C00000FFFFFFFFF000AA
:101B50000038001E000007FFFFFFFE0000078001A5
:101B6000F800001FFFFFFF800001F8001FE00000E9
:101B70007FFFFFE000007F8001FF800001FFFFF892
:101B800000001FF8001FFC00000FFFFF000003FF14
:101B90008001FFF000003FFFC00000FFF8001FFFC2
:101BA000C00000FFF000003FFF8001FFFF000003C6
:101BB000FC00000FFFF8001FFFF800001F8000016D
:101BC000FFFF8001FFFFE000006000007FFFF800E2
:101BD0001FFFFF80000000001FFFFF8001FFFFFECE
:101BE0000000000007FFFFF8001FFFFFF0000000EB
:101BF00000FFFFFF8000FFFFFFC00000003FFFFF6E
:101C0000F00003FFFFFF0000000FFFFFFC00001FBC
:101C1000FFFFFC000003FFFFFF0000007FFFFFE06D
:101C200000007FFFFFE0000001FFFFFF80001FFFBB
:101C3000FFF800000007FFFFFE0007FFFFFE0000A7
:101C400000003FFFFFF000FFFFFFC000000000FFAB
:101C5000FFFFC03FFFFFF00000000003FFFFFF0F8A
:101C6000FFFFFC00000000000FFFFFFFFFFFFF0071
:101C700000000000007FFFFFFFFFFFE0000000000A
:101C80000001FFFFFFFFFFF800000000000007FF5A
:101C9000FFFFFFFE000000000000001FFFFFFFFF2E
:101CA0008000000000000000FFFFFFFFF0000000C8
:101CB0000000000003FFFFFFFC0000000000000028
:101CC000000FFFFFFF0000000000000000007FFF8A
:101CD000FFC0000000000000000001FFFFF800004E
:101CE0000000000000000007FFFE000000000000F0
:101CF000000000001FFF8000000000000000000046
:101D000000FFF00000000000000000000003FC00E5
:101D1000000000000000000000000F0000000000B4
:101D200000000000000000000000000000000000B3
:101D300000000000000000000000000000000000A3
:101D400000000000000000FFF3FF0FFEC036018F0F
:101D5000FC70180FFF7FF9FFEC033031FFE70180C3
:101D60000606019800C033871806781800606019CD
:101D7000800C031CE18066C1800606019800C0301B
:101D8000CC1806661800606019800FFF0781806616
:101D900031800607FF9800FFF0781806631800608E
:101DA0007FF9800C03030180661980060601980004
:101DB000C03030180660D800606019800C03030141
:101DC000806607800606019FFEC030301FFE603827
:101DD00000606018FFEC030300FFC60380000000F2
:101DE00000000000000000000000000000000000F3
:101DF00000000000000000000000000000000000E3
:101E00000000A5186A18B81E0B0B04088882070189
:101E100091BAC7C0702088881000416D6D6F206333
:101E20006F6C6F722028312F332900416D6D6F2048
:101E3000636F6C6F722028322F332900416D6D6FF4
:101E400020636F6C6F72202846756C6C29004261AC
:101E5000636B67726F756E6420636F6C6F72005591
:101E60004920436F6C6F7200496E766572746564C9
:101E7000004D616E75616C206F6E6C7900417574F8
:101E80006F206F6E6C79004175746F20414E442055
:101E90004D616E75616C004175746F204F52204D1D
:101EA000616E75616C00363A00353A00343A0033A1
:101EB0003A00323A00313A003C3C204261636B0008
:101EC00053797374656D20496E666F726D617469C4
:101ED0006F6E0053617665206272696768746E6523
:101EE00073730052656C6F61642062656861766926
:101EF0006F720055492053657474696E677300539F
:101F000065742074696D65004D616E616765205070
:101F1000726573657473003C3C20536176652026BE
:101F200020457869740000000008000201000003E9
:101F30000407000000000000000000000000250071
:101F400028002B0000000000240027002A000404C1
:101F50000404040404040202020202020303030351
:101F6000030301020408102040800102040810202D
:101F7000010204081020B81E5F1E4E1E3C1E2B1EC0
:101F80001A1E971E871E7D1E711E681EB81EB51E66
:101F9000B21EAF1EAC1EA91EA61E171F081FFF1ED5
:101FA000F31EE31ED31EC01E00000000003E5B4F68
:101FB0005B3E3E6B4F6B3E1C3E7C3E1C183C7E3CA9
:101FC000181C577D571C1C5E7F5E1C00183C1800B7
:101FD000FFE7C3E7FF0018241800FFE7DBE7FF3047
:101FE000483A060E2629792926407F050507407FB5
:101FF00005253F5A3CE73C5A7F3E1C1C08081C1C28
:102000003E7F14227F22145F5F005F5F06097F011D
:102010007F006689956A606060606094A2FFA29408
:1020200008047E040810207E201008082A1C0808D6
:102030001C2A08081E101010100C1E0C1E0C303824
:102040003E3830060E3E0E06000000000000005F25
:1020500000000007000700147F147F14242A7F2A41
:102060001223130864623649562050000807030003
:10207000001C2241000041221C002A1C7F1C2A084F
:10208000083E0808008070300008080808080000B2
:1020900060600020100804023E5149453E00427F26
:1020A000400072494949462141494D331814127F75
:1020B0001027454545393C4A494931412111090715
:1020C0003649494936464949291E00001400000096
:1020D0004034000000081422411414141414004168
:1020E00022140802015909063E415D594E7C121125
:1020F000127C7F494949363E414141227F4141415D
:102100003E7F494949417F090909013E41415173D7
:102110007F0808087F00417F41002040413F017F48
:10212000081422417F404040407F021C027F7F0410
:1021300008107F3E4141413E7F090909063E415159
:10214000215E7F09192946264949493203017F0149
:10215000033F4040403F1F2040201F3F4038403F4A
:10216000631408146303047804036159494D430060
:102170007F4141410204081020004141417F040297
:10218000010204404040404000030708002054542E
:1021900078407F284444383844444428384444280C
:1021A0007F385454541800087E090218A4A49C785F
:1021B0007F0804047800447D40002040403D007FBB
:1021C0001028440000417F40007C047804787C089B
:1021D0000404783844444438FC182424181824246F
:1021E00018FC7C08040408485454542404043F4454
:1021F000243C4040207C1C2040201C3C4030403C83
:1022000044281028444C9090907C4464544C4400E2
:102210000836410000007700000041360800020146
:102220000204023C2623263C1EA1A161123A404032
:10223000207A3854545559215555794122545478AF
:1022400042215554784020545579400C1E52721248
:1022500039555555593954545459395554545800D1
:1022600000457C410002457D420001457C407D12D5
:1022700011127DF0282528F07C5455450020545437
:102280007C547C0A097F4932494949323A444444E2
:102290003A324A4848303A4141217A3A424020781D
:1022A000009DA0A07D3D4242423D3D4040403D3C1E
:1022B00024FF2424487E4943662B2FFC2F2BFF0943
:1022C00029F620C0887E0903205454794100004437
:1022D0007D413048484A32384040227A007A0A0A22
:1022E000727D0D19317D2629292F28262929292695
:1022F00030484D4020380808080808080808382FDA
:1023000010C8ACBA2F102834FA00007B0000081463
:102310002A142222142A14085500550055AA55AA39
:1023200055AAFF55FF55FF000000FF00101010FFD9
:1023300000141414FF001010FF00FF1010F010F034
:10234000141414FC001414F700FF0000FF00FF1425
:1023500014F404FC141417101F10101F101F141471
:10236000141F00101010F0000000001F10101010BB
:102370001F10101010F010000000FF1010101010AF
:1023800010101010FF10000000FF140000FF00FFED
:1023900000001F10170000FC04F414141710171489
:1023A00014F404F40000FF00F714141414141414AB
:1023B000F700F7141414171410101F101F1414141E
:1023C000F4141010F010F000001F101F0000001F88
:1023D00014000000FC140000F010F01010FF10FFBB
:1023E000141414FF141010101F00000000F010FF50
:1023F000FFFFFFFFF0F0F0F0F0FFFFFF0000000034
:1024000000FFFF0F0F0F0F0F3844443844FC4A4AB7
:102410004A347E02020606027E027E02635549416C
:10242000633844443C04407E201E2006027E0202A3
:1024300099A5E7A5991C2A492A1C4C7201724C30B7
:102440004A4D4D303048784830BC625A463D3E498E
:102450004949007E0101017E2A2A2A2A2A44445F32
:10246000444440514A444040444A51400000FF0126
:1024700003E080FF000008086B6B08361236243634
:10248000060F090F06000018180000001010003099
:1024900040FF0101001F01011E00191D1712003C21
:1024A0003C3C3C0000000000DE3611241FBECFEF94
:1024B000D8E0DEBFCDBF11E0A0E0B1E0E2E6F8E792
:1024C00002C005900D92AE3DB107D9F724E0AEED04
:1024D000B1E001C01D92A13BB207E1F712E1C5E5F1
:1024E000D2E104C02197FE010E94103CC435D107FF
:1024F000C9F70E94D1300C942F3C0C940000F89442
:102500004B9913C08091DE01811111C08091E501CA
:102510009091E60101979093E6018093E50181E0B7
:10252000809308028093DE0102C01092DE0178944D
:10253000089508950895EF92FF920F931F9340918D
:10254000E7012091E3013091E401423069F043302A
:1025500021F04130B1F4207E0EC03770982F8827CB
:10256000990F990F990F07C02F71387F45E0880F99
:10257000991F4A95E1F7822B932B9093E401809366
:10258000E301E090E301F090E40108E110E028E1CC
:1025900030E040E150E068E570E088E594E00E94BA
:1025A000C2221F910F91FF90EF9008958093E70151
:1025B000813061F090F0823031F0833009F049C011
:1025C00020EB33E005C028E933E002C020E833E027
:1025D00030931F0220931E023CC0E091E101F09174
:1025E000E2018091E3019091E4019183808385E091
:1025F0008093070260912A0470912B0488E594E08F
:102600000E94FB1C809128049091290490936B04F4
:1026100080936A04909369048093680488E290E050
:10262000909365048093640410926704109266048A
:1026300083E891E00E94602A68E070E080ED93E01A
:102640000E94652A80ED93E090931F0280931E0202
:10265000089520912A0430912B0440912804509130
:102660002904509369044093680430936B042093C9
:102670006A0490E0019724E0880F991F2A95E1F7FA
:102680002BE230E0A901481B590B5093650440939D
:10269000640482E790E090936704809366048EE57B
:1026A0000C94182AEF92FF920F931F93CF93DF930E
:1026B000EC018091140490E0FC01EE0FFF1FE05D3F
:1026C000FB4FD183C08320E134E030931F0220937D
:1026D0001E02E0902A04F0902B0440911E045091B9
:1026E0001F042091200430912104240F351F289FBE
:1026F000B001299F700D389F700D112440911A046C
:1027000050911B044E5F5F4F460F571F0AE010E0C9
:102710002AE030E060E570E088E594E00E94CF1E9A
:10272000CD2B61F520911E0430911F04809120046F
:1027300090912104280F391F80911404829FA001D9
:10274000839F500D112480911A0490911B040296CE
:10275000840F951F2AE530E03093650420936404CC
:1027600090936704809366048FE891E0DF91CF91A6
:102770001F910F91FF90EF900C94602ADF91CF9101
:102780001F910F91FF90EF900895A8E2B4E0129688
:102790002D913C911397E8E5F4E04D915C91518BBC
:1027A000408B338B228BA0E1B4E01E964D915C915F
:1027B0001F9750962D913C915197420F531F14969D
:1027C0002C911497249FB001259F700D11241A9607
:1027D0002D913C911B972E5F3F4F260F371F4AE5E7
:1027E00050E05587448737872687BC0180E090E01A
:1027F0004AE00E941D2A80E20C94182A0F931F932E
:10280000CF93DF93E0E7F3E0F0931F02E0931E0223
:102810008091AE0490E091878087C8E2D4E00A817D
:102820001B812CE030E04EE350E062E370E088E58D
:1028300094E00E942823088119812CE030E04EE3C7
:1028400050E064E470E088E594E00E942823DF9182
:10285000CF911F910F910895809168038093AF04E9
:10286000E8E5F4E082E390E09587848797878687A0
:102870000C941A25809178038093AE04E8E5F4E087
:1028800082E390E095878487978786870C941A2542
:10289000EF92FF920F931F938091CC03E090280456
:1028A000F090290481112DC00CE010E028E330E005
:1028B00044E650E060E470E088E594E00E94C222C3
:1028C000809128049091290420912A0430912B04AE
:1028D000309369042093680490936B0480936A0496
:1028E00080E590E0909365048093640486E690E030
:1028F000909367048093660483E991E00E94602AC4
:1029000025C020912A0430912B04F0926904E092B2
:10291000680430936B0420936A0490E0019734E0DC
:10292000880F991F3A95E1F72BE230E0A901481B87
:10293000590B509365044093640482E790E09093B0
:102940006704809366048FE60E94182A8091E7014D
:102950009091CC03981709F460C0811141C0E090B8
:102960002804F09029040CE010E028E330E044E66D
:1029700050E060E470E088E594E00E942E1DE09055
:102980002A04F0902B040AE010E026E330E045E64C
:1029900050E061E470E088E594E00E94C2228091FA
:1029A0002A0490912B04209128043091290430931B
:1029B00069042093680490936B0480936A0480E513
:1029C00090E0909365048093640486E690E0909391
:1029D00067048093660483E991E00E94602A19C02D
:1029E000E0902A04F0902B0490E0019724E0880FF7
:1029F000991F2A95E1F76BE270E0681B790B0AE0FA
:102A000010E02CE030E042E750E088E594E00E94DE
:102A1000C2228091CC038093E7011F910F91FF9018
:102A2000EF900895CF92DF92EF92FF920F931F9352
:102A3000CF93DF9323E0209307021092E701909356
:102A4000E2018093E101FC01808191819093E40196
:102A50008093E30188EC93E090931F0280931E0221
:102A600088E2C82E84E0D82EF6016281738188E561
:102A700094E00E94FB1CE0EBF3E08091E40186957A
:102A8000869586958087118668E0CF010E948A2C02
:102A90008091E3019091E401807E977025E0969506
:102AA00087952A95E1F79093A1038093A00368E1AD
:102AB00088E993E00E948A2C8091E3019091E401DF
:102AC0008F719927909389038093880368E280E847
:102AD00093E00E948A2CF601E080F1800CE010E087
:102AE00028E330E044E650E060E470E088E594E0FC
:102AF0000E942E1DF60182819381C8E5D4E02081D9
:102B00003181398B288B9B8B8A8B80E590E09D8768
:102B10008C8785E690E09F878E8783E991E00E940D
:102B2000602A8AE090E09D878C879F878E87E0905F
:102B3000E301F090E40108E110E028E130E040E139
:102B400050E068E570E0CE010E94C222F601E0800C
:102B5000F1800AE110E02AE130E04FE050E067E563
:102B600070E0CE010E942E1DDF91CF911F910F9139
:102B7000FF90EF90DF90CF900C9448140F931F9329
:102B8000CF93DF93F999FECF80E090E00E948E39D9
:102B9000823409F441C0F999FECF62E480E090E00C
:102BA0000E94A83964E681E090E00E94A83960EEB6
:102BB0007FEF82E090E00E94B63960E070E084E050
:102BC00090E00E94B63960EE7FEF86E090E00E94D0
:102BD000B63960EE7FEF88E090E00E94B63960EE93
:102BE0007FEF8AE090E00E94B6396EE170E08CE001
:102BF00090E00E94B6396EE571E08EE090E00E94B0
:102C0000B639C0E1D0E060E0CE010E94A83921963B
:102C1000C931D105C1F7B6CF81E090E00E948E396D
:102C20008093FD0108E214E0C2E0D0E0CE010E94F2
:102C30008E39F80181938F012196C931D105B1F701
:102C4000DF91CF911F910F910895A0911E02B09135
:102C50001F02109779F0482F50E0440F551F4E5037
:102C60005E4FED91FC9111970280F381E02D682F6A
:102C7000CD0109940895CF93DF9381E080930702FB
:102C8000C8E2D4E06A817B8188E594E00E94FB1C65
:102C900088819981E8E5F4E0938B828B918B808B1E
:102CA00088E290E0958784871786168686E891E00B
:102CB0000E94602A68E070E08FE394E00E94652A39
:102CC0008FE394E090931F0280931E02DF91CF91D7
:102CD0000895823089F028F4882349F0813049F042
:102CE0000895843079F058F0853079F008950C9487
:102CF0003B1688E294E00BC08AE294E008C08CE2C4
:102D000094E005C08EE294E002C080E394E00C946D
:102D10001215CF93811103C0CF910C943B16C82F8D
:102D200080912A0490912B04209128043091290449
:102D3000309369042093680490936B0480936A0431
:102D400020911E0430911F04809120049091210451
:102D5000280F391FC29FA001C39F500D11248091DD
:102D60001A0490911B040296840F951F20E530E011
:102D70003093650420936404909367048093660401
:102D80008EE30E94182A2091140430E040911E0422
:102D900050911F048091200490912104480F591FE5
:102DA000429FB001439F700D529F700D112480917E
:102DB0001A0490911B040296860F971F4AE550E073
:102DC0005093650440936404909367048093660471
:102DD00081E090E0C13011F080E090E09093050434
:102DE0008093040480E094E090931F0280931E027D
:102DF000220F331FF901E05DFB4F80819181909399
:102E00000904809308040E940B2B88E991E0CF917C
:102E10000C94602A80933E040C943B16CF93DF936E
:102E200080912A0490912B04209128043091290448
:102E3000309369042093680490936B0480936A0430
:102E400089E690E090936504809364048DE090E0BF
:102E5000909367048093660482E080936C04809171
:102E6000050282FF03C08091000202C08091FF0131
:102E700090E001960E940B2B81E080936C0480917E
:102E8000050282FF05C0809128049091290404C0A6
:102E900080912A0490912B0490936B0480936A0490
:102EA00090936904809368048FE590E090936504A3
:102EB00080936404C6E1D0E0D0936704C0936604B5
:102EC0008CE30E94182A87E790E090936504809332
:102ED0006404D0936704C09366048EE30E94182AAA
:102EE00080912A0490912B04209128043091290488
:102EF000309369042093680490936B0480936A0470
:102F0000DF91CF9108958F929F92AF92BF92CF920F
:102F1000DF92EF92FF920F931F932091FD01822F7A
:102F200090E0A0E0B0E09C01AD01215031094109E1
:102F30005109A4E6B0E00E94DA392EEF30E040E01B
:102F400050E00E94BB39AA24BB24A21AB30AE8E2CB
:102F5000F4E0C080D180E280F380812C912C06E0E7
:102F600010E024E630E04EE150E063E170E088E5F7
:102F700094E00E94E4211F910F91FF90EF90DF9069
:102F8000CF90BF90AF909F908F900895EF92FF9257
:102F90000F931F93CF93DF93C8E2D4E00A811B8184
:102FA0002881398148E05EE16CE170E082E090E0E8
:102FB0000E94392BE880F98008E010E028E630E034
:102FC0004DE150E060E170E088E594E00E94C222AB
:102FD000DF91CF911F910F91FF90EF900895EF92A5
:102FE000FF920F931F93CF93DF93E091FF01F0E0E7
:102FF000EE0FFF1FEE5CFB4F8081918184369105BF
:103000000CF05AC02091E5013091E60137FF03C072
:10301000319521953109C9016AE070E00E94FC3BBD
:10302000C62F822F6AE0C69F8019112400912A04BE
:1030300010912B042091DF013091E001813019F4CF
:1030400048E457E110C09091050291FF03C046E2A9
:1030500056E109C062E271E0869FA001879F500D92
:1030600011244E52554F61E370E082E490E00E94DB
:10307000392B8091E5019091E60100912A0410918D
:103080002B042091DF013091E00197FD04C0809175
:10309000050281FF03C046E256E109C082E291E0E9
:1030A000C89FA001C99F500D11244E52554F61E396
:1030B00070E08EE090E08FC0883E93400CF08DC0B1
:1030C0002091E5013091E60137FF03C0319521954C
:1030D0003109C90164E670E00E94FC3BAB01E62EB9
:1030E000EB01DD271CE9BE011603C001179F900DFF
:1030F0001124820F931F6AE070E00E94FC3BF62EC1
:10310000722F149F700D1124472F8AE0F89E4019EA
:10311000112400912A0410912B042091DF01309199
:10312000E001413019F44BE15AE00DC080910502F5
:1031300081FF03C044E659E006C097EB499FA00118
:103140001124425C5D4F66E370E089E590E00E94E7
:10315000392B8091050200912A0410912B042091B3
:10316000DF013091E00181FF03C044E659E006C071
:1031700067EBF69EA0011124425C5D4F66E370E0B0
:103180008DE290E00E94392B00912A0410912B04CB
:103190002091DF013091E00171E0E71203C047E8C0
:1031A00051E015C08091050281FD06C08091E501C6
:1031B0009091E60197FF03C044E659E008C087EB11
:1031C0008C9FA0018D9F500D1124425C5D4F66E3E2
:1031D00070E081E090E00E94392BDF91CF911F9148
:1031E0000F91FF90EF900895EF92FF920F931F932E
:1031F000CF93DF936091E5017091E60116161706F3
:1032000064F5CB01770FAA0BBB0BBC01CD0126E007
:10321000660F771F881F991F2A95D1F7E091FF014C
:10322000F0E0EE0FFF1FEE5CFB4F20813181032E9B
:10323000000C440B550B0E94BB39C0E4C21BCB32BF
:1032400028F080913004909131040CC0C63130F0E8
:1032500080912E0490912F0405C0C0E080912C0431
:1032600090912D049093E0018093DF01D0E0E090F5
:10327000DF01F090E00120912A0430912B048E01AF
:10328000A70165E071E080E090E00E94B52B002787
:1032900011270C1B1D0B20912A0430912B04A70130
:1032A00063E870E080E490E00E94B52BDF91CF915D
:1032B0001F910F91FF90EF9008950F931F93CF935D
:1032C000DF9310921F0210921E0210920702C8E2B2
:1032D000D4E06A817B8188E594E00E94FB1C8A81AE
:1032E0009B81E8E5F4E028813981318B208B938B39
:1032F000828B8FE590E0958784878DE090E09787BB
:1033000086878BE991E00E94602A0A811B812881CF
:10331000398146E750E063E070E088E590E00E9484
:10332000392B0E94F4180E94EF17DF91CF911F9163
:103330000F910C940E17EF92FF920F931F93CF9360
:10334000DF9390E08730910508F001C2FC01EC5C4E
:10335000FF4F0C94103CF999FECF08E214E0C2E054
:10336000D0E0F80161918F01CE010E94963921963B
:10337000C931D105B1F7DF91CF911F910F91FF9026
:10338000EF900C945D1982E08093070260912A040B
:1033900070912B0488E594E00E94FB1C8091280426
:1033A0009091290490936B0480936A04909369042C
:1033B0008093680488E290E09093650480936404AD
:1033C00010926704109266048EE991E00E94602AD0
:1033D00068E070E080E194E00E94652A80E194E07A
:1033E00090931F0280931E0280912A0490912B04D7
:1033F00020912804309129043093690420936804B3
:1034000090936B0480936A0402E314E0C1E0D0E07F
:103410008AE5E82EF12C8091150490E0C817D907B1
:103420000CF095C120911E0430911F04809120045E
:1034300090912104280F391F2C9FA0012D9F500D22
:103440003C9F500D112480911A0490911B04029608
:10345000840F951FF0926504E092640490936704D2
:1034600080936604F801819191918F01009719F082
:103470000E940B2B04C08FE891E00E94602A2196E5
:10348000CACF80E693E090931F0280931E02809142
:10349000AF0490E0909369038093680360912A04DD
:1034A00070912B0488E594E00E94FB1C82E390E07D
:1034B00090936504809364049093670480936604FA
:1034C00080912A0490912B042091280430912904A2
:1034D000309369042093680490936B0480936A048A
:1034E0000E941A2500912804109129042CE030E054
:1034F0004EE350E062E370E088E594E00E94282308
:1035000026C185E08093070260912A0470912B0404
:1035100088E594E00E94FB1C809128049091290486
:1035200090936B0480936A04909369048093680479
:1035300088E290E09093650480936404109267049D
:103540001092660483E891E00E94602A68E070E0CF
:1035500080ED93E00E94652A80ED93E090931F0236
:1035600080931E02F4C080913E048093EC0384E0BB
:103570008093070260912A0470912B0488E594E0FF
:103580000E94FB1C809128049091290490936B0465
:1035900080936A04909369048093680488E290E0C1
:1035A00090936504809364041092670410926604FB
:1035B00086EA91E00E94602A62E170E088EE93E082
:1035C0000E94652A88EE93E090931F0280931E026A
:1035D00080912A0490912B04209128043091290491
:1035E000309369042093680490936B0480936A0479
:1035F0002091F6033091F7038091F8039091F9033D
:10360000280F391F80913E04829FA001839F500D97
:1036100011248091F2039091F3030296840F951F79
:1036200028E030E0309365042093640490936704AD
:10363000809366048EE3DF91CF911F910F91FF90ED
:10364000EF900C94182AF999FECF6091FD0181E06A
:1036500090E00E949639809128049091290420914D
:103660002A0430912B0430936904209368049093CA
:103670006B0480936A0420914D0430914E04809134
:103680004F0490915004280F391F85E0829FA001BC
:10369000839F500D11248091490490914A04029611
:1036A000840F951F29E630E030936504209364046D
:1036B000909367048093660483EB91E0DF91CF9150
:1036C0001F910F91FF90EF900C94602A8FEF8093E1
:1036D000070210921F0210921E0280912A049091FC
:1036E0002B042091280430912904309369042093FD
:1036F000680490936B0480936A041092650410929E
:10370000640480E290E0909367048093660486EB03
:1037100091E00E94602AE2E0FEE16591749188E503
:1037200094E00E94983063EC71E088E594E00E9498
:10373000BC30E4E0FEE16591749188E594E0DF91AE
:10374000CF911F910F91FF90EF900C949830DF91E3
:10375000CF911F910F91FF90EF900895EF92FF92FC
:103760000F931F93E091FF01F0E0EE0FFF1FEE5C5F
:10377000FB4F808191819093E6018093E5018091D8
:103780000702811118C0E0902A04F0902B0400E396
:1037900010E02EE730E041E350E061E070E088E5C2
:1037A00094E00E94C2220E94F4181F910F91FF9092
:1037B000EF900C94EF171F910F91FF90EF900895E9
:1037C000682F80911E0290911F02009739F0DC0152
:1037D000ED91FC910190F081E02D0994623051F05F
:1037E00018F46130D1F00895633089F16F3F09F426
:1037F00056C0089580910702882319F08F3F59F031
:1038000008958091FF0180930002809105028460F9
:103810008093050237C00C943B16809107028111FA
:1038200040C08091050282FF3CC080910002882345
:1038300011F0815001C085E0E82FF0E0EE0FFF1F8E
:10384000EE5CFB4F20813181232B89F319C08091DD
:103850000702811126C08091050282FF22C080915B
:103860000002853010F48F5F01C080E0E82FF0E0A7
:10387000EE0FFF1FEE5CFB4F20813181232B89F37C
:10388000809300020E940E170E9457296093010244
:1038900070930202809303029093040208950C94A3
:1038A000AE1B08958091EB014A9913C0811119C094
:1038B0008091E9019091EA01049798F08FEF0E94BE
:1038C000E01B81E08093EB011092F1031092F00372
:1038D00004C0882331F01092EB011092EA0110929B
:1038E000E90108951F920F920FB60F9211240F90C5
:1038F0000FBE0F901F9018951F920F920FB60F9248
:1039000011242F933F934F935F936F937F938F93E4
:103910009F93AF93BF93EF93FF93809106023199EA
:1039200013C0811119C08091EC019091ED010497B1
:1039300098F082E00E94E01B81E0809306021092E2
:10394000F7011092F60104C0882331F010920602AC
:103950001092ED011092EC018091FC01309913C09E
:10396000811119C08091F0019091F101049798F0B4
:1039700081E00E94E01B81E08093FC011092F50140
:103980001092F40104C0882331F01092FC011092CF
:10399000F1011092F0018091FE01329913C0811162
:1039A00019C08091EE019091EF01049798F083E0A7
:1039B0000E94E01B81E08093FE011092F9011092B9
:1039C000F80104C0882331F01092FE011092EF013B
:1039D0001092EE01FF91EF91BF91AF919F918F9166
:1039E0007F916F915F914F913F912F910F900FBEFB
:1039F0000F901F901895EF92FF920F931F93DC0189
:103A00001A960D911C911B9718962D913C91199720
:103A1000ED91FC9100A0F1A1E02D7B0140E050E090
:103A200060E070E009951F910F91FF90EF9008956D
:103A30000895FC016370658B8481958126813781AF
:103A4000613039F0633029F091878087338722878E
:103A50000895318720879387828708956F927F9298
:103A60008F929F92AF92BF92CF92DF92EF92FF928E
:103A70000F931F93CF93DF93EC014B015A01690120
:103A80003801E881F9810284F385E02D0995E88108
:103A9000F9810288F389E02D87019601A501B4011F
:103AA000CE010995A501460D571D41505109E881E8
:103AB000F9810288F389E02D9601B401CE010995C0
:103AC000E881F9810088F189E02D9301A501B40115
:103AD000CE010995C80CD91CB60161507109E88165
:103AE000F9810088F189E02D9301A501CE010995A6
:103AF000E881F9810688F789E02DCE01DF91CF9129
:103B00001F910F91FF90EF90DF90CF90BF90AF90FB
:103B10009F908F907F906F9009948F929F92AF9219
:103B2000BF92CF92DF92EF92FF920F931F93CF93AA
:103B3000DF934C016B015A01E901DC01ED91FC912D
:103B40006217730781F40417150724F48B2D5801AD
:103B5000042F182F0A191B0998012F5F3F4F048C5F
:103B6000F58DE02D12C04017510709F526173707CC
:103B700024F48D2D6901C62FD82F9E012C193D09E3
:103B80002F5F3F4F068CF78DE02D8701A501B60111
:103B9000C4010995DF91CF911F910F91FF90EF9094
:103BA000DF90CF90BF90AF909F908F900895028448
:103BB000F385E02D0995D401ED91FC910488F589F8
:103BC000E02D9E01A501B601C4010995D401ED9136
:103BD000FC910688F789E02DC401DF91CF911F91F8
:103BE0000F91FF90EF90DF90CF90BF90AF909F909C
:103BF0008F900994EF92FF920F931F93DC011A9616
:103C00000D911C911B9718962D913C911997ED9150
:103C1000FC9100A0F1A1E02D7B0140E050E060E0CC
:103C200070E009951F910F91FF90EF9008954F92CA
:103C30005F926F927F928F929F92AF92BF92CF923C
:103C4000DF92EF92FF920F931F93CF93DF936C015C
:103C50002B015A0139014801DC01ED91FC910284EC
:103C6000F385E02D0995E201640C751CD601ED91F8
:103C7000FC91C615D7055CF40088F189E02D870119
:103C80009401A501BE01C60109952196EFCF0688D2
:103C9000F789E02DC601DF91CF911F910F91FF9021
:103CA000EF90DF90CF90BF90AF909F908F907F90DC
:103CB0006F905F904F9009948F929F92AF92BF92B6
:103CC000CF92DF92EF92FF920F931F93CF93DF93E8
:103CD000EC015B014A016901E881F9810284F38505
:103CE000E02D099595012C0D3D1D21503109E881EC
:103CF000F9810488F589E02D78018401A401B501DA
:103D0000CE010995E881F9810688F789E02DCE0179
:103D1000DF91CF911F910F91FF90EF90DF90CF90A7
:103D2000BF90AF909F908F9009948F929F92AF9287
:103D3000BF92CF92DF92EF92FF920F931F93CF9398
:103D4000DF93EC015B014A0169017801E881F981A7
:103D50000284F385E02D0995C80CD91C8601015019
:103D60001109E881F9810488F589E02D9501A40104
:103D7000B501CE010995E881F9810688F789E02D22
:103D8000CE01DF91CF911F910F91FF90EF90DF90C7
:103D9000CF90BF90AF909F908F9009940895EF922D
:103DA000FF920F931F93DC01ED91FC9100A0F1A114
:103DB000E02D09951F910F91FF90EF9008950F93BB
:103DC0001F93DC01ED91FC91068CF78DE02D099598
:103DD0001F910F9108950F931F93DC01ED91FC91BA
:103DE000048CF58DE02D09951F910F910895DC014C
:103DF000ED91FC910084F185E02D09942F923F9282
:103E00004F925F926F927F928F929F92AF92BF92EA
:103E1000CF92DF92EF92FF920F931F93CF93DF9396
:103E200000D000D000D0CDB7DEB72C017E836D83EB
:103E30006A015901C801FC82EB824801841A950A83
:103E400097FE03C091948194910835012D813E81A4
:103E5000621A730A77FE03C0719461947108681442
:103E600079045CF43A2D2B2D5C01832F922F3D8138
:103E70002E81DE82CD82C32ED22EAD81BE81AA16C6
:103E8000BB065CF43C2D2D2D6C01832F922F3D81C0
:103E90002E81BE82AD82A32EB22E85012D813E8160
:103EA000021B130B1C012C183D0837FE03C0319474
:103EB00021943108780117FF03C03FEFE31AF30A9A
:103EC000F594E794C816D9062CF08FEF9FEF9A83EC
:103ED000898304C0A1E0B0E0BA83A9832D813E812B
:103EE000A216B30624F1D201ED91FC910484F5856C
:103EF000E02D2B813C816814790424F44D815E818E
:103F0000B60103C0A6016D817E81C2010995E21848
:103F1000F308F7FE06C029813A81C20ED31EE00ED7
:103F2000F11E8D819E8101969E838D83D7CF26962B
:103F30000FB6F894DEBF0FBECDBFDF91CF911F91BA
:103F40000F91FF90EF90DF90CF90BF90AF909F9038
:103F50008F907F906F905F904F903F902F9008953B
:103F600085ED8093BC008091BC0084FDFCCF109255
:103F70009202089540914002262F30E0240F311D17
:103F800021323105DCF4209192022430C9F4FC0185
:103F900080E090E0861758F4309140022191DC01D6
:103FA000A05EBD4FA30FB11D2C930196F3CF80915E
:103FB0004002680F6093400280E0089581E0089518
:103FC00082E00895E0918C0480918B04E81730F42E
:103FD000F0E0E357FB4F808190E008958FEF9FEF73
:103FE000089590918C0480918B04981750F4E92FD8
:103FF000F0E0E357FB4F208130E09F5F90938C040B
:1040000002C02FEF3FEFC901089580918B0490E02B
:1040100020918C04821B91090895CF92DF92EF9238
:10402000FF920F931F93CF93DF937C01CB018A0103
:1040300020919302222389F0EB016B01C40ED51E5F
:10404000CC15DD0569F06991D701ED91FC910190E6
:10405000F081E02DC7010995F3CF642F0E94BA1FAC
:10406000C801DF91CF911F910F91FF90EF90DF90EA
:10407000CF900895CF93DF931F92CDB7DEB76983BA
:10408000209193022223D1F02091B602203240F0F9
:1040900021E030E0FC013383228380E090E015C012
:1040A00080919402E82FF0E0EB56FD4F99819083C8
:1040B0008F5F809394028093B60205C061E0CE01C9
:1040C00001960E94BA1F81E090E00F90DF91CF919E
:1040D0000895089580E090E00895AF92BF92CF9246
:1040E000EF92FF920F931F93CF93DF93EC01262F54
:1040F000888D998D009709F040C06A3059F41D866B
:104100001C862C898E859F8538E0239F800D911D0C
:10411000112441C06D3009F4AAC08E898823C1F0F2
:104120003C898C859D8546E0349F800D911D11242E
:1041300048855985481759075CF41D861C868E856D
:104140009F8548E0349F800D911D11249F878E87A5
:10415000EA88FB88088919894E855F856C857D858D
:10416000CC88CE010E947E2E2C898C859D8536E0E0
:10417000239F800D911D112442C06A3079F41D8661
:104180001C862C89FC013696E4918E859F852E9F96
:10419000800D911D11249F878E8769C06D3009F4B1
:1041A00066C0FC0134963491631708F460C0319600
:1041B000E491E61708F45BC0FC01329665917491B6
:1041C000422F50E0431B510937E0349F5001359F87
:1041D000B00C1124A60EB71EF5013296349131961B
:1041E000E491332311F0E1110DC0F5013496E4910F
:1041F0002C898C859D85E29F800D911D11249D87C2
:104200008C8735C0F501359644915E89552311F1AF
:104210006C89E32FF0E0E40FF11D47FDFA956E9FE6
:10422000D0016F9FB00D11244C855D854A0F5B1F37
:10423000E885F985E417F5076CF41D861C86FC01FA
:104240003696E4918E859F856E9F800D911D112479
:104250009F878E87EA88FB88088919894E855F8544
:104260006C857D85CC88CE010E947E2EBECF81E0FC
:1042700090E0DF91CF911F910F91FF90EF90CF9041
:10428000BF90AF90089581E08093E8010C943B16B5
:1042900088EC93E090931F0280931E02A8E2B4E0A2
:1042A00012968D919C911397E8E5F4E02D913C9145
:1042B000318B208B938B828B8091E70190E001976B
:1042C00024E0880F991F2A95E1F72BE230E0A9013D
:1042D000481B590B5587448782E790E0978786876C
:1042E0008FE60C94182A8EBD00000DB407FEFDCF9A
:1042F0008EB508951F93CF93DF93EC01162F0E9484
:10430000012A0E94F729812F0E947321CE01DF919B
:10431000CF911F910C940D2A1F93CF93DF93EC0143
:10432000162F0E94012A8CB58F7B8CBD2B982D9A5D
:104330002D988CB580648CBD812F0E947321CE0195
:10434000DF91CF911F910C940D2AEF92FF920F9362
:104350001F93CF93DF93EC01E62E142FF22E6AE227
:104360000E948C2160E0CE010E947A216DA16E0D29
:10437000CE010E947A2160E0CE010E947A216DA1D7
:104380006F0DCE010E947A216BE2CE010E948C213A
:1043900060E0CE010E947A216EA1610FCE010E94E1
:1043A0007A2160E0CE010E947A216EA1600FCE01D9
:1043B0000E947A216CE2CE01DF91CF911F910F9183
:1043C000FF90EF900C948C212F923F924F925F922E
:1043D0006F927F928F929F92AF92BF92CF92DF9215
:1043E000EF92FF920F931F93CF93DF93CDB7DEB77A
:1043F0002D970FB6F894DEBF0FBECDBF2C0139014B
:104400001801EB82FC82DD82DC0118968D919C9173
:104410001997681779070CF09CC01A96ED91FC91DA
:104420001B974E175F070CF094C09B01260D371D9C
:10443000821793071CF43C01661A770ACA01820DA1
:10444000931DE817F9071CF41F01241A350A298265
:104450006A820FEF040F020D2FEF260F260DC20107
:104460000E94A521C2010E94012AF101E819F9095F
:10447000FF83EE83222733272819390939872887B4
:10448000C3018A199B099B878A87AA27BB27AA1978
:10449000BB09BD87AC87E980E21812141304F4F558
:1044A0008301F12C8A81801B101611069CF590E087
:1044B000B7FE06C0EC85FD858E179F0734F414C047
:1044C0002A853B85821793077CF4DD24D39497FEDD
:1044D00006C088859985E816F9063CF405C0AE81CA
:1044E000BF81EA16FB060CF0D12C0E94F729D110EF
:1044F00002C08D8101C08C810E9473210E94F72926
:10450000D11002C08C2D01C08B810E9473210150FB
:104510001109C8CFB1E02B1A3108BDCFC2012D96C9
:104520000FB6F894DEBF0FBECDBFDF91CF911F91C4
:104530000F91FF90EF90DF90CF90BF90AF909F9042
:104540008F907F906F905F904F903F902F900C9442
:104550000D2A2D960FB6F894DEBF0FBECDBFDF91AA
:10456000CF911F910F91FF90EF90DF90CF90BF9070
:10457000AF909F908F907F906F905F904F903F9003
:104580002F900895AF92BF92CF92DF92EF92FF9259
:104590000F931F93CF93DF936C015901E801FC0146
:1045A00020853185621773070CF047C0828593859B
:1045B000481759070CF041C0FB01EA0DFB1D2E17EF
:1045C0003F071CF45901A61AB70A9A012C0F3D1F88
:1045D000821793071CF4EC01C41BD50B0FEF040FDB
:1045E0000C0F2FEF260F2A0DC6010E94A521C60130
:1045F0000E94012A1C161D069CF485011016110646
:104600006CF40E94F7298F2D0E9473210E94F729D4
:104610008E2D0E94732101501109F0CF2197EACF0E
:10462000C601DF91CF911F910F91FF90EF90DF9026
:10463000CF90BF90AF900C940D2ADF91CF911F9136
:104640000F91FF90EF90DF90CF90BF90AF900895C3
:10465000DF92EF92FF920F931F93CF93DF937C0132
:10466000E901D02EFC01808591856817790784F5D2
:1046700022853385421753075CF59B012C0F3D1FA4
:10468000821793071CF4EC01C61BD70B2FEF260FE4
:104690002C0F042FC7010E94A521C7010E94012AE7
:1046A000209761F00E94F729812F0E9473210E94B8
:1046B000F7298D2D0E9473212197F2CFC701DF9139
:1046C000CF911F910F91FF90EF90DF900C940D2AE6
:1046D000DF91CF911F910F91FF90EF90DF900895A0
:1046E000DF92EF92FF920F931F93CF93DF937C01A2
:1046F000E901D02EFC01808591856817790784F542
:1047000082859385481759075CF59A012C0F3D1F48
:10471000821793071CF4EC01C41BD50B0FEF040F99
:104720000C0F262FC7010E94A521C7010E94012A54
:10473000209761F00E94F729812F0E9473210E9427
:10474000F7298D2D0E9473212197F2CFC701DF91A8
:10475000CF911F910F91FF90EF90DF900C940D2A55
:10476000DF91CF911F910F91FF90EF90DF9008950F
:10477000FF920F931F93CF93DF93EC0177FD2AC035
:1047800088859985681779072CF557FD23C08A8598
:104790009B8548175907F4F4F32E122F01E0040FFC
:1047A00021E0260FCE010E94A521CE010E94012A00
:1047B0000E94F7298F2D0E9473210E94F729812FD3
:1047C0000E947321CE01DF91CF911F910F91FF9035
:1047D0000C940D2ADF91CF911F910F91FF900895B6
:1047E0001F920F920FB60F9211242F933F934F9366
:1047F0005F936F937F938F939F93AF93BF93EF9349
:10480000FF938091B900887F803609F49CC068F5D9
:10481000883209F45BC090F4803109F454C038F454
:10482000882309F4F2C0883009F44DC0F2C0883101
:1048300009F44CC0803209F45DC0EBC0803409F447
:1048400068C048F4803309F455C0883309F0E1C0EA
:1048500080939002D4C0803509F44FC0883509F4A4
:104860005DC0883409F0D5C0D2C0883909F4C3C00E
:10487000A8F4883709F467C038F4883609F463C0AF
:10488000803709F460C0C5C0883809F4B4C08039E5
:1048900009F45FC0803809F0BCC05BC0803B09F4FC
:1048A00084C038F4803A09F466C0883A09F47DC0BF
:1048B000B0C0803C09F4A3C0883C09F4A0C0883B88
:1048C00009F486C0A6C080916D0210C090918F023D
:1048D00080918E02981770F5E0918F0281E08E0F23
:1048E00080938F02F0E0E259FD4F80818093BB00FE
:1048F00085EC82C0809390028AC0E0918F0281E0B3
:104900008E0F80938F028091BB00F0E0E259FD4F43
:10491000808390918F0280918E026AC0E0918F0215
:1049200081E08E0F80938F028091BB00F0E0E2590E
:10493000FD4F808380919102811169C081E0809355
:104940006C0284EA5DC083E080939202109262025E
:10495000CFCF80916202803208F04DC0E0916202B8
:1049600081E08E0F809362028091BB00F0E0EE5BED
:10497000FD4F8083BDCF85EC8093BC0010929202E6
:1049800080916202803230F4E0916202F0E0EE5BEE
:10499000FD4F10826091620270E082E492E0E0E0FC
:1049A000F0E009951092620234C084E08093920294
:1049B0001092410210924002E0E0F0E009958091EF
:1049C0004002811105C081E08093400210922002D4
:1049D000E091410281E08E0F80934102F0E0E05EC1
:1049E000FD4F80818093BB009091410280914002F5
:1049F000981708F47DCF85E88093BC000AC085EC49
:104A00008093BC001092920204C0109290020E9407
:104A1000B01FFF91EF91BF91AF919F918F917F91C7
:104A20006F915F914F913F912F910F900FBE0F901B
:104A30001F9018958091AF048A3018F480E30E948B
:104A4000182A6091AF0470E080E090E04AE00E9494
:104A50001D2A8AE30E94182A8091AE048A3018F435
:104A600080E30E94182A6091AE0470E080E090E03C
:104A70004AE00C941D2AFC01538D448D252F30E013
:104A8000842F90E0821B930B541710F0CF9608955B
:104A900001970895FC01918D828D981761F0828DA8
:104AA000DF01A80FB11D5D968C91928D9F5F9F7362
:104AB000928F90E008958FEF9FEF0895FC01918D04
:104AC000828D981731F0828DE80FF11D858D90E071
:104AD00008958FEF9FEF0895FC01918D228D892F0E
:104AE00090E0805C9F4F821B91098F7399270895F6
:104AF00087EB92E00E946C2521E0892B09F420E0ED
:104B0000822F0895FC01848DDF01A80FB11DA35AE7
:104B1000BF4F2C91848D90E001968F739927848FDD
:104B2000A689B7892C93A089B1898C9180648C93D4
:104B3000938D848D981306C00288F389E02D8081BF
:104B40008F7D80830895EF92FF920F931F93CF93F1
:104B5000DF93EC0181E0888F9B8D8C8D981305C0CD
:104B6000E889F989808185FD24C0F62E0B8D10E03F
:104B70000F5F1F4F0F731127E02E8C8DE8120CC0B2
:104B80000FB607FCFACFE889F989808185FFF5CF58
:104B9000CE010E948225F1CF8B8DFE01E80FF11D21
:104BA000E35AFF4FF0820B8FEA89FB898081806294
:104BB00007C0EE89FF896083E889F9898081806474
:104BC000808381E090E0DF91CF911F910F91FF9062
:104BD000EF900895CF93DF93EC01888D8823C9F07F
:104BE000EA89FB89808185FD05C0A889B9898C91F6
:104BF00086FD0FC00FB607FCF5CF808185FFF2CF91
:104C0000A889B9898C9185FFEDCFCE010E948225BC
:104C1000E7CFDF91CF91089580E090E0892B29F0D4
:104C20000E94782581110C94000008959FB7F89494
:104C3000409168025091690260916A0270916B0222
:104C400086B5A89B06C08F3F21F04F5F5F4F6F4F27
:104C50007F4F9FBF762F652F542F44279A01AB01BA
:104C6000280F311D411D511DA3E0B0E00E94DA392B
:104C7000089508950F931F93CF93DF93FC01DA01FA
:104C80002D913C91828593858217930758F5613069
:104C900061F0633039F52085318586819781281749
:104CA000390764F4C901019609C0208531858481E2
:104CB00095818217930714F4C90101979187808722
:104CC0008A01EF010190F081E02D0480F581E02D53
:104CD000CE010995EE85FF85888599850995F801AE
:104CE00011821082DF91CF911F910F910895623050
:104CF00051F4DC011C96ED91FC911D9718968D9155
:104D00009C91199709940895DC01623029F0633071
:104D100051F0613029F50EC01696ED91FC91179770
:104D200014968C91099414966C9114976623C1F093
:104D300061500EC014966C911497262F30E0159692
:104D40008C91159790E00197281739074CF46F5F05
:104D5000ED91FC9111970480F581E02DCD0109942E
:104D60000895FC01648308950E942A3C4F925F924B
:104D70006F927F928F929F92AF92BF92CF92DF926B
:104D8000EF92FF920F931F93CF93DF93EC010B8968
:104D900010E0025011094801012E000CAA08BB08BE
:104DA000CC80DD800D2C000CEE08FF0888859985ED
:104DB000092E000CAA0BBB0BA7019601281B390B6F
:104DC0004A0B5B0BC501B4010E94E03B2E813F8181
:104DD0002901330F66087708A30192012C193D09B8
:104DE0004E095F090E94BB39820E931EA41EB51E98
:104DF000912C919481949108EE89FF89C080D18093
:104E0000EC89FD89E080F1802A8930E02250310967
:104E1000498950E04F5F5F4F688970E06F5F7F4F57
:104E2000A12CB12C8A819B810E94E421DF91CF913A
:104E30001F910F91FF90EF90DF90CF90BF90AF90B8
:104E40009F908F907F906F905F904F900895DF922A
:104E5000EF92FF920F931F93CF93DF93EC01D62E27
:104E60008A819B816E857F85EE89FF89E080F18054
:104E70008B01025011092C853D852250310948894A
:104E80005989640F751F4C81469FF001479FF00DB3
:104E900011244A855B854F5F5F4F4E0F5F1F68850A
:104EA00079856F5F7F4FDC01ED91FC9100A0F1A14E
:104EB000E02D0995EE89FF8980819181EC89FD893A
:104EC00020813181AA81BB8151963C932E935097CA
:104ED00053969C938E9352972E853F858889998906
:104EE000280F391F8C81829FA001839F500D1124B0
:104EF0008A859B850296840F951F288539852E5FAC
:104F00003F4F1D963C932E931C971F969C938E9318
:104F10001E978C812A899B89E22FF92FE80FF11DBA
:104F2000E80FF11D65917491CD010E949830DC82EB
:104F30008A819B810E851F85EC89FD89E080F18047
:104F40002C853D8568897989600F711FD69EF00197
:104F5000D79EF00D11244A855B854E0F5F1F688533
:104F60007985DC01ED91FC9100A0F1A1E02D09957E
:104F7000EC89FD8980819181EE89FF8920813181D1
:104F8000AA81BB8151963C932E93509753969C9344
:104F90008E9352972E853F8588899989280F391FCE
:104FA0008C81829FA001839F500D11248A859B854F
:104FB0000296840F951F288539852E5F3F4F1D96D9
:104FC0003C932E931C971F969C938E931E978C81D7
:104FD0002A899B89E22FF92FE80FF11DE80FF11DB7
:104FE00065917491CD01DF91CF911F910F91FF9049
:104FF000EF90DF900C949830611102C060E201C024
:1050000061E20C948C211F93CF93DF93EC01162F58
:1050100066E30E948C21612F63706D8B8A8D6230F4
:10502000A1F06330D1F1613041F0823011F0843071
:1050300011F460EC11C068EC0FC0823011F08430C4
:1050400011F460EA31C068EA2FC0823011F0843078
:1050500011F460E001C068E0CE010E947A218A8DDF
:10506000813029F480E890E09B878A870FC08430E4
:1050700039F480EA90E09B878A8780E590E006C05B
:1050800080EA90E09B878A8780E890E0998788870C
:105090008BA18DA38CA18EA327C0823011F0843008
:1050A00011F460E601C068E6CE010E947A218A8D83
:1050B000813029F480E890E0998788870FC0843098
:1050C00039F480EA90E09987888780E590E006C00F
:1050D00080EA90E09987888780E890E09B878A87BC
:1050E0008BA18EA38CA18DA3DF91CF911F910895E9
:1050F0001F920F920FB60F9211242F933F934F934D
:105100005F936F937F938F939F93AF93BF93EF932F
:10511000FF9387EB92E00E948225FF91EF91BF9170
:10512000AF919F918F917F916F915F914F913F913F
:105130002F910F900FBE0F901F9018951F920F92F6
:105140000FB60F9211242F938F939F93EF93FF939A
:10515000E091C702F091C8028081E091CD02F09108
:10516000CE0282FD12C090818091D0028F5F8F733A
:105170002091D102821751F0E091D002F0E0E95481
:10518000FD4F958F8093D00201C08081FF91EF91F8
:105190009F918F912F910F900FBE0F901F90189598
:1051A00090E0FC01EA5DF04E2491FC01EE59F04ED6
:1051B0003491FC01E25BF04EE491EE2309F43CC033
:1051C000222339F1233091F038F42130A9F0223034
:1051D00001F584B58F7D12C0273091F02830A1F001
:1051E0002430B9F4809180008F7D03C080918000CD
:1051F0008F77809380000DC084B58F7784BD09C000
:105200008091B0008F7703C08091B0008F7D809334
:10521000B000F0E0EE0FFF1FE65CF04EA591B491F8
:105220009FB7F894611104C08C913095382302C067
:10523000EC913E2B3C939FBF08958F929F92AF922B
:10524000BF92CF92DF92EF92FF926B017C010E949E
:1052500016264B015C01C114D104E104F104F1F004
:105260000E941626DC01CB0188199909AA09BB09FD
:10527000883E9340A105B10570F321E0C21AD10820
:10528000E108F10888EE880E83E0981EA11CB11C8D
:10529000C114D104E104F10419F7DDCFFF90EF90C0
:1052A000DF90CF90BF90AF909F908F9008952FB7D1
:1052B000F894609164027091650280916602909109
:1052C00067022FBF08951F920F920FB60F921124FD
:1052D0002F933F938F939F93AF93BF9380916402DB
:1052E00090916502A0916602B091670230916302CD
:1052F00026E6230F2D3728F029EE230F0196A11D56
:10530000B11D209363028093640290936502A09381
:105310006602B09367028091680290916902A09141
:105320006A02B0916B020196A11DB11D80936802C3
:1053300090936902A0936A02B0936B02BF91AF9100
:105340009F918F913F912F910F900FBE0F901F90C3
:1053500018951F920F920FB60F9211242F933F931F
:105360004F935F936F937F938F939F93AF93BF936D
:10537000EF93FF93E0910201F09103010995FF91F2
:10538000EF91BF91AF919F918F917F916F915F91BD
:105390004F913F912F910F900FBE0F901F90189536
:1053A0001F920F920FB60F9211242F933F934F939A
:1053B0005F936F937F938F939F93AF93BF93EF937D
:1053C000FF93E0910001F09101010995FF91EF91A8
:1053D000BF91AF919F918F917F916F915F914F910D
:1053E0003F912F910F900FBE0F901F9018958CB585
:1053F0008F7B8CBD2B9A2D9A2D988CB580648CBD9B
:105400000895DC019B96ED91FC919C979081D1963B
:105410008C918095892380830895DC019B96ED9182
:10542000FC919C979081D1968C91892B80830895D3
:10543000682F88E594E00C946D208F929F92AF9234
:10544000BF920F931F93CF93DF93CDB7DEB7A19792
:105450000FB6F894DEBF0FBECDBF19A2423008F4DC
:105460004AE08E010F5D1F4F842E912CA12CB12C90
:10547000A50194010E94E539E62FB901CA01015046
:105480001109EA3014F4E05D01C0E95CD801EC9345
:10549000232B242B252B61F7B80188E594E00E948B
:1054A000BC30A1960FB6F894DEBF0FBECDBFDF9122
:1054B000CF911F910F91BF90AF909F908F900895C3
:1054C000BC0188E594E00C94BC30BF92CF92DF928F
:1054D000EF92FF920F931F93CF93DF93EC017987A5
:1054E00068878CE090E09B878A87EA81FB81808DCA
:1054F000918D892B29F086859785069797878687D2
:10550000118E108E81E0848BB12C8D81B81608F03D
:1055100078C04C818A819B810E851F85AC89BD89AD
:105520002C853D8568897989CB2CD12CEA85FB8532
:10553000ED90FC90600F711FB41219C06C9DA0011A
:105540006D9D500D7C9D500D11244E0F5F1F688581
:105550007985DC01ED91FC9100A0F1A1E02D099588
:10556000EC89FD8980819181EE89FF8918C06C9D4D
:10557000A0016D9D500D7C9D500D11244E0F5F1F9D
:1055800068857985DC01ED91FC9106A0F7A1E02DFD
:105590000995EE89FF8980819181EC89FD892081BF
:1055A0003181EA81FB81318B208B938B828B2E851D
:1055B0003F8588899989820F931F8C9DA0018D9DBD
:1055C000500D9C9D500D11242A853B852E5F3F4F29
:1055D000240F351F8A819B81488559854E5F5F4F17
:1055E000FC015587448737872687CC0CDD1CEA8968
:1055F000FB89EC0DFD1D659174910E949830B39468
:1056000084CFDF91CF911F910F91FF90EF90DF90AA
:10561000CF90BF900895CF92DF92EF92FF92CF93F9
:10562000DF936C01990FEE08FF08F7FE17C08DE2BB
:105630000E94182AEC0166277727CB016C197D0997
:105640008E099F094AE00E941D2A8C0F9D1FDF9141
:10565000CF91FF90EF90DF90CF9008954AE0C7017F
:10566000B601DF91CF91FF90EF90DF90CF900C9437
:105670001D2A4F925F926F927F928F929F92AF926C
:10568000BF92CF92DF92EF92FF920F931F93CF932F
:10569000DF936A01D22F732E602E512EFA011491DE
:1056A0003196C4910FEF060F0C0F2FEF280F210F2B
:1056B000462F682F88E594E00E94A521F6013296D6
:1056C000449088E594E00E94012A1C027001112494
:1056D00000E010E0C0E090E8A92EB12CE016F10641
:1056E00081F1842C912CC5010C2E02C095958795D3
:1056F0000A94E2F7882299220E94F72981149104E2
:1057000011F4852D01C0872D0E9473210E94F72975
:10571000892811F4862D01C08D2F0E9473210F5FFF
:105720001F4FC73010F4CF5FD9CFF80183E0F69553
:10573000E7958A95E1F73296EC0DFD1D4490C0E0A7
:10574000CDCF88E594E0DF91CF911F910F91FF902D
:10575000EF90DF90CF90BF90AF909F908F907F9011
:105760006F905F904F900C940D2A3F924F925F92F2
:105770006F927F928F929F92AF92BF92CF92DF9261
:10578000EF92FF920F931F93CF93DF93CDB7DEB7C6
:105790002C970FB6F894DEBF0FBECDBF6B01742EF1
:1057A000652E522E432E5801FB01149131962491FF
:1057B0002B83022F01592FEF280F210F40E7682F6D
:1057C00088E594E00E94A521F601329634913B874A
:1057D00088E594E00E94012A812F012E000C990B8C
:1057E000EB810E2E000CFF0BFA83E9833B81130241
:1057F000900111243C832B8300E010E0F12C312C2C
:10580000E12CFC01EA19FB09FE83ED8322273327F3
:105810002A193B0938872F83FC013197FA87E987DA
:105820002B813C812017310709F459C08E2C912C13
:10583000B7FE06C08F8198858816990634F41DC07E
:10584000ED81FE818E169F06C4F4832D90E02981A0
:105850003A81821793078CF43B85832F90E020E8F0
:1058600030E00F2C02C0359527950A94E2F7822389
:105870009323E1E0EC87892B09F41C860E94F72929
:10588000FC85F11102C0842D01C0862D0E94732178
:105890000E94F7292C85211102C0852D01C0872D7A
:1058A0000E9473210F5F1F4F36E03F1510F0F394F5
:1058B0000CC0F80183E0F695E7958A95E1F73296FA
:1058C000EC0DFD1D84918B87F12CE985FA858E16F0
:1058D0009F0614F4E394A4CF3394E12CA1CF88E580
:1058E00094E02C960FB6F894DEBF0FBECDBFDF91CB
:1058F000CF911F910F91FF90EF90DF90CF90BF90CD
:10590000AF909F908F907F906F905F904F903F905F
:105910000C940D2AEF92FF920F931F93CF93DF9376
:10592000EC01688B88E0898B8A819B81EC89FD89F9
:10593000E080F1800B8910E02A8930E070E0DC0122
:10594000ED91FC9106A0F7A1E02D48E050E009950B
:10595000CE01DF91CF911F910F91FF90EF900C94AA
:10596000B62690E0FC01EE59F04E2491FC01E25B7A
:10597000F04E8491882399F090E0880F991FFC01E4
:10598000EC5BF04EA591B491FC01E65CF04E859184
:1059900094918FB7F894EC91E22BEC938FBF08951C
:1059A000CF93DF93EC0185E00E94B12C209711F496
:1059B00060E004C0CF3FD10531F461E085E0DF91C4
:1059C000CF910C94D028EBE2FFE1E491E330F9F0C1
:1059D00048F4E130B9F0E230A1F584B5806284BDCD
:1059E000C8BD34C0E730E9F0E83019F1E43049F5DA
:1059F00080918000806280938000D0938B00C09360
:105A00008A0024C084B5806884BDC7BD1FC0809152
:105A10008000806880938000D0938900C0938800C4
:105A200015C08091B00080688093B000C093B3002F
:105A30000DC08091B00080628093B000C093B4002C
:105A400005C0C038D1050CF0B8CFB2CFDF91CF91EF
:105A50000895282F3091B602313208F04AC0809163
:105A600092028111FCCF9091B50242E040939202E4
:105A7000209391022FEF2093900210928F02309387
:105A80008E02E5E9F2E0AEE6B2E020E0321721F066
:105A900041914D932F5FFACF10926D0220916D02CC
:105AA000990F922B90936D0290916C02913061F45A
:105AB00010926C0290916D029093BB009091BC008B
:105AC00093FDF8CF95EC01C095EE9093BC009091BA
:105AD00092029230E1F3909190029F3F79F0809191
