:100000000C9464130C94CD2C0C94A62C0C948C138F
:100010000C946B1C0C94611C0C948C130C948C131E
:100020000C948C130C948C130C948C130C948C13D4
:100030000C948C130C948C130C948C130C948C13C4
:100040000C94602C0C948C130C949B2B0C94752B9F
:100050000C948C130C948C130C948C130C948C13A4
:100060000C94C1220C948C135B177317BD17ED17FA
:10007000FB1732188018391C4B1C3B1C3E1C421CC1
:10008000451C481C07634236B79BD8A71A396856E7
:1000900018AEBAAB558C1D3CB7CC5763BD6DEDFDAA
:1000A000753EF6177231BF000000803F0800000067
:1000B000BE922449123EABAAAA2ABECDCCCC4C3E5D
:1000C00000000080BEABAAAAAA3E00000000BF004C
:1000D0000000803F0000000000084178D3BB438748
:1000E000D1133D190E3CC3BD4282AD2B3E68EC825C
:1000F00076BED98FE1A93E4C80EFFFBE01C4FF7FE1
:100100003F00000000005645523F4F444620322E2B
:10011000300056657273696F6E3A200007077DAE36
:100120004CD838DF000C07FFE803AA9AA9AA980365
:10013000FFE0150180961180FAB103012C2DB20366
:10014000012C2DB306012C2D012C2DB40107C00369
:10015000A20284C101C5C2020A00C3028A2AC402E3
:100160008AEEC5010E20003601C83A01052A0400B6
:1001700000007F2B040000007FE010021C071237F4
:1001800032292D29252B3900010310E110031D0709
:10019000062E2C292D2E2E373F0000021013800A28
:1001A0002980640B0B04088882070191BAC7C070CC
:1001B0002088881000303007FFFFFFFFF00FFFFF9F
:1001C000FFFFF81FFFFFFFFFFC3FFFFFFFFFFE3FAA
:1001D000FFFFFFFFFE7FFFFFFFFFFF7F0000000329
:1001E000FF7F00000007FF7F0000000FFF7F00007F
:1001F000001FFF7F0000003FFF7F000000FFFF7F28
:10020000000001FFFF7F000003FFFF7F000007FFEA
:100210007F7F00000FFE7F7F00001FFC7F7F0000BC
:100220007FF07F7F0000FFE07F7F0001FFC07F7FC6
:100230000003FF807F7F0007FF007F7F000FFE002D
:100240007F7F003FFC007F7F007FF0007F7F00FF0B
:10025000E0007F7F01FFC0007F7F03FF80007F7F82
:1002600007FF00007F7F1FFE00007F7F3FF8000038
:100270007F7F7FF000007F7FFFE000007F7FFFC077
:1002800000007F7FFF8000007F7FFF0000007F7FF6
:10029000FC0000007F7FF80000007F7FF00000007E
:1002A0007F7FE00000007F7FFFFFFFFFFF3FFFFF3A
:1002B000FFFFFE3FFFFFFFFFFE1FFFFFFFFFFC0FE3
:1002C000FFFFFFFFF807FFFFFFFFF001FFFFFFFF4A
:1002D000C000000000000030300000007FC00000BF
:1002E0000000FFC000000000FFC000000001FFC0D0
:1002F00000000003FFC000000007FFC00000000F67
:10030000FFC00000001FFFC00000001FFFC0000072
:10031000003FFFC00000007FDFC0000000FF9FC063
:10032000000001FF9FC0000003FF1FC0000003FE8C
:100330001FC0000007FC1FC0000000001FC000001D
:1003400000001FC0000000001FC0000000001FC010
:10035000000000001FC0000000001FC000000000DF
:100360001FC0000000001FC0000000001FC00000F0
:1003700000001FC0000000001FC0000000001FC0E0
:10038000000000001FC0000000001FC000000000AF
:100390001FC0000000001FC0000000001FC00000C0
:1003A00000001FC0000000001FC0000000001FC0B0
:1003B000000000001FC0000000001FC0000000007F
:1003C0001FC0000000001FC0000000001FC0000090
:1003D00000001FC0000000001FC0000000001FC080
:1003E000000000001FC0000000001FC0000000004F
:1003F0001FC0000000001FC000303001FFFFFFFFE2
:10040000C007FFFFFFFFF01FFFFFFFFFF81FFFFF09
:10041000FFFFFC3FFFFFFFFFFE3FFFFFFFFFFE7FF1
:10042000FFFFFFFFFF7F000000007F7F0000000054
:100430007F7F000000007F7F000000007F00000041
:1004400000007F00000000007F00000000007F002F
:10045000000000007F00000000007F00000000009E
:100460007F00000000007F00000000007F0000000F
:1004700000007F00000000007F01FFFFFFFFFF077B
:10048000FFFFFFFFFE0FFFFFFFFFFE1FFFFFFFFF4E
:10049000FC3FFFFFFFFFF83FFFFFFFFFF07FFFFF85
:1004A000FFFFC07F00000000007F00000000007F11
:1004B00000000000007F00000000007F000000003E
:1004C000007F00000000007F00000000007F0000AF
:1004D0000000007F00000000007F00000000007F9F
:1004E00000000000007F00000000007F000000000E
:1004F000007FFFFFFFFFFF7FFFFFFFFFFF7FFFFF8B
:10050000FFFFFF7FFFFFFFFFFF7FFFFFFFFFFF7F7B
:10051000FFFFFFFFFF7FFFFFFFFFFF303001FFFF07
:10052000FFFF0007FFFFFFFFC01FFFFFFFFFE01FF0
:10053000FFFFFFFFF03FFFFFFFFFF83FFFFFFFFF61
:10054000F87FFFFFFFFFFC7F00000001FC7F000041
:100550000001FC7F00000001FC7F00000001FC00A6
:1005600000000001FC0000000001FC000000000190
:10057000FC0000000001FC0000000001FC00000085
:100580000001FC0000000001FC0000000001FC0074
:1005900000000001FC007FFFFFFFFC007FFFFFFF6A
:1005A000F8007FFFFFFFF8007FFFFFFFFC007FFFE9
:1005B000FFFFFE007FFFFFFFFE007FFFFFFFFF004A
:1005C000000000007F00000000007F00000000002D
:1005D0007F00000000007F00000000007F0000009E
:1005E00000007F00000000007F00000000007F008E
:1005F000000000007F00000000007F7F000000007E
:100600007F7F000000007F7F000000007F7F800070
:1006100000007F7FFFFFFFFFFF3FFFFFFFFFFE3F69
:10062000FFFFFFFFFE1FFFFFFFFFFC0FFFFFFFFFAE
:10063000F807FFFFFFFFF001FFFFFFFFC0303000B2
:100640000000007F8000000000FF8000000001FF2C
:100650008000000003FF8000000007FF8000000012
:100660000FFF800000001FFF800000003FFF8000A0
:1006700000007FFF80000000FFFF80000001FFFFFF
:1006800080000007FFFF8000000FFFBF8000001FF9
:10069000FE3F8000003FFC3F8000007FF83F80006D
:1006A00000FFF03F800001FFE03F800003FF803F3C
:1006B000800007FF003F80000FFE003F80001FFC0E
:1006C000003F80007FF8003F8000FFF0003F800186
:1006D000FFC0003F8003FF80003F8007FF00003F16
:1006E000800FFE00003F801FFC00003F801FFFFFC7
:1006F000FFFFFF1FFFFFFFFFFF1FFFFFFFFFFF1FAA
:10070000FFFFFFFFFF1FFFFFFFFFFF1FFFFFFFFFB9
:10071000FF1FFFFFFFFFFF000000003F8000000001
:10072000003F80000000003F80000000003F80008C
:100730000000003F80000000003F80000000003FFC
:1007400080000000003F80000000003F80000000AB
:10075000003F80000000003F80000000003F80302C
:10076000307FFFFFFFFFFF7FFFFFFFFFFF7FFFFFE8
:10077000FFFFFF7FFFFFFFFFFF7FFFFFFFFFFF7F09
:10078000FFFFFFFFFF7FFFFFFFFFFF7F0000000075
:10079000007F00000000007F00000000007F0000DC
:1007A0000000007F00000000007F00000000007FCC
:1007B00000000000007F00000000007F000000003B
:1007C000007F00000000007F00000000007F0000AC
:1007D0000000007F00000000007FFFFFFFFFC07FE0
:1007E000FFFFFFFFF07FFFFFFFFFF87FFFFFFFFF2F
:1007F000FC7FFFFFFFFFFE7FFFFFFFFFFE7FFFFF8E
:10080000FFFFFF00000000007F00000000007F00ED
:10081000000000007F00000000007F0000000000DA
:100820007F00000000007F00000000007F0000004B
:1008300000007F00000000007F00000000007F7FBC
:10084000000000007F7F000000007F7F00000000AC
:100850007F7F000000007F7FFFFFFFFFFF3FFFFF64
:10086000FFFFFE3FFFFFFFFFFE1FFFFFFFFFFC1F1D
:10087000FFFFFFFFF807FFFFFFFFF001FFFFFFFF94
:10088000C0303001FFFFFFFF0007FFFFFFFF000F39
:10089000FFFFFFFF001FFFFFFFFF003FFFFFFFFF06
:1008A000003FFFFFFFFF007FFFFFFFFF007F000013
:1008B0000000007F00000000007F00000000007FBB
:1008C00000000000007F00000000007F000000002A
:1008D000007F00000000007F00000000007F00009B
:1008E0000000007F00000000007F00000000007F8B
:1008F00000000000007F00000000007FFFFFFFFFFE
:10090000C07FFFFFFFFFF07FFFFFFFFFF87FFFFFCC
:10091000FFFFFC7FFFFFFFFFFE7FFFFFFFFFFE7F6C
:10092000FFFFFFFFFF7F000000007F7F000000004F
:100930007F7F000000007F7F000000007F7F0000BD
:1009400000007F7F000000007F7F000000007F7FAD
:10095000000000007F7F000000007F7F000000009B
:100960007F7F000000007F7F000000007F7F00008D
:1009700000007F7F000000007F7FFFFFFFFFFF3F41
:10098000FFFFFFFFFE3FFFFFFFFFFE1FFFFFFFFF19
:10099000FC0FFFFFFFFFF807FFFFFFFFF001FFFF66
:1009A000FFFFC03030007FFFFFFFC0007FFFFFFF71
:1009B000F0007FFFFFFFF8007FFFFFFFFC007FFFDD
:1009C000FFFFFE007FFFFFFFFE007FFFFFFFFF0036
:1009D000000000007F00000000007F000000000019
:1009E0007F00000000007F00000000007F0000008A
:1009F00000007F00000000007F00000000007F007A
:100A0000000000007F00000000007F0000000000E8
:100A10007F00000000007F00000000007F00000059
:100A200000007F00000000007F00000000007F0049
:100A3000000000007F00000000007F0000000000B8
:100A40007F00000000007F00000000007F00000029
:100A500000007F00000000007F00000000007F0019
:100A6000000000007F00000000007F000000000088
:100A70007F00000000007F00000000007F000000F9
:100A800000007F00000000007F00000000007F00E9
:100A9000000000007F00000000007F000000000058
:100AA0007F00000000007F00000000007F000000C9
:100AB00000007F00000000007F00000000007F00B9
:100AC000000000007F303001FFFFFFFFC007FFFF85
:100AD000FFFFF00FFFFFFFFFF81FFFFFFFFFFC3FCF
:100AE000FFFFFFFFFE3FFFFFFFFFFE7FFFFFFFFF58
:100AF000FF7F000000007F7F000000007F7F00007C
:100B000000007F7F000000007F7F000000007F7FEB
:100B1000000000007F7F000000007F7F00000000D9
:100B20007F7F000000007F7F000000007F7F0000CB
:100B300000007F7F000000007F7F000000007F7FBB
:100B4000000000007F3FFFFFFFFFFE3FFFFFFFFFB2
:100B5000FE3FFFFFFFFFFE3FFFFFFFFFFE3FFFFFE8
:100B6000FFFFFE7FFFFFFFFFFF7F000000007F7F92
:100B7000000000007F7F000000007F7F0000000079
:100B80007F7F000000007F7F000000007F7F00006B
:100B900000007F7F000000007F7F000000007F7F5B
:100BA000000000007F7F000000007F7F0000000049
:100BB0007F7F000000007F7F000000007F7FFFFF3D
:100BC000FFFFFF3FFFFFFFFFFE3FFFFFFFFFFE1F97
:100BD000FFFFFFFFFC0FFFFFFFFFF807FFFFFFFF17
:100BE000F001FFFFFFFFC0303003FFFFFFFFC00F2A
:100BF000FFFFFFFFF01FFFFFFFFFF83FFFFFFFFFBB
:100C0000FC7FFFFFFFFFFE7FFFFFFFFFFEFFFFFFF9
:100C1000FFFFFFFE000000007FFE000000007FFEDF
:100C2000000000007FFE000000007FFE00000000CA
:100C30007FFE000000007FFE000000007FFE00003D
:100C400000007FFE000000007FFE000000007FFE2D
:100C5000000000007FFE000000007FFE000000009A
:100C60007FFE000000007FFFFFFFFFFFFF7FFFFF11
:100C7000FFFFFF7FFFFFFFFFFF3FFFFFFFFFFF1FA4
:100C8000FFFFFFFFFF0FFFFFFFFFFF03FFFFFFFF60
:100C9000FF00000000007F00000000007F00000057
:100CA00000007F00000000007F00000000007F00C7
:100CB000000000007F00000000007F000000000036
:100CC0007F00000000007F00000000007F000000A7
:100CD00000007F00000000007F00000000007FFF98
:100CE000FFFFFFFFFFFFFFFFFFFFFE7FFFFFFFFF95
:100CF000FE3FFFFFFFFFFC3FFFFFFFFFF80FFFFF7F
:100D0000FFFFF003FFFFFFFFC030300000000000D6
:100D100000000000000000000000000000000000D3
:100D200000000000000000000000000000000000C3
:100D300000000000000000000000000000000000B3
:100D400000000000000000000000000000000000A3
:100D50000000000000000000000000000000000093
:100D60000000000000000000000000000000000083
:100D70000000000000000000000000000000000073
:100D8000000000000000000000001FFFFFF800004E
:100D90001FFFFFF800001FFFFFF800001FFFFFF814
:100DA00000001FFFFFF800001FFFFFF800001FFFFB
:100DB000FFF800000000000000000000000000003C
:100DC0000000000000000000000000000000000023
:100DD0000000000000000000000000000000000013
:100DE0000000000000000000000000000000000003
:100DF00000000000000000000000000000000000F3
:100E000000000000000000000000000000000000E2
:100E100000000000000000000000000000000000D2
:100E2000000000000000000000000026260FFFFF69
:100E3000FFC07FFFFFFF83FFFFFFFF1FFFFFFFFEDE
:100E4000FFFFFFFFFFFFFFFFFFFFC000003FFF00AE
:100E50000001FFFC00000FFFF000007FFFC0000753
:100E6000FFFF00003FFFFC0001FEFFF0000FF3FF5B
:100E7000C000FF8FFF0007F83FFC003FC0FFF001FC
:100E8000FE03FFC00FF00FFF00FF803FFC07F800DC
:100E9000FFF03FC003FFC1FE000FFF0FF0003FFC5B
:100EA000FF8000FFF7F80003FFFFC0000FFFFE0008
:100EB000003FFFF00000FFFF800003FFF800000F7D
:100EC000FFC000003FFFFFFFFFFFFFFFFFFFF7FF37
:100ED000FFFFFF8FFFFFFFFC1FFFFFFFE03FFFFF54
:100EE000FF002626000000000000000FC0000000E8
:100EF0007F00000003FC0000001FF0000000FFC0A6
:100F0000000007FF0000003FFC000001FFF00000B0
:100F10000FEFC000007F3F000003F8FC00001FC37C
:100F2000F00000FE0FC00000003F00000000FC00C9
:100F3000000003F00000000FC00000003F000000B0
:100F400000FC00000003F00000000FC00000003FA4
:100F500000000000FC00000003F00000000FC000D3
:100F600000003F00000000FC00000003F000000053
:100F70000FC00000003F00000000FC00000003F074
:100F80000000000FC00000003F00000000FC000057
:100F90000003F00000000FC00026260FFFFFFFC077
:100FA0007FFFFFFF83FFFFFFFF1FFFFFFFFEFFFF2E
:100FB000FFFFFFFFFFFFFFFFC000000FFF0000006B
:100FC0003FFC000000FC00000003F00000000FC028
:100FD0000000003F00000000FC00000003F00000E3
:100FE000000FC00000003F0FFFFFFFFC7FFFFFFF6F
:100FF000F3FFFFFFFF9FFFFFFFFEFFFFFFFFF3FF7A
:10100000FFFFFF0FC00000003F00000000FC0000D9
:101010000003F00000000FC00000003F00000000CF
:10102000FC00000003F00000000FC00000003F00C3
:10103000000000FFFFFFFFFFFFFFFFFFFFFFFFFFBD
:10104000FFFFFFFFFFFFFFFFFFFFFFFFFFFFFFF0BF
:1010500026260FFFFFFF807FFFFFFF03FFFFFFFE3E
:101060001FFFFFFFFCFFFFFFFFFBFFFFFFFFEFC0C6
:1010700000001FBF0000007EFC000001F80000001F
:1010800007E00000001F800000007E00000001F863
:1010900000000007E00000001F800000007E01FF4C
:1010A000FFFFF807FFFFFFC01FFFFFFF807FFFFF6D
:1010B000FF01FFFFFFFC07FFFFFFF000000007C07C
:1010C0000000001F000000007C00000001F0000094
:1010D0000007C00000001F000000007C00000001AD
:1010E000FFC0000007FF0000001FFFFFFFFFFFFF22
:1010F000FFFFFFF7FFFFFFFFDFFFFFFFFE3FFFFFE9
:10110000FFF03FFFFFFF8026260000007F00000069
:1011100003FC0000001FF0000000FFC0000007FFFC
:101120000000003FFC000001FFF000000FFFC000C6
:1011300000FFFF000007FEFC00003FF3F00001FF8E
:101140008FC0000FF83F00007FC0FC0003FE03F0DB
:10115000001FF00FC001FF003F000FF800FC007FF0
:10116000C003F003FC000FC01FE0003F00FF0000C1
:10117000FC07FFFFFFFFDFFFFFFFFF7FFFFFFFFD1C
:10118000FFFFFFFFF7FFFFFFFFDFFFFFFFFF000095
:10119000003F00000000FC00000003F00000000F12
:1011A000C00000003F00000000FC00000003F00051
:1011B00000000FC00000003F00000000FC002626D9
:1011C000FFFFFFFFFFFFFFFFFFFFFFFFFFFFFFFF2F
:1011D000FFFFFFFFFFFFFFFFFFFFFFFFFFC000005C
:1011E000003F00000000FC00000003F00000000FC2
:1011F000C00000003F00000000FC00000003F00001
:1012000000000FC00000003FFFFFFFF0FFFFFFFFE7
:10121000E3FFFFFFFFCFFFFFFFFFBFFFFFFFFFFF6A
:10122000FFFFFFFC00000003F00000000FC0000003
:10123000003F00000000FC00000003F00000000F71
:10124000C00000003F00000000FFF0000003FFC0EE
:1012500000000FFF0000003FFFFFFFFFFFFFFFFF49
:10126000FFF7FFFFFFFF8FFFFFFFFC1FFFFFFFE008
:101270003FFFFFFF0026260FFFFFFF007FFFFFFC61
:1012800003FFFFFFF01FFFFFFFC0FFFFFFFF03FF94
:10129000FFFFFC0FC00000003F00000000FC00004A
:1012A0000003F00000000FC00000003F000000003D
:1012B000FC00000003F00000000FC00000003FFF32
:1012C000FFFFF0FFFFFFFFE3FFFFFFFFCFFFFFFF89
:1012D000FFBFFFFFFFFFFFFFFFFFFFF0000003FF67
:1012E000C000000FFF0000003FFC000000FFF00006
:1012F0000003FFC000000FFF0000003FFC000000E3
:10130000FFF0000003FFC000000FFF0000003FFFE0
:10131000FFFFFFFFFFFFFFFFF7FFFFFFFF8FFFFF55
:10132000FFFC1FFFFFFFE03FFFFFFF00262603FF3C
:10133000FFFF800FFFFFFF803FFFFFFF00FFFFFF6A
:10134000FE03FFFFFFFC0FFFFFFFF00000000FC0D8
:101350000000003F00000000FC00000003F000005F
:10136000000FC00000003F00000000FC0000000370
:10137000F00000000FC00000003F00000000FC0073
:10138000000003F00000000FC00000003F0000005C
:1013900000FC00000003F00000000FC00000003F50
:1013A00000000000FC00000003F00000000FC0007F
:1013B00000003F00000000FC00000003F0000000FF
:1013C0000FC00000003F00000000FC00000003F020
:1013D0000000000FC00000003F00000000FC000003
:1013E0000003F026260FFFFFFFC07FFFFFFF83FFF4
:1013F000FFFFFF1FFFFFFFFEFFFFFFFFFFFFFFFFDE
:10140000FFFFC000000FFF0000003FFC000000FFD6
:10141000F0000003FFC000000FFF0000003FFC00D1
:101420000000FFF0000003FFC000000FFF000000FD
:101430003FFFFFFFFFFDFFFFFFFFE7FFFFFFFF9FF6
:10144000FFFFFFFEFFFFFFFFFFF0000003FFC000F4
:10145000000FFF0000003FFC000000FFF000000351
:10146000FFC000000FFF0000003FFC000000FFF085
:10147000000003FFC000000FFF0000003FFFFFFF60
:10148000FFFFFFFFFFFFF7FFFFFFFF8FFFFFFFFCE7
:101490001FFFFFFFE03FFFFFFF0026260FFFFFFFBC
:1014A000C07FFFFFFF83FFFFFFFF1FFFFFFFFEFF68
:1014B000FFFFFFFFFFFFFFFFFFC000000FFF000067
:1014C000003FFC000000FFF0000003FFC000000F21
:1014D000FF0000003FFC000000FFF0000003FFC021
:1014E00000000FFF0000003FFFFFFFFFFFFFFFFFB7
:1014F000FFF7FFFFFFFFDFFFFFFFFF3FFFFFFFFCE7
:101500003FFFFFFFF00000000FC00000003F0000A1
:101510000000FC00000003F00000000FC00000000D
:101520003F00000000FC00000003F00000000FC0BE
:101530000000003FFFFFFFFFFFFFFFFFFFF7FFFF80
:10154000FFFF8FFFFFFFFC1FFFFFFFE03FFFFFFFDD
:10155000002626000000000000000000000000003F
:10156000000000000000000000000000000000007B
:10157000000000000000000000000000000000006B
:10158000000000000000000000000000000000005B
:10159000000000000000000000000000000000004B
:1015A000FFFFFC0003FFFFF0000FFFFFC0003FFF45
:1015B000FF0000FFFFFC0003FFFFF0000000000041
:1015C000000000000000000000000000000000001B
:1015D000000000000000000000000000000000000B
:1015E00000000000000000000000000000000000FB
:1015F00000000000000000000000000000000000EB
:1016000000000000000000001D1D1FFFFFC1FFFFC4
:10161000FF1FFFFFFDFFFFFFFF00003FF80003FF7C
:10162000C0003FFE0003FFF0007FFF8007FBFC00CF
:101630007F9FE007F8FF007F87F807F03FC07F013A
:10164000FE0FF00FF0FF007F8FF003FCFF001FEF95
:10165000E000FFFE0007FFE0003FFE0001FFE000AA
:101660000FFC00007FFFFFFFDFFFFFFC7FFFFFC1DC
:10167000FFFFFC001D1D0003E000003F000003F819
:1016800000003FC00003FE00001FF00001F78000D3
:101690001FBC0001F9E0001F8F000000780000036C
:1016A000C000001E000000F00000078000003C00A9
:1016B0000001E000000F00000078000003C00000FF
:1016C0001E000000F00000078000003C000001E068
:1016D00000000F00000078000003C000001E0000A2
:1016E0001D1D1FFFFFC1FFFFFF1FFFFFFDFFFFFFCE
:1016F000FF000007F800003FC00001E000000F00FD
:10170000000078000003C000001E000000F0000090
:10171000078FFFFFFCFFFFFFCFFFFFFCFFFFFFC7AF
:101720008000003C000001E000000F000000780095
:101730000003C000001E000000F0000007FFFFFFD4
:10174000FFFFFFFFFFFFFFFFFFFFFF801D1D1FFFCC
:10175000FF81FFFFFE1FFFFFF9FFFFFFEF00000FFC
:101760007800007BC00003C000001E000000F000F5
:1017700000078000003C000001E03FFFFF01FFFF89
:10178000F80FFFFFC07FFFFF00000078000003C0DC
:1017900000001E000000F00000078000003C000078
:1017A00001FE00000FF000007FFFFFFFDFFFFFFCE6
:1017B000FFFFFFC1FFFFFC001D1D00001F00000117
:1017C000F800001FC00001FE00001FF00001FF80B4
:1017D000001FFC0001FDE0001FCF0001FC78001F8E
:1017E000C3C001FC1E003FC0F003F807803F803CEF
:1017F00003F801E03F800F03F800781FFFFFFCFFB4
:10180000FFFFE7FFFFFF3FFFFFF800003C00000184
:10181000E000000F00000078000003C000001E0080
:101820000000F0001D1DFFFFFFFFFFFFFFFFFFFF98
:10183000FFFFFFFFFF00000078000003C000001E54
:10184000000000F00000078000003C000001E00004
:10185000000FFFFFFC7FFFFFF3FFFFFFDFFFFFFF36
:1018600000000078000003C000001E000000F0002F
:1018700000078000003FC00001FE00000FF00000E4
:101880007FFFFFFFDFFFFFFC7FFFFFC1FFFFFC00CB
:101890001D1D1FFFFF03FFFFF81FFFFFC1FFFFFE1E
:1018A0000F00000078000003C000001E000000F0E0
:1018B0000000078000003C000001E000000FFFFF77
:1018C000FC7FFFFFF3FFFFFFDFFFFFFFF000007F64
:1018D000800003FC00001FE00000FF000007F8008C
:1018E000003FC00001FE00000FF000007FFFFFFF7F
:1018F000DFFFFFFC7FFFFFC1FFFFFC001D1D1FFF7F
:10190000FF00FFFFFE07FFFFF03FFFFFC000001ECC
:10191000000000F00000078000003C000001E00033
:10192000000F00000078000003C000001E0000004F
:10193000F00000078000003C000001E000000F0004
:10194000000078000003C000001E000000F000004E
:10195000078000003C000001E000000F000000785C
:10196000000003C000001E001D1D1FFFFFC1FFFF80
:10197000FF1FFFFFFDFFFFFFFF000007F800003F14
:10198000C00001FE00000FF000007F800003FC009B
:10199000001FE00000FFFFFFFFBFFFFFF9FFFFFF99
:1019A000DFFFFFFFF000007F800003FC00001FE06E
:1019B0000000FF000007F800003FC00001FE00002B
:1019C0000FF000007FFFFFFFDFFFFFFC7FFFFFC185
:1019D000FFFFFC001D1D1FFFFFC1FFFFFF1FFFFFDB
:1019E000FDFFFFFFFF000007F800003FC00001FE01
:1019F00000000FF000007F800003FC00001FE000EB
:101A000000FF000007FFFFFFFDFFFFFFE7FFFFFFF5
:101A10001FFFFFF8000003C000001E000000F000E0
:101A200000078000003C000001E000000F00000003
:101A30007FFFFFFFDFFFFFFCFFFFFFC1FFFFFC0099
:101A40001D1D00000000000000000000000000005C
:101A50000000000000000000000000000000000086
:101A600000000000000000000000000000003FFF38
:101A7000C001FFFE000FFFF0007FFF8000000000AC
:101A80000000000000000000000000000000000056
:101A90000000000000000000000000000000000046
:101AA0000000000000000000000000008014FFFFA4
:101AB000FFFFFFFFFFFFFFFFFFFFFFFFFFFFFFFF36
:101AC000FFFFFFFFFFFFFFFFFFFFFFFFFFFFFFFF26
:101AD000FFFFFFFFFFFFFFFFFFFFFFFFFFFFFFFF16
:101AE000FFFFFFFFFFFFFFFFFFFFFFFFFFFFFFFF06
:101AF000FFFFFFFFFFFFFFFFFFFFFFFFFFFFFFFFF6
:101B0000FFFFFFFFFFFFFFFFFFFFFFFFFFFFFFFFE5
:101B1000FFFFFFFFFFFFFFFFFFFFFFFFFFFFFFFFD5
:101B2000FFFFFFFFFFFFFFFFFFFFFFFFFFFFFFFFC5
:101B3000FFFFFFFFFFFFFFFFFFFFFFFFFFFFFFFFB5
:101B4000FFFFFFFFFFFFFFFFFFFFFFFFFFFFFFFFA5
:101B5000FFFFFFFFFFFFFFFFFFFFFFFFFFFFFFFF95
:101B6000FFFFFFFFFFFFFFFFFFFFFFFFFFFFFFFF85
:101B7000FFFFFFFFFFFFFFFFFFFFFFFFFFFFFFFF75
:101B8000FFFFFFFFFFFFFFFFFFFFFFFFFFFFFFFF65
:101B9000FFFFFFFFFFFFFFFFFFFFFFFFFFFFFFFF55
:101BA000FFFFFFFFFFFFFFFFFFFFFFFFFFFFFFFF45
:101BB000FFFFFFFFFFFFFFFFFFFFFFFFFFFFFFFF35
:101BC000FFFFFFFFFFFFFFFFFFFFFFFFFFFFFFFF25
:101BD000FFFFFFFFFFFFFFFFFFFFFFFFFFFFFFFF15
:101BE000FFFFFFFFFFFFFFFFFFFFFFFFFFFF80146F
:101BF000183060C183060C18183060C183060C18B9
:101C0000183060C183060C18183060C183060C18A8
:101C10003C78F1E3C78F1E3C3C78F1E3C78F1E3C54
:101C20003C78F1E3C78F1E3C3C78F1E3C78F1E3C44
:101C30003C78F1E3C78F1E3C3C78F1E3C78F1E3C34
:101C40003C78F1E3C78F1E3C3C78F1E3C78F1E3C24
:101C50003C78F1E3C78F1E3C3C78F1E3C78F1E3C14
:101C60003C78F1E3C78F1E3C3C78F1E3C78F1E3C04
:101C70007EFDFBF7EFDFBF7E7EFDFBF7EFDFBF7E74
:101C80007EFDFBF7EFDFBF7E7EFDFBF7EFDFBF7E64
:101C90007EFDFBF7EFDFBF7E7EFDFBF7EFDFBF7E54
:101CA0007EFDFBF7EFDFBF7E7EFDFBF7EFDFBF7E44
:101CB0007EFDFBF7EFDFBF7E7EFDFBF7EFDFBF7E34
:101CC0007EFDFBF7EFDFBF7E7EFDFBF7EFDFBF7E24
:101CD0007EFDFBF7EFDFBF7E7EFDFBF7EFDFBF7E14
:101CE0007EFDFBF7EFDFBF7E7EFDFBF7EFDFBF7E04
:101CF0007EFDFBF7EFDFBF7E7EFDFBF7EFDFBF7EF4
:101D00007EFDFBF7EFDFBF7E7EFDFBF7EFDFBF7EE3
:101D10003C78F1E3C78F1E3C3C78F1E3C78F1E3C53
:101D20007EFDFBF7EFDFBF7E7EFDFBF7EFDFBF7EC3
:101D300080143FFFFFFFFFFFFFFFFFFFFFFFFFFFDD
:101D4000FFFC600000000000000000000000000038
:101D50000006CE7E7E7E7E7E7E7E7E7E7E7E7E7E49
:101D60007E739E7E7E7E7E7E7E7E7E7E7E7E7E7E7E
:101D70007E79BE7E7E7E7E7E7E7E7E7E7E7E7E7E48
:101D80007E7DBE7E7E7E7E7E7E7E7E7E7E7E7E7E34
:101D90007E7DBE7E7E7E7E7E7E7E7E7E7E7E7E7E24
:101DA0007E7DBE7E7E7E7E7E7E7E7E7E7E7E7E7E14
:101DB0007E7DBE7E7E7E7E7E7E7E7E7E7E7E7E7E04
:101DC0007E7DBE7E7E7E7E7E7E7E7E7E7E7E7E7EF4
:101DD0007E7DBE7E7E7E7E7E7E7E7E7E7E7E7E7EE4
:101DE0007E7DBE7E7E7E7E7E7E7E7E7E7E7E7E7ED4
:101DF0007E7DBE7E7E7E7E7E7E7E7E7E7E7E7E7EC4
:101E00007E7DBE7E7E7E7E7E7E7E7E7E7E7E7E7EB3
:101E10007E7DBE7E7E7E7E7E7E7E7E7E7E7E7E7EA3
:101E20007E7DBE7E7E7E7E7E7E7E7E7E7E7E7E7E93
:101E30007E7D9E7E7E7E7E7E7E7E7E7E7E7E7E7EA3
:101E40007E79CE7E7E7E7E7E7E7E7E7E7E7E7E7E67
:101E50007E73600000000000000000000000000031
:101E600000063FFFFFFFFFFFFFFFFFFFFFFFFFFF3A
:101E7000FFFC8014FFF3FFF3FFF3FFFE7FFFCFFFB4
:101E8000CFFFCFFFFFF3FFF3FFF3FFFE7FFFCFFF97
:101E9000CFFFCFFFFFF3FFF3FFF3FFFE7FFFCFFF87
:101EA000CFFFCFFFFFF3FFF3FFF3FFFE7FFFCFFF77
:101EB000CFFFCFFFFFF9FFF9FFF9FFFE7FFF9FFF85
:101EC0009FFF9FFFFFF9FFF9FFF9FFFE7FFF9FFFD5
:101ED0009FFF9FFFFFF9FFF9FFF9FFFE7FFF9FFFC5
:101EE0009FFF9FFFFFFCFFFCFFFCFFFE7FFF3FFF0C
:101EF0003FFF3FFFFFFCFFFCFFFCFFFE7FFF3FFFBC
:101F00003FFF3FFFFFFCFFFCFFFCFFFE7FFF3FFFAB
:101F10003FFF3FFFFFFCFFFCFFFCFFFE7FFF3FFF9B
:101F20003FFF3FFFFFFE7FFE7FFE7FFE7FFE7FFEC7
:101F30007FFE7FFFFFFE7FFE7FFE7FFE7FFE7FFE38
:101F40007FFE7FFFFFFE7FFE7FFE7FFE7FFE7FFE28
:101F50007FFE7FFF3FFF3FFF3FFF3FFE7FFCFFFC19
:101F6000FFFCFFFC00FF3FFF3FFF3FFE7FFCFFFC4D
:101F7000FFFCFF0000003FFF3FFF3FFE7FFCFFFC38
:101F8000FFFC0000000000FF3FFF3FFE7FFCFFFC66
:101F9000FF000000000000001FFF9FFE7FF9FFF818
:101FA0000000000000000000000007FE7FE00000CD
:101FB0000000000000000000003E5B4F5B3E3E6BF7
:101FC0004F6B3E1C3E7C3E1C183C7E3C181C577DD3
:101FD000571C1C5E7F5E1C00183C1800FFE7C3E71F
:101FE000FF0018241800FFE7DBE7FF30483A060E31
:101FF0002629792926407F050507407F05253F5A78
:102000003CE73C5A7F3E1C1C08081C1C3E7F1422E7
:102010007F22145F5F005F5F06097F017F00668992
:10202000956A606060606094A2FFA29408047E04D8
:102030000810207E201008082A1C08081C2A0808FE
:102040001E101010100C1E0C1E0C30383E383006BE
:102050000E3E0E06000000000000005F00000007BA
:10206000000700147F147F14242A7F2A12231308E8
:10207000646236495620500008070300001C2241C4
:10208000000041221C002A1C7F1C2A08083E080868
:102090000080703000080808080800006060002018
:1020A000100804023E5149453E00427F40007249FB
:1020B0004949462141494D331814127F102745459F
:1020C00045393C4A494931412111090736494949B5
:1020D00036464949291E0000140000004034000023
:1020E000000814224114141414140041221408028C
:1020F000015909063E415D594E7C1211127C7F49FF
:102100004949363E414141227F4141413E7F494953
:1021100049417F090909013E414151737F0808087F
:102120007F00417F41002040413F017F0814224150
:102130007F404040407F021C027F7F0408107F3EAA
:102140004141413E7F090909063E4151215E7F0917
:10215000192946264949493203017F01033F40407E
:10216000403F1F2040201F3F4038403F6314081469
:102170006303047804036159494D43007F414141A1
:102180000204081020004141417F04020102044082
:1021900040404040000307080020545478407F2806
:1021A0004444383844444428384444287F385454FC
:1021B000541800087E090218A4A49C787F0804041F
:1021C0007800447D40002040403D007F10284400BE
:1021D00000417F40007C047804787C08040478384F
:1021E00044444438FC1824241818242418FC7C087F
:1021F000040408485454542404043F44243C4040FC
:10220000207C1C2040201C3C4030403C44281028AE
:10221000444C9090907C4464544C440008364100F7
:102220000000770000004136080002010204023C71
:102230002623263C1EA1A161123A4040207A385440
:1022400054555921555579412254547842215554B9
:10225000784020545579400C1E527212395555550C
:1022600059395454545939555454580000457C41F7
:102270000002457D420001457C407D1211127DF037
:10228000282528F07C545545002054547C547C0A61
:10229000097F4932494949323A4444443A324A482A
:1022A00048303A4141217A3A42402078009DA0A02E
:1022B0007D3D4242423D3D4040403D3C24FF242480
:1022C000487E4943662B2FFC2F2BFF0929F620C09F
:1022D000887E090320545479410000447D413048F0
:1022E000484A32384040227A007A0A0A727D0D1933
:1022F000317D2629292F28262929292630484D4095
:1023000020380808080808080808382F10C8ACBA90
:102310002F102834FA00007B000008142A1422220F
:10232000142A14085500550055AA55AA55AAFF5558
:10233000FF55FF000000FF00101010FF00141414E0
:10234000FF001010FF00FF1010F010F0141414FC28
:10235000001414F700FF0000FF00FF1414F404FC45
:10236000141417101F10101F101F1414141F001026
:102370001010F0000000001F101010101F1010109F
:1023800010F010000000FF101010101010101010AE
:10239000FF10000000FF140000FF00FF00001F10EE
:1023A000170000FC04F414141710171414F404F4A8
:1023B0000000FF00F714141414141414F700F71499
:1023C0001414171410101F101F141414F4141010E8
:1023D000F010F000001F101F0000001F140000008C
:1023E000FC140000F010F01010FF10FF141414FF84
:1023F000141010101F00000000F010FFFFFFFFFF7F
:10240000F0F0F0F0F0FFFFFF0000000000FFFF0F12
:102410000F0F0F0F3844443844FC4A4A4A347E02B6
:10242000020606027E027E02635549416338444437
:102430003C04407E201E2006027E020299A5E7A5EC
:10244000991C2A492A1C4C7201724C304A4D4D305D
:102450003048784830BC625A463D3E494949007E82
:102460000101017E2A2A2A2A2A44445F4444405119
:102470004A444040444A51400000FF0103E080FFCD
:10248000000008086B6B083612362436060F090F59
:1024900006000018180000001010003040FF010175
:1024A000001F01011E00191D1712003C3C3C3C009E
:1024B00000000000417263004261720042756C6C62
:1024C00065747300536F6C6964005374616E64616A
:1024D0006C6F6E65203976004C69506F2031312E5B
:1024E0003476004C69506F20372E3476004E694D9B
:1024F0004820392E367620382D63656C6C004E6985
:102500004D4820382E347620372D63656C6C005290
:10251000617720766F6C7461676500466163746FE4
:10252000727920726573657400416D6D6F20626110
:102530007220666C61736800416D6D6F206261721C
:10254000206469722E2000416D6D6F2042617220FF
:102550005374796C6500416D6D6F20636F6C6F72A1
:102560002028312F332900416D6D6F20636F6C6F10
:10257000722028322F332900416D6D6F20636F6CFC
:102580006F72202846756C6C29004261636B67721C
:102590006F756E6420636F6C6F7200554920436FD6
:1025A0006C6F7200526F7461746520554920393028
:1025B000206467727300363A00353A00343A0033CB
:1025C0003A00323A00313A003C3C204261636B00F1
:1025D0004E6578742070616765203E3E00536176D9
:1025E00065206272696768746E6573730042617416
:1025F0007465727920736574757000554920536550
:102600007474696E6773005365742074696D650036
:102610004D616E6167652050726573657473003C2F
:102620003C205361766520262045786974000000BF
:102630000008000201000003040700000000000081
:10264000000000000000250028002B000000000012
:10265000240027002A0004040404040404040202E1
:102660000202020203030303030301020408102011
:102670004080010204081020010204081020C42434
:10268000BC24B824B4240F25FE24ED24E324D8244C
:10269000CA24C8254725382529251B25C825A42552
:1026A0009B258A25782567255625C825C525C22559
:1026B000BF25BC25B925B6251F2610260726FB25D4
:1026C000ED25DD25D0258B3711241FBECFEFD8E0B7
:1026D000DEBFCDBF11E0A0E0B1E0E8EBFBE702C058
:1026E00005900D92AA3EB107D9F724E0AAEEB1E019
:1026F00001C01D92A63CB207E1F713E1C4E6D3E1A5
:1027000004C02197FE010E94CF3DC336D107C9F70F
:102710000E945B2F0C94DA3D0C940000F8944B99C6
:1027200020C08091EA0181111EC0E091FF01F0E01C
:10273000EE0FFF1FE051FD4F20813181809100029B
:102740009091010237FF02C0019601C0019790935A
:1027500001028093000281E0809302028093EA01EB
:1027600002C01092EA017894089508950895EF92B6
:10277000FF920F931F934091F4012091ED0130914E
:10278000EE01423069F0433021F04130B1F4207E57
:102790000EC03770982F8827990F990F990F07C08F
:1027A0002F71387F45E0880F991F4A95E1F7822BFA
:1027B000932B9093EE018093ED01E090ED01F0906A
:1027C000EE0108E110E028E130E040E150E068E58A
:1027D00070E083E894E00E94C62D1F910F91FF9056
:1027E000EF90089589E394E09093E4028093E302EC
:1027F000E3E8F4E08091F40190E0019724E0880F91
:10280000991F2A95E1F72BE230E0A901481B590BEB
:102810005587448782E790E0978786878FE60C94F8
:10282000612528E047E061E871E08BEE93E00E94CB
:102830009E26E3E8F4E085E090E09587848784E7CE
:1028400090E09787868782E191E00E94E9258AE0FF
:1028500091E00C94E925809300030C94111480936B
:10286000F401813059F088F0823029F0833079F515
:1028700025E234E005C021E134E002C02DEF33E071
:102880003093E4022093E30222C0E091EB01F09147
:10289000EC018091ED019091EE0191838083809114
:1028A000E8029091E9022091E6023091E70230932C
:1028B000940420939304909396048093950428E0C5
:1028C00045E06CE871E08FE394E00C949E2690E084
:1028D000019724E0880F991F2A95E1F72BE230E059
:1028E000A901481B590B5093900440938F0482E731
:1028F00090E090939204809391048EE50C9461256E
:10290000EF92FF920F931F93CF93DF93EC0180918F
:10291000610490E0FC01EE0FFF1FE251FD4FD183F7
:10292000C0832FE534E03093E4022093E302E0908B
:10293000E802F090E90240916B0450916C04209100
:102940006D0430916E04240F351F289FB001299F1C
:10295000700D389F700D11244091670450916804E8
:102960004E5F5F4F460F571F0AE010E02AE030E04D
:1029700060E570E083E894E00E946320CD2B61F570
:1029800020916B0430916C0480916D0490916E04E1
:10299000280F391F80916104829FA001839F500DF1
:1029A000112480916704909168040296840F951F0A
:1029B0002AE530E03093900420938F0490939204A2
:1029C0008093910488E991E0DF91CF911F910F915D
:1029D000FF90EF900C94E725DF91CF911F910F911D
:1029E000FF90EF900895CF93DF93EC0120916B045B
:1029F00030916C0480916D0490916E04280F391F02
:102A000080916104829FA001839F500D11248091C9
:102A10006704909168040296840F951F2AE530E0C0
:102A20003093900420938F049093920480939104A8
:102A3000D7FF05C08CE991E00E94E72503C0CE01D5
:102A40000E94B92580E20E946125C53F21E0D2079E
:102A500054F08091F1019091F2018E3E924030F05D
:102A600081E090E00FC0C536D10554F08091F101AE
:102A70009091F2018E3E924018F084E190E002C005
:102A800084E690E090935A0480935904DF91CF91AB
:102A900008950F931F93CF93DF93EDEDF3E0F09341
:102AA000E402E093E3028091C30490E0978386837D
:102AB000C6EED2E00A811B812CE030E04EE350E00C
:102AC00062E370E083E894E00E942E2E0881198171
:102AD0002CE030E04EE350E064E470E083E894E002
:102AE0000E942E2EDF91CF911F910F9108952F926A
:102AF0003F924F925F926F927F928F929F92AF928E
:102B0000BF92CF92DF92EF92FF920F931F93CF93DA
:102B1000DF93CDB7DEB729970FB6F894DEBF0FBEAF
:102B2000CDBF282F811129C0E090E802F090E90282
:102B300004E110E020E830E040E050E060E070E0C8
:102B400083E894E00E94C62D29960FB6F894DEBF64
:102B50000FBECDBFDF91CF911F910F91FF90EF90EE
:102B6000DF90CF90BF90AF909F908F907F906F90AD
:102B70005F904F903F902F9008958038D1F4299620
:102B80000FB6F894DEBF0FBECDBFDF91CF911F917E
:102B90000F91FF90EF90DF90CF90BF90AF909F90FC
:102BA0008F907F906F905F904F903F902F900C94FC
:102BB000EB2380E890E0821B91092091FF02222301
:102BC00019F09195819591092091E8022B8340910C
:102BD000E9024C835091FD015D83E091FE01EE839B
:102BE0006091000342E451E0649F9001659F300DC5
:102BF0001124A9014455554E7A01FA01F491F88740
:102C0000FA01319624912F8397FF05C0482F4195F3
:102C10004A83D12C02C0D82E1A820F8101502885F8
:102C2000215040E060E083E894E00E94872DF701A6
:102C30003296549159838885082F10E09F81A92EE0
:102C4000B12C899F1001112483E894E00E94FE2C8E
:102C500019861886612C512C712C48018D18910809
:102C600001501109E885F9852E163F0609F455C073
:102C7000F9818F2F90E020E830E0062C02C03595D6
:102C800027950A94E2F782239323C72CD12C892B12
:102C900069F02A81721650F0C814D9043CF4852DCD
:102CA00090E0442443948A159B050CF0412C83E862
:102CB00094E00E94F42C411002C08C8101C08E81EE
:102CC0000E94152D83E894E00E94F42C411002C06C
:102CD0008B8101C08D810E94152D488559854F5FDC
:102CE0005F4F5987488756E0561510F063940DC022
:102CF000E885F98583E0F695E7958A95E1F73296C0
:102D0000EE0DFF1D84918983612CC016D10614F449
:102D10007394A8CF5394712CA5CF83E894E029969F
:102D20000FB6F894DEBF0FBECDBFDF91CF911F91DC
:102D30000F91FF90EF90DF90CF90BF90AF909F905A
:102D40008F907F906F905F904F903F902F900C945A
:102D50000A2DE091FF01F0E0EE0FFF1FE051FD4F63
:102D60002081318137FF0AC08091EA029091EB0205
:102D70009093FE018093FD0180E032C060910002DB
:102D8000709101021616170614F5CB01770FAA0BE6
:102D9000BB0BBC01CD0147E0660F771F881F991F51
:102DA0004A95D1F7032E000C440B550B0E94833932
:102DB000822F263528F02091EA023091EB020CC0D8
:102DC0002B3230F02091EC023091ED0205C080E012
:102DD0002091EE023091EF023093FE012093FD012D
:102DE0000C9477150F931F93CF93DF931092E40207
:102DF0001092E3021092E502C6EED2E06A817B8176
:102E000083E894E00E94702A0A811B81288139811D
:102E100045E251E068E770E088E590E00E94CC264A
:102E20000A811B81288139814CE151E068E770E01B
:102E300085E290E00E94CC260E94A91681E0809352
:102E400002020E9496241092EF01DF91CF911F9110
:102E50000F9108958091C4048A3018F480E30E9491
:102E600061256091C40470E080E090E04AE00E9437
:102E700078258AE30E9461258091C3048A3018F482
:102E800080E30E9461256091C30470E080E090E0DF
:102E90004AE00C947825EF92FF920F931F93CF9303
:102EA000DF9390E08730910508F032C1FC01EC5CC3
:102EB000FF4F0C94CF3DF999FECF06EE12E0C2E031
:102EC000D0E0F80161918F01CE010E946339219613
:102ED000CE31D105B1F7DF91CF911F910F91FF90C6
:102EE000EF900C94F21628E042E06FE971E08FE574
:102EF00094E00E949E2600EF12E0C1E0D0E08AE557
:102F0000E82EF12C8091620490E0C817D9070CF0EC
:102F1000FFC020916B0430916C0480916D049091FE
:102F20006E04280F391F2C9FA0012D9F500D3C9F30
:102F3000500D112480916704909168040296840FCB
:102F4000951FF0929004E0928F04909392048093E6
:102F50009104F801819191918F0197FF03C08CE951
:102F600091E007C0009719F00E94B92504C088E9D4
:102F700091E00E94E7252196C5CF8FEC93E09093D6
:102F8000E4028093E3028091C40490E09093D6031E
:102F90008093D5036091E8027091E90283E894E0A0
:102FA0000E94702A82E390E09093900480938F04B3
:102FB00090939204809391040E942A170091E60254
:102FC0001091E7022CE030E04EE350E062E370E065
:102FD00083E894E00E942E2E9BC028E045E06CE838
:102FE00071E08FE394E0DF91CF911F910F91FF90FB
:102FF000EF900C949E268091FE028093BF0322E105
:1030000048E067EA71E08DEB93E00E949E262091F4
:10301000C9033091CA038091CB039091CC03280F50
:10302000391F8091FE02829FA001839F500D1124C1
:103030008091C5039091C6030296840F951F28E0E6
:1030400030E03093900420938F0490939204809307
:1030500091048EE3DF91CF911F910F91FF90EF903C
:103060000C946125F999FECF6091FB0181E090E01D
:103070000E9463398091E6029091E7022091E80274
:103080003091E90230939404209393049093960432
:103090008093950420917D0430917E0480917F047B
:1030A00090918004280F391F85E0829FA001839FA3
:1030B000500D11248091790490917A040296840F26
:1030C000951F29E630E03093900420938F0490936D
:1030D00092048093910485EB91E00E94E725809112
:1030E000E8029091E9022091E6023091E7023093E4
:1030F000940420939304909396048093950408C0BD
:10310000DF91CF911F910F91FF90EF900C941114CC
:10311000DF91CF911F910F91FF90EF9008958091D3
:10312000D5038093C404E3E8F4E082E390E095875C
:103130008487978786870C942A178091E30380936E
:10314000C304E3E8F4E082E390E0958784879787FF
:1031500086870C942A1781E08093E5026091E8024B
:103160007091E90283E894E00E94702AE3E8F4E0B9
:1031700088E290E095878487178616868FE891E02D
:103180000E94E7254CE050E068E070E081E794E0C1
:103190000E94042681E794E09093E4028093E30286
:1031A0000895CF93811103C0CF910C94AB18C82F11
:1031B00020916B0430916C0480916D0490916E04A9
:1031C000280F391FC29FA001C39F500D1124809169
:1031D0006704909168040296840F951F20E530E003
:1031E0003093900420938F049093920480939104E1
:1031F0008EE30E9461252091610430E040916B04D0
:1032000050916C0480916D0490916E04480F591F89
:10321000429FB001439F700D529F700D1124809109
:103220006704909168040296860F971F4AE550E064
:103230005093900440938F04909392048093910450
:10324000C13019F481E090E002C08FEF9FEF9093BE
:1032500054048093530481E594E09093E4028093B6
:10326000E302220F331FF901E251FD4F808191816A
:10327000909358048093570497FF05C08CE991E020
:103280000E94E72502C00E94B92588EB91E0CF910A
:103290000C94E72581E08093F0010C94AB18823008
:1032A00009F440C028F4882351F0813051F008958A
:1032B000833009F461C0843009F48AC008950C9405
:1032C000AB188091FE028093BF0322E149E065ECD8
:1032D00071E08BEA93E00E949E262091B703309123
:1032E000B8038091B9039091BA03280F391F8091D8
:1032F0000003829FA001839F500D11248091B3038E
:103300009091B4030296840F951F28E030E030932B
:10331000900420938F0490939204809391048EE301
:103320000C9461259091FF0281E089278093FF0230
:1033300024E630E03093900420938F042EE230E0B6
:1033400030939204209391042091E6023091E70299
:103350004091E8025091E902509394044093930401
:103360003093960420939504811103C08EEB91E075
:103370002CC08BEB91E029C09091010381E089275B
:103380008093010324E630E03093900420938F046F
:103390002EE330E030939204209391042091E602D2
:1033A0003091E7024091E8025091E9025093940471
:1033B000409393043093960420939504811103C0A5
:1033C00088E991E002C081EC91E00E94E72534C0D9
:1033D0008091EF018F5F8093EF01863020F00E9493
:1033E00033240C94F21684E690E09093900480933A
:1033F0008F048EE490E090939204809391048091E6
:10340000E6029091E7022091E8023091E9023093C0
:1034100094042093930490939604809395048EE3F0
:103420000E9461259091EF0126E030E0A901491B3F
:103430005109CA010E94B9258091E8029091E902E0
:103440002091E6023091E702309394042093930494
:1034500090939604809395040895682F8091E302D9
:103460009091E402009739F0DC01ED91FC9101901C
:10347000F081E02D0994623051F018F46130C1F010
:103480000895633081F16F3F09F456C0089580912B
:10349000E502882319F08F3F49F008958091FF01DC
:1034A0008093F50181E08093FC0139C00C94AB1846
:1034B0008091E502811154C08091FC01882309F4B8
:1034C0004FC08091F501882311F0815001C085E043
:1034D000E82FF0E0EE0FFF1FE051FD4F208131811A
:1034E000232B89F319C08091E502811139C08091A5
:1034F000FC018823A9F18091F501853010F48F5FDC
:1035000001C080E0E82FF0E0EE0FFF1FE051FD4F1B
:1035100020813181232B89F38093F50181E0809311
:10352000FA010E94542C6093F6017093F701809386
:10353000F8019093F9010895E091FF01F0E0EE0F9A
:10354000FF1FE051FD4F8081918197FF02C080E015
:1035500090E0909301028093000282E08093020247
:103560000895809105024A9913C0811119C0809174
:10357000030290910402049798F08FEF0E942D1A95
:1035800081E08093050210920D0410920C0404C097
:10359000882331F010920502109204021092030267
:1035A00008958093FE020C94AB18EF92FF920F9354
:1035B0001F9380913B04811141C0E090E602F0909E
:1035C000E7020CE010E028E330E044E650E060E47D
:1035D00070E083E894E00E94C62D8091E60290910D
:1035E000E7022091E8023091E9023093940420939D
:1035F0009304909396048093950480E590E09093D3
:10360000900480938F0486E690E0909392048093D8
:10361000910484ED91E00E94E7258091E802909169
:10362000E9022091E6023091E7023093940420935E
:103630009304909396048093950419C090E00197A9
:1036400034E0880F991F3A95E1F72BE230E0A901A9
:10365000481B590B5093900440938F0482E790E0ED
:1036600090939204809391048FE60E94612580914B
:10367000F40190913B04981709F450C0811131C0B6
:10368000E090E602F090E7020CE010E028E330E082
:1036900044E650E060E470E083E894E00E94C21EDB
:1036A000E090E802F090E9020AE010E026E330E062
:1036B00045E650E061E470E083E894E00E94C62DA6
:1036C00080E590E09093900480938F0486E690E0EC
:1036D000909392048093910484ED91E00E94E725F9
:1036E00019C0E090E802F090E90290E0019724E030
:1036F000880F991F2A95E1F76BE270E0681B790B40
:103700000AE010E02CE030E042E750E083E894E08B
:103710000E94C62D80913B048093F4011F910F916C
:10372000FF90EF900895EF92FF920F931F93CF9326
:10373000DF9323E02093E5021092F4019093EC01D3
:103740008093EB01FC01808191819093EE01809345
:10375000ED0189E394E09093E4028093E302C6EEE6
:10376000D2E06A817B8183E894E00E94702AE5E2DE
:10377000F4E08091EE018695869586958683178282
:1037800068E0CF010E944C278091ED019091EE01FD
:10379000807E977025E0969587952A95E1F790931E
:1037A00018048093170468E181E194E00E944C279B
:1037B0008091ED019091EE018F719927909304040F
:1037C0008093030468E28DEF93E00E944C27E88029
:1037D000F9800CE010E028E330E044E650E060E4DB
:1037E00070E083E894E00E94C21E03E814E080E5E4
:1037F00090E0F8019587848785E690E09787868733
:1038000084ED91E00E94E7258AE090E0F801958739
:10381000848797878687E090ED01F090EE0108E1BC
:1038200010E028E130E040E150E068E570E0CF01D1
:103830000E94C62DE880F9800AE110E02AE130E01C
:103840004FE050E067E570E083E894E00E94C21E1C
:10385000DF91CF911F910F91FF90EF900C94D51AAB
:1038600090E08730910560F5FC01E55CFF4F0C941A
:10387000CF3D0C94AB1886EE92E002C088EE92E049
:103880000C94931B8AEE92E0FBCF8CEE92E0F8CF83
:103890008EEE92E0F5CF6091FD02633010F46F5F21
:1038A00001C060E06093FD0283E894E00E944F2D28
:1038B00028E045E06CE871E08FE394E00C949E26EC
:1038C00008951F920F920FB60F9211240F900FBE02
:1038D0000F901F9018951F920F920FB60F92112400
:1038E0002F933F934F935F936F937F938F939F9308
:1038F000AF93BF93EF93FF9380910802319913C068
:10390000811119C08091060290910702049798F0E6
:1039100082E00E942D1A81E0809308021092130227
:103920001092120204C0882331F010920802109203
:1039300007021092060280911802309913C081117B
:1039400019C080910C0290910D02049798F081E0CB
:103950000E942D1A81E08093180210921102109299
:10396000100204C0882331F01092180210920D0248
:1039700010920C0280910B02329913C0811119C070
:103980008091090290910A02049798F083E00E94C6
:103990002D1A81E080930B021092150210921402EE
:1039A00004C0882331F010920B0210920A02109288
:1039B0000902FF91EF91BF91AF919F918F917F91FC
:1039C0006F915F914F913F912F910F900FBE0F908C
:1039D0001F9018959091E502923001F51092F30135
:1039E0002091F1013091F2014091190250911A0297
:1039F00060911B0270911C02420F531F611D711DCB
:103A00004F3E92E059076105710520F04EEE52E0FD
:103A100060E070E05093F2014093F101A091E30265
:103A2000B091E402109779F0482F50E0440F551FF1
:103A3000425F5D4FED91FC9111970280F381E02D83
:103A4000682FCD0109940895FC01628308950895BB
:103A5000FC016370658B848195812681378161309B
:103A600039F0633029F09187808733872287089562
:103A7000318720879387828708952F923F924F92B4
:103A80005F926F927F928F929F92AF92BF92CF92EE
:103A9000DF92EF92FF920F931F93CF93DF93CDB7F7
:103AA000DEB764970FB6F894DEBF0FBECDBF9C8B18
:103AB0008B8B162F6A30B1F4DC011D961C921E927E
:103AC0001C9754962C9154971E968D919C911F97FC
:103AD000B8E02B9F800D911D1124EB89FC899787FD
:103AE000868735C16D3009F432C1AB89BC895696E1
:103AF0008C9156975496BC91B983EB89FC892085AB
:103B00003185882301F184859585F6E0BF9F800D7E
:103B1000911D112428173907B4F4AB89BC891D966F
:103B20001C921E921C971E968D919C911F97E98165
:103B3000B8E0EB9F800D911D1124AB89BC891F96C5
:103B40009C938E931E97EB89FC89A484B584A2165E
:103B5000B3060CF0ECC08684978482859385881622
:103B600099060CF0E4C0F981CF2ED12C950146E0E6
:103B7000F49F200D311D11243A8729871216130650
:103B80000CF0D5C0C60123E0880F991F2A95E1F7F4
:103B90009C878B87880D991D181619060CF0C7C0D5
:103BA000AB89BC8957968C91811103C0103B08F0FA
:103BB0001F5FEB89FC8962887388208931893B8388
:103BC0002A830190F081E02D0284F385E02D8B891A
:103BD0009C89099535E0139FB0011124A5014B5F25
:103BE0005F4F5E874D87BD82AC822501CB018A196C
:103BF0009B09988B8F87D4011896BA8BA98BEF8578
:103C0000F889E40DF51DEC54F04EB491B8879F820D
:103C10008E821401E885E0FF13C0AB89BC89ED9169
:103C2000FC91B981B13031F40484F585E02D2A810D
:103C30003B8116C00684F785E02DEA80FB801AC020
:103C4000EA81FB816E167F06F1F0AB89BC89ED91AC
:103C5000FC91B981B13051F40484F585E02D9301D4
:103C6000A101B2018B899C8909950DC00684F78555
:103C7000E02D7301860196014E815F816C817D810B
:103C80008B899C890995E885E695E887FFEF2F1ACF
:103C90003F0A2E813F812C0D3D1D3F832E83498994
:103CA0005A894215530509F0B5CF5FEF451A550AF9
:103CB0008C819D818C0D9D1D9D838C83AD85BE85E2
:103CC0004A165B0609F09BCFEA81FB816E167F06E0
:103CD00021F1AB89BC89ED91FC91B981B13071F4CE
:103CE000B5016B5F7F4F0088F189E02D830128E0EB
:103CF00030E0A4018B899C8909950FC069857A857C
:103D00006C197D090684F785E02D73010B851C85F0
:103D10009601A4018B899C890995AB89BC89ED9199
:103D2000FC9111970688F789E02DCD010995EB8963
:103D3000FC89248984859585F6E02F9F800D911D4F
:103D40001124AB89BC891D969C938E931C9781E0AE
:103D500090E064960FB6F894DEBF0FBECDBFDF9142
:103D6000CF911F910F91FF90EF90DF90CF90BF9078
:103D7000AF909F908F907F906F905F904F903F900B
:103D80002F9008956F927F928F929F92AF92BF92E1
:103D9000CF92DF92EF92FF920F931F93CF93DF9317
:103DA000EC014B015A0169013801E881F981028473
:103DB000F385E02D0995E881F9810288F389E02DEA
:103DC00087019601A501B401CE010995A501460D13
:103DD000571D41505109E881F9810288F389E02D8E
:103DE0009601B401CE010995E881F9810088F18935
:103DF000E02D9301A501B401CE010995C80CD91C91
:103E0000B60161507109E881F9810088F189E02DDE
:103E10009301A501CE010995E881F9810688F7890A
:103E2000E02DCE01DF91CF911F910F91FF90EF9088
:103E3000DF90CF90BF90AF909F908F907F906F90CA
:103E400009948F929F92AF92BF92CF92DF92EF929E
:103E5000FF920F931F93CF93DF934C016B015A0195
:103E6000E901DC01ED91FC916217730781F40417FD
:103E7000150724F48B2D5801042F182F0A191B093C
:103E800098012F5F3F4F048CF58DE02D12C0401735
:103E9000510709F52617370724F48D2D6901C62F20
:103EA000D82F9E012C193D092F5F3F4F068CF78DAF
:103EB000E02D8701A501B601C4010995DF91CF91DD
:103EC0001F910F91FF90EF90DF90CF90BF90AF9038
:103ED0009F908F9008950284F385E02D0995D40179
:103EE000ED91FC910488F589E02D9E01A501B601B4
:103EF000C4010995D401ED91FC910688F789E02D64
:103F0000C401DF91CF911F910F91FF90EF90DF904F
:103F1000CF90BF90AF909F908F900994EF92FF92B7
:103F20000F931F93DC011A960D911C911B97189605
:103F30002D913C911997ED91FC9100A0F1A1E02DFC
:103F40007B0140E050E060E070E009951F910F9127
:103F5000FF90EF9008954F925F926F927F928F92B1
:103F60009F92AF92BF92CF92DF92EF92FF920F9308
:103F70001F93CF93DF936C012B015A013901480144
:103F8000DC01ED91FC910284F385E02D0995E201BD
:103F9000640C751CD601ED91FC91C615D7055CF437
:103FA0000088F189E02D87019401A501BE01C601B9
:103FB00009952196EFCF0688F789E02DC601DF919C
:103FC000CF911F910F91FF90EF90DF90CF90BF9016
:103FD000AF909F908F907F906F905F904F900994DB
:103FE0008F929F92AF92BF92CF92DF92EF92FF9209
:103FF0000F931F93CF93DF93EC015B014A0169019B
:10400000E881F9810284F385E02D099595012C0D55
:104010003D1D21503109E881F9810488F589E02DA1
:1040200078018401A401B501CE010995E881F981E7
:104030000688F789E02DCE01DF91CF911F910F9176
:10404000FF90EF90DF90CF90BF90AF909F908F90B8
:1040500009948F929F92AF92BF92CF92DF92EF928C
:10406000FF920F931F93CF93DF93EC015B014A0103
:1040700069017801E881F9810284F385E02D0995D1
:10408000C80CD91C860101501109E881F981048806
:10409000F589E02D9501A401B501CE010995E881CE
:1040A000F9810688F789E02DCE01DF91CF911F912C
:1040B0000F91FF90EF90DF90CF90BF90AF909F90C7
:1040C0008F9009940895EF92FF920F931F93DC0154
:1040D000ED91FC9100A0F1A1E02D09951F910F91A8
:1040E000FF90EF9008950F931F93DC01ED91FC91E9
:1040F000068CF78DE02D09951F910F9108950F9370
:104100001F93DC01ED91FC91048CF58DE02D099558
:104110001F910F910895DC01ED91FC910084F185D0
:10412000E02D09942F923F924F925F926F927F926F
:104130008F929F92AF92BF92CF92DF92EF92FF92B7
:104140000F931F93CF93DF9300D000D000D0CDB753
:10415000DEB72C017E836D836A015901C801FC82A0
:10416000EB824801841A950A97FE03C091948194CA
:10417000910835012D813E81621A730A77FE03C0D2
:10418000719461947108681479045CF43A2D2B2DB4
:104190005C01832F922F3D812E81DE82CD82C32E42
:1041A000D22EAD81BE81AA16BB065CF43C2D2D2D0E
:1041B0006C01832F922F3D812E81BE82AD82A32E72
:1041C000B22E85012D813E81021B130B1C012C1880
:1041D0003D0837FE03C0319421943108780117FF60
:1041E00003C03FEFE31AF30AF594E794C816D90623
:1041F0002CF08FEF9FEF9A83898304C0A1E0B0E099
:10420000BA83A9832D813E81A216B30624F1D2017F
:10421000ED91FC910484F585E02D2B813C8168149F
:10422000790424F44D815E81B60103C0A6016D813D
:104230007E81C2010995E218F308F7FE06C02981C4
:104240003A81C20ED31EE00EF11E8D819E81019631
:104250009E838D83D7CF26960FB6F894DEBF0FBE10
:10426000CDBFDF91CF911F910F91FF90EF90DF9025
:10427000CF90BF90AF909F908F907F906F905F9006
:104280004F903F902F90089585ED8093BC008091D2
:10429000BC0084FDFCCF1092BE02089540915302F1
:1042A000262F30E0240F311D21323105DCF420911E
:1042B000BE022430C9F4FC0180E090E0861758F477
:1042C000309153022191DC01AD5CBD4FA30FB11DB4
:1042D0002C930196F3CF80915302680F60935302A1
:1042E00080E0089581E0089582E00895E0917702EA
:1042F00080917602E81730F4F0E0E858FD4F8081B5
:1043000090E008958FEF9FEF08959091770280914C
:104310007602981750F4E92FF0E0E858FD4F20811D
:1043200030E09F5F9093770202C02FEF3FEFC9010B
:1043300008958091760290E020917702821B910986
:104340000895CF92DF92EF92FF920F931F93CF9336
:10435000DF937C01CB018A012091BF02222389F0E7
:10436000EB016B01C40ED51ECC15DD0569F069911A
:10437000D701ED91FC910190F081E02DC7010995E5
:10438000F3CF642F0E944E21C801DF91CF911F917E
:104390000F91FF90EF90DF90CF900895CF93DF9330
:1043A0001F92CDB7DEB769832091BF022223D1F0DF
:1043B0002091E202203240F021E030E0FC01338322
:1043C000228380E090E015C08091C002E82FF0E0E9
:1043D000EF53FD4F998190838F5F8093C00280934C
:1043E000E20205C061E0CE0101960E944E2181E00B
:1043F00090E00F90DF91CF910895089580E090E0D4
:1044000008959F92AF92BF92CF92DF92EF92FF9268
:104410000F931F93CF93DF93EC01962E4C855D8510
:1044200086EEA82E82E0B82EF501E280F3808A01A4
:10443000025011092A853B85225031098E859F85BE
:10444000840F951F4A81489FB001499F700D112428
:10445000488559854F5F5F4F460F571F6E817F819B
:104460006F5F7F4F83E894E00E94C62D2C853D85C9
:104470008E859F85280F391F8A81829FA001839F87
:10448000500D1124888599850296840F951F23E885
:10449000C22E24E0D22E2E813F812E5F3F4FF601A7
:1044A00035872487978786878A8128899989E22F8B
:1044B000F92FE80FF11DE80FF11D859194910E94ED
:1044C000E9259A820C851D85F501E080F1802A8519
:1044D0003B858E859F85800F911F989EA001999E98
:1044E000500D112488859985480F591F6E817F8151
:1044F000C6010E94C62DF501808191812281338100
:10450000F601318B208B938B828B2C853D858E859C
:104510009F85280F391F8A81829FA001839F500D9C
:104520001124888599850296840F951F2E813F81DD
:104530002E5F3F4F35872487978786878A81288912
:104540009989E22FF92FE80FF11DE80FF11D8591F0
:1045500094910E94E925F501828193812081318126
:10456000F601318B208B938B828BDF91CF911F9142
:104570000F91FF90EF90DF90CF90BF90AF909F9002
:1045800008951F920F920FB60F9211242F933F930D
:104590004F935F936F937F938F939F93AF93BF934B
:1045A000EF93FF938091B900887F803609F49CC017
:1045B00068F5883209F45BC090F4803109F454C086
:1045C00038F4882309F4F2C0883009F44DC0F2C0F1
:1045D000883109F44CC0803209F45DC0EBC08034EE
:1045E00009F468C048F4803309F455C0883309F0F1
:1045F000E1C08093BC02D4C0803509F44FC0883537
:1046000009F45DC0883409F0D5C0D2C0883909F4F6
:10461000C3C0A8F4883709F467C038F4883609F4B1
:1046200063C0803709F460C0C5C0883809F4B4C0DD
:10463000803909F45FC0803809F0BCC05BC0803BA2
:1046400009F484C038F4803A09F466C0883A09F461
:104650007DC0B0C0803C09F4A3C0883C09F4A0C070
:10466000883B09F486C0A6C08091990210C0909141
:10467000BB028091BA02981770F5E091BB0281E00D
:104680008E0F8093BB02F0E0E656FD4F8081809351
:10469000BB0085EC82C08093BC028AC0E091BB0263
:1046A00081E08E0F8093BB028091BB00F0E0E65664
:1046B000FD4F80839091BB028091BA026AC0E09165
:1046C000BB0281E08E0F8093BB028091BB00F0E0C3
:1046D000E656FD4F80838091BD02811169C081E063
:1046E0008093980284EA5DC083E08093BE021092BA
:1046F0007502CFCF80917502803208F04DC0E091F5
:10470000750281E08E0F809375028091BB00F0E00E
:10471000EB5AFD4F8083BDCF85EC8093BC00109297
:10472000BE0280917502803230F4E0917502F0E0B3
:10473000EB5AFD4F10826091750270E085E592E0C2
:10474000E0E0F0E009951092750234C084E08093B7
:10475000BE021092540210925302E0E0F0E009957C
:1047600080915302811105C081E080935302109221
:104770003302E091540281E08E0F80935402F0E006
:10478000ED5CFD4F80818093BB009091540280913D
:104790005302981708F47DCF85E88093BC000AC0C7
:1047A00085EC8093BC001092BE0204C01092BC0243
:1047B0000E944421FF91EF91BF91AF919F918F9102
:1047C0007F916F915F914F913F912F910F900FBE0D
:1047D0000F901F9018950F931F93E6EEF2E0028161
:1047E00013812091FD013091FE01628D82E491E000
:1047F000689FA001699F500D11244455554E60E0FB
:1048000070E080E090E00E94CC261F910F91089507
:104810000F931F93CF93DF93F999FECF80E090E041
:104820000E945B39823031F0DF91CF911F910F915F
:104830000C94332481E090E00E945B398093FB016B
:1048400006EE12E0C2E0D0E0CE010E945B39F80132
:1048500081938F012196CE31D105B1F7DF91CF91B0
:104860001F910F910895EF92FF920F931F93CF9393
:10487000DF93CDB7DEB76C970FB6F894DEBF0FBEEF
:10488000CDBFF999FECF62E080E090E00E947539DB
:1048900064E681E090E00E94753980EE9FEF9A8394
:1048A00089831C821B8280EE97E09E838D8380EA41
:1048B0009FEF98878F8380E098EF9A8789878EE1B2
:1048C00090E09C878B878EE591E09E878D8780EDB9
:1048D00097E0988B8F871A8A198A1C8A1B8A1E8AEE
:1048E0001D8A82E0888F81E08B8F1A8E8C8F198EC3
:1048F000CE0101967C0102E010E0F70161917F0199
:10490000C8010E9475390F5F1F4F0E311105A9F7BD
:104910006C960FB6F894DEBF0FBECDBFDF91CF917E
:104920001F910F91FF90EF900C940824CF93DF9389
:104930008BE390E09093900480938F0481E790E064
:10494000909392048093910482E0809397048091E5
:10495000FC01882319F08091F50102C08091FF01CC
:1049600090E001960E94B92581E0809397048091A0
:10497000FC01882329F08091E6029091E70204C0AF
:104980008091E8029091E9029093960480939504B7
:10499000909394048093930481E390E09093900427
:1049A00080938F04C1E7D0E0D0939204C093910428
:1049B0008CE30E94612589E490E0909390048093B9
:1049C0008F04D0939204C09391048EE30E946125DA
:1049D0008091E8029091E9022091E6023091E7028D
:1049E00030939404209393049093960480939504B9
:1049F000DF91CF910895AF92BF92CF92DF92EF9265
:104A0000FF920F931F932091FB01822F90E0A0E073
:104A1000B0E09C01AD012150310941095109A4E6E2
:104A2000B0E00E94A2392EEF30E040E050E00E945A
:104A30008339CC24DD24C21AD30AE6EEF2E0E0800A
:104A4000F18002811381A12CB12C26E030E044E6F4
:104A500050E06EE170E083E190E00E94E4271F9156
:104A60000F91FF90EF90DF90CF90BF90AF9008959F
:104A7000EF92FF920F931F93CF93DF93C6EED2E096
:104A80000A811B812881398143EA51E06CE170E0A1
:104A900082E090E00E94CC26E880F98008E010E0F7
:104AA00028E630E04DE150E060E170E083E894E01A
:104AB0000E94C62DDF91CF911F910F91FF90EF9033
:104AC0000895682F83E894E00C943D1D009769F0E9
:104AD000FC0101900020E9F73197AF01481B590B09
:104AE000BC0183E894E00C94FA2E80E090E00895F5
:104AF0008F929F92AF92BF920F931F93CF93DF93AA
:104B0000CDB7DEB7A1970FB6F894DEBF0FBECDBF0D
:104B100019A2423008F44AE08E010F5D1F4F842E27
:104B2000912CA12CB12CA50194010E94AD39E62F46
:104B3000B901CA0101501109EA3014F4E05D01C065
:104B4000E95CD801EC93232B242B252B61F7C801BA
:104B50000E946625A1960FB6F894DEBF0FBECDBFAA
:104B6000DF91CF911F910F91BF90AF909F908F9049
:104B70000895CF92DF92EF92FF92CF93DF936C0173
:104B8000990FEE08FF08F7FE17C08DE20E9461251D
:104B9000EC0166277727CB016C197D098E099F09E7
:104BA0004AE00E9478258C0F9D1FDF91CF91FF90E6
:104BB000EF90DF90CF9008954AE0C701B601DF91F2
:104BC000CF91FF90EF90DF90CF900C9478250C94CC
:104BD00066250F931F93CF93DF938C01C0E0D0E045
:104BE000F801EC0FFD1F6491662341F083E894E027
:104BF0000E943D1D892B11F02196F2CFCE01DF914D
:104C0000CF911F910F910895BF92CF92DF92EF92B3
:104C1000FF920F931F93CF93DF93EC017F836E83FB
:104C200059874887B12C8B81B81608F07DC04A811E
:104C30000C851D85E090E602F090E7022A853B8511
:104C40008E859F85CB2CD12CE885F9856E817F815F
:104C5000800F911FB4121EC08C9DA0018D9D500D20
:104C60009C9D500D11244E0F5F1F83E894E00E941D
:104C7000C62D8091E6029091E7022091E8023091E2
:104C8000E9023093940420939304909396048093C4
:104C900095040DC08C9DA0018D9D500D9C9D500DC7
:104CA00011244E0F5F1F83E894E00E94C21E2C85E2
:104CB0003D858E859F85280F391F2C9DA0012D9D38
:104CC000500D3C9D500D1124888599850296840FC6
:104CD000951F2E813F812E5F3F4F3093900420938C
:104CE0008F049093920480939104CC0CDD1CE8898E
:104CF000F989EC0DFD1D859194910E94E9258A8129
:104D0000B81210C08091E8029091E9022091E60269
:104D10003091E70230939404209393049093960487
:104D200080939504B3947FCFDF91CF911F910F9122
:104D3000FF90EF90DF90CF90BF900895EF92FF9299
:104D40000F931F93CF938C017B01C22F4093E502F9
:104D50006091E8027091E90283E894E00E94702A71
:104D6000E3E8F4E088E290E095878487178616866A
:104D7000C7010E94E7256C2F70E04CE050E0C801AD
:104D80000E9404261093E4020093E302CF911F9146
:104D90000F91FF90EF9008954F925F926F927F92E4
:104DA0008F929F92AF92BF92CF92DF92EF92FF923B
:104DB0000F931F93CF93DF936A01D22F732E602E30
:104DC000512EFA01C4913196E4900FEF060F0E0DAB
:104DD0002FEF280F2C0F462F682F83E894E00E94B6
:104DE000872DF60132964490CE9D7001112483E800
:104DF00094E00E94FE2C00E010E0C0E090E8A92EB4
:104E0000B12CE016F106A1F1842C912CC5010C2ED9
:104E100002C0959587950A94E2F78822992283E843
:104E200094E00E94F42C8114910411F4852D01C0AA
:104E3000872D0E94152D83E894E00E94F42C892888
:104E400011F4862D01C08D2F0E94152D0F5F1F4F6D
:104E5000C73010F4CF5FD5CFF80183E0F695E79522
:104E60008A95E1F73296EC0DFD1D4490C0E0C9CF64
:104E700083E894E0DF91CF911F910F91FF90EF9025
:104E8000DF90CF90BF90AF909F908F907F906F906A
:104E90005F904F900C940A2DEF92FF920F931F9307
:104EA000CF93DF93EC016E8788E08F87EA88FB88D9
:104EB000098910E0288930E070E048E050E083E89C
:104EC00094E00E94C21ECE01DF91CF911F910F91FD
:104ED000FF90EF900C94062B90E0FC01E659F94D01
:104EE0002491FC01EA5AF94D8491882399F090E0CD
:104EF000880F991FFC01E45BF94DA591B491FC0169
:104F0000EE5BF94D859194918FB7F894EC91E22B7B
:104F1000EC938FBF0895CF93DF93EC0185E00E945F
:104F20006C27209711F460E004C0CF3FD10531F425
:104F300061E085E0DF91CF910C94CD2BE3E3F6E2C5
:104F4000E491E330F9F048F4E130B9F0E230A1F552
:104F500084B5806284BDC8BD34C0E730E9F0E83074
:104F600019F1E43049F580918000806280938000DF
:104F7000D0938B00C0938A0024C084B5806884BD20
:104F8000C7BD1FC080918000806880938000D0934F
:104F90008900C093880015C08091B000806880931C
:104FA000B000C093B3000DC08091B00080628093C8
:104FB000B000C093B40005C0C038D1050CF0B8CF24
:104FC000B2CFDF91CF9108952F923F924F925F928F
:104FD0007F928F929F92AF92BF92CF92DF92EF9289
:104FE000FF920F931F93CF93DF93CDB7DEB72C972C
:104FF0000FB6F894DEBF0FBECDBF4A013C872B87AA
:105000000B831C83ED82FE8240918B0450918C04B3
:10501000841795070CF0A8C020918D0430918E0460
:10502000621773070CF0A0C0FC01E80DF91D4E17C4
:105030005F071CF44A01881A990A4B855C85460F64
:10504000571F241735072CF4A901461B570B5C8703
:105050004B875B8559838A820FEF060F050F2FEF71
:10506000280F280D462F682F83E894E00E94872D93
:1050700083E894E00E94FE2C4B855C854A195B090D
:1050800058874F83222433242A183B0824014C18C4
:105090005D08882799278C199D099A878987E98057
:1050A0009B85E91A2B853C85121613060CF041C02E
:1050B0008401F12C8A81801B101611069CF590E06A
:1050C000D7FE06C049855A858417950724F410C079
:1050D000841595056CF477247394B7FE04C0E2142C
:1050E000F3043CF405C08F819885E816F9060CF0AE
:1050F000712C83E894E00E94F42C711002C08E8120
:1051000001C08C810E94152D83E894E00E94F42C4C
:10511000711002C08D8101C08B810E94152D01503C
:105120001109C8CF2B853C85215031093C872B873D
:10513000B6CF83E894E02C960FB6F894DEBF0FBE8E
:10514000CDBFDF91CF911F910F91FF90EF90DF9036
:10515000CF90BF90AF909F908F907F905F904F9037
:105160003F902F900C940A2D2C960FB6F894DEBF2A
:105170000FBECDBFDF91CF911F910F91FF90EF90A8
:10518000DF90CF90BF90AF909F908F907F905F9077
:105190004F903F902F900895282F3091E2023132A6
:1051A00008F04AC08091BE028111FCCF9091E102CB
:1051B00042E04093BE022093BD022FEF2093BC0239
:1051C0001092BB023093BA02E1ECF2E0AAE9B2E03D
:1051D00020E0321721F041914D932F5FFACF1092CA
:1051E000990220919902990F922B90939902909194
:1051F0009802913061F410929802909199029093E4
:10520000BB009091BC0093FDF8CF95EC01C095EEEA
:105210009093BC009091BE029230E1F39091BC0259
:105220009F3F79F08091BC02803241F08091BC02B6
:10523000803331F084E005C081E003C082E001C02A
:1052400083E01092C0021092E2021092BF02089511
:105250009091BE029111FCCF982F813208F090E21C
:1052600081E08093BE028093BD022FEF2093BC02A9
:105270001092BB02290F2093BA0280939902809169
:1052800099028E6D8093990280919802813061F429
:1052900010929802809199028093BB008091BC008B
:1052A00083FDF8CF85EC01C085EE8093BC00809132
:1052B000BE028130E1F38091BB02891710F4909116
:1052C000BB02EAE9F2E0A8E7B2E080E0891721F04A
:1052D00021912D938F5FFACF1092770280937602FF
:1052E0000895FC01538D448D252F30E0842F90E0EC
:1052F000821B930B541710F0CF96089501970895D1
:10530000FC01918D828D981761F0828DDF01A80FCD
:10531000B11D5D968C91928D9F5F9F73928F90E0EF
:1053200008958FEF9FEF0895FC01918D828D98175E
:1053300031F0828DE80FF11D858D90E008958FEF9B
:105340009FEF0895FC01918D228D892F90E0805C64
:105350009F4F821B91098F739927089582E093E0F4
:105360000E94A22921E0892B09F420E0822F0895D0
:10537000FC01848DDF01A80FB11DA35ABF4F2C91F2
:10538000848D90E001968F739927848FA689B789C1
:105390002C93A089B1898C9180648C93938D848D9A
:1053A000981306C00288F389E02D80818F7D808369
:1053B0000895EF92FF920F931F93CF93DF93EC0129
:1053C00081E0888F9B8D8C8D981305C0E889F989C1
:1053D000808185FD24C0F62E0B8D10E00F5F1F4FDE
:1053E0000F731127E02E8C8DE8120CC00FB607FC4E
:1053F000FACFE889F989808185FFF5CFCE010E9437
:10540000B829F1CF8B8DFE01E80FF11DE35AFF4F54
:10541000F0820B8FEA89FB898081806207C0EE8968
:10542000FF896083E889F98980818064808381E0D5
:1054300090E0DF91CF911F910F91FF90EF90089531
:10544000CF93DF93EC01888D8823C9F0EA89FB892B
:10545000808185FD05C0A889B9898C9186FD0FC022
:105460000FB607FCF5CF808185FFF2CFA889B989F7
:105470008C9185FFEDCFCE010E94B829E7CFDF9157
:10548000CF91089580E090E0892B29F00E94AE2909
:1054900081110C94000008959FB7F8944091BE04C8
:1054A0005091BF046091C0047091C10486B5A89B5F
:1054B00006C08F3F21F04F5F5F4F6F4F7F4F9FBF01
:1054C000762F652F542F44279A01AB01280F311DE9
:1054D000411D511DA3E0B0E00E94A2390895089536
:1054E000EF92FF920F931F93DC011A960D911C917E
:1054F0001B9718962D913C911997ED91FC9100A066
:10550000F1A1E02D7B0140E050E060E070E0099502
:105510001F910F91FF90EF9008950F931F93CF93DA
:10552000DF93FC01DA012D913C91808591858217F2
:10553000930758F5613061F0633039F52681378182
:10554000848195812817390764F4C901019609C03F
:1055500026813781828193818217930714F4C901D0
:105560000197978386838A01EF010190F081E02DF6
:105570000480F581E02DCE010995EC85FD858E81B5
:105580009F810995F80111821082DF91CF911F91BF
:105590000F910895623051F4DC011A96ED91FC915F
:1055A0001B9716968D919C91179709940895DC018D
:1055B000623029F0633051F0613029F50EC0149645
:1055C000ED91FC91159712968C91099412966C911D
:1055D00012976623C1F061500EC012966C9112971B
:1055E000262F30E013968C91139790E0019728179F
:1055F00039074CF46F5FED91FC9111970480F581B0
:10560000E02DCD01099408950E94D53D4F925F92FF
:105610006F927F928F929F92AF92BF92CF92DF92C2
:10562000EF92FF920F931F93CF93DF934C01FC01F6
:10563000C189D0E022976E010D2E000CEE08FF0804
:1056400042805380052C000C66087708868197817C
:10565000092E000CAA0BBB0BA3019201281B390BCE
:105660004A0B5B0BC701B6010E949F3D2481358127
:105670008901330F220B330BA90198012419350935
:10568000460957090E948339C20ED31EE41EF51E37
:10569000D12CAA24BB24AC18BD08E090E802F090FD
:1056A000E902F40102891389408950E0425051090E
:1056B000678570E06F5F7F4F868590E0C12CD12CAD
:1056C0009E0101960E94E427DF91CF911F910F91D7
:1056D000FF90EF90DF90CF90BF90AF909F908F9012
:1056E0007F906F905F904F9008951F920F920FB62A
:1056F0000F9211242F933F934F935F936F937F9358
:105700008F939F93AF93BF93EF93FF9382E093E0C8
:105710000E94B829FF91EF91BF91AF919F918F9116
:105720007F916F915F914F913F912F910F900FBE9D
:105730000F901F9018951F920F920FB60F92112481
:105740002F938F939F93EF93FF93E0911203F09128
:1057500013038081E0911803F091190382FD12C0B8
:10576000908180911B038F5F8F7320911C038217A0
:1057700051F0E0911B03F0E0EE5FFC4F958F8093BA
:105780001B0301C08081FF91EF919F918F912F9119
:105790000F900FBE0F901F90189590E0FC01E25DF6
:1057A000F94D2491FC01E659F94D3491FC01EA5A76
:1057B000F94DE491EE2309F43CC0222339F1233062
:1057C00091F038F42130A9F0223001F584B58F7DB5
:1057D00012C0273091F02830A1F02430B9F4809124
:1057E00080008F7D03C0809180008F778093800040
:1057F0000DC084B58F7784BD09C08091B0008F77CC
:1058000003C08091B0008F7D8093B000F0E0EE0F78
:10581000FF1FEE5BF94DA591B4919FB7F89461110C
:1058200004C08C913095382302C0EC913E2B3C9300
:105830009FBF08958F929F92AF92BF92CF92DF92B7
:10584000EF92FF926B017C010E944C2A4B015C019C
:10585000C114D104E104F104F1F00E944C2ADC01EE
:10586000CB0188199909AA09BB09883E9340A10573
:10587000B10570F321E0C21AD108E108F10888EE01
:10588000880E83E0981EA11CB11CC114D104E10450
:10589000F10419F7DDCFFF90EF90DF90CF90BF902C
:1058A000AF909F908F9008952FB7F8946091BA04AD
:1058B0007091BB048091BC049091BD042FBF0895EA
:1058C0001F920F920FB60F9211242F933F938F9335
:1058D0009F93AF93BF938091BA049091BB04A09122
:1058E000BC04B091BD043091B90426E6230F2D37D6
:1058F00028F029EE230F0196A11DB11D2093B904B4
:105900008093BA049093BB04A093BC04B093BD04ED
:105910008091BE049091BF04A091C004B091C104D5
:105920000196A11DB11D8093BE049093BF04A09366
:10593000C004B093C104BF91AF919F918F913F91EB
:105940002F910F900FBE0F901F9018951F920F92DE
:105950000FB60F9211242F933F934F935F936F9342
:105960007F938F939F93AF93BF93EF93FF93E091B8
:105970000201F09103010995FF91EF91BF91AF9161
:105980009F918F917F916F915F914F913F912F9157
:105990000F900FBE0F901F9018951F920F920FB689
:1059A0000F9211242F933F934F935F936F937F93A5
:1059B0008F939F93AF93BF93EF93FF93E091000179
:1059C000F09101010995FF91EF91BF91AF919F91E6
:1059D0008F917F916F915F914F913F912F910F9098
:1059E0000FBE0F901F9018958CB58F7B8CBD2B9A96
:1059F0002D9A2D988CB580648CBD0895DC01959608
:105A0000ED91FC91969790819B968C91809589233E
:105A100080830895DC019596ED91FC919697908195
:105A20009B968C91892B808308958EBD00000DB4C8
:105A300007FEFDCF8EB508951F93CF93DF93EC0142
:105A4000162F0E94FE2CCE010E94F42C812F0E9462
:105A5000152DCE01DF91CF911F910C940A2D1F932C
:105A6000CF93DF93EC01162F0E94FE2C8CB58F7B19
:105A70008CBD2B982D9A2D988CB580648CBD812F70
:105A80000E94152DCE01DF91CF911F910C940A2D0C
:105A9000611102C060E201C061E20C942F2D1F93DE
:105AA000CF93DF93EC01162F66E30E942F2D1D8B01
:105AB0001130B1F068F01230D9F0133021F568E6FA
:105AC000CE010E941C2D8D8D88A38E8D82501AC010
:105AD00068ECCE010E941C2D8D8D8F8F8E8D10C095
