:100000000C9437100C94F6290C94CF290C945F10A3
:100010000C9470190C9466190C945F100C945F107A
:100020000C945F100C945F100C945F100C945F1094
:100030000C945F100C945F100C945F100C945F1084
:100040000C9489290C945F100C94C4280C949E285D
:100050000C945F100C945F100C945F100C945F1064
:100060000C94E4200C945F105514671457145A1420
:100070005D146014631463177B17F91739186B1834
:10008000DB181E1907634236B79BD8A71A39685682
:1000900018AEBAAB558C1D3CB7CC5763BD6DEDFDAA
:1000A000753EF6177231BF000000803F0800000067
:1000B000BE922449123EABAAAA2ABECDCCCC4C3E5D
:1000C00000000080BEABAAAAAA3E00000000BF004C
:1000D0000000803F0000000000084178D3BB438748
:1000E000D1133D190E3CC3BD4282AD2B3E68EC825C
:1000F00076BED98FE1A93E4C80EFFFBE01C4FF7FE1
:100100003F0000000000446576656C6F70656420F8
:100110006279204D617274696E0A487265686F7207
:100120002028632920323031380A0A5072657373EF
:100130002043454E54455220746F20636C6F7365A5
:100140000078302E310A0004E010021C071237320A
:10015000292D29252B3900010310E110031D070665
:100160002E2C292D2E2E373F0000021013800A2935
:100170008064022A040000007F2B040000007F0F2F
:100180000180961180FFB103012C2DB203012C2DAB
:10019000B306012C2D012C2DB40107C003A202844B
:1001A000C101C5C2020A00C3028A2AC4028AEEC57E
:1001B000010E20003601C83A01050202AA410106DB
:1001C00001791A0B0B04088882070191BAC7C07025
:1001D000208888100040100000000000FFDFFF00B2
:1001E0000000FFDFFFDFFF00FFBFFFBFFFBFFF3FDC
:1001F000FFBFFFBFFFBFFFFFFFBFFFBFFFBFFFFF8F
:10020000FFBFFFBFFFBFFFFFFF7FFF7FFF7FFFFF3E
:10021000FF7FFF7FFF7FFFFFFF7FFF7FFF7FFFFFEE
:10022000FEFFFEFFFEFFFFFFFEFFFEFFFEFFFFFFE4
:10023000FEFFFEFFFEFFFFFFFEFFFEFFFEFFFFFFD4
:10024000FDFFFDFFFDFFFFFFFDFFFDFFFDFFFFFFCA
:10025000FDFFFDFFFDFFFF4010FFFBFF0000000062
:1002600000FFFBFFFBFF000000FFFDFFFDFFFDFFA8
:1002700000FFFDFFFDFFFDFFFCFFFDFFFDFFFDFF9C
:10028000FFFFFDFFFDFFFDFFFFFFFEFFFEFFFEFF87
:10029000FFFFFEFFFEFFFEFFFFFFFEFFFEFFFEFF74
:1002A000FFFFFF7FFF7FFF7FFFFFFF7FFF7FFF7F5E
:1002B000FFFFFF7FFF7FFF7FFFFFFF7FFF7FFF7F4E
:1002C000FFFFFFBFFFBFFFBFFFFFFFBFFFBFFFBFBE
:1002D000FFFFFFBFFFBFFFBFFF262600000000FC9F
:1002E00000000007F00000003FC0000001FF000018
:1002F000000FFC0000007FF0000003FFC000001FA3
:10030000FF000000FEFC000007F3F000003F8FC07C
:100310000001FC3F00000FE0FC00000003F00000C3
:10032000000FC00000003F00000000FC00000003C0
:10033000F00000000FC00000003F00000000FC00C3
:10034000000003F00000000FC00000003F000000AC
:1003500000FC00000003F00000000FC00000003FA0
:1003600000000000FC00000003F00000000FC000CF
:1003700000003F00000000FC00000003F00000004F
:100380000FC00000003F00000000FC00000003F070
:1003900026260FFFFFFFC07FFFFFFF83FFFFFFFF4A
:1003A0001FFFFFFFFEFFFFFFFFFFFFFFFFFFFFC07D
:1003B00000003FFF000001FFFC00000FFFF0000005
:1003C0007FFFC00007FFFF00003FFFFC0001FEFFB2
:1003D000F0000FF3FFC000FF8FFF0007F83FFC00A5
:1003E0003FC0FFF001FE03FFC00FF00FFF00FF80D2
:1003F0003FFC07F800FFF03FC003FFC1FE000FFF06
:100400000FF0003FFCFF8000FFF7F80003FFFFC084
:10041000000FFFFE00003FFFF00000FFFF80000321
:10042000FFF800000FFFC000003FFFFFFFFFFFFFCE
:10043000FFFFFFF7FFFFFFFF8FFFFFFFFC1FFFFF27
:10044000FFE03FFFFFFF0026260000000000000045
:100450000FC00000007F00000003FC0000001FF040
:10046000000000FFC0000007FF0000003FFC00008C
:1004700001FFF000000FEFC000007F3F000003F815
:10048000FC00001FC3F00000FE0FC00000003F0092
:10049000000000FC00000003F00000000FC000009E
:1004A000003F00000000FC00000003F00000000F0F
:1004B000C00000003F00000000FC00000003F0004E
:1004C00000000FC00000003F00000000FC00000022
:1004D00003F00000000FC00000003F00000000FC1F
:1004E00000000003F00000000FC00000003F00000B
:1004F0000000FC00000003F00000000FC0002626F2
:100500000FFFFFFFC07FFFFFFF83FFFFFFFF1FFF06
:10051000FFFFFEFFFFFFFFFFFFFFFFFFFFC0000029
:100520000FFF0000003FFC000000FC00000003F093
:100530000000000FC00000003F00000000FC0000B1
:100540000003F00000000FC00000003F0FFFFFFF9E
:10055000FC7FFFFFFFF3FFFFFFFF9FFFFFFFFEFF9B
:10056000FFFFFFF3FFFFFFFF0FC00000003F000091
:100570000000FC00000003F00000000FC0000000BD
:100580003F00000000FC00000003F00000000FC06E
:100590000000003F00000000FFFFFFFFFFFFFFFF24
:1005A000FFFFFFFFFFFFFFFFFFFFFFFFFFFFFFFF5B
:1005B000FFFFFFFFF026260FFFFFFF807FFFFFFFFB
:1005C00003FFFFFFFE1FFFFFFFFCFFFFFFFFFBFF1F
:1005D000FFFFFFEFC000001FBF0000007EFC000017
:1005E00001F800000007E00000001F800000007E0E
:1005F00000000001F800000007E00000001F80007C
:1006000000007E01FFFFFFF807FFFFFFC01FFFFF95
:10061000FF807FFFFFFF01FFFFFFFC07FFFFFFF0F1
:1006200000000007C00000001F000000007C000068
:100630000001F000000007C00000001F00000000E3
:100640007C00000001FFC0000007FF0000001FFF4A
:10065000FFFFFFFFFFFFFFFFF7FFFFFFFFDFFFFFD2
:10066000FFFE3FFFFFFFF03FFFFFFF802626000059
:10067000007F00000003FC0000001FF0000000FFEE
:10068000C0000007FF0000003FFC000001FFF00079
:10069000000FFFC00000FFFF000007FEFC00003F4E
:1006A000F3F00001FF8FC0000FF83F00007FC0FC97
:1006B0000003FE03F0001FF00FC001FF003F000F1A
:1006C000F800FC007FC003F003FC000FC01FE00037
:1006D0003F00FF0000FC07FFFFFFFFDFFFFFFFFF02
:1006E0007FFFFFFFFDFFFFFFFFF7FFFFFFFFDFFFC4
:1006F000FFFFFF0000003F00000000FC00000003BF
:10070000F00000000FC00000003F00000000FC00EF
:10071000000003F00000000FC00000003F000000D8
:1007200000FC002626FFFFFFFFFFFFFFFFFFFFFF8C
:10073000FFFFFFFFFFFFFFFFFFFFFFFFFFFFFFFFC9
:10074000FFFFC00000003F00000000FC00000003AD
:10075000F00000000FC00000003F00000000FC009F
:10076000000003F00000000FC00000003FFFFFFF8B
:10077000F0FFFFFFFFE3FFFFFFFFCFFFFFFFFFBF24
:10078000FFFFFFFFFFFFFFFFFC00000003F0000082
:10079000000FC00000003F00000000FC000000034C
:1007A000F00000000FC00000003F00000000FFF05C
:1007B000000003FFC000000FFF0000003FFFFFFF2D
:1007C000FFFFFFFFFFFFF7FFFFFFFF8FFFFFFFFCB4
:1007D0001FFFFFFFE03FFFFFFF0026260FFFFFFF89
:1007E000007FFFFFFC03FFFFFFF01FFFFFFFC0FFC5
:1007F000FFFFFF03FFFFFFFC0FC00000003F0000F2
:100800000000FC00000003F00000000FC00000002A
:100810003F00000000FC00000003F00000000FC0DB
:100820000000003FFFFFFFF0FFFFFFFFE3FFFFFFC0
:10083000FFCFFFFFFFFFBFFFFFFFFFFFFFFFFFFF38
:10084000F0000003FFC000000FFF0000003FFC00AD
:100850000000FFF0000003FFC000000FFF000000D9
:100860003FFC000000FFF0000003FFC000000FFF8E
:100870000000003FFFFFFFFFFFFFFFFFFFF7FFFF4D
:10088000FFFF8FFFFFFFFC1FFFFFFFE03FFFFFFFAA
:1008900000262603FFFFFF800FFFFFFF803FFFFFC3
:1008A000FF00FFFFFFFE03FFFFFFFC0FFFFFFFF056
:1008B0000000000FC00000003F00000000FC00002E
:1008C0000003F00000000FC00000003F0000000027
:1008D000FC00000003F00000000FC00000003F001B
:1008E000000000FC00000003F00000000FC000004A
:1008F000003F00000000FC00000003F00000000FBB
:10090000C00000003F00000000FC00000003F000F9
:1009100000000FC00000003F00000000FC000000CD
:1009200003F00000000FC00000003F00000000FCCA
:1009300000000003F00000000FC00000003F0000B6
:100940000000FC00000003F026260FFFFFFFC07F21
:10095000FFFFFF83FFFFFFFF1FFFFFFFFEFFFFFF04
:10096000FFFFFFFFFFFFFFC000000FFF0000003F81
:10097000FC000000FFF0000003FFC000000FFF00BC
:1009800000003FFC000000FFF0000003FFC000007B
:100990000FFF0000003FFFFFFFFFFDFFFFFFFFE72E
:1009A000FFFFFFFF9FFFFFFFFEFFFFFFFFFFF000C6
:1009B0000003FFC000000FFF0000003FFC0000002C
:1009C000FFF0000003FFC000000FFF0000003FFC2D
:1009D000000000FFF0000003FFC000000FFF000058
:1009E000003FFFFFFFFFFFFFFFFFFFF7FFFFFFFFDE
:1009F0008FFFFFFFFC1FFFFFFFE03FFFFFFF002611
:100A0000260FFFFFFFC07FFFFFFF83FFFFFFFF1FDA
:100A1000FFFFFFFEFFFFFFFFFFFFFFFFFFFFC00025
:100A2000000FFF0000003FFC000000FFF00000038B
:100A3000FFC000000FFF0000003FFC000000FFF0BF
:100A4000000003FFC000000FFF0000003FFFFFFF9A
:100A5000FFFFFFFFFFFFF7FFFFFFFFDFFFFFFFFFCE
:100A60003FFFFFFFFC3FFFFFFFF00000000FC00053
:100A700000003F00000000FC00000003F000000048
:100A80000FC00000003F00000000FC00000003F069
:100A90000000000FC00000003FFFFFFFFFFFFFFF4F
:100AA000FFFFF7FFFFFFFF8FFFFFFFFC1FFFFFFFB1
:100AB000E03FFFFFFF0026260000000000000000CE
:100AC0000000000000000000000000000000000026
:100AD0000000000000000000000000000000000016
:100AE0000000000000000000000000000000000006
:100AF00000000000000000000000000000000000F6
:100B00000000000000FFFFFC0003FFFFF0000FFFEC
:100B1000FFC0003FFFFF0000FFFFFC0003FFFFF0EE
:100B200000000000000000000000000000000000C5
:100B300000000000000000000000000000000000B5
:100B400000000000000000000000000000000000A5
:100B50000000000000000000000000000000000095
:100B60000000000000000000000000000026260039
:100B70000FC00000007F00000003FC0000001FF019
:100B8000000000FFC0000007FF0000003FFC000065
:100B900001FFF000000FEFC000007F3F000003F8EE
:100BA000FC00001FC3F00000FE0FC00000003F006B
:100BB000000000FC00000003F00000000FC0000077
:100BC000003F00000000FC00000003F00000000FE8
:100BD000C00000003F00000000FC00000003F00027
:100BE00000000FC00000003F00000000FC000000FB
:100BF00003F00000000FC00000003F00000000FCF8
:100C000000000003F00000000FC00000003F0000E3
:100C10000000FC00000003F00000000FC000000016
:100C20003F000000303007FFFFFFFFF00FFFFFFF26
:100C3000FFF81FFFFFFFFFFC3FFFFFFFFFFE3FFF2F
:100C4000FFFFFFFE7FFFFFFFFFFF7F00000003FFAE
:100C50007F00000007FF7F0000000FFF7F00000003
:100C60001FFF7F0000003FFF7F000000FFFF7F00AD
:100C70000001FFFF7F000003FFFF7F000007FF7FF1
:100C80007F00000FFE7F7F00001FFC7F7F00007F42
:100C9000F07F7F0000FFE07F7F0001FFC07F7F00CB
:100CA00003FF807F7F0007FF007F7F000FFE007F34
:100CB0007F003FFC007F7F007FF0007F7F00FFE030
:100CC000007F7F01FFC0007F7F03FF80007F7F07E1
:100CD000FF00007F7F1FFE00007F7F3FF800007F46
:100CE0007F7FF000007F7FFFE000007F7FFFC0007C
:100CF000007F7FFF8000007F7FFF0000007F7FFC80
:100D00000000007F7FF80000007F7FF00000007F80
:100D10007FE00000007F7FFFFFFFFFFF3FFFFFFF3F
:100D2000FFFE3FFFFFFFFFFE1FFFFFFFFFFC0FFF68
:100D3000FFFFFFF807FFFFFFFFF001FFFFFFFFC00E
:100D400000000000000030300000000001FF000043
:100D5000000003FF0000000003FF0000000007FF89
:100D6000000000000FFF000000001FFF0000000057
:100D70003FFF000000007FFF000000007FFF000039
:100D80000000FFFF00000001FF7F00000003FE7F66
:100D900000000007FE7F0000000FFC7F0000000F36
:100DA000F87F0000001FF07F00000000007F0000BF
:100DB0000000007F00000000007F00000000007FB6
:100DC00000000000007F00000000007F0000000025
:100DD000007F00000000007F00000000007F000096
:100DE0000000007F00000000007F00000000007F86
:100DF00000000000007F00000000007F00000000F5
:100E0000007F00000000007F00000000007F000065
:100E10000000007F00000000007F00000000007F55
:100E200000000000007F00000000007F00000000C4
:100E3000007F00000000007F00000000007F000035
:100E40000000007F00000000007F00000000007F25
:100E500000000000007F00000000007F0000000094
:100E6000007F00000000007F303001FFFFFFFFC067
:100E700007FFFFFFFFF01FFFFFFFFFF81FFFFFFF50
:100E8000FFFC3FFFFFFFFFFE3FFFFFFFFFFE7FFF77
:100E9000FFFFFFFF7F000000007F7F000000007F5A
:100EA0007F000000007F7F000000007F0000000046
:100EB000007F00000000007F00000000007F0000B5
:100EC0000000007F00000000007F00000000007FA5
:100ED00000000000007F00000000007F0000000014
:100EE000007F00000000007F01FFFFFFFFFF07FF02
:100EF000FFFFFFFE0FFFFFFFFFFE1FFFFFFFFFFCD7
:100F00003FFFFFFFFFF83FFFFFFFFFF07FFFFFFF07
:100F1000FFC07F00000000007F00000000007F0095
:100F2000000000007F00000000007F0000000000C3
:100F30007F00000000007F00000000007F00000034
:100F400000007F00000000007F00000000007F0024
:100F5000000000007F00000000007F000000000093
:100F60007FFFFFFFFFFF7FFFFFFFFFFF7FFFFFFF11
:100F7000FFFF7FFFFFFFFFFF7FFFFFFFFFFF7FFF01
:100F8000FFFFFFFF7FFFFFFFFFFF303001FFFFFF8D
:100F9000FF0007FFFFFFFFC01FFFFFFFFFE01FFF76
:100FA000FFFFFFF03FFFFFFFFFF83FFFFFFFFFF8EE
:100FB0007FFFFFFFFFFC7F00000001FC7F000000BF
:100FC00001FC7F00000001FC7F00000001FC00002C
:100FD000000001FC0000000001FC0000000001FC1A
:100FE0000000000001FC0000000001FC0000000007
:100FF00001FC0000000001FC0000000001FC0000FA
:10100000000001FC007FFFFFFFFC007FFFFFFFF8F7
:10101000007FFFFFFFF8007FFFFFFFFC007FFFFF67
:10102000FFFE007FFFFFFFFE007FFFFFFFFF0000CE
:101030000000007F00000000007F00000000007F33
:1010400000000000007F00000000007F00000000A2
:10105000007F00000000007F00000000007F000013
:101060000000007F00000000007F7F000000007F84
:101070007F000000007F7F000000007F7F80000075
:10108000007F7FFFFFFFFFFF3FFFFFFFFFFE3FFFF0
:10109000FFFFFFFE1FFFFFFFFFFC0FFFFFFFFFF83B
:1010A00007FFFFFFFFF001FFFFFFFFC03030000030
:1010B00000007F8000000000FF8000000001FF8032
:1010C00000000003FF8000000007FF800000000F09
:1010D000FF800000001FFF800000003FFF80000035
:1010E000007FFF80000000FFFF80000001FFFF8005
:1010F000000007FFFF8000000FFFBF8000001FFE01
:101100003F8000003FFC3F8000007FF83F800000F0
:10111000FFF03F800001FFE03F800003FF803F8041
:101120000007FF003F80000FFE003F80001FFC0013
:101130003F80007FF8003F8000FFF0003F8001FF0C
:10114000C0003F8003FF80003F8007FF00003F801A
:101150000FFE00003F801FFC00003F801FFFFFFFCD
:10116000FFFF1FFFFFFFFFFF1FFFFFFFFFFF1FFF2F
:10117000FFFFFFFF1FFFFFFFFFFF1FFFFFFFFFFF3F
:101180001FFFFFFFFFFF000000003F800000000086
:101190003F80000000003F80000000003F80000012
:1011A00000003F80000000003F80000000003F8002
:1011B000000000003F80000000003F8000000000B1
:1011C0003F80000000003F80000000003F80303082
:1011D0007FFFFFFFFFFF7FFFFFFFFFFF7FFFFFFF9F
:1011E000FFFF7FFFFFFFFFFF7FFFFFFFFFFF7FFF8F
:1011F000FFFFFFFF7FFFFFFFFFFF7F0000000000FA
:101200007F00000000007F00000000007F00000061
:1012100000007F00000000007F00000000007F0051
:10122000000000007F00000000007F0000000000C0
:101230007F00000000007F00000000007F00000031
:1012400000007F00000000007FFFFFFFFFC07FFF66
:10125000FFFFFFF07FFFFFFFFFF87FFFFFFFFFFCB7
:101260007FFFFFFFFFFE7FFFFFFFFFFE7FFFFFFF10
:10127000FFFF00000000007F00000000007F000072
:101280000000007F00000000007F00000000007FE1
:1012900000000000007F00000000007F0000000050
:1012A000007F00000000007F00000000007F7F0042
:1012B0000000007F7F000000007F7F000000007FB3
:1012C0007F000000007F7FFFFFFFFFFF3FFFFFFF6A
:1012D000FFFE3FFFFFFFFFFE1FFFFFFFFFFC1FFFA3
:1012E000FFFFFFF807FFFFFFFFF001FFFFFFFFC059
:1012F000303001FFFFFFFF0007FFFFFFFF000FFF80
:10130000FFFFFF001FFFFFFFFF003FFFFFFFFF008A
:101310003FFFFFFFFF007FFFFFFFFF007F00000098
:1013200000007F00000000007F00000000007F0040
:10133000000000007F00000000007F0000000000AF
:101340007F00000000007F00000000007F00000020
:1013500000007F00000000007F00000000007F0010
:10136000000000007F00000000007FFFFFFFFFC0C3
:101370007FFFFFFFFFF07FFFFFFFFFF87FFFFFFF13
:10138000FFFC7FFFFFFFFFFE7FFFFFFFFFFE7FFFF2
:10139000FFFFFFFF7F000000007F7F000000007F55
:1013A0007F000000007F7F000000007F7F000000C2
:1013B000007F7F000000007F7F000000007F7F0033
:1013C0000000007F7F000000007F7F000000007FA2
:1013D0007F000000007F7F000000007F7F00000092
:1013E000007F7F000000007F7FFFFFFFFFFF3FFFC8
:1013F000FFFFFFFE3FFFFFFFFFFE1FFFFFFFFFFCA2
:101400000FFFFFFFFFF807FFFFFFFFF001FFFFFFE8
:10141000FFC03030007FFFFFFFC0007FFFFFFFF005
:10142000007FFFFFFFF8007FFFFFFFFC007FFFFF53
:10143000FFFE007FFFFFFFFE007FFFFFFFFF0000BA
:101440000000007F00000000007F00000000007F1F
:1014500000000000007F00000000007F000000008E
:10146000007F00000000007F00000000007F0000FF
:101470000000007F00000000007F00000000007FEF
:1014800000000000007F00000000007F000000005E
:10149000007F00000000007F00000000007F0000CF
:1014A0000000007F00000000007F00000000007FBF
:1014B00000000000007F00000000007F000000002E
:1014C000007F00000000007F00000000007F00009F
:1014D0000000007F00000000007F00000000007F8F
:1014E00000000000007F00000000007F00000000FE
:1014F000007F00000000007F00000000007F00006F
:101500000000007F00000000007F00000000007F5E
:1015100000000000007F00000000007F00000000CD
:10152000007F00000000007F00000000007F00003E
:101530000000007F303001FFFFFFFFC007FFFFFF0B
:10154000FFF00FFFFFFFFFF81FFFFFFFFFFC3FFF54
:10155000FFFFFFFE3FFFFFFFFFFE7FFFFFFFFFFFDD
:101560007F000000007F7F000000007F7F00000000
:10157000007F7F000000007F7F000000007F7F0071
:101580000000007F7F000000007F7F000000007FE0
:101590007F000000007F7F000000007F7F000000D0
:1015A000007F7F000000007F7F000000007F7F0041
:1015B0000000007F3FFFFFFFFFFE3FFFFFFFFFFE3A
:1015C0003FFFFFFFFFFE3FFFFFFFFFFE3FFFFFFF6D
:1015D000FFFE7FFFFFFFFFFF7F000000007F7F0017
:1015E0000000007F7F000000007F7F000000007F80
:1015F0007F000000007F7F000000007F7F00000070
:10160000007F7F000000007F7F000000007F7F00E0
:101610000000007F7F000000007F7F000000007F4F
:101620007F000000007F7F000000007F7FFFFFFF42
:10163000FFFF3FFFFFFFFFFE3FFFFFFFFFFE1FFF1C
:10164000FFFFFFFC0FFFFFFFFFF807FFFFFFFFF0AB
:1016500001FFFFFFFFC0303003FFFFFFFFC00FFFA0
:10166000FFFFFFF01FFFFFFFFFF83FFFFFFFFFFC43
:101670007FFFFFFFFFFE7FFFFFFFFFFEFFFFFFFF7C
:10168000FFFFFE000000007FFE000000007FFE0064
:101690000000007FFE000000007FFE000000007FD1
:1016A000FE000000007FFE000000007FFE00000042
:1016B000007FFE000000007FFE000000007FFE00B3
:1016C0000000007FFE000000007FFE000000007FA1
:1016D000FE000000007FFFFFFFFFFFFF7FFFFFFF17
:1016E000FFFF7FFFFFFFFFFF3FFFFFFFFFFF1FFF2A
:1016F000FFFFFFFF0FFFFFFFFFFF03FFFFFFFFFFE6
:1017000000000000007F00000000007F00000000DB
:10171000007F00000000007F00000000007F00004C
:101720000000007F00000000007F00000000007F3C
:1017300000000000007F00000000007F00000000AB
:10174000007F00000000007F00000000007FFFFF1E
:10175000FFFFFFFFFFFFFFFFFFFE7FFFFFFFFFFE1B
:101760003FFFFFFFFFFC3FFFFFFFFFF80FFFFFFF03
:10177000FFF003FFFFFFFFC030300000000000005B
:101780000000000000000000000000000000000059
:101790000000000000000000000000000000000049
:1017A0000000000000000000000000000000000039
:1017B0000000000000000000000000000000000029
:1017C0000000000000000000000000000000000019
:1017D0000000000000000000000000000000000009
:1017E00000000000000000000000000000000000F9
:1017F0000000000000000000001FFFFFF800001FB5
:10180000FFFFF800001FFFFFF800001FFFFFF800B8
:10181000001FFFFFF800001FFFFFF800001FFFFF81
:10182000F8000000000000000000000000000000C0
:1018300000000000000000000000000000000000A8
:101840000000000000000000000000000000000098
:101850000000000000000000000000000000000088
:101860000000000000000000000000000000000078
:101870000000000000000000000000000000000068
:101880000000000000000000000000000000000058
:10189000000000000000000000003030000FF800E1
:1018A0000000001FF8000000001FF8000000003FCB
:1018B000F8000000007FF800000000FFF8000000C2
:1018C00001FFF800000003FFF800000003FFF8002C
:1018D000000007FFF80000000FFBF80000001FF3F6
:1018E000F80000003FF3F80000007FE3F80000007C
:1018F0007FC3F8000000FF83F80000000003F80039
:1019000000000003F80000000003F80000000003DE
:10191000F80000000003F80000000003F8000000D9
:101920000003F80000000003F80000000003F800C6
:1019300000000003F80000000003F80000000003AE
:10194000F80000000003F80000000003F8000000A9
:101950000003F80000000003F80000000003F80096
:1019600000000003F80000000003F800000000037E
:10197000F80000000003F80000000003F800000079
:101980000003F80000000003F80000000003F80066
:1019900000000003F80000000003F800000000034E
:1019A000F80000000003F80000000003F800000049
:1019B0000003F80000000003F80000000C07FFE837
:1019C00003AA9AA9AA9803FFE0416D6D6F20636F87
:1019D0006C6F722028312F332900416D6D6F2063A9
:1019E0006F6C6F722028322F332900416D6D6F208C
:1019F000636F6C6F72202846756C6C2900426163BE
:101A00006B67726F756E6420636F6C6F72005549FF
:101A100020436F6C6F7200526F746174652055497A
:101A2000203930206467727300496E766572746580
:101A300064004D616E75616C206F6E6C790041754C
:101A4000746F206F6E6C79004175746F20414E4445
:101A5000204D616E75616C004175746F204F52208E
:101A60004D616E75616C00363A00353A00343A00CB
:101A7000333A00323A00313A003C3C204261636B19
:101A80000053797374656D20496E666F726D617471
:101A9000696F6E0053617665206272696768746E63
:101AA0006573730052656C6F61642062656861766E
:101AB000696F720055492053657474696E677300CD
:101AC0005365742074696D65004D616E61676520B2
:101AD00050726573657473003C3C205361766520D9
:101AE000262045786974000000000800020100000B
:101AF00003040700000000000000000000000025B3
:101B00000028002B0000000000240027002A000409
:101B10000404040404040402020202020203030394
:101B2000030303010204081020408001020408108E
:101B300020010204081020791A171A0E1AFD19EB59
:101B400019DA19C919581A481A3E1A321A291A7973
:101B50001A761A731A701A6D1A6A1A671AD81AC97D
:101B60001AC01AB41AA41A941A811A0000000000AC
:101B70003E5B4F5B3E3E6B4F6B3E1C3E7C3E1C18FB
:101B80003C7E3C181C577D571C1C5E7F5E1C001859
:101B90003C1800FFE7C3E7FF0018241800FFE7DB4D
:101BA000E7FF30483A060E2629792926407F0505A9
:101BB00007407F05253F5A3CE73C5A7F3E1C1C08E6
:101BC000081C1C3E7F14227F22145F5F005F5F06AB
:101BD000097F017F006689956A606060606094A2F9
:101BE000FFA29408047E040810207E201008082A12
:101BF0001C08081C2A08081E101010100C1E0C1EB1
:101C00000C30383E3830060E3E0E06000000000054
:101C100000005F00000007000700147F147F1424F9
:101C20002A7F2A122313086462364956205000087E
:101C3000070300001C2241000041221C002A1C7FD7
:101C40001C2A08083E0808008070300008080808B0
:101C500008000060600020100804023E5149453E23
:101C600000427F400072494949462141494D33189D
:101C700014127F1027454545393C4A4949314121D5
:101C80001109073649494936464949291E000014B9
:101C90000000004034000000081422411414141401
:101CA00014004122140802015909063E415D594EB3
:101CB0007C1211127C7F494949363E414141227FC5
:101CC0004141413E7F494949417F090909013E415E
:101CD0004151737F0808087F00417F410020404147
:101CE0003F017F081422417F404040407F021C0298
:101CF0007F7F0408107F3E4141413E7F090909066C
:101D00003E4151215E7F091929462649494932033E
:101D1000017F01033F4040403F1F2040201F3F40C4
:101D200038403F631408146303047804036159497D
:101D30004D43007F414141020408102000414141D0
:101D40007F040201020440404040400003070800B5
:101D500020545478407F2844443838444444283838
:101D60004444287F385454541800087E090218A4AB
:101D7000A49C787F0804047800447D400020404003
:101D80003D007F1028440000417F40007C0478041F
:101D9000787C080404783844444438FC1824241817
:101DA00018242418FC7C08040408485454542404BF
:101DB000043F44243C4040207C1C2040201C3C40EC
:101DC00030403C44281028444C9090907C4464540B
:101DD0004C440008364100000077000000413608FE
:101DE0000002010204023C2623263C1EA1A161122E
:101DF0003A4040207A38545455592155557941225A
:101E000054547842215554784020545579400C1E42
:101E100052721239555555593954545459395554EB
:101E200054580000457C410002457D420001457C3C
:101E3000407D1211127DF0282528F07C5455450074
:101E40002054547C547C0A097F4932494949323A2A
:101E50004444443A324A4848303A4141217A3A426D
:101E6000402078009DA0A07D3D4242423D3D404043
:101E7000403D3C24FF2424487E4943662B2FFC2F01
:101E80002BFF0929F620C0887E090320545479418C
:101E90000000447D413048484A32384040227A00B0
:101EA0007A0A0A727D0D19317D2629292F282629C3
:101EB00029292630484D4020380808080808080815
:101EC00008382F10C8ACBA2F102834FA00007B0055
:101ED0000008142A142222142A140855005500550B
:101EE000AA55AA55AAFF55FF55FF000000FF001094
:101EF0001010FF00141414FF001010FF00FF10104A
:101F0000F010F0141414FC001414F700FF0000FF8C
:101F100000FF1414F404FC141417101F10101F10E9
:101F20001F1414141F00101010F0000000001F10E8
:101F30001010101F10101010F010000000FF1010F3
:101F400010101010101010FF10000000FF140000FF
:101F5000FF00FF00001F10170000FC04F41414170A
:101F600010171414F404F40000FF00F714141414F0
:101F7000141414F700F7141414171410101F101F62
:101F8000141414F4141010F010F000001F101F00AF
:101F900000001F14000000FC140000F010F01010EE
:101FA000FF10FF141414FF141010101F0000000085
:101FB000F010FFFFFFFFFFF0F0F0F0F0FFFFFF0079
:101FC00000000000FFFF0F0F0F0F0F38444438448C
:101FD000FC4A4A4A347E02020606027E027E026300
:101FE000554941633844443C04407E201E2006028B
:101FF0007E020299A5E7A5991C2A492A1C4C720168
:10200000724C304A4D4D303048784830BC625A46A8
:102010003D3E494949007E0101017E2A2A2A2A2A99
:1020200044445F444440514A444040444A51400083
:1020300000FF0103E080FF000008086B6B08361208
:10204000362436060F090F0600001818000000108D
:1020500010003040FF0101001F01011E00191D1773
:1020600012003C3C3C3C000000000000A235112462
:102070001FBECFEFD8E0DEBFCDBF11E0A0E0B1E0E2
:10208000E2EDF9E702C005900D92AE3DB107D9F738
:1020900024E0AEEDB1E001C01D92A73BB207E1F72D
:1020A00010E1C7E3D0E104C02197FE010E94C83CC3
:1020B000C633D107C9F70E948A2D0C94E73C0C94D3
:1020C0000000F8944B9913C080911D02811111C03A
:1020D0008091E9019091EA0101979093EA01809340
:1020E000E90181E08093040280931D0202C01092F6
:1020F0001D027894089508950895EF92FF920F932A
:102100001F934091DE012091200230912102423044
:1021100069F0433021F04130B1F4207E0EC03770B9
:10212000982F8827990F990F990F07C02F71387F23
:1021300045E0880F991F4A95E1F7822B932B9093E6
:10214000210280932002E0902002F090210208E119
:1021500010E028E130E040E150E068E570E085E51E
:1021600094E00E94B61F1F910F91FF90EF90089589
:102170008093DE01813061F090F0823031F0833065
:1021800009F049C02BEA33E005C023E933E002C07F
:102190002BE733E030932302209322023CC0E091EE
:1021A0001E02F0911F0280912002909121029183E2
:1021B000808385E08093ED01609125047091260471
:1021C00085E594E00E94EF19809123049091240406
:1021D00090936804809367049093660480936504E9
:1021E00088E290E09093620480936104109264040A
:1021F000109263048EE991E00E94772268E070E01B
:102200008BEC93E00E947C228BEC93E09093230272
:102210008093220208952091250430912604409154
:102220002304509124045093660440936504309332
:1022300068042093670490E0019724E0880F991FB9
:102240002A95E1F72BE230E0A901481B590B509386
:1022500062044093610482E790E090936404809369
:1022600063048EE50C942F22EF92FF920F931F933D
:10227000CF93DF93EC0180910F0490E0FC01EE0F0F
:10228000FF1FE55DFB4FD183C0832BE034E030932B
:10229000230220932202E0902504F090260440912E
:1022A000190450911A0420911B0430911C04240F2E
:1022B000351F289FB001299F700D389F700D112484
:1022C00040911504509116044E5F5F4F460F571F03
:1022D0000AE010E02AE030E060E570E085E594E097
:1022E0000E94C31BCD2B61F52091190430911A0473
:1022F00080911B0490911C04280F391F80910F04BA
:10230000829FA001839F500D11248091150490910C
:1023100016040296840F951F2AE530E0309362047C
:102320002093610490936404809363048AEA91E0AB
:10233000DF91CF911F910F91FF90EF900C94772236
:10234000DF91CF911F910F91FF90EF900895A3E23D
:10235000B4E012962D913C911397E5E5F4E04D9190
:102360005C91518B408B338B228BABE0B4E01E969B
:102370004D915C911F9750962D913C915197420F32
:10238000531F14962C911497249FB001259F700D14
:1023900011241A962D913C911B972E5F3F4F260FCB
:1023A000371F4AE550E05587448737872687BC01A9
:1023B00080E090E04AE00E94342280E20C942F22D8
:1023C0000F931F93CF93DF93EBE6F3E0F093230299
:1023D000E09322028091B40490E091878087C3E269
:1023E000D4E00A811B812CE030E04EE350E062E350
:1023F00070E085E594E00E941C20088119812CE0A2
:1024000030E04EE350E064E470E085E594E00E9443
:102410001C20DF91CF911F910F910895809163034C
:102420008093B504E5E5F4E082E390E09587848746
:10243000978786870C940E22809173038093B4044F
:10244000E5E5F4E082E390E09587848797878687C7
:102450000C940E22EF92FF920F931F938091C7036B
:10246000E0902304F090240481112DC00CE010E0D2
:1024700028E330E044E650E060E470E085E594E075
:102480000E94B61F8091230490912404209125047A
:102490003091260430936604209365049093680479
:1024A0008093670480E590E09093620480936104D8
:1024B00086E690E090936404809363048EEA91E052
:1024C0000E94772225C02091250430912604F092A5
:1024D0006604E0926504309368042093670490E0FA
:1024E000019734E0880F991F3A95E1F72BE230E02D
:1024F000A901481B590B509362044093610482E781
:1025000090E090936404809363048FE60E942F22EE
:102510008091DE019091C703981709F460C0811182
:1025200041C0E0902304F09024040CE010E028E384
:1025300030E044E650E060E470E085E594E00E941D
:10254000221AE0902504F09026040AE010E026E329
:1025500030E045E650E061E470E085E594E00E94FB
:10256000B61F809125049091260420912304309178
:102570002404309366042093650490936804809348
:10258000670480E590E0909362048093610486E69E
:1025900090E090936404809363048EEA91E00E943B
:1025A000772219C0E0902504F090260490E001976E
:1025B00024E0880F991F2A95E1F76BE270E0681B11
:1025C000790B0AE010E02CE030E042E750E085E5CE
:1025D00094E00E94B61F8091C7038093DE011F9193
:1025E0000F91FF90EF900895CF92DF92EF92FF92BC
:1025F0000F931F93CF93DF9323E02093ED0110926D
:10260000DE0190931F0280931E02FC018081918164
:10261000909321028093200283EC93E09093230215
:102620008093220283E2C82E84E0D82EF6016281D4
:10263000738185E594E00E94EF19EBEAF3E0809165
:1026400021028695869586958087118668E0CF0160
:102650000E94A3248091200290912102807E977095
:1026600025E0969587952A95E1F790939C038093B2
:102670009B0368E183E993E00E94A32480912002F8
:10268000909121028F719927909384038093830303
:1026900068E28BE793E00E94A324F601E080F180DA
:1026A0000CE010E028E330E044E650E060E470E045
:1026B00085E594E00E94221AF60182819381C5E5A6
:1026C000D4E020813181398B288B9B8B8A8B80E5EC
:1026D00090E09D878C8785E690E09F878E878EEAC5
:1026E00091E00E9477228AE090E09D878C879F8707
:1026F0008E87E0902002F090210208E110E028E1AE
:1027000030E040E150E068E570E0CE010E94B61F85
:10271000F601E080F1800AE110E02AE130E04FE0CC
:1027200050E067E570E0CE010E94221ADF91CF9160
:102730001F910F91FF90EF90DF90CF900C942A1291
:102740000F931F93CF93DF93F999FECF80E090E032
:102750000E944F38823409F441C0F999FECF62E4F7
:1027600080E090E00E94693864E681E090E00E9499
:10277000693860EE7FEF82E090E00E94773860E099
:1027800070E084E090E00E94773860EE7FEF86E0B2
:1027900090E00E94773860EE7FEF88E090E00E9442
:1027A000773860EE7FEF8AE090E00E9477386EE144
:1027B00070E08CE090E00E9477386EE571E08EE08A
:1027C00090E00E947738C0E1D0E060E0CE010E9446
:1027D00069382196CB31D105C1F7B6CF81E090E0C1
:1027E0000E944F388093E50103E214E0C2E0D0E09C
:1027F000CE010E944F38F80181938F012196CB3191
:10280000D105B1F7DF91CF911F910F910895A0915C
:102810002202B0912302109779F0482F50E0440F24
:10282000551F47505E4FED91FC9111970280F38147
:10283000E02D682FCD0109940895CF93DF9381E0B7
:102840008093ED01C3E2D4E06A817B8185E594E069
:102850000E94EF1988819981E5E5F4E0938B828BE2
:10286000918B808B88E290E0958784871786168607
:1028700081EA91E00E94772268E070E08CE394E0C6
:102880000E947C228CE394E09093230280932202A6
:10289000DF91CF91089590E08730910508F055C001
:1028A000FC01EC5CFF4F0C94C83C0C941D1483E2BB
:1028B00094E00BC085E294E008C087E294E005C094
:1028C00089E294E002C08BE294E00C94F4126091EF
:1028D0003A04633010F46F5F01C060E060933A0423
:1028E00085E594E00E94662885E08093ED01609183
:1028F00025047091260485E594E00E94EF198091EB
:102900002304909124049093680480936704909327
:1029100066048093650488E290E09093620480935B
:10292000610410926404109263048EE991E00E94A5
:10293000772268E070E08BEC93E00E947C228BECC5
:1029400093E090932302809322020895CF93811104
:1029500003C0CF910C941D14C82F80912504909131
:10296000260420912304309124043093660420939C
:102970006504909368048093670420911904309152
:102980001A0480911B0490911C04280F391FC29FC8
:10299000A001C39F500D112480911504909116043D
:1029A0000296840F951F20E530E030936204209357
:1029B000610490936404809363048EE30E942F2249
:1029C00020910F0430E04091190450911A04809135
:1029D0001B0490911C04480F591F429FB001439F54
:1029E000700D529F700D1124809115049091160462
:1029F0000296860F971F4AE550E050936204409379
:102A00006104909364048093630481E090E0C1309A
:102A100011F080E090E0909300048093FF038BEF2F
:102A200093E09093230280932202220F331FF90137
:102A3000E55DFB4F808191819093040480930304B2
:102A40000E94222383EB91E0CF910C947722809314
:102A500039040C941D14CF93DF9380912504909139
:102A6000260420912304309124043093660420939B
:102A70006504909368048093670489E690E09093DE
:102A80006204809361048DE090E0909364048093ED
:102A9000630482E0809369048091E60182FF03C0B1
:102AA0008091DF0102C08091EB0190E001960E94CD
:102AB000222381E0809369048091E60182FF05C0B2
:102AC000809123049091240404C080912504909166
:102AD000260490936804809367049093660480931F
:102AE00065048FE590E09093620480936104C6E1F1
:102AF000D0E0D0936404C09363048CE30E942F223F
:102B000087E790E09093620480936104D09364041B
:102B1000C09363048EE30E942F228091250490913C
:102B200026042091230430912404309366042093DA
:102B300065049093680480936704DF91CF910895B2
:102B4000682F8091220290912302009739F0DC01D6
:102B5000ED91FC910190F081E02D0994623051F0EB
:102B600018F46130D1F00895633089F16F3F09F4B2
:102B700056C008958091ED01882319F08F3F59F0D8
:102B800008958091EB018093DF018091E6018460DC
:102B90008093E60137C00C941D148091ED018111E2
:102BA0004EC08091E60182FF4AC08091DF018823F8
:102BB00011F0815001C085E0E82FF0E0EE0FFF1F1B
:102BC000E35DFB4F20813181232B89F319C0809174
:102BD000ED01811134C08091E60182FF30C0809107
:102BE000DF01853010F48F5F01C080E0E82FF0E056
:102BF000EE0FFF1FE35DFB4F20813181232B89F313
:102C00008093DF010E942B150E947D296093E001D3
:102C10007093E1018093E2019093E3010895E091C4
:102C2000EB01F0E0EE0FFF1FE35DFB4F8081918130
:102C30009093EA018093E90182E08093EC0108958A
:102C40008091F0014A9913C0811119C08091EE0161
:102C50009091EF01049798F08FEF0E94A01581E00A
:102C60008093F0011092F8031092F70304C08823B8
:102C700031F01092F0011092EF011092EE010895E0
:102C80008F929F92AF92BF92CF92DF92EF92FF927C
:102C90000F931F932091E501822F90E0A0E0B0E018
:102CA0009C01AD012150310941095109A4E6B0E070
:102CB0000E949B382EEF30E040E050E00E947C38CC
:102CC000AA24BB24A21AB30AE3E2F4E0C080D180B4
:102CD000E280F380812C912C06E010E024E630E0C5
:102CE0004EE150E063E170E085E594E00E94D81E7B
:102CF0001F910F91FF90EF90DF90CF90BF90AF901A
:102D00009F908F900895EF92FF920F931F93CF9310
:102D1000DF93C3E2D4E00A811B812881398143EC2F
:102D200051E06CE170E082E090E00E942724E880AE
:102D3000F98008E010E028E630E04DE150E060E185
:102D400070E085E594E00E94B61FDF91CF911F915E
:102D50000F91FF90EF9008950F931F93CF93DF9300
:102D60006091E9017091EA01161617060CF5CB0186
:102D7000770FAA0BBB0BBC01CD0126E0660F771FB6
:102D8000881F991F2A95D1F7E091EB01F0E0EE0F33
:102D9000FF1FE35DFB4F20813181032E000C440BAC
:102DA000550B0E947C38C0E4C21BCB3238F001C006
:102DB000C0E480912B0490912C040BC0C63128F004
:102DC0008091290490912A0404C080912704909155
:102DD00028049093E8018093E701D0E02091250436
:102DE000309126044091E7015091E8018E0165ED94
:102DF00071E080E090E00E945023002711270C1B17
:102E00001D0B20912504309126044091E70150913B
:102E1000E80167E572E080E490E00E945023DF91D2
:102E2000CF911F910F9108950F931F93CF93DF932D
:102E300010922302109222021092ED01C3E2D4E01C
:102E40006A817B8185E594E00E94EF198A819B81EC
:102E5000E5E5F4E028813981318B208B938B828BDF
:102E60008FE590E0958784878DE090E0978786874F
:102E700086EB91E00E9477220A811B8128813981AB
:102E80004CEB59E163E070E088E590E00E94272474
:102E90000E94AC1681E08093EC01DF91CF911F91ED
:102EA0000F910C942B15EF92FF920F931F93CF93DA
:102EB000DF9390E08730910508F001C2FC01E55CEA
:102EC000FF4F0C94C83CF999FECF03E214E0C2E036
:102ED000D0E0F80161918F01CE010E945738219610
:102EE000CB31D105B1F7DF91CF911F910F91FF90B9
:102EF000EF900C94141782E08093ED01609125040B
:102F00007091260485E594E00E94EF1980912304D6
:102F100090912404909368048093670490936604CE
:102F20008093650488E290E090936204809361044A
:102F3000109264041092630489EB91E00E9477225E
:102F400068E070E08BE094E00E947C228BE094E0EB
:102F5000909323028093220280912504909126046D
:102F60002091230430912404309366042093650457
:102F700090936804809367040DE214E0C1E0D0E010
:102F80008AE5E82EF12C8091100490E0C817D9074B
:102F90000CF095C12091190430911A0480911B0402
:102FA00090911C04280F391F2C9FA0012D9F500DBC
:102FB0003C9F500D112480911504909116040296A7
:102FC000840F951FF0926204E09261049093640470
:102FD00080936304F801819191918F01009719F01A
:102FE0000E94222304C08AEA91E00E94772221965F
:102FF000CACF8BE593E090932302809322028091C5
:10300000B50490E09093640380936303609125047A
:103010007091260485E594E00E94EF1982E390E028
:10302000909362048093610490936404809363049A
:10303000809125049091260420912304309124044A
:10304000309366042093650490936804809367042A
:103050000E940E2200912304109124042CE030E001
:103060004EE350E062E370E085E594E00E941C20AE
:1030700026C185E08093ED016091250470912604BE
:1030800085E594E00E94EF19809123049091240437
:10309000909368048093670490936604809365041A
:1030A00088E290E09093620480936104109264043B
:1030B000109263048EE991E00E94772268E070E04C
:1030C0008BEC93E00E947C228BEC93E090932302A4
:1030D00080932202F4C0809139048093E70384E056
:1030E0008093ED01609125047091260485E594E0BC
:1030F0000E94EF1980912304909124049093680416
:1031000080936704909366048093650488E290E05E
:10311000909362048093610410926404109263049B
:1031200081EC91E00E94772262E170E083EE93E00F
:103130000E947C2283EE93E09093230280932202EC
:103140008091250490912604209123043091240439
:103150003093660420936504909368048093670419
:103160002091F1033091F2038091F3039091F403E5
:10317000280F391F80913904829FA001839F500D31
:1031800011248091ED039091EE030296840F951F18
:1031900028E030E03093620420936104909364044B
:1031A000809363048EE3DF91CF911F910F91FF9085
:1031B000EF900C942F22F999FECF6091E50181E008
:1031C00090E00E945738809123049091240420912C
:1031D000250430912604309366042093650490936F
:1031E00068048093670420914A0430914B048091D5
:1031F0004C0490914D04280F391F85E0829FA00157
:10320000839F500D112480914604909147040296AB
:10321000840F951F29E630E0309362042093610407
:1032200090936404809363048EEC91E0DF91CF91DE
:103230001F910F91FF90EF900C9477228FEF809366
:10324000ED011092230210922202809125049091A8
:1032500026042091230430912404309366042093A3
:10326000650490936804809367041092620410923E
:10327000610480E290E0909364048093630481EDA4
:1032800091E00E947722EDEBF1E06591749185E584
:1032900094E00E94512D6AE871E085E594E00E9477
:1032A000752DEFEBF1E06591749185E594E0DF9188
:1032B000CF911F910F91FF90EF900C94512DDF91C2
:1032C000CF911F910F91FF90EF9008951F920F9251
:1032D0000FB60F9211240F900FBE0F901F901895EC
:1032E0001F920F920FB60F9211242F933F934F937B
:1032F0005F936F937F938F939F93AF93BF93EF935E
:10330000FF938091F301319913C0811119C080910D
:10331000F1019091F201049798F082E00E94A015CB
:1033200081E08093F3011092FE011092FD0104C030
:10333000882331F01092F3011092F2011092F10102
:1033400080910302309913C0811119C08091F70157
:103350009091F801049798F081E00E94A01581E017
:10336000809303021092FC011092FB0104C0882399
:1033700031F0109203021092F8011092F70180913F
:10338000F601329913C0811119C08091F401909116
:10339000F501049798F083E00E94A01581E08093E6
:1033A000F601109200021092FF0104C0882331F050
:1033B0001092F6011092F5011092F401FF91EF9135
:1033C000BF91AF919F918F917F916F915F914F913D
:1033D0003F912F910F900FBE0F901F901895EF9275
:1033E000FF920F931F93DC011A960D911C911B976E
:1033F00018962D913C911997ED91FC9100A0F1A1A7
:10340000E02D7B0140E050E060E070E009951F9105
:103410000F91FF90EF9008950895FC016370658B04
:103420008481958126813781613039F0633029F0BC
:1034300091878087338722870895318720879387F4
:10344000828708956F927F928F929F92AF92BF92E0
:10345000CF92DF92EF92FF920F931F93CF93DF9360
:10346000EC014B015A0169013801E881F9810284BC
:10347000F385E02D0995E881F9810288F389E02D33
:1034800087019601A501B401CE010995A501460D5C
:10349000571D41505109E881F9810288F389E02DD7
:1034A0009601B401CE010995E881F9810088F1897E
:1034B000E02D9301A501B401CE010995C80CD91CDA
:1034C000B60161507109E881F9810088F189E02D28
:1034D0009301A501CE010995E881F9810688F78954
:1034E000E02DCE01DF91CF911F910F91FF90EF90D2
:1034F000DF90CF90BF90AF909F908F907F906F9014
:1035000009948F929F92AF92BF92CF92DF92EF92E7
:10351000FF920F931F93CF93DF934C016B015A01DE
:10352000E901DC01ED91FC916217730781F4041746
:10353000150724F48B2D5801042F182F0A191B0985
:1035400098012F5F3F4F048CF58DE02D12C040177E
:10355000510709F52617370724F48D2D6901C62F69
:10356000D82F9E012C193D092F5F3F4F068CF78DF8
:10357000E02D8701A501B601C4010995DF91CF9126
:103580001F910F91FF90EF90DF90CF90BF90AF9081
:103590009F908F9008950284F385E02D0995D401C2
:1035A000ED91FC910488F589E02D9E01A501B601FD
:1035B000C4010995D401ED91FC910688F789E02DAD
:1035C000C401DF91CF911F910F91FF90EF90DF9099
:1035D000CF90BF90AF909F908F900994EF92FF9201
:1035E0000F931F93DC011A960D911C911B9718964F
:1035F0002D913C911997ED91FC9100A0F1A1E02D46
:103600007B0140E050E060E070E009951F910F9170
:10361000FF90EF9008954F925F926F927F928F92FA
:103620009F92AF92BF92CF92DF92EF92FF920F9351
:103630001F93CF93DF936C012B015A01390148018D
:10364000DC01ED91FC910284F385E02D0995E20106
:10365000640C751CD601ED91FC91C615D7055CF480
:103660000088F189E02D87019401A501BE01C60102
:1036700009952196EFCF0688F789E02DC601DF91E5
:10368000CF911F910F91FF90EF90DF90CF90BF905F
:10369000AF909F908F907F906F905F904F90099424
:1036A0008F929F92AF92BF92CF92DF92EF92FF9252
:1036B0000F931F93CF93DF93EC015B014A016901E4
:1036C000E881F9810284F385E02D099595012C0D9F
:1036D0003D1D21503109E881F9810488F589E02DEB
:1036E00078018401A401B501CE010995E881F98131
:1036F0000688F789E02DCE01DF91CF911F910F91C0
:10370000FF90EF90DF90CF90BF90AF909F908F9001
:1037100009948F929F92AF92BF92CF92DF92EF92D5
:10372000FF920F931F93CF93DF93EC015B014A014C
:1037300069017801E881F9810284F385E02D09951A
:10374000C80CD91C860101501109E881F98104884F
:10375000F589E02D9501A401B501CE010995E88117
:10376000F9810688F789E02DCE01DF91CF911F9175
:103770000F91FF90EF90DF90CF90BF90AF909F9010
:103780008F9009940895EF92FF920F931F93DC019D
:10379000ED91FC9100A0F1A1E02D09951F910F91F1
:1037A000FF90EF9008950F931F93DC01ED91FC9132
:1037B000068CF78DE02D09951F910F9108950F93B9
:1037C0001F93DC01ED91FC91048CF58DE02D0995A2
:1037D0001F910F910895DC01ED91FC910084F1851A
:1037E000E02D09942F923F924F925F926F927F92B9
:1037F0008F929F92AF92BF92CF92DF92EF92FF9201
:103800000F931F93CF93DF9300D000D000D0CDB79C
:10381000DEB72C017E836D836A015901C801FC82E9
:10382000EB824801841A950A97FE03C09194819413
:10383000910835012D813E81621A730A77FE03C01B
:10384000719461947108681479045CF43A2D2B2DFD
:103850005C01832F922F3D812E81DE82CD82C32E8B
:10386000D22EAD81BE81AA16BB065CF43C2D2D2D57
:103870006C01832F922F3D812E81BE82AD82A32EBB
:10388000B22E85012D813E81021B130B1C012C18C9
:103890003D0837FE03C0319421943108780117FFA9
:1038A00003C03FEFE31AF30AF594E794C816D9066C
:1038B0002CF08FEF9FEF9A83898304C0A1E0B0E0E2
:1038C000BA83A9832D813E81A216B30624F1D201C9
:1038D000ED91FC910484F585E02D2B813C816814E9
:1038E000790424F44D815E81B60103C0A6016D8187
:1038F0007E81C2010995E218F308F7FE06C029810E
:103900003A81C20ED31EE00EF11E8D819E8101967A
:103910009E838D83D7CF26960FB6F894DEBF0FBE59
:10392000CDBFDF91CF911F910F91FF90EF90DF906E
:10393000CF90BF90AF909F908F907F906F905F904F
:103940004F903F902F90089585ED8093BC0080911B
:10395000BC0084FDFCCF10928D020895409144027A
:10396000262F30E0240F311D21323105DCF4209167
:103970008D022430C9F4FC0180E090E0861758F4F1
:10398000309144022191DC01AC5DBD4FA30FB11D0C
:103990002C930196F3CF80914402680F6093440208
:1039A00080E0089581E0089582E00895E091920416
:1039B00080919104E81730F4F0E0ED56FB4F8081E0
:1039C00090E008958FEF9FEF089590919204809179
:1039D0009104981750F4E92FF0E0ED56FB4F208149
:1039E00030E09F5F9093920402C02FEF3FEFC90138
:1039F00008958091910490E020919204821B910996
:103A00000895CF92DF92EF92FF920F931F93CF937F
:103A1000DF937C01CB018A0120918E02222389F061
:103A2000EB016B01C40ED51ECC15DD0569F0699163
:103A3000D701ED91FC910190F081E02DC70109952E
:103A4000F3CF642F0E94AE1CC801DF91CF911F916C
:103A50000F91FF90EF90DF90CF900895CF93DF9379
:103A60001F92CDB7DEB7698320918E022223D1F059
:103A70002091B102203240F021E030E0FC0133839C
:103A8000228380E090E015C080918F02E82FF0E063
:103A9000E057FD4F998190838F5F80938F028093D1
:103AA000B10205C061E0CE0101960E94AE1C81E02A
:103AB00090E00F90DF91CF910895089580E090E01D
:103AC0000895AF92BF92CF92EF92FF920F931F9300
:103AD000CF93DF93EC01262F888D998D009709F005
:103AE00040C06A3059F41D861C862C898E859F85BE
:103AF00038E0239F800D911D112441C06D3009F4E1
:103B0000AAC08E898823C1F03C898C859D8546E0BA
:103B1000349F800D911D11244885598548175907F8
:103B20005CF41D861C868E859F8548E0349F800D41
:103B3000911D11249F878E87EA88FB88088919893F
:103B40004E855F856C857D85CC88CE010E94372BA4
:103B50002C898C859D8536E0239F800D911D112435
:103B600042C06A3079F41D861C862C89FC01369689
:103B7000E4918E859F852E9F800D911D11249F8736
:103B80008E8769C06D3009F466C0FC0134963491AB
:103B9000631708F460C03196E491E61708F45BC03F
:103BA000FC01329665917491422F50E0431B5109FC
:103BB00037E0349F5001359FB00C1124A60EB71E7C
:103BC000F501329634913196E491332311F0E111ED
:103BD0000DC0F5013496E4912C898C859D85E29F7A
:103BE000800D911D11249D878C8735C0F501359678
:103BF00044915E89552311F16C89E32FF0E0E40FC5
:103C0000F11D47FDFA956E9FD0016F9FB00D1124F5
:103C10004C855D854A0F5B1FE885F985E417F5073C
:103C20006CF41D861C86FC013696E4918E859F857A
:103C30006E9F800D911D11249F878E87EA88FB88D7
:103C4000088919894E855F856C857D85CC88CE0174
:103C50000E94372BBECF81E090E0DF91CF911F9182
:103C60000F91FF90EF90CF90BF90AF90089581E0BB
:103C70008093E4010C941D1483EC93E09093230251
:103C800080932202A3E2B4E012968D919C91139747
:103C9000E5E5F4E02D913C91318B208B938B828B69
:103CA0008091DE0190E0019724E0880F991F2A950A
:103CB000E1F72BE230E0A901481B590B55874487F7
:103CC00082E790E0978786878FE60C942F228EBD3F
:103CD00000000DB407FEFDCF8EB508951F93CF935E
:103CE000DF93EC01162F0E94272A0E941D2A812FA4
:103CF0000E94671ECE01DF91CF911F910C94332A51
:103D00001F93CF93DF93EC01162F0E94272A8CB5C7
:103D10008F7B8CBD2B982D9A2D988CB580648CBD93
:103D2000812F0E94671ECE01DF91CF911F910C94CD
:103D3000332AEF92FF920F931F93CF93DF93EC01FF
:103D4000E62E142FF22E6AE20E94801E60E0CE0161
:103D50000E946E1E6DA16E0DCE010E946E1E60E06F
:103D6000CE010E946E1E6DA16F0DCE010E946E1ECF
:103D70006BE2CE010E94801E60E0CE010E946E1EAA
:103D80006EA1610FCE010E946E1E60E0CE010E9406
:103D90006E1E6EA1600FCE010E946E1E6CE2CE01FF
:103DA000DF91CF911F910F91FF90EF900C94801EA7
:103DB0002F923F924F925F926F927F928F929F923B
:103DC000AF92BF92CF92DF92EF92FF920F931F9329
:103DD000CF93DF93CDB7DEB72D970FB6F894DEBF44
:103DE0000FBECDBF2C0139011801EB82FC82DD82B0
:103DF000DC0118968D919C911997681779070CF042
:103E00009CC01A96ED91FC911B974E175F070CF022
:103E100094C09B01260D371D821793071CF43C01AB
:103E2000661A770ACA01820D931DE817F9071CF478
:103E30001F01241A350A29826A820FEF040F020D2E
:103E40002FEF260F260DC2010E94991EC2010E946B
:103E5000272AF101E819F909FF83EE832227332786
:103E60002819390939872887C3018A199B099B8733
:103E70008A87AA27BB27AA19BB09BD87AC87E98017
:103E8000E21812141304F4F58301F12C8A81801BCB
:103E9000101611069CF590E0B7FE06C0EC85FD8576
:103EA0008E179F0734F414C02A853B858217930729
:103EB0007CF4DD24D39497FE06C088859985E816A6
:103EC000F9063CF405C0AE81BF81EA16FB060CF092
:103ED000D12C0E941D2AD11002C08D8101C08C817D
:103EE0000E94671E0E941D2AD11002C08C2D01C0A5
:103EF0008B810E94671E01501109C8CFB1E02B1AB7
:103F00003108BDCFC2012D960FB6F894DEBF0FBEAB
:103F1000CDBFDF91CF911F910F91FF90EF90DF9078
:103F2000CF90BF90AF909F908F907F906F905F9059
:103F30004F903F902F900C94332A2D960FB6F89403
:103F4000DEBF0FBECDBFDF91CF911F910F91FF90CC
:103F5000EF90DF90CF90BF90AF909F908F907F9029
:103F60006F905F904F903F902F900895AF92BF92C7
:103F7000CF92DF92EF92FF920F931F93CF93DF9335
:103F80006C015901E801FC01208531856217730736
:103F90000CF047C082859385481759070CF041C043
:103FA000FB01EA0DFB1D2E173F071CF45901A61A51
:103FB000B70A9A012C0F3D1F821793071CF4EC01DE
:103FC000C41BD50B0FEF040F0C0F2FEF260F2A0D7C
:103FD000C6010E94991EC6010E94272A1C161D06B2
:103FE0009CF48501101611066CF40E941D2A8F2D79
:103FF0000E94671E0E941D2A8E2D0E94671E01507E
:104000001109F0CF2197EACFC601DF91CF911F911F
:104010000F91FF90EF90DF90CF90BF90AF900C94F6
:10402000332ADF91CF911F910F91FF90EF90DF9096
:10403000CF90BF90AF900895DF92EF92FF920F93D1
:104040001F93CF93DF937C01E901D02EFC01808583
:1040500091856817790784F52285338542175307C0
:104060005CF59B012C0F3D1F821793071CF4EC019C
:10407000C61BD70B2FEF260F2C0F042FC7010E9452
:10408000991EC7010E94272A209761F00E941D2ACD
:10409000812F0E94671E0E941D2A8D2D0E94671E7F
:1040A0002197F2CFC701DF91CF911F910F91FF9020
:1040B000EF90DF900C94332ADF91CF911F910F91F5
:1040C000FF90EF90DF900895DF92EF92FF920F93B1
:1040D0001F93CF93DF937C01E901D02EFC018085F3
:1040E00091856817790784F5828593854817590764
:1040F0005CF59A012C0F3D1F821793071CF4EC010D
:10410000C41BD50B0FEF040F0C0F262FC7010E9405
:10411000991EC7010E94272A209761F00E941D2A3C
:10412000812F0E94671E0E941D2A8D2D0E94671EEE
:104130002197F2CFC701DF91CF911F910F91FF908F
:10414000EF90DF900C94332ADF91CF911F910F9164
:10415000FF90EF90DF900895FF920F931F93CF93FE
:10416000DF93EC0177FD2AC0888599856817790768
:104170002CF557FD23C08A859B8548175907F4F411
:10418000F32E122F01E0040F21E0260FCE010E9432
:10419000991ECE010E94272A0E941D2A8F2D0E945F
:1041A000671E0E941D2A812F0E94671ECE01DF918B
:1041B000CF911F910F91FF900C94332ADF91CF91F3
:1041C0001F910F91FF9008951F920F920FB60F92BB
:1041D00011242F933F934F935F936F937F938F930C
:1041E0009F93AF93BF93EF93FF938091B900887F24
:1041F000803609F49CC068F5883209F45BC090F4FD
:10420000803109F454C038F4882309F4F2C08830AE
:1042100009F44DC0F2C0883109F44CC0803209F471
:104220005DC0EBC0803409F468C048F4803309F401
:1042300055C0883309F0E1C080938B02D4C080352B
:1042400009F44FC0883509F45DC0883409F0D5C041
:10425000D2C0883909F4C3C0A8F4883709F467C00C
:1042600038F4883609F463C0803709F460C0C5C0EB
:10427000883809F4B4C0803909F45FC0803809F087
:10428000BCC05BC0803B09F484C038F4803A09F4B8
:1042900066C0883A09F47DC0B0C0803C09F4A3C070
:1042A000883C09F4A0C0883B09F486C0A6C0809170
:1042B000680210C090918A0280918902981770F567
:1042C000E0918A0281E08E0F80938A02F0E0E75944
:1042D000FD4F80818093BB0085EC82C080938B0270
:1042E0008AC0E0918A0281E08E0F80938A028091D9
:1042F000BB00F0E0E759FD4F808390918A028091E6
:1043000089026AC0E0918A0281E08E0F80938A025E
:104310008091BB00F0E0E759FD4F808380918C02D3
:10432000811169C081E08093670284EA5DC083E007
:1043300080938D0210926602CFCF80916602803208
:1043400008F04DC0E091660281E08E0F8093660216
:104350008091BB00F0E0EA5BFD4F8083BDCF85EC30
:104360008093BC0010928D0280916602803230F4FE
:10437000E0916602F0E0EA5BFD4F10826091660218
:1043800070E086E492E0E0E0F0E0099510926602C9
:1043900034C084E080938D02109245021092440252
:1043A000E0E0F0E0099580914402811105C081E0D0
:1043B0008093440210922402E091450281E08E0F26
:1043C00080934502F0E0EC5DFD4F80818093BB005F
:1043D0009091450280914402981708F47DCF85E8BA
:1043E0008093BC000AC085EC8093BC0010928D02C3
:1043F00004C010928B020E94A41CFF91EF91BF9108
:10440000AF919F918F917F916F915F914F913F916C
:104410002F910F900FBE0F901F9018958091B504AB
:104420008A3018F480E30E942F226091B50470E076
:1044300080E090E04AE00E9434228AE30E942F222A
:104440008091B4048A3018F480E30E942F22609196
:10445000B40470E080E090E04AE00C943422682FCD
:1044600085E594E00C94611D8F929F92AF92BF926C
:104470000F931F93CF93DF93CDB7DEB7A1970FB6FE
:10448000F894DEBF0FBECDBF19A2423008F44AE057
:104490008E010F5D1F4F842E912CA12CB12CA501F4
:1044A00094010E94A638E62FB901CA0101501109F2
:1044B000EA3014F4E05D01C0E95CD801EC93232BF1
:1044C000242B252B61F7B80185E594E00E94752D1A
:1044D000A1960FB6F894DEBF0FBECDBFDF91CF918E
:1044E0001F910F91BF90AF909F908F900895BC0146
:1044F00085E594E00C94752DBF92CF92DF92EF92F8
:10450000FF920F931F93CF93DF93EC017987688716
:104510008CE090E09B878A87EA81FB81808D918D7A
:10452000892B29F086859785069797878687118E30
:10453000108E81E0848BB12C8D81B81608F078C084
:104540004C818A819B810E851F85AC89BD892C8514
:104550003D8568897989CB2CD12CEA85FB85ED9046
:10456000FC90600F711FB41219C06C9DA0016D9D6D
:10457000500D7C9D500D11244E0F5F1F688579856D
:10458000DC01ED91FC9100A0F1A1E02D0995EC89F1
:10459000FD8980819181EE89FF8918C06C9DA00101
:1045A0006D9D500D7C9D500D11244E0F5F1F688531
:1045B0007985DC01ED91FC9106A0F7A1E02D09952C
:1045C000EE89FF8980819181EC89FD89208131818B
:1045D000EA81FB81318B208B938B828B2E853F85EB
:1045E00088899989820F931F8C9DA0018D9D500D04
:1045F0009C9D500D11242A853B852E5F3F4F240F33
:10460000351F8A819B81488559854E5F5F4FFC012C
:104610005587448737872687CC0CDD1CEA89FB89C0
:10462000EC0DFD1D659174910E94512DB39484CFC2
:10463000DF91CF911F910F91FF90EF90DF90CF907E
:10464000BF900895CF92DF92EF92FF92CF93DF93C6
:104650006C01990FEE08FF08F7FE17C08DE20E946B
:104660002F22EC0166277727CB016C197D098E0973
:104670009F094AE00E9434228C0F9D1FDF91CF9149
:10468000FF90EF90DF90CF9008954AE0C701B60108
:10469000DF91CF91FF90EF90DF90CF900C94342278
:1046A0002F923F924F925F926F927F928F929F9242
:1046B000AF92BF92CF92DF92EF92FF920F931F9330
:1046C000CF93DF93CDB7DEB729970FB6F894DEBF4F
:1046D0000FBECDBF7B014C835D832E833F83FB01E7
:1046E000F491F887FB01319624912A8317FF04C0C7
:1046F000102F1195D12C02C0D02E10E00A81015943
:104700002FEF280F3885230F40E7682F85E594E0C9
:104710000E94991EF70132968491898385E594E081
:104720000E94272AE8858E2F0E2E000C990BFA8105
:104730006F2E0F2E000C7708EF02900111243B839F
:104740002A8319861886312C412C212C012F110F18
:10475000110B4C018D189108D7FC93946C0131E03A
:10476000C31AD1088A819B81E885F9858E179F0736
:1047700009F451C0F9818F2F90E020E830E0032C3C
:1047800002C0359527950A94E2F782239323A22C41
:10479000B12C892B69F0A016B10654F0A814B90405
:1047A0003CF4842D90E055245394861597050CF025
:1047B000512C0E941D2A511002C08F8101C08D8191
:1047C0000E94671E0E941D2A511002C08E8101C0E6
:1047D0008C810E94671E288539852F5F3F4F39875E
:1047E000288736E0331510F033940DC0E885F9853D
:1047F00083E0F695E7958A95E1F73296EE0DFF1D79
:1048000084918983312CAC14BD0414F42394AACF71
:104810004394212CA7CF85E594E029960FB6F89410
:10482000DEBF0FBECDBFDF91CF911F910F91FF90E3
:10483000EF90DF90CF90BF90AF909F908F907F9040
:104840006F905F904F903F902F900C94332A4F922F
:104850005F926F927F928F929F92AF92BF92CF9210
:10486000DF92EF92FF920F931F93CF93DF936A0132
:10487000D22F732E602E512EFA0114913196C491CD
:104880000FEF060F0C0F2FEF280F210F462F682F69
:1048900085E594E00E94991EF6013296449085E5E4
:1048A00094E00E94272A1C027001112400E010E00D
:1048B000C0E090E8A92EB12CE016F10681F1842C1D
:1048C000912CC5010C2E02C0959587950A94E2F7AC
:1048D000882299220E941D2A8114910411F4852DA9
:1048E00001C0872D0E94671E0E941D2A892811F48D
:1048F000862D01C08D2F0E94671E0F5F1F4FC7308E
:1049000010F4CF5FD9CFF80183E0F695E7958A954B
:10491000E1F73296EC0DFD1D4490C0E0CDCF85E56A
:1049200094E0DF91CF911F910F91FF90EF90DF9076
:10493000CF90BF90AF909F908F907F906F905F903F
:104940004F900C94332AEF92FF920F931F93CF93C3
:10495000DF93EC01688B88E0898B8A819B81EC89ED
:10496000FD89E080F1800B8910E02A8930E070E059
:10497000DC01ED91FC9106A0F7A1E02D48E050E0AC
:104980000995CE01DF91CF911F910F91FF90EF908C
:104990000C94192790E0FC01ED5DF44E2491FC018C
:1049A000E15FF44E8491882399F090E0880F991F7D
:1049B000FC01EB5FF44EA591B491FC01E550F54E7E
:1049C000859194918FB7F894EC91E22BEC938FBF83
:1049D0000895CF93DF93EC0185E00E94CA242097CD
:1049E00011F460E004C0CF3FD10531F461E085E00F
:1049F000DF91CF910C94F628ECEEFAE1E491E330EC
:104A0000F9F048F4E130B9F0E230A1F584B5806204
:104A100084BDC8BD34C0E730E9F0E83019F1E430B6
:104A200049F580918000806280938000D0938B0054
:104A3000C0938A0024C084B5806884BDC7BD1FC0F0
:104A400080918000806880938000D0938900C0931B
:104A5000880015C08091B00080688093B000C0933A
:104A6000B3000DC08091B00080628093B000C0930D
:104A7000B40005C0C038D1050CF0B8CFB2CFDF917B
:104A8000CF910895282F3091B102313208F04AC0F9
:104A900080918D028111FCCF9091B00242E0409351
:104AA0008D0220938C022FEF20938B0210928A02AA
:104AB00030938902E0E9F2E0A9E6B2E020E03217A3
:104AC00021F041914D932F5FFACF1092680220910F
:104AD0006802990F922B909368029091670291302F
:104AE00061F410926702909168029093BB009091DC
:104AF000BC0093FDF8CF95EC01C095EE9093BC00FF
:104B000090918D029230E1F390918B029F3F79F06A
:104B100080918B02803241F080918B02803331F0A2
:104B200084E005C081E003C082E001C083E0109210
:104B30008F021092B10210928E020895FC01538DE3
:104B4000448D252F30E0842F90E0821B930B541767
:104B500010F0CF96089501970895FC01918D828DF4
:104B6000981761F0828DDF01A80FB11D5D968C91C1
:104B7000928D9F5F9F73928F90E008958FEF9FEFCC
:104B80000895FC01918D828D981731F0828DE80F88
:104B9000F11D858D90E008958FEF9FEF0895FC0142
:104BA000918D228D892F90E0805C9F4F821B91090F
:104BB0008F739927089582EB92E00E94CF2521E020
:104BC000892B09F420E0822F0895FC01848DDF01F8
:104BD000A80FB11DA35ABF4F2C91848D90E0019670
:104BE0008F739927848FA689B7892C93A089B1895F
:104BF0008C9180648C93938D848D981306C0028869
:104C0000F389E02D80818F7D80830895EF92FF925C
:104C10000F931F93CF93DF93EC0181E0888F9B8DDF
:104C20008C8D981305C0E889F989808185FD24C0A1
:104C3000F62E0B8D10E00F5F1F4F0F731127E02E24
:104C40008C8DE8120CC00FB607FCFACFE889F98901
:104C5000808185FFF5CFCE010E94E525F1CF8B8DB8
:104C6000FE01E80FF11DE35AFF4FF0820B8FEA8936
:104C7000FB898081806207C0EE89FF896083E889B3
:104C8000F98980818064808381E090E0DF91CF9119
:104C90001F910F91FF90EF900895CF93DF93EC0158
:104CA000888D8823C9F0EA89FB89808185FD05C04C
:104CB000A889B9898C9186FD0FC00FB607FCF5CF86
:104CC000808185FFF2CFA889B9898C9185FFEDCFCE
:104CD000CE010E94E525E7CFDF91CF91089580E0D6
:104CE00090E0892B29F00E94DB2581110C940000B3
:104CF00008959FB7F89440918D0450918E0460916F
:104D00008F047091900486B5A89B06C08F3F21F058
:104D10004F5F5F4F6F4F7F4F9FBF762F652F542F91
:104D200044279A01AB01280F311D411D511DA3E0FD
:104D3000B0E00E949B38089508950F931F93CF937E
:104D4000DF93FC01DA012D913C91828593858217D6
:104D5000930758F5613061F0633039F5208531856E
:104D6000868197812817390764F4C901019609C023
:104D700020853185848195818217930714F4C901B8
:104D80000197918780878A01EF010190F081E02DE2
:104D90000480F581E02DCE010995EE85FF8588859B
:104DA00099850995F80111821082DF91CF911F91A9
:104DB0000F910895623051F4DC011C96ED91FC9145
:104DC0001D9718968D919C91199709940895DC016F
:104DD000623029F0633051F0613029F50EC016962B
:104DE000ED91FC91179714968C91099414966C91FF
:104DF00014976623C1F061500EC014966C911497FD
:104E0000262F30E015968C91159790E00197281782
:104E100039074CF46F5FED91FC9111970480F58197
:104E2000E02DCD0109940895FC01648308950E944A
:104E3000E23C4F925F926F927F928F929F92AF92DD
:104E4000BF92CF92DF92EF92FF920F931F93CF9377
:104E5000DF93EC010B8910E0025011094801012E8B
:104E6000000CAA08BB08CC80DD800D2C000CEE08DD
:104E7000FF0888859985092E000CAA0BBB0BA7019A
:104E80009601281B390B4A0B5B0BC501B4010E942C
:104E9000983C2E813F812901330F66087708A301D2
:104EA00092012C193D094E095F090E947C38820E3F
:104EB000931EA41EB51E912C919481949108EE89A5
:104EC000FF89C080D180EC89FD89E080F1802A894A
:104ED00030E022503109498950E04F5F5F4F6889C7
:104EE00070E06F5F7F4FA12CB12C8A819B810E9463
:104EF000D81EDF91CF911F910F91FF90EF90DF901F
:104F0000CF90BF90AF909F908F907F906F905F9069
:104F10004F900895DF92EF92FF920F931F93CF93DC
:104F2000DF93EC01D62E8A819B816E857F85EE8989
:104F3000FF89E080F1808B01025011092C853D85AD
:104F40002250310948895989640F751F4C81469F49
:104F5000F001479FF00D11244A855B854F5F5F4F3D
:104F60004E0F5F1F688579856F5F7F4FDC01ED9184
:104F7000FC9100A0F1A1E02D0995EE89FF898081C7
:104F80009181EC89FD8920813181AA81BB81519673
:104F90003C932E93509753969C938E9352972E85C5
:104FA0003F8588899989280F391F8C81829FA001AC
:104FB000839F500D11248A859B850296840F951F2F
:104FC000288539852E5F3F4F1D963C932E931C9765
:104FD0001F969C938E931E978C812A899B89E22F22
:104FE000F92FE80FF11DE80FF11D65917491CD01C6
:104FF0000E94512DDC828A819B810E851F85EC8960
:10500000FD89E080F1802C853D8568897989600F74
:10501000711FD69EF001D79EF00D11244A855B8545
:105020004E0F5F1F68857985DC01ED91FC9100A032
:10503000F1A1E02D0995EC89FD8980819181EE89AE
:10504000FF8920813181AA81BB8151963C932E93A7
:10505000509753969C938E9352972E853F858889BF
:105060009989280F391F8C81829FA001839F500D41
:1050700011248A859B850296840F951F2885398582
:105080002E5F3F4F1D963C932E931C971F969C932B
:105090008E931E978C812A899B89E22FF92FE80F26
:1050A000F11DE80FF11D65917491CD01DF91CF9154
:1050B0001F910F91FF90EF90DF900C94512D611193
:1050C00002C060E201C061E20C94801E1F93CF9386
:1050D000DF93EC01162F66E30E94801E1D8B1130BA
:1050E000B1F068F01230D9F0133021F568E6CE0146
:1050F0000E946E1E8BA18EA38CA182501AC068ECF8
:10510000CE010E946E1E8BA18DA38CA110C068EAF7
:10511000CE010E946E1E8BA18EA38CA10AC06CE0F2
:10512000CE010E946E1E8BA18DA38CA182508EA3F6
:1051300001C08DA3DF91CF911F9108951F920F920F
:105140000FB60F9211242F933F934F935F936F935A
:105150007F938F939F93AF93BF93EF93FF9382EBD4
:1051600092E00E94E525FF91EF91BF91AF919F9151
:105170008F917F916F915F914F913F912F910F9000
:105180000FBE0F901F9018951F920F920FB60F929F
:1051900011242F938F939F93EF93FF93E091C2027B
:1051A000F091C3028081E091C802F091C90282FDB2
:1051B00012C090818091CB028F5F8F732091CC02BF
:1051C000821751F0E091CB02F0E0EE54FD4F958F45
:1051D0008093CB0201C08081FF91EF919F918F91CD
:1051E0002F910F900FBE0F901F90189590E0FC012B
:1051F000E951F54E2491FC01ED5DF44E3491FC0132
:10520000E15FF44EE491EE2309F43CC0222339F12E
:10521000233091F038F42130A9F0223001F584B523
:105220008F7D12C0273091F02830A1F02430B9F4DE
:10523000809180008F7D03C0809180008F77809364
:1052400080000DC084B58F7784BD09C08091B00007
:105250008F7703C08091B0008F7D8093B000F0E025
:10526000EE0FFF1FE550F54EA591B4919FB7F8944E
:10527000611104C08C913095382302C0EC913E2B13
:105280003C939FBF08958F929F92AF92BF92CF920F
:10529000DF92EF92FF926B017C010E9479264B0115
:1052A0005C01C114D104E104F104F1F00E947926FB
:1052B000DC01CB0188199909AA09BB09883E9340F2
:1052C000A105B10570F321E0C21AD108E108F10887
:1052D00088EE880E83E0981EA11CB11CC114D10475
:1052E000E104F10419F7DDCFFF90EF90DF90CF904C
:1052F000BF90AF909F908F9008952FB7F8946091D2
:10530000890470918A0480918B0490918C042FBF42
:1053100008951F920F920FB60F9211242F933F936F
:105320008F939F93AF93BF938091890490918A0448
:10533000A0918B04B0918C043091880426E6230F51
:105340002D3728F029EE230F0196A11DB11D2093C2
:1053500088048093890490938A04A0938B04B0936B
:105360008C0480918D0490918E04A0918F04B09153
:1053700090040196A11DB11D80938D0490938E041D
:10538000A0938F04B0939004BF91AF919F918F91A0
:105390003F912F910F900FBE0F901F9018951F9265
:1053A0000F920FB60F9211242F933F934F935F9359
:1053B0006F937F938F939F93AF93BF93EF93FF93DD
:1053C000E0910201F09103010995FF91EF91BF91E6
:1053D000AF919F918F917F916F915F914F913F918D
:1053E0002F910F900FBE0F901F9018951F920F9244
:1053F0000FB60F9211242F933F934F935F936F93A8
:105400007F938F939F93AF93BF93EF93FF93E0911D
:105410000001F09101010995FF91EF91BF91AF91CA
:105420009F918F917F916F915F914F913F912F91BC
:105430000F900FBE0F901F9018958CB58F7B8CBD71
:105440002B9A2D9A2D988CB580648CBD0895DC0123
:105450009B96ED91FC919C979081D1968C91809533
:10546000892380830895DC019B96ED91FC919C97A4
:105470009081D1968C91892B80830895CF92DF9271
:10548000EF92FF920F931F93CF93DF936C017A01FA
:105490008B01C0E0D0E0CE15DF0581F0D8016D9121
:1054A0008D01D601ED91FC910190F081E02DC601B6
:1054B0000995892B11F02196EECF7E01C701DF916E
:1054C000CF911F910F91FF90EF90DF90CF900895B3
:1054D000CF93C62F91E090938E029FE69093B002F7
:1054E00010928F021092B102682F8FE493E00E9415
:1054F0002E1D6C2F8FE493E00E942E1D81E0CF9132
:105500000C94422590918D029111FCCF982F8132FD
:1055100008F090E281E080938D0280938C022FEF5F
:1055200020938B0210928A02290F20938902809384
:105530006802809168028E6D809368028091670294
:10554000813061F410926702809168028093BB0001
:105550008091BC0083FDF8CF85EC01C085EE80937F
:10556000BC0080918D028130E1F380918A0289171D
:1055700010F490918A02E9E6F2E0A3E9B4E080E059
:10558000891721F021912D938F5FFACF1092920409
:1055900080939104089591E090938E029FE69093FA
:1055A000B00210928F021092B102682F8FE493E044
:1055B0000E942E1D81E00E9442258093B60481E066
:1055C00090E00E94822A8FE493E00E94E51C0895F7
:1055D000CF92DF92EF92FF920F931F93CF93DF93BF
:1055E000EC012196FC01F490FF2009F437C0FE0184
:1055F000649185E594E00E94801E6E01F2E0CF0E7A
:10560000D11CFE013196C4918C2F8078E82ECF7783
:105610008601DC2FD15048F0F801649185E594E0D3
:105620000E946E1E0F5F1F4FF5CFC6018C0F911D9C
:10563000EC01E11002C0FA94D7CF8C010F5F1F4F2D
:10564000FC01649170E06F3F710511F464EF71E04B
:1056500080E090E00E944329E801EDCFDF91CF91F7
:105660001F910F91FF90EF90DF90CF9008952F92B0
:105670003F924F925F926F927F928F929F92AF92E2
:10568000BF92CF92DF92EF92FF920F931F93CF932F
:10569000DF93CDB7DEB76B970FB6F894DEBF0FBEC2
:1056A000CDBF9B8F8A8F5B011A01D22E1F830E8381
:1056B0003701C982DC0158962D913C9159972115EB
:1056C000310509F0E6C018968D919C9119976817DD
:1056D00079070CF0CDC11A968D919C911B974817B4
:1056E00059070CF0C5C18C2C912CFB0126E0C29E01
:1056F000E00DF11D1124FB87EA871E161F060CF032
:10570000B7C1A40183E0440F551F8A95E1F75D8777
:105710004C87CA01820D931D181619060CF0A8C1FA
:1057200057968C91811104C05FEA5D1508F4D394FB
:10573000AA8DBB8DED91FC9111970284F385E02D2C
:10574000CD010995B5E0DB9EC0011124F501359628
:10575000FF87EE87BB82AA8225019C012A193B099B
:10576000398B288BA101485F5F4F5B8B4A8BE8899F
:10577000F989E40DF51DE559F44E549158876101FE
:105780003D822C82888580FF13C0AA8DBB8DED9150
:10579000FC91B981B13031F40484F585E02D2E817E
:1057A0003F8116C00684F785E02DEE80FF801AC089
:1057B000EE81FF81E615F705F1F0AA8DBB8DED9125
:1057C000FC91B981B13051F40484F585E02D930149
:1057D000A601B2018A8D9B8D09950DC00684F785BF
:1057E000E02D7301840194014C815D816A817B818C
:1057F0008A8D9B8D0995E885E695E887FFEFCF1A9E
:10580000DF0A2C813D81280D391D3D832C834A8977
:105810005B89C416D50609F0B5CF5FEF451A550A66
:105820008A819B81880D991D9B838A83AE85BF8564
:105830004A165B0609F09BCFEE81FF81E615F7055E
:1058400009F4F4C0EA8DFB8DA081B181F981F130BA
:1058500079F4B5016B5F7F4F5096ED91FC915197B4
:10586000830128E030E0A1018A8D9B8D0995DEC07F
:105870006A857B85681979091E96ED91FC911F97C1
:1058800073010C851D859401A1018A8D9B8D09955D
:10589000CDC0F9013496E491DE1AF9013296859172
:1058A0009491B7E0DB9E800D911D1124F9012591A3
:1058B00034913B8B2A8BFC01259134912901FC0109
:1058C0003296C490319634913E8732961491319637
:1058D000D4904981423058F0612E012E000C770897
:1058E0008D2D0D2C000C990B9987888704C0198683
:1058F0001886612C712CAA8DBB8DED91FC911197AE
:105900000284F385E02DCD010995B9818B2E912C70
:10591000689CC001699C900D789C900D1124FC013D
:10592000EA0DFB1DFD87EC871A82712C612CE12F9B
:10593000110FFF0B95012E0F3F1F3B872A87AC0CE1
:10594000B11CA5014E0F5F1F5F8B4E8BC1018D0DEA
:10595000911DD7FC9A95998F888F9E85691608F0BE
:1059600065C0862D90E048855985480F591F489D90
:105970009001499D300D589D300D1124D101A20F89
:10598000B31FB98BA88BEC85FD85FD83EC83AA84BE
:10599000BB84DA80FA85DF1A288D398D280F391FEC
:1059A0003D8B2C8B8D2D8A0D4E895F89A416B506F3
:1059B000C1F1877041F4C2010196EA89FB89E40DC7
:1059C000F51D74902C0177FE21C0AA8DBB8DED9141
:1059D000FC91B981B13061F40484F585E02D2E810C
:1059E0003F814C895D89B5018A8D9B8D09950EC0DB
:1059F0000684F785E02DEE80FF80840194014889BC
:105A000059896C817D818A8D9B8D0995770CEFEF8B
:105A1000AE1ABE0A2C813D81280D391D3D832C8391
:105A2000C1CF3A813C0D3A83639497CFAA8DBB8D49
:105A3000ED91FC9111970688F789E02DCD016B96C9
:105A40000FB6F894DEBF0FBECDBFDF91CF911F918F
:105A50000F91FF90EF90DF90CF90BF90AF909F900D
:105A60008F907F906F905F904F903F902F90099410
:105A70006B960FB6F894DEBF0FBECDBFDF91CF910E
:105A80001F910F91FF90EF90DF90CF90BF90AF905C
:105A90009F908F907F906F905F904F903F902F904E
:105AA0000895EF92FF920F931F93CF93DF938C0192
:105AB0007B01C0E0D0E0F701EC0FFD1F649166238D
:105AC00061F0D801ED91FC910190F081E02DC801C9
:105AD0000995892B11F02196EECFCE01DF91CF9160
