:100000000C9491120C94FF170C94D8170C94B912FD
:100010000C9428210C941E210C94B9120C94B91242
:100020000C94B9120C94B9120C94B9120C94B91224
:100030000C94B9120C94B9120C94B9120C94B91214
:100040000C9492170C94B9120C94B9120C94B91226
:100050000C94B9120C94B9120C94B9120C94B912F4
:100060000C9426180C94B9120C94B9120C9490218B
:100070000C94B9120C94B9120C94B9120C94B912D4
:100080000C94B9120C94B9120C94B9120C94B912C4
:100090000C94B9120C94B9120C94B9120C94B912B4
:1000A0000C94B9120C94B9120C94B9120C94B912A4
:1000B0000C94B912F016F316E616EA161417141774
:1000C000F716FB160117051714170B170F175C1EF1
:1000D000611E661E701EB71EB71E7A1E821E8A1E05
:1000E000941EB71E9E1EAD1E084AD73B3BCE016E26
:1000F00084BCBFFDC12F3D6C74319ABD56833DDA7F
:100100003D00C77F11BED9E4BB4C3E916BAAAABE8D
:10011000000000803F07634236B79BD8A71A3968B2
:100120005618AEBAAB558C1D3CB7CC5763BD6DEDC0
:10013000FD753EF6177231BF000000803F080000D9
:1001400000BE922449123EABAAAA2ABECDCCCC4C0A
:100150003E00000080BEABAAAAAA3E00000000BF7D
:10016000000000803F0000000000084178D3BB433E
:1001700087D1133D190E3CC3BD4282AD2B3E68ECC6
:100180008276BED98FE1A93E4C80EFFFBE01C4FF4D
:100190007F3F0000000000004E4E5700574E5700B2
:1001A0005753570053535700535345004553450089
:1001B000454E45004E4E45004E572000205720002A
:1001C0005357200020532000205345002045200095
:1001D000204E4500204E20001D1D1FFFFFC1FFFFC8
:1001E000FF1FFFFFFDFFFFFFFF00003FF80003FFC1
:1001F000C0003FFE0003FFF0007FFF8007FBFC0014
:100200007F9FE007F8FF007F87F807F03FC07F017E
:10021000FE0FF00FF0FF007F8FF003FCFF001FEFD9
:10022000E000FFFE0007FFE0003FFE0001FFE000EE
:100230000FFC00007FFFFFFFDFFFFFFC7FFFFFC120
:10024000FFFFFC001D1D0003E000003F000003F85D
:1002500000003FC00003FE00001FF00001F7800017
:100260001FBC0001F9E0001F8F00000078000003B0
:10027000C000001E000000F00000078000003C00ED
:100280000001E000000F00000078000003C0000043
:100290001E000000F00000078000003C000001E0AC
:1002A00000000F00000078000003C000001E0000E6
:1002B0001D1D1FFFFFC1FFFFFF1FFFFFFDFFFFFF12
:1002C000FF000007F800003FC00001E000000F0041
:1002D000000078000003C000001E000000F00000D5
:1002E000078FFFFFFCFFFFFFCFFFFFFCFFFFFFC7F4
:1002F0008000003C000001E000000F0000007800DA
:100300000003C000001E000000F0000007FFFFFF18
:10031000FFFFFFFFFFFFFFFFFFFFFF801D1D1FFF10
:10032000FF81FFFFFE1FFFFFF9FFFFFFEF00000F40
:100330007800007BC00003C000001E000000F00039
:1003400000078000003C000001E03FFFFF01FFFFCD
:10035000F80FFFFFC07FFFFF00000078000003C020
:1003600000001E000000F00000078000003C0000BC
:1003700001FE00000FF000007FFFFFFFDFFFFFFC2A
:10038000FFFFFFC1FFFFFC001D1D00001F0000015B
:10039000F800001FC00001FE00001FF00001FF80F8
:1003A000001FFC0001FDE0001FCF0001FC78001FD2
:1003B000C3C001FC1E003FC0F003F807803F803C33
:1003C00003F801E03F800F03F800781FFFFFFCFFF8
:1003D000FFFFE7FFFFFF3FFFFFF800003C000001C9
:1003E000E000000F00000078000003C000001E00C5
:1003F0000000F0001D1DFFFFFFFFFFFFFFFFFFFFDD
:10040000FFFFFFFFFF00000078000003C000001E98
:10041000000000F00000078000003C000001E00048
:10042000000FFFFFFC7FFFFFF3FFFFFFDFFFFFFF7A
:1004300000000078000003C000001E000000F00073
:1004400000078000003FC00001FE00000FF0000028
:100450007FFFFFFFDFFFFFFC7FFFFFC1FFFFFC000F
:100460001D1D1FFFFF03FFFFF81FFFFFC1FFFFFE62
:100470000F00000078000003C000001E000000F024
:100480000000078000003C000001E000000FFFFFBB
:10049000FC7FFFFFF3FFFFFFDFFFFFFFF000007FA8
:1004A000800003FC00001FE00000FF000007F800D0
:1004B000003FC00001FE00000FF000007FFFFFFFC3
:1004C000DFFFFFFC7FFFFFC1FFFFFC001D1D1FFFC3
:1004D000FF00FFFFFE07FFFFF03FFFFFC000001E11
:1004E000000000F00000078000003C000001E00078
:1004F000000F00000078000003C000001E00000094
:10050000F00000078000003C000001E000000F0048
:10051000000078000003C000001E000000F0000092
:10052000078000003C000001E000000F00000078A0
:10053000000003C000001E001D1D1FFFFFC1FFFFC4
:10054000FF1FFFFFFDFFFFFFFF000007F800003F58
:10055000C00001FE00000FF000007F800003FC00DF
:10056000001FE00000FFFFFFFFBFFFFFF9FFFFFFDD
:10057000DFFFFFFFF000007F800003FC00001FE0B2
:100580000000FF000007F800003FC00001FE00006F
:100590000FF000007FFFFFFFDFFFFFFC7FFFFFC1C9
:1005A000FFFFFC001D1D1FFFFFC1FFFFFF1FFFFF1F
:1005B000FDFFFFFFFF000007F800003FC00001FE45
:1005C00000000FF000007F800003FC00001FE0002F
:1005D00000FF000007FFFFFFFDFFFFFFE7FFFFFF3A
:1005E0001FFFFFF8000003C000001E000000F00025
:1005F00000078000003C000001E000000F00000048
:100600007FFFFFFFDFFFFFFCFFFFFFC1FFFFFC00DD
:1006100026260FFFFFFFC07FFFFFFF83FFFFFFFFC7
:100620001FFFFFFFFEFFFFFFFFFFFFFFFFFFFFC0FA
:1006300000003FFF000001FFFC00000FFFF0000082
:100640007FFFC00007FFFF00003FFFFC0001FEFF2F
:10065000F0000FF3FFC000FF8FFF0007F83FFC0022
:100660003FC0FFF001FE03FFC00FF00FFF00FF804F
:100670003FFC07F800FFF03FC003FFC1FE000FFF83
:100680000FF0003FFCFF8000FFF7F80003FFFFC002
:10069000000FFFFE00003FFFF00000FFFF8000039F
:1006A000FFF800000FFFC000003FFFFFFFFFFFFF4C
:1006B000FFFFFFF7FFFFFFFF8FFFFFFFFC1FFFFFA5
:1006C000FFE03FFFFFFF00262600000000000000C3
:1006D0000FC00000007F00000003FC0000001FF0BE
:1006E000000000FFC0000007FF0000003FFC00000A
:1006F00001FFF000000FEFC000007F3F000003F893
:10070000FC00001FC3F00000FE0FC00000003F000F
:10071000000000FC00000003F00000000FC000001B
:10072000003F00000000FC00000003F00000000F8C
:10073000C00000003F00000000FC00000003F000CB
:1007400000000FC00000003F00000000FC0000009F
:1007500003F00000000FC00000003F00000000FC9C
:1007600000000003F00000000FC00000003F000088
:100770000000FC00000003F00000000FC00026266F
:100780000FFFFFFFC07FFFFFFF83FFFFFFFF1FFF84
:10079000FFFFFEFFFFFFFFFFFFFFFFFFFFC00000A7
:1007A0000FFF0000003FFC000000FC00000003F011
:1007B0000000000FC00000003F00000000FC00002F
:1007C0000003F00000000FC00000003F0FFFFFFF1C
:1007D000FC7FFFFFFFF3FFFFFFFF9FFFFFFFFEFF19
:1007E000FFFFFFF3FFFFFFFF0FC00000003F00000F
:1007F0000000FC00000003F00000000FC00000003B
:100800003F00000000FC00000003F00000000FC0EB
:100810000000003F00000000FFFFFFFFFFFFFFFFA1
:10082000FFFFFFFFFFFFFFFFFFFFFFFFFFFFFFFFD8
:10083000FFFFFFFFF026260FFFFFFF807FFFFFFF78
:1008400003FFFFFFFE1FFFFFFFFCFFFFFFFFFBFF9C
:10085000FFFFFFEFC000001FBF0000007EFC000094
:1008600001F800000007E00000001F800000007E8B
:1008700000000001F800000007E00000001F8000F9
:1008800000007E01FFFFFFF807FFFFFFC01FFFFF13
:10089000FF807FFFFFFF01FFFFFFFC07FFFFFFF06F
:1008A00000000007C00000001F000000007C0000E6
:1008B0000001F000000007C00000001F0000000061
:1008C0007C00000001FFC0000007FF0000001FFFC8
:1008D000FFFFFFFFFFFFFFFFF7FFFFFFFFDFFFFF50
:1008E000FFFE3FFFFFFFF03FFFFFFF8026260000D7
:1008F000007F00000003FC0000001FF0000000FF6C
:10090000C0000007FF0000003FFC000001FFF000F6
:10091000000FFFC00000FFFF000007FEFC00003FCB
:10092000F3F00001FF8FC0000FF83F00007FC0FC14
:100930000003FE03F0001FF00FC001FF003F000F97
:10094000F800FC007FC003F003FC000FC01FE000B4
:100950003F00FF0000FC07FFFFFFFFDFFFFFFFFF7F
:100960007FFFFFFFFDFFFFFFFFF7FFFFFFFFDFFF41
:10097000FFFFFF0000003F00000000FC000000033C
:10098000F00000000FC00000003F00000000FC006D
:10099000000003F00000000FC00000003F00000056
:1009A00000FC002626FFFFFFFFFFFFFFFFFFFFFF0A
:1009B000FFFFFFFFFFFFFFFFFFFFFFFFFFFFFFFF47
:1009C000FFFFC00000003F00000000FC000000032B
:1009D000F00000000FC00000003F00000000FC001D
:1009E000000003F00000000FC00000003FFFFFFF09
:1009F000F0FFFFFFFFE3FFFFFFFFCFFFFFFFFFBFA2
:100A0000FFFFFFFFFFFFFFFFFC00000003F00000FF
:100A1000000FC00000003F00000000FC00000003C9
:100A2000F00000000FC00000003F00000000FFF0D9
:100A3000000003FFC000000FFF0000003FFFFFFFAA
:100A4000FFFFFFFFFFFFF7FFFFFFFF8FFFFFFFFC31
:100A50001FFFFFFFE03FFFFFFF0026260FFFFFFF06
:100A6000007FFFFFFC03FFFFFFF01FFFFFFFC0FF42
:100A7000FFFFFF03FFFFFFFC0FC00000003F00006F
:100A80000000FC00000003F00000000FC0000000A8
:100A90003F00000000FC00000003F00000000FC059
:100AA0000000003FFFFFFFF0FFFFFFFFE3FFFFFF3E
:100AB000FFCFFFFFFFFFBFFFFFFFFFFFFFFFFFFFB6
:100AC000F0000003FFC000000FFF0000003FFC002B
:100AD0000000FFF0000003FFC000000FFF00000057
:100AE0003FFC000000FFF0000003FFC000000FFF0C
:100AF0000000003FFFFFFFFFFFFFFFFFFFF7FFFFCB
:100B0000FFFF8FFFFFFFFC1FFFFFFFE03FFFFFFF27
:100B100000262603FFFFFF800FFFFFFF803FFFFF40
:100B2000FF00FFFFFFFE03FFFFFFFC0FFFFFFFF0D3
:100B30000000000FC00000003F00000000FC0000AB
:100B40000003F00000000FC00000003F00000000A4
:100B5000FC00000003F00000000FC00000003F0098
:100B6000000000FC00000003F00000000FC00000C7
:100B7000003F00000000FC00000003F00000000F38
:100B8000C00000003F00000000FC00000003F00077
:100B900000000FC00000003F00000000FC0000004B
:100BA00003F00000000FC00000003F00000000FC48
:100BB00000000003F00000000FC00000003F000034
:100BC0000000FC00000003F026260FFFFFFFC07F9F
:100BD000FFFFFF83FFFFFFFF1FFFFFFFFEFFFFFF82
:100BE000FFFFFFFFFFFFFFC000000FFF0000003FFF
:100BF000FC000000FFF0000003FFC000000FFF003A
:100C000000003FFC000000FFF0000003FFC00000F8
:100C10000FFF0000003FFFFFFFFFFDFFFFFFFFE7AB
:100C2000FFFFFFFF9FFFFFFFFEFFFFFFFFFFF00043
:100C30000003FFC000000FFF0000003FFC000000A9
:100C4000FFF0000003FFC000000FFF0000003FFCAA
:100C5000000000FFF0000003FFC000000FFF0000D5
:100C6000003FFFFFFFFFFFFFFFFFFFF7FFFFFFFF5B
:100C70008FFFFFFFFC1FFFFFFFE03FFFFFFF00268E
:100C8000260FFFFFFFC07FFFFFFF83FFFFFFFF1F58
:100C9000FFFFFFFEFFFFFFFFFFFFFFFFFFFFC000A3
:100CA000000FFF0000003FFC000000FFF000000309
:100CB000FFC000000FFF0000003FFC000000FFF03D
:100CC000000003FFC000000FFF0000003FFFFFFF18
:100CD000FFFFFFFFFFFFF7FFFFFFFFDFFFFFFFFF4C
:100CE0003FFFFFFFFC3FFFFFFFF00000000FC000D1
:100CF00000003F00000000FC00000003F0000000C6
:100D00000FC00000003F00000000FC00000003F0E6
:100D10000000000FC00000003FFFFFFFFFFFFFFFCC
:100D2000FFFFF7FFFFFFFF8FFFFFFFFC1FFFFFFF2E
:100D3000E03FFFFFFF00303007FFFFFFFFF00FFF36
:100D4000FFFFFFF81FFFFFFFFFFC3FFFFFFFFFFE5E
:100D50003FFFFFFFFFFE7FFFFFFFFFFF7F00000061
:100D600003FF7F00000007FF7F0000000FFF7F00F0
:100D700000001FFF7F0000003FFF7F000000FFFF1B
:100D80007F000001FFFF7F000003FFFF7F000007DF
:100D9000FF7F7F00000FFE7F7F00001FFC7F7F0032
:100DA000007FF07F7F0000FFE07F7F0001FFC07FBA
:100DB0007F0003FF807F7F0007FF007F7F000FFE23
:100DC000007F7F003FFC007F7F007FF0007F7F007F
:100DD000FFE0007F7F01FFC0007F7F03FF80007F77
:100DE0007F07FF00007F7F1FFE00007F7F3FF8002E
:100DF000007F7F7FF000007F7FFFE000007F7FFFAC
:100E0000C000007F7FFF8000007F7FFF0000007F29
:100E10007FFC0000007F7FF80000007F7FF0000073
:100E2000007F7FE00000007F7FFFFFFFFFFF3FFFAD
:100E3000FFFFFFFE3FFFFFFFFFFE1FFFFFFFFFFC67
:100E40000FFFFFFFFFF807FFFFFFFFF001FFFFFFAE
:100E5000FFC000000000000030300000007FC00034
:100E6000000000FFC000000000FFC000000001FF04
:100E7000C000000003FFC000000007FFC00000002A
:100E80000FFFC00000001FFFC00000001FFFC000D8
:100E900000003FFFC00000007FDFC0000000FF9F98
:100EA000C0000001FF9FC0000003FF1FC00000033F
:100EB000FE1FC0000007FC1FC0000000001FC00094
:100EC0000000001FC0000000001FC0000000001F45
:100ED000C0000000001FC0000000001FC000000094
:100EE000001FC0000000001FC0000000001FC00065
:100EF0000000001FC0000000001FC0000000001F15
:100F0000C0000000001FC0000000001FC000000063
:100F1000001FC0000000001FC0000000001FC00034
:100F20000000001FC0000000001FC0000000001FE4
:100F3000C0000000001FC0000000001FC000000033
:100F4000001FC0000000001FC0000000001FC00004
:100F50000000001FC0000000001FC0000000001FB4
:100F6000C0000000001FC0000000001FC000000003
:100F7000001FC0000000001FC000303001FFFFFF55
:100F8000FFC007FFFFFFFFF01FFFFFFFFFF81FFF7E
:100F9000FFFFFFFC3FFFFFFFFFFE3FFFFFFFFFFEE6
:100FA0007FFFFFFFFFFF7F000000007F7F0000004A
:100FB000007F7F000000007F7F000000007F0000B6
:100FC0000000007F00000000007F00000000007FA4
:100FD00000000000007F00000000007F0000000013
:100FE000007F00000000007F00000000007F000084
:100FF0000000007F00000000007F01FFFFFFFFFFF7
:1010000007FFFFFFFFFE0FFFFFFFFFFE1FFFFFFFBA
:10101000FFFC3FFFFFFFFFF83FFFFFFFFFF07FFFF9
:10102000FFFFFFC07F00000000007F000000000005
:101030007F00000000007F00000000007F00000033
:1010400000007F00000000007F00000000007F0023
:10105000000000007F00000000007F000000000092
:101060007F00000000007F00000000007F00000003
:1010700000007FFFFFFFFFFF7FFFFFFFFFFF7FFFFE
:10108000FFFFFFFF7FFFFFFFFFFF7FFFFFFFFFFF70
:101090007FFFFFFFFFFF7FFFFFFFFFFF303001FFFC
:1010A000FFFFFF0007FFFFFFFFC01FFFFFFFFFE085
:1010B0001FFFFFFFFFF03FFFFFFFFFF83FFFFFFFB6
:1010C000FFF87FFFFFFFFFFC7F00000001FC7F00B7
:1010D000000001FC7F00000001FC7F00000001FC1B
:1010E0000000000001FC0000000001FC0000000006
:1010F00001FC0000000001FC0000000001FC0000F9
:10110000000001FC0000000001FC0000000001FCE8
:101110000000000001FC007FFFFFFFFC007FFFFFDD
:10112000FFF8007FFFFFFFF8007FFFFFFFFC007F5D
:10113000FFFFFFFE007FFFFFFFFE007FFFFFFFFFBF
:1011400000000000007F00000000007F00000000A1
:10115000007F00000000007F00000000007F000012
:101160000000007F00000000007F00000000007F02
:1011700000000000007F00000000007F7F000000F2
:10118000007F7F000000007F7F000000007F7F80E5
:101190000000007F7FFFFFFFFFFF3FFFFFFFFFFE1D
:1011A0003FFFFFFFFFFE1FFFFFFFFFFC0FFFFFFFE3
:1011B000FFF807FFFFFFFFF001FFFFFFFFC0303028
:1011C000000000007F8000000000FF8000000001A0
:1011D000FF8000000003FF8000000007FF80000088
:1011E000000FFF800000001FFF800000003FFF8015
:1011F0000000007FFF80000000FFFF80000001FF73
:10120000FF80000007FFFF8000000FFFBF8000008D
:101210001FFE3F8000003FFC3F8000007FF83F80C2
:101220000000FFF03F800001FFE03F800003FF80EF
:101230003F800007FF003F80000FFE003F80001F3F
:10124000FC003F80007FF8003F8000FFF0003F80FF
:1012500001FFC0003F8003FF80003F8007FF0000C8
:101260003F800FFE00003F801FFC00003F801FFFFB
:10127000FFFFFFFF1FFFFFFFFFFF1FFFFFFFFFFF3E
:101280001FFFFFFFFFFF1FFFFFFFFFFF1FFFFFFF0E
:10129000FFFF1FFFFFFFFFFF000000003F80000077
:1012A00000003F80000000003F80000000003F8001
:1012B000000000003F80000000003F8000000000B0
:1012C0003F80000000003F80000000003F800000E1
:1012D00000003F80000000003F80000000003F80D1
:1012E00030307FFFFFFFFFFF7FFFFFFFFFFF7FFF2C
:1012F000FFFFFFFF7FFFFFFFFFFF7FFFFFFFFFFFFE
:101300007FFFFFFFFFFF7FFFFFFFFFFF7F0000006A
:1013100000007F00000000007F00000000007F0050
:10132000000000007F00000000007F0000000000BF
:101330007F00000000007F00000000007F00000030
:1013400000007F00000000007F00000000007F0020
:10135000000000007F00000000007FFFFFFFFFC0D3
:101360007FFFFFFFFFF07FFFFFFFFFF87FFFFFFF23
:10137000FFFC7FFFFFFFFFFE7FFFFFFFFFFE7FFF02
:10138000FFFFFFFF00000000007F00000000007F63
:1013900000000000007F00000000007F000000004F
:1013A000007F00000000007F00000000007F0000C0
:1013B0000000007F00000000007F00000000007FB0
:1013C0007F000000007F7F000000007F7F000000A2
:1013D000007F7F000000007F7FFFFFFFFFFF3FFFD8
:1013E000FFFFFFFE3FFFFFFFFFFE1FFFFFFFFFFCB2
:1013F0001FFFFFFFFFF807FFFFFFFFF001FFFFFFE9
:10140000FFC0303001FFFFFFFF0007FFFFFFFF00BD
:101410000FFFFFFFFF001FFFFFFFFF003FFFFFFF6A
:10142000FF003FFFFFFFFF007FFFFFFFFF007F0088
:10143000000000007F00000000007F0000000000AE
:101440007F00000000007F00000000007F0000001F
:1014500000007F00000000007F00000000007F000F
:10146000000000007F00000000007F00000000007E
:101470007F00000000007F00000000007FFFFFFFF2
:10148000FFC07FFFFFFFFFF07FFFFFFFFFF87FFF41
:10149000FFFFFFFC7FFFFFFFFFFE7FFFFFFFFFFE61
:1014A0007FFFFFFFFFFF7F000000007F7F00000045
:1014B000007F7F000000007F7F000000007F7F0032
:1014C0000000007F7F000000007F7F000000007FA1
:1014D0007F000000007F7F000000007F7F00000091
:1014E000007F7F000000007F7F000000007F7F0002
:1014F0000000007F7F000000007F7FFFFFFFFFFFF5
:101500003FFFFFFFFFFE3FFFFFFFFFFE1FFFFFFF4D
:10151000FFFC0FFFFFFFFFF807FFFFFFFFF001FFDA
:10152000FFFFFFC03030007FFFFFFFC0007FFFFFE5
:10153000FFF0007FFFFFFFF8007FFFFFFFFC007F51
:10154000FFFFFFFE007FFFFFFFFE007FFFFFFFFFAB
:1015500000000000007F00000000007F000000008D
:10156000007F00000000007F00000000007F0000FE
:101570000000007F00000000007F00000000007FEE
:1015800000000000007F00000000007F000000005D
:10159000007F00000000007F00000000007F0000CE
:1015A0000000007F00000000007F00000000007FBE
:1015B00000000000007F00000000007F000000002D
:1015C000007F00000000007F00000000007F00009E
:1015D0000000007F00000000007F00000000007F8E
:1015E00000000000007F00000000007F00000000FD
:1015F000007F00000000007F00000000007F00006E
:101600000000007F00000000007F00000000007F5D
:1016100000000000007F00000000007F00000000CC
:10162000007F00000000007F00000000007F00003D
:101630000000007F00000000007F00000000007F2D
:1016400000000000007F303001FFFFFFFFC007FFF8
:10165000FFFFFFF00FFFFFFFFFF81FFFFFFFFFFC83
:101660003FFFFFFFFFFE3FFFFFFFFFFE7FFFFFFF8C
:10167000FFFF7F000000007F7F000000007F7F00F1
:101680000000007F7F000000007F7F000000007FDF
:101690007F000000007F7F000000007F7F000000CF
:1016A000007F7F000000007F7F000000007F7F0040
:1016B0000000007F7F000000007F7F000000007FAF
:1016C0007F000000007F3FFFFFFFFFFE3FFFFFFFA7
:1016D000FFFE3FFFFFFFFFFE3FFFFFFFFFFE3FFF5D
:1016E000FFFFFFFE7FFFFFFFFFFF7F000000007F87
:1016F0007F000000007F7F000000007F7F0000006F
:10170000007F7F000000007F7F000000007F7F00DF
:101710000000007F7F000000007F7F000000007F4E
:101720007F000000007F7F000000007F7F0000003E
:10173000007F7F000000007F7F000000007F7FFFB0
:10174000FFFFFFFF3FFFFFFFFFFE3FFFFFFFFFFE2B
:101750001FFFFFFFFFFC0FFFFFFFFFF807FFFFFF6B
:10176000FFF001FFFFFFFFC0303003FFFFFFFFC0AE
:101770000FFFFFFFFFF01FFFFFFFFFF83FFFFFFF1F
:10178000FFFC7FFFFFFFFFFE7FFFFFFFFFFEFFFF6E
:10179000FFFFFFFFFE000000007FFE000000007F53
:1017A000FE000000007FFE000000007FFE00000041
:1017B000007FFE000000007FFE000000007FFE00B2
:1017C0000000007FFE000000007FFE000000007FA0
:1017D000FE000000007FFE000000007FFE00000011
:1017E000007FFE000000007FFFFFFFFFFFFF7FFF85
:1017F000FFFFFFFF7FFFFFFFFFFF3FFFFFFFFFFF39
:101800001FFFFFFFFFFF0FFFFFFFFFFF03FFFFFFB4
:10181000FFFF00000000007F00000000007F0000CC
:101820000000007F00000000007F00000000007F3B
:1018300000000000007F00000000007F00000000AA
:10184000007F00000000007F00000000007F00001B
:101850000000007F00000000007F00000000007F0B
:10186000FFFFFFFFFFFFFFFFFFFFFFFE7FFFFFFF09
:10187000FFFE3FFFFFFFFFFC3FFFFFFFFFF80FFFF3
:10188000FFFFFFF003FFFFFFFFC01D1D0000000072
:101890000000000000000000000000000000000048
:1018A0000000000000000000000000000000000038
:1018B00000000000000000003FFFC001FFFE000F1D
:1018C000FFF0007FFF80000000000000000000002B
:1018D0000000000000000000000000000000000008
:1018E00000000000000000000000000000000000F8
:1018F000000000000000262600000000000000009C
:1019000000000000000000000000000000000000D7
:1019100000000000000000000000000000000000C7
:1019200000000000000000000000000000000000B7
:1019300000000000000000000000000000000000A7
:101940000000000000FFFFFC0003FFFFF0000FFF9E
:10195000FFC0003FFFFF0000FFFFFC0003FFFFF0A0
:101960000000000000000000000000000000000077
:101970000000000000000000000000000000000067
:101980000000000000000000000000000000000057
:101990000000000000000000000000000000000047
:1019A00000000000000000000000000000303000D7
:1019B0000000000000000000000000000000000027
:1019C0000000000000000000000000000000000017
:1019D0000000000000000000000000000000000007
:1019E00000000000000000000000000000000000F7
:1019F00000000000000000000000000000000000E7
:101A000000000000000000000000000000000000D6
:101A100000000000000000000000000000000000C6
:101A200000000000000000000000000000001FFF98
:101A3000FFF800001FFFFFF800001FFFFFF8000085
:101A40001FFFFFF800001FFFFFF800001FFFFFF857
:101A500000001FFFFFF80000000000000000000071
:101A60000000000000000000000000000000000076
:101A70000000000000000000000000000000000066
:101A80000000000000000000000000000000000056
:101A90000000000000000000000000000000000046
:101AA0000000000000000000000000000000000036
:101AB0000000000000000000000000000000000026
:101AC000000000000000000000000000000000090D
:101AD0000C0D0800020100000304070000000000D4
:101AE00000000000000000150180961180FAB1038B
:101AF000012C2DB203012C2DB306012C2D012C2D10
:101B0000B40107C003A20284C101C5C2020A00C316
:101B1000028A2AC4028AEEC5010E20003601C83AA4
:101B200001052A040000007F2B040000007FE01064
:101B3000021C07123732292D29252B3900010310E9
:101B4000E110031D07062E2C292D2E2E373F0000F5
:101B5000021013800A29806444656C6179206D73DA
:101B60003A0A0A52504D3A0A0A5072657373205B62
:101B700053454C5D20746F206578697400536C6F19
:101B8000776C7920726F74617465207468650A647B
:101B900065766963652061726F756E642065766530
:101BA00072790A617869730A0A5072657373205BEF
:101BB00053454C5D20746F20657869740A0A43753B
:101BC0007272656E74204F66667365743A002D31CB
:101BD0003A20436F756E742075702C20303A204F78
:101BE000464600D401B401D001B001CC01AC01C81B
:101BF00001A801C401A401C001A001BC019C01B85D
:101C0000019801D401D001CC01C801C401C001BCBC
:101C100001B8010D0D0F81FF1FFCFBEF8FF83F8016
:101C2000FF1FFAFBC79FFC7FC0F800000000000008
:101C300000005F00000007000700147F147F1424D9
:101C40002A7F2A122313086462364956205000085E
:101C5000070300001C2241000041221C002A1C7FB7
:101C60001C2A08083E080800807030000808080890
:101C700008000060600020100804023E5149453E03
:101C800000427F400072494949462141494D33187D
:101C900014127F1027454545393C4A4949314121B5
:101CA0001109073649494936464949291E00001499
:101CB00000000040340000000814224114141414E1
:101CC00014004122140802015909063E415D594E93
:101CD0007C1211127C7F494949363E414141227FA5
:101CE0004141413E7F494949417F090909013E413E
:101CF0004151737F0808087F00417F410020404127
:101D00003F017F081422417F404040407F021C0277
:101D10007F7F0408107F3E4141413E7F090909064B
:101D20003E4151215E7F091929462649494932031E
:101D3000017F01033F4040403F1F2040201F3F40A4
:101D400038403F631408146303047804036159495D
:101D50004D43007F414141020408102000414141B0
:101D60007F04020102044040404040000307080095
:101D700020545478407F2844443838444444283818
:101D80004444287F385454541800087E090218A48B
:101D9000A49C787F0804047800447D4000204040E3
:101DA0003D007F1028440000417F40007C047804FF
:101DB000787C080404783844444438FC18242418F7
:101DC00018242418FC7C080404084854545424049F
:101DD000043F44243C4040207C1C2040201C3C40CC
:101DE00030403C44281028444C9090907C446454EB
:101DF0004C440008364100000077000000413608DE
:101E00000002010204023C2623263C4361726469FD
:101E10006E616C7320283136290043617264696EEB
:101E2000616C73202838290042656172696E670011
:101E30004F464600466163746F7279207265736520
:101E40007400436C6F636B2063616C6962726174D0
:101E5000696F6E0053657420484173742E205A6573
:101E6000726F00546F67676C6520484173736973C4
:101E70007400417263004261720042756C6C65745B
:101E80007300536F6C6964005374616E64616C6FAE
:101E90006E65203976004C69506F2031312E3176D5
:101EA000004C69506F20372E3476004E694D482023
:101EB000392E3676004E694D4820382E347600563D
:101EC0006F6C7461676520726561646F757400433F
:101ED0006F6D70617373204D6F64650043616C6951
:101EE000627261746520636F6D7061737300536516
:101EF0006C2042746E2052656C6F616400416D6DA0
:101F00006F2062617220666C61736800416D6D6F55
:101F100020626172206469722E20004261747465CF
:101F20007279207479706500416D6D6F2042617225
:101F3000205374796C650022437269746963616C23
:101F40002220636F6C6F7200225761726E222063D1
:101F50006F6C6F720022476F6F642220636F6C6F2B
:101F600072004261636B67726F756E6420636F6CA1
:101F70006F72004261736520554920436F6C6F7228
:101F800000526F74617465205549203930206467B0
:101F9000727300426C756500477265656E0052652C
:101FA0006400507265736574203600507265736505
:101FB000742035005072657365742034005072656A
:101FC000736574203300507265736574203200505D
:101FD00072657365742031003C3C204261636B0084
:101FE0004E6578742070616765203E3E00536176CF
:101FF00065206272696768746E657373004D656110
:10200000737572652064656C61792F524F46005577
:10201000492053657474696E677300536574207446
:10202000696D65206D696E75746573005365742004
:1020300074696D6520686F757273004D616E6167BC
:10204000652050726573657473003C3C2053617663
:10205000652026204578697400301E281E1A1E0B44
:102060001ED81F631E541E421E341E821E7A1E7608
:102070001E721EBF1EB51EAB1EA11E961E881ED848
:102080001F1B1F0C1FFD1EEE1EDC1ECF1EE01FD8E7
:102090001F811F731F621F551F481F371F281FD81E
:1020A0001F9E1F981F931FD81FCF1FC61FBD1FB491
:1020B0001FAB1FA21F4A203B202C201B200F20FDFE
:1020C0001FED1FE01F0D0D0F81831044862830C3C4
:1020D000861430E1860A30910460C0F80007077D5D
:1020E000AE4CD838DF000C07FFE803AA9AA9AA98DB
:1020F00003FFE08014183060C183060C18183060AC
:10210000C183060C18183060C183060C18183060A3
:10211000C183060C183C78F1E3C78F1E3C3C78F174
:10212000E3C78F1E3C3C78F1E3C78F1E3C3C78F13F
:10213000E3C78F1E3C3C78F1E3C78F1E3C3C78F12F
:10214000E3C78F1E3C3C78F1E3C78F1E3C3C78F11F
:10215000E3C78F1E3C3C78F1E3C78F1E3C3C78F10F
:10216000E3C78F1E3C3C78F1E3C78F1E3C3C78F1FF
:10217000E3C78F1E3C7EFDFBF7EFDFBF7E7EFDFBDE
:10218000F7EFDFBF7E7EFDFBF7EFDFBF7E7EFDFB5F
:10219000F7EFDFBF7E7EFDFBF7EFDFBF7E7EFDFB4F
:1021A000F7EFDFBF7E7EFDFBF7EFDFBF7E7EFDFB3F
:1021B000F7EFDFBF7E7EFDFBF7EFDFBF7E7EFDFB2F
:1021C000F7EFDFBF7E7EFDFBF7EFDFBF7E7EFDFB1F
:1021D000F7EFDFBF7E7EFDFBF7EFDFBF7E7EFDFB0F
:1021E000F7EFDFBF7E7EFDFBF7EFDFBF7E7EFDFBFF
:1021F000F7EFDFBF7E7EFDFBF7EFDFBF7E7EFDFBEF
:10220000F7EFDFBF7E7EFDFBF7EFDFBF7E7EFDFBDE
:10221000F7EFDFBF7E3C78F1E3C78F1E3C3C78F1DF
:10222000E3C78F1E3C7EFDFBF7EFDFBF7E7EFDFB2D
:10223000F7EFDFBF7E80143FFFFFFFFFFFFFFFFFD1
:10224000FFFFFFFFFFFFFC60000000000000000038
:1022500000000000000006CE7E7E7E7E7E7E7E7EBA
:102260007E7E7E7E7E7E739E7E7E7E7E7E7E7E7E79
:102270007E7E7E7E7E7E79BE7E7E7E7E7E7E7E7E43
:102280007E7E7E7E7E7E7DBE7E7E7E7E7E7E7E7E2F
:102290007E7E7E7E7E7E7DBE7E7E7E7E7E7E7E7E1F
:1022A0007E7E7E7E7E7E7DBE7E7E7E7E7E7E7E7E0F
:1022B0007E7E7E7E7E7E7DBE7E7E7E7E7E7E7E7EFF
:1022C0007E7E7E7E7E7E7DBE7E7E7E7E7E7E7E7EEF
:1022D0007E7E7E7E7E7E7DBE7E7E7E7E7E7E7E7EDF
:1022E0007E7E7E7E7E7E7DBE7E7E7E7E7E7E7E7ECF
:1022F0007E7E7E7E7E7E7DBE7E7E7E7E7E7E7E7EBF
:102300007E7E7E7E7E7E7DBE7E7E7E7E7E7E7E7EAE
:102310007E7E7E7E7E7E7DBE7E7E7E7E7E7E7E7E9E
:102320007E7E7E7E7E7E7DBE7E7E7E7E7E7E7E7E8E
:102330007E7E7E7E7E7E7D9E7E7E7E7E7E7E7E7E9E
:102340007E7E7E7E7E7E79CE7E7E7E7E7E7E7E7E62
:102350007E7E7E7E7E7E73600000000000000000B6
:10236000000000000000063FFFFFFFFFFFFFFFFF30
:10237000FFFFFFFFFFFFFC8014FFF3FFF3FFF3FFFE
:10238000FE7FFFCFFFCFFFCFFFFFF3FFF3FFF3FF92
:10239000FE7FFFCFFFCFFFCFFFFFF3FFF3FFF3FF82
:1023A000FE7FFFCFFFCFFFCFFFFFF3FFF3FFF3FF72
:1023B000FE7FFFCFFFCFFFCFFFFFF9FFF9FFF9FF50
:1023C000FE7FFF9FFF9FFF9FFFFFF9FFF9FFF9FFD0
:1023D000FE7FFF9FFF9FFF9FFFFFF9FFF9FFF9FFC0
:1023E000FE7FFF9FFF9FFF9FFFFFFCFFFCFFFCFFA7
:1023F000FE7FFF3FFF3FFF3FFFFFFCFFFCFFFCFFB7
:10240000FE7FFF3FFF3FFF3FFFFFFCFFFCFFFCFFA6
:10241000FE7FFF3FFF3FFF3FFFFFFCFFFCFFFCFF96
:10242000FE7FFF3FFF3FFF3FFFFFFE7FFE7FFE7F00
:10243000FE7FFE7FFE7FFE7FFFFFFE7FFE7FFE7F33
:10244000FE7FFE7FFE7FFE7FFFFFFE7FFE7FFE7F23
:10245000FE7FFE7FFE7FFE7FFF3FFF3FFF3FFF3F90
:10246000FE7FFCFFFCFFFCFFFC00FF3FFF3FFF3F48
:10247000FE7FFCFFFCFFFCFF0000003FFF3FFF3F33
:10248000FE7FFCFFFCFFFC0000000000FF3FFF3F61
:10249000FE7FFCFFFCFF000000000000001FFF9F0C
:1024A000FE7FF9FFF80000000000000000000007B8
:1024B000FE7FE00000000000000B0B04088882078C
:1024C0000191BAC7C07020888810004564697420E3
:1024D00076616C75653A0000000000250028002B2D
:1024E000002E0000000000240027002A002D000418
:1024F00004040404040404020202020202030303AB
:1025000003030305050505010204081020408001AE
:10251000020408102001020408102004080102002F
:102520004D3711241FBECFEFD8E0DEBFCDBF11E085
:10253000A0E0B1E0E6EEFCE702C005900D92AE3CF3
:10254000B107D9F723E0AEECB1E001C01D92AF3B7B
:10255000B207E1F712E1C1E9D2E104C02197FE011F
:102560000E94313DC039D107C9F70E94E1260C9481
:10257000713E0C940000089585ED8093BC0080911D
:10258000BC0084FDFCCF1092E2020895613298F401
:102590002091E202243089F460934002282FA0E2C7
:1025A000B2E0FC018E2F821B861718F481918D9367
:1025B000F9CF80E0089581E0089582E008950895BC
:1025C000E0919B0280919A02E81730F4F0E0E45623
:1025D000FD4F808190E008958FEF9FEF08959091D7
:1025E0009B0280919A02981750F4E92FF0E0E4568C
:1025F000FD4F208130E09F5F90939B0202C02FEF40
:102600003FEFC901089580919A0290E020919B02CA
:10261000821B91090895CF92DF92EF92FF920F9360
:102620001F93CF93DF937C01CB018A012091760227
:10263000222389F0EB016B01C40ED51ECC15DD05FC
:1026400069F06991D701ED91FC910190F081E02D45
:10265000C7010995F3CF642F0E94C612C801DF910C
:10266000CF911F910F91FF90EF90DF90CF90089541
:10267000CF93DF931F92CDB7DEB7698320917602A7
:102680002223D1F020919902203240F021E030E065
:10269000FC013383228380E090E015C080917702B3
:1026A000E82FF0E0E858FD4F998190838F5F809389
:1026B00077028093990205C061E0CE0101960E94E5
:1026C000C61281E090E00F90DF91CF9108950895B8
:1026D0006370FC01658708952F923F924F925F923D
:1026E0006F927F928F929F92AF92BF92CF92DF9222
:1026F000EF92FF920F931F93CF93DF93CDB7DEB787
:1027000064970FB6F894DEBF0FBECDBF9C8B8B8B4A
:10271000162F6A30B1F4DC0115961C921E921497A4
:102720001C962C911C9716968D919C911797B8E04A
:102730002B9F800D911D1124EB89FC899783868343
:1027400040C16D3009F43DC1AB89BC891E968C91A6
:102750001E971C96BC91B983882311F1EB89FC89E3
:1027600084819581F6E0BF9F800D911D11248138F1
:102770009105B4F0AB89BC8915961C921E921497F2
:1027800016968D919C911797E981B8E0EB9F800D8B
:10279000911D1124AB89BC8917969C938E93169733
:1027A000EB89FC89A480B580F0E8AF16B1040CF089
:1027B000F8C0AB89BC8916968D909C901797B0E8AD
:1027C0008B1691040CF0EDC0E981CE2ED12C950131
:1027D00086E0E89F200D311D11243A8729871216C3
:1027E00013060CF0DEC0D60183E0AA0FBB1F8A954A
:1027F000E1F7BC87AB87CD01880D991D1816190626
:102800000CF0CFC0EB89FC898785811103C0103B98
:1028100008F01F5FAB89BC891A966D907C901B975E
:102820001896ED91FC911997FB83EA83ED91FC9149
:1028300011970284F385E02DCD010995612F70E099
:102840006052710925E0269FC001279F900D112439
:1028500095012B5F3F4F3E872D87BD82AC822501BE
:10286000DC01AA19BB09B88BAF87F4013896FA8B43
:10287000E98BEF85F889E40DF51DE55DF34E2491B4
:1028800028879F828E821401388530FF13C0AB8960
:10289000BC89ED91FC91B981B13031F40484F585A6
:1028A000E02D2A813B8116C00684F785E02DEA8061
:1028B000FB801AC0EA81FB816E167F06F1F0AB89BE
:1028C000BC89ED91FC91B981B13051F40484F58556
:1028D000E02D9301A101B2018B899C8909950DC05E
:1028E0000684F785E02D7301860196014E815F8194
:1028F0006C817D818B899C890995E885E695E887BF
:10290000FFEF2F1A3F0A2E813F812C0D3D1D3F8383
:102910002E8389899A898215930509F0B5CF9FEF97
:10292000491A590AAC81BD81AC0DBD1DBD83AC8374
:10293000ED85FE85E415F50509F09BCF2A813B81E5
:102940006216730621F1AB89BC89ED91FC91B981C6
:10295000B13071F4B5016B5F7F4F0088F189E02DD4
:10296000830128E030E0A4018B899C8909950FC080
:1029700069857A856C197D090684F785E02D7301D8
:102980000B851C859601A4018B899C890995AB89CF
:10299000BC89ED91FC9111970688F789E02DCD0156
:1029A0000995EB89FC89248584819581F6E02F9F28
:1029B000800D911D1124AB89BC8915969C938E9333
:1029C000149781E090E064960FB6F894DEBF0FBED6
:1029D000CDBFDF91CF911F910F91FF90EF90DF90CE
:1029E000CF90BF90AF909F908F907F906F905F90AF
:1029F0004F903F902F9008956F927F928F929F9269
:102A0000AF92BF92CF92DF92EF92FF920F931F93FC
:102A1000CF93DF93EC014B015A0169013801E88142
:102A2000F9810284F385E02D0995E881F981028816
:102A3000F389E02D87019601A501B401CE01099526
:102A4000A501460D571D41505109E881F9810288C1
:102A5000F389E02D9601B401CE010995E881F98151
:102A60000088F189E02D9301A501B401CE010995FB
:102A7000C80CD91CB60161507109E881F981008840
:102A8000F189E02D9301A501CE010995E881F98135
:102A90000688F789E02DCE01DF91CF911F910F912C
:102AA000FF90EF90DF90CF90BF90AF909F908F906E
:102AB0007F906F9009948F929F92AF92BF92CF9226
:102AC000DF92EF92FF920F931F93CF93DF934C010E
:102AD0006B015A01E901DC01ED91FC91621773076A
:102AE00081F40417150724F48B2D5801042F182F97
:102AF0000A191B0998012F5F3F4F048CF58DE02DBB
:102B000012C04017510709F52617370724F48D2DF9
:102B10006901C62FD82F9E012C193D092F5F3F4F09
:102B2000068CF78DE02D8701A501B601C40109953A
:102B3000DF91CF911F910F91FF90EF90DF90CF9099
:102B4000BF90AF909F908F9008950284F385E02D01
:102B50000995D401ED91FC910488F589E02D9E0141
:102B6000A501B601C4010995D401ED91FC91068837
:102B7000F789E02DC401DF91CF911F910F91FF9054
:102B8000EF90DF90CF90BF90AF909F908F9009947F
:102B9000EF92FF920F931F93DC01ED91FC9100A047
:102BA000F1A1E02D7B0100E810E020E830E040E0FA
:102BB00050E060E070E009951F910F91FF90EF9059
:102BC00008954F925F926F927F928F929F92AF92F1
:102BD000BF92CF92DF92EF92FF920F931F93CF930A
:102BE000DF936C012B015A0139014801DC01ED91A1
:102BF000FC910284F385E02D0995E201640C751CBB
:102C0000D601ED91FC91C615D7055CF40088F189D9
:102C1000E02D87019401A501BE01C6010995219609
:102C2000EFCF0688F789E02DC601DF91CF911F9184
:102C30000F91FF90EF90DF90CF90BF90AF909F905B
:102C40008F907F906F905F904F9009948F929F929A
:102C5000AF92BF92CF92DF92EF92FF920F931F93AA
:102C6000CF93DF93EC015B014A016901E881F981AF
:102C70000284F385E02D099595012C0D3D1D215011
:102C80003109E881F9810488F589E02D7801840112
:102C9000A401B501CE010995E881F9810688F7897B
:102CA000E02DCE01DF91CF911F910F91FF90EF901A
:102CB000DF90CF90BF90AF909F908F9009948F92AC
:102CC0009F92AF92BF92CF92DF92EF92FF920F93BB
:102CD0001F93CF93DF93EC015B014A0169017801F7
:102CE000E881F9810284F385E02D0995C80CD91C8F
:102CF000860101501109E881F9810488F589E02DE8
:102D00009501A401B501CE010995E881F9810688F4
:102D1000F789E02DCE01DF91CF911F910F91FF90A8
:102D2000EF90DF90CF90BF90AF909F908F900994DD
:102D3000EF92FF920F931F93DC01ED91FC9100A0A5
:102D4000F1A1E02D09951F910F91FF90EF9008954B
:102D50000F931F93DC01ED91FC91068CF78DE02D14
:102D600009951F910F9108950F931F93DC01ED9129
:102D7000FC91048CF58DE02D09951F910F9108951C
:102D8000DC01ED91FC910084F185E02D09940E9415
:102D90006C3E362F90E0FC01E153F54E4491FC016E
:102DA000E95FFA4D2491FC01E151FB4D84918823A8
:102DB00009F44EC04423C1F150E0FA013197ED30DF
:102DC000F10590F5E65AFF4F0C94313D909180004B
:102DD0009F7703C0909180009F7D9093800024C0D6
:102DE00094B59F7702C094B59F7D94BD1DC090910E
:102DF000B0009F7703C09091B0009F7D9093B0008A
:102E000013C0909190009F7703C0909190009F7D98
:102E10009093900009C09091A0009F7703C090917B
:102E2000A0009F7D9093A000E82FF0E0EE0FFF1F21
:102E3000E952FB4DA591B4919FB7F894311104C0AC
:102E40008C912095282302C0EC912E2B2C939FBFB0
:102E500008959FB7F894409168025091690260917B
:102E60006A0270916B0286B5A89B06C08F3F21F065
:102E70004F5F5F4F6F4F7F4F9FBF762F652F542F50
:102E800044279A01AB01280F311D411D511DA3E0BC
:102E9000B0E00E944A3808958F929F92AF92BF92FD
:102EA000CF92DF92EF92FF926B017C010E94291773
:102EB0004B015C01C114D104E104F104F1F00E9462
:102EC0002917DC01CB0188199909AA09BB09883E99
:102ED0009340A105B10570F321E0C21AD108E108C1
:102EE000F10888EE880E83E0981EA11CB11CC11465
:102EF000D104E104F10419F7DDCFFF90EF90DF90EA
:102F0000CF90BF90AF909F908F9008952FB7F89477
:102F100060916402709165028091660290916702EF
:102F20002FBF08951F920F920FB60F9211242F9367
:102F30003F938F939F93AF93BF938091640290913F
:102F40006502A0916602B09167023091630226E6A5
:102F5000230F2D3728F029EE230F0196A11DB11D57
:102F6000209363028093640290936502A0936602AB
:102F7000B09367028091680290916902A0916A0201
:102F8000B0916B020196A11DB11D809368029093D0
:102F90006902A0936A02B0936B02BF91AF919F91B7
:102FA0008F913F912F910F900FBE0F901F9018950A
:102FB0001F920F920FB60F9211242F933F934F93AE
:102FC0005F936F937F938F939F93AF93BF93EF9391
:102FD000FF93E0910201F09103010995FF91EF91B8
:102FE000BF91AF919F918F917F916F915F914F9121
:102FF0003F912F910F900FBE0F901F9018951F9229
:103000000F920FB60F9211242F933F934F935F931C
:103010006F937F938F939F93AF93BF93EF93FF93A0
:10302000E0910001F09101010995FF91EF91BF91AD
:10303000AF919F918F917F916F915F914F913F9150
:103040002F910F900FBE0F901F9018951F920F9207
:103050000FB60F9211242F933F934F935F936F936B
:103060007F938F939F93AF93BF93EF93FF93809141
:10307000B900887F803609F49CC068F5883209F46D
:103080005BC090F4803109F454C038F4882309F40B
:10309000F2C0883009F44DC0F2C0883109F44CC048
:1030A000803209F45DC0EBC0803409F468C048F494
:1030B000803309F455C0883309F0E1C08093E00201
:1030C000D4C0803509F44FC0883509F45DC0883418
:1030D00009F0D5C0D2C0883909F4C3C0A8F4883734
:1030E00009F467C038F4883609F463C0803709F4FE
:1030F00060C0C5C0883809F4B4C0803909F45FC025
:10310000803809F0BCC05BC0803B09F484C038F44F
:10311000803A09F466C0883A09F47DC0B0C0803CAA
:1031200009F4A3C0883C09F4A0C0883B09F486C018
:10313000A6C08091DD0210C09091DF028091DE0276
:10314000981770F5E091DF0281E08E0F8093DF0227
:10315000F0E0E454FD4F80818093BB0085EC82C099
:103160008093E0028AC0E091DF0281E08E0F8093BD
:10317000DF028091BB00F0E0E454FD4F808390912A
:10318000DF028091DE026AC0E091DF0281E08E0FF3
:103190008093DF028091BB00F0E0E454FD4F808318
:1031A0008091E102811169C081E08093DC0284EAB0
:1031B0005DC083E08093E20210926202CFCF8091E3
:1031C0006202803208F04DC0E091620281E08E0F11
:1031D000809362028091BB00F0E0EE5BFD4F808344
:1031E000BDCF85EC8093BC001092E2028091620218
:1031F000803230F4E0916202F0E0EE5BFD4F10822D
:103200006091620270E082E492E0E0E0F0E0099513
:103210001092620234C084E08093E2021092410274
:1032200010924002E0E0F0E00995809140028111A7
:1032300005C081E08093400210922002E09141029B
:1032400081E08E0F80934102F0E0E05EFD4F8081CF
:103250008093BB009091410280914002981708F43E
:103260007DCF85E88093BC000AC085EC8093BC00CC
:103270001092E20204C01092E0020E94BC12FF9180
:10328000EF91BF91AF919F918F917F916F915F91DE
:103290004F913F912F910F900FBE0F901F90189557
:1032A000AF92BF92CF92DF92EF92FF920F931F9354
:1032B000CF93DF93EC018C015C018CE0A80EB11C74
:1032C000C12CD12C7601F80161917191819191917C
:1032D0008F019B01AC010E94F83A9B01AC01C70130
:1032E000B6010E9487386B017C01A016B10659F720
:1032F0000E94BB3B6B017C019B01AC016881798121
:103300008A819B810E946A39688379838A839B833F
:10331000A70196016C817D818E819F810E946A390F
:103320006C837D838E839F83A70196016885798551
:103330008A859B850E946A39688779878A879B87F7
:10334000DF91CF911F910F91FF90EF90DF90CF9081
:10335000BF90AF9008958CB58F7B8CBD2B9A2D9A22
:103360002D988CB580648CBD0895DC015D96ED913F
:10337000FC915E97908193968C91809589238083B0
:103380000895DC015D96ED91FC915E979081939696
:103390008C91892B808308958EBD00000DB407FEAB
:1033A000FDCF8EB508951F93CF93DF93EC01162FB9
:1033B0000E94B519CE010E94AB19812F0E94CC1931
:1033C000CE01DF91CF911F910C94C1191F93CF9320
:1033D000DF93EC01162F0E94B5198CB58F7B8CBD45
:1033E0002B982D9A2D988CB580648CBD812F0E94CE
:1033F000CC19CE01DF91CF911F910C94C1196111AD
:1034000002C060E201C061E20C94E6191F93CF9301
:10341000DF93EC01162F66E30E94E6191D87113039
:10342000B1F068F01230D9F0133021F568E6CE0122
:103430000E94D3198D89888F8E8982501AC068ECBA
:10344000CE010E94D3198D898F8B8E8910C068EAB6
:10345000CE010E94D3198D89888F8E890AC06CE0B5
:10346000CE010E94D3198D898F8B8E898250888FCF
:1034700001C08F8BDF91CF911F910895EF92FF9242
:103480000F931F93CF93DF93EC01E62E142FF22EB0
:103490006AE20E94E61960E0CE010E94D3196F89AA
:1034A0006E0DCE010E94D31960E0CE010E94D319A7
:1034B0006F896F0DCE010E94D3196BE2CE010E947D
:1034C000E61960E0CE010E94D319688D610FCE012C
:1034D0000E94D31960E0CE010E94D319688D600F5D
:1034E000CE010E94D3196CE2CE01DF91CF911F91E2
:1034F0000F91FF90EF900C94E619CF92DF92EF922C
:10350000FF920F931F93CF93DF936C01D22FC02FA5
:10351000822F90E0860F911D8138910514F0D0E83C
:10352000D61B8C2F90E0840F911D8138910514F0EB
:10353000C0E8C41B0FEF040F0C0F2FEF260F2D0F49
:10354000C6010E943E1AC6010E94B519CC2399F00B
:103550001D2F112371F0C6010E94AB198F2D0E94FF
:10356000CC19C6010E94AB198E2D0E94CC191150A6
:10357000F0CFC150EBCFC601DF91CF911F910F91DA
:10358000FF90EF90DF90CF900C94C119EF92FF92D3
:103590000F937B0100E820E840E060E00E947D1A84
:1035A0000F91FF90EF900895FF920F931F93CF9389
:1035B000DF936038710518F54038510500F5F32E9A
:1035C000122FEC0101E0040F21E0260F0E943E1AA9
:1035D000CE010E94B519CE010E94AB198F2D0E9419
:1035E000CC19CE010E94AB19812F0E94CC19CE01BB
:1035F000DF91CF911F910F91FF900C94C119DF9132
:10360000CF911F910F91FF9008952F923F924F926B
:103610005F926F927F928F929F92AF92BF92CF9262
:10362000DF92EF92FF920F931F93CF93DF9300D01F
:1036300000D000D0CDB7DEB72C017E836D836A0148
:103640005901C801FC82EB824801841A950A97FE51
:1036500003C091948194910835012D813E81621AB5
:10366000730A77FE03C07194619471086814790439
:103670005CF43A2D2B2D5C01832F922F3D812E81FE
:10368000DE82CD82C32ED22EAD81BE81AA16BB06AC
:103690005CF43C2D2D2D6C01832F922F3D812E81CA
:1036A000BE82AD82A32EB22E85012D813E81021BEA
:1036B000130B1C012C183D0837FE03C031942194D4
:1036C0003108780117FF03C03FEFE31AF30AF594BE
:1036D000E794C816D9062CF08FEF9FEF9A83898361
:1036E00004C0A1E0B0E0BA83A9832D813E81A21677
:1036F000B30624F1D201ED91FC910484F585E02D0F
:103700002B813C816814790424F44D815E81B601DB
:1037100003C0A6016D817E81C2010995E218F308FC
:10372000F7FE06C029813A81C20ED31EE00EF11EBB
:103730008D819E8101969E838D83D7CF26960FB66D
:10374000F894DEBF0FBECDBFDF91CF911F910F91D7
:10375000FF90EF90DF90CF90BF90AF909F908F90B1
:103760007F906F905F904F903F902F9008950895B5
:1037700080E090E00895F8944B9928C08091710200
:10378000811126C0E091E501F0E0EE0FFF1FE65841
:10379000FC4F208131818091E6019091E70137FF54
:1037A0000AC00196803127E2920734F01092E701B7
:1037B0001092E60105C001979093E7018093E6011E
:1037C00081E08093E8018093710202C0109271023F
:1037D000789408958091EC014A9912C0811118C023
:1037E0008091EA019091EB01049790F081E0809341
:1037F000ED018093EC011092F7031092F60304C0E0
:10380000882331F01092EC011092EB011092EA0142
:103810000895CF92DF92EF92FF920F931F93EBE404
:10382000F3E08CE290E0958384838EE390E09783CD
:103830008683E091DA01F091DB01808191810E9421
:10384000E6248AEB91E00E94B524C0907202D090E9
:1038500073020D2C000CEE08FF08E091DA01F091E4
:10386000DB0120813181C901330FAA0BBB0B9C0105
:10387000AD012C193D094E095F09A2E5B0E00E9497
:103880004A3820917402309175028901330F220B5E
:10389000330BA90198012C193D094E095F090E94BB
:1038A0002B38CC24DD24C21AD30AE0E7F3E0E08011
:1038B000F1800281138123E042E56EE487E10E94FA
:1038C0008D221F910F91FF90EF90DF90CF90089580
:1038D000CF92DF92EF92FF920F931F93F8944B9940
:1038E0002AC080917102811128C00E94291700917D
:1038F0006D0210916E0220916F02309170026B0187
:103900007C01C01AD10AE20AF30AC092DD01D0920A
:10391000DE01E092DF01F092E00160936D027093AE
:103920006E0280936F029093700281E08093E801B1
:103930008093710202C01092710278941F910F91CE
:10394000FF90EF90DF90CF9008950F931F93CF9348
:10395000DF93F999FECF80E090E00E940338823037
:1039600031F0DF91CF911F910F910C94D01C81E029
:1039700090E00E9403388093D60100E713E0C2E094
:10398000D0E0CE010E940338F80181938F01219687
:10399000CC33D105B1F7DF91CF911F910F910895ED
:1039A000EF92FF920F931F93CF93DF93CDB7DEB7C4
:1039B000EA970FB6F894DEBF0FBECDBFF999FECFE0
:1039C00062E080E090E00E941D3863E081E090E0DA
:1039D0000E941D3880EE9FEF9A8389831C821B8290
:1039E00080EE97E09E838D8380EA9FEF98878F8398
:1039F00080E098EF9A8789878EE190E09C878B879B
:103A00008EE591E09E878D8780ED97E0988B8F877C
:103A10001A8A198A1C8A1B8A1E8A1D8A188E81E0BE
:103A20008C8F1B8E8D8F198E8E8F18A21F8E1A8EE3
:103A300019A21AA21BA21CA21DA21EA21FA218A696
:103A400019A61AA61BA61CA68DA78EA71FA618AA84
:103A500019AA1AAA80E090E0A0E8BFE38BAB9CAB68
:103A6000ADABBEAB1FAA18AE19AE1AAECE01019611
:103A70007C0102E010E0F70161917F01C8010E9422
:103A80001D380F5F1F4F0C331105A9F7EA960FB6CB
:103A9000F894DEBF0FBECDBFDF91CF911F910F9184
:103AA000FF90EF900C94A51CEF92FF920F931F9341
:103AB000CF93DF939093DB018093DA0170937302CD
:103AC0006093720250937502409374021092D80171
:103AD0008091E9018093D50189E08093E901C0E7F5
:103AE000D3E0E880F98008E210E028E530E04CE21D
:103AF00050E064E170E08BE493E00E94FC14EA8003
:103B0000FB8006E226E54DE265E18BE493E00E944E
:103B10007D1AEBE4F3E08EE190E09583848380E30B
:103B200090E0978386838BEC94E20E947222E88077
:103B3000F98005E010E024E530E04DE450E066E176
:103B400070E08BE493E00E94FC14DF91CF911F9111
:103B50000F91FF90EF900C94091CCF93DF938BE3B0
:103B600090E09093500380934F038DE690E0909304
:103B700052038093510382E0809357038091E201C6
:103B8000882319F08091E10102C08091E50190E065
:103B900001960E94E62481E0809357038091E20120
:103BA000882329F0809170039091710304C0809163
:103BB00072039091730390935603809355039093EF
:103BC00054038093530381E390E0909350038093D8
:103BD0004F03CDE6D0E0D0935203C09351038CE362
:103BE0000E946D2289E490E09093500380934F03EC
:103BF000D0935203C09351038EE30E946D228091B3
:103C0000720390917303209170033091710330938C
:103C10005403209353039093560380935503DF91ED
:103C2000CF910895EF92FF920F931F938091D60149
:103C300025E030E07901E81AF108EE0CFF1CE0E71E
:103C4000F3E0028113812081318149EB54E269E57F
:103C500089E50E941A231F910F91FF90EF9008951C
:103C60001F93CF93DF938093D601E82FF0E0E05AC3
:103C7000FE4F1081C12FD0E085E00E94E7232097FE
:103C800011F460E004C0CF3FD10539F461E085E074
:103C9000DF91CF911F910C94C916E4EDFAE1E49104
:103CA0008E2F90E0FC013197ED30F10508F05FC0F8
:103CB000E959FF4F0C94313D84B5806884BD17BD30
:103CC0005BC084B5806284BD18BD56C08091800001
:103CD000806880938000D0938900C09388004CC096
:103CE00080918000806280938000D0938B00C0938D
:103CF0008A0042C08091B00080688093B000109329
:103D0000B3003AC08091B00080628093B0001093FD
:103D1000B40032C080919000806880939000D0936E
:103D20009900C093980028C0809190008062809391
:103D30009000D0939B00C0939A001EC08091A00079
:103D400080688093A0008091A0008F7B8093A0006A
:103D5000D093A900C093A8000FC08091A0008062FA
:103D60008093A000D093AB00C093AA0005C0C038D8
:103D7000D1050CF08BCF85CFDF91CF911F910895A6
:103D8000CF92DF92EF92FF920F931F9300917203F5
:103D90001091730381110AC0780104E120E848E022
:103DA00060E08BE493E00E947D1A36C020E830E0AA
:103DB0007901E81AF10880918B0390918A03209190
:103DC000E3013091E4018823B9F0992319F0F194CB
:103DD000E194F10890E0019762E471E0869FA00110
:103DE000879F500D969F500D11244D505F4D68E0F8
:103DF00080E00E941A2310C0992329F0CC24DD24EE
:103E0000CE18DF0801C067017801890124E140E88C
:103E100068E080E00E948D221F910F91FF90EF904B
:103E2000DF90CF900895E091E501F0E0EE0FFF1FE5
:103E3000E658FC4F2081318137FF0AC0809174031E
:103E4000909175039093E4018093E30180E032C088
:103E50006091E6017091E7011616170614F5CB0183
:103E6000770FAA0BBB0BBC01CD0147E0660F771F94
:103E7000881F991F4A95D1F7032E000C440B550B50
:103E80000E942B38822F263528F020917403309120
:103E900075030CC02B3230F02091760330917703FC
:103EA00005C080E020917803309179033093E401DC
:103EB0002093E3010C94C01EEF92FF920F931F9387
:103EC0001092D8011092E90160917203709173030E
:103ED0008BE493E00E94C61A009172031091730361
:103EE0002091700330917103E12CF12C46EE50E2E9
:103EF00060E788E50E941A23009172031091730312
:103F000020917003309171034DED50E260E785E23E
:103F10000E941A2380919D03882371F000917203FF
:103F200010917303209170033091710345EC50E2BE
:103F300069E580E20E941A2380919C03882381F026
:103F400000917203109173032091780330917903EB
:103F5000E12CF12C43E15CE169E587E00E941A2342
:103F60001092DC010E94131F81E08093E8010E94FF
:103F7000AD1D1092D4011F910F91FF90EF900C9402
:103F8000121ECF92DF92EF92FF920F93CF93DF93A7
:103F9000D82FC62FE091E901F0E0EE0FFF1FEC5B98
:103FA000FE4FC080D180482F4295407F4F5F47FD34
:103FB0000BC0E0907203F09073030AE02EE669E014
:103FC0008BE493E00E947D1A8AE090E09093500386
:103FD00080934F03ED2FF0E0CF0144E0880F991F4D
:103FE0004A95E1F702969093520380935103EE0FA6
:103FF000FF1FEC0DFD1D859194910E947222E090AF
:104000007003F09071038091720390917303909309
:10401000540380935303F0925603E09255034C2FC0
:104020004295407F4F5F47FD07C00AE02EE669E0FA
:104030008BE493E00E947D1A8AE090E09093500315
:1040400080934F036C2F70E0CB0124E0880F991F01
:104050002A95E1F702969093520380935103FB0156
:10406000EE0FFF1FEC0DFD1D859194910E947222B1
:1040700080917203909173032091700330917103CA
:104080003093540320935303909356038093550326
:10409000DF91CF910F91FF90EF90DF90CF90089537
:1040A0006F927F928F929F92AF92BF92CF92DF9248
:1040B000EF92FF920F931F93CF93DF93C82E962E0C
:1040C0008093E90160917203709173038BE493E034
:1040D0000E94C61A8C2D90E0880F991FFC01EE5E9D
:1040E000FE4F8080FC01EC5BFE4FA080B180C0E001
:1040F000D0E0D12C4AE0642E712CD81408F051C0C5
:10410000E0907003F0907103D9101BC0C7FD08C088
:104110000CE020E74C2F68E08BE493E00E947D1ACE
:104120008091700390917103209172033091730319
:104130003093540320935303909356038093550375
:104140000BC00CE010E020E730E0AE0168E070E06A
:104150008BE493E00E94FC147092500360924F0332
:10416000CE0102969093520380935103F5018591FD
:1041700094910E9472228091720390917303209116
:104180007003309171033093540320935303909341
:10419000560380935503D394609682E0A80EB11C19
:1041A000ACCF9092D70181E08093D80183E0C81210
:1041B00021C02091CE0180E090E0922F990F990FBD
:1041C000990FE090D001F090D10125E0EE0CFF1C9A
:1041D0002A95E1F7E82AF92A8091D2019091D3013A
:1041E000E82AF92A0AE12AE140E663E38BE493E056
:1041F0000E947D1ADF91CF911F910F91FF90EF9058
:10420000DF90CF90BF90AF909F908F907F906F90F6
:104210000895E091E501F0E0EE0FFF1FE658FC4F36
:104220008081918197FF02C080E090E09093E70148
:104230008093E60182E08093E80108951F920F9237
:104240000FB60F9211240F900FBE0F901F9018956C
:104250001F920F920FB60F9211248F939F9380910C
:10426000F001309912C0811118C08091EE01909137
:10427000EF01049790F081E08093F1018093F001C9
:104280001092FD011092FC0104C0882331F01092BD
:10429000F0011092EF011092EE01809102026399F9
:1042A00012C0811118C08091F6019091F701049716
:1042B00090F081E080930302809302021092FB0150
:1042C0001092FA0104C0882331F010920202109279
:1042D000F7011092F6018091F401319912C0811119
:1042E00018C08091F2019091F301049790F081E061
:1042F0008093F5018093F4011092FF011092FE016A
:1043000004C0882331F01092F4011092F30110924E
:10431000F2019F918F910F900FBE0F901F901895F3
:104320001F920F920FB60F9211242F933F934F932A
:104330005F936F937F938F939F93AF93BF93EF930D
:10434000FF930E942821FF91EF91BF91AF919F9120
:104350008F917F916F915F914F913F912F910F902E
:104360000FBE0F901F901895E091DA01F091DB01DC
:10437000309709F45EC0823009F45BC090916C0202
:10438000943660F1608171819091D901492F50E09C
:10439000833019F051954195510920917202309165
:1043A0007302460F571F421753078CF0292F30E036
:1043B000833019F0319521953109809174029091E3
:1043C0007502260F371F821793070CF49C01318367
:1043D00020830E94091C10926C0205C08091040287
:1043E000980F90936C028091FA019091FB01893EA5
:1043F000934020F08091020281110BC08091FE0158
:104400009091FF01893E9340A0F08091F4018823B0
:1044100081F0809174029091750220917202309126
:104420007302821B930B853691051CF08AE0809302
:10443000D9010895009769F0FC0101900020E9F787
:104440003197AF01481B590BBC018BE493E00C94EE
:10445000B72480E090E008958F929F92AF92BF9230
:104460000F931F93CF93DF93CDB7DEB7A1970FB60E
:10447000F894DEBF0FBECDBF19A2423008F44AE067
:104480008E010F5D1F4F842E912CA12CB12CA50104
:1044900094010E945538E62FB901CA010150110953
:1044A000EA3014F4E05D01C0E95CD801EC93232B01
:1044B000242B252B61F7C8010E941A22A1960FB662
:1044C000F894DEBF0FBECDBFDF91CF911F910F914A
:1044D000BF90AF909F908F900895682F8BE493E0EA
:1044E0000C946C130F931F93CF93DF938C01C0E058
:1044F000D0E0F801EC0FFD1F6491662341F08BE4DE
:1045000093E00E946C13892B11F02196F2CFCE011B
:10451000DF91CF911F910F9108952F923F924F926B
:104520005F926F927F928F929F92AF92BF92CF9243
:10453000DF92EF92FF920F931F93CF93DF9300D000
:1045400000D000D0CDB7DEB74C83B22E09831A83DA
:10455000EB82AF2C0FEF020F060F242F2150280FF4
:10456000462F682F8BE493E00E943E1A8BE493E081
:104570000E94B519212C9C81892F90E09E838D8308
:104580004B2C512C3C016C187D08EE24FF24EC18B8
:10459000FD08B21499F100E010E0822C912C8D817D
:1045A0009E810817190741F1D7FE04C00E151F059B
:1045B00024F408C0061517052CF43324339484140E
:1045C00095040CF0312C8BE493E00E94AB19311070
:1045D00002C08A2D01C08A810E94CC198BE493E02D
:1045E0000E94AB19311002C08B8101C089810E94E9
:1045F000CC190F5F1F4FD3CF2394CBCF8BE493E025
:1046000026960FB6F894DEBF0FBECDBFDF91CF91D7
:104610001F910F91FF90EF90DF90CF90BF90AF90E0
:104620009F908F907F906F905F904F903F902F90D2
:104630000C94C1192F923F924F925F926F927F928A
:104640008F929F92AF92BF92CF92DF92EF92FF92A2
:104650000F931F93CF93DF93CDB7DEB728970FB695
:10466000F894DEBF0FBECDBF6A012B833C830D8360
:104670001E83FA01F491FF83FA0131962491298374
:10468000F7FE04C06E2C6194E12C01C0612C0FEF89
:10469000060F3981030F2FEF280F9F81290F462F17
:1046A000682F8BE493E00E943E1AF60132967490D4
:1046B000EF810E2F10E0F981AF2EB12CEF9F90010A
:1046C00011243A8329838BE493E00E94B51918865C
:1046D0001F82412C312C512C48018E189108015019
:1046E000110989819A81EF81F8858E179F0709F456
:1046F00052C0872D90E020E830E0042C02C03595B0
:1047000027950A94E2F782239323E52CF12C892B39
:1047100061F0561450F0E814F9043CF4832D90E055
:10472000222423948A159B050CF0212C8BE493E022
:104730000E94AB19211002C08E8101C08C810E94A1
:10474000CC198BE493E00E94AB19211002C08D813B
:1047500001C08B810E94CC192F8138852F5F3F4F7C
:1047600038872F8336E0341510F043940CC0EF8166
:10477000F88583E0F695E7958A95E1F73296EC0D9A
:10478000FD1D7490412CE016F10614F45394A9CF4A
:104790003394512CA6CF8BE493E028960FB6F8946F
:1047A000DEBF0FBECDBFDF91CF911F910F91FF9064
:1047B000EF90DF90CF90BF90AF909F908F907F90C1
:1047C0006F905F904F903F902F900C94C11990E0A4
:1047D000FC01E95FFA4D2491FC01E151FB4D84910C
:1047E000882399F090E0880F991FFC01ED51FB4D53
:1047F000A591B491FC01E952FB4D859194918FB73D
:10480000F894EC91E22BEC938FBF08959091E20223
:104810009111FCCF91E09093E2029093E1022FEF8F
:104820002093E0021092DF02260F2093DE02909385
:10483000DD029091DD02880F892B8093DD0280914B
:10484000DC02813061F41092DC028091DD02809301
:10485000BB008091BC0083FDF8CF85EC01C085EEE4
:104860008093BC008091E2028130E1F38091DF020D
:10487000861710F46091DF02ACEBB2E0ECE9F2E0F5
:1048800080E0861721F09D9191938F5FFACF089574
:10489000813208F080E2682F8FE60E940624109291
:1048A0009B0280939A02089530919902313208F068
:1048B0004BC08091E2028111FCCF9091980222E0DE
:1048C0002093E20221E02093E1022FEF2093E00207
:1048D0001092DF023093DE02E8E7F2E0ACEBB2E0E8
:1048E00020E0321721F041914D932F5FFACF1092C3
:1048F000DD022091DD02990F922B9093DD029091C1
:10490000DC02913061F41092DC029091DD02909310
:10491000BB009091BC0093FDF8CF95EC01C095EEE3
:104920009093BC009091E2029230E1F39091E0020A
:104930009F3F79F08091E002803241F08091E00267
:10494000803331F084E005C081E003C082E001C023
:1049500083E01092770210929902109276020895E5
:10496000682F83EE92E00C9438130C941A22CF92A5
:10497000DF92EF92FF920F931F93CF93DF936C011F
:104980007A018B01C0E0D0E0CE15DF0581F0D801BF
:104990006D918D01D601ED91FC910190F081E02D9A
:1049A000C6010995892B11F02196EECF7E01C70132
:1049B000DF91CF911F910F91FF90EF90DF90CF90FB
:1049C0000895682F83EE92E00C943813CF92DF9213
:1049D000EF92FF92CF93DF936C01990FEE08FF08DF
:1049E000F7FE17C08DE20E946D22EC016627772743
:1049F000CB016C197D098E099F094AE00E942C2287
:104A00008C0F9D1FDF91CF91FF90EF90DF90CF90A3
:104A100008954AE0C701B601DF91CF91FF90EF9072
:104A2000DF90CF900C942C22BF92CF92DF92EF9226
:104A3000FF920F931F93CF93DF93C82F811102C072
:104A4000DEE101C0D9E181E080937602D093980243
:104A50001092770210929902C11103C088EE90E083
:104A600002C088EA90E00E94B0240E94542466E0CC
:104A70008D2F0E94062410929B0280939A0283EE4F
:104A800092E00E94EF126C0183EE92E00E94EF121E
:104A900060E070E0782FC62AD72A83EE92E00E9469
:104AA000EF127C0183EE92E00E94EF1260E070E072
:104AB000782FE62AF72A83EE92E00E94EF128C010B
:104AC00083EE92E00E94EF12B82E8CE0C89FE001C6
:104AD0001124C55DDC4FB601DD0C880B990B0E94DB
:104AE000143A688379838A839B83B701FF0C880B10
:104AF000990B0E94143A6C837D838E839F8360E0C0
:104B000070E07B2D602B712B072E000C880B990B0E
:104B10000E94143A688779878A879B87DF91CF91B3
:104B20001F910F91FF90EF90DF90CF90BF9008956D
:104B30008F929F92AF92BF92CF92DF92EF92FF92AD
:104B40000F931F93CF93DF936B017C01142F9B0175
:104B5000AC010E94FF3B882319F08FEB91E027C046
:104B600046015701E894B7F82FEF3FEF4FE75FE7B3
:104B7000C501B4010E94FF3B81110DC02FEF3FEF33
:104B80004FE75FE7C501B4010E94653918161CF4B0
:104B900083EC91E00CC02FEF3FEF4FE75FE4C701DC
:104BA000B6010E94EB3A181684F487EC91E0DF918D
:104BB000CF911F910F91FF90EF90DF90CF90BF901A
:104BC000AF909F908F900C941A222FEF3FEF4FE7FA
:104BD0005FECC701B6010E94653987FDE6CF20E092
:104BE00030E0A901C701B6010E94653987FF09C0FD
:104BF0008DE20E946D22EC01F7FAF094F7F8F09440
:104C000002C0C0E0D0E000E060E070E080E09FE340
:104C1000101741F020E030E040E251E40E946A3990
:104C20000F5FF6CFA70196010E9487386B017C01C8
:104C30000E94E3394B015C014AE00E942C22C80F1C
:104C4000D91F1123A9F1C501B4010E94123A9B0199
:104C5000AC01C701B6010E9486386B017C018EE26F
:104C60000E946D22C80FD91F20E030E040E251E4DD
:104C7000C701B6010E94F83A4B015C010E94E3397A
:104C80006B01E12CF12C4AE0C701B6010E942C22F5
:104C9000C80FD91FC701B6010E94123A9B01AC018F
:104CA000C501B4010E9486386B017C011150E1F608
:104CB000CE01DF91CF911F910F91FF90EF90DF9088
:104CC000CF90BF90AF909F908F900895E9E6F0E06D
:104CD0008081837F84608083E99A0895CF93DF93F6
:104CE000EB0121E02093760229E1209398021092B3
:104CF0007702109299020E94E124CE010E94E124E1
:104D0000DF91CF910C945424CF93DF93EB0121E0FA
:104D1000209376022EE1209398021092770210924F
:104D200099020E94E124CE010E94E124DF91CF91FB
:104D30000C945424CF93C62F91E0909376029FE673
:104D4000909398021092770210929902682F83EE46
:104D500092E00E9438136C2F83EE92E00E94381389
:104D6000CF910C94542491E0909376029FE6909317
:104D700098021092770210929902682F83EE92E0C7
:104D80000E9438130E94542490E09093BA038093B9
:104D9000B90381E090E00E94482483EE92E00E94F3
:104DA000EF120895CF93DF9342E00E949825EC0123
:104DB0008BEC91E00E941A228C0F9D1FDF91CF9106
:104DC0000895CF93DF93CDB7DEB7CA54D1090FB69C
:104DD000F894DEBF0FBECDBF789484B5826084BDE9
:104DE00084B5816084BD85B5826085BD85B58160EF
:104DF00085BD80916E00816080936E00109281006D
:104E00008091810082608093810080918100816027
:104E100080938100809180008160809380008091E8
:104E2000B10084608093B1008091B0008160809374
:104E3000B0008091910082608093910080919100F8
:104E400081608093910080919000816080939000B8
:104E50008091A10082608093A1008091A100816077
:104E60008093A1008091A00081608093A000809138
:104E70007A00846080937A0080917A0082608093C7
:104E80007A0080917A00816080937A0080917A0024
:104E9000806880937A001092C1000E94A51C83E074
:104EA0008093040185E00E94E72384B1886284B97D
:104EB00085E00E94E72360E085E00E94C916109219
:104EC00062031092630380915C030E94E723809148
:104ED0005B030E94E72380915B03082E000C990B73
:104EE000FC01E151FB4DE491F0E0EE0FFF1FE952B0
:104EF000FB4D2591349130936903209368032091F1
:104F00005C03022E000C330BF901E151FB4DE491DF
:104F1000F0E0EE0FFF1FE952FB4D45915491509385
:104F20006B0340936A03FC01E95FFA4DE491E0935F
:104F30006E03F901E95FFA4DE491E0936F031FB747
:104F4000F89480910802811124C0E9EFF4E2849181
:104F5000E1E1F5E29491E82FF0E0EE0FFF1FED5153
:104F6000FB4DA591B491EC91E92321F461E08AE035
:104F70000E94C9168AE00E94E7238CB580618CBD2F
:104F80008CB580648CBD8DE00E94E7238BE00E948D
:104F9000E723809108028F5F809308021FBF8CB5C2
:104FA0008C7F8CBD8DB58E7F8DBD8CB5837F8CBD88
:104FB00082E08093600383E080936103E7EEFAE18F
:104FC000D49078EEE72E7AE1F72EDD2009F437C091
:104FD000F70164918BE493E00E94E6195701F2E037
:104FE000AF0EB11CF70131961491212F2078C22EFB
:104FF0001F777501012F015050F0F70164918BE488
:1050000093E00E94D319FFEFEF1AFF0AF4CF750166
:10501000E10EF11CC11002C0DA94D7CF87010F5FF7
:105020001F4FF701649170E06F3F710511F464EF59
:1050300071E080E090E00E944C177801EDCF6AE0CB
:1050400070E080E090E00E944C178DB581608DBDCE
:105050008CB58C7F8CBD609187038BE493E00E94BC
:10506000061A62E370E080E090E00E944C176091C5
:105070007203709173038BE493E00E94C61A62E39B
:1050800070E080E090E00E944C178091D6010E9471
:10509000301E809168008A608093680080916C0067
:1050A000876080936C0088E080937300E091E50155
:1050B000F0E0EE0FFF1FE658FC4F8081918197FFD3
:1050C00002C080E090E09093E7018093E601739A3C
:1050D00088B1836088B95B9A8BEB9BE19093030165
:1050E000809302010E9466265A9A8AEE9BE1909371
:1050F000010180930001809169008C7F8160809321
:105100006900E89A10929B0210929A02109277021C
:10511000109299021092E20281E08093E1021092D3
:10512000DC0261E082E10E94C91661E083E10E9435
:10513000C9168091B9008E7F8093B9008091B90023
:105140008D7F8093B9008CE58093B80085E48093CF
:10515000BC0080E00E94B32687FD04C060E880E0C8
:105160000E949A2682E00E94B32686FF05C0682F1F
:105170006F7B82E00E949A2683E00E94B326682F0C
:10518000686083E00E949A2660918E0388E00E9406
:105190009A2660917203709173038BE493E00E94EE
:1051A000C61A80917203909173032091700330911D
:1051B00071033093540320935303909356038093C9
:1051C00055030E945C1F81E08093E80160E870E075
:1051D00080E690E00E94842660E170E082E690E044
:1051E0000E94842667E270E080E290E00E946E26D2
:1051F00068E870E083E290E00E946E268CE0E0E9CF
:10520000F3E0AFE1B3E001900D928A95E1F7789475
:105210000E94861700911C0210911D0220911E020F
:1052200030911F026B017C01C01AD10AE20AF30A15
:10523000C0920402D0920502E0920602F0920702A8
:1052400060931C0270931D0280931E0290931F02B4
:1052500080910302882309F460C08091DA01909163
:10526000DB01892B19F081E08093D901E091E901FC
:10527000E11134C08091E201882309F18091E101BC
:10528000882311F0815001C085E0E82FF0E0EE0F97
:10529000FF1FE658FC4F20813181232B89F3809337
:1052A000E10181E080931B020E94861760930F0248
:1052B0007093100280931102909312022CC080917F
:1052C000D601282F30E02230310514F0EFEFE80F3F
:1052D0008E2F0E94301E0E94121E1DC08091D80188
:1052E0008823C9F08091D701282F30E0F0E0EE0F3D
:1052F000FF1FEE5EFE4F408151814150510924173E
:10530000350748F461E0680F0E94C11F8091D70102
:105310008F5F8093D701109203028091020288234D
:1053200089F020910402309105028091FA01909158
:10533000FB01820F931F9093FB018093FA0181E0A0
:105340000E94B4218091F6019091F701843091057B
:1053500050F42091040230910502820F931F909324
:10536000F7018093F6018091F501882309F454C078
:105370008091DA019091DB01892B19F081E0809313
:10538000D9018091E901811134C08091E201882323
:1053900009F18091E101853010F48F5F01C080E058
:1053A000E82FF0E0EE0FFF1FE658FC4F208131811F
:1053B000232B89F38093E10181E080931B020E94FB
:1053C000861760930F0270931002809311029093DE
:1053D000120220C08091D601282F30E02430310500
:1053E00014F48F5F01C085E00E94301E0E94121EDF
:1053F00011C08091D801882369F08091D70188235A
:1054000049F06FEF680F0E94C11F8091D701815052
:105410008093D7011092F5018091F401882389F0DF
:1054200020910402309105028091FE019091FF01CC
:10543000820F931F9093FF018093FE0183E00E94EF
:10544000B4218091F2019091F3018430910550F4E0
:105450002091040230910502820F931F9093F30173
:105460008093F2018091F101882309F404C48091B2
:10547000DA019091DB01009719F021E02093D90126
:105480002091E901222309F471C02A3009F089C072
:1054900020910303309104034091050350910603CA
:1054A0006091F7027091F8028091F9029091FA02EE
:1054B0000E94873820E030E040E05FE30E94F83A45
:1054C0006B017C012091FF023091000340910103A8
:1054D000509102036091F3027091F4028091F50201
:1054E0009091F6020E94873820E030E040E05FE3D0
:1054F0000E94F83A4B015C012091FB023091FC02C2
:105500004091FD025091FE026091EF027091F00215
:105510008091F1029091F2020E94873820E030E001
:1055200040E05FE30E94F83A609390037093910328
:1055300080939203909393038092940390929503A7
:10554000A0929603B0929703C0929803D0929903C9
:10555000E0929A03F0929B038CE0E0E9F3E0AFE184
:10556000B3E001900D928A95E1F734C38091E50193
:105570008093E10181E08093E20180931B020E940D
:10558000861760930F02709310028093110290931C
:10559000120280918D03882309F46BC30E940921B4
:1055A00068C32091D801222309F457C38091D70101
:1055B000E0910B02F0910C02309729F08083109259
:1055C0000C0210920B029091E901973009F402C38A
:1055D00038F4923009F4E7C2933009F4FEC209C0EE
:1055E0009B3009F4ECC29D3009F4F4C2983009F400
:1055F00020C3382F2AE0929F300D11243F3209F446
:10560000C6C208F05FC03F3009F4CEC020F53C3080
:1056100009F4B7C0C8F43A3009F49AC03B3009F035
:1056200028C360E082E00E94502086E090E09093E2
:10563000500380934F0384E790E09093520380934C
:1056400051038EEC9BE1CFC03D3009F4A1C03E3048
:1056500009F4EFC20EC3383209F4B9C238F430315C
:1056600009F4C4C0313109F4B5C203C3393209F4B5
:105670007FC2E82FF0E0EE0FFF1FE459FC4FF093DC
:105680000A02E093090280819181292F26952695AF
:1056900026952093CE011092CF019C01207E377079
:1056A000B5E036952795BA95E1F73093D10120936F
:1056B000D0018F7199279093D3018093D20160E03C
:1056C00083E0D5C2323409F44AC170F53E3309F49F
:1056D000B2C090F43C3309F47AC23D3309F0C9C238
:1056E0006091880387E00E94502088E893E09093BF
:1056F0000C0280930B02BDC2609172037091730320
:10570000303409F4C2C008F0DBC090918C0381E012
:10571000892780938C0324E630E030935003209354
:105720004F0322E330E0BFC0393709F427C138F412
:10573000333409F420C1383709F44CC29AC23B37DC
:1057400009F4C9C108F444C13C3709F4CBC191C282
:10575000F999FECF00E7E02E03E0F02E02E010E022
:10576000D7016D917D01C8010E940B380F5F1F4F5B
:105770000C331105A9F760918E0388E00E949A26E8
:10578000BAC147E150E060E070E087EB93E006C00B
:105790004BE350E060E070E085EB93E00E94541D25
:1057A00081E080930D0265C28BE08093E90188E679
:1057B0009CE190930301809302010E946626609110
:1057C0007203709173038BE493E00E94C61A1092E7
:1057D000500310924F0384E190E090935203809322
:1057E000510388E59BE10E94722243C2F999FECFE2
:1057F0006091D60181E090E00E940B3880917003A7
:10580000909171032091720330917303309354038C
:1058100020935303909356038093550389E690E0B9
:105820009093500380934F0382E690E0909352034D
:10583000809351034BC190918A0381E08927809323
:105840008A0324E630E03093500320934F0322E292
:1058500030E0309352032093510320917003309134
:10586000710340917203509173035093540340931A
:1058700053033093560320935503811103C087EAE5
:1058800091E026C184EA91E023C190918D0381E0EB
:10589000892780938D0324E630E0309350032093D2
:1058A0004F0322E430E030935203209351032091C0
:1058B00070033091710370935403609353037CC061
:1058C0008BE493E00E94C61A1092500310924F038B
:1058D00010925203109251038DE79BE10E947222B5
:1058E000C12C1EEFD12EEE24EA9416E4F12EC092C4
:1058F000FB02D092FC02E092FD02F092FE02C09206
:10590000FF02D0920003E0920103F0920203C092E2
:105910000303D0920403E0920503F092060320E013
:1059200030E040E057EC2093EF023093F0024093D8
:10593000F1025093F2022093F3023093F402409369
:10594000F5025093F6022093F7023093F802409349
:10595000F9025093FA028AE08093E9018AC16091CA
:105960009D038DE00E9450204DE953E050930C02BE
:1059700040930B027EC160E08CE079C190919C0362
:1059800081E0892780939C0324E630E03093500324
:1059900020934F0322E130E03093520320935103D0
:1059A0002091700330917103409172035091730301
:1059B000509354034093530330935603209355035D
:1059C000811103C08EEA91E083C08AEA91E080C031
:1059D00081E00E9414258CE0E7E3F3E0DE011D96F0
:1059E00001900D928A95E1F7CE010D960E94501913
:1059F00049885A886B887C888D889E88AF88B88C47
:105A000020E030E0A9016D857E858F8598890E9410
:105A1000F83A6B017C0120E030E0A901C301B2013A
:105A20000E94F83A69AB7AAB8BAB9CAB20E030E0DC
:105A3000A901C501B4010E94F83A9B01AC0169A912
:105A40007AA98BA99CA90E94863869837A838B8363
:105A50009C83A7019601C501B4010E9486386D831D
:105A60007E838F839887A3019201C701B6010E94AC
:105A7000863869877A878B879C87CE0101960E943A
:105A800050198CE0FE013196AEE9B3E001900D9221
:105A90008A95E1F784E690E09093500380934F035A
:105AA00082E290E0909352038093510380917003BF
:105AB00090917103209172033091730330935403DA
:105AC00020935303909356038093550382EB91E008
:105AD0000E94B5243CC04FE750E060E87FEF8EE8BD
